{
	"practica_3/MonsterTokens.sol": {
		"MonsterTokens": {
			"abi": [
				{
					"inputs": [],
					"stateMutability": "nonpayable",
					"type": "constructor"
				},
				{
					"anonymous": false,
					"inputs": [
						{
							"indexed": true,
							"internalType": "address",
							"name": "_owner",
							"type": "address"
						},
						{
							"indexed": true,
							"internalType": "address",
							"name": "_approved",
							"type": "address"
						},
						{
							"indexed": true,
							"internalType": "uint256",
							"name": "_tokenId",
							"type": "uint256"
						}
					],
					"name": "Approval",
					"type": "event"
				},
				{
					"anonymous": false,
					"inputs": [
						{
							"indexed": true,
							"internalType": "address",
							"name": "_from",
							"type": "address"
						},
						{
							"indexed": true,
							"internalType": "address",
							"name": "_to",
							"type": "address"
						},
						{
							"indexed": true,
							"internalType": "uint256",
							"name": "_tokenId",
							"type": "uint256"
						}
					],
					"name": "Transfer",
					"type": "event"
				},
				{
					"inputs": [],
					"name": "FEE",
					"outputs": [
						{
							"internalType": "uint256",
							"name": "",
							"type": "uint256"
						}
					],
					"stateMutability": "view",
					"type": "function"
				},
				{
					"inputs": [
						{
							"internalType": "uint256",
							"name": "token_id_p",
							"type": "uint256"
						},
						{
							"internalType": "string",
							"name": "nombre_arma",
							"type": "string"
						},
						{
							"internalType": "uint256",
							"name": "fire_power",
							"type": "uint256"
						}
					],
					"name": "addWeapon",
					"outputs": [],
					"stateMutability": "payable",
					"type": "function"
				},
				{
					"inputs": [
						{
							"internalType": "address",
							"name": "approved",
							"type": "address"
						},
						{
							"internalType": "uint256",
							"name": "tokenId",
							"type": "uint256"
						}
					],
					"name": "approve",
					"outputs": [],
					"stateMutability": "payable",
					"type": "function"
				},
				{
					"inputs": [
						{
							"internalType": "address",
							"name": "owner",
							"type": "address"
						}
					],
					"name": "balanceOf",
					"outputs": [
						{
							"internalType": "uint256",
							"name": "",
							"type": "uint256"
						}
					],
					"stateMutability": "view",
					"type": "function"
				},
				{
					"inputs": [],
					"name": "collectProfits",
					"outputs": [],
					"stateMutability": "nonpayable",
					"type": "function"
				},
				{
					"inputs": [
						{
							"internalType": "string",
							"name": "nombre",
							"type": "string"
						}
					],
					"name": "createNewToken",
					"outputs": [
						{
							"internalType": "uint256",
							"name": "",
							"type": "uint256"
						}
					],
					"stateMutability": "payable",
					"type": "function"
				},
				{
					"inputs": [
						{
							"internalType": "uint256",
							"name": "tokenId",
							"type": "uint256"
						}
					],
					"name": "getApproved",
					"outputs": [
						{
							"internalType": "address",
							"name": "",
							"type": "address"
						}
					],
					"stateMutability": "view",
					"type": "function"
				},
				{
					"inputs": [],
					"name": "getInterfaceIds",
					"outputs": [
						{
							"internalType": "bytes4",
							"name": "erc165Id",
							"type": "bytes4"
						},
						{
							"internalType": "bytes4",
							"name": "erc721Id",
							"type": "bytes4"
						}
					],
					"stateMutability": "pure",
					"type": "function"
				},
				{
					"inputs": [
						{
							"internalType": "uint256",
							"name": "token_id_p",
							"type": "uint256"
						},
						{
							"internalType": "uint8",
							"name": "incr",
							"type": "uint8"
						}
					],
					"name": "incrementFirePower",
					"outputs": [],
					"stateMutability": "payable",
					"type": "function"
				},
				{
					"inputs": [
						{
							"internalType": "uint256",
							"name": "tokenId",
							"type": "uint256"
						}
					],
					"name": "ownerOf",
					"outputs": [
						{
							"internalType": "address",
							"name": "",
							"type": "address"
						}
					],
					"stateMutability": "view",
					"type": "function"
				},
				{
					"inputs": [
						{
							"internalType": "uint256",
							"name": "token_id_u",
							"type": "uint256"
						}
					],
					"name": "removeMonsterToken",
					"outputs": [],
					"stateMutability": "payable",
					"type": "function"
				},
				{
					"inputs": [
						{
							"internalType": "address",
							"name": "from",
							"type": "address"
						},
						{
							"internalType": "address",
							"name": "to",
							"type": "address"
						},
						{
							"internalType": "uint256",
							"name": "tokenId",
							"type": "uint256"
						}
					],
					"name": "safeTransferFrom",
					"outputs": [],
					"stateMutability": "payable",
					"type": "function"
				},
				{
					"inputs": [
						{
							"internalType": "bytes4",
							"name": "interfaceId",
							"type": "bytes4"
						}
					],
					"name": "supportsInterface",
					"outputs": [
						{
							"internalType": "bool",
							"name": "",
							"type": "bool"
						}
					],
					"stateMutability": "pure",
					"type": "function"
				},
				{
					"inputs": [
						{
							"internalType": "address",
							"name": "from",
							"type": "address"
						},
						{
							"internalType": "address",
							"name": "to",
							"type": "address"
						},
						{
							"internalType": "uint256",
							"name": "tokenId",
							"type": "uint256"
						}
					],
					"name": "transferFrom",
					"outputs": [],
					"stateMutability": "payable",
					"type": "function"
				},
				{
					"stateMutability": "payable",
					"type": "receive"
				}
			],
			"devdoc": {
				"kind": "dev",
				"methods": {},
				"version": 1
			},
			"evm": {
				"assembly": "    /* \"practica_3/MonsterTokens.sol\":322:6720  contract MonsterTokens is ERC721simplified {... */\n  mstore(0x40, 0x80)\n    /* \"practica_3/MonsterTokens.sol\":471:476  10001 */\n  0x2711\n    /* \"practica_3/MonsterTokens.sol\":440:476  uint private token_id_actual = 10001 */\n  0x00\n  sstore\n    /* \"practica_3/MonsterTokens.sol\":848:849  0 */\n  0x00\n    /* \"practica_3/MonsterTokens.sol\":825:849  uint private creados = 0 */\n  0x05\n  sstore\n    /* \"practica_3/MonsterTokens.sol\":933:991  constructor() {... */\n  callvalue\n  dup1\n  iszero\n  tag_1\n  jumpi\n  revert(0x00, 0x00)\ntag_1:\n  pop\n    /* \"practica_3/MonsterTokens.sol\":974:984  msg.sender */\n  caller\n    /* \"practica_3/MonsterTokens.sol\":957:971  contract_owner */\n  0x06\n  0x00\n    /* \"practica_3/MonsterTokens.sol\":957:984  contract_owner = msg.sender */\n  0x0100\n  exp\n  dup2\n  sload\n  dup2\n  0xffffffffffffffffffffffffffffffffffffffff\n  mul\n  not\n  and\n  swap1\n  dup4\n  0xffffffffffffffffffffffffffffffffffffffff\n  and\n  mul\n  or\n  swap1\n  sstore\n  pop\n    /* \"practica_3/MonsterTokens.sol\":322:6720  contract MonsterTokens is ERC721simplified {... */\n  dataSize(sub_0)\n  dup1\n  dataOffset(sub_0)\n  0x00\n  codecopy\n  0x00\n  return\nstop\n\nsub_0: assembly {\n        /* \"practica_3/MonsterTokens.sol\":322:6720  contract MonsterTokens is ERC721simplified {... */\n      mstore(0x40, 0x80)\n      jumpi(tag_1, lt(calldatasize, 0x04))\n      shr(0xe0, calldataload(0x00))\n      dup1\n      0x50fac4f1\n      gt\n      tag_17\n      jumpi\n      dup1\n      0xb90f1aaa\n      gt\n      tag_18\n      jumpi\n      dup1\n      0xb90f1aaa\n      eq\n      tag_13\n      jumpi\n      dup1\n      0xc57981b5\n      eq\n      tag_14\n      jumpi\n      dup1\n      0xc958e0d6\n      eq\n      tag_15\n      jumpi\n      dup1\n      0xd6ad8a94\n      eq\n      tag_16\n      jumpi\n      jump(tag_2)\n    tag_18:\n      dup1\n      0x50fac4f1\n      eq\n      tag_10\n      jumpi\n      dup1\n      0x6352211e\n      eq\n      tag_11\n      jumpi\n      dup1\n      0x70a08231\n      eq\n      tag_12\n      jumpi\n      jump(tag_2)\n    tag_17:\n      dup1\n      0x0a0eac29\n      gt\n      tag_19\n      jumpi\n      dup1\n      0x0a0eac29\n      eq\n      tag_6\n      jumpi\n      dup1\n      0x23b872dd\n      eq\n      tag_7\n      jumpi\n      dup1\n      0x2d2d1451\n      eq\n      tag_8\n      jumpi\n      dup1\n      0x42842e0e\n      eq\n      tag_9\n      jumpi\n      jump(tag_2)\n    tag_19:\n      dup1\n      0x01ffc9a7\n      eq\n      tag_3\n      jumpi\n      dup1\n      0x081812fc\n      eq\n      tag_4\n      jumpi\n      dup1\n      0x095ea7b3\n      eq\n      tag_5\n      jumpi\n      jump(tag_2)\n    tag_1:\n      jumpi(tag_2, calldatasize)\n      stop\n    tag_2:\n      revert(0x00, 0x00)\n        /* \"practica_3/MonsterTokens.sol\":6252:6486  function supportsInterface(bytes4 interfaceId) external pure override returns (bool) {... */\n    tag_3:\n      callvalue\n      dup1\n      iszero\n      tag_22\n      jumpi\n      revert(0x00, 0x00)\n    tag_22:\n      pop\n      tag_23\n      0x04\n      dup1\n      calldatasize\n      sub\n      dup2\n      add\n      swap1\n      tag_24\n      swap2\n      swap1\n      tag_25\n      jump\t// in\n    tag_24:\n      tag_26\n      jump\t// in\n    tag_23:\n      mload(0x40)\n      tag_27\n      swap2\n      swap1\n      tag_28\n      jump\t// in\n    tag_27:\n      mload(0x40)\n      dup1\n      swap2\n      sub\n      swap1\n      return\n        /* \"practica_3/MonsterTokens.sol\":6050:6246  function getApproved(uint256 tokenId) external view override returns (address) {... */\n    tag_4:\n      callvalue\n      dup1\n      iszero\n      tag_29\n      jumpi\n      revert(0x00, 0x00)\n    tag_29:\n      pop\n      tag_30\n      0x04\n      dup1\n      calldatasize\n      sub\n      dup2\n      add\n      swap1\n      tag_31\n      swap2\n      swap1\n      tag_32\n      jump\t// in\n    tag_31:\n      tag_33\n      jump\t// in\n    tag_30:\n      mload(0x40)\n      tag_34\n      swap2\n      swap1\n      tag_35\n      jump\t// in\n    tag_34:\n      mload(0x40)\n      dup1\n      swap2\n      sub\n      swap1\n      return\n        /* \"practica_3/MonsterTokens.sol\":3299:3775  function approve(address approved, uint256 tokenId) external payable override {... */\n    tag_5:\n      tag_36\n      0x04\n      dup1\n      calldatasize\n      sub\n      dup2\n      add\n      swap1\n      tag_37\n      swap2\n      swap1\n      tag_38\n      jump\t// in\n    tag_37:\n      tag_39\n      jump\t// in\n    tag_36:\n      stop\n        /* \"practica_3/MonsterTokens.sol\":1860:2626  function addWeapon( uint token_id_p, string calldata nombre_arma, uint fire_power) external payable {... */\n    tag_6:\n      tag_40\n      0x04\n      dup1\n      calldatasize\n      sub\n      dup2\n      add\n      swap1\n      tag_41\n      swap2\n      swap1\n      tag_42\n      jump\t// in\n    tag_41:\n      tag_43\n      jump\t// in\n    tag_40:\n      stop\n        /* \"practica_3/MonsterTokens.sol\":3781:4424  function transferFrom(address from,address to, uint256 tokenId) external payable override {... */\n    tag_7:\n      tag_44\n      0x04\n      dup1\n      calldatasize\n      sub\n      dup2\n      add\n      swap1\n      tag_45\n      swap2\n      swap1\n      tag_46\n      jump\t// in\n    tag_45:\n      tag_47\n      jump\t// in\n    tag_44:\n      stop\n        /* \"practica_3/MonsterTokens.sol\":6492:6683  function getInterfaceIds() external pure returns (bytes4 erc165Id, bytes4 erc721Id) {... */\n    tag_8:\n      callvalue\n      dup1\n      iszero\n      tag_48\n      jumpi\n      revert(0x00, 0x00)\n    tag_48:\n      pop\n      tag_49\n      tag_50\n      jump\t// in\n    tag_49:\n      mload(0x40)\n      tag_51\n      swap3\n      swap2\n      swap1\n      tag_52\n      jump\t// in\n    tag_51:\n      mload(0x40)\n      dup1\n      swap2\n      sub\n      swap1\n      return\n        /* \"practica_3/MonsterTokens.sol\":4430:5664  function safeTransferFrom( address from, address to, uint256 tokenId) external payable override {... */\n    tag_9:\n      tag_53\n      0x04\n      dup1\n      calldatasize\n      sub\n      dup2\n      add\n      swap1\n      tag_54\n      swap2\n      swap1\n      tag_46\n      jump\t// in\n    tag_54:\n      tag_55\n      jump\t// in\n    tag_53:\n      stop\n        /* \"practica_3/MonsterTokens.sol\":1365:1854  function removeMonsterToken(uint token_id_u) external payable {... */\n    tag_10:\n      tag_56\n      0x04\n      dup1\n      calldatasize\n      sub\n      dup2\n      add\n      swap1\n      tag_57\n      swap2\n      swap1\n      tag_32\n      jump\t// in\n    tag_57:\n      tag_58\n      jump\t// in\n    tag_56:\n      stop\n        /* \"practica_3/MonsterTokens.sol\":5847:6044  function ownerOf(uint256 tokenId) external view override returns (address) {... */\n    tag_11:\n      callvalue\n      dup1\n      iszero\n      tag_59\n      jumpi\n      revert(0x00, 0x00)\n    tag_59:\n      pop\n      tag_60\n      0x04\n      dup1\n      calldatasize\n      sub\n      dup2\n      add\n      swap1\n      tag_61\n      swap2\n      swap1\n      tag_32\n      jump\t// in\n    tag_61:\n      tag_62\n      jump\t// in\n    tag_60:\n      mload(0x40)\n      tag_63\n      swap2\n      swap1\n      tag_35\n      jump\t// in\n    tag_63:\n      mload(0x40)\n      dup1\n      swap2\n      sub\n      swap1\n      return\n        /* \"practica_3/MonsterTokens.sol\":5670:5841  function balanceOf(address owner) external view override returns (uint256) {... */\n    tag_12:\n      callvalue\n      dup1\n      iszero\n      tag_64\n      jumpi\n      revert(0x00, 0x00)\n    tag_64:\n      pop\n      tag_65\n      0x04\n      dup1\n      calldatasize\n      sub\n      dup2\n      add\n      swap1\n      tag_66\n      swap2\n      swap1\n      tag_67\n      jump\t// in\n    tag_66:\n      tag_68\n      jump\t// in\n    tag_65:\n      mload(0x40)\n      tag_69\n      swap2\n      swap1\n      tag_70\n      jump\t// in\n    tag_69:\n      mload(0x40)\n      dup1\n      swap2\n      sub\n      swap1\n      return\n        /* \"practica_3/MonsterTokens.sol\":997:1359  function createNewToken(string calldata nombre) external payable returns (uint) {... */\n    tag_13:\n      tag_71\n      0x04\n      dup1\n      calldatasize\n      sub\n      dup2\n      add\n      swap1\n      tag_72\n      swap2\n      swap1\n      tag_73\n      jump\t// in\n    tag_72:\n      tag_74\n      jump\t// in\n    tag_71:\n      mload(0x40)\n      tag_75\n      swap2\n      swap1\n      tag_70\n      jump\t// in\n    tag_75:\n      mload(0x40)\n      dup1\n      swap2\n      sub\n      swap1\n      return\n        /* \"practica_3/MonsterTokens.sol\":892:926  uint256 public constant FEE = 1000 */\n    tag_14:\n      callvalue\n      dup1\n      iszero\n      tag_76\n      jumpi\n      revert(0x00, 0x00)\n    tag_76:\n      pop\n      tag_77\n      tag_78\n      jump\t// in\n    tag_77:\n      mload(0x40)\n      tag_79\n      swap2\n      swap1\n      tag_70\n      jump\t// in\n    tag_79:\n      mload(0x40)\n      dup1\n      swap2\n      sub\n      swap1\n      return\n        /* \"practica_3/MonsterTokens.sol\":3000:3292  function collectProfits() external {... */\n    tag_15:\n      callvalue\n      dup1\n      iszero\n      tag_80\n      jumpi\n      revert(0x00, 0x00)\n    tag_80:\n      pop\n      tag_81\n      tag_82\n      jump\t// in\n    tag_81:\n      stop\n        /* \"practica_3/MonsterTokens.sol\":2632:2994  function incrementFirePower(uint token_id_p, uint8 incr) external payable {... */\n    tag_16:\n      tag_83\n      0x04\n      dup1\n      calldatasize\n      sub\n      dup2\n      add\n      swap1\n      tag_84\n      swap2\n      swap1\n      tag_85\n      jump\t// in\n    tag_84:\n      tag_86\n      jump\t// in\n    tag_83:\n      stop\n        /* \"practica_3/MonsterTokens.sol\":6252:6486  function supportsInterface(bytes4 interfaceId) external pure override returns (bool) {... */\n    tag_26:\n        /* \"practica_3/MonsterTokens.sol\":6331:6335  bool */\n      0x00\n        /* \"practica_3/MonsterTokens.sol\":6378:6389  interfaceId */\n      dup2\n        /* \"practica_3/MonsterTokens.sol\":6350:6389  type(ERC165).interfaceId == interfaceId */\n      not(0xffffffffffffffffffffffffffffffffffffffffffffffffffffffff)\n      and\n        /* \"practica_3/MonsterTokens.sol\":6350:6374  type(ERC165).interfaceId */\n      0x01ffc9a700000000000000000000000000000000000000000000000000000000\n        /* \"practica_3/MonsterTokens.sol\":6350:6389  type(ERC165).interfaceId == interfaceId */\n      not(0xffffffffffffffffffffffffffffffffffffffffffffffffffffffff)\n      and\n      eq\n        /* \"practica_3/MonsterTokens.sol\":6350:6442  type(ERC165).interfaceId == interfaceId || type(ERC721simplified).interfaceId == interfaceId */\n      dup1\n      tag_88\n      jumpi\n      pop\n        /* \"practica_3/MonsterTokens.sol\":6431:6442  interfaceId */\n      dup2\n        /* \"practica_3/MonsterTokens.sol\":6393:6442  type(ERC721simplified).interfaceId == interfaceId */\n      not(0xffffffffffffffffffffffffffffffffffffffffffffffffffffffff)\n      and\n        /* \"practica_3/MonsterTokens.sol\":6393:6427  type(ERC721simplified).interfaceId */\n      0x73884ab300000000000000000000000000000000000000000000000000000000\n        /* \"practica_3/MonsterTokens.sol\":6393:6442  type(ERC721simplified).interfaceId == interfaceId */\n      not(0xffffffffffffffffffffffffffffffffffffffffffffffffffffffff)\n      and\n      eq\n        /* \"practica_3/MonsterTokens.sol\":6350:6442  type(ERC165).interfaceId == interfaceId || type(ERC721simplified).interfaceId == interfaceId */\n    tag_88:\n        /* \"practica_3/MonsterTokens.sol\":6347:6456  if(type(ERC165).interfaceId == interfaceId || type(ERC721simplified).interfaceId == interfaceId)  return true */\n      iszero\n      tag_89\n      jumpi\n        /* \"practica_3/MonsterTokens.sol\":6452:6456  true */\n      0x01\n        /* \"practica_3/MonsterTokens.sol\":6445:6456  return true */\n      swap1\n      pop\n      jump(tag_87)\n        /* \"practica_3/MonsterTokens.sol\":6347:6456  if(type(ERC165).interfaceId == interfaceId || type(ERC721simplified).interfaceId == interfaceId)  return true */\n    tag_89:\n        /* \"practica_3/MonsterTokens.sol\":6473:6478  false */\n      0x00\n        /* \"practica_3/MonsterTokens.sol\":6466:6478  return false */\n      swap1\n      pop\n        /* \"practica_3/MonsterTokens.sol\":6252:6486  function supportsInterface(bytes4 interfaceId) external pure override returns (bool) {... */\n    tag_87:\n      swap2\n      swap1\n      pop\n      jump\t// out\n        /* \"practica_3/MonsterTokens.sol\":6050:6246  function getApproved(uint256 tokenId) external view override returns (address) {... */\n    tag_33:\n        /* \"practica_3/MonsterTokens.sol\":6120:6127  address */\n      0x00\n        /* \"practica_3/MonsterTokens.sol\":6185:6186  0 */\n      0x00\n        /* \"practica_3/MonsterTokens.sol\":6153:6159  tokens */\n      0x04\n        /* \"practica_3/MonsterTokens.sol\":6153:6168  tokens[tokenId] */\n      0x00\n        /* \"practica_3/MonsterTokens.sol\":6160:6167  tokenId */\n      dup5\n        /* \"practica_3/MonsterTokens.sol\":6153:6168  tokens[tokenId] */\n      dup2\n      mstore\n      0x20\n      add\n      swap1\n      dup2\n      mstore\n      0x20\n      add\n      0x00\n      keccak256\n        /* \"practica_3/MonsterTokens.sol\":6153:6173  tokens[tokenId].name */\n      0x00\n      add\n        /* \"practica_3/MonsterTokens.sol\":6147:6181  bytes(tokens[tokenId].name).length */\n      dup1\n      sload\n      tag_91\n      swap1\n      tag_92\n      jump\t// in\n    tag_91:\n      swap1\n      pop\n        /* \"practica_3/MonsterTokens.sol\":6147:6186  bytes(tokens[tokenId].name).length != 0 */\n      sub\n        /* \"practica_3/MonsterTokens.sol\":6139:6204  require(bytes(tokens[tokenId].name).length != 0, \"Invalid token\") */\n      tag_93\n      jumpi\n      mload(0x40)\n      0x08c379a000000000000000000000000000000000000000000000000000000000\n      dup2\n      mstore\n      0x04\n      add\n      tag_94\n      swap1\n      tag_95\n      jump\t// in\n    tag_94:\n      mload(0x40)\n      dup1\n      swap2\n      sub\n      swap1\n      revert\n    tag_93:\n        /* \"practica_3/MonsterTokens.sol\":6221:6230  approvals */\n      0x03\n        /* \"practica_3/MonsterTokens.sol\":6221:6239  approvals[tokenId] */\n      0x00\n        /* \"practica_3/MonsterTokens.sol\":6231:6238  tokenId */\n      dup4\n        /* \"practica_3/MonsterTokens.sol\":6221:6239  approvals[tokenId] */\n      dup2\n      mstore\n      0x20\n      add\n      swap1\n      dup2\n      mstore\n      0x20\n      add\n      0x00\n      keccak256\n      0x00\n      swap1\n      sload\n      swap1\n      0x0100\n      exp\n      swap1\n      div\n      0xffffffffffffffffffffffffffffffffffffffff\n      and\n        /* \"practica_3/MonsterTokens.sol\":6214:6239  return approvals[tokenId] */\n      swap1\n      pop\n        /* \"practica_3/MonsterTokens.sol\":6050:6246  function getApproved(uint256 tokenId) external view override returns (address) {... */\n      swap2\n      swap1\n      pop\n      jump\t// out\n        /* \"practica_3/MonsterTokens.sol\":3299:3775  function approve(address approved, uint256 tokenId) external payable override {... */\n    tag_39:\n        /* \"practica_3/MonsterTokens.sol\":3414:3424  msg.sender */\n      caller\n        /* \"practica_3/MonsterTokens.sol\":3395:3424  owners[tokenId] == msg.sender */\n      0xffffffffffffffffffffffffffffffffffffffff\n      and\n        /* \"practica_3/MonsterTokens.sol\":3395:3401  owners */\n      0x02\n        /* \"practica_3/MonsterTokens.sol\":3395:3410  owners[tokenId] */\n      0x00\n        /* \"practica_3/MonsterTokens.sol\":3402:3409  tokenId */\n      dup4\n        /* \"practica_3/MonsterTokens.sol\":3395:3410  owners[tokenId] */\n      dup2\n      mstore\n      0x20\n      add\n      swap1\n      dup2\n      mstore\n      0x20\n      add\n      0x00\n      keccak256\n      0x00\n      swap1\n      sload\n      swap1\n      0x0100\n      exp\n      swap1\n      div\n      0xffffffffffffffffffffffffffffffffffffffff\n      and\n        /* \"practica_3/MonsterTokens.sol\":3395:3424  owners[tokenId] == msg.sender */\n      0xffffffffffffffffffffffffffffffffffffffff\n      and\n      eq\n        /* \"practica_3/MonsterTokens.sol\":3387:3448  require(owners[tokenId] == msg.sender, \"Unauthorized access\") */\n      tag_97\n      jumpi\n      mload(0x40)\n      0x08c379a000000000000000000000000000000000000000000000000000000000\n      dup2\n      mstore\n      0x04\n      add\n      tag_98\n      swap1\n      tag_99\n      jump\t// in\n    tag_98:\n      mload(0x40)\n      dup1\n      swap2\n      sub\n      swap1\n      revert\n    tag_97:\n        /* \"practica_3/MonsterTokens.sol\":3486:3487  0 */\n      0x00\n        /* \"practica_3/MonsterTokens.sol\":3466:3488  approved != address(0) */\n      0xffffffffffffffffffffffffffffffffffffffff\n      and\n        /* \"practica_3/MonsterTokens.sol\":3466:3474  approved */\n      dup3\n        /* \"practica_3/MonsterTokens.sol\":3466:3488  approved != address(0) */\n      0xffffffffffffffffffffffffffffffffffffffff\n      and\n      eq\n      iszero\n        /* \"practica_3/MonsterTokens.sol\":3466:3524  approved != address(0) || approvals[tokenId] != address(0) */\n      dup1\n      tag_100\n      jumpi\n      pop\n        /* \"practica_3/MonsterTokens.sol\":3522:3523  0 */\n      0x00\n        /* \"practica_3/MonsterTokens.sol\":3492:3524  approvals[tokenId] != address(0) */\n      0xffffffffffffffffffffffffffffffffffffffff\n      and\n        /* \"practica_3/MonsterTokens.sol\":3492:3501  approvals */\n      0x03\n        /* \"practica_3/MonsterTokens.sol\":3492:3510  approvals[tokenId] */\n      0x00\n        /* \"practica_3/MonsterTokens.sol\":3502:3509  tokenId */\n      dup4\n        /* \"practica_3/MonsterTokens.sol\":3492:3510  approvals[tokenId] */\n      dup2\n      mstore\n      0x20\n      add\n      swap1\n      dup2\n      mstore\n      0x20\n      add\n      0x00\n      keccak256\n      0x00\n      swap1\n      sload\n      swap1\n      0x0100\n      exp\n      swap1\n      div\n      0xffffffffffffffffffffffffffffffffffffffff\n      and\n        /* \"practica_3/MonsterTokens.sol\":3492:3524  approvals[tokenId] != address(0) */\n      0xffffffffffffffffffffffffffffffffffffffff\n      and\n      eq\n      iszero\n        /* \"practica_3/MonsterTokens.sol\":3466:3524  approved != address(0) || approvals[tokenId] != address(0) */\n    tag_100:\n        /* \"practica_3/MonsterTokens.sol\":3458:3547  require(approved != address(0) || approvals[tokenId] != address(0), \"Nothing to approve\") */\n      tag_101\n      jumpi\n      mload(0x40)\n      0x08c379a000000000000000000000000000000000000000000000000000000000\n      dup2\n      mstore\n      0x04\n      add\n      tag_102\n      swap1\n      tag_103\n      jump\t// in\n    tag_102:\n      mload(0x40)\n      dup1\n      swap2\n      sub\n      swap1\n      revert\n    tag_101:\n        /* \"practica_3/MonsterTokens.sol\":3592:3632  tokens[tokenId].weapons.firePowers.sum() */\n      tag_104\n        /* \"practica_3/MonsterTokens.sol\":3592:3598  tokens */\n      0x04\n        /* \"practica_3/MonsterTokens.sol\":3592:3607  tokens[tokenId] */\n      0x00\n        /* \"practica_3/MonsterTokens.sol\":3599:3606  tokenId */\n      dup4\n        /* \"practica_3/MonsterTokens.sol\":3592:3607  tokens[tokenId] */\n      dup2\n      mstore\n      0x20\n      add\n      swap1\n      dup2\n      mstore\n      0x20\n      add\n      0x00\n      keccak256\n        /* \"practica_3/MonsterTokens.sol\":3592:3615  tokens[tokenId].weapons */\n      0x01\n      add\n        /* \"practica_3/MonsterTokens.sol\":3592:3626  tokens[tokenId].weapons.firePowers */\n      0x01\n      add\n        /* \"practica_3/MonsterTokens.sol\":3592:3630  tokens[tokenId].weapons.firePowers.sum */\n      tag_105\n        /* \"practica_3/MonsterTokens.sol\":3592:3632  tokens[tokenId].weapons.firePowers.sum() */\n      jump\t// in\n    tag_104:\n        /* \"practica_3/MonsterTokens.sol\":3579:3588  msg.value */\n      callvalue\n        /* \"practica_3/MonsterTokens.sol\":3579:3632  msg.value >= tokens[tokenId].weapons.firePowers.sum() */\n      lt\n      iszero\n        /* \"practica_3/MonsterTokens.sol\":3558:3674  require(... */\n      tag_106\n      jumpi\n      mload(0x40)\n      0x08c379a000000000000000000000000000000000000000000000000000000000\n      dup2\n      mstore\n      0x04\n      add\n      tag_107\n      swap1\n      tag_108\n      jump\t// in\n    tag_107:\n      mload(0x40)\n      dup1\n      swap2\n      sub\n      swap1\n      revert\n    tag_106:\n        /* \"practica_3/MonsterTokens.sol\":3706:3714  approved */\n      dup2\n        /* \"practica_3/MonsterTokens.sol\":3685:3694  approvals */\n      0x03\n        /* \"practica_3/MonsterTokens.sol\":3685:3703  approvals[tokenId] */\n      0x00\n        /* \"practica_3/MonsterTokens.sol\":3695:3702  tokenId */\n      dup4\n        /* \"practica_3/MonsterTokens.sol\":3685:3703  approvals[tokenId] */\n      dup2\n      mstore\n      0x20\n      add\n      swap1\n      dup2\n      mstore\n      0x20\n      add\n      0x00\n      keccak256\n      0x00\n        /* \"practica_3/MonsterTokens.sol\":3685:3714  approvals[tokenId] = approved */\n      0x0100\n      exp\n      dup2\n      sload\n      dup2\n      0xffffffffffffffffffffffffffffffffffffffff\n      mul\n      not\n      and\n      swap1\n      dup4\n      0xffffffffffffffffffffffffffffffffffffffff\n      and\n      mul\n      or\n      swap1\n      sstore\n      pop\n        /* \"practica_3/MonsterTokens.sol\":3760:3767  tokenId */\n      dup1\n        /* \"practica_3/MonsterTokens.sol\":3750:3758  approved */\n      dup3\n        /* \"practica_3/MonsterTokens.sol\":3729:3768  Approval(msg.sender, approved, tokenId) */\n      0xffffffffffffffffffffffffffffffffffffffff\n      and\n        /* \"practica_3/MonsterTokens.sol\":3738:3748  msg.sender */\n      caller\n        /* \"practica_3/MonsterTokens.sol\":3729:3768  Approval(msg.sender, approved, tokenId) */\n      0xffffffffffffffffffffffffffffffffffffffff\n      and\n      0x8c5be1e5ebec7d5bd14f71427d1e84f3dd0314c0f7b2291e5b200ac8c7c3b925\n      mload(0x40)\n      mload(0x40)\n      dup1\n      swap2\n      sub\n      swap1\n      log4\n        /* \"practica_3/MonsterTokens.sol\":3299:3775  function approve(address approved, uint256 tokenId) external payable override {... */\n      pop\n      pop\n      jump\t// out\n        /* \"practica_3/MonsterTokens.sol\":1860:2626  function addWeapon( uint token_id_p, string calldata nombre_arma, uint fire_power) external payable {... */\n    tag_43:\n        /* \"practica_3/MonsterTokens.sol\":2016:2026  msg.sender */\n      caller\n        /* \"practica_3/MonsterTokens.sol\":1991:2026  approvals[token_id_p] == msg.sender */\n      0xffffffffffffffffffffffffffffffffffffffff\n      and\n        /* \"practica_3/MonsterTokens.sol\":1991:2000  approvals */\n      0x03\n        /* \"practica_3/MonsterTokens.sol\":1991:2012  approvals[token_id_p] */\n      0x00\n        /* \"practica_3/MonsterTokens.sol\":2001:2011  token_id_p */\n      dup7\n        /* \"practica_3/MonsterTokens.sol\":1991:2012  approvals[token_id_p] */\n      dup2\n      mstore\n      0x20\n      add\n      swap1\n      dup2\n      mstore\n      0x20\n      add\n      0x00\n      keccak256\n      0x00\n      swap1\n      sload\n      swap1\n      0x0100\n      exp\n      swap1\n      div\n      0xffffffffffffffffffffffffffffffffffffffff\n      and\n        /* \"practica_3/MonsterTokens.sol\":1991:2026  approvals[token_id_p] == msg.sender */\n      0xffffffffffffffffffffffffffffffffffffffff\n      and\n      eq\n        /* \"practica_3/MonsterTokens.sol\":1991:2062  approvals[token_id_p] == msg.sender || owners[token_id_p] == msg.sender */\n      dup1\n      tag_110\n      jumpi\n      pop\n        /* \"practica_3/MonsterTokens.sol\":2052:2062  msg.sender */\n      caller\n        /* \"practica_3/MonsterTokens.sol\":2030:2062  owners[token_id_p] == msg.sender */\n      0xffffffffffffffffffffffffffffffffffffffff\n      and\n        /* \"practica_3/MonsterTokens.sol\":2030:2036  owners */\n      0x02\n        /* \"practica_3/MonsterTokens.sol\":2030:2048  owners[token_id_p] */\n      0x00\n        /* \"practica_3/MonsterTokens.sol\":2037:2047  token_id_p */\n      dup7\n        /* \"practica_3/MonsterTokens.sol\":2030:2048  owners[token_id_p] */\n      dup2\n      mstore\n      0x20\n      add\n      swap1\n      dup2\n      mstore\n      0x20\n      add\n      0x00\n      keccak256\n      0x00\n      swap1\n      sload\n      swap1\n      0x0100\n      exp\n      swap1\n      div\n      0xffffffffffffffffffffffffffffffffffffffff\n      and\n        /* \"practica_3/MonsterTokens.sol\":2030:2062  owners[token_id_p] == msg.sender */\n      0xffffffffffffffffffffffffffffffffffffffff\n      and\n      eq\n        /* \"practica_3/MonsterTokens.sol\":1991:2062  approvals[token_id_p] == msg.sender || owners[token_id_p] == msg.sender */\n    tag_110:\n        /* \"practica_3/MonsterTokens.sol\":1970:2107  require(... */\n      tag_111\n      jumpi\n      mload(0x40)\n      0x08c379a000000000000000000000000000000000000000000000000000000000\n      dup2\n      mstore\n      0x04\n      add\n      tag_112\n      swap1\n      tag_99\n      jump\t// in\n    tag_112:\n      mload(0x40)\n      dup1\n      swap2\n      sub\n      swap1\n      revert\n    tag_111:\n        /* \"practica_3/MonsterTokens.sol\":2166:2167  0 */\n      0x00\n        /* \"practica_3/MonsterTokens.sol\":2131:2137  tokens */\n      0x04\n        /* \"practica_3/MonsterTokens.sol\":2131:2149  tokens[token_id_p] */\n      0x00\n        /* \"practica_3/MonsterTokens.sol\":2138:2148  token_id_p */\n      dup7\n        /* \"practica_3/MonsterTokens.sol\":2131:2149  tokens[token_id_p] */\n      dup2\n      mstore\n      0x20\n      add\n      swap1\n      dup2\n      mstore\n      0x20\n      add\n      0x00\n      keccak256\n        /* \"practica_3/MonsterTokens.sol\":2131:2154  tokens[token_id_p].name */\n      0x00\n      add\n        /* \"practica_3/MonsterTokens.sol\":2125:2162  bytes(tokens[token_id_p].name).length */\n      dup1\n      sload\n      tag_113\n      swap1\n      tag_92\n      jump\t// in\n    tag_113:\n      swap1\n      pop\n        /* \"practica_3/MonsterTokens.sol\":2125:2167  bytes(tokens[token_id_p].name).length != 0 */\n      sub\n        /* \"practica_3/MonsterTokens.sol\":2117:2185  require(bytes(tokens[token_id_p].name).length != 0, \"Invalid token\") */\n      tag_114\n      jumpi\n      mload(0x40)\n      0x08c379a000000000000000000000000000000000000000000000000000000000\n      dup2\n      mstore\n      0x04\n      add\n      tag_115\n      swap1\n      tag_95\n      jump\t// in\n    tag_115:\n      mload(0x40)\n      dup1\n      swap2\n      sub\n      swap1\n      revert\n    tag_114:\n        /* \"practica_3/MonsterTokens.sol\":2196:2212  uint weaponIndex */\n      0x00\n        /* \"practica_3/MonsterTokens.sol\":2215:2221  tokens */\n      0x04\n        /* \"practica_3/MonsterTokens.sol\":2215:2233  tokens[token_id_p] */\n      0x00\n        /* \"practica_3/MonsterTokens.sol\":2222:2232  token_id_p */\n      dup7\n        /* \"practica_3/MonsterTokens.sol\":2215:2233  tokens[token_id_p] */\n      dup2\n      mstore\n      0x20\n      add\n      swap1\n      dup2\n      mstore\n      0x20\n      add\n      0x00\n      keccak256\n        /* \"practica_3/MonsterTokens.sol\":2215:2241  tokens[token_id_p].weapons */\n      0x01\n      add\n        /* \"practica_3/MonsterTokens.sol\":2215:2247  tokens[token_id_p].weapons.names */\n      0x00\n      add\n        /* \"practica_3/MonsterTokens.sol\":2215:2254  tokens[token_id_p].weapons.names.length */\n      dup1\n      sload\n      swap1\n      pop\n        /* \"practica_3/MonsterTokens.sol\":2196:2254  uint weaponIndex = tokens[token_id_p].weapons.names.length */\n      swap1\n      pop\n        /* \"practica_3/MonsterTokens.sol\":2317:2328  weaponIndex */\n      dup1\n        /* \"practica_3/MonsterTokens.sol\":2312:2313  2 */\n      0x02\n        /* \"practica_3/MonsterTokens.sol\":2312:2328  2 ** weaponIndex */\n      tag_116\n      swap2\n      swap1\n      tag_117\n      jump\t// in\n    tag_116:\n        /* \"practica_3/MonsterTokens.sol\":2298:2308  fire_power */\n      dup3\n        /* \"practica_3/MonsterTokens.sol\":2298:2329  fire_power * (2 ** weaponIndex) */\n      tag_118\n      swap2\n      swap1\n      tag_119\n      jump\t// in\n    tag_118:\n        /* \"practica_3/MonsterTokens.sol\":2285:2294  msg.value */\n      callvalue\n        /* \"practica_3/MonsterTokens.sol\":2285:2329  msg.value >= fire_power * (2 ** weaponIndex) */\n      lt\n      iszero\n        /* \"practica_3/MonsterTokens.sol\":2264:2371  require(... */\n      tag_120\n      jumpi\n      mload(0x40)\n      0x08c379a000000000000000000000000000000000000000000000000000000000\n      dup2\n      mstore\n      0x04\n      add\n      tag_121\n      swap1\n      tag_122\n      jump\t// in\n    tag_121:\n      mload(0x40)\n      dup1\n      swap2\n      sub\n      swap1\n      revert\n    tag_120:\n        /* \"practica_3/MonsterTokens.sol\":2382:2393  bool existe */\n      0x00\n        /* \"practica_3/MonsterTokens.sol\":2396:2450  tokens[token_id_p].weapons.names.contains(nombre_arma) */\n      tag_123\n        /* \"practica_3/MonsterTokens.sol\":2438:2449  nombre_arma */\n      dup6\n      dup6\n        /* \"practica_3/MonsterTokens.sol\":2396:2450  tokens[token_id_p].weapons.names.contains(nombre_arma) */\n      dup1\n      dup1\n      0x1f\n      add\n      0x20\n      dup1\n      swap2\n      div\n      mul\n      0x20\n      add\n      mload(0x40)\n      swap1\n      dup2\n      add\n      0x40\n      mstore\n      dup1\n      swap4\n      swap3\n      swap2\n      swap1\n      dup2\n      dup2\n      mstore\n      0x20\n      add\n      dup4\n      dup4\n      dup1\n      dup3\n      dup5\n      calldatacopy\n      0x00\n      dup2\n      dup5\n      add\n      mstore\n      not(0x1f)\n      0x1f\n      dup3\n      add\n      and\n      swap1\n      pop\n      dup1\n      dup4\n      add\n      swap3\n      pop\n      pop\n      pop\n      pop\n      pop\n      pop\n      pop\n        /* \"practica_3/MonsterTokens.sol\":2396:2402  tokens */\n      0x04\n        /* \"practica_3/MonsterTokens.sol\":2396:2414  tokens[token_id_p] */\n      0x00\n        /* \"practica_3/MonsterTokens.sol\":2403:2413  token_id_p */\n      dup10\n        /* \"practica_3/MonsterTokens.sol\":2396:2414  tokens[token_id_p] */\n      dup2\n      mstore\n      0x20\n      add\n      swap1\n      dup2\n      mstore\n      0x20\n      add\n      0x00\n      keccak256\n        /* \"practica_3/MonsterTokens.sol\":2396:2422  tokens[token_id_p].weapons */\n      0x01\n      add\n        /* \"practica_3/MonsterTokens.sol\":2396:2428  tokens[token_id_p].weapons.names */\n      0x00\n      add\n        /* \"practica_3/MonsterTokens.sol\":2396:2437  tokens[token_id_p].weapons.names.contains */\n      tag_124\n      swap1\n        /* \"practica_3/MonsterTokens.sol\":2396:2450  tokens[token_id_p].weapons.names.contains(nombre_arma) */\n      swap2\n      swap1\n      0xffffffff\n      and\n      jump\t// in\n    tag_123:\n        /* \"practica_3/MonsterTokens.sol\":2382:2450  bool existe = tokens[token_id_p].weapons.names.contains(nombre_arma) */\n      swap1\n      pop\n        /* \"practica_3/MonsterTokens.sol\":2469:2475  existe */\n      dup1\n        /* \"practica_3/MonsterTokens.sol\":2468:2475  !existe */\n      iszero\n        /* \"practica_3/MonsterTokens.sol\":2460:2494  require(!existe, \"Already exists\") */\n      tag_125\n      jumpi\n      mload(0x40)\n      0x08c379a000000000000000000000000000000000000000000000000000000000\n      dup2\n      mstore\n      0x04\n      add\n      tag_126\n      swap1\n      tag_127\n      jump\t// in\n    tag_126:\n      mload(0x40)\n      dup1\n      swap2\n      sub\n      swap1\n      revert\n    tag_125:\n        /* \"practica_3/MonsterTokens.sol\":2505:2511  tokens */\n      0x04\n        /* \"practica_3/MonsterTokens.sol\":2505:2523  tokens[token_id_p] */\n      0x00\n        /* \"practica_3/MonsterTokens.sol\":2512:2522  token_id_p */\n      dup8\n        /* \"practica_3/MonsterTokens.sol\":2505:2523  tokens[token_id_p] */\n      dup2\n      mstore\n      0x20\n      add\n      swap1\n      dup2\n      mstore\n      0x20\n      add\n      0x00\n      keccak256\n        /* \"practica_3/MonsterTokens.sol\":2505:2531  tokens[token_id_p].weapons */\n      0x01\n      add\n        /* \"practica_3/MonsterTokens.sol\":2505:2537  tokens[token_id_p].weapons.names */\n      0x00\n      add\n        /* \"practica_3/MonsterTokens.sol\":2543:2554  nombre_arma */\n      dup6\n      dup6\n        /* \"practica_3/MonsterTokens.sol\":2505:2555  tokens[token_id_p].weapons.names.push(nombre_arma) */\n      swap1\n      swap2\n      dup1\n      0x01\n      dup2\n      sload\n      add\n      dup1\n      dup3\n      sstore\n      dup1\n      swap2\n      pop\n      pop\n      0x01\n      swap1\n      sub\n      swap1\n      0x00\n      mstore\n      keccak256(0x00, 0x20)\n      add\n      0x00\n      swap1\n      swap2\n      swap3\n      swap1\n      swap2\n      swap3\n      swap1\n      swap2\n      swap3\n      swap1\n      swap2\n      swap3\n      pop\n      swap2\n      dup3\n      tag_129\n      swap3\n      swap2\n      swap1\n      tag_130\n      jump\t// in\n    tag_129:\n      pop\n        /* \"practica_3/MonsterTokens.sol\":2565:2571  tokens */\n      0x04\n        /* \"practica_3/MonsterTokens.sol\":2565:2583  tokens[token_id_p] */\n      0x00\n        /* \"practica_3/MonsterTokens.sol\":2572:2582  token_id_p */\n      dup8\n        /* \"practica_3/MonsterTokens.sol\":2565:2583  tokens[token_id_p] */\n      dup2\n      mstore\n      0x20\n      add\n      swap1\n      dup2\n      mstore\n      0x20\n      add\n      0x00\n      keccak256\n        /* \"practica_3/MonsterTokens.sol\":2565:2591  tokens[token_id_p].weapons */\n      0x01\n      add\n        /* \"practica_3/MonsterTokens.sol\":2565:2602  tokens[token_id_p].weapons.firePowers */\n      0x01\n      add\n        /* \"practica_3/MonsterTokens.sol\":2608:2618  fire_power */\n      dup4\n        /* \"practica_3/MonsterTokens.sol\":2565:2619  tokens[token_id_p].weapons.firePowers.push(fire_power) */\n      swap1\n      dup1\n      0x01\n      dup2\n      sload\n      add\n      dup1\n      dup3\n      sstore\n      dup1\n      swap2\n      pop\n      pop\n      0x01\n      swap1\n      sub\n      swap1\n      0x00\n      mstore\n      keccak256(0x00, 0x20)\n      add\n      0x00\n      swap1\n      swap2\n      swap1\n      swap2\n      swap1\n      swap2\n      pop\n      sstore\n        /* \"practica_3/MonsterTokens.sol\":1960:2626  {... */\n      pop\n      pop\n        /* \"practica_3/MonsterTokens.sol\":1860:2626  function addWeapon( uint token_id_p, string calldata nombre_arma, uint fire_power) external payable {... */\n      pop\n      pop\n      pop\n      pop\n      jump\t// out\n        /* \"practica_3/MonsterTokens.sol\":3781:4424  function transferFrom(address from,address to, uint256 tokenId) external payable override {... */\n    tag_47:\n        /* \"practica_3/MonsterTokens.sol\":3903:3904  0 */\n      0x00\n        /* \"practica_3/MonsterTokens.sol\":3889:3905  to != address(0) */\n      0xffffffffffffffffffffffffffffffffffffffff\n      and\n        /* \"practica_3/MonsterTokens.sol\":3889:3891  to */\n      dup3\n        /* \"practica_3/MonsterTokens.sol\":3889:3905  to != address(0) */\n      0xffffffffffffffffffffffffffffffffffffffff\n      and\n      sub\n        /* \"practica_3/MonsterTokens.sol\":3881:3927  require(to != address(0), \"Invalid recipient\") */\n      tag_133\n      jumpi\n      mload(0x40)\n      0x08c379a000000000000000000000000000000000000000000000000000000000\n      dup2\n      mstore\n      0x04\n      add\n      tag_134\n      swap1\n      tag_135\n      jump\t// in\n    tag_134:\n      mload(0x40)\n      dup1\n      swap2\n      sub\n      swap1\n      revert\n    tag_133:\n        /* \"practica_3/MonsterTokens.sol\":3977:3981  from */\n      dup3\n        /* \"practica_3/MonsterTokens.sol\":3958:3981  owners[tokenId] == from */\n      0xffffffffffffffffffffffffffffffffffffffff\n      and\n        /* \"practica_3/MonsterTokens.sol\":3958:3964  owners */\n      0x02\n        /* \"practica_3/MonsterTokens.sol\":3958:3973  owners[tokenId] */\n      0x00\n        /* \"practica_3/MonsterTokens.sol\":3965:3972  tokenId */\n      dup4\n        /* \"practica_3/MonsterTokens.sol\":3958:3973  owners[tokenId] */\n      dup2\n      mstore\n      0x20\n      add\n      swap1\n      dup2\n      mstore\n      0x20\n      add\n      0x00\n      keccak256\n      0x00\n      swap1\n      sload\n      swap1\n      0x0100\n      exp\n      swap1\n      div\n      0xffffffffffffffffffffffffffffffffffffffff\n      and\n        /* \"practica_3/MonsterTokens.sol\":3958:3981  owners[tokenId] == from */\n      0xffffffffffffffffffffffffffffffffffffffff\n      and\n      eq\n        /* \"practica_3/MonsterTokens.sol\":3958:4064  owners[tokenId] == from &&... */\n      dup1\n      iszero\n      tag_136\n      jumpi\n      pop\n        /* \"practica_3/MonsterTokens.sol\":4017:4027  msg.sender */\n      caller\n        /* \"practica_3/MonsterTokens.sol\":3998:4027  owners[tokenId] == msg.sender */\n      0xffffffffffffffffffffffffffffffffffffffff\n      and\n        /* \"practica_3/MonsterTokens.sol\":3998:4004  owners */\n      0x02\n        /* \"practica_3/MonsterTokens.sol\":3998:4013  owners[tokenId] */\n      0x00\n        /* \"practica_3/MonsterTokens.sol\":4005:4012  tokenId */\n      dup4\n        /* \"practica_3/MonsterTokens.sol\":3998:4013  owners[tokenId] */\n      dup2\n      mstore\n      0x20\n      add\n      swap1\n      dup2\n      mstore\n      0x20\n      add\n      0x00\n      keccak256\n      0x00\n      swap1\n      sload\n      swap1\n      0x0100\n      exp\n      swap1\n      div\n      0xffffffffffffffffffffffffffffffffffffffff\n      and\n        /* \"practica_3/MonsterTokens.sol\":3998:4027  owners[tokenId] == msg.sender */\n      0xffffffffffffffffffffffffffffffffffffffff\n      and\n      eq\n        /* \"practica_3/MonsterTokens.sol\":3998:4063  owners[tokenId] == msg.sender || approvals[tokenId] == msg.sender */\n      dup1\n      tag_137\n      jumpi\n      pop\n        /* \"practica_3/MonsterTokens.sol\":4053:4063  msg.sender */\n      caller\n        /* \"practica_3/MonsterTokens.sol\":4031:4063  approvals[tokenId] == msg.sender */\n      0xffffffffffffffffffffffffffffffffffffffff\n      and\n        /* \"practica_3/MonsterTokens.sol\":4031:4040  approvals */\n      0x03\n        /* \"practica_3/MonsterTokens.sol\":4031:4049  approvals[tokenId] */\n      0x00\n        /* \"practica_3/MonsterTokens.sol\":4041:4048  tokenId */\n      dup4\n        /* \"practica_3/MonsterTokens.sol\":4031:4049  approvals[tokenId] */\n      dup2\n      mstore\n      0x20\n      add\n      swap1\n      dup2\n      mstore\n      0x20\n      add\n      0x00\n      keccak256\n      0x00\n      swap1\n      sload\n      swap1\n      0x0100\n      exp\n      swap1\n      div\n      0xffffffffffffffffffffffffffffffffffffffff\n      and\n        /* \"practica_3/MonsterTokens.sol\":4031:4063  approvals[tokenId] == msg.sender */\n      0xffffffffffffffffffffffffffffffffffffffff\n      and\n      eq\n        /* \"practica_3/MonsterTokens.sol\":3998:4063  owners[tokenId] == msg.sender || approvals[tokenId] == msg.sender */\n    tag_137:\n        /* \"practica_3/MonsterTokens.sol\":3958:4064  owners[tokenId] == from &&... */\n    tag_136:\n        /* \"practica_3/MonsterTokens.sol\":3937:4109  require(... */\n      tag_138\n      jumpi\n      mload(0x40)\n      0x08c379a000000000000000000000000000000000000000000000000000000000\n      dup2\n      mstore\n      0x04\n      add\n      tag_139\n      swap1\n      tag_99\n      jump\t// in\n    tag_139:\n      mload(0x40)\n      dup1\n      swap2\n      sub\n      swap1\n      revert\n    tag_138:\n        /* \"practica_3/MonsterTokens.sol\":4153:4193  tokens[tokenId].weapons.firePowers.sum() */\n      tag_140\n        /* \"practica_3/MonsterTokens.sol\":4153:4159  tokens */\n      0x04\n        /* \"practica_3/MonsterTokens.sol\":4153:4168  tokens[tokenId] */\n      0x00\n        /* \"practica_3/MonsterTokens.sol\":4160:4167  tokenId */\n      dup4\n        /* \"practica_3/MonsterTokens.sol\":4153:4168  tokens[tokenId] */\n      dup2\n      mstore\n      0x20\n      add\n      swap1\n      dup2\n      mstore\n      0x20\n      add\n      0x00\n      keccak256\n        /* \"practica_3/MonsterTokens.sol\":4153:4176  tokens[tokenId].weapons */\n      0x01\n      add\n        /* \"practica_3/MonsterTokens.sol\":4153:4187  tokens[tokenId].weapons.firePowers */\n      0x01\n      add\n        /* \"practica_3/MonsterTokens.sol\":4153:4191  tokens[tokenId].weapons.firePowers.sum */\n      tag_105\n        /* \"practica_3/MonsterTokens.sol\":4153:4193  tokens[tokenId].weapons.firePowers.sum() */\n      jump\t// in\n    tag_140:\n        /* \"practica_3/MonsterTokens.sol\":4140:4149  msg.value */\n      callvalue\n        /* \"practica_3/MonsterTokens.sol\":4140:4193  msg.value >= tokens[tokenId].weapons.firePowers.sum() */\n      lt\n      iszero\n        /* \"practica_3/MonsterTokens.sol\":4119:4235  require(... */\n      tag_141\n      jumpi\n      mload(0x40)\n      0x08c379a000000000000000000000000000000000000000000000000000000000\n      dup2\n      mstore\n      0x04\n      add\n      tag_142\n      swap1\n      tag_108\n      jump\t// in\n    tag_142:\n      mload(0x40)\n      dup1\n      swap2\n      sub\n      swap1\n      revert\n    tag_141:\n        /* \"practica_3/MonsterTokens.sol\":4275:4276  1 */\n      0x01\n        /* \"practica_3/MonsterTokens.sol\":4246:4254  registry */\n      dup1\n        /* \"practica_3/MonsterTokens.sol\":4246:4271  registry[owners[tokenId]] */\n      0x00\n        /* \"practica_3/MonsterTokens.sol\":4255:4261  owners */\n      0x02\n        /* \"practica_3/MonsterTokens.sol\":4255:4270  owners[tokenId] */\n      0x00\n        /* \"practica_3/MonsterTokens.sol\":4262:4269  tokenId */\n      dup6\n        /* \"practica_3/MonsterTokens.sol\":4255:4270  owners[tokenId] */\n      dup2\n      mstore\n      0x20\n      add\n      swap1\n      dup2\n      mstore\n      0x20\n      add\n      0x00\n      keccak256\n      0x00\n      swap1\n      sload\n      swap1\n      0x0100\n      exp\n      swap1\n      div\n      0xffffffffffffffffffffffffffffffffffffffff\n      and\n        /* \"practica_3/MonsterTokens.sol\":4246:4271  registry[owners[tokenId]] */\n      0xffffffffffffffffffffffffffffffffffffffff\n      and\n      0xffffffffffffffffffffffffffffffffffffffff\n      and\n      dup2\n      mstore\n      0x20\n      add\n      swap1\n      dup2\n      mstore\n      0x20\n      add\n      0x00\n      keccak256\n      0x00\n        /* \"practica_3/MonsterTokens.sol\":4246:4276  registry[owners[tokenId]] -= 1 */\n      dup3\n      dup3\n      sload\n      tag_143\n      swap2\n      swap1\n      tag_144\n      jump\t// in\n    tag_143:\n      swap3\n      pop\n      pop\n      dup2\n      swap1\n      sstore\n      pop\n        /* \"practica_3/MonsterTokens.sol\":4302:4303  1 */\n      0x01\n        /* \"practica_3/MonsterTokens.sol\":4286:4294  registry */\n      dup1\n        /* \"practica_3/MonsterTokens.sol\":4286:4298  registry[to] */\n      0x00\n        /* \"practica_3/MonsterTokens.sol\":4295:4297  to */\n      dup5\n        /* \"practica_3/MonsterTokens.sol\":4286:4298  registry[to] */\n      0xffffffffffffffffffffffffffffffffffffffff\n      and\n      0xffffffffffffffffffffffffffffffffffffffff\n      and\n      dup2\n      mstore\n      0x20\n      add\n      swap1\n      dup2\n      mstore\n      0x20\n      add\n      0x00\n      keccak256\n      0x00\n        /* \"practica_3/MonsterTokens.sol\":4286:4303  registry[to] += 1 */\n      dup3\n      dup3\n      sload\n      tag_145\n      swap2\n      swap1\n      tag_146\n      jump\t// in\n    tag_145:\n      swap3\n      pop\n      pop\n      dup2\n      swap1\n      sstore\n      pop\n        /* \"practica_3/MonsterTokens.sol\":4331:4333  to */\n      dup2\n        /* \"practica_3/MonsterTokens.sol\":4313:4319  owners */\n      0x02\n        /* \"practica_3/MonsterTokens.sol\":4313:4328  owners[tokenId] */\n      0x00\n        /* \"practica_3/MonsterTokens.sol\":4320:4327  tokenId */\n      dup4\n        /* \"practica_3/MonsterTokens.sol\":4313:4328  owners[tokenId] */\n      dup2\n      mstore\n      0x20\n      add\n      swap1\n      dup2\n      mstore\n      0x20\n      add\n      0x00\n      keccak256\n      0x00\n        /* \"practica_3/MonsterTokens.sol\":4313:4333  owners[tokenId] = to */\n      0x0100\n      exp\n      dup2\n      sload\n      dup2\n      0xffffffffffffffffffffffffffffffffffffffff\n      mul\n      not\n      and\n      swap1\n      dup4\n      0xffffffffffffffffffffffffffffffffffffffff\n      and\n      mul\n      or\n      swap1\n      sstore\n      pop\n        /* \"practica_3/MonsterTokens.sol\":4372:4373  0 */\n      0x00\n        /* \"practica_3/MonsterTokens.sol\":4343:4352  approvals */\n      0x03\n        /* \"practica_3/MonsterTokens.sol\":4343:4361  approvals[tokenId] */\n      0x00\n        /* \"practica_3/MonsterTokens.sol\":4353:4360  tokenId */\n      dup4\n        /* \"practica_3/MonsterTokens.sol\":4343:4361  approvals[tokenId] */\n      dup2\n      mstore\n      0x20\n      add\n      swap1\n      dup2\n      mstore\n      0x20\n      add\n      0x00\n      keccak256\n      0x00\n        /* \"practica_3/MonsterTokens.sol\":4343:4374  approvals[tokenId] = address(0) */\n      0x0100\n      exp\n      dup2\n      sload\n      dup2\n      0xffffffffffffffffffffffffffffffffffffffff\n      mul\n      not\n      and\n      swap1\n      dup4\n      0xffffffffffffffffffffffffffffffffffffffff\n      and\n      mul\n      or\n      swap1\n      sstore\n      pop\n        /* \"practica_3/MonsterTokens.sol\":4409:4416  tokenId */\n      dup1\n        /* \"practica_3/MonsterTokens.sol\":4405:4407  to */\n      dup3\n        /* \"practica_3/MonsterTokens.sol\":4390:4417  Transfer(from, to, tokenId) */\n      0xffffffffffffffffffffffffffffffffffffffff\n      and\n        /* \"practica_3/MonsterTokens.sol\":4399:4403  from */\n      dup5\n        /* \"practica_3/MonsterTokens.sol\":4390:4417  Transfer(from, to, tokenId) */\n      0xffffffffffffffffffffffffffffffffffffffff\n      and\n      0xddf252ad1be2c89b69c2b068fc378daa952ba7f163c4a11628f55a4df523b3ef\n      mload(0x40)\n      mload(0x40)\n      dup1\n      swap2\n      sub\n      swap1\n      log4\n        /* \"practica_3/MonsterTokens.sol\":3781:4424  function transferFrom(address from,address to, uint256 tokenId) external payable override {... */\n      pop\n      pop\n      pop\n      jump\t// out\n        /* \"practica_3/MonsterTokens.sol\":6492:6683  function getInterfaceIds() external pure returns (bytes4 erc165Id, bytes4 erc721Id) {... */\n    tag_50:\n        /* \"practica_3/MonsterTokens.sol\":6542:6557  bytes4 erc165Id */\n      0x00\n        /* \"practica_3/MonsterTokens.sol\":6559:6574  bytes4 erc721Id */\n      0x00\n        /* \"practica_3/MonsterTokens.sol\":6597:6621  type(ERC165).interfaceId */\n      0x01ffc9a700000000000000000000000000000000000000000000000000000000\n        /* \"practica_3/MonsterTokens.sol\":6586:6621  erc165Id = type(ERC165).interfaceId */\n      swap2\n      pop\n        /* \"practica_3/MonsterTokens.sol\":6642:6676  type(ERC721simplified).interfaceId */\n      0x73884ab300000000000000000000000000000000000000000000000000000000\n        /* \"practica_3/MonsterTokens.sol\":6631:6676  erc721Id = type(ERC721simplified).interfaceId */\n      swap1\n      pop\n        /* \"practica_3/MonsterTokens.sol\":6492:6683  function getInterfaceIds() external pure returns (bytes4 erc165Id, bytes4 erc721Id) {... */\n      swap1\n      swap2\n      jump\t// out\n        /* \"practica_3/MonsterTokens.sol\":4430:5664  function safeTransferFrom( address from, address to, uint256 tokenId) external payable override {... */\n    tag_55:\n        /* \"practica_3/MonsterTokens.sol\":4558:4559  0 */\n      0x00\n        /* \"practica_3/MonsterTokens.sol\":4544:4560  to != address(0) */\n      0xffffffffffffffffffffffffffffffffffffffff\n      and\n        /* \"practica_3/MonsterTokens.sol\":4544:4546  to */\n      dup3\n        /* \"practica_3/MonsterTokens.sol\":4544:4560  to != address(0) */\n      0xffffffffffffffffffffffffffffffffffffffff\n      and\n      sub\n        /* \"practica_3/MonsterTokens.sol\":4536:4582  require(to != address(0), \"Invalid recipient\") */\n      tag_149\n      jumpi\n      mload(0x40)\n      0x08c379a000000000000000000000000000000000000000000000000000000000\n      dup2\n      mstore\n      0x04\n      add\n      tag_150\n      swap1\n      tag_135\n      jump\t// in\n    tag_150:\n      mload(0x40)\n      dup1\n      swap2\n      sub\n      swap1\n      revert\n    tag_149:\n        /* \"practica_3/MonsterTokens.sol\":4619:4623  from */\n      dup3\n        /* \"practica_3/MonsterTokens.sol\":4600:4623  owners[tokenId] == from */\n      0xffffffffffffffffffffffffffffffffffffffff\n      and\n        /* \"practica_3/MonsterTokens.sol\":4600:4606  owners */\n      0x02\n        /* \"practica_3/MonsterTokens.sol\":4600:4615  owners[tokenId] */\n      0x00\n        /* \"practica_3/MonsterTokens.sol\":4607:4614  tokenId */\n      dup4\n        /* \"practica_3/MonsterTokens.sol\":4600:4615  owners[tokenId] */\n      dup2\n      mstore\n      0x20\n      add\n      swap1\n      dup2\n      mstore\n      0x20\n      add\n      0x00\n      keccak256\n      0x00\n      swap1\n      sload\n      swap1\n      0x0100\n      exp\n      swap1\n      div\n      0xffffffffffffffffffffffffffffffffffffffff\n      and\n        /* \"practica_3/MonsterTokens.sol\":4600:4623  owners[tokenId] == from */\n      0xffffffffffffffffffffffffffffffffffffffff\n      and\n      eq\n        /* \"practica_3/MonsterTokens.sol\":4600:4694  owners[tokenId] == from && (owners[tokenId] == msg.sender || approvals[tokenId] == msg.sender) */\n      dup1\n      iszero\n      tag_151\n      jumpi\n      pop\n        /* \"practica_3/MonsterTokens.sol\":4647:4657  msg.sender */\n      caller\n        /* \"practica_3/MonsterTokens.sol\":4628:4657  owners[tokenId] == msg.sender */\n      0xffffffffffffffffffffffffffffffffffffffff\n      and\n        /* \"practica_3/MonsterTokens.sol\":4628:4634  owners */\n      0x02\n        /* \"practica_3/MonsterTokens.sol\":4628:4643  owners[tokenId] */\n      0x00\n        /* \"practica_3/MonsterTokens.sol\":4635:4642  tokenId */\n      dup4\n        /* \"practica_3/MonsterTokens.sol\":4628:4643  owners[tokenId] */\n      dup2\n      mstore\n      0x20\n      add\n      swap1\n      dup2\n      mstore\n      0x20\n      add\n      0x00\n      keccak256\n      0x00\n      swap1\n      sload\n      swap1\n      0x0100\n      exp\n      swap1\n      div\n      0xffffffffffffffffffffffffffffffffffffffff\n      and\n        /* \"practica_3/MonsterTokens.sol\":4628:4657  owners[tokenId] == msg.sender */\n      0xffffffffffffffffffffffffffffffffffffffff\n      and\n      eq\n        /* \"practica_3/MonsterTokens.sol\":4628:4693  owners[tokenId] == msg.sender || approvals[tokenId] == msg.sender */\n      dup1\n      tag_152\n      jumpi\n      pop\n        /* \"practica_3/MonsterTokens.sol\":4683:4693  msg.sender */\n      caller\n        /* \"practica_3/MonsterTokens.sol\":4661:4693  approvals[tokenId] == msg.sender */\n      0xffffffffffffffffffffffffffffffffffffffff\n      and\n        /* \"practica_3/MonsterTokens.sol\":4661:4670  approvals */\n      0x03\n        /* \"practica_3/MonsterTokens.sol\":4661:4679  approvals[tokenId] */\n      0x00\n        /* \"practica_3/MonsterTokens.sol\":4671:4678  tokenId */\n      dup4\n        /* \"practica_3/MonsterTokens.sol\":4661:4679  approvals[tokenId] */\n      dup2\n      mstore\n      0x20\n      add\n      swap1\n      dup2\n      mstore\n      0x20\n      add\n      0x00\n      keccak256\n      0x00\n      swap1\n      sload\n      swap1\n      0x0100\n      exp\n      swap1\n      div\n      0xffffffffffffffffffffffffffffffffffffffff\n      and\n        /* \"practica_3/MonsterTokens.sol\":4661:4693  approvals[tokenId] == msg.sender */\n      0xffffffffffffffffffffffffffffffffffffffff\n      and\n      eq\n        /* \"practica_3/MonsterTokens.sol\":4628:4693  owners[tokenId] == msg.sender || approvals[tokenId] == msg.sender */\n    tag_152:\n        /* \"practica_3/MonsterTokens.sol\":4600:4694  owners[tokenId] == from && (owners[tokenId] == msg.sender || approvals[tokenId] == msg.sender) */\n    tag_151:\n        /* \"practica_3/MonsterTokens.sol\":4592:4726  require(owners[tokenId] == from && (owners[tokenId] == msg.sender || approvals[tokenId] == msg.sender),... */\n      tag_153\n      jumpi\n      mload(0x40)\n      0x08c379a000000000000000000000000000000000000000000000000000000000\n      dup2\n      mstore\n      0x04\n      add\n      tag_154\n      swap1\n      tag_99\n      jump\t// in\n    tag_154:\n      mload(0x40)\n      dup1\n      swap2\n      sub\n      swap1\n      revert\n    tag_153:\n        /* \"practica_3/MonsterTokens.sol\":4758:4798  tokens[tokenId].weapons.firePowers.sum() */\n      tag_155\n        /* \"practica_3/MonsterTokens.sol\":4758:4764  tokens */\n      0x04\n        /* \"practica_3/MonsterTokens.sol\":4758:4773  tokens[tokenId] */\n      0x00\n        /* \"practica_3/MonsterTokens.sol\":4765:4772  tokenId */\n      dup4\n        /* \"practica_3/MonsterTokens.sol\":4758:4773  tokens[tokenId] */\n      dup2\n      mstore\n      0x20\n      add\n      swap1\n      dup2\n      mstore\n      0x20\n      add\n      0x00\n      keccak256\n        /* \"practica_3/MonsterTokens.sol\":4758:4781  tokens[tokenId].weapons */\n      0x01\n      add\n        /* \"practica_3/MonsterTokens.sol\":4758:4792  tokens[tokenId].weapons.firePowers */\n      0x01\n      add\n        /* \"practica_3/MonsterTokens.sol\":4758:4796  tokens[tokenId].weapons.firePowers.sum */\n      tag_105\n        /* \"practica_3/MonsterTokens.sol\":4758:4798  tokens[tokenId].weapons.firePowers.sum() */\n      jump\t// in\n    tag_155:\n        /* \"practica_3/MonsterTokens.sol\":4745:4754  msg.value */\n      callvalue\n        /* \"practica_3/MonsterTokens.sol\":4745:4798  msg.value >= tokens[tokenId].weapons.firePowers.sum() */\n      lt\n      iszero\n        /* \"practica_3/MonsterTokens.sol\":4736:4836  require( msg.value >= tokens[tokenId].weapons.firePowers.sum(),... */\n      tag_156\n      jumpi\n      mload(0x40)\n      0x08c379a000000000000000000000000000000000000000000000000000000000\n      dup2\n      mstore\n      0x04\n      add\n      tag_157\n      swap1\n      tag_108\n      jump\t// in\n    tag_157:\n      mload(0x40)\n      dup1\n      swap2\n      sub\n      swap1\n      revert\n    tag_156:\n        /* \"practica_3/MonsterTokens.sol\":4867:4868  0 */\n      0x00\n        /* \"practica_3/MonsterTokens.sol\":4850:4852  to */\n      dup3\n        /* \"practica_3/MonsterTokens.sol\":4850:4864  to.code.length */\n      0xffffffffffffffffffffffffffffffffffffffff\n      and\n      extcodesize\n        /* \"practica_3/MonsterTokens.sol\":4850:4868  to.code.length > 0 */\n      gt\n        /* \"practica_3/MonsterTokens.sol\":4847:5463  if(to.code.length > 0){... */\n      iszero\n      tag_158\n      jumpi\n        /* \"practica_3/MonsterTokens.sol\":4908:4910  to */\n      dup2\n        /* \"practica_3/MonsterTokens.sol\":4888:4928  ERC721TokenReceiver(to).onERC721Received */\n      0xffffffffffffffffffffffffffffffffffffffff\n      and\n      0x150b7a02\n        /* \"practica_3/MonsterTokens.sol\":4929:4939  msg.sender */\n      caller\n        /* \"practica_3/MonsterTokens.sol\":4941:4945  from */\n      dup6\n        /* \"practica_3/MonsterTokens.sol\":4947:4954  tokenId */\n      dup5\n        /* \"practica_3/MonsterTokens.sol\":4888:4959  ERC721TokenReceiver(to).onERC721Received(msg.sender, from, tokenId, \"\") */\n      mload(0x40)\n      dup5\n      0xffffffff\n      and\n      0xe0\n      shl\n      dup2\n      mstore\n      0x04\n      add\n      tag_159\n      swap4\n      swap3\n      swap2\n      swap1\n      tag_160\n      jump\t// in\n    tag_159:\n      0x20\n      mload(0x40)\n      dup1\n      dup4\n      sub\n      dup2\n      0x00\n      dup8\n      gas\n      call\n      swap3\n      pop\n      pop\n      pop\n      dup1\n      iszero\n      tag_161\n      jumpi\n      pop\n      mload(0x40)\n      returndatasize\n      not(0x1f)\n      0x1f\n      dup3\n      add\n      and\n      dup3\n      add\n      dup1\n      0x40\n      mstore\n      pop\n      dup2\n      add\n      swap1\n      tag_162\n      swap2\n      swap1\n      tag_163\n      jump\t// in\n    tag_162:\n      0x01\n    tag_161:\n        /* \"practica_3/MonsterTokens.sol\":4884:5453  try ERC721TokenReceiver(to).onERC721Received(msg.sender, from, tokenId, \"\") returns (bytes4 retval) {... */\n      tag_164\n      jumpi\n      returndatasize\n      dup1\n      0x00\n      dup2\n      eq\n      tag_169\n      jumpi\n      mload(0x40)\n      swap2\n      pop\n      and(add(returndatasize, 0x3f), not(0x1f))\n      dup3\n      add\n      0x40\n      mstore\n      returndatasize\n      dup3\n      mstore\n      returndatasize\n      0x00\n      0x20\n      dup5\n      add\n      returndatacopy\n      jump(tag_168)\n    tag_169:\n      0x60\n      swap2\n      pop\n    tag_168:\n      pop\n        /* \"practica_3/MonsterTokens.sol\":5210:5211  0 */\n      0x00\n        /* \"practica_3/MonsterTokens.sol\":5193:5199  reason */\n      dup2\n        /* \"practica_3/MonsterTokens.sol\":5193:5206  reason.length */\n      mload\n        /* \"practica_3/MonsterTokens.sol\":5193:5211  reason.length == 0 */\n      sub\n        /* \"practica_3/MonsterTokens.sol\":5189:5439  if (reason.length == 0) {... */\n      tag_170\n      jumpi\n        /* \"practica_3/MonsterTokens.sol\":5235:5261  revert(\"Invalid reciever\") */\n      mload(0x40)\n      0x08c379a000000000000000000000000000000000000000000000000000000000\n      dup2\n      mstore\n      0x04\n      add\n      tag_171\n      swap1\n      tag_172\n      jump\t// in\n    tag_171:\n      mload(0x40)\n      dup1\n      swap2\n      sub\n      swap1\n      revert\n        /* \"practica_3/MonsterTokens.sol\":5189:5439  if (reason.length == 0) {... */\n    tag_170:\n        /* \"practica_3/MonsterTokens.sol\":5391:5397  reason */\n      dup1\n        /* \"practica_3/MonsterTokens.sol\":5385:5398  mload(reason) */\n      mload\n        /* \"practica_3/MonsterTokens.sol\":5378:5382  0x20 */\n      0x20\n        /* \"practica_3/MonsterTokens.sol\":5370:5376  reason */\n      dup3\n        /* \"practica_3/MonsterTokens.sol\":5366:5383  add(reason, 0x20) */\n      add\n        /* \"practica_3/MonsterTokens.sol\":5359:5399  revert(add(reason, 0x20), mload(reason)) */\n      revert\n        /* \"practica_3/MonsterTokens.sol\":4884:5453  try ERC721TokenReceiver(to).onERC721Received(msg.sender, from, tokenId, \"\") returns (bytes4 retval) {... */\n    tag_164:\n        /* \"practica_3/MonsterTokens.sol\":5016:5061  ERC721TokenReceiver.onERC721Received.selector */\n      shl(0xe0, 0x150b7a02)\n        /* \"practica_3/MonsterTokens.sol\":5006:5061  retval != ERC721TokenReceiver.onERC721Received.selector */\n      not(0xffffffffffffffffffffffffffffffffffffffffffffffffffffffff)\n      and\n        /* \"practica_3/MonsterTokens.sol\":5006:5012  retval */\n      dup2\n        /* \"practica_3/MonsterTokens.sol\":5006:5061  retval != ERC721TokenReceiver.onERC721Received.selector */\n      not(0xffffffffffffffffffffffffffffffffffffffffffffffffffffffff)\n      and\n      eq\n        /* \"practica_3/MonsterTokens.sol\":5002:5128  if (retval != ERC721TokenReceiver.onERC721Received.selector) {... */\n      tag_175\n      jumpi\n        /* \"practica_3/MonsterTokens.sol\":5085:5109  revert(\"Token rejected\") */\n      mload(0x40)\n      0x08c379a000000000000000000000000000000000000000000000000000000000\n      dup2\n      mstore\n      0x04\n      add\n      tag_176\n      swap1\n      tag_177\n      jump\t// in\n    tag_176:\n      mload(0x40)\n      dup1\n      swap2\n      sub\n      swap1\n      revert\n        /* \"practica_3/MonsterTokens.sol\":5002:5128  if (retval != ERC721TokenReceiver.onERC721Received.selector) {... */\n    tag_175:\n        /* \"practica_3/MonsterTokens.sol\":4960:5142  returns (bytes4 retval) {... */\n      pop\n        /* \"practica_3/MonsterTokens.sol\":4847:5463  if(to.code.length > 0){... */\n    tag_158:\n        /* \"practica_3/MonsterTokens.sol\":5512:5513  1 */\n      0x01\n        /* \"practica_3/MonsterTokens.sol\":5483:5491  registry */\n      dup1\n        /* \"practica_3/MonsterTokens.sol\":5483:5508  registry[owners[tokenId]] */\n      0x00\n        /* \"practica_3/MonsterTokens.sol\":5492:5498  owners */\n      0x02\n        /* \"practica_3/MonsterTokens.sol\":5492:5507  owners[tokenId] */\n      0x00\n        /* \"practica_3/MonsterTokens.sol\":5499:5506  tokenId */\n      dup6\n        /* \"practica_3/MonsterTokens.sol\":5492:5507  owners[tokenId] */\n      dup2\n      mstore\n      0x20\n      add\n      swap1\n      dup2\n      mstore\n      0x20\n      add\n      0x00\n      keccak256\n      0x00\n      swap1\n      sload\n      swap1\n      0x0100\n      exp\n      swap1\n      div\n      0xffffffffffffffffffffffffffffffffffffffff\n      and\n        /* \"practica_3/MonsterTokens.sol\":5483:5508  registry[owners[tokenId]] */\n      0xffffffffffffffffffffffffffffffffffffffff\n      and\n      0xffffffffffffffffffffffffffffffffffffffff\n      and\n      dup2\n      mstore\n      0x20\n      add\n      swap1\n      dup2\n      mstore\n      0x20\n      add\n      0x00\n      keccak256\n      0x00\n        /* \"practica_3/MonsterTokens.sol\":5483:5513  registry[owners[tokenId]] -= 1 */\n      dup3\n      dup3\n      sload\n      tag_178\n      swap2\n      swap1\n      tag_144\n      jump\t// in\n    tag_178:\n      swap3\n      pop\n      pop\n      dup2\n      swap1\n      sstore\n      pop\n        /* \"practica_3/MonsterTokens.sol\":5539:5540  1 */\n      0x01\n        /* \"practica_3/MonsterTokens.sol\":5523:5531  registry */\n      dup1\n        /* \"practica_3/MonsterTokens.sol\":5523:5535  registry[to] */\n      0x00\n        /* \"practica_3/MonsterTokens.sol\":5532:5534  to */\n      dup5\n        /* \"practica_3/MonsterTokens.sol\":5523:5535  registry[to] */\n      0xffffffffffffffffffffffffffffffffffffffff\n      and\n      0xffffffffffffffffffffffffffffffffffffffff\n      and\n      dup2\n      mstore\n      0x20\n      add\n      swap1\n      dup2\n      mstore\n      0x20\n      add\n      0x00\n      keccak256\n      0x00\n        /* \"practica_3/MonsterTokens.sol\":5523:5540  registry[to] += 1 */\n      dup3\n      dup3\n      sload\n      tag_179\n      swap2\n      swap1\n      tag_146\n      jump\t// in\n    tag_179:\n      swap3\n      pop\n      pop\n      dup2\n      swap1\n      sstore\n      pop\n        /* \"practica_3/MonsterTokens.sol\":5568:5570  to */\n      dup2\n        /* \"practica_3/MonsterTokens.sol\":5550:5556  owners */\n      0x02\n        /* \"practica_3/MonsterTokens.sol\":5550:5565  owners[tokenId] */\n      0x00\n        /* \"practica_3/MonsterTokens.sol\":5557:5564  tokenId */\n      dup4\n        /* \"practica_3/MonsterTokens.sol\":5550:5565  owners[tokenId] */\n      dup2\n      mstore\n      0x20\n      add\n      swap1\n      dup2\n      mstore\n      0x20\n      add\n      0x00\n      keccak256\n      0x00\n        /* \"practica_3/MonsterTokens.sol\":5550:5570  owners[tokenId] = to */\n      0x0100\n      exp\n      dup2\n      sload\n      dup2\n      0xffffffffffffffffffffffffffffffffffffffff\n      mul\n      not\n      and\n      swap1\n      dup4\n      0xffffffffffffffffffffffffffffffffffffffff\n      and\n      mul\n      or\n      swap1\n      sstore\n      pop\n        /* \"practica_3/MonsterTokens.sol\":5609:5610  0 */\n      0x00\n        /* \"practica_3/MonsterTokens.sol\":5580:5589  approvals */\n      0x03\n        /* \"practica_3/MonsterTokens.sol\":5580:5598  approvals[tokenId] */\n      0x00\n        /* \"practica_3/MonsterTokens.sol\":5590:5597  tokenId */\n      dup4\n        /* \"practica_3/MonsterTokens.sol\":5580:5598  approvals[tokenId] */\n      dup2\n      mstore\n      0x20\n      add\n      swap1\n      dup2\n      mstore\n      0x20\n      add\n      0x00\n      keccak256\n      0x00\n        /* \"practica_3/MonsterTokens.sol\":5580:5611  approvals[tokenId] = address(0) */\n      0x0100\n      exp\n      dup2\n      sload\n      dup2\n      0xffffffffffffffffffffffffffffffffffffffff\n      mul\n      not\n      and\n      swap1\n      dup4\n      0xffffffffffffffffffffffffffffffffffffffff\n      and\n      mul\n      or\n      swap1\n      sstore\n      pop\n        /* \"practica_3/MonsterTokens.sol\":5646:5653  tokenId */\n      dup1\n        /* \"practica_3/MonsterTokens.sol\":5642:5644  to */\n      dup3\n        /* \"practica_3/MonsterTokens.sol\":5627:5654  Transfer(from, to, tokenId) */\n      0xffffffffffffffffffffffffffffffffffffffff\n      and\n        /* \"practica_3/MonsterTokens.sol\":5636:5640  from */\n      dup5\n        /* \"practica_3/MonsterTokens.sol\":5627:5654  Transfer(from, to, tokenId) */\n      0xffffffffffffffffffffffffffffffffffffffff\n      and\n      0xddf252ad1be2c89b69c2b068fc378daa952ba7f163c4a11628f55a4df523b3ef\n      mload(0x40)\n      mload(0x40)\n      dup1\n      swap2\n      sub\n      swap1\n      log4\n        /* \"practica_3/MonsterTokens.sol\":4430:5664  function safeTransferFrom( address from, address to, uint256 tokenId) external payable override {... */\n      pop\n      pop\n      pop\n      jump\t// out\n        /* \"practica_3/MonsterTokens.sol\":1365:1854  function removeMonsterToken(uint token_id_u) external payable {... */\n    tag_58:\n        /* \"practica_3/MonsterTokens.sol\":1488:1489  0 */\n      0x00\n        /* \"practica_3/MonsterTokens.sol\":1458:1490  owners[token_id_u] != address(0) */\n      0xffffffffffffffffffffffffffffffffffffffff\n      and\n        /* \"practica_3/MonsterTokens.sol\":1458:1464  owners */\n      0x02\n        /* \"practica_3/MonsterTokens.sol\":1458:1476  owners[token_id_u] */\n      0x00\n        /* \"practica_3/MonsterTokens.sol\":1465:1475  token_id_u */\n      dup4\n        /* \"practica_3/MonsterTokens.sol\":1458:1476  owners[token_id_u] */\n      dup2\n      mstore\n      0x20\n      add\n      swap1\n      dup2\n      mstore\n      0x20\n      add\n      0x00\n      keccak256\n      0x00\n      swap1\n      sload\n      swap1\n      0x0100\n      exp\n      swap1\n      div\n      0xffffffffffffffffffffffffffffffffffffffff\n      and\n        /* \"practica_3/MonsterTokens.sol\":1458:1490  owners[token_id_u] != address(0) */\n      0xffffffffffffffffffffffffffffffffffffffff\n      and\n      eq\n      iszero\n        /* \"practica_3/MonsterTokens.sol\":1458:1526  owners[token_id_u] != address(0) && owners[token_id_u] == msg.sender */\n      dup1\n      iszero\n      tag_181\n      jumpi\n      pop\n        /* \"practica_3/MonsterTokens.sol\":1516:1526  msg.sender */\n      caller\n        /* \"practica_3/MonsterTokens.sol\":1494:1526  owners[token_id_u] == msg.sender */\n      0xffffffffffffffffffffffffffffffffffffffff\n      and\n        /* \"practica_3/MonsterTokens.sol\":1494:1500  owners */\n      0x02\n        /* \"practica_3/MonsterTokens.sol\":1494:1512  owners[token_id_u] */\n      0x00\n        /* \"practica_3/MonsterTokens.sol\":1501:1511  token_id_u */\n      dup4\n        /* \"practica_3/MonsterTokens.sol\":1494:1512  owners[token_id_u] */\n      dup2\n      mstore\n      0x20\n      add\n      swap1\n      dup2\n      mstore\n      0x20\n      add\n      0x00\n      keccak256\n      0x00\n      swap1\n      sload\n      swap1\n      0x0100\n      exp\n      swap1\n      div\n      0xffffffffffffffffffffffffffffffffffffffff\n      and\n        /* \"practica_3/MonsterTokens.sol\":1494:1526  owners[token_id_u] == msg.sender */\n      0xffffffffffffffffffffffffffffffffffffffff\n      and\n      eq\n        /* \"practica_3/MonsterTokens.sol\":1458:1526  owners[token_id_u] != address(0) && owners[token_id_u] == msg.sender */\n    tag_181:\n        /* \"practica_3/MonsterTokens.sol\":1437:1571  require(... */\n      tag_182\n      jumpi\n      mload(0x40)\n      0x08c379a000000000000000000000000000000000000000000000000000000000\n      dup2\n      mstore\n      0x04\n      add\n      tag_183\n      swap1\n      tag_99\n      jump\t// in\n    tag_183:\n      mload(0x40)\n      dup1\n      swap2\n      sub\n      swap1\n      revert\n    tag_182:\n        /* \"practica_3/MonsterTokens.sol\":1593:1594  1 */\n      0x01\n        /* \"practica_3/MonsterTokens.sol\":1582:1589  creados */\n      0x05\n      0x00\n        /* \"practica_3/MonsterTokens.sol\":1582:1594  creados -= 1 */\n      dup3\n      dup3\n      sload\n      tag_184\n      swap2\n      swap1\n      tag_144\n      jump\t// in\n    tag_184:\n      swap3\n      pop\n      pop\n      dup2\n      swap1\n      sstore\n      pop\n        /* \"practica_3/MonsterTokens.sol\":1628:1629  1 */\n      0x01\n        /* \"practica_3/MonsterTokens.sol\":1604:1612  registry */\n      dup1\n        /* \"practica_3/MonsterTokens.sol\":1604:1624  registry[msg.sender] */\n      0x00\n        /* \"practica_3/MonsterTokens.sol\":1613:1623  msg.sender */\n      caller\n        /* \"practica_3/MonsterTokens.sol\":1604:1624  registry[msg.sender] */\n      0xffffffffffffffffffffffffffffffffffffffff\n      and\n      0xffffffffffffffffffffffffffffffffffffffff\n      and\n      dup2\n      mstore\n      0x20\n      add\n      swap1\n      dup2\n      mstore\n      0x20\n      add\n      0x00\n      keccak256\n      0x00\n        /* \"practica_3/MonsterTokens.sol\":1604:1629  registry[msg.sender] -= 1 */\n      dup3\n      dup3\n      sload\n      tag_185\n      swap2\n      swap1\n      tag_144\n      jump\t// in\n    tag_185:\n      swap3\n      pop\n      pop\n      dup2\n      swap1\n      sstore\n      pop\n        /* \"practica_3/MonsterTokens.sol\":1646:1652  owners */\n      0x02\n        /* \"practica_3/MonsterTokens.sol\":1646:1664  owners[token_id_u] */\n      0x00\n        /* \"practica_3/MonsterTokens.sol\":1653:1663  token_id_u */\n      dup3\n        /* \"practica_3/MonsterTokens.sol\":1646:1664  owners[token_id_u] */\n      dup2\n      mstore\n      0x20\n      add\n      swap1\n      dup2\n      mstore\n      0x20\n      add\n      0x00\n      keccak256\n      0x00\n        /* \"practica_3/MonsterTokens.sol\":1639:1664  delete owners[token_id_u] */\n      0x0100\n      exp\n      dup2\n      sload\n      swap1\n      0xffffffffffffffffffffffffffffffffffffffff\n      mul\n      not\n      and\n      swap1\n      sstore\n        /* \"practica_3/MonsterTokens.sol\":1681:1690  approvals */\n      0x03\n        /* \"practica_3/MonsterTokens.sol\":1681:1702  approvals[token_id_u] */\n      0x00\n        /* \"practica_3/MonsterTokens.sol\":1691:1701  token_id_u */\n      dup3\n        /* \"practica_3/MonsterTokens.sol\":1681:1702  approvals[token_id_u] */\n      dup2\n      mstore\n      0x20\n      add\n      swap1\n      dup2\n      mstore\n      0x20\n      add\n      0x00\n      keccak256\n      0x00\n        /* \"practica_3/MonsterTokens.sol\":1674:1702  delete approvals[token_id_u] */\n      0x0100\n      exp\n      dup2\n      sload\n      swap1\n      0xffffffffffffffffffffffffffffffffffffffff\n      mul\n      not\n      and\n      swap1\n      sstore\n        /* \"practica_3/MonsterTokens.sol\":1719:1725  tokens */\n      0x04\n        /* \"practica_3/MonsterTokens.sol\":1719:1737  tokens[token_id_u] */\n      0x00\n        /* \"practica_3/MonsterTokens.sol\":1726:1736  token_id_u */\n      dup3\n        /* \"practica_3/MonsterTokens.sol\":1719:1737  tokens[token_id_u] */\n      dup2\n      mstore\n      0x20\n      add\n      swap1\n      dup2\n      mstore\n      0x20\n      add\n      0x00\n      keccak256\n      0x00\n        /* \"practica_3/MonsterTokens.sol\":1712:1737  delete tokens[token_id_u] */\n      0x00\n      dup3\n      add\n      0x00\n      tag_186\n      swap2\n      swap1\n      tag_187\n      jump\t// in\n    tag_186:\n      0x01\n      dup3\n      add\n      0x00\n      0x00\n      dup3\n      add\n      0x00\n      tag_188\n      swap2\n      swap1\n      tag_189\n      jump\t// in\n    tag_188:\n      0x01\n      dup3\n      add\n      0x00\n      tag_190\n      swap2\n      swap1\n      tag_191\n      jump\t// in\n    tag_190:\n      pop\n      pop\n      pop\n      pop\n        /* \"practica_3/MonsterTokens.sol\":1749:1759  bool exito */\n      0x00\n        /* \"practica_3/MonsterTokens.sol\":1773:1783  msg.sender */\n      caller\n        /* \"practica_3/MonsterTokens.sol\":1765:1789  payable(msg.sender).call */\n      0xffffffffffffffffffffffffffffffffffffffff\n      and\n        /* \"practica_3/MonsterTokens.sol\":922:926  1000 */\n      0x03e8\n        /* \"practica_3/MonsterTokens.sol\":1765:1805  payable(msg.sender).call{value: FEE}(\"\") */\n      mload(0x40)\n      tag_192\n      swap1\n      tag_193\n      jump\t// in\n    tag_192:\n      0x00\n      mload(0x40)\n      dup1\n      dup4\n      sub\n      dup2\n      dup6\n      dup8\n      gas\n      call\n      swap3\n      pop\n      pop\n      pop\n      returndatasize\n      dup1\n      0x00\n      dup2\n      eq\n      tag_196\n      jumpi\n      mload(0x40)\n      swap2\n      pop\n      and(add(returndatasize, 0x3f), not(0x1f))\n      dup3\n      add\n      0x40\n      mstore\n      returndatasize\n      dup3\n      mstore\n      returndatasize\n      0x00\n      0x20\n      dup5\n      add\n      returndatacopy\n      jump(tag_195)\n    tag_196:\n      0x60\n      swap2\n      pop\n    tag_195:\n      pop\n        /* \"practica_3/MonsterTokens.sol\":1748:1805  (bool exito, ) = payable(msg.sender).call{value: FEE}(\"\") */\n      pop\n      swap1\n      pop\n        /* \"practica_3/MonsterTokens.sol\":1823:1828  exito */\n      dup1\n        /* \"practica_3/MonsterTokens.sol\":1815:1847  require(exito, \"Payment failed\") */\n      tag_197\n      jumpi\n      mload(0x40)\n      0x08c379a000000000000000000000000000000000000000000000000000000000\n      dup2\n      mstore\n      0x04\n      add\n      tag_198\n      swap1\n      tag_199\n      jump\t// in\n    tag_198:\n      mload(0x40)\n      dup1\n      swap2\n      sub\n      swap1\n      revert\n    tag_197:\n        /* \"practica_3/MonsterTokens.sol\":1427:1854  {... */\n      pop\n        /* \"practica_3/MonsterTokens.sol\":1365:1854  function removeMonsterToken(uint token_id_u) external payable {... */\n      pop\n      jump\t// out\n        /* \"practica_3/MonsterTokens.sol\":5847:6044  function ownerOf(uint256 tokenId) external view override returns (address) {... */\n    tag_62:\n        /* \"practica_3/MonsterTokens.sol\":5913:5920  address */\n      0x00\n        /* \"practica_3/MonsterTokens.sol\":5932:5944  address addr */\n      0x00\n        /* \"practica_3/MonsterTokens.sol\":5947:5953  owners */\n      0x02\n        /* \"practica_3/MonsterTokens.sol\":5947:5962  owners[tokenId] */\n      0x00\n        /* \"practica_3/MonsterTokens.sol\":5954:5961  tokenId */\n      dup5\n        /* \"practica_3/MonsterTokens.sol\":5947:5962  owners[tokenId] */\n      dup2\n      mstore\n      0x20\n      add\n      swap1\n      dup2\n      mstore\n      0x20\n      add\n      0x00\n      keccak256\n      0x00\n      swap1\n      sload\n      swap1\n      0x0100\n      exp\n      swap1\n      div\n      0xffffffffffffffffffffffffffffffffffffffff\n      and\n        /* \"practica_3/MonsterTokens.sol\":5932:5962  address addr = owners[tokenId] */\n      swap1\n      pop\n        /* \"practica_3/MonsterTokens.sol\":5996:5997  0 */\n      0x00\n        /* \"practica_3/MonsterTokens.sol\":5980:5998  addr != address(0) */\n      0xffffffffffffffffffffffffffffffffffffffff\n      and\n        /* \"practica_3/MonsterTokens.sol\":5980:5984  addr */\n      dup2\n        /* \"practica_3/MonsterTokens.sol\":5980:5998  addr != address(0) */\n      0xffffffffffffffffffffffffffffffffffffffff\n      and\n      sub\n        /* \"practica_3/MonsterTokens.sol\":5972:6016  require(addr != address(0), \"Invalid token\") */\n      tag_201\n      jumpi\n      mload(0x40)\n      0x08c379a000000000000000000000000000000000000000000000000000000000\n      dup2\n      mstore\n      0x04\n      add\n      tag_202\n      swap1\n      tag_95\n      jump\t// in\n    tag_202:\n      mload(0x40)\n      dup1\n      swap2\n      sub\n      swap1\n      revert\n    tag_201:\n        /* \"practica_3/MonsterTokens.sol\":6033:6037  addr */\n      dup1\n        /* \"practica_3/MonsterTokens.sol\":6026:6037  return addr */\n      swap2\n      pop\n      pop\n        /* \"practica_3/MonsterTokens.sol\":5847:6044  function ownerOf(uint256 tokenId) external view override returns (address) {... */\n      swap2\n      swap1\n      pop\n      jump\t// out\n        /* \"practica_3/MonsterTokens.sol\":5670:5841  function balanceOf(address owner) external view override returns (uint256) {... */\n    tag_68:\n        /* \"practica_3/MonsterTokens.sol\":5736:5743  uint256 */\n      0x00\n        /* \"practica_3/MonsterTokens.sol\":5780:5781  0 */\n      0x00\n        /* \"practica_3/MonsterTokens.sol\":5763:5782  owner != address(0) */\n      0xffffffffffffffffffffffffffffffffffffffff\n      and\n        /* \"practica_3/MonsterTokens.sol\":5763:5768  owner */\n      dup3\n        /* \"practica_3/MonsterTokens.sol\":5763:5782  owner != address(0) */\n      0xffffffffffffffffffffffffffffffffffffffff\n      and\n      sub\n        /* \"practica_3/MonsterTokens.sol\":5755:5802  require(owner != address(0), \"Invalid address\") */\n      tag_204\n      jumpi\n      mload(0x40)\n      0x08c379a000000000000000000000000000000000000000000000000000000000\n      dup2\n      mstore\n      0x04\n      add\n      tag_205\n      swap1\n      tag_206\n      jump\t// in\n    tag_205:\n      mload(0x40)\n      dup1\n      swap2\n      sub\n      swap1\n      revert\n    tag_204:\n        /* \"practica_3/MonsterTokens.sol\":5819:5827  registry */\n      0x01\n        /* \"practica_3/MonsterTokens.sol\":5819:5834  registry[owner] */\n      0x00\n        /* \"practica_3/MonsterTokens.sol\":5828:5833  owner */\n      dup4\n        /* \"practica_3/MonsterTokens.sol\":5819:5834  registry[owner] */\n      0xffffffffffffffffffffffffffffffffffffffff\n      and\n      0xffffffffffffffffffffffffffffffffffffffff\n      and\n      dup2\n      mstore\n      0x20\n      add\n      swap1\n      dup2\n      mstore\n      0x20\n      add\n      0x00\n      keccak256\n      sload\n        /* \"practica_3/MonsterTokens.sol\":5812:5834  return registry[owner] */\n      swap1\n      pop\n        /* \"practica_3/MonsterTokens.sol\":5670:5841  function balanceOf(address owner) external view override returns (uint256) {... */\n      swap2\n      swap1\n      pop\n      jump\t// out\n        /* \"practica_3/MonsterTokens.sol\":997:1359  function createNewToken(string calldata nombre) external payable returns (uint) {... */\n    tag_74:\n        /* \"practica_3/MonsterTokens.sol\":1071:1075  uint */\n      0x00\n        /* \"practica_3/MonsterTokens.sol\":922:926  1000 */\n      0x03e8\n        /* \"practica_3/MonsterTokens.sol\":1095:1104  msg.value */\n      callvalue\n        /* \"practica_3/MonsterTokens.sol\":1095:1111  msg.value >= FEE */\n      lt\n      iszero\n        /* \"practica_3/MonsterTokens.sol\":1087:1134  require(msg.value >= FEE, \"Insufficient funds\") */\n      tag_208\n      jumpi\n      mload(0x40)\n      0x08c379a000000000000000000000000000000000000000000000000000000000\n      dup2\n      mstore\n      0x04\n      add\n      tag_209\n      swap1\n      tag_210\n      jump\t// in\n    tag_209:\n      mload(0x40)\n      dup1\n      swap2\n      sub\n      swap1\n      revert\n    tag_208:\n        /* \"practica_3/MonsterTokens.sol\":1169:1170  1 */\n      0x01\n        /* \"practica_3/MonsterTokens.sol\":1145:1153  registry */\n      dup1\n        /* \"practica_3/MonsterTokens.sol\":1145:1165  registry[msg.sender] */\n      0x00\n        /* \"practica_3/MonsterTokens.sol\":1154:1164  msg.sender */\n      caller\n        /* \"practica_3/MonsterTokens.sol\":1145:1165  registry[msg.sender] */\n      0xffffffffffffffffffffffffffffffffffffffff\n      and\n      0xffffffffffffffffffffffffffffffffffffffff\n      and\n      dup2\n      mstore\n      0x20\n      add\n      swap1\n      dup2\n      mstore\n      0x20\n      add\n      0x00\n      keccak256\n      0x00\n        /* \"practica_3/MonsterTokens.sol\":1145:1170  registry[msg.sender] += 1 */\n      dup3\n      dup3\n      sload\n      tag_211\n      swap2\n      swap1\n      tag_146\n      jump\t// in\n    tag_211:\n      swap3\n      pop\n      pop\n      dup2\n      swap1\n      sstore\n      pop\n        /* \"practica_3/MonsterTokens.sol\":1206:1216  msg.sender */\n      caller\n        /* \"practica_3/MonsterTokens.sol\":1180:1186  owners */\n      0x02\n        /* \"practica_3/MonsterTokens.sol\":1180:1203  owners[token_id_actual] */\n      0x00\n        /* \"practica_3/MonsterTokens.sol\":1187:1202  token_id_actual */\n      sload(0x00)\n        /* \"practica_3/MonsterTokens.sol\":1180:1203  owners[token_id_actual] */\n      dup2\n      mstore\n      0x20\n      add\n      swap1\n      dup2\n      mstore\n      0x20\n      add\n      0x00\n      keccak256\n      0x00\n        /* \"practica_3/MonsterTokens.sol\":1180:1216  owners[token_id_actual] = msg.sender */\n      0x0100\n      exp\n      dup2\n      sload\n      dup2\n      0xffffffffffffffffffffffffffffffffffffffff\n      mul\n      not\n      and\n      swap1\n      dup4\n      0xffffffffffffffffffffffffffffffffffffffff\n      and\n      mul\n      or\n      swap1\n      sstore\n      pop\n        /* \"practica_3/MonsterTokens.sol\":1257:1263  nombre */\n      dup3\n      dup3\n        /* \"practica_3/MonsterTokens.sol\":1226:1232  tokens */\n      0x04\n        /* \"practica_3/MonsterTokens.sol\":1226:1249  tokens[token_id_actual] */\n      0x00\n        /* \"practica_3/MonsterTokens.sol\":1233:1248  token_id_actual */\n      sload(0x00)\n        /* \"practica_3/MonsterTokens.sol\":1226:1249  tokens[token_id_actual] */\n      dup2\n      mstore\n      0x20\n      add\n      swap1\n      dup2\n      mstore\n      0x20\n      add\n      0x00\n      keccak256\n        /* \"practica_3/MonsterTokens.sol\":1226:1254  tokens[token_id_actual].name */\n      0x00\n      add\n        /* \"practica_3/MonsterTokens.sol\":1226:1263  tokens[token_id_actual].name = nombre */\n      swap2\n      dup3\n      tag_212\n      swap3\n      swap2\n      swap1\n      tag_130\n      jump\t// in\n    tag_212:\n      pop\n        /* \"practica_3/MonsterTokens.sol\":1285:1286  1 */\n      0x01\n        /* \"practica_3/MonsterTokens.sol\":1274:1281  creados */\n      0x05\n      0x00\n        /* \"practica_3/MonsterTokens.sol\":1274:1286  creados += 1 */\n      dup3\n      dup3\n      sload\n      tag_213\n      swap2\n      swap1\n      tag_146\n      jump\t// in\n    tag_213:\n      swap3\n      pop\n      pop\n      dup2\n      swap1\n      sstore\n      pop\n        /* \"practica_3/MonsterTokens.sol\":1315:1316  1 */\n      0x01\n        /* \"practica_3/MonsterTokens.sol\":1296:1311  token_id_actual */\n      0x00\n      0x00\n        /* \"practica_3/MonsterTokens.sol\":1296:1316  token_id_actual += 1 */\n      dup3\n      dup3\n      sload\n      tag_214\n      swap2\n      swap1\n      tag_146\n      jump\t// in\n    tag_214:\n      swap3\n      pop\n      pop\n      dup2\n      swap1\n      sstore\n      pop\n        /* \"practica_3/MonsterTokens.sol\":1351:1352  1 */\n      0x01\n        /* \"practica_3/MonsterTokens.sol\":1333:1348  token_id_actual */\n      sload(0x00)\n        /* \"practica_3/MonsterTokens.sol\":1333:1352  token_id_actual - 1 */\n      tag_215\n      swap2\n      swap1\n      tag_144\n      jump\t// in\n    tag_215:\n        /* \"practica_3/MonsterTokens.sol\":1326:1352  return token_id_actual - 1 */\n      swap1\n      pop\n        /* \"practica_3/MonsterTokens.sol\":997:1359  function createNewToken(string calldata nombre) external payable returns (uint) {... */\n      swap3\n      swap2\n      pop\n      pop\n      jump\t// out\n        /* \"practica_3/MonsterTokens.sol\":892:926  uint256 public constant FEE = 1000 */\n    tag_78:\n        /* \"practica_3/MonsterTokens.sol\":922:926  1000 */\n      0x03e8\n        /* \"practica_3/MonsterTokens.sol\":892:926  uint256 public constant FEE = 1000 */\n      dup2\n      jump\t// out\n        /* \"practica_3/MonsterTokens.sol\":3000:3292  function collectProfits() external {... */\n    tag_82:\n        /* \"practica_3/MonsterTokens.sol\":3067:3081  contract_owner */\n      0x06\n      0x00\n      swap1\n      sload\n      swap1\n      0x0100\n      exp\n      swap1\n      div\n      0xffffffffffffffffffffffffffffffffffffffff\n      and\n        /* \"practica_3/MonsterTokens.sol\":3053:3081  msg.sender == contract_owner */\n      0xffffffffffffffffffffffffffffffffffffffff\n      and\n        /* \"practica_3/MonsterTokens.sol\":3053:3063  msg.sender */\n      caller\n        /* \"practica_3/MonsterTokens.sol\":3053:3081  msg.sender == contract_owner */\n      0xffffffffffffffffffffffffffffffffffffffff\n      and\n      eq\n        /* \"practica_3/MonsterTokens.sol\":3045:3105  require(msg.sender == contract_owner, \"Unauthorized access\") */\n      tag_217\n      jumpi\n      mload(0x40)\n      0x08c379a000000000000000000000000000000000000000000000000000000000\n      dup2\n      mstore\n      0x04\n      add\n      tag_218\n      swap1\n      tag_99\n      jump\t// in\n    tag_218:\n      mload(0x40)\n      dup1\n      swap2\n      sub\n      swap1\n      revert\n    tag_217:\n        /* \"practica_3/MonsterTokens.sol\":3115:3127  uint profits */\n      0x00\n        /* \"practica_3/MonsterTokens.sol\":922:926  1000 */\n      0x03e8\n        /* \"practica_3/MonsterTokens.sol\":3154:3161  creados */\n      sload(0x05)\n        /* \"practica_3/MonsterTokens.sol\":3154:3167  creados * FEE */\n      tag_219\n      swap2\n      swap1\n      tag_119\n      jump\t// in\n    tag_219:\n        /* \"practica_3/MonsterTokens.sol\":3130:3151  address(this).balance */\n      selfbalance\n        /* \"practica_3/MonsterTokens.sol\":3130:3167  address(this).balance - creados * FEE */\n      tag_220\n      swap2\n      swap1\n      tag_144\n      jump\t// in\n    tag_220:\n        /* \"practica_3/MonsterTokens.sol\":3115:3167  uint profits = address(this).balance - creados * FEE */\n      swap1\n      pop\n        /* \"practica_3/MonsterTokens.sol\":3178:3190  bool success */\n      0x00\n        /* \"practica_3/MonsterTokens.sol\":3204:3214  msg.sender */\n      caller\n        /* \"practica_3/MonsterTokens.sol\":3196:3220  payable(msg.sender).call */\n      0xffffffffffffffffffffffffffffffffffffffff\n      and\n        /* \"practica_3/MonsterTokens.sol\":3228:3235  profits */\n      dup3\n        /* \"practica_3/MonsterTokens.sol\":3196:3240  payable(msg.sender).call{value: profits}(\"\") */\n      mload(0x40)\n      tag_221\n      swap1\n      tag_193\n      jump\t// in\n    tag_221:\n      0x00\n      mload(0x40)\n      dup1\n      dup4\n      sub\n      dup2\n      dup6\n      dup8\n      gas\n      call\n      swap3\n      pop\n      pop\n      pop\n      returndatasize\n      dup1\n      0x00\n      dup2\n      eq\n      tag_224\n      jumpi\n      mload(0x40)\n      swap2\n      pop\n      and(add(returndatasize, 0x3f), not(0x1f))\n      dup3\n      add\n      0x40\n      mstore\n      returndatasize\n      dup3\n      mstore\n      returndatasize\n      0x00\n      0x20\n      dup5\n      add\n      returndatacopy\n      jump(tag_223)\n    tag_224:\n      0x60\n      swap2\n      pop\n    tag_223:\n      pop\n        /* \"practica_3/MonsterTokens.sol\":3177:3240  (bool success, ) = payable(msg.sender).call{value: profits}(\"\") */\n      pop\n      swap1\n      pop\n        /* \"practica_3/MonsterTokens.sol\":3258:3265  success */\n      dup1\n        /* \"practica_3/MonsterTokens.sol\":3250:3285  require(success, \"Transfer failed\") */\n      tag_225\n      jumpi\n      mload(0x40)\n      0x08c379a000000000000000000000000000000000000000000000000000000000\n      dup2\n      mstore\n      0x04\n      add\n      tag_226\n      swap1\n      tag_227\n      jump\t// in\n    tag_226:\n      mload(0x40)\n      dup1\n      swap2\n      sub\n      swap1\n      revert\n    tag_225:\n        /* \"practica_3/MonsterTokens.sol\":3035:3292  {... */\n      pop\n      pop\n        /* \"practica_3/MonsterTokens.sol\":3000:3292  function collectProfits() external {... */\n      jump\t// out\n        /* \"practica_3/MonsterTokens.sol\":2632:2994  function incrementFirePower(uint token_id_p, uint8 incr) external payable {... */\n    tag_86:\n        /* \"practica_3/MonsterTokens.sol\":2762:2772  msg.sender */\n      caller\n        /* \"practica_3/MonsterTokens.sol\":2737:2772  approvals[token_id_p] == msg.sender */\n      0xffffffffffffffffffffffffffffffffffffffff\n      and\n        /* \"practica_3/MonsterTokens.sol\":2737:2746  approvals */\n      0x03\n        /* \"practica_3/MonsterTokens.sol\":2737:2758  approvals[token_id_p] */\n      0x00\n        /* \"practica_3/MonsterTokens.sol\":2747:2757  token_id_p */\n      dup5\n        /* \"practica_3/MonsterTokens.sol\":2737:2758  approvals[token_id_p] */\n      dup2\n      mstore\n      0x20\n      add\n      swap1\n      dup2\n      mstore\n      0x20\n      add\n      0x00\n      keccak256\n      0x00\n      swap1\n      sload\n      swap1\n      0x0100\n      exp\n      swap1\n      div\n      0xffffffffffffffffffffffffffffffffffffffff\n      and\n        /* \"practica_3/MonsterTokens.sol\":2737:2772  approvals[token_id_p] == msg.sender */\n      0xffffffffffffffffffffffffffffffffffffffff\n      and\n      eq\n        /* \"practica_3/MonsterTokens.sol\":2737:2808  approvals[token_id_p] == msg.sender || owners[token_id_p] == msg.sender */\n      dup1\n      tag_229\n      jumpi\n      pop\n        /* \"practica_3/MonsterTokens.sol\":2798:2808  msg.sender */\n      caller\n        /* \"practica_3/MonsterTokens.sol\":2776:2808  owners[token_id_p] == msg.sender */\n      0xffffffffffffffffffffffffffffffffffffffff\n      and\n        /* \"practica_3/MonsterTokens.sol\":2776:2782  owners */\n      0x02\n        /* \"practica_3/MonsterTokens.sol\":2776:2794  owners[token_id_p] */\n      0x00\n        /* \"practica_3/MonsterTokens.sol\":2783:2793  token_id_p */\n      dup5\n        /* \"practica_3/MonsterTokens.sol\":2776:2794  owners[token_id_p] */\n      dup2\n      mstore\n      0x20\n      add\n      swap1\n      dup2\n      mstore\n      0x20\n      add\n      0x00\n      keccak256\n      0x00\n      swap1\n      sload\n      swap1\n      0x0100\n      exp\n      swap1\n      div\n      0xffffffffffffffffffffffffffffffffffffffff\n      and\n        /* \"practica_3/MonsterTokens.sol\":2776:2808  owners[token_id_p] == msg.sender */\n      0xffffffffffffffffffffffffffffffffffffffff\n      and\n      eq\n        /* \"practica_3/MonsterTokens.sol\":2737:2808  approvals[token_id_p] == msg.sender || owners[token_id_p] == msg.sender */\n    tag_229:\n        /* \"practica_3/MonsterTokens.sol\":2716:2853  require(... */\n      tag_230\n      jumpi\n      mload(0x40)\n      0x08c379a000000000000000000000000000000000000000000000000000000000\n      dup2\n      mstore\n      0x04\n      add\n      tag_231\n      swap1\n      tag_99\n      jump\t// in\n    tag_231:\n      mload(0x40)\n      dup1\n      swap2\n      sub\n      swap1\n      revert\n    tag_230:\n        /* \"practica_3/MonsterTokens.sol\":2901:2902  2 */\n      0x02\n        /* \"practica_3/MonsterTokens.sol\":2892:2896  incr */\n      dup2\n        /* \"practica_3/MonsterTokens.sol\":2884:2897  uint256(incr) */\n      0xff\n      and\n        /* \"practica_3/MonsterTokens.sol\":2884:2902  uint256(incr) ** 2 */\n      tag_232\n      swap2\n      swap1\n      tag_233\n      jump\t// in\n    tag_232:\n        /* \"practica_3/MonsterTokens.sol\":2871:2880  msg.value */\n      callvalue\n        /* \"practica_3/MonsterTokens.sol\":2871:2902  msg.value >= uint256(incr) ** 2 */\n      lt\n      iszero\n        /* \"practica_3/MonsterTokens.sol\":2863:2923  require(msg.value >= uint256(incr) ** 2, \"Not enough money\") */\n      tag_234\n      jumpi\n      mload(0x40)\n      0x08c379a000000000000000000000000000000000000000000000000000000000\n      dup2\n      mstore\n      0x04\n      add\n      tag_235\n      swap1\n      tag_122\n      jump\t// in\n    tag_235:\n      mload(0x40)\n      dup1\n      swap2\n      sub\n      swap1\n      revert\n    tag_234:\n        /* \"practica_3/MonsterTokens.sol\":2934:2987  tokens[token_id_p].weapons.firePowers.increment(incr) */\n      tag_236\n        /* \"practica_3/MonsterTokens.sol\":2982:2986  incr */\n      dup2\n        /* \"practica_3/MonsterTokens.sol\":2934:2940  tokens */\n      0x04\n        /* \"practica_3/MonsterTokens.sol\":2934:2952  tokens[token_id_p] */\n      0x00\n        /* \"practica_3/MonsterTokens.sol\":2941:2951  token_id_p */\n      dup6\n        /* \"practica_3/MonsterTokens.sol\":2934:2952  tokens[token_id_p] */\n      dup2\n      mstore\n      0x20\n      add\n      swap1\n      dup2\n      mstore\n      0x20\n      add\n      0x00\n      keccak256\n        /* \"practica_3/MonsterTokens.sol\":2934:2960  tokens[token_id_p].weapons */\n      0x01\n      add\n        /* \"practica_3/MonsterTokens.sol\":2934:2971  tokens[token_id_p].weapons.firePowers */\n      0x01\n      add\n        /* \"practica_3/MonsterTokens.sol\":2934:2981  tokens[token_id_p].weapons.firePowers.increment */\n      tag_237\n      swap1\n        /* \"practica_3/MonsterTokens.sol\":2934:2987  tokens[token_id_p].weapons.firePowers.increment(incr) */\n      swap2\n      swap1\n      0xffffffff\n      and\n      jump\t// in\n    tag_236:\n        /* \"practica_3/MonsterTokens.sol\":2632:2994  function incrementFirePower(uint token_id_p, uint8 incr) external payable {... */\n      pop\n      pop\n      jump\t// out\n        /* \"practica_3/ArrayUtils.sol\":379:553  function sum(uint[] storage arr) internal view returns (uint) {... */\n    tag_105:\n        /* \"practica_3/ArrayUtils.sol\":435:439  uint */\n      0x00\n        /* \"practica_3/ArrayUtils.sol\":451:461  uint total */\n      0x00\n        /* \"practica_3/ArrayUtils.sol\":476:482  uint i */\n      0x00\n        /* \"practica_3/ArrayUtils.sol\":485:486  0 */\n      0x00\n        /* \"practica_3/ArrayUtils.sol\":476:486  uint i = 0 */\n      swap1\n      pop\n        /* \"practica_3/ArrayUtils.sol\":471:524  for (uint i = 0; i < arr.length; i++) total += arr[i] */\n    tag_239:\n        /* \"practica_3/ArrayUtils.sol\":492:495  arr */\n      dup4\n        /* \"practica_3/ArrayUtils.sol\":492:502  arr.length */\n      dup1\n      sload\n      swap1\n      pop\n        /* \"practica_3/ArrayUtils.sol\":488:489  i */\n      dup2\n        /* \"practica_3/ArrayUtils.sol\":488:502  i < arr.length */\n      lt\n        /* \"practica_3/ArrayUtils.sol\":471:524  for (uint i = 0; i < arr.length; i++) total += arr[i] */\n      iszero\n      tag_240\n      jumpi\n        /* \"practica_3/ArrayUtils.sol\":518:521  arr */\n      dup4\n        /* \"practica_3/ArrayUtils.sol\":522:523  i */\n      dup2\n        /* \"practica_3/ArrayUtils.sol\":518:524  arr[i] */\n      dup2\n      sload\n      dup2\n      lt\n      tag_242\n      jumpi\n      tag_243\n      tag_244\n      jump\t// in\n    tag_243:\n    tag_242:\n      swap1\n      0x00\n      mstore\n      keccak256(0x00, 0x20)\n      add\n      sload\n        /* \"practica_3/ArrayUtils.sol\":509:524  total += arr[i] */\n      dup3\n      tag_246\n      swap2\n      swap1\n      tag_146\n      jump\t// in\n    tag_246:\n      swap2\n      pop\n        /* \"practica_3/ArrayUtils.sol\":504:507  i++ */\n      dup1\n      dup1\n      0x01\n      add\n      swap2\n      pop\n      pop\n        /* \"practica_3/ArrayUtils.sol\":471:524  for (uint i = 0; i < arr.length; i++) total += arr[i] */\n      jump(tag_239)\n    tag_240:\n      pop\n        /* \"practica_3/ArrayUtils.sol\":541:546  total */\n      dup1\n        /* \"practica_3/ArrayUtils.sol\":534:546  return total */\n      swap2\n      pop\n      pop\n        /* \"practica_3/ArrayUtils.sol\":379:553  function sum(uint[] storage arr) internal view returns (uint) {... */\n      swap2\n      swap1\n      pop\n      jump\t// out\n        /* \"practica_3/ArrayUtils.sol\":83:373  function contains(string[] storage arr, string memory val) internal view returns (bool) {... */\n    tag_124:\n        /* \"practica_3/ArrayUtils.sol\":165:169  bool */\n      0x00\n        /* \"practica_3/ArrayUtils.sol\":181:196  bytes32 hashVal */\n      0x00\n        /* \"practica_3/ArrayUtils.sol\":215:218  val */\n      dup3\n        /* \"practica_3/ArrayUtils.sol\":199:220  keccak256(bytes(val)) */\n      dup1\n      mload\n      swap1\n      0x20\n      add\n      keccak256\n        /* \"practica_3/ArrayUtils.sol\":181:220  bytes32 hashVal = keccak256(bytes(val)) */\n      swap1\n      pop\n        /* \"practica_3/ArrayUtils.sol\":235:241  uint i */\n      0x00\n        /* \"practica_3/ArrayUtils.sol\":244:245  0 */\n      0x00\n        /* \"practica_3/ArrayUtils.sol\":235:245  uint i = 0 */\n      swap1\n      pop\n        /* \"practica_3/ArrayUtils.sol\":230:345  for (uint i = 0; i < arr.length; i++) {... */\n    tag_248:\n        /* \"practica_3/ArrayUtils.sol\":251:254  arr */\n      dup5\n        /* \"practica_3/ArrayUtils.sol\":251:261  arr.length */\n      dup1\n      sload\n      swap1\n      pop\n        /* \"practica_3/ArrayUtils.sol\":247:248  i */\n      dup2\n        /* \"practica_3/ArrayUtils.sol\":247:261  i < arr.length */\n      lt\n        /* \"practica_3/ArrayUtils.sol\":230:345  for (uint i = 0; i < arr.length; i++) {... */\n      iszero\n      tag_249\n      jumpi\n        /* \"practica_3/ArrayUtils.sol\":314:321  hashVal */\n      dup2\n        /* \"practica_3/ArrayUtils.sol\":302:305  arr */\n      dup6\n        /* \"practica_3/ArrayUtils.sol\":306:307  i */\n      dup3\n        /* \"practica_3/ArrayUtils.sol\":302:308  arr[i] */\n      dup2\n      sload\n      dup2\n      lt\n      tag_251\n      jumpi\n      tag_252\n      tag_244\n      jump\t// in\n    tag_252:\n    tag_251:\n      swap1\n      0x00\n      mstore\n      keccak256(0x00, 0x20)\n      add\n        /* \"practica_3/ArrayUtils.sol\":286:310  keccak256(bytes(arr[i])) */\n      mload(0x40)\n      tag_254\n      swap2\n      swap1\n      tag_255\n      jump\t// in\n    tag_254:\n      mload(0x40)\n      dup1\n      swap2\n      sub\n      swap1\n      keccak256\n        /* \"practica_3/ArrayUtils.sol\":286:321  keccak256(bytes(arr[i])) == hashVal */\n      sub\n        /* \"practica_3/ArrayUtils.sol\":282:334  if (keccak256(bytes(arr[i])) == hashVal) return true */\n      tag_256\n      jumpi\n        /* \"practica_3/ArrayUtils.sol\":330:334  true */\n      0x01\n        /* \"practica_3/ArrayUtils.sol\":323:334  return true */\n      swap3\n      pop\n      pop\n      pop\n      jump(tag_247)\n        /* \"practica_3/ArrayUtils.sol\":282:334  if (keccak256(bytes(arr[i])) == hashVal) return true */\n    tag_256:\n        /* \"practica_3/ArrayUtils.sol\":263:266  i++ */\n      dup1\n      dup1\n      0x01\n      add\n      swap2\n      pop\n      pop\n        /* \"practica_3/ArrayUtils.sol\":230:345  for (uint i = 0; i < arr.length; i++) {... */\n      jump(tag_248)\n    tag_249:\n      pop\n        /* \"practica_3/ArrayUtils.sol\":361:366  false */\n      0x00\n        /* \"practica_3/ArrayUtils.sol\":354:366  return false */\n      swap2\n      pop\n      pop\n        /* \"practica_3/ArrayUtils.sol\":83:373  function contains(string[] storage arr, string memory val) internal view returns (bool) {... */\n    tag_247:\n      swap3\n      swap2\n      pop\n      pop\n      jump\t// out\n        /* \"practica_3/ArrayUtils.sol\":559:746  function increment(uint[] storage arr, uint8 porcentaje) internal {... */\n    tag_237:\n        /* \"practica_3/ArrayUtils.sol\":640:646  uint i */\n      0x00\n        /* \"practica_3/ArrayUtils.sol\":649:650  0 */\n      0x00\n        /* \"practica_3/ArrayUtils.sol\":640:650  uint i = 0 */\n      swap1\n      pop\n        /* \"practica_3/ArrayUtils.sol\":635:740  for (uint i = 0; i < arr.length; i++) {... */\n    tag_258:\n        /* \"practica_3/ArrayUtils.sol\":656:659  arr */\n      dup3\n        /* \"practica_3/ArrayUtils.sol\":656:666  arr.length */\n      dup1\n      sload\n      swap1\n      pop\n        /* \"practica_3/ArrayUtils.sol\":652:653  i */\n      dup2\n        /* \"practica_3/ArrayUtils.sol\":652:666  i < arr.length */\n      lt\n        /* \"practica_3/ArrayUtils.sol\":635:740  for (uint i = 0; i < arr.length; i++) {... */\n      iszero\n      tag_259\n      jumpi\n        /* \"practica_3/ArrayUtils.sol\":726:729  100 */\n      0x64\n        /* \"practica_3/ArrayUtils.sol\":712:722  porcentaje */\n      dup3\n        /* \"practica_3/ArrayUtils.sol\":706:709  100 */\n      0x64\n        /* \"practica_3/ArrayUtils.sol\":706:722  100 + porcentaje */\n      tag_261\n      swap2\n      swap1\n      tag_262\n      jump\t// in\n    tag_261:\n        /* \"practica_3/ArrayUtils.sol\":696:723  arr[i] * (100 + porcentaje) */\n      0xff\n      and\n        /* \"practica_3/ArrayUtils.sol\":696:699  arr */\n      dup5\n        /* \"practica_3/ArrayUtils.sol\":700:701  i */\n      dup4\n        /* \"practica_3/ArrayUtils.sol\":696:702  arr[i] */\n      dup2\n      sload\n      dup2\n      lt\n      tag_263\n      jumpi\n      tag_264\n      tag_244\n      jump\t// in\n    tag_264:\n    tag_263:\n      swap1\n      0x00\n      mstore\n      keccak256(0x00, 0x20)\n      add\n      sload\n        /* \"practica_3/ArrayUtils.sol\":696:723  arr[i] * (100 + porcentaje) */\n      tag_266\n      swap2\n      swap1\n      tag_119\n      jump\t// in\n    tag_266:\n        /* \"practica_3/ArrayUtils.sol\":696:729  arr[i] * (100 + porcentaje) / 100 */\n      tag_267\n      swap2\n      swap1\n      tag_268\n      jump\t// in\n    tag_267:\n        /* \"practica_3/ArrayUtils.sol\":687:690  arr */\n      dup4\n        /* \"practica_3/ArrayUtils.sol\":691:692  i */\n      dup3\n        /* \"practica_3/ArrayUtils.sol\":687:693  arr[i] */\n      dup2\n      sload\n      dup2\n      lt\n      tag_269\n      jumpi\n      tag_270\n      tag_244\n      jump\t// in\n    tag_270:\n    tag_269:\n      swap1\n      0x00\n      mstore\n      keccak256(0x00, 0x20)\n      add\n        /* \"practica_3/ArrayUtils.sol\":687:729  arr[i] = arr[i] * (100 + porcentaje) / 100 */\n      dup2\n      swap1\n      sstore\n      pop\n        /* \"practica_3/ArrayUtils.sol\":668:671  i++ */\n      dup1\n      dup1\n      0x01\n      add\n      swap2\n      pop\n      pop\n        /* \"practica_3/ArrayUtils.sol\":635:740  for (uint i = 0; i < arr.length; i++) {... */\n      jump(tag_258)\n    tag_259:\n      pop\n        /* \"practica_3/ArrayUtils.sol\":559:746  function increment(uint[] storage arr, uint8 porcentaje) internal {... */\n      pop\n      pop\n      jump\t// out\n    tag_187:\n      pop\n      dup1\n      sload\n      tag_272\n      swap1\n      tag_92\n      jump\t// in\n    tag_272:\n      0x00\n      dup3\n      sstore\n      dup1\n      0x1f\n      lt\n      tag_274\n      jumpi\n      pop\n      jump(tag_273)\n    tag_274:\n      0x1f\n      add\n      0x20\n      swap1\n      div\n      swap1\n      0x00\n      mstore\n      keccak256(0x00, 0x20)\n      swap1\n      dup2\n      add\n      swap1\n      tag_275\n      swap2\n      swap1\n      tag_276\n      jump\t// in\n    tag_275:\n    tag_273:\n      pop\n      jump\t// out\n    tag_189:\n      pop\n      dup1\n      sload\n      0x00\n      dup3\n      sstore\n      swap1\n      0x00\n      mstore\n      keccak256(0x00, 0x20)\n      swap1\n      dup2\n      add\n      swap1\n      tag_278\n      swap2\n      swap1\n      tag_279\n      jump\t// in\n    tag_278:\n      pop\n      jump\t// out\n    tag_191:\n      pop\n      dup1\n      sload\n      0x00\n      dup3\n      sstore\n      swap1\n      0x00\n      mstore\n      keccak256(0x00, 0x20)\n      swap1\n      dup2\n      add\n      swap1\n      tag_281\n      swap2\n      swap1\n      tag_276\n      jump\t// in\n    tag_281:\n      pop\n      jump\t// out\n    tag_276:\n    tag_282:\n      dup1\n      dup3\n      gt\n      iszero\n      tag_283\n      jumpi\n      0x00\n      dup2\n      0x00\n      swap1\n      sstore\n      pop\n      0x01\n      add\n      jump(tag_282)\n    tag_283:\n      pop\n      swap1\n      jump\t// out\n    tag_279:\n    tag_284:\n      dup1\n      dup3\n      gt\n      iszero\n      tag_285\n      jumpi\n      0x00\n      dup2\n      dup2\n      tag_286\n      swap2\n      swap1\n      tag_187\n      jump\t// in\n    tag_286:\n      pop\n      0x01\n      add\n      jump(tag_284)\n    tag_285:\n      pop\n      swap1\n      jump\t// out\n        /* \"#utility.yul\":88:205   */\n    tag_288:\n        /* \"#utility.yul\":197:198   */\n      0x00\n        /* \"#utility.yul\":194:195   */\n      0x00\n        /* \"#utility.yul\":187:199   */\n      revert\n        /* \"#utility.yul\":211:328   */\n    tag_289:\n        /* \"#utility.yul\":320:321   */\n      0x00\n        /* \"#utility.yul\":317:318   */\n      0x00\n        /* \"#utility.yul\":310:322   */\n      revert\n        /* \"#utility.yul\":334:483   */\n    tag_290:\n        /* \"#utility.yul\":370:377   */\n      0x00\n        /* \"#utility.yul\":410:476   */\n      0xffffffff00000000000000000000000000000000000000000000000000000000\n        /* \"#utility.yul\":403:408   */\n      dup3\n        /* \"#utility.yul\":399:477   */\n      and\n        /* \"#utility.yul\":388:477   */\n      swap1\n      pop\n        /* \"#utility.yul\":334:483   */\n      swap2\n      swap1\n      pop\n      jump\t// out\n        /* \"#utility.yul\":489:609   */\n    tag_291:\n        /* \"#utility.yul\":561:584   */\n      tag_376\n        /* \"#utility.yul\":578:583   */\n      dup2\n        /* \"#utility.yul\":561:584   */\n      tag_290\n      jump\t// in\n    tag_376:\n        /* \"#utility.yul\":554:559   */\n      dup2\n        /* \"#utility.yul\":551:585   */\n      eq\n        /* \"#utility.yul\":541:603   */\n      tag_377\n      jumpi\n        /* \"#utility.yul\":599:600   */\n      0x00\n        /* \"#utility.yul\":596:597   */\n      0x00\n        /* \"#utility.yul\":589:601   */\n      revert\n        /* \"#utility.yul\":541:603   */\n    tag_377:\n        /* \"#utility.yul\":489:609   */\n      pop\n      jump\t// out\n        /* \"#utility.yul\":615:752   */\n    tag_292:\n        /* \"#utility.yul\":660:665   */\n      0x00\n        /* \"#utility.yul\":698:704   */\n      dup2\n        /* \"#utility.yul\":685:705   */\n      calldataload\n        /* \"#utility.yul\":676:705   */\n      swap1\n      pop\n        /* \"#utility.yul\":714:746   */\n      tag_379\n        /* \"#utility.yul\":740:745   */\n      dup2\n        /* \"#utility.yul\":714:746   */\n      tag_291\n      jump\t// in\n    tag_379:\n        /* \"#utility.yul\":615:752   */\n      swap3\n      swap2\n      pop\n      pop\n      jump\t// out\n        /* \"#utility.yul\":758:1085   */\n    tag_25:\n        /* \"#utility.yul\":816:822   */\n      0x00\n        /* \"#utility.yul\":865:867   */\n      0x20\n        /* \"#utility.yul\":853:862   */\n      dup3\n        /* \"#utility.yul\":844:851   */\n      dup5\n        /* \"#utility.yul\":840:863   */\n      sub\n        /* \"#utility.yul\":836:868   */\n      slt\n        /* \"#utility.yul\":833:952   */\n      iszero\n      tag_381\n      jumpi\n        /* \"#utility.yul\":871:950   */\n      tag_382\n      tag_288\n      jump\t// in\n    tag_382:\n        /* \"#utility.yul\":833:952   */\n    tag_381:\n        /* \"#utility.yul\":991:992   */\n      0x00\n        /* \"#utility.yul\":1016:1068   */\n      tag_383\n        /* \"#utility.yul\":1060:1067   */\n      dup5\n        /* \"#utility.yul\":1051:1057   */\n      dup3\n        /* \"#utility.yul\":1040:1049   */\n      dup6\n        /* \"#utility.yul\":1036:1058   */\n      add\n        /* \"#utility.yul\":1016:1068   */\n      tag_292\n      jump\t// in\n    tag_383:\n        /* \"#utility.yul\":1006:1068   */\n      swap2\n      pop\n        /* \"#utility.yul\":962:1078   */\n      pop\n        /* \"#utility.yul\":758:1085   */\n      swap3\n      swap2\n      pop\n      pop\n      jump\t// out\n        /* \"#utility.yul\":1091:1181   */\n    tag_293:\n        /* \"#utility.yul\":1125:1132   */\n      0x00\n        /* \"#utility.yul\":1168:1173   */\n      dup2\n        /* \"#utility.yul\":1161:1174   */\n      iszero\n        /* \"#utility.yul\":1154:1175   */\n      iszero\n        /* \"#utility.yul\":1143:1175   */\n      swap1\n      pop\n        /* \"#utility.yul\":1091:1181   */\n      swap2\n      swap1\n      pop\n      jump\t// out\n        /* \"#utility.yul\":1187:1296   */\n    tag_294:\n        /* \"#utility.yul\":1268:1289   */\n      tag_386\n        /* \"#utility.yul\":1283:1288   */\n      dup2\n        /* \"#utility.yul\":1268:1289   */\n      tag_293\n      jump\t// in\n    tag_386:\n        /* \"#utility.yul\":1263:1266   */\n      dup3\n        /* \"#utility.yul\":1256:1290   */\n      mstore\n        /* \"#utility.yul\":1187:1296   */\n      pop\n      pop\n      jump\t// out\n        /* \"#utility.yul\":1302:1512   */\n    tag_28:\n        /* \"#utility.yul\":1389:1393   */\n      0x00\n        /* \"#utility.yul\":1427:1429   */\n      0x20\n        /* \"#utility.yul\":1416:1425   */\n      dup3\n        /* \"#utility.yul\":1412:1430   */\n      add\n        /* \"#utility.yul\":1404:1430   */\n      swap1\n      pop\n        /* \"#utility.yul\":1440:1505   */\n      tag_388\n        /* \"#utility.yul\":1502:1503   */\n      0x00\n        /* \"#utility.yul\":1491:1500   */\n      dup4\n        /* \"#utility.yul\":1487:1504   */\n      add\n        /* \"#utility.yul\":1478:1484   */\n      dup5\n        /* \"#utility.yul\":1440:1505   */\n      tag_294\n      jump\t// in\n    tag_388:\n        /* \"#utility.yul\":1302:1512   */\n      swap3\n      swap2\n      pop\n      pop\n      jump\t// out\n        /* \"#utility.yul\":1518:1595   */\n    tag_295:\n        /* \"#utility.yul\":1555:1562   */\n      0x00\n        /* \"#utility.yul\":1584:1589   */\n      dup2\n        /* \"#utility.yul\":1573:1589   */\n      swap1\n      pop\n        /* \"#utility.yul\":1518:1595   */\n      swap2\n      swap1\n      pop\n      jump\t// out\n        /* \"#utility.yul\":1601:1723   */\n    tag_296:\n        /* \"#utility.yul\":1674:1698   */\n      tag_391\n        /* \"#utility.yul\":1692:1697   */\n      dup2\n        /* \"#utility.yul\":1674:1698   */\n      tag_295\n      jump\t// in\n    tag_391:\n        /* \"#utility.yul\":1667:1672   */\n      dup2\n        /* \"#utility.yul\":1664:1699   */\n      eq\n        /* \"#utility.yul\":1654:1717   */\n      tag_392\n      jumpi\n        /* \"#utility.yul\":1713:1714   */\n      0x00\n        /* \"#utility.yul\":1710:1711   */\n      0x00\n        /* \"#utility.yul\":1703:1715   */\n      revert\n        /* \"#utility.yul\":1654:1717   */\n    tag_392:\n        /* \"#utility.yul\":1601:1723   */\n      pop\n      jump\t// out\n        /* \"#utility.yul\":1729:1868   */\n    tag_297:\n        /* \"#utility.yul\":1775:1780   */\n      0x00\n        /* \"#utility.yul\":1813:1819   */\n      dup2\n        /* \"#utility.yul\":1800:1820   */\n      calldataload\n        /* \"#utility.yul\":1791:1820   */\n      swap1\n      pop\n        /* \"#utility.yul\":1829:1862   */\n      tag_394\n        /* \"#utility.yul\":1856:1861   */\n      dup2\n        /* \"#utility.yul\":1829:1862   */\n      tag_296\n      jump\t// in\n    tag_394:\n        /* \"#utility.yul\":1729:1868   */\n      swap3\n      swap2\n      pop\n      pop\n      jump\t// out\n        /* \"#utility.yul\":1874:2203   */\n    tag_32:\n        /* \"#utility.yul\":1933:1939   */\n      0x00\n        /* \"#utility.yul\":1982:1984   */\n      0x20\n        /* \"#utility.yul\":1970:1979   */\n      dup3\n        /* \"#utility.yul\":1961:1968   */\n      dup5\n        /* \"#utility.yul\":1957:1980   */\n      sub\n        /* \"#utility.yul\":1953:1985   */\n      slt\n        /* \"#utility.yul\":1950:2069   */\n      iszero\n      tag_396\n      jumpi\n        /* \"#utility.yul\":1988:2067   */\n      tag_397\n      tag_288\n      jump\t// in\n    tag_397:\n        /* \"#utility.yul\":1950:2069   */\n    tag_396:\n        /* \"#utility.yul\":2108:2109   */\n      0x00\n        /* \"#utility.yul\":2133:2186   */\n      tag_398\n        /* \"#utility.yul\":2178:2185   */\n      dup5\n        /* \"#utility.yul\":2169:2175   */\n      dup3\n        /* \"#utility.yul\":2158:2167   */\n      dup6\n        /* \"#utility.yul\":2154:2176   */\n      add\n        /* \"#utility.yul\":2133:2186   */\n      tag_297\n      jump\t// in\n    tag_398:\n        /* \"#utility.yul\":2123:2186   */\n      swap2\n      pop\n        /* \"#utility.yul\":2079:2196   */\n      pop\n        /* \"#utility.yul\":1874:2203   */\n      swap3\n      swap2\n      pop\n      pop\n      jump\t// out\n        /* \"#utility.yul\":2209:2335   */\n    tag_298:\n        /* \"#utility.yul\":2246:2253   */\n      0x00\n        /* \"#utility.yul\":2286:2328   */\n      0xffffffffffffffffffffffffffffffffffffffff\n        /* \"#utility.yul\":2279:2284   */\n      dup3\n        /* \"#utility.yul\":2275:2329   */\n      and\n        /* \"#utility.yul\":2264:2329   */\n      swap1\n      pop\n        /* \"#utility.yul\":2209:2335   */\n      swap2\n      swap1\n      pop\n      jump\t// out\n        /* \"#utility.yul\":2341:2437   */\n    tag_299:\n        /* \"#utility.yul\":2378:2385   */\n      0x00\n        /* \"#utility.yul\":2407:2431   */\n      tag_401\n        /* \"#utility.yul\":2425:2430   */\n      dup3\n        /* \"#utility.yul\":2407:2431   */\n      tag_298\n      jump\t// in\n    tag_401:\n        /* \"#utility.yul\":2396:2431   */\n      swap1\n      pop\n        /* \"#utility.yul\":2341:2437   */\n      swap2\n      swap1\n      pop\n      jump\t// out\n        /* \"#utility.yul\":2443:2561   */\n    tag_300:\n        /* \"#utility.yul\":2530:2554   */\n      tag_403\n        /* \"#utility.yul\":2548:2553   */\n      dup2\n        /* \"#utility.yul\":2530:2554   */\n      tag_299\n      jump\t// in\n    tag_403:\n        /* \"#utility.yul\":2525:2528   */\n      dup3\n        /* \"#utility.yul\":2518:2555   */\n      mstore\n        /* \"#utility.yul\":2443:2561   */\n      pop\n      pop\n      jump\t// out\n        /* \"#utility.yul\":2567:2789   */\n    tag_35:\n        /* \"#utility.yul\":2660:2664   */\n      0x00\n        /* \"#utility.yul\":2698:2700   */\n      0x20\n        /* \"#utility.yul\":2687:2696   */\n      dup3\n        /* \"#utility.yul\":2683:2701   */\n      add\n        /* \"#utility.yul\":2675:2701   */\n      swap1\n      pop\n        /* \"#utility.yul\":2711:2782   */\n      tag_405\n        /* \"#utility.yul\":2779:2780   */\n      0x00\n        /* \"#utility.yul\":2768:2777   */\n      dup4\n        /* \"#utility.yul\":2764:2781   */\n      add\n        /* \"#utility.yul\":2755:2761   */\n      dup5\n        /* \"#utility.yul\":2711:2782   */\n      tag_300\n      jump\t// in\n    tag_405:\n        /* \"#utility.yul\":2567:2789   */\n      swap3\n      swap2\n      pop\n      pop\n      jump\t// out\n        /* \"#utility.yul\":2795:2917   */\n    tag_301:\n        /* \"#utility.yul\":2868:2892   */\n      tag_407\n        /* \"#utility.yul\":2886:2891   */\n      dup2\n        /* \"#utility.yul\":2868:2892   */\n      tag_299\n      jump\t// in\n    tag_407:\n        /* \"#utility.yul\":2861:2866   */\n      dup2\n        /* \"#utility.yul\":2858:2893   */\n      eq\n        /* \"#utility.yul\":2848:2911   */\n      tag_408\n      jumpi\n        /* \"#utility.yul\":2907:2908   */\n      0x00\n        /* \"#utility.yul\":2904:2905   */\n      0x00\n        /* \"#utility.yul\":2897:2909   */\n      revert\n        /* \"#utility.yul\":2848:2911   */\n    tag_408:\n        /* \"#utility.yul\":2795:2917   */\n      pop\n      jump\t// out\n        /* \"#utility.yul\":2923:3062   */\n    tag_302:\n        /* \"#utility.yul\":2969:2974   */\n      0x00\n        /* \"#utility.yul\":3007:3013   */\n      dup2\n        /* \"#utility.yul\":2994:3014   */\n      calldataload\n        /* \"#utility.yul\":2985:3014   */\n      swap1\n      pop\n        /* \"#utility.yul\":3023:3056   */\n      tag_410\n        /* \"#utility.yul\":3050:3055   */\n      dup2\n        /* \"#utility.yul\":3023:3056   */\n      tag_301\n      jump\t// in\n    tag_410:\n        /* \"#utility.yul\":2923:3062   */\n      swap3\n      swap2\n      pop\n      pop\n      jump\t// out\n        /* \"#utility.yul\":3068:3542   */\n    tag_38:\n        /* \"#utility.yul\":3136:3142   */\n      0x00\n        /* \"#utility.yul\":3144:3150   */\n      0x00\n        /* \"#utility.yul\":3193:3195   */\n      0x40\n        /* \"#utility.yul\":3181:3190   */\n      dup4\n        /* \"#utility.yul\":3172:3179   */\n      dup6\n        /* \"#utility.yul\":3168:3191   */\n      sub\n        /* \"#utility.yul\":3164:3196   */\n      slt\n        /* \"#utility.yul\":3161:3280   */\n      iszero\n      tag_412\n      jumpi\n        /* \"#utility.yul\":3199:3278   */\n      tag_413\n      tag_288\n      jump\t// in\n    tag_413:\n        /* \"#utility.yul\":3161:3280   */\n    tag_412:\n        /* \"#utility.yul\":3319:3320   */\n      0x00\n        /* \"#utility.yul\":3344:3397   */\n      tag_414\n        /* \"#utility.yul\":3389:3396   */\n      dup6\n        /* \"#utility.yul\":3380:3386   */\n      dup3\n        /* \"#utility.yul\":3369:3378   */\n      dup7\n        /* \"#utility.yul\":3365:3387   */\n      add\n        /* \"#utility.yul\":3344:3397   */\n      tag_302\n      jump\t// in\n    tag_414:\n        /* \"#utility.yul\":3334:3397   */\n      swap3\n      pop\n        /* \"#utility.yul\":3290:3407   */\n      pop\n        /* \"#utility.yul\":3446:3448   */\n      0x20\n        /* \"#utility.yul\":3472:3525   */\n      tag_415\n        /* \"#utility.yul\":3517:3524   */\n      dup6\n        /* \"#utility.yul\":3508:3514   */\n      dup3\n        /* \"#utility.yul\":3497:3506   */\n      dup7\n        /* \"#utility.yul\":3493:3515   */\n      add\n        /* \"#utility.yul\":3472:3525   */\n      tag_297\n      jump\t// in\n    tag_415:\n        /* \"#utility.yul\":3462:3525   */\n      swap2\n      pop\n        /* \"#utility.yul\":3417:3535   */\n      pop\n        /* \"#utility.yul\":3068:3542   */\n      swap3\n      pop\n      swap3\n      swap1\n      pop\n      jump\t// out\n        /* \"#utility.yul\":3548:3665   */\n    tag_303:\n        /* \"#utility.yul\":3657:3658   */\n      0x00\n        /* \"#utility.yul\":3654:3655   */\n      0x00\n        /* \"#utility.yul\":3647:3659   */\n      revert\n        /* \"#utility.yul\":3671:3788   */\n    tag_304:\n        /* \"#utility.yul\":3780:3781   */\n      0x00\n        /* \"#utility.yul\":3777:3778   */\n      0x00\n        /* \"#utility.yul\":3770:3782   */\n      revert\n        /* \"#utility.yul\":3794:3911   */\n    tag_305:\n        /* \"#utility.yul\":3903:3904   */\n      0x00\n        /* \"#utility.yul\":3900:3901   */\n      0x00\n        /* \"#utility.yul\":3893:3905   */\n      revert\n        /* \"#utility.yul\":3931:4484   */\n    tag_306:\n        /* \"#utility.yul\":3989:3997   */\n      0x00\n        /* \"#utility.yul\":3999:4005   */\n      0x00\n        /* \"#utility.yul\":4049:4052   */\n      dup4\n        /* \"#utility.yul\":4042:4046   */\n      0x1f\n        /* \"#utility.yul\":4034:4040   */\n      dup5\n        /* \"#utility.yul\":4030:4047   */\n      add\n        /* \"#utility.yul\":4026:4053   */\n      slt\n        /* \"#utility.yul\":4016:4138   */\n      tag_420\n      jumpi\n        /* \"#utility.yul\":4057:4136   */\n      tag_421\n      tag_303\n      jump\t// in\n    tag_421:\n        /* \"#utility.yul\":4016:4138   */\n    tag_420:\n        /* \"#utility.yul\":4170:4176   */\n      dup3\n        /* \"#utility.yul\":4157:4177   */\n      calldataload\n        /* \"#utility.yul\":4147:4177   */\n      swap1\n      pop\n        /* \"#utility.yul\":4200:4218   */\n      0xffffffffffffffff\n        /* \"#utility.yul\":4192:4198   */\n      dup2\n        /* \"#utility.yul\":4189:4219   */\n      gt\n        /* \"#utility.yul\":4186:4303   */\n      iszero\n      tag_422\n      jumpi\n        /* \"#utility.yul\":4222:4301   */\n      tag_423\n      tag_304\n      jump\t// in\n    tag_423:\n        /* \"#utility.yul\":4186:4303   */\n    tag_422:\n        /* \"#utility.yul\":4336:4340   */\n      0x20\n        /* \"#utility.yul\":4328:4334   */\n      dup4\n        /* \"#utility.yul\":4324:4341   */\n      add\n        /* \"#utility.yul\":4312:4341   */\n      swap2\n      pop\n        /* \"#utility.yul\":4390:4393   */\n      dup4\n        /* \"#utility.yul\":4382:4386   */\n      0x01\n        /* \"#utility.yul\":4374:4380   */\n      dup3\n        /* \"#utility.yul\":4370:4387   */\n      mul\n        /* \"#utility.yul\":4360:4368   */\n      dup4\n        /* \"#utility.yul\":4356:4388   */\n      add\n        /* \"#utility.yul\":4353:4394   */\n      gt\n        /* \"#utility.yul\":4350:4478   */\n      iszero\n      tag_424\n      jumpi\n        /* \"#utility.yul\":4397:4476   */\n      tag_425\n      tag_305\n      jump\t// in\n    tag_425:\n        /* \"#utility.yul\":4350:4478   */\n    tag_424:\n        /* \"#utility.yul\":3931:4484   */\n      swap3\n      pop\n      swap3\n      swap1\n      pop\n      jump\t// out\n        /* \"#utility.yul\":4490:5309   */\n    tag_42:\n        /* \"#utility.yul\":4579:4585   */\n      0x00\n        /* \"#utility.yul\":4587:4593   */\n      0x00\n        /* \"#utility.yul\":4595:4601   */\n      0x00\n        /* \"#utility.yul\":4603:4609   */\n      0x00\n        /* \"#utility.yul\":4652:4654   */\n      0x60\n        /* \"#utility.yul\":4640:4649   */\n      dup6\n        /* \"#utility.yul\":4631:4638   */\n      dup8\n        /* \"#utility.yul\":4627:4650   */\n      sub\n        /* \"#utility.yul\":4623:4655   */\n      slt\n        /* \"#utility.yul\":4620:4739   */\n      iszero\n      tag_427\n      jumpi\n        /* \"#utility.yul\":4658:4737   */\n      tag_428\n      tag_288\n      jump\t// in\n    tag_428:\n        /* \"#utility.yul\":4620:4739   */\n    tag_427:\n        /* \"#utility.yul\":4778:4779   */\n      0x00\n        /* \"#utility.yul\":4803:4856   */\n      tag_429\n        /* \"#utility.yul\":4848:4855   */\n      dup8\n        /* \"#utility.yul\":4839:4845   */\n      dup3\n        /* \"#utility.yul\":4828:4837   */\n      dup9\n        /* \"#utility.yul\":4824:4846   */\n      add\n        /* \"#utility.yul\":4803:4856   */\n      tag_297\n      jump\t// in\n    tag_429:\n        /* \"#utility.yul\":4793:4856   */\n      swap5\n      pop\n        /* \"#utility.yul\":4749:4866   */\n      pop\n        /* \"#utility.yul\":4933:4935   */\n      0x20\n        /* \"#utility.yul\":4922:4931   */\n      dup6\n        /* \"#utility.yul\":4918:4936   */\n      add\n        /* \"#utility.yul\":4905:4937   */\n      calldataload\n        /* \"#utility.yul\":4964:4982   */\n      0xffffffffffffffff\n        /* \"#utility.yul\":4956:4962   */\n      dup2\n        /* \"#utility.yul\":4953:4983   */\n      gt\n        /* \"#utility.yul\":4950:5067   */\n      iszero\n      tag_430\n      jumpi\n        /* \"#utility.yul\":4986:5065   */\n      tag_431\n      tag_289\n      jump\t// in\n    tag_431:\n        /* \"#utility.yul\":4950:5067   */\n    tag_430:\n        /* \"#utility.yul\":5099:5164   */\n      tag_432\n        /* \"#utility.yul\":5156:5163   */\n      dup8\n        /* \"#utility.yul\":5147:5153   */\n      dup3\n        /* \"#utility.yul\":5136:5145   */\n      dup9\n        /* \"#utility.yul\":5132:5154   */\n      add\n        /* \"#utility.yul\":5099:5164   */\n      tag_306\n      jump\t// in\n    tag_432:\n        /* \"#utility.yul\":5081:5164   */\n      swap4\n      pop\n      swap4\n      pop\n        /* \"#utility.yul\":4876:5174   */\n      pop\n        /* \"#utility.yul\":5213:5215   */\n      0x40\n        /* \"#utility.yul\":5239:5292   */\n      tag_433\n        /* \"#utility.yul\":5284:5291   */\n      dup8\n        /* \"#utility.yul\":5275:5281   */\n      dup3\n        /* \"#utility.yul\":5264:5273   */\n      dup9\n        /* \"#utility.yul\":5260:5282   */\n      add\n        /* \"#utility.yul\":5239:5292   */\n      tag_297\n      jump\t// in\n    tag_433:\n        /* \"#utility.yul\":5229:5292   */\n      swap2\n      pop\n        /* \"#utility.yul\":5184:5302   */\n      pop\n        /* \"#utility.yul\":4490:5309   */\n      swap3\n      swap6\n      swap2\n      swap5\n      pop\n      swap3\n      pop\n      jump\t// out\n        /* \"#utility.yul\":5315:5934   */\n    tag_46:\n        /* \"#utility.yul\":5392:5398   */\n      0x00\n        /* \"#utility.yul\":5400:5406   */\n      0x00\n        /* \"#utility.yul\":5408:5414   */\n      0x00\n        /* \"#utility.yul\":5457:5459   */\n      0x60\n        /* \"#utility.yul\":5445:5454   */\n      dup5\n        /* \"#utility.yul\":5436:5443   */\n      dup7\n        /* \"#utility.yul\":5432:5455   */\n      sub\n        /* \"#utility.yul\":5428:5460   */\n      slt\n        /* \"#utility.yul\":5425:5544   */\n      iszero\n      tag_435\n      jumpi\n        /* \"#utility.yul\":5463:5542   */\n      tag_436\n      tag_288\n      jump\t// in\n    tag_436:\n        /* \"#utility.yul\":5425:5544   */\n    tag_435:\n        /* \"#utility.yul\":5583:5584   */\n      0x00\n        /* \"#utility.yul\":5608:5661   */\n      tag_437\n        /* \"#utility.yul\":5653:5660   */\n      dup7\n        /* \"#utility.yul\":5644:5650   */\n      dup3\n        /* \"#utility.yul\":5633:5642   */\n      dup8\n        /* \"#utility.yul\":5629:5651   */\n      add\n        /* \"#utility.yul\":5608:5661   */\n      tag_302\n      jump\t// in\n    tag_437:\n        /* \"#utility.yul\":5598:5661   */\n      swap4\n      pop\n        /* \"#utility.yul\":5554:5671   */\n      pop\n        /* \"#utility.yul\":5710:5712   */\n      0x20\n        /* \"#utility.yul\":5736:5789   */\n      tag_438\n        /* \"#utility.yul\":5781:5788   */\n      dup7\n        /* \"#utility.yul\":5772:5778   */\n      dup3\n        /* \"#utility.yul\":5761:5770   */\n      dup8\n        /* \"#utility.yul\":5757:5779   */\n      add\n        /* \"#utility.yul\":5736:5789   */\n      tag_302\n      jump\t// in\n    tag_438:\n        /* \"#utility.yul\":5726:5789   */\n      swap3\n      pop\n        /* \"#utility.yul\":5681:5799   */\n      pop\n        /* \"#utility.yul\":5838:5840   */\n      0x40\n        /* \"#utility.yul\":5864:5917   */\n      tag_439\n        /* \"#utility.yul\":5909:5916   */\n      dup7\n        /* \"#utility.yul\":5900:5906   */\n      dup3\n        /* \"#utility.yul\":5889:5898   */\n      dup8\n        /* \"#utility.yul\":5885:5907   */\n      add\n        /* \"#utility.yul\":5864:5917   */\n      tag_297\n      jump\t// in\n    tag_439:\n        /* \"#utility.yul\":5854:5917   */\n      swap2\n      pop\n        /* \"#utility.yul\":5809:5927   */\n      pop\n        /* \"#utility.yul\":5315:5934   */\n      swap3\n      pop\n      swap3\n      pop\n      swap3\n      jump\t// out\n        /* \"#utility.yul\":5940:6055   */\n    tag_307:\n        /* \"#utility.yul\":6025:6048   */\n      tag_441\n        /* \"#utility.yul\":6042:6047   */\n      dup2\n        /* \"#utility.yul\":6025:6048   */\n      tag_290\n      jump\t// in\n    tag_441:\n        /* \"#utility.yul\":6020:6023   */\n      dup3\n        /* \"#utility.yul\":6013:6049   */\n      mstore\n        /* \"#utility.yul\":5940:6055   */\n      pop\n      pop\n      jump\t// out\n        /* \"#utility.yul\":6061:6385   */\n    tag_52:\n        /* \"#utility.yul\":6178:6182   */\n      0x00\n        /* \"#utility.yul\":6216:6218   */\n      0x40\n        /* \"#utility.yul\":6205:6214   */\n      dup3\n        /* \"#utility.yul\":6201:6219   */\n      add\n        /* \"#utility.yul\":6193:6219   */\n      swap1\n      pop\n        /* \"#utility.yul\":6229:6298   */\n      tag_443\n        /* \"#utility.yul\":6295:6296   */\n      0x00\n        /* \"#utility.yul\":6284:6293   */\n      dup4\n        /* \"#utility.yul\":6280:6297   */\n      add\n        /* \"#utility.yul\":6271:6277   */\n      dup6\n        /* \"#utility.yul\":6229:6298   */\n      tag_307\n      jump\t// in\n    tag_443:\n        /* \"#utility.yul\":6308:6378   */\n      tag_444\n        /* \"#utility.yul\":6374:6376   */\n      0x20\n        /* \"#utility.yul\":6363:6372   */\n      dup4\n        /* \"#utility.yul\":6359:6377   */\n      add\n        /* \"#utility.yul\":6350:6356   */\n      dup5\n        /* \"#utility.yul\":6308:6378   */\n      tag_307\n      jump\t// in\n    tag_444:\n        /* \"#utility.yul\":6061:6385   */\n      swap4\n      swap3\n      pop\n      pop\n      pop\n      jump\t// out\n        /* \"#utility.yul\":6391:6720   */\n    tag_67:\n        /* \"#utility.yul\":6450:6456   */\n      0x00\n        /* \"#utility.yul\":6499:6501   */\n      0x20\n        /* \"#utility.yul\":6487:6496   */\n      dup3\n        /* \"#utility.yul\":6478:6485   */\n      dup5\n        /* \"#utility.yul\":6474:6497   */\n      sub\n        /* \"#utility.yul\":6470:6502   */\n      slt\n        /* \"#utility.yul\":6467:6586   */\n      iszero\n      tag_446\n      jumpi\n        /* \"#utility.yul\":6505:6584   */\n      tag_447\n      tag_288\n      jump\t// in\n    tag_447:\n        /* \"#utility.yul\":6467:6586   */\n    tag_446:\n        /* \"#utility.yul\":6625:6626   */\n      0x00\n        /* \"#utility.yul\":6650:6703   */\n      tag_448\n        /* \"#utility.yul\":6695:6702   */\n      dup5\n        /* \"#utility.yul\":6686:6692   */\n      dup3\n        /* \"#utility.yul\":6675:6684   */\n      dup6\n        /* \"#utility.yul\":6671:6693   */\n      add\n        /* \"#utility.yul\":6650:6703   */\n      tag_302\n      jump\t// in\n    tag_448:\n        /* \"#utility.yul\":6640:6703   */\n      swap2\n      pop\n        /* \"#utility.yul\":6596:6713   */\n      pop\n        /* \"#utility.yul\":6391:6720   */\n      swap3\n      swap2\n      pop\n      pop\n      jump\t// out\n        /* \"#utility.yul\":6726:6844   */\n    tag_308:\n        /* \"#utility.yul\":6813:6837   */\n      tag_450\n        /* \"#utility.yul\":6831:6836   */\n      dup2\n        /* \"#utility.yul\":6813:6837   */\n      tag_295\n      jump\t// in\n    tag_450:\n        /* \"#utility.yul\":6808:6811   */\n      dup3\n        /* \"#utility.yul\":6801:6838   */\n      mstore\n        /* \"#utility.yul\":6726:6844   */\n      pop\n      pop\n      jump\t// out\n        /* \"#utility.yul\":6850:7072   */\n    tag_70:\n        /* \"#utility.yul\":6943:6947   */\n      0x00\n        /* \"#utility.yul\":6981:6983   */\n      0x20\n        /* \"#utility.yul\":6970:6979   */\n      dup3\n        /* \"#utility.yul\":6966:6984   */\n      add\n        /* \"#utility.yul\":6958:6984   */\n      swap1\n      pop\n        /* \"#utility.yul\":6994:7065   */\n      tag_452\n        /* \"#utility.yul\":7062:7063   */\n      0x00\n        /* \"#utility.yul\":7051:7060   */\n      dup4\n        /* \"#utility.yul\":7047:7064   */\n      add\n        /* \"#utility.yul\":7038:7044   */\n      dup5\n        /* \"#utility.yul\":6994:7065   */\n      tag_308\n      jump\t// in\n    tag_452:\n        /* \"#utility.yul\":6850:7072   */\n      swap3\n      swap2\n      pop\n      pop\n      jump\t// out\n        /* \"#utility.yul\":7078:7607   */\n    tag_73:\n        /* \"#utility.yul\":7149:7155   */\n      0x00\n        /* \"#utility.yul\":7157:7163   */\n      0x00\n        /* \"#utility.yul\":7206:7208   */\n      0x20\n        /* \"#utility.yul\":7194:7203   */\n      dup4\n        /* \"#utility.yul\":7185:7192   */\n      dup6\n        /* \"#utility.yul\":7181:7204   */\n      sub\n        /* \"#utility.yul\":7177:7209   */\n      slt\n        /* \"#utility.yul\":7174:7293   */\n      iszero\n      tag_454\n      jumpi\n        /* \"#utility.yul\":7212:7291   */\n      tag_455\n      tag_288\n      jump\t// in\n    tag_455:\n        /* \"#utility.yul\":7174:7293   */\n    tag_454:\n        /* \"#utility.yul\":7360:7361   */\n      0x00\n        /* \"#utility.yul\":7349:7358   */\n      dup4\n        /* \"#utility.yul\":7345:7362   */\n      add\n        /* \"#utility.yul\":7332:7363   */\n      calldataload\n        /* \"#utility.yul\":7390:7408   */\n      0xffffffffffffffff\n        /* \"#utility.yul\":7382:7388   */\n      dup2\n        /* \"#utility.yul\":7379:7409   */\n      gt\n        /* \"#utility.yul\":7376:7493   */\n      iszero\n      tag_456\n      jumpi\n        /* \"#utility.yul\":7412:7491   */\n      tag_457\n      tag_289\n      jump\t// in\n    tag_457:\n        /* \"#utility.yul\":7376:7493   */\n    tag_456:\n        /* \"#utility.yul\":7525:7590   */\n      tag_458\n        /* \"#utility.yul\":7582:7589   */\n      dup6\n        /* \"#utility.yul\":7573:7579   */\n      dup3\n        /* \"#utility.yul\":7562:7571   */\n      dup7\n        /* \"#utility.yul\":7558:7580   */\n      add\n        /* \"#utility.yul\":7525:7590   */\n      tag_306\n      jump\t// in\n    tag_458:\n        /* \"#utility.yul\":7507:7590   */\n      swap3\n      pop\n      swap3\n      pop\n        /* \"#utility.yul\":7303:7600   */\n      pop\n        /* \"#utility.yul\":7078:7607   */\n      swap3\n      pop\n      swap3\n      swap1\n      pop\n      jump\t// out\n        /* \"#utility.yul\":7613:7699   */\n    tag_309:\n        /* \"#utility.yul\":7648:7655   */\n      0x00\n        /* \"#utility.yul\":7688:7692   */\n      0xff\n        /* \"#utility.yul\":7681:7686   */\n      dup3\n        /* \"#utility.yul\":7677:7693   */\n      and\n        /* \"#utility.yul\":7666:7693   */\n      swap1\n      pop\n        /* \"#utility.yul\":7613:7699   */\n      swap2\n      swap1\n      pop\n      jump\t// out\n        /* \"#utility.yul\":7705:7823   */\n    tag_310:\n        /* \"#utility.yul\":7776:7798   */\n      tag_461\n        /* \"#utility.yul\":7792:7797   */\n      dup2\n        /* \"#utility.yul\":7776:7798   */\n      tag_309\n      jump\t// in\n    tag_461:\n        /* \"#utility.yul\":7769:7774   */\n      dup2\n        /* \"#utility.yul\":7766:7799   */\n      eq\n        /* \"#utility.yul\":7756:7817   */\n      tag_462\n      jumpi\n        /* \"#utility.yul\":7813:7814   */\n      0x00\n        /* \"#utility.yul\":7810:7811   */\n      0x00\n        /* \"#utility.yul\":7803:7815   */\n      revert\n        /* \"#utility.yul\":7756:7817   */\n    tag_462:\n        /* \"#utility.yul\":7705:7823   */\n      pop\n      jump\t// out\n        /* \"#utility.yul\":7829:7964   */\n    tag_311:\n        /* \"#utility.yul\":7873:7878   */\n      0x00\n        /* \"#utility.yul\":7911:7917   */\n      dup2\n        /* \"#utility.yul\":7898:7918   */\n      calldataload\n        /* \"#utility.yul\":7889:7918   */\n      swap1\n      pop\n        /* \"#utility.yul\":7927:7958   */\n      tag_464\n        /* \"#utility.yul\":7952:7957   */\n      dup2\n        /* \"#utility.yul\":7927:7958   */\n      tag_310\n      jump\t// in\n    tag_464:\n        /* \"#utility.yul\":7829:7964   */\n      swap3\n      swap2\n      pop\n      pop\n      jump\t// out\n        /* \"#utility.yul\":7970:8440   */\n    tag_85:\n        /* \"#utility.yul\":8036:8042   */\n      0x00\n        /* \"#utility.yul\":8044:8050   */\n      0x00\n        /* \"#utility.yul\":8093:8095   */\n      0x40\n        /* \"#utility.yul\":8081:8090   */\n      dup4\n        /* \"#utility.yul\":8072:8079   */\n      dup6\n        /* \"#utility.yul\":8068:8091   */\n      sub\n        /* \"#utility.yul\":8064:8096   */\n      slt\n        /* \"#utility.yul\":8061:8180   */\n      iszero\n      tag_466\n      jumpi\n        /* \"#utility.yul\":8099:8178   */\n      tag_467\n      tag_288\n      jump\t// in\n    tag_467:\n        /* \"#utility.yul\":8061:8180   */\n    tag_466:\n        /* \"#utility.yul\":8219:8220   */\n      0x00\n        /* \"#utility.yul\":8244:8297   */\n      tag_468\n        /* \"#utility.yul\":8289:8296   */\n      dup6\n        /* \"#utility.yul\":8280:8286   */\n      dup3\n        /* \"#utility.yul\":8269:8278   */\n      dup7\n        /* \"#utility.yul\":8265:8287   */\n      add\n        /* \"#utility.yul\":8244:8297   */\n      tag_297\n      jump\t// in\n    tag_468:\n        /* \"#utility.yul\":8234:8297   */\n      swap3\n      pop\n        /* \"#utility.yul\":8190:8307   */\n      pop\n        /* \"#utility.yul\":8346:8348   */\n      0x20\n        /* \"#utility.yul\":8372:8423   */\n      tag_469\n        /* \"#utility.yul\":8415:8422   */\n      dup6\n        /* \"#utility.yul\":8406:8412   */\n      dup3\n        /* \"#utility.yul\":8395:8404   */\n      dup7\n        /* \"#utility.yul\":8391:8413   */\n      add\n        /* \"#utility.yul\":8372:8423   */\n      tag_311\n      jump\t// in\n    tag_469:\n        /* \"#utility.yul\":8362:8423   */\n      swap2\n      pop\n        /* \"#utility.yul\":8317:8433   */\n      pop\n        /* \"#utility.yul\":7970:8440   */\n      swap3\n      pop\n      swap3\n      swap1\n      pop\n      jump\t// out\n        /* \"#utility.yul\":8446:8626   */\n    tag_312:\n        /* \"#utility.yul\":8494:8571   */\n      0x4e487b7100000000000000000000000000000000000000000000000000000000\n        /* \"#utility.yul\":8491:8492   */\n      0x00\n        /* \"#utility.yul\":8484:8572   */\n      mstore\n        /* \"#utility.yul\":8591:8595   */\n      0x22\n        /* \"#utility.yul\":8588:8589   */\n      0x04\n        /* \"#utility.yul\":8581:8596   */\n      mstore\n        /* \"#utility.yul\":8615:8619   */\n      0x24\n        /* \"#utility.yul\":8612:8613   */\n      0x00\n        /* \"#utility.yul\":8605:8620   */\n      revert\n        /* \"#utility.yul\":8632:8952   */\n    tag_92:\n        /* \"#utility.yul\":8676:8682   */\n      0x00\n        /* \"#utility.yul\":8713:8714   */\n      0x02\n        /* \"#utility.yul\":8707:8711   */\n      dup3\n        /* \"#utility.yul\":8703:8715   */\n      div\n        /* \"#utility.yul\":8693:8715   */\n      swap1\n      pop\n        /* \"#utility.yul\":8760:8761   */\n      0x01\n        /* \"#utility.yul\":8754:8758   */\n      dup3\n        /* \"#utility.yul\":8750:8762   */\n      and\n        /* \"#utility.yul\":8781:8799   */\n      dup1\n        /* \"#utility.yul\":8771:8852   */\n      tag_472\n      jumpi\n        /* \"#utility.yul\":8837:8841   */\n      0x7f\n        /* \"#utility.yul\":8829:8835   */\n      dup3\n        /* \"#utility.yul\":8825:8842   */\n      and\n        /* \"#utility.yul\":8815:8842   */\n      swap2\n      pop\n        /* \"#utility.yul\":8771:8852   */\n    tag_472:\n        /* \"#utility.yul\":8899:8901   */\n      0x20\n        /* \"#utility.yul\":8891:8897   */\n      dup3\n        /* \"#utility.yul\":8888:8902   */\n      lt\n        /* \"#utility.yul\":8868:8886   */\n      dup2\n        /* \"#utility.yul\":8865:8903   */\n      sub\n        /* \"#utility.yul\":8862:8946   */\n      tag_473\n      jumpi\n        /* \"#utility.yul\":8918:8936   */\n      tag_474\n      tag_312\n      jump\t// in\n    tag_474:\n        /* \"#utility.yul\":8862:8946   */\n    tag_473:\n        /* \"#utility.yul\":8683:8952   */\n      pop\n        /* \"#utility.yul\":8632:8952   */\n      swap2\n      swap1\n      pop\n      jump\t// out\n        /* \"#utility.yul\":8958:9127   */\n    tag_313:\n        /* \"#utility.yul\":9042:9053   */\n      0x00\n        /* \"#utility.yul\":9076:9082   */\n      dup3\n        /* \"#utility.yul\":9071:9074   */\n      dup3\n        /* \"#utility.yul\":9064:9083   */\n      mstore\n        /* \"#utility.yul\":9116:9120   */\n      0x20\n        /* \"#utility.yul\":9111:9114   */\n      dup3\n        /* \"#utility.yul\":9107:9121   */\n      add\n        /* \"#utility.yul\":9092:9121   */\n      swap1\n      pop\n        /* \"#utility.yul\":8958:9127   */\n      swap3\n      swap2\n      pop\n      pop\n      jump\t// out\n        /* \"#utility.yul\":9133:9296   */\n    tag_314:\n        /* \"#utility.yul\":9273:9288   */\n      0x496e76616c696420746f6b656e00000000000000000000000000000000000000\n        /* \"#utility.yul\":9269:9270   */\n      0x00\n        /* \"#utility.yul\":9261:9267   */\n      dup3\n        /* \"#utility.yul\":9257:9271   */\n      add\n        /* \"#utility.yul\":9250:9289   */\n      mstore\n        /* \"#utility.yul\":9133:9296   */\n      pop\n      jump\t// out\n        /* \"#utility.yul\":9302:9668   */\n    tag_315:\n        /* \"#utility.yul\":9444:9447   */\n      0x00\n        /* \"#utility.yul\":9465:9532   */\n      tag_478\n        /* \"#utility.yul\":9529:9531   */\n      0x0d\n        /* \"#utility.yul\":9524:9527   */\n      dup4\n        /* \"#utility.yul\":9465:9532   */\n      tag_313\n      jump\t// in\n    tag_478:\n        /* \"#utility.yul\":9458:9532   */\n      swap2\n      pop\n        /* \"#utility.yul\":9541:9634   */\n      tag_479\n        /* \"#utility.yul\":9630:9633   */\n      dup3\n        /* \"#utility.yul\":9541:9634   */\n      tag_314\n      jump\t// in\n    tag_479:\n        /* \"#utility.yul\":9659:9661   */\n      0x20\n        /* \"#utility.yul\":9654:9657   */\n      dup3\n        /* \"#utility.yul\":9650:9662   */\n      add\n        /* \"#utility.yul\":9643:9662   */\n      swap1\n      pop\n        /* \"#utility.yul\":9302:9668   */\n      swap2\n      swap1\n      pop\n      jump\t// out\n        /* \"#utility.yul\":9674:10093   */\n    tag_95:\n        /* \"#utility.yul\":9840:9844   */\n      0x00\n        /* \"#utility.yul\":9878:9880   */\n      0x20\n        /* \"#utility.yul\":9867:9876   */\n      dup3\n        /* \"#utility.yul\":9863:9881   */\n      add\n        /* \"#utility.yul\":9855:9881   */\n      swap1\n      pop\n        /* \"#utility.yul\":9927:9936   */\n      dup2\n        /* \"#utility.yul\":9921:9925   */\n      dup2\n        /* \"#utility.yul\":9917:9937   */\n      sub\n        /* \"#utility.yul\":9913:9914   */\n      0x00\n        /* \"#utility.yul\":9902:9911   */\n      dup4\n        /* \"#utility.yul\":9898:9915   */\n      add\n        /* \"#utility.yul\":9891:9938   */\n      mstore\n        /* \"#utility.yul\":9955:10086   */\n      tag_481\n        /* \"#utility.yul\":10081:10085   */\n      dup2\n        /* \"#utility.yul\":9955:10086   */\n      tag_315\n      jump\t// in\n    tag_481:\n        /* \"#utility.yul\":9947:10086   */\n      swap1\n      pop\n        /* \"#utility.yul\":9674:10093   */\n      swap2\n      swap1\n      pop\n      jump\t// out\n        /* \"#utility.yul\":10099:10268   */\n    tag_316:\n        /* \"#utility.yul\":10239:10260   */\n      0x556e617574686f72697a65642061636365737300000000000000000000000000\n        /* \"#utility.yul\":10235:10236   */\n      0x00\n        /* \"#utility.yul\":10227:10233   */\n      dup3\n        /* \"#utility.yul\":10223:10237   */\n      add\n        /* \"#utility.yul\":10216:10261   */\n      mstore\n        /* \"#utility.yul\":10099:10268   */\n      pop\n      jump\t// out\n        /* \"#utility.yul\":10274:10640   */\n    tag_317:\n        /* \"#utility.yul\":10416:10419   */\n      0x00\n        /* \"#utility.yul\":10437:10504   */\n      tag_484\n        /* \"#utility.yul\":10501:10503   */\n      0x13\n        /* \"#utility.yul\":10496:10499   */\n      dup4\n        /* \"#utility.yul\":10437:10504   */\n      tag_313\n      jump\t// in\n    tag_484:\n        /* \"#utility.yul\":10430:10504   */\n      swap2\n      pop\n        /* \"#utility.yul\":10513:10606   */\n      tag_485\n        /* \"#utility.yul\":10602:10605   */\n      dup3\n        /* \"#utility.yul\":10513:10606   */\n      tag_316\n      jump\t// in\n    tag_485:\n        /* \"#utility.yul\":10631:10633   */\n      0x20\n        /* \"#utility.yul\":10626:10629   */\n      dup3\n        /* \"#utility.yul\":10622:10634   */\n      add\n        /* \"#utility.yul\":10615:10634   */\n      swap1\n      pop\n        /* \"#utility.yul\":10274:10640   */\n      swap2\n      swap1\n      pop\n      jump\t// out\n        /* \"#utility.yul\":10646:11065   */\n    tag_99:\n        /* \"#utility.yul\":10812:10816   */\n      0x00\n        /* \"#utility.yul\":10850:10852   */\n      0x20\n        /* \"#utility.yul\":10839:10848   */\n      dup3\n        /* \"#utility.yul\":10835:10853   */\n      add\n        /* \"#utility.yul\":10827:10853   */\n      swap1\n      pop\n        /* \"#utility.yul\":10899:10908   */\n      dup2\n        /* \"#utility.yul\":10893:10897   */\n      dup2\n        /* \"#utility.yul\":10889:10909   */\n      sub\n        /* \"#utility.yul\":10885:10886   */\n      0x00\n        /* \"#utility.yul\":10874:10883   */\n      dup4\n        /* \"#utility.yul\":10870:10887   */\n      add\n        /* \"#utility.yul\":10863:10910   */\n      mstore\n        /* \"#utility.yul\":10927:11058   */\n      tag_487\n        /* \"#utility.yul\":11053:11057   */\n      dup2\n        /* \"#utility.yul\":10927:11058   */\n      tag_317\n      jump\t// in\n    tag_487:\n        /* \"#utility.yul\":10919:11058   */\n      swap1\n      pop\n        /* \"#utility.yul\":10646:11065   */\n      swap2\n      swap1\n      pop\n      jump\t// out\n        /* \"#utility.yul\":11071:11239   */\n    tag_318:\n        /* \"#utility.yul\":11211:11231   */\n      0x4e6f7468696e6720746f20617070726f76650000000000000000000000000000\n        /* \"#utility.yul\":11207:11208   */\n      0x00\n        /* \"#utility.yul\":11199:11205   */\n      dup3\n        /* \"#utility.yul\":11195:11209   */\n      add\n        /* \"#utility.yul\":11188:11232   */\n      mstore\n        /* \"#utility.yul\":11071:11239   */\n      pop\n      jump\t// out\n        /* \"#utility.yul\":11245:11611   */\n    tag_319:\n        /* \"#utility.yul\":11387:11390   */\n      0x00\n        /* \"#utility.yul\":11408:11475   */\n      tag_490\n        /* \"#utility.yul\":11472:11474   */\n      0x12\n        /* \"#utility.yul\":11467:11470   */\n      dup4\n        /* \"#utility.yul\":11408:11475   */\n      tag_313\n      jump\t// in\n    tag_490:\n        /* \"#utility.yul\":11401:11475   */\n      swap2\n      pop\n        /* \"#utility.yul\":11484:11577   */\n      tag_491\n        /* \"#utility.yul\":11573:11576   */\n      dup3\n        /* \"#utility.yul\":11484:11577   */\n      tag_318\n      jump\t// in\n    tag_491:\n        /* \"#utility.yul\":11602:11604   */\n      0x20\n        /* \"#utility.yul\":11597:11600   */\n      dup3\n        /* \"#utility.yul\":11593:11605   */\n      add\n        /* \"#utility.yul\":11586:11605   */\n      swap1\n      pop\n        /* \"#utility.yul\":11245:11611   */\n      swap2\n      swap1\n      pop\n      jump\t// out\n        /* \"#utility.yul\":11617:12036   */\n    tag_103:\n        /* \"#utility.yul\":11783:11787   */\n      0x00\n        /* \"#utility.yul\":11821:11823   */\n      0x20\n        /* \"#utility.yul\":11810:11819   */\n      dup3\n        /* \"#utility.yul\":11806:11824   */\n      add\n        /* \"#utility.yul\":11798:11824   */\n      swap1\n      pop\n        /* \"#utility.yul\":11870:11879   */\n      dup2\n        /* \"#utility.yul\":11864:11868   */\n      dup2\n        /* \"#utility.yul\":11860:11880   */\n      sub\n        /* \"#utility.yul\":11856:11857   */\n      0x00\n        /* \"#utility.yul\":11845:11854   */\n      dup4\n        /* \"#utility.yul\":11841:11858   */\n      add\n        /* \"#utility.yul\":11834:11881   */\n      mstore\n        /* \"#utility.yul\":11898:12029   */\n      tag_493\n        /* \"#utility.yul\":12024:12028   */\n      dup2\n        /* \"#utility.yul\":11898:12029   */\n      tag_319\n      jump\t// in\n    tag_493:\n        /* \"#utility.yul\":11890:12029   */\n      swap1\n      pop\n        /* \"#utility.yul\":11617:12036   */\n      swap2\n      swap1\n      pop\n      jump\t// out\n        /* \"#utility.yul\":12042:12208   */\n    tag_320:\n        /* \"#utility.yul\":12182:12200   */\n      0x4e6f7420656e6f7567682066756e647300000000000000000000000000000000\n        /* \"#utility.yul\":12178:12179   */\n      0x00\n        /* \"#utility.yul\":12170:12176   */\n      dup3\n        /* \"#utility.yul\":12166:12180   */\n      add\n        /* \"#utility.yul\":12159:12201   */\n      mstore\n        /* \"#utility.yul\":12042:12208   */\n      pop\n      jump\t// out\n        /* \"#utility.yul\":12214:12580   */\n    tag_321:\n        /* \"#utility.yul\":12356:12359   */\n      0x00\n        /* \"#utility.yul\":12377:12444   */\n      tag_496\n        /* \"#utility.yul\":12441:12443   */\n      0x10\n        /* \"#utility.yul\":12436:12439   */\n      dup4\n        /* \"#utility.yul\":12377:12444   */\n      tag_313\n      jump\t// in\n    tag_496:\n        /* \"#utility.yul\":12370:12444   */\n      swap2\n      pop\n        /* \"#utility.yul\":12453:12546   */\n      tag_497\n        /* \"#utility.yul\":12542:12545   */\n      dup3\n        /* \"#utility.yul\":12453:12546   */\n      tag_320\n      jump\t// in\n    tag_497:\n        /* \"#utility.yul\":12571:12573   */\n      0x20\n        /* \"#utility.yul\":12566:12569   */\n      dup3\n        /* \"#utility.yul\":12562:12574   */\n      add\n        /* \"#utility.yul\":12555:12574   */\n      swap1\n      pop\n        /* \"#utility.yul\":12214:12580   */\n      swap2\n      swap1\n      pop\n      jump\t// out\n        /* \"#utility.yul\":12586:13005   */\n    tag_108:\n        /* \"#utility.yul\":12752:12756   */\n      0x00\n        /* \"#utility.yul\":12790:12792   */\n      0x20\n        /* \"#utility.yul\":12779:12788   */\n      dup3\n        /* \"#utility.yul\":12775:12793   */\n      add\n        /* \"#utility.yul\":12767:12793   */\n      swap1\n      pop\n        /* \"#utility.yul\":12839:12848   */\n      dup2\n        /* \"#utility.yul\":12833:12837   */\n      dup2\n        /* \"#utility.yul\":12829:12849   */\n      sub\n        /* \"#utility.yul\":12825:12826   */\n      0x00\n        /* \"#utility.yul\":12814:12823   */\n      dup4\n        /* \"#utility.yul\":12810:12827   */\n      add\n        /* \"#utility.yul\":12803:12850   */\n      mstore\n        /* \"#utility.yul\":12867:12998   */\n      tag_499\n        /* \"#utility.yul\":12993:12997   */\n      dup2\n        /* \"#utility.yul\":12867:12998   */\n      tag_321\n      jump\t// in\n    tag_499:\n        /* \"#utility.yul\":12859:12998   */\n      swap1\n      pop\n        /* \"#utility.yul\":12586:13005   */\n      swap2\n      swap1\n      pop\n      jump\t// out\n        /* \"#utility.yul\":13011:13191   */\n    tag_322:\n        /* \"#utility.yul\":13059:13136   */\n      0x4e487b7100000000000000000000000000000000000000000000000000000000\n        /* \"#utility.yul\":13056:13057   */\n      0x00\n        /* \"#utility.yul\":13049:13137   */\n      mstore\n        /* \"#utility.yul\":13156:13160   */\n      0x11\n        /* \"#utility.yul\":13153:13154   */\n      0x04\n        /* \"#utility.yul\":13146:13161   */\n      mstore\n        /* \"#utility.yul\":13180:13184   */\n      0x24\n        /* \"#utility.yul\":13177:13178   */\n      0x00\n        /* \"#utility.yul\":13170:13185   */\n      revert\n        /* \"#utility.yul\":13197:13299   */\n    tag_323:\n        /* \"#utility.yul\":13239:13247   */\n      0x00\n        /* \"#utility.yul\":13286:13291   */\n      dup2\n        /* \"#utility.yul\":13283:13284   */\n      0x01\n        /* \"#utility.yul\":13279:13292   */\n      shr\n        /* \"#utility.yul\":13258:13292   */\n      swap1\n      pop\n        /* \"#utility.yul\":13197:13299   */\n      swap2\n      swap1\n      pop\n      jump\t// out\n        /* \"#utility.yul\":13305:14153   */\n    tag_324:\n        /* \"#utility.yul\":13366:13371   */\n      0x00\n        /* \"#utility.yul\":13373:13377   */\n      0x00\n        /* \"#utility.yul\":13397:13403   */\n      dup3\n        /* \"#utility.yul\":13388:13403   */\n      swap2\n      pop\n        /* \"#utility.yul\":13421:13426   */\n      dup4\n        /* \"#utility.yul\":13412:13426   */\n      swap1\n      pop\n        /* \"#utility.yul\":13435:14147   */\n    tag_503:\n        /* \"#utility.yul\":13456:13457   */\n      0x01\n        /* \"#utility.yul\":13446:13454   */\n      dup6\n        /* \"#utility.yul\":13443:13458   */\n      gt\n        /* \"#utility.yul\":13435:14147   */\n      iszero\n      tag_505\n      jumpi\n        /* \"#utility.yul\":13551:13555   */\n      dup1\n        /* \"#utility.yul\":13546:13549   */\n      dup7\n        /* \"#utility.yul\":13542:13556   */\n      div\n        /* \"#utility.yul\":13536:13540   */\n      dup2\n        /* \"#utility.yul\":13533:13557   */\n      gt\n        /* \"#utility.yul\":13530:13580   */\n      iszero\n      tag_506\n      jumpi\n        /* \"#utility.yul\":13560:13578   */\n      tag_507\n      tag_322\n      jump\t// in\n    tag_507:\n        /* \"#utility.yul\":13530:13580   */\n    tag_506:\n        /* \"#utility.yul\":13610:13611   */\n      0x01\n        /* \"#utility.yul\":13600:13608   */\n      dup6\n        /* \"#utility.yul\":13596:13612   */\n      and\n        /* \"#utility.yul\":13593:14044   */\n      iszero\n      tag_508\n      jumpi\n        /* \"#utility.yul\":14025:14029   */\n      dup1\n        /* \"#utility.yul\":14018:14023   */\n      dup3\n        /* \"#utility.yul\":14014:14030   */\n      mul\n        /* \"#utility.yul\":14005:14030   */\n      swap2\n      pop\n        /* \"#utility.yul\":13593:14044   */\n    tag_508:\n        /* \"#utility.yul\":14075:14079   */\n      dup1\n        /* \"#utility.yul\":14069:14073   */\n      dup2\n        /* \"#utility.yul\":14065:14080   */\n      mul\n        /* \"#utility.yul\":14057:14080   */\n      swap1\n      pop\n        /* \"#utility.yul\":14105:14137   */\n      tag_509\n        /* \"#utility.yul\":14128:14136   */\n      dup6\n        /* \"#utility.yul\":14105:14137   */\n      tag_323\n      jump\t// in\n    tag_509:\n        /* \"#utility.yul\":14093:14137   */\n      swap5\n      pop\n        /* \"#utility.yul\":13435:14147   */\n      jump(tag_503)\n    tag_505:\n        /* \"#utility.yul\":13305:14153   */\n      swap5\n      pop\n      swap5\n      swap3\n      pop\n      pop\n      pop\n      jump\t// out\n        /* \"#utility.yul\":14159:15232   */\n    tag_325:\n        /* \"#utility.yul\":14213:14218   */\n      0x00\n        /* \"#utility.yul\":14404:14412   */\n      dup3\n        /* \"#utility.yul\":14394:14434   */\n      tag_511\n      jumpi\n        /* \"#utility.yul\":14425:14426   */\n      0x01\n        /* \"#utility.yul\":14416:14426   */\n      swap1\n      pop\n        /* \"#utility.yul\":14427:14432   */\n      jump(tag_510)\n        /* \"#utility.yul\":14394:14434   */\n    tag_511:\n        /* \"#utility.yul\":14453:14457   */\n      dup2\n        /* \"#utility.yul\":14443:14479   */\n      tag_512\n      jumpi\n        /* \"#utility.yul\":14470:14471   */\n      0x00\n        /* \"#utility.yul\":14461:14471   */\n      swap1\n      pop\n        /* \"#utility.yul\":14472:14477   */\n      jump(tag_510)\n        /* \"#utility.yul\":14443:14479   */\n    tag_512:\n        /* \"#utility.yul\":14539:14543   */\n      dup2\n        /* \"#utility.yul\":14587:14588   */\n      0x01\n        /* \"#utility.yul\":14582:14609   */\n      dup2\n      eq\n      tag_514\n      jumpi\n        /* \"#utility.yul\":14623:14624   */\n      0x02\n        /* \"#utility.yul\":14618:14809   */\n      dup2\n      eq\n      tag_515\n      jumpi\n        /* \"#utility.yul\":14532:14809   */\n      jump(tag_513)\n        /* \"#utility.yul\":14582:14609   */\n    tag_514:\n        /* \"#utility.yul\":14600:14601   */\n      0x01\n        /* \"#utility.yul\":14591:14601   */\n      swap2\n      pop\n        /* \"#utility.yul\":14602:14607   */\n      pop\n      jump(tag_510)\n        /* \"#utility.yul\":14618:14809   */\n    tag_515:\n        /* \"#utility.yul\":14663:14666   */\n      0xff\n        /* \"#utility.yul\":14653:14661   */\n      dup5\n        /* \"#utility.yul\":14650:14667   */\n      gt\n        /* \"#utility.yul\":14647:14690   */\n      iszero\n      tag_516\n      jumpi\n        /* \"#utility.yul\":14670:14688   */\n      tag_517\n      tag_322\n      jump\t// in\n    tag_517:\n        /* \"#utility.yul\":14647:14690   */\n    tag_516:\n        /* \"#utility.yul\":14719:14727   */\n      dup4\n        /* \"#utility.yul\":14716:14717   */\n      0x02\n        /* \"#utility.yul\":14712:14728   */\n      exp\n        /* \"#utility.yul\":14703:14728   */\n      swap2\n      pop\n        /* \"#utility.yul\":14754:14757   */\n      dup5\n        /* \"#utility.yul\":14747:14752   */\n      dup3\n        /* \"#utility.yul\":14744:14758   */\n      gt\n        /* \"#utility.yul\":14741:14781   */\n      iszero\n      tag_518\n      jumpi\n        /* \"#utility.yul\":14761:14779   */\n      tag_519\n      tag_322\n      jump\t// in\n    tag_519:\n        /* \"#utility.yul\":14741:14781   */\n    tag_518:\n        /* \"#utility.yul\":14794:14799   */\n      pop\n      jump(tag_510)\n        /* \"#utility.yul\":14532:14809   */\n    tag_513:\n      pop\n        /* \"#utility.yul\":14918:14920   */\n      0x20\n        /* \"#utility.yul\":14908:14916   */\n      dup4\n        /* \"#utility.yul\":14905:14921   */\n      lt\n        /* \"#utility.yul\":14899:14902   */\n      0x0133\n        /* \"#utility.yul\":14893:14897   */\n      dup4\n        /* \"#utility.yul\":14890:14903   */\n      lt\n        /* \"#utility.yul\":14886:14922   */\n      and\n        /* \"#utility.yul\":14868:14870   */\n      0x4e\n        /* \"#utility.yul\":14858:14866   */\n      dup5\n        /* \"#utility.yul\":14855:14871   */\n      lt\n        /* \"#utility.yul\":14850:14852   */\n      0x0b\n        /* \"#utility.yul\":14844:14848   */\n      dup5\n        /* \"#utility.yul\":14841:14853   */\n      lt\n        /* \"#utility.yul\":14837:14872   */\n      and\n        /* \"#utility.yul\":14821:14932   */\n      or\n        /* \"#utility.yul\":14818:15064   */\n      iszero\n      tag_520\n      jumpi\n        /* \"#utility.yul\":14974:14982   */\n      dup3\n        /* \"#utility.yul\":14968:14972   */\n      dup3\n        /* \"#utility.yul\":14964:14983   */\n      exp\n        /* \"#utility.yul\":14955:14983   */\n      swap1\n      pop\n        /* \"#utility.yul\":15009:15012   */\n      dup4\n        /* \"#utility.yul\":15002:15007   */\n      dup2\n        /* \"#utility.yul\":14999:15013   */\n      gt\n        /* \"#utility.yul\":14996:15036   */\n      iszero\n      tag_521\n      jumpi\n        /* \"#utility.yul\":15016:15034   */\n      tag_522\n      tag_322\n      jump\t// in\n    tag_522:\n        /* \"#utility.yul\":14996:15036   */\n    tag_521:\n        /* \"#utility.yul\":15049:15054   */\n      jump(tag_510)\n        /* \"#utility.yul\":14818:15064   */\n    tag_520:\n        /* \"#utility.yul\":15089:15131   */\n      tag_523\n        /* \"#utility.yul\":15127:15130   */\n      dup5\n        /* \"#utility.yul\":15117:15125   */\n      dup5\n        /* \"#utility.yul\":15111:15115   */\n      dup5\n        /* \"#utility.yul\":15108:15109   */\n      0x01\n        /* \"#utility.yul\":15089:15131   */\n      tag_324\n      jump\t// in\n    tag_523:\n        /* \"#utility.yul\":15074:15131   */\n      swap3\n      pop\n      swap1\n      pop\n        /* \"#utility.yul\":15163:15167   */\n      dup2\n        /* \"#utility.yul\":15158:15161   */\n      dup5\n        /* \"#utility.yul\":15154:15168   */\n      div\n        /* \"#utility.yul\":15147:15152   */\n      dup2\n        /* \"#utility.yul\":15144:15169   */\n      gt\n        /* \"#utility.yul\":15141:15192   */\n      iszero\n      tag_524\n      jumpi\n        /* \"#utility.yul\":15172:15190   */\n      tag_525\n      tag_322\n      jump\t// in\n    tag_525:\n        /* \"#utility.yul\":15141:15192   */\n    tag_524:\n        /* \"#utility.yul\":15221:15225   */\n      dup2\n        /* \"#utility.yul\":15214:15219   */\n      dup2\n        /* \"#utility.yul\":15210:15226   */\n      mul\n        /* \"#utility.yul\":15201:15226   */\n      swap1\n      pop\n        /* \"#utility.yul\":14159:15232   */\n    tag_510:\n      swap4\n      swap3\n      pop\n      pop\n      pop\n      jump\t// out\n        /* \"#utility.yul\":15238:15523   */\n    tag_117:\n        /* \"#utility.yul\":15298:15303   */\n      0x00\n        /* \"#utility.yul\":15322:15345   */\n      tag_527\n        /* \"#utility.yul\":15340:15344   */\n      dup3\n        /* \"#utility.yul\":15322:15345   */\n      tag_295\n      jump\t// in\n    tag_527:\n        /* \"#utility.yul\":15314:15345   */\n      swap2\n      pop\n        /* \"#utility.yul\":15366:15393   */\n      tag_528\n        /* \"#utility.yul\":15384:15392   */\n      dup4\n        /* \"#utility.yul\":15366:15393   */\n      tag_295\n      jump\t// in\n    tag_528:\n        /* \"#utility.yul\":15354:15393   */\n      swap3\n      pop\n        /* \"#utility.yul\":15412:15516   */\n      tag_529\n        /* \"#utility.yul\":15449:15515   */\n      0xffffffffffffffffffffffffffffffffffffffffffffffffffffffffffffffff\n        /* \"#utility.yul\":15439:15447   */\n      dup5\n        /* \"#utility.yul\":15433:15437   */\n      dup5\n        /* \"#utility.yul\":15412:15516   */\n      tag_325\n      jump\t// in\n    tag_529:\n        /* \"#utility.yul\":15403:15516   */\n      swap1\n      pop\n        /* \"#utility.yul\":15238:15523   */\n      swap3\n      swap2\n      pop\n      pop\n      jump\t// out\n        /* \"#utility.yul\":15529:15939   */\n    tag_119:\n        /* \"#utility.yul\":15569:15576   */\n      0x00\n        /* \"#utility.yul\":15592:15612   */\n      tag_531\n        /* \"#utility.yul\":15610:15611   */\n      dup3\n        /* \"#utility.yul\":15592:15612   */\n      tag_295\n      jump\t// in\n    tag_531:\n        /* \"#utility.yul\":15587:15612   */\n      swap2\n      pop\n        /* \"#utility.yul\":15626:15646   */\n      tag_532\n        /* \"#utility.yul\":15644:15645   */\n      dup4\n        /* \"#utility.yul\":15626:15646   */\n      tag_295\n      jump\t// in\n    tag_532:\n        /* \"#utility.yul\":15621:15646   */\n      swap3\n      pop\n        /* \"#utility.yul\":15681:15682   */\n      dup3\n        /* \"#utility.yul\":15678:15679   */\n      dup3\n        /* \"#utility.yul\":15674:15683   */\n      mul\n        /* \"#utility.yul\":15703:15733   */\n      tag_533\n        /* \"#utility.yul\":15721:15732   */\n      dup2\n        /* \"#utility.yul\":15703:15733   */\n      tag_295\n      jump\t// in\n    tag_533:\n        /* \"#utility.yul\":15692:15733   */\n      swap2\n      pop\n        /* \"#utility.yul\":15882:15883   */\n      dup3\n        /* \"#utility.yul\":15873:15880   */\n      dup3\n        /* \"#utility.yul\":15869:15884   */\n      div\n        /* \"#utility.yul\":15866:15867   */\n      dup5\n        /* \"#utility.yul\":15863:15885   */\n      eq\n        /* \"#utility.yul\":15843:15844   */\n      dup4\n        /* \"#utility.yul\":15836:15845   */\n      iszero\n        /* \"#utility.yul\":15816:15899   */\n      or\n        /* \"#utility.yul\":15793:15932   */\n      tag_534\n      jumpi\n        /* \"#utility.yul\":15912:15930   */\n      tag_535\n      tag_322\n      jump\t// in\n    tag_535:\n        /* \"#utility.yul\":15793:15932   */\n    tag_534:\n        /* \"#utility.yul\":15577:15939   */\n      pop\n        /* \"#utility.yul\":15529:15939   */\n      swap3\n      swap2\n      pop\n      pop\n      jump\t// out\n        /* \"#utility.yul\":15945:16111   */\n    tag_326:\n        /* \"#utility.yul\":16085:16103   */\n      0x4e6f7420656e6f756768206d6f6e657900000000000000000000000000000000\n        /* \"#utility.yul\":16081:16082   */\n      0x00\n        /* \"#utility.yul\":16073:16079   */\n      dup3\n        /* \"#utility.yul\":16069:16083   */\n      add\n        /* \"#utility.yul\":16062:16104   */\n      mstore\n        /* \"#utility.yul\":15945:16111   */\n      pop\n      jump\t// out\n        /* \"#utility.yul\":16117:16483   */\n    tag_327:\n        /* \"#utility.yul\":16259:16262   */\n      0x00\n        /* \"#utility.yul\":16280:16347   */\n      tag_538\n        /* \"#utility.yul\":16344:16346   */\n      0x10\n        /* \"#utility.yul\":16339:16342   */\n      dup4\n        /* \"#utility.yul\":16280:16347   */\n      tag_313\n      jump\t// in\n    tag_538:\n        /* \"#utility.yul\":16273:16347   */\n      swap2\n      pop\n        /* \"#utility.yul\":16356:16449   */\n      tag_539\n        /* \"#utility.yul\":16445:16448   */\n      dup3\n        /* \"#utility.yul\":16356:16449   */\n      tag_326\n      jump\t// in\n    tag_539:\n        /* \"#utility.yul\":16474:16476   */\n      0x20\n        /* \"#utility.yul\":16469:16472   */\n      dup3\n        /* \"#utility.yul\":16465:16477   */\n      add\n        /* \"#utility.yul\":16458:16477   */\n      swap1\n      pop\n        /* \"#utility.yul\":16117:16483   */\n      swap2\n      swap1\n      pop\n      jump\t// out\n        /* \"#utility.yul\":16489:16908   */\n    tag_122:\n        /* \"#utility.yul\":16655:16659   */\n      0x00\n        /* \"#utility.yul\":16693:16695   */\n      0x20\n        /* \"#utility.yul\":16682:16691   */\n      dup3\n        /* \"#utility.yul\":16678:16696   */\n      add\n        /* \"#utility.yul\":16670:16696   */\n      swap1\n      pop\n        /* \"#utility.yul\":16742:16751   */\n      dup2\n        /* \"#utility.yul\":16736:16740   */\n      dup2\n        /* \"#utility.yul\":16732:16752   */\n      sub\n        /* \"#utility.yul\":16728:16729   */\n      0x00\n        /* \"#utility.yul\":16717:16726   */\n      dup4\n        /* \"#utility.yul\":16713:16730   */\n      add\n        /* \"#utility.yul\":16706:16753   */\n      mstore\n        /* \"#utility.yul\":16770:16901   */\n      tag_541\n        /* \"#utility.yul\":16896:16900   */\n      dup2\n        /* \"#utility.yul\":16770:16901   */\n      tag_327\n      jump\t// in\n    tag_541:\n        /* \"#utility.yul\":16762:16901   */\n      swap1\n      pop\n        /* \"#utility.yul\":16489:16908   */\n      swap2\n      swap1\n      pop\n      jump\t// out\n        /* \"#utility.yul\":16914:17078   */\n    tag_328:\n        /* \"#utility.yul\":17054:17070   */\n      0x416c726561647920657869737473000000000000000000000000000000000000\n        /* \"#utility.yul\":17050:17051   */\n      0x00\n        /* \"#utility.yul\":17042:17048   */\n      dup3\n        /* \"#utility.yul\":17038:17052   */\n      add\n        /* \"#utility.yul\":17031:17071   */\n      mstore\n        /* \"#utility.yul\":16914:17078   */\n      pop\n      jump\t// out\n        /* \"#utility.yul\":17084:17450   */\n    tag_329:\n        /* \"#utility.yul\":17226:17229   */\n      0x00\n        /* \"#utility.yul\":17247:17314   */\n      tag_544\n        /* \"#utility.yul\":17311:17313   */\n      0x0e\n        /* \"#utility.yul\":17306:17309   */\n      dup4\n        /* \"#utility.yul\":17247:17314   */\n      tag_313\n      jump\t// in\n    tag_544:\n        /* \"#utility.yul\":17240:17314   */\n      swap2\n      pop\n        /* \"#utility.yul\":17323:17416   */\n      tag_545\n        /* \"#utility.yul\":17412:17415   */\n      dup3\n        /* \"#utility.yul\":17323:17416   */\n      tag_328\n      jump\t// in\n    tag_545:\n        /* \"#utility.yul\":17441:17443   */\n      0x20\n        /* \"#utility.yul\":17436:17439   */\n      dup3\n        /* \"#utility.yul\":17432:17444   */\n      add\n        /* \"#utility.yul\":17425:17444   */\n      swap1\n      pop\n        /* \"#utility.yul\":17084:17450   */\n      swap2\n      swap1\n      pop\n      jump\t// out\n        /* \"#utility.yul\":17456:17875   */\n    tag_127:\n        /* \"#utility.yul\":17622:17626   */\n      0x00\n        /* \"#utility.yul\":17660:17662   */\n      0x20\n        /* \"#utility.yul\":17649:17658   */\n      dup3\n        /* \"#utility.yul\":17645:17663   */\n      add\n        /* \"#utility.yul\":17637:17663   */\n      swap1\n      pop\n        /* \"#utility.yul\":17709:17718   */\n      dup2\n        /* \"#utility.yul\":17703:17707   */\n      dup2\n        /* \"#utility.yul\":17699:17719   */\n      sub\n        /* \"#utility.yul\":17695:17696   */\n      0x00\n        /* \"#utility.yul\":17684:17693   */\n      dup4\n        /* \"#utility.yul\":17680:17697   */\n      add\n        /* \"#utility.yul\":17673:17720   */\n      mstore\n        /* \"#utility.yul\":17737:17868   */\n      tag_547\n        /* \"#utility.yul\":17863:17867   */\n      dup2\n        /* \"#utility.yul\":17737:17868   */\n      tag_329\n      jump\t// in\n    tag_547:\n        /* \"#utility.yul\":17729:17868   */\n      swap1\n      pop\n        /* \"#utility.yul\":17456:17875   */\n      swap2\n      swap1\n      pop\n      jump\t// out\n        /* \"#utility.yul\":17881:17978   */\n    tag_330:\n        /* \"#utility.yul\":17940:17946   */\n      0x00\n        /* \"#utility.yul\":17968:17971   */\n      dup3\n        /* \"#utility.yul\":17958:17971   */\n      swap1\n      pop\n        /* \"#utility.yul\":17881:17978   */\n      swap3\n      swap2\n      pop\n      pop\n      jump\t// out\n        /* \"#utility.yul\":17984:18164   */\n    tag_331:\n        /* \"#utility.yul\":18032:18109   */\n      0x4e487b7100000000000000000000000000000000000000000000000000000000\n        /* \"#utility.yul\":18029:18030   */\n      0x00\n        /* \"#utility.yul\":18022:18110   */\n      mstore\n        /* \"#utility.yul\":18129:18133   */\n      0x41\n        /* \"#utility.yul\":18126:18127   */\n      0x04\n        /* \"#utility.yul\":18119:18134   */\n      mstore\n        /* \"#utility.yul\":18153:18157   */\n      0x24\n        /* \"#utility.yul\":18150:18151   */\n      0x00\n        /* \"#utility.yul\":18143:18158   */\n      revert\n        /* \"#utility.yul\":18170:18311   */\n    tag_332:\n        /* \"#utility.yul\":18219:18223   */\n      0x00\n        /* \"#utility.yul\":18242:18245   */\n      dup2\n        /* \"#utility.yul\":18234:18245   */\n      swap1\n      pop\n        /* \"#utility.yul\":18265:18268   */\n      dup2\n        /* \"#utility.yul\":18262:18263   */\n      0x00\n        /* \"#utility.yul\":18255:18269   */\n      mstore\n        /* \"#utility.yul\":18299:18303   */\n      0x20\n        /* \"#utility.yul\":18296:18297   */\n      0x00\n        /* \"#utility.yul\":18286:18304   */\n      keccak256\n        /* \"#utility.yul\":18278:18304   */\n      swap1\n      pop\n        /* \"#utility.yul\":18170:18311   */\n      swap2\n      swap1\n      pop\n      jump\t// out\n        /* \"#utility.yul\":18317:18410   */\n    tag_333:\n        /* \"#utility.yul\":18354:18360   */\n      0x00\n        /* \"#utility.yul\":18401:18403   */\n      0x20\n        /* \"#utility.yul\":18396:18398   */\n      0x1f\n        /* \"#utility.yul\":18389:18394   */\n      dup4\n        /* \"#utility.yul\":18385:18399   */\n      add\n        /* \"#utility.yul\":18381:18404   */\n      div\n        /* \"#utility.yul\":18371:18404   */\n      swap1\n      pop\n        /* \"#utility.yul\":18317:18410   */\n      swap2\n      swap1\n      pop\n      jump\t// out\n        /* \"#utility.yul\":18416:18523   */\n    tag_334:\n        /* \"#utility.yul\":18460:18468   */\n      0x00\n        /* \"#utility.yul\":18510:18515   */\n      dup3\n        /* \"#utility.yul\":18504:18508   */\n      dup3\n        /* \"#utility.yul\":18500:18516   */\n      shl\n        /* \"#utility.yul\":18479:18516   */\n      swap1\n      pop\n        /* \"#utility.yul\":18416:18523   */\n      swap3\n      swap2\n      pop\n      pop\n      jump\t// out\n        /* \"#utility.yul\":18529:18922   */\n    tag_335:\n        /* \"#utility.yul\":18598:18604   */\n      0x00\n        /* \"#utility.yul\":18648:18649   */\n      0x08\n        /* \"#utility.yul\":18636:18646   */\n      dup4\n        /* \"#utility.yul\":18632:18650   */\n      mul\n        /* \"#utility.yul\":18671:18768   */\n      tag_554\n        /* \"#utility.yul\":18701:18767   */\n      0xffffffffffffffffffffffffffffffffffffffffffffffffffffffffffffffff\n        /* \"#utility.yul\":18690:18699   */\n      dup3\n        /* \"#utility.yul\":18671:18768   */\n      tag_334\n      jump\t// in\n    tag_554:\n        /* \"#utility.yul\":18789:18828   */\n      tag_555\n        /* \"#utility.yul\":18819:18827   */\n      dup7\n        /* \"#utility.yul\":18808:18817   */\n      dup4\n        /* \"#utility.yul\":18789:18828   */\n      tag_334\n      jump\t// in\n    tag_555:\n        /* \"#utility.yul\":18777:18828   */\n      swap6\n      pop\n        /* \"#utility.yul\":18861:18865   */\n      dup1\n        /* \"#utility.yul\":18857:18866   */\n      not\n        /* \"#utility.yul\":18850:18855   */\n      dup5\n        /* \"#utility.yul\":18846:18867   */\n      and\n        /* \"#utility.yul\":18837:18867   */\n      swap4\n      pop\n        /* \"#utility.yul\":18910:18914   */\n      dup1\n        /* \"#utility.yul\":18900:18908   */\n      dup7\n        /* \"#utility.yul\":18896:18915   */\n      and\n        /* \"#utility.yul\":18889:18894   */\n      dup5\n        /* \"#utility.yul\":18886:18916   */\n      or\n        /* \"#utility.yul\":18876:18916   */\n      swap3\n      pop\n        /* \"#utility.yul\":18605:18922   */\n      pop\n      pop\n        /* \"#utility.yul\":18529:18922   */\n      swap4\n      swap3\n      pop\n      pop\n      pop\n      jump\t// out\n        /* \"#utility.yul\":18928:18988   */\n    tag_336:\n        /* \"#utility.yul\":18956:18959   */\n      0x00\n        /* \"#utility.yul\":18977:18982   */\n      dup2\n        /* \"#utility.yul\":18970:18982   */\n      swap1\n      pop\n        /* \"#utility.yul\":18928:18988   */\n      swap2\n      swap1\n      pop\n      jump\t// out\n        /* \"#utility.yul\":18994:19136   */\n    tag_337:\n        /* \"#utility.yul\":19044:19053   */\n      0x00\n        /* \"#utility.yul\":19077:19130   */\n      tag_558\n        /* \"#utility.yul\":19095:19129   */\n      tag_559\n        /* \"#utility.yul\":19104:19128   */\n      tag_560\n        /* \"#utility.yul\":19122:19127   */\n      dup5\n        /* \"#utility.yul\":19104:19128   */\n      tag_295\n      jump\t// in\n    tag_560:\n        /* \"#utility.yul\":19095:19129   */\n      tag_336\n      jump\t// in\n    tag_559:\n        /* \"#utility.yul\":19077:19130   */\n      tag_295\n      jump\t// in\n    tag_558:\n        /* \"#utility.yul\":19064:19130   */\n      swap1\n      pop\n        /* \"#utility.yul\":18994:19136   */\n      swap2\n      swap1\n      pop\n      jump\t// out\n        /* \"#utility.yul\":19142:19217   */\n    tag_338:\n        /* \"#utility.yul\":19185:19188   */\n      0x00\n        /* \"#utility.yul\":19206:19211   */\n      dup2\n        /* \"#utility.yul\":19199:19211   */\n      swap1\n      pop\n        /* \"#utility.yul\":19142:19217   */\n      swap2\n      swap1\n      pop\n      jump\t// out\n        /* \"#utility.yul\":19223:19492   */\n    tag_339:\n        /* \"#utility.yul\":19333:19372   */\n      tag_563\n        /* \"#utility.yul\":19364:19371   */\n      dup4\n        /* \"#utility.yul\":19333:19372   */\n      tag_337\n      jump\t// in\n    tag_563:\n        /* \"#utility.yul\":19394:19485   */\n      tag_564\n        /* \"#utility.yul\":19443:19484   */\n      tag_565\n        /* \"#utility.yul\":19467:19483   */\n      dup3\n        /* \"#utility.yul\":19443:19484   */\n      tag_338\n      jump\t// in\n    tag_565:\n        /* \"#utility.yul\":19435:19441   */\n      dup5\n        /* \"#utility.yul\":19428:19432   */\n      dup5\n        /* \"#utility.yul\":19422:19433   */\n      sload\n        /* \"#utility.yul\":19394:19485   */\n      tag_335\n      jump\t// in\n    tag_564:\n        /* \"#utility.yul\":19388:19392   */\n      dup3\n        /* \"#utility.yul\":19381:19486   */\n      sstore\n        /* \"#utility.yul\":19299:19492   */\n      pop\n        /* \"#utility.yul\":19223:19492   */\n      pop\n      pop\n      pop\n      jump\t// out\n        /* \"#utility.yul\":19498:19571   */\n    tag_340:\n        /* \"#utility.yul\":19543:19546   */\n      0x00\n        /* \"#utility.yul\":19564:19565   */\n      0x00\n        /* \"#utility.yul\":19557:19565   */\n      swap1\n      pop\n        /* \"#utility.yul\":19498:19571   */\n      swap1\n      jump\t// out\n        /* \"#utility.yul\":19577:19766   */\n    tag_341:\n        /* \"#utility.yul\":19654:19686   */\n      tag_568\n      tag_340\n      jump\t// in\n    tag_568:\n        /* \"#utility.yul\":19695:19760   */\n      tag_569\n        /* \"#utility.yul\":19753:19759   */\n      dup2\n        /* \"#utility.yul\":19745:19751   */\n      dup5\n        /* \"#utility.yul\":19739:19743   */\n      dup5\n        /* \"#utility.yul\":19695:19760   */\n      tag_339\n      jump\t// in\n    tag_569:\n        /* \"#utility.yul\":19630:19766   */\n      pop\n        /* \"#utility.yul\":19577:19766   */\n      pop\n      pop\n      jump\t// out\n        /* \"#utility.yul\":19772:19958   */\n    tag_342:\n        /* \"#utility.yul\":19832:19952   */\n    tag_571:\n        /* \"#utility.yul\":19849:19852   */\n      dup2\n        /* \"#utility.yul\":19842:19847   */\n      dup2\n        /* \"#utility.yul\":19839:19853   */\n      lt\n        /* \"#utility.yul\":19832:19952   */\n      iszero\n      tag_573\n      jumpi\n        /* \"#utility.yul\":19903:19942   */\n      tag_574\n        /* \"#utility.yul\":19940:19941   */\n      0x00\n        /* \"#utility.yul\":19933:19938   */\n      dup3\n        /* \"#utility.yul\":19903:19942   */\n      tag_341\n      jump\t// in\n    tag_574:\n        /* \"#utility.yul\":19876:19877   */\n      0x01\n        /* \"#utility.yul\":19869:19874   */\n      dup2\n        /* \"#utility.yul\":19865:19878   */\n      add\n        /* \"#utility.yul\":19856:19878   */\n      swap1\n      pop\n        /* \"#utility.yul\":19832:19952   */\n      jump(tag_571)\n    tag_573:\n        /* \"#utility.yul\":19772:19958   */\n      pop\n      pop\n      jump\t// out\n        /* \"#utility.yul\":19964:20507   */\n    tag_343:\n        /* \"#utility.yul\":20065:20067   */\n      0x1f\n        /* \"#utility.yul\":20060:20063   */\n      dup3\n        /* \"#utility.yul\":20057:20068   */\n      gt\n        /* \"#utility.yul\":20054:20500   */\n      iszero\n      tag_576\n      jumpi\n        /* \"#utility.yul\":20099:20137   */\n      tag_577\n        /* \"#utility.yul\":20131:20136   */\n      dup2\n        /* \"#utility.yul\":20099:20137   */\n      tag_332\n      jump\t// in\n    tag_577:\n        /* \"#utility.yul\":20183:20212   */\n      tag_578\n        /* \"#utility.yul\":20201:20211   */\n      dup5\n        /* \"#utility.yul\":20183:20212   */\n      tag_333\n      jump\t// in\n    tag_578:\n        /* \"#utility.yul\":20173:20181   */\n      dup2\n        /* \"#utility.yul\":20169:20213   */\n      add\n        /* \"#utility.yul\":20366:20368   */\n      0x20\n        /* \"#utility.yul\":20354:20364   */\n      dup6\n        /* \"#utility.yul\":20351:20369   */\n      lt\n        /* \"#utility.yul\":20348:20397   */\n      iszero\n      tag_579\n      jumpi\n        /* \"#utility.yul\":20387:20395   */\n      dup2\n        /* \"#utility.yul\":20372:20395   */\n      swap1\n      pop\n        /* \"#utility.yul\":20348:20397   */\n    tag_579:\n        /* \"#utility.yul\":20410:20490   */\n      tag_580\n        /* \"#utility.yul\":20466:20488   */\n      tag_581\n        /* \"#utility.yul\":20484:20487   */\n      dup6\n        /* \"#utility.yul\":20466:20488   */\n      tag_333\n      jump\t// in\n    tag_581:\n        /* \"#utility.yul\":20456:20464   */\n      dup4\n        /* \"#utility.yul\":20452:20489   */\n      add\n        /* \"#utility.yul\":20439:20450   */\n      dup3\n        /* \"#utility.yul\":20410:20490   */\n      tag_342\n      jump\t// in\n    tag_580:\n        /* \"#utility.yul\":20069:20500   */\n      pop\n      pop\n        /* \"#utility.yul\":20054:20500   */\n    tag_576:\n        /* \"#utility.yul\":19964:20507   */\n      pop\n      pop\n      pop\n      jump\t// out\n        /* \"#utility.yul\":20513:20630   */\n    tag_344:\n        /* \"#utility.yul\":20567:20575   */\n      0x00\n        /* \"#utility.yul\":20617:20622   */\n      dup3\n        /* \"#utility.yul\":20611:20615   */\n      dup3\n        /* \"#utility.yul\":20607:20623   */\n      shr\n        /* \"#utility.yul\":20586:20623   */\n      swap1\n      pop\n        /* \"#utility.yul\":20513:20630   */\n      swap3\n      swap2\n      pop\n      pop\n      jump\t// out\n        /* \"#utility.yul\":20636:20805   */\n    tag_345:\n        /* \"#utility.yul\":20680:20686   */\n      0x00\n        /* \"#utility.yul\":20713:20764   */\n      tag_584\n        /* \"#utility.yul\":20761:20762   */\n      0x00\n        /* \"#utility.yul\":20757:20763   */\n      not\n        /* \"#utility.yul\":20749:20754   */\n      dup5\n        /* \"#utility.yul\":20746:20747   */\n      0x08\n        /* \"#utility.yul\":20742:20755   */\n      mul\n        /* \"#utility.yul\":20713:20764   */\n      tag_344\n      jump\t// in\n    tag_584:\n        /* \"#utility.yul\":20709:20765   */\n      not\n        /* \"#utility.yul\":20794:20798   */\n      dup1\n        /* \"#utility.yul\":20788:20792   */\n      dup4\n        /* \"#utility.yul\":20784:20799   */\n      and\n        /* \"#utility.yul\":20774:20799   */\n      swap2\n      pop\n        /* \"#utility.yul\":20687:20805   */\n      pop\n        /* \"#utility.yul\":20636:20805   */\n      swap3\n      swap2\n      pop\n      pop\n      jump\t// out\n        /* \"#utility.yul\":20810:21105   */\n    tag_346:\n        /* \"#utility.yul\":20886:20890   */\n      0x00\n        /* \"#utility.yul\":21032:21061   */\n      tag_586\n        /* \"#utility.yul\":21057:21060   */\n      dup4\n        /* \"#utility.yul\":21051:21055   */\n      dup4\n        /* \"#utility.yul\":21032:21061   */\n      tag_345\n      jump\t// in\n    tag_586:\n        /* \"#utility.yul\":21024:21061   */\n      swap2\n      pop\n        /* \"#utility.yul\":21094:21097   */\n      dup3\n        /* \"#utility.yul\":21091:21092   */\n      0x02\n        /* \"#utility.yul\":21087:21098   */\n      mul\n        /* \"#utility.yul\":21081:21085   */\n      dup3\n        /* \"#utility.yul\":21078:21099   */\n      or\n        /* \"#utility.yul\":21070:21099   */\n      swap1\n      pop\n        /* \"#utility.yul\":20810:21105   */\n      swap3\n      swap2\n      pop\n      pop\n      jump\t// out\n        /* \"#utility.yul\":21110:22513   */\n    tag_130:\n        /* \"#utility.yul\":21234:21278   */\n      tag_588\n        /* \"#utility.yul\":21274:21277   */\n      dup4\n        /* \"#utility.yul\":21269:21272   */\n      dup4\n        /* \"#utility.yul\":21234:21278   */\n      tag_330\n      jump\t// in\n    tag_588:\n        /* \"#utility.yul\":21343:21361   */\n      0xffffffffffffffff\n        /* \"#utility.yul\":21335:21341   */\n      dup2\n        /* \"#utility.yul\":21332:21362   */\n      gt\n        /* \"#utility.yul\":21329:21385   */\n      iszero\n      tag_589\n      jumpi\n        /* \"#utility.yul\":21365:21383   */\n      tag_590\n      tag_331\n      jump\t// in\n    tag_590:\n        /* \"#utility.yul\":21329:21385   */\n    tag_589:\n        /* \"#utility.yul\":21409:21447   */\n      tag_591\n        /* \"#utility.yul\":21441:21445   */\n      dup3\n        /* \"#utility.yul\":21435:21446   */\n      sload\n        /* \"#utility.yul\":21409:21447   */\n      tag_92\n      jump\t// in\n    tag_591:\n        /* \"#utility.yul\":21494:21561   */\n      tag_592\n        /* \"#utility.yul\":21554:21560   */\n      dup3\n        /* \"#utility.yul\":21546:21552   */\n      dup3\n        /* \"#utility.yul\":21540:21544   */\n      dup6\n        /* \"#utility.yul\":21494:21561   */\n      tag_343\n      jump\t// in\n    tag_592:\n        /* \"#utility.yul\":21588:21589   */\n      0x00\n        /* \"#utility.yul\":21617:21619   */\n      0x1f\n        /* \"#utility.yul\":21609:21615   */\n      dup4\n        /* \"#utility.yul\":21606:21620   */\n      gt\n        /* \"#utility.yul\":21634:21635   */\n      0x01\n        /* \"#utility.yul\":21629:22261   */\n      dup2\n      eq\n      tag_594\n      jumpi\n        /* \"#utility.yul\":22305:22306   */\n      0x00\n        /* \"#utility.yul\":22322:22328   */\n      dup5\n        /* \"#utility.yul\":22319:22403   */\n      iszero\n      tag_595\n      jumpi\n        /* \"#utility.yul\":22378:22387   */\n      dup3\n        /* \"#utility.yul\":22373:22376   */\n      dup8\n        /* \"#utility.yul\":22369:22388   */\n      add\n        /* \"#utility.yul\":22356:22389   */\n      calldataload\n        /* \"#utility.yul\":22347:22389   */\n      swap1\n      pop\n        /* \"#utility.yul\":22319:22403   */\n    tag_595:\n        /* \"#utility.yul\":22429:22496   */\n      tag_596\n        /* \"#utility.yul\":22489:22495   */\n      dup6\n        /* \"#utility.yul\":22482:22487   */\n      dup3\n        /* \"#utility.yul\":22429:22496   */\n      tag_346\n      jump\t// in\n    tag_596:\n        /* \"#utility.yul\":22423:22427   */\n      dup7\n        /* \"#utility.yul\":22416:22497   */\n      sstore\n        /* \"#utility.yul\":22278:22507   */\n      pop\n        /* \"#utility.yul\":21599:22507   */\n      jump(tag_593)\n        /* \"#utility.yul\":21629:22261   */\n    tag_594:\n        /* \"#utility.yul\":21681:21685   */\n      0x1f\n        /* \"#utility.yul\":21677:21686   */\n      not\n        /* \"#utility.yul\":21669:21675   */\n      dup5\n        /* \"#utility.yul\":21665:21687   */\n      and\n        /* \"#utility.yul\":21715:21752   */\n      tag_597\n        /* \"#utility.yul\":21747:21751   */\n      dup7\n        /* \"#utility.yul\":21715:21752   */\n      tag_332\n      jump\t// in\n    tag_597:\n        /* \"#utility.yul\":21774:21775   */\n      0x00\n        /* \"#utility.yul\":21788:22003   */\n    tag_598:\n        /* \"#utility.yul\":21802:21809   */\n      dup3\n        /* \"#utility.yul\":21799:21800   */\n      dup2\n        /* \"#utility.yul\":21796:21810   */\n      lt\n        /* \"#utility.yul\":21788:22003   */\n      iszero\n      tag_600\n      jumpi\n        /* \"#utility.yul\":21888:21897   */\n      dup5\n        /* \"#utility.yul\":21883:21886   */\n      dup10\n        /* \"#utility.yul\":21879:21898   */\n      add\n        /* \"#utility.yul\":21866:21899   */\n      calldataload\n        /* \"#utility.yul\":21858:21864   */\n      dup3\n        /* \"#utility.yul\":21851:21900   */\n      sstore\n        /* \"#utility.yul\":21939:21940   */\n      0x01\n        /* \"#utility.yul\":21931:21937   */\n      dup3\n        /* \"#utility.yul\":21927:21941   */\n      add\n        /* \"#utility.yul\":21917:21941   */\n      swap2\n      pop\n        /* \"#utility.yul\":21986:21988   */\n      0x20\n        /* \"#utility.yul\":21975:21984   */\n      dup6\n        /* \"#utility.yul\":21971:21989   */\n      add\n        /* \"#utility.yul\":21958:21989   */\n      swap5\n      pop\n        /* \"#utility.yul\":21825:21829   */\n      0x20\n        /* \"#utility.yul\":21822:21823   */\n      dup2\n        /* \"#utility.yul\":21818:21830   */\n      add\n        /* \"#utility.yul\":21813:21830   */\n      swap1\n      pop\n        /* \"#utility.yul\":21788:22003   */\n      jump(tag_598)\n    tag_600:\n        /* \"#utility.yul\":22031:22037   */\n      dup7\n        /* \"#utility.yul\":22022:22029   */\n      dup4\n        /* \"#utility.yul\":22019:22038   */\n      lt\n        /* \"#utility.yul\":22016:22202   */\n      iszero\n      tag_601\n      jumpi\n        /* \"#utility.yul\":22096:22105   */\n      dup5\n        /* \"#utility.yul\":22091:22094   */\n      dup10\n        /* \"#utility.yul\":22087:22106   */\n      add\n        /* \"#utility.yul\":22074:22107   */\n      calldataload\n        /* \"#utility.yul\":22139:22187   */\n      tag_602\n        /* \"#utility.yul\":22181:22185   */\n      0x1f\n        /* \"#utility.yul\":22173:22179   */\n      dup10\n        /* \"#utility.yul\":22169:22186   */\n      and\n        /* \"#utility.yul\":22158:22167   */\n      dup3\n        /* \"#utility.yul\":22139:22187   */\n      tag_345\n      jump\t// in\n    tag_602:\n        /* \"#utility.yul\":22131:22137   */\n      dup4\n        /* \"#utility.yul\":22124:22188   */\n      sstore\n        /* \"#utility.yul\":22039:22202   */\n      pop\n        /* \"#utility.yul\":22016:22202   */\n    tag_601:\n        /* \"#utility.yul\":22248:22249   */\n      0x01\n        /* \"#utility.yul\":22244:22245   */\n      0x02\n        /* \"#utility.yul\":22236:22242   */\n      dup9\n        /* \"#utility.yul\":22232:22246   */\n      mul\n        /* \"#utility.yul\":22228:22250   */\n      add\n        /* \"#utility.yul\":22222:22226   */\n      dup9\n        /* \"#utility.yul\":22215:22251   */\n      sstore\n        /* \"#utility.yul\":21636:22261   */\n      pop\n      pop\n      pop\n        /* \"#utility.yul\":21599:22507   */\n    tag_593:\n      pop\n        /* \"#utility.yul\":21209:22513   */\n      pop\n      pop\n      pop\n        /* \"#utility.yul\":21110:22513   */\n      pop\n      pop\n      pop\n      jump\t// out\n        /* \"#utility.yul\":22519:22686   */\n    tag_347:\n        /* \"#utility.yul\":22659:22678   */\n      0x496e76616c696420726563697069656e74000000000000000000000000000000\n        /* \"#utility.yul\":22655:22656   */\n      0x00\n        /* \"#utility.yul\":22647:22653   */\n      dup3\n        /* \"#utility.yul\":22643:22657   */\n      add\n        /* \"#utility.yul\":22636:22679   */\n      mstore\n        /* \"#utility.yul\":22519:22686   */\n      pop\n      jump\t// out\n        /* \"#utility.yul\":22692:23058   */\n    tag_348:\n        /* \"#utility.yul\":22834:22837   */\n      0x00\n        /* \"#utility.yul\":22855:22922   */\n      tag_605\n        /* \"#utility.yul\":22919:22921   */\n      0x11\n        /* \"#utility.yul\":22914:22917   */\n      dup4\n        /* \"#utility.yul\":22855:22922   */\n      tag_313\n      jump\t// in\n    tag_605:\n        /* \"#utility.yul\":22848:22922   */\n      swap2\n      pop\n        /* \"#utility.yul\":22931:23024   */\n      tag_606\n        /* \"#utility.yul\":23020:23023   */\n      dup3\n        /* \"#utility.yul\":22931:23024   */\n      tag_347\n      jump\t// in\n    tag_606:\n        /* \"#utility.yul\":23049:23051   */\n      0x20\n        /* \"#utility.yul\":23044:23047   */\n      dup3\n        /* \"#utility.yul\":23040:23052   */\n      add\n        /* \"#utility.yul\":23033:23052   */\n      swap1\n      pop\n        /* \"#utility.yul\":22692:23058   */\n      swap2\n      swap1\n      pop\n      jump\t// out\n        /* \"#utility.yul\":23064:23483   */\n    tag_135:\n        /* \"#utility.yul\":23230:23234   */\n      0x00\n        /* \"#utility.yul\":23268:23270   */\n      0x20\n        /* \"#utility.yul\":23257:23266   */\n      dup3\n        /* \"#utility.yul\":23253:23271   */\n      add\n        /* \"#utility.yul\":23245:23271   */\n      swap1\n      pop\n        /* \"#utility.yul\":23317:23326   */\n      dup2\n        /* \"#utility.yul\":23311:23315   */\n      dup2\n        /* \"#utility.yul\":23307:23327   */\n      sub\n        /* \"#utility.yul\":23303:23304   */\n      0x00\n        /* \"#utility.yul\":23292:23301   */\n      dup4\n        /* \"#utility.yul\":23288:23305   */\n      add\n        /* \"#utility.yul\":23281:23328   */\n      mstore\n        /* \"#utility.yul\":23345:23476   */\n      tag_608\n        /* \"#utility.yul\":23471:23475   */\n      dup2\n        /* \"#utility.yul\":23345:23476   */\n      tag_348\n      jump\t// in\n    tag_608:\n        /* \"#utility.yul\":23337:23476   */\n      swap1\n      pop\n        /* \"#utility.yul\":23064:23483   */\n      swap2\n      swap1\n      pop\n      jump\t// out\n        /* \"#utility.yul\":23489:23683   */\n    tag_144:\n        /* \"#utility.yul\":23529:23533   */\n      0x00\n        /* \"#utility.yul\":23549:23569   */\n      tag_610\n        /* \"#utility.yul\":23567:23568   */\n      dup3\n        /* \"#utility.yul\":23549:23569   */\n      tag_295\n      jump\t// in\n    tag_610:\n        /* \"#utility.yul\":23544:23569   */\n      swap2\n      pop\n        /* \"#utility.yul\":23583:23603   */\n      tag_611\n        /* \"#utility.yul\":23601:23602   */\n      dup4\n        /* \"#utility.yul\":23583:23603   */\n      tag_295\n      jump\t// in\n    tag_611:\n        /* \"#utility.yul\":23578:23603   */\n      swap3\n      pop\n        /* \"#utility.yul\":23627:23628   */\n      dup3\n        /* \"#utility.yul\":23624:23625   */\n      dup3\n        /* \"#utility.yul\":23620:23629   */\n      sub\n        /* \"#utility.yul\":23612:23629   */\n      swap1\n      pop\n        /* \"#utility.yul\":23651:23652   */\n      dup2\n        /* \"#utility.yul\":23645:23649   */\n      dup2\n        /* \"#utility.yul\":23642:23653   */\n      gt\n        /* \"#utility.yul\":23639:23676   */\n      iszero\n      tag_612\n      jumpi\n        /* \"#utility.yul\":23656:23674   */\n      tag_613\n      tag_322\n      jump\t// in\n    tag_613:\n        /* \"#utility.yul\":23639:23676   */\n    tag_612:\n        /* \"#utility.yul\":23489:23683   */\n      swap3\n      swap2\n      pop\n      pop\n      jump\t// out\n        /* \"#utility.yul\":23689:23880   */\n    tag_146:\n        /* \"#utility.yul\":23729:23732   */\n      0x00\n        /* \"#utility.yul\":23748:23768   */\n      tag_615\n        /* \"#utility.yul\":23766:23767   */\n      dup3\n        /* \"#utility.yul\":23748:23768   */\n      tag_295\n      jump\t// in\n    tag_615:\n        /* \"#utility.yul\":23743:23768   */\n      swap2\n      pop\n        /* \"#utility.yul\":23782:23802   */\n      tag_616\n        /* \"#utility.yul\":23800:23801   */\n      dup4\n        /* \"#utility.yul\":23782:23802   */\n      tag_295\n      jump\t// in\n    tag_616:\n        /* \"#utility.yul\":23777:23802   */\n      swap3\n      pop\n        /* \"#utility.yul\":23825:23826   */\n      dup3\n        /* \"#utility.yul\":23822:23823   */\n      dup3\n        /* \"#utility.yul\":23818:23827   */\n      add\n        /* \"#utility.yul\":23811:23827   */\n      swap1\n      pop\n        /* \"#utility.yul\":23846:23849   */\n      dup1\n        /* \"#utility.yul\":23843:23844   */\n      dup3\n        /* \"#utility.yul\":23840:23850   */\n      gt\n        /* \"#utility.yul\":23837:23873   */\n      iszero\n      tag_617\n      jumpi\n        /* \"#utility.yul\":23853:23871   */\n      tag_618\n      tag_322\n      jump\t// in\n    tag_618:\n        /* \"#utility.yul\":23837:23873   */\n    tag_617:\n        /* \"#utility.yul\":23689:23880   */\n      swap3\n      swap2\n      pop\n      pop\n      jump\t// out\n        /* \"#utility.yul\":23886:24054   */\n    tag_349:\n        /* \"#utility.yul\":23969:23980   */\n      0x00\n        /* \"#utility.yul\":24003:24009   */\n      dup3\n        /* \"#utility.yul\":23998:24001   */\n      dup3\n        /* \"#utility.yul\":23991:24010   */\n      mstore\n        /* \"#utility.yul\":24043:24047   */\n      0x20\n        /* \"#utility.yul\":24038:24041   */\n      dup3\n        /* \"#utility.yul\":24034:24048   */\n      add\n        /* \"#utility.yul\":24019:24048   */\n      swap1\n      pop\n        /* \"#utility.yul\":23886:24054   */\n      swap3\n      swap2\n      pop\n      pop\n      jump\t// out\n        /* \"#utility.yul\":24060:24174   */\n    tag_350:\n      pop\n      jump\t// out\n        /* \"#utility.yul\":24180:24542   */\n    tag_351:\n        /* \"#utility.yul\":24321:24324   */\n      0x00\n        /* \"#utility.yul\":24342:24407   */\n      tag_622\n        /* \"#utility.yul\":24405:24406   */\n      0x00\n        /* \"#utility.yul\":24400:24403   */\n      dup4\n        /* \"#utility.yul\":24342:24407   */\n      tag_349\n      jump\t// in\n    tag_622:\n        /* \"#utility.yul\":24335:24407   */\n      swap2\n      pop\n        /* \"#utility.yul\":24416:24509   */\n      tag_623\n        /* \"#utility.yul\":24505:24508   */\n      dup3\n        /* \"#utility.yul\":24416:24509   */\n      tag_350\n      jump\t// in\n    tag_623:\n        /* \"#utility.yul\":24534:24535   */\n      0x00\n        /* \"#utility.yul\":24529:24532   */\n      dup3\n        /* \"#utility.yul\":24525:24536   */\n      add\n        /* \"#utility.yul\":24518:24536   */\n      swap1\n      pop\n        /* \"#utility.yul\":24180:24542   */\n      swap2\n      swap1\n      pop\n      jump\t// out\n        /* \"#utility.yul\":24548:25296   */\n    tag_160:\n        /* \"#utility.yul\":24797:24801   */\n      0x00\n        /* \"#utility.yul\":24835:24838   */\n      0x80\n        /* \"#utility.yul\":24824:24833   */\n      dup3\n        /* \"#utility.yul\":24820:24839   */\n      add\n        /* \"#utility.yul\":24812:24839   */\n      swap1\n      pop\n        /* \"#utility.yul\":24849:24920   */\n      tag_625\n        /* \"#utility.yul\":24917:24918   */\n      0x00\n        /* \"#utility.yul\":24906:24915   */\n      dup4\n        /* \"#utility.yul\":24902:24919   */\n      add\n        /* \"#utility.yul\":24893:24899   */\n      dup7\n        /* \"#utility.yul\":24849:24920   */\n      tag_300\n      jump\t// in\n    tag_625:\n        /* \"#utility.yul\":24930:25002   */\n      tag_626\n        /* \"#utility.yul\":24998:25000   */\n      0x20\n        /* \"#utility.yul\":24987:24996   */\n      dup4\n        /* \"#utility.yul\":24983:25001   */\n      add\n        /* \"#utility.yul\":24974:24980   */\n      dup6\n        /* \"#utility.yul\":24930:25002   */\n      tag_300\n      jump\t// in\n    tag_626:\n        /* \"#utility.yul\":25012:25084   */\n      tag_627\n        /* \"#utility.yul\":25080:25082   */\n      0x40\n        /* \"#utility.yul\":25069:25078   */\n      dup4\n        /* \"#utility.yul\":25065:25083   */\n      add\n        /* \"#utility.yul\":25056:25062   */\n      dup5\n        /* \"#utility.yul\":25012:25084   */\n      tag_308\n      jump\t// in\n    tag_627:\n        /* \"#utility.yul\":25131:25140   */\n      dup2\n        /* \"#utility.yul\":25125:25129   */\n      dup2\n        /* \"#utility.yul\":25121:25141   */\n      sub\n        /* \"#utility.yul\":25116:25118   */\n      0x60\n        /* \"#utility.yul\":25105:25114   */\n      dup4\n        /* \"#utility.yul\":25101:25119   */\n      add\n        /* \"#utility.yul\":25094:25142   */\n      mstore\n        /* \"#utility.yul\":25159:25289   */\n      tag_628\n        /* \"#utility.yul\":25284:25288   */\n      dup2\n        /* \"#utility.yul\":25159:25289   */\n      tag_351\n      jump\t// in\n    tag_628:\n        /* \"#utility.yul\":25151:25289   */\n      swap1\n      pop\n        /* \"#utility.yul\":24548:25296   */\n      swap5\n      swap4\n      pop\n      pop\n      pop\n      pop\n      jump\t// out\n        /* \"#utility.yul\":25302:25443   */\n    tag_352:\n        /* \"#utility.yul\":25358:25363   */\n      0x00\n        /* \"#utility.yul\":25389:25395   */\n      dup2\n        /* \"#utility.yul\":25383:25396   */\n      mload\n        /* \"#utility.yul\":25374:25396   */\n      swap1\n      pop\n        /* \"#utility.yul\":25405:25437   */\n      tag_630\n        /* \"#utility.yul\":25431:25436   */\n      dup2\n        /* \"#utility.yul\":25405:25437   */\n      tag_291\n      jump\t// in\n    tag_630:\n        /* \"#utility.yul\":25302:25443   */\n      swap3\n      swap2\n      pop\n      pop\n      jump\t// out\n        /* \"#utility.yul\":25449:25798   */\n    tag_163:\n        /* \"#utility.yul\":25518:25524   */\n      0x00\n        /* \"#utility.yul\":25567:25569   */\n      0x20\n        /* \"#utility.yul\":25555:25564   */\n      dup3\n        /* \"#utility.yul\":25546:25553   */\n      dup5\n        /* \"#utility.yul\":25542:25565   */\n      sub\n        /* \"#utility.yul\":25538:25570   */\n      slt\n        /* \"#utility.yul\":25535:25654   */\n      iszero\n      tag_632\n      jumpi\n        /* \"#utility.yul\":25573:25652   */\n      tag_633\n      tag_288\n      jump\t// in\n    tag_633:\n        /* \"#utility.yul\":25535:25654   */\n    tag_632:\n        /* \"#utility.yul\":25693:25694   */\n      0x00\n        /* \"#utility.yul\":25718:25781   */\n      tag_634\n        /* \"#utility.yul\":25773:25780   */\n      dup5\n        /* \"#utility.yul\":25764:25770   */\n      dup3\n        /* \"#utility.yul\":25753:25762   */\n      dup6\n        /* \"#utility.yul\":25749:25771   */\n      add\n        /* \"#utility.yul\":25718:25781   */\n      tag_352\n      jump\t// in\n    tag_634:\n        /* \"#utility.yul\":25708:25781   */\n      swap2\n      pop\n        /* \"#utility.yul\":25664:25791   */\n      pop\n        /* \"#utility.yul\":25449:25798   */\n      swap3\n      swap2\n      pop\n      pop\n      jump\t// out\n        /* \"#utility.yul\":25804:25970   */\n    tag_353:\n        /* \"#utility.yul\":25944:25962   */\n      0x496e76616c696420726563696576657200000000000000000000000000000000\n        /* \"#utility.yul\":25940:25941   */\n      0x00\n        /* \"#utility.yul\":25932:25938   */\n      dup3\n        /* \"#utility.yul\":25928:25942   */\n      add\n        /* \"#utility.yul\":25921:25963   */\n      mstore\n        /* \"#utility.yul\":25804:25970   */\n      pop\n      jump\t// out\n        /* \"#utility.yul\":25976:26342   */\n    tag_354:\n        /* \"#utility.yul\":26118:26121   */\n      0x00\n        /* \"#utility.yul\":26139:26206   */\n      tag_637\n        /* \"#utility.yul\":26203:26205   */\n      0x10\n        /* \"#utility.yul\":26198:26201   */\n      dup4\n        /* \"#utility.yul\":26139:26206   */\n      tag_313\n      jump\t// in\n    tag_637:\n        /* \"#utility.yul\":26132:26206   */\n      swap2\n      pop\n        /* \"#utility.yul\":26215:26308   */\n      tag_638\n        /* \"#utility.yul\":26304:26307   */\n      dup3\n        /* \"#utility.yul\":26215:26308   */\n      tag_353\n      jump\t// in\n    tag_638:\n        /* \"#utility.yul\":26333:26335   */\n      0x20\n        /* \"#utility.yul\":26328:26331   */\n      dup3\n        /* \"#utility.yul\":26324:26336   */\n      add\n        /* \"#utility.yul\":26317:26336   */\n      swap1\n      pop\n        /* \"#utility.yul\":25976:26342   */\n      swap2\n      swap1\n      pop\n      jump\t// out\n        /* \"#utility.yul\":26348:26767   */\n    tag_172:\n        /* \"#utility.yul\":26514:26518   */\n      0x00\n        /* \"#utility.yul\":26552:26554   */\n      0x20\n        /* \"#utility.yul\":26541:26550   */\n      dup3\n        /* \"#utility.yul\":26537:26555   */\n      add\n        /* \"#utility.yul\":26529:26555   */\n      swap1\n      pop\n        /* \"#utility.yul\":26601:26610   */\n      dup2\n        /* \"#utility.yul\":26595:26599   */\n      dup2\n        /* \"#utility.yul\":26591:26611   */\n      sub\n        /* \"#utility.yul\":26587:26588   */\n      0x00\n        /* \"#utility.yul\":26576:26585   */\n      dup4\n        /* \"#utility.yul\":26572:26589   */\n      add\n        /* \"#utility.yul\":26565:26612   */\n      mstore\n        /* \"#utility.yul\":26629:26760   */\n      tag_640\n        /* \"#utility.yul\":26755:26759   */\n      dup2\n        /* \"#utility.yul\":26629:26760   */\n      tag_354\n      jump\t// in\n    tag_640:\n        /* \"#utility.yul\":26621:26760   */\n      swap1\n      pop\n        /* \"#utility.yul\":26348:26767   */\n      swap2\n      swap1\n      pop\n      jump\t// out\n        /* \"#utility.yul\":26773:26937   */\n    tag_355:\n        /* \"#utility.yul\":26913:26929   */\n      0x546f6b656e2072656a6563746564000000000000000000000000000000000000\n        /* \"#utility.yul\":26909:26910   */\n      0x00\n        /* \"#utility.yul\":26901:26907   */\n      dup3\n        /* \"#utility.yul\":26897:26911   */\n      add\n        /* \"#utility.yul\":26890:26930   */\n      mstore\n        /* \"#utility.yul\":26773:26937   */\n      pop\n      jump\t// out\n        /* \"#utility.yul\":26943:27309   */\n    tag_356:\n        /* \"#utility.yul\":27085:27088   */\n      0x00\n        /* \"#utility.yul\":27106:27173   */\n      tag_643\n        /* \"#utility.yul\":27170:27172   */\n      0x0e\n        /* \"#utility.yul\":27165:27168   */\n      dup4\n        /* \"#utility.yul\":27106:27173   */\n      tag_313\n      jump\t// in\n    tag_643:\n        /* \"#utility.yul\":27099:27173   */\n      swap2\n      pop\n        /* \"#utility.yul\":27182:27275   */\n      tag_644\n        /* \"#utility.yul\":27271:27274   */\n      dup3\n        /* \"#utility.yul\":27182:27275   */\n      tag_355\n      jump\t// in\n    tag_644:\n        /* \"#utility.yul\":27300:27302   */\n      0x20\n        /* \"#utility.yul\":27295:27298   */\n      dup3\n        /* \"#utility.yul\":27291:27303   */\n      add\n        /* \"#utility.yul\":27284:27303   */\n      swap1\n      pop\n        /* \"#utility.yul\":26943:27309   */\n      swap2\n      swap1\n      pop\n      jump\t// out\n        /* \"#utility.yul\":27315:27734   */\n    tag_177:\n        /* \"#utility.yul\":27481:27485   */\n      0x00\n        /* \"#utility.yul\":27519:27521   */\n      0x20\n        /* \"#utility.yul\":27508:27517   */\n      dup3\n        /* \"#utility.yul\":27504:27522   */\n      add\n        /* \"#utility.yul\":27496:27522   */\n      swap1\n      pop\n        /* \"#utility.yul\":27568:27577   */\n      dup2\n        /* \"#utility.yul\":27562:27566   */\n      dup2\n        /* \"#utility.yul\":27558:27578   */\n      sub\n        /* \"#utility.yul\":27554:27555   */\n      0x00\n        /* \"#utility.yul\":27543:27552   */\n      dup4\n        /* \"#utility.yul\":27539:27556   */\n      add\n        /* \"#utility.yul\":27532:27579   */\n      mstore\n        /* \"#utility.yul\":27596:27727   */\n      tag_646\n        /* \"#utility.yul\":27722:27726   */\n      dup2\n        /* \"#utility.yul\":27596:27727   */\n      tag_356\n      jump\t// in\n    tag_646:\n        /* \"#utility.yul\":27588:27727   */\n      swap1\n      pop\n        /* \"#utility.yul\":27315:27734   */\n      swap2\n      swap1\n      pop\n      jump\t// out\n        /* \"#utility.yul\":27740:27887   */\n    tag_357:\n        /* \"#utility.yul\":27841:27852   */\n      0x00\n        /* \"#utility.yul\":27878:27881   */\n      dup2\n        /* \"#utility.yul\":27863:27881   */\n      swap1\n      pop\n        /* \"#utility.yul\":27740:27887   */\n      swap3\n      swap2\n      pop\n      pop\n      jump\t// out\n        /* \"#utility.yul\":27893:28291   */\n    tag_358:\n        /* \"#utility.yul\":28052:28055   */\n      0x00\n        /* \"#utility.yul\":28073:28156   */\n      tag_649\n        /* \"#utility.yul\":28154:28155   */\n      0x00\n        /* \"#utility.yul\":28149:28152   */\n      dup4\n        /* \"#utility.yul\":28073:28156   */\n      tag_357\n      jump\t// in\n    tag_649:\n        /* \"#utility.yul\":28066:28156   */\n      swap2\n      pop\n        /* \"#utility.yul\":28165:28258   */\n      tag_650\n        /* \"#utility.yul\":28254:28257   */\n      dup3\n        /* \"#utility.yul\":28165:28258   */\n      tag_350\n      jump\t// in\n    tag_650:\n        /* \"#utility.yul\":28283:28284   */\n      0x00\n        /* \"#utility.yul\":28278:28281   */\n      dup3\n        /* \"#utility.yul\":28274:28285   */\n      add\n        /* \"#utility.yul\":28267:28285   */\n      swap1\n      pop\n        /* \"#utility.yul\":27893:28291   */\n      swap2\n      swap1\n      pop\n      jump\t// out\n        /* \"#utility.yul\":28297:28676   */\n    tag_193:\n        /* \"#utility.yul\":28481:28484   */\n      0x00\n        /* \"#utility.yul\":28503:28650   */\n      tag_652\n        /* \"#utility.yul\":28646:28649   */\n      dup3\n        /* \"#utility.yul\":28503:28650   */\n      tag_358\n      jump\t// in\n    tag_652:\n        /* \"#utility.yul\":28496:28650   */\n      swap2\n      pop\n        /* \"#utility.yul\":28667:28670   */\n      dup2\n        /* \"#utility.yul\":28660:28670   */\n      swap1\n      pop\n        /* \"#utility.yul\":28297:28676   */\n      swap2\n      swap1\n      pop\n      jump\t// out\n        /* \"#utility.yul\":28682:28846   */\n    tag_359:\n        /* \"#utility.yul\":28822:28838   */\n      0x5061796d656e74206661696c6564000000000000000000000000000000000000\n        /* \"#utility.yul\":28818:28819   */\n      0x00\n        /* \"#utility.yul\":28810:28816   */\n      dup3\n        /* \"#utility.yul\":28806:28820   */\n      add\n        /* \"#utility.yul\":28799:28839   */\n      mstore\n        /* \"#utility.yul\":28682:28846   */\n      pop\n      jump\t// out\n        /* \"#utility.yul\":28852:29218   */\n    tag_360:\n        /* \"#utility.yul\":28994:28997   */\n      0x00\n        /* \"#utility.yul\":29015:29082   */\n      tag_655\n        /* \"#utility.yul\":29079:29081   */\n      0x0e\n        /* \"#utility.yul\":29074:29077   */\n      dup4\n        /* \"#utility.yul\":29015:29082   */\n      tag_313\n      jump\t// in\n    tag_655:\n        /* \"#utility.yul\":29008:29082   */\n      swap2\n      pop\n        /* \"#utility.yul\":29091:29184   */\n      tag_656\n        /* \"#utility.yul\":29180:29183   */\n      dup3\n        /* \"#utility.yul\":29091:29184   */\n      tag_359\n      jump\t// in\n    tag_656:\n        /* \"#utility.yul\":29209:29211   */\n      0x20\n        /* \"#utility.yul\":29204:29207   */\n      dup3\n        /* \"#utility.yul\":29200:29212   */\n      add\n        /* \"#utility.yul\":29193:29212   */\n      swap1\n      pop\n        /* \"#utility.yul\":28852:29218   */\n      swap2\n      swap1\n      pop\n      jump\t// out\n        /* \"#utility.yul\":29224:29643   */\n    tag_199:\n        /* \"#utility.yul\":29390:29394   */\n      0x00\n        /* \"#utility.yul\":29428:29430   */\n      0x20\n        /* \"#utility.yul\":29417:29426   */\n      dup3\n        /* \"#utility.yul\":29413:29431   */\n      add\n        /* \"#utility.yul\":29405:29431   */\n      swap1\n      pop\n        /* \"#utility.yul\":29477:29486   */\n      dup2\n        /* \"#utility.yul\":29471:29475   */\n      dup2\n        /* \"#utility.yul\":29467:29487   */\n      sub\n        /* \"#utility.yul\":29463:29464   */\n      0x00\n        /* \"#utility.yul\":29452:29461   */\n      dup4\n        /* \"#utility.yul\":29448:29465   */\n      add\n        /* \"#utility.yul\":29441:29488   */\n      mstore\n        /* \"#utility.yul\":29505:29636   */\n      tag_658\n        /* \"#utility.yul\":29631:29635   */\n      dup2\n        /* \"#utility.yul\":29505:29636   */\n      tag_360\n      jump\t// in\n    tag_658:\n        /* \"#utility.yul\":29497:29636   */\n      swap1\n      pop\n        /* \"#utility.yul\":29224:29643   */\n      swap2\n      swap1\n      pop\n      jump\t// out\n        /* \"#utility.yul\":29649:29814   */\n    tag_361:\n        /* \"#utility.yul\":29789:29806   */\n      0x496e76616c696420616464726573730000000000000000000000000000000000\n        /* \"#utility.yul\":29785:29786   */\n      0x00\n        /* \"#utility.yul\":29777:29783   */\n      dup3\n        /* \"#utility.yul\":29773:29787   */\n      add\n        /* \"#utility.yul\":29766:29807   */\n      mstore\n        /* \"#utility.yul\":29649:29814   */\n      pop\n      jump\t// out\n        /* \"#utility.yul\":29820:30186   */\n    tag_362:\n        /* \"#utility.yul\":29962:29965   */\n      0x00\n        /* \"#utility.yul\":29983:30050   */\n      tag_661\n        /* \"#utility.yul\":30047:30049   */\n      0x0f\n        /* \"#utility.yul\":30042:30045   */\n      dup4\n        /* \"#utility.yul\":29983:30050   */\n      tag_313\n      jump\t// in\n    tag_661:\n        /* \"#utility.yul\":29976:30050   */\n      swap2\n      pop\n        /* \"#utility.yul\":30059:30152   */\n      tag_662\n        /* \"#utility.yul\":30148:30151   */\n      dup3\n        /* \"#utility.yul\":30059:30152   */\n      tag_361\n      jump\t// in\n    tag_662:\n        /* \"#utility.yul\":30177:30179   */\n      0x20\n        /* \"#utility.yul\":30172:30175   */\n      dup3\n        /* \"#utility.yul\":30168:30180   */\n      add\n        /* \"#utility.yul\":30161:30180   */\n      swap1\n      pop\n        /* \"#utility.yul\":29820:30186   */\n      swap2\n      swap1\n      pop\n      jump\t// out\n        /* \"#utility.yul\":30192:30611   */\n    tag_206:\n        /* \"#utility.yul\":30358:30362   */\n      0x00\n        /* \"#utility.yul\":30396:30398   */\n      0x20\n        /* \"#utility.yul\":30385:30394   */\n      dup3\n        /* \"#utility.yul\":30381:30399   */\n      add\n        /* \"#utility.yul\":30373:30399   */\n      swap1\n      pop\n        /* \"#utility.yul\":30445:30454   */\n      dup2\n        /* \"#utility.yul\":30439:30443   */\n      dup2\n        /* \"#utility.yul\":30435:30455   */\n      sub\n        /* \"#utility.yul\":30431:30432   */\n      0x00\n        /* \"#utility.yul\":30420:30429   */\n      dup4\n        /* \"#utility.yul\":30416:30433   */\n      add\n        /* \"#utility.yul\":30409:30456   */\n      mstore\n        /* \"#utility.yul\":30473:30604   */\n      tag_664\n        /* \"#utility.yul\":30599:30603   */\n      dup2\n        /* \"#utility.yul\":30473:30604   */\n      tag_362\n      jump\t// in\n    tag_664:\n        /* \"#utility.yul\":30465:30604   */\n      swap1\n      pop\n        /* \"#utility.yul\":30192:30611   */\n      swap2\n      swap1\n      pop\n      jump\t// out\n        /* \"#utility.yul\":30617:30785   */\n    tag_363:\n        /* \"#utility.yul\":30757:30777   */\n      0x496e73756666696369656e742066756e64730000000000000000000000000000\n        /* \"#utility.yul\":30753:30754   */\n      0x00\n        /* \"#utility.yul\":30745:30751   */\n      dup3\n        /* \"#utility.yul\":30741:30755   */\n      add\n        /* \"#utility.yul\":30734:30778   */\n      mstore\n        /* \"#utility.yul\":30617:30785   */\n      pop\n      jump\t// out\n        /* \"#utility.yul\":30791:31157   */\n    tag_364:\n        /* \"#utility.yul\":30933:30936   */\n      0x00\n        /* \"#utility.yul\":30954:31021   */\n      tag_667\n        /* \"#utility.yul\":31018:31020   */\n      0x12\n        /* \"#utility.yul\":31013:31016   */\n      dup4\n        /* \"#utility.yul\":30954:31021   */\n      tag_313\n      jump\t// in\n    tag_667:\n        /* \"#utility.yul\":30947:31021   */\n      swap2\n      pop\n        /* \"#utility.yul\":31030:31123   */\n      tag_668\n        /* \"#utility.yul\":31119:31122   */\n      dup3\n        /* \"#utility.yul\":31030:31123   */\n      tag_363\n      jump\t// in\n    tag_668:\n        /* \"#utility.yul\":31148:31150   */\n      0x20\n        /* \"#utility.yul\":31143:31146   */\n      dup3\n        /* \"#utility.yul\":31139:31151   */\n      add\n        /* \"#utility.yul\":31132:31151   */\n      swap1\n      pop\n        /* \"#utility.yul\":30791:31157   */\n      swap2\n      swap1\n      pop\n      jump\t// out\n        /* \"#utility.yul\":31163:31582   */\n    tag_210:\n        /* \"#utility.yul\":31329:31333   */\n      0x00\n        /* \"#utility.yul\":31367:31369   */\n      0x20\n        /* \"#utility.yul\":31356:31365   */\n      dup3\n        /* \"#utility.yul\":31352:31370   */\n      add\n        /* \"#utility.yul\":31344:31370   */\n      swap1\n      pop\n        /* \"#utility.yul\":31416:31425   */\n      dup2\n        /* \"#utility.yul\":31410:31414   */\n      dup2\n        /* \"#utility.yul\":31406:31426   */\n      sub\n        /* \"#utility.yul\":31402:31403   */\n      0x00\n        /* \"#utility.yul\":31391:31400   */\n      dup4\n        /* \"#utility.yul\":31387:31404   */\n      add\n        /* \"#utility.yul\":31380:31427   */\n      mstore\n        /* \"#utility.yul\":31444:31575   */\n      tag_670\n        /* \"#utility.yul\":31570:31574   */\n      dup2\n        /* \"#utility.yul\":31444:31575   */\n      tag_364\n      jump\t// in\n    tag_670:\n        /* \"#utility.yul\":31436:31575   */\n      swap1\n      pop\n        /* \"#utility.yul\":31163:31582   */\n      swap2\n      swap1\n      pop\n      jump\t// out\n        /* \"#utility.yul\":31588:31753   */\n    tag_365:\n        /* \"#utility.yul\":31728:31745   */\n      0x5472616e73666572206661696c65640000000000000000000000000000000000\n        /* \"#utility.yul\":31724:31725   */\n      0x00\n        /* \"#utility.yul\":31716:31722   */\n      dup3\n        /* \"#utility.yul\":31712:31726   */\n      add\n        /* \"#utility.yul\":31705:31746   */\n      mstore\n        /* \"#utility.yul\":31588:31753   */\n      pop\n      jump\t// out\n        /* \"#utility.yul\":31759:32125   */\n    tag_366:\n        /* \"#utility.yul\":31901:31904   */\n      0x00\n        /* \"#utility.yul\":31922:31989   */\n      tag_673\n        /* \"#utility.yul\":31986:31988   */\n      0x0f\n        /* \"#utility.yul\":31981:31984   */\n      dup4\n        /* \"#utility.yul\":31922:31989   */\n      tag_313\n      jump\t// in\n    tag_673:\n        /* \"#utility.yul\":31915:31989   */\n      swap2\n      pop\n        /* \"#utility.yul\":31998:32091   */\n      tag_674\n        /* \"#utility.yul\":32087:32090   */\n      dup3\n        /* \"#utility.yul\":31998:32091   */\n      tag_365\n      jump\t// in\n    tag_674:\n        /* \"#utility.yul\":32116:32118   */\n      0x20\n        /* \"#utility.yul\":32111:32114   */\n      dup3\n        /* \"#utility.yul\":32107:32119   */\n      add\n        /* \"#utility.yul\":32100:32119   */\n      swap1\n      pop\n        /* \"#utility.yul\":31759:32125   */\n      swap2\n      swap1\n      pop\n      jump\t// out\n        /* \"#utility.yul\":32131:32550   */\n    tag_227:\n        /* \"#utility.yul\":32297:32301   */\n      0x00\n        /* \"#utility.yul\":32335:32337   */\n      0x20\n        /* \"#utility.yul\":32324:32333   */\n      dup3\n        /* \"#utility.yul\":32320:32338   */\n      add\n        /* \"#utility.yul\":32312:32338   */\n      swap1\n      pop\n        /* \"#utility.yul\":32384:32393   */\n      dup2\n        /* \"#utility.yul\":32378:32382   */\n      dup2\n        /* \"#utility.yul\":32374:32394   */\n      sub\n        /* \"#utility.yul\":32370:32371   */\n      0x00\n        /* \"#utility.yul\":32359:32368   */\n      dup4\n        /* \"#utility.yul\":32355:32372   */\n      add\n        /* \"#utility.yul\":32348:32395   */\n      mstore\n        /* \"#utility.yul\":32412:32543   */\n      tag_676\n        /* \"#utility.yul\":32538:32542   */\n      dup2\n        /* \"#utility.yul\":32412:32543   */\n      tag_366\n      jump\t// in\n    tag_676:\n        /* \"#utility.yul\":32404:32543   */\n      swap1\n      pop\n        /* \"#utility.yul\":32131:32550   */\n      swap2\n      swap1\n      pop\n      jump\t// out\n        /* \"#utility.yul\":32556:32837   */\n    tag_233:\n        /* \"#utility.yul\":32614:32619   */\n      0x00\n        /* \"#utility.yul\":32638:32661   */\n      tag_678\n        /* \"#utility.yul\":32656:32660   */\n      dup3\n        /* \"#utility.yul\":32638:32661   */\n      tag_295\n      jump\t// in\n    tag_678:\n        /* \"#utility.yul\":32630:32661   */\n      swap2\n      pop\n        /* \"#utility.yul\":32682:32707   */\n      tag_679\n        /* \"#utility.yul\":32698:32706   */\n      dup4\n        /* \"#utility.yul\":32682:32707   */\n      tag_309\n      jump\t// in\n    tag_679:\n        /* \"#utility.yul\":32670:32707   */\n      swap3\n      pop\n        /* \"#utility.yul\":32726:32830   */\n      tag_680\n        /* \"#utility.yul\":32763:32829   */\n      0xffffffffffffffffffffffffffffffffffffffffffffffffffffffffffffffff\n        /* \"#utility.yul\":32753:32761   */\n      dup5\n        /* \"#utility.yul\":32747:32751   */\n      dup5\n        /* \"#utility.yul\":32726:32830   */\n      tag_325\n      jump\t// in\n    tag_680:\n        /* \"#utility.yul\":32717:32830   */\n      swap1\n      pop\n        /* \"#utility.yul\":32556:32837   */\n      swap3\n      swap2\n      pop\n      pop\n      jump\t// out\n        /* \"#utility.yul\":32843:33023   */\n    tag_244:\n        /* \"#utility.yul\":32891:32968   */\n      0x4e487b7100000000000000000000000000000000000000000000000000000000\n        /* \"#utility.yul\":32888:32889   */\n      0x00\n        /* \"#utility.yul\":32881:32969   */\n      mstore\n        /* \"#utility.yul\":32988:32992   */\n      0x32\n        /* \"#utility.yul\":32985:32986   */\n      0x04\n        /* \"#utility.yul\":32978:32993   */\n      mstore\n        /* \"#utility.yul\":33012:33016   */\n      0x24\n        /* \"#utility.yul\":33009:33010   */\n      0x00\n        /* \"#utility.yul\":33002:33017   */\n      revert\n        /* \"#utility.yul\":33029:33173   */\n    tag_367:\n        /* \"#utility.yul\":33081:33085   */\n      0x00\n        /* \"#utility.yul\":33104:33107   */\n      dup2\n        /* \"#utility.yul\":33096:33107   */\n      swap1\n      pop\n        /* \"#utility.yul\":33127:33130   */\n      dup2\n        /* \"#utility.yul\":33124:33125   */\n      0x00\n        /* \"#utility.yul\":33117:33131   */\n      mstore\n        /* \"#utility.yul\":33161:33165   */\n      0x20\n        /* \"#utility.yul\":33158:33159   */\n      0x00\n        /* \"#utility.yul\":33148:33166   */\n      keccak256\n        /* \"#utility.yul\":33140:33166   */\n      swap1\n      pop\n        /* \"#utility.yul\":33029:33173   */\n      swap2\n      swap1\n      pop\n      jump\t// out\n        /* \"#utility.yul\":33201:34079   */\n    tag_368:\n        /* \"#utility.yul\":33306:33309   */\n      0x00\n        /* \"#utility.yul\":33343:33348   */\n      dup2\n        /* \"#utility.yul\":33337:33349   */\n      sload\n        /* \"#utility.yul\":33372:33408   */\n      tag_684\n        /* \"#utility.yul\":33398:33407   */\n      dup2\n        /* \"#utility.yul\":33372:33408   */\n      tag_92\n      jump\t// in\n    tag_684:\n        /* \"#utility.yul\":33424:33512   */\n      tag_685\n        /* \"#utility.yul\":33505:33511   */\n      dup2\n        /* \"#utility.yul\":33500:33503   */\n      dup7\n        /* \"#utility.yul\":33424:33512   */\n      tag_357\n      jump\t// in\n    tag_685:\n        /* \"#utility.yul\":33417:33512   */\n      swap5\n      pop\n        /* \"#utility.yul\":33543:33544   */\n      0x01\n        /* \"#utility.yul\":33532:33541   */\n      dup3\n        /* \"#utility.yul\":33528:33545   */\n      and\n        /* \"#utility.yul\":33559:33560   */\n      0x00\n        /* \"#utility.yul\":33554:33720   */\n      dup2\n      eq\n      tag_687\n      jumpi\n        /* \"#utility.yul\":33734:33735   */\n      0x01\n        /* \"#utility.yul\":33729:34073   */\n      dup2\n      eq\n      tag_688\n      jumpi\n        /* \"#utility.yul\":33521:34073   */\n      jump(tag_686)\n        /* \"#utility.yul\":33554:33720   */\n    tag_687:\n        /* \"#utility.yul\":33638:33642   */\n      0xff\n        /* \"#utility.yul\":33634:33643   */\n      not\n        /* \"#utility.yul\":33623:33632   */\n      dup4\n        /* \"#utility.yul\":33619:33644   */\n      and\n        /* \"#utility.yul\":33614:33617   */\n      dup7\n        /* \"#utility.yul\":33607:33645   */\n      mstore\n        /* \"#utility.yul\":33700:33706   */\n      dup2\n        /* \"#utility.yul\":33693:33707   */\n      iszero\n        /* \"#utility.yul\":33686:33708   */\n      iszero\n        /* \"#utility.yul\":33678:33684   */\n      dup3\n        /* \"#utility.yul\":33674:33709   */\n      mul\n        /* \"#utility.yul\":33669:33672   */\n      dup7\n        /* \"#utility.yul\":33665:33710   */\n      add\n        /* \"#utility.yul\":33658:33710   */\n      swap4\n      pop\n        /* \"#utility.yul\":33554:33720   */\n      jump(tag_686)\n        /* \"#utility.yul\":33729:34073   */\n    tag_688:\n        /* \"#utility.yul\":33796:33837   */\n      tag_689\n        /* \"#utility.yul\":33831:33836   */\n      dup6\n        /* \"#utility.yul\":33796:33837   */\n      tag_367\n      jump\t// in\n    tag_689:\n        /* \"#utility.yul\":33859:33860   */\n      0x00\n        /* \"#utility.yul\":33873:34027   */\n    tag_690:\n        /* \"#utility.yul\":33887:33893   */\n      dup4\n        /* \"#utility.yul\":33884:33885   */\n      dup2\n        /* \"#utility.yul\":33881:33894   */\n      lt\n        /* \"#utility.yul\":33873:34027   */\n      iszero\n      tag_692\n      jumpi\n        /* \"#utility.yul\":33961:33968   */\n      dup2\n        /* \"#utility.yul\":33955:33969   */\n      sload\n        /* \"#utility.yul\":33951:33952   */\n      dup2\n        /* \"#utility.yul\":33946:33949   */\n      dup10\n        /* \"#utility.yul\":33942:33953   */\n      add\n        /* \"#utility.yul\":33935:33970   */\n      mstore\n        /* \"#utility.yul\":34011:34012   */\n      0x01\n        /* \"#utility.yul\":34002:34009   */\n      dup3\n        /* \"#utility.yul\":33998:34013   */\n      add\n        /* \"#utility.yul\":33987:34013   */\n      swap2\n      pop\n        /* \"#utility.yul\":33909:33913   */\n      0x20\n        /* \"#utility.yul\":33906:33907   */\n      dup2\n        /* \"#utility.yul\":33902:33914   */\n      add\n        /* \"#utility.yul\":33897:33914   */\n      swap1\n      pop\n        /* \"#utility.yul\":33873:34027   */\n      jump(tag_690)\n    tag_692:\n        /* \"#utility.yul\":34056:34062   */\n      dup4\n        /* \"#utility.yul\":34051:34054   */\n      dup9\n        /* \"#utility.yul\":34047:34063   */\n      add\n        /* \"#utility.yul\":34040:34063   */\n      swap6\n      pop\n        /* \"#utility.yul\":33736:34073   */\n      pop\n      pop\n        /* \"#utility.yul\":33521:34073   */\n    tag_686:\n      pop\n        /* \"#utility.yul\":33310:34079   */\n      pop\n      pop\n        /* \"#utility.yul\":33201:34079   */\n      swap3\n      swap2\n      pop\n      pop\n      jump\t// out\n        /* \"#utility.yul\":34085:34358   */\n    tag_255:\n        /* \"#utility.yul\":34216:34219   */\n      0x00\n        /* \"#utility.yul\":34238:34332   */\n      tag_694\n        /* \"#utility.yul\":34328:34331   */\n      dup3\n        /* \"#utility.yul\":34319:34325   */\n      dup5\n        /* \"#utility.yul\":34238:34332   */\n      tag_368\n      jump\t// in\n    tag_694:\n        /* \"#utility.yul\":34231:34332   */\n      swap2\n      pop\n        /* \"#utility.yul\":34349:34352   */\n      dup2\n        /* \"#utility.yul\":34342:34352   */\n      swap1\n      pop\n        /* \"#utility.yul\":34085:34358   */\n      swap3\n      swap2\n      pop\n      pop\n      jump\t// out\n        /* \"#utility.yul\":34364:34552   */\n    tag_262:\n        /* \"#utility.yul\":34402:34405   */\n      0x00\n        /* \"#utility.yul\":34421:34439   */\n      tag_696\n        /* \"#utility.yul\":34437:34438   */\n      dup3\n        /* \"#utility.yul\":34421:34439   */\n      tag_309\n      jump\t// in\n    tag_696:\n        /* \"#utility.yul\":34416:34439   */\n      swap2\n      pop\n        /* \"#utility.yul\":34453:34471   */\n      tag_697\n        /* \"#utility.yul\":34469:34470   */\n      dup4\n        /* \"#utility.yul\":34453:34471   */\n      tag_309\n      jump\t// in\n    tag_697:\n        /* \"#utility.yul\":34448:34471   */\n      swap3\n      pop\n        /* \"#utility.yul\":34494:34495   */\n      dup3\n        /* \"#utility.yul\":34491:34492   */\n      dup3\n        /* \"#utility.yul\":34487:34496   */\n      add\n        /* \"#utility.yul\":34480:34496   */\n      swap1\n      pop\n        /* \"#utility.yul\":34517:34521   */\n      0xff\n        /* \"#utility.yul\":34512:34515   */\n      dup2\n        /* \"#utility.yul\":34509:34522   */\n      gt\n        /* \"#utility.yul\":34506:34545   */\n      iszero\n      tag_698\n      jumpi\n        /* \"#utility.yul\":34525:34543   */\n      tag_699\n      tag_322\n      jump\t// in\n    tag_699:\n        /* \"#utility.yul\":34506:34545   */\n    tag_698:\n        /* \"#utility.yul\":34364:34552   */\n      swap3\n      swap2\n      pop\n      pop\n      jump\t// out\n        /* \"#utility.yul\":34558:34738   */\n    tag_369:\n        /* \"#utility.yul\":34606:34683   */\n      0x4e487b7100000000000000000000000000000000000000000000000000000000\n        /* \"#utility.yul\":34603:34604   */\n      0x00\n        /* \"#utility.yul\":34596:34684   */\n      mstore\n        /* \"#utility.yul\":34703:34707   */\n      0x12\n        /* \"#utility.yul\":34700:34701   */\n      0x04\n        /* \"#utility.yul\":34693:34708   */\n      mstore\n        /* \"#utility.yul\":34727:34731   */\n      0x24\n        /* \"#utility.yul\":34724:34725   */\n      0x00\n        /* \"#utility.yul\":34717:34732   */\n      revert\n        /* \"#utility.yul\":34744:34929   */\n    tag_268:\n        /* \"#utility.yul\":34784:34785   */\n      0x00\n        /* \"#utility.yul\":34801:34821   */\n      tag_702\n        /* \"#utility.yul\":34819:34820   */\n      dup3\n        /* \"#utility.yul\":34801:34821   */\n      tag_295\n      jump\t// in\n    tag_702:\n        /* \"#utility.yul\":34796:34821   */\n      swap2\n      pop\n        /* \"#utility.yul\":34835:34855   */\n      tag_703\n        /* \"#utility.yul\":34853:34854   */\n      dup4\n        /* \"#utility.yul\":34835:34855   */\n      tag_295\n      jump\t// in\n    tag_703:\n        /* \"#utility.yul\":34830:34855   */\n      swap3\n      pop\n        /* \"#utility.yul\":34874:34875   */\n      dup3\n        /* \"#utility.yul\":34864:34899   */\n      tag_704\n      jumpi\n        /* \"#utility.yul\":34879:34897   */\n      tag_705\n      tag_369\n      jump\t// in\n    tag_705:\n        /* \"#utility.yul\":34864:34899   */\n    tag_704:\n        /* \"#utility.yul\":34921:34922   */\n      dup3\n        /* \"#utility.yul\":34918:34919   */\n      dup3\n        /* \"#utility.yul\":34914:34923   */\n      div\n        /* \"#utility.yul\":34909:34923   */\n      swap1\n      pop\n        /* \"#utility.yul\":34744:34929   */\n      swap3\n      swap2\n      pop\n      pop\n      jump\t// out\n\n    auxdata: 0xa26469706673582212208fd0e3e45f07e892bf3e071f5bb172264241e1e680e97a1c341e9b6f5b4e92ce64736f6c634300081f0033\n}\n",
				"bytecode": {
					"linkReferences": {},
					"object": "60806040526127115f555f6005553480156017575f5ffd5b503360065f6101000a81548173ffffffffffffffffffffffffffffffffffffffff021916908373ffffffffffffffffffffffffffffffffffffffff16021790555061306e806100655f395ff3fe6080604052600436106100e0575f3560e01c806350fac4f11161007e578063b90f1aaa11610058578063b90f1aaa14610292578063c57981b5146102c2578063c958e0d6146102ec578063d6ad8a9414610302576100e7565b806350fac4f1146101fe5780636352211e1461021a57806370a0823114610256576100e7565b80630a0eac29116100ba5780630a0eac291461017f57806323b872dd1461019b5780632d2d1451146101b757806342842e0e146101e2576100e7565b806301ffc9a7146100eb578063081812fc14610127578063095ea7b314610163576100e7565b366100e757005b5f5ffd5b3480156100f6575f5ffd5b50610111600480360381019061010c9190611f04565b61031e565b60405161011e9190611f49565b60405180910390f35b348015610132575f5ffd5b5061014d60048036038101906101489190611f95565b6103ff565b60405161015a9190611fff565b60405180910390f35b61017d60048036038101906101789190612042565b610499565b005b610199600480360381019061019491906120e1565b61071c565b005b6101b560048036038101906101b09190612152565b610a39565b005b3480156101c2575f5ffd5b506101cb610e47565b6040516101d99291906121b1565b60405180910390f35b6101fc60048036038101906101f79190612152565b610e93565b005b61021860048036038101906102139190611f95565b611440565b005b348015610225575f5ffd5b50610240600480360381019061023b9190611f95565b61170c565b60405161024d9190611fff565b60405180910390f35b348015610261575f5ffd5b5061027c600480360381019061027791906121d8565b6117b8565b6040516102899190612212565b60405180910390f35b6102ac60048036038101906102a7919061222b565b61186c565b6040516102b99190612212565b60405180910390f35b3480156102cd575f5ffd5b506102d66119c0565b6040516102e39190612212565b60405180910390f35b3480156102f7575f5ffd5b506103006119c6565b005b61031c600480360381019061031791906122ac565b611b1f565b005b5f817bffffffffffffffffffffffffffffffffffffffffffffffffffffffff19167f01ffc9a7000000000000000000000000000000000000000000000000000000007bffffffffffffffffffffffffffffffffffffffffffffffffffffffff191614806103e85750817bffffffffffffffffffffffffffffffffffffffffffffffffffffffff19167f73884ab3000000000000000000000000000000000000000000000000000000007bffffffffffffffffffffffffffffffffffffffffffffffffffffffff1916145b156103f657600190506103fa565b5f90505b919050565b5f5f60045f8481526020019081526020015f205f01805461041f90612317565b905003610461576040517f08c379a0000000000000000000000000000000000000000000000000000000008152600401610458906123a1565b60405180910390fd5b60035f8381526020019081526020015f205f9054906101000a900473ffffffffffffffffffffffffffffffffffffffff169050919050565b3373ffffffffffffffffffffffffffffffffffffffff1660025f8381526020019081526020015f205f9054906101000a900473ffffffffffffffffffffffffffffffffffffffff1673ffffffffffffffffffffffffffffffffffffffff1614610537576040517f08c379a000000000000000000000000000000000000000000000000000000000815260040161052e90612409565b60405180910390fd5b5f73ffffffffffffffffffffffffffffffffffffffff168273ffffffffffffffffffffffffffffffffffffffff161415806105ce57505f73ffffffffffffffffffffffffffffffffffffffff1660035f8381526020019081526020015f205f9054906101000a900473ffffffffffffffffffffffffffffffffffffffff1673ffffffffffffffffffffffffffffffffffffffff1614155b61060d576040517f08c379a000000000000000000000000000000000000000000000000000000000815260040161060490612471565b60405180910390fd5b61062c60045f8381526020019081526020015f20600101600101611ca2565b34101561066e576040517f08c379a0000000000000000000000000000000000000000000000000000000008152600401610665906124d9565b60405180910390fd5b8160035f8381526020019081526020015f205f6101000a81548173ffffffffffffffffffffffffffffffffffffffff021916908373ffffffffffffffffffffffffffffffffffffffff160217905550808273ffffffffffffffffffffffffffffffffffffffff163373ffffffffffffffffffffffffffffffffffffffff167f8c5be1e5ebec7d5bd14f71427d1e84f3dd0314c0f7b2291e5b200ac8c7c3b92560405160405180910390a45050565b3373ffffffffffffffffffffffffffffffffffffffff1660035f8681526020019081526020015f205f9054906101000a900473ffffffffffffffffffffffffffffffffffffffff1673ffffffffffffffffffffffffffffffffffffffff1614806107e157503373ffffffffffffffffffffffffffffffffffffffff1660025f8681526020019081526020015f205f9054906101000a900473ffffffffffffffffffffffffffffffffffffffff1673ffffffffffffffffffffffffffffffffffffffff16145b610820576040517f08c379a000000000000000000000000000000000000000000000000000000000815260040161081790612409565b60405180910390fd5b5f60045f8681526020019081526020015f205f01805461083f90612317565b905003610881576040517f08c379a0000000000000000000000000000000000000000000000000000000008152600401610878906123a1565b60405180910390fd5b5f60045f8681526020019081526020015f206001015f018054905090508060026108ab9190612653565b826108b6919061269d565b3410156108f8576040517f08c379a00000000000000000000000000000000000000000000000000000000081526004016108ef90612728565b60405180910390fd5b5f61096485858080601f0160208091040260200160405190810160405280939291908181526020018383808284375f81840152601f19601f8201169050808301925050505050505060045f8981526020019081526020015f206001015f01611cf590919063ffffffff16565b905080156109a7576040517f08c379a000000000000000000000000000000000000000000000000000000000815260040161099e90612790565b60405180910390fd5b60045f8781526020019081526020015f206001015f01858590918060018154018082558091505060019003905f5260205f20015f9091929091929091929091925091826109f5929190612985565b5060045f8781526020019081526020015f2060010160010183908060018154018082558091505060019003905f5260205f20015f9091909190915055505050505050565b5f73ffffffffffffffffffffffffffffffffffffffff168273ffffffffffffffffffffffffffffffffffffffff1603610aa7576040517f08c379a0000000000000000000000000000000000000000000000000000000008152600401610a9e90612a9c565b60405180910390fd5b8273ffffffffffffffffffffffffffffffffffffffff1660025f8381526020019081526020015f205f9054906101000a900473ffffffffffffffffffffffffffffffffffffffff1673ffffffffffffffffffffffffffffffffffffffff16148015610bd357503373ffffffffffffffffffffffffffffffffffffffff1660025f8381526020019081526020015f205f9054906101000a900473ffffffffffffffffffffffffffffffffffffffff1673ffffffffffffffffffffffffffffffffffffffff161480610bd257503373ffffffffffffffffffffffffffffffffffffffff1660035f8381526020019081526020015f205f9054906101000a900473ffffffffffffffffffffffffffffffffffffffff1673ffffffffffffffffffffffffffffffffffffffff16145b5b610c12576040517f08c379a0000000000000000000000000000000000000000000000000000000008152600401610c0990612409565b60405180910390fd5b610c3160045f8381526020019081526020015f20600101600101611ca2565b341015610c73576040517f08c379a0000000000000000000000000000000000000000000000000000000008152600401610c6a906124d9565b60405180910390fd5b6001805f60025f8581526020019081526020015f205f9054906101000a900473ffffffffffffffffffffffffffffffffffffffff1673ffffffffffffffffffffffffffffffffffffffff1673ffffffffffffffffffffffffffffffffffffffff1681526020019081526020015f205f828254610cef9190612aba565b925050819055506001805f8473ffffffffffffffffffffffffffffffffffffffff1673ffffffffffffffffffffffffffffffffffffffff1681526020019081526020015f205f828254610d429190612aed565b925050819055508160025f8381526020019081526020015f205f6101000a81548173ffffffffffffffffffffffffffffffffffffffff021916908373ffffffffffffffffffffffffffffffffffffffff1602179055505f60035f8381526020019081526020015f205f6101000a81548173ffffffffffffffffffffffffffffffffffffffff021916908373ffffffffffffffffffffffffffffffffffffffff160217905550808273ffffffffffffffffffffffffffffffffffffffff168473ffffffffffffffffffffffffffffffffffffffff167fddf252ad1be2c89b69c2b068fc378daa952ba7f163c4a11628f55a4df523b3ef60405160405180910390a4505050565b5f5f7f01ffc9a70000000000000000000000000000000000000000000000000000000091507f73884ab30000000000000000000000000000000000000000000000000000000090509091565b5f73ffffffffffffffffffffffffffffffffffffffff168273ffffffffffffffffffffffffffffffffffffffff1603610f01576040517f08c379a0000000000000000000000000000000000000000000000000000000008152600401610ef890612a9c565b60405180910390fd5b8273ffffffffffffffffffffffffffffffffffffffff1660025f8381526020019081526020015f205f9054906101000a900473ffffffffffffffffffffffffffffffffffffffff1673ffffffffffffffffffffffffffffffffffffffff1614801561102d57503373ffffffffffffffffffffffffffffffffffffffff1660025f8381526020019081526020015f205f9054906101000a900473ffffffffffffffffffffffffffffffffffffffff1673ffffffffffffffffffffffffffffffffffffffff16148061102c57503373ffffffffffffffffffffffffffffffffffffffff1660035f8381526020019081526020015f205f9054906101000a900473ffffffffffffffffffffffffffffffffffffffff1673ffffffffffffffffffffffffffffffffffffffff16145b5b61106c576040517f08c379a000000000000000000000000000000000000000000000000000000000815260040161106390612409565b60405180910390fd5b61108b60045f8381526020019081526020015f20600101600101611ca2565b3410156110cd576040517f08c379a00000000000000000000000000000000000000000000000000000000081526004016110c4906124d9565b60405180910390fd5b5f8273ffffffffffffffffffffffffffffffffffffffff163b111561126c578173ffffffffffffffffffffffffffffffffffffffff1663150b7a023385846040518463ffffffff1660e01b815260040161112993929190612b53565b6020604051808303815f875af192505050801561116457506040513d601f19601f820116820180604052508101906111619190612baf565b60015b6111e3573d805f8114611192576040519150601f19603f3d011682016040523d82523d5f602084013e611197565b606091505b505f8151036111db576040517f08c379a00000000000000000000000000000000000000000000000000000000081526004016111d290612c24565b60405180910390fd5b805160208201fd5b63150b7a0260e01b7bffffffffffffffffffffffffffffffffffffffffffffffffffffffff1916817bffffffffffffffffffffffffffffffffffffffffffffffffffffffff19161461126a576040517f08c379a000000000000000000000000000000000000000000000000000000000815260040161126190612c8c565b60405180910390fd5b505b6001805f60025f8581526020019081526020015f205f9054906101000a900473ffffffffffffffffffffffffffffffffffffffff1673ffffffffffffffffffffffffffffffffffffffff1673ffffffffffffffffffffffffffffffffffffffff1681526020019081526020015f205f8282546112e89190612aba565b925050819055506001805f8473ffffffffffffffffffffffffffffffffffffffff1673ffffffffffffffffffffffffffffffffffffffff1681526020019081526020015f205f82825461133b9190612aed565b925050819055508160025f8381526020019081526020015f205f6101000a81548173ffffffffffffffffffffffffffffffffffffffff021916908373ffffffffffffffffffffffffffffffffffffffff1602179055505f60035f8381526020019081526020015f205f6101000a81548173ffffffffffffffffffffffffffffffffffffffff021916908373ffffffffffffffffffffffffffffffffffffffff160217905550808273ffffffffffffffffffffffffffffffffffffffff168473ffffffffffffffffffffffffffffffffffffffff167fddf252ad1be2c89b69c2b068fc378daa952ba7f163c4a11628f55a4df523b3ef60405160405180910390a4505050565b5f73ffffffffffffffffffffffffffffffffffffffff1660025f8381526020019081526020015f205f9054906101000a900473ffffffffffffffffffffffffffffffffffffffff1673ffffffffffffffffffffffffffffffffffffffff161415801561150757503373ffffffffffffffffffffffffffffffffffffffff1660025f8381526020019081526020015f205f9054906101000a900473ffffffffffffffffffffffffffffffffffffffff1673ffffffffffffffffffffffffffffffffffffffff16145b611546576040517f08c379a000000000000000000000000000000000000000000000000000000000815260040161153d90612409565b60405180910390fd5b600160055f8282546115589190612aba565b925050819055506001805f3373ffffffffffffffffffffffffffffffffffffffff1673ffffffffffffffffffffffffffffffffffffffff1681526020019081526020015f205f8282546115ab9190612aba565b9250508190555060025f8281526020019081526020015f205f6101000a81549073ffffffffffffffffffffffffffffffffffffffff021916905560035f8281526020019081526020015f205f6101000a81549073ffffffffffffffffffffffffffffffffffffffff021916905560045f8281526020019081526020015f205f5f82015f6116389190611df0565b600182015f5f82015f61164b9190611e2d565b600182015f61165a9190611e4b565b505050505f3373ffffffffffffffffffffffffffffffffffffffff166103e860405161168590612cd4565b5f6040518083038185875af1925050503d805f81146116bf576040519150601f19603f3d011682016040523d82523d5f602084013e6116c4565b606091505b5050905080611708576040517f08c379a00000000000000000000000000000000000000000000000000000000081526004016116ff90612d32565b60405180910390fd5b5050565b5f5f60025f8481526020019081526020015f205f9054906101000a900473ffffffffffffffffffffffffffffffffffffffff1690505f73ffffffffffffffffffffffffffffffffffffffff168173ffffffffffffffffffffffffffffffffffffffff16036117af576040517f08c379a00000000000000000000000000000000000000000000000000000000081526004016117a6906123a1565b60405180910390fd5b80915050919050565b5f5f73ffffffffffffffffffffffffffffffffffffffff168273ffffffffffffffffffffffffffffffffffffffff1603611827576040517f08c379a000000000000000000000000000000000000000000000000000000000815260040161181e90612d9a565b60405180910390fd5b60015f8373ffffffffffffffffffffffffffffffffffffffff1673ffffffffffffffffffffffffffffffffffffffff1681526020019081526020015f20549050919050565b5f6103e83410156118b2576040517f08c379a00000000000000000000000000000000000000000000000000000000081526004016118a990612e02565b60405180910390fd5b6001805f3373ffffffffffffffffffffffffffffffffffffffff1673ffffffffffffffffffffffffffffffffffffffff1681526020019081526020015f205f8282546118fe9190612aed565b925050819055503360025f5f5481526020019081526020015f205f6101000a81548173ffffffffffffffffffffffffffffffffffffffff021916908373ffffffffffffffffffffffffffffffffffffffff160217905550828260045f5f5481526020019081526020015f205f019182611978929190612985565b50600160055f82825461198b9190612aed565b9250508190555060015f5f8282546119a39190612aed565b9250508190555060015f546119b89190612aba565b905092915050565b6103e881565b60065f9054906101000a900473ffffffffffffffffffffffffffffffffffffffff1673ffffffffffffffffffffffffffffffffffffffff163373ffffffffffffffffffffffffffffffffffffffff1614611a55576040517f08c379a0000000000000000000000000000000000000000000000000000000008152600401611a4c90612409565b60405180910390fd5b5f6103e8600554611a66919061269d565b47611a719190612aba565b90505f3373ffffffffffffffffffffffffffffffffffffffff1682604051611a9890612cd4565b5f6040518083038185875af1925050503d805f8114611ad2576040519150601f19603f3d011682016040523d82523d5f602084013e611ad7565b606091505b5050905080611b1b576040517f08c379a0000000000000000000000000000000000000000000000000000000008152600401611b1290612e6a565b60405180910390fd5b5050565b3373ffffffffffffffffffffffffffffffffffffffff1660035f8481526020019081526020015f205f9054906101000a900473ffffffffffffffffffffffffffffffffffffffff1673ffffffffffffffffffffffffffffffffffffffff161480611be457503373ffffffffffffffffffffffffffffffffffffffff1660025f8481526020019081526020015f205f9054906101000a900473ffffffffffffffffffffffffffffffffffffffff1673ffffffffffffffffffffffffffffffffffffffff16145b611c23576040517f08c379a0000000000000000000000000000000000000000000000000000000008152600401611c1a90612409565b60405180910390fd5b60028160ff16611c339190612e88565b341015611c75576040517f08c379a0000000000000000000000000000000000000000000000000000000008152600401611c6c90612728565b60405180910390fd5b611c9e8160045f8581526020019081526020015f20600101600101611d6c90919063ffffffff16565b5050565b5f5f5f5f90505b8380549050811015611ceb57838181548110611cc857611cc7612ed2565b5b905f5260205f20015482611cdc9190612aed565b91508080600101915050611ca9565b5080915050919050565b5f5f828051906020012090505f5f90505b8480549050811015611d605781858281548110611d2657611d25612ed2565b5b905f5260205f2001604051611d3b9190612f91565b604051809103902003611d5357600192505050611d66565b8080600101915050611d06565b505f9150505b92915050565b5f5f90505b8280549050811015611deb576064826064611d8c9190612fa7565b60ff16848381548110611da257611da1612ed2565b5b905f5260205f200154611db5919061269d565b611dbf9190613008565b838281548110611dd257611dd1612ed2565b5b905f5260205f2001819055508080600101915050611d71565b505050565b508054611dfc90612317565b5f825580601f10611e0d5750611e2a565b601f0160209004905f5260205f2090810190611e299190611e69565b5b50565b5080545f8255905f5260205f2090810190611e489190611e84565b50565b5080545f8255905f5260205f2090810190611e669190611e69565b50565b5b80821115611e80575f815f905550600101611e6a565b5090565b5b80821115611ea3575f8181611e9a9190611df0565b50600101611e85565b5090565b5f5ffd5b5f5ffd5b5f7fffffffff0000000000000000000000000000000000000000000000000000000082169050919050565b611ee381611eaf565b8114611eed575f5ffd5b50565b5f81359050611efe81611eda565b92915050565b5f60208284031215611f1957611f18611ea7565b5b5f611f2684828501611ef0565b91505092915050565b5f8115159050919050565b611f4381611f2f565b82525050565b5f602082019050611f5c5f830184611f3a565b92915050565b5f819050919050565b611f7481611f62565b8114611f7e575f5ffd5b50565b5f81359050611f8f81611f6b565b92915050565b5f60208284031215611faa57611fa9611ea7565b5b5f611fb784828501611f81565b91505092915050565b5f73ffffffffffffffffffffffffffffffffffffffff82169050919050565b5f611fe982611fc0565b9050919050565b611ff981611fdf565b82525050565b5f6020820190506120125f830184611ff0565b92915050565b61202181611fdf565b811461202b575f5ffd5b50565b5f8135905061203c81612018565b92915050565b5f5f6040838503121561205857612057611ea7565b5b5f6120658582860161202e565b925050602061207685828601611f81565b9150509250929050565b5f5ffd5b5f5ffd5b5f5ffd5b5f5f83601f8401126120a1576120a0612080565b5b8235905067ffffffffffffffff8111156120be576120bd612084565b5b6020830191508360018202830111156120da576120d9612088565b5b9250929050565b5f5f5f5f606085870312156120f9576120f8611ea7565b5b5f61210687828801611f81565b945050602085013567ffffffffffffffff81111561212757612126611eab565b5b6121338782880161208c565b9350935050604061214687828801611f81565b91505092959194509250565b5f5f5f6060848603121561216957612168611ea7565b5b5f6121768682870161202e565b93505060206121878682870161202e565b925050604061219886828701611f81565b9150509250925092565b6121ab81611eaf565b82525050565b5f6040820190506121c45f8301856121a2565b6121d160208301846121a2565b9392505050565b5f602082840312156121ed576121ec611ea7565b5b5f6121fa8482850161202e565b91505092915050565b61220c81611f62565b82525050565b5f6020820190506122255f830184612203565b92915050565b5f5f6020838503121561224157612240611ea7565b5b5f83013567ffffffffffffffff81111561225e5761225d611eab565b5b61226a8582860161208c565b92509250509250929050565b5f60ff82169050919050565b61228b81612276565b8114612295575f5ffd5b50565b5f813590506122a681612282565b92915050565b5f5f604083850312156122c2576122c1611ea7565b5b5f6122cf85828601611f81565b92505060206122e085828601612298565b9150509250929050565b7f4e487b71000000000000000000000000000000000000000000000000000000005f52602260045260245ffd5b5f600282049050600182168061232e57607f821691505b602082108103612341576123406122ea565b5b50919050565b5f82825260208201905092915050565b7f496e76616c696420746f6b656e000000000000000000000000000000000000005f82015250565b5f61238b600d83612347565b915061239682612357565b602082019050919050565b5f6020820190508181035f8301526123b88161237f565b9050919050565b7f556e617574686f72697a656420616363657373000000000000000000000000005f82015250565b5f6123f3601383612347565b91506123fe826123bf565b602082019050919050565b5f6020820190508181035f830152612420816123e7565b9050919050565b7f4e6f7468696e6720746f20617070726f766500000000000000000000000000005f82015250565b5f61245b601283612347565b915061246682612427565b602082019050919050565b5f6020820190508181035f8301526124888161244f565b9050919050565b7f4e6f7420656e6f7567682066756e6473000000000000000000000000000000005f82015250565b5f6124c3601083612347565b91506124ce8261248f565b602082019050919050565b5f6020820190508181035f8301526124f0816124b7565b9050919050565b7f4e487b71000000000000000000000000000000000000000000000000000000005f52601160045260245ffd5b5f8160011c9050919050565b5f5f8291508390505b600185111561257957808604811115612555576125546124f7565b5b60018516156125645780820291505b808102905061257285612524565b9450612539565b94509492505050565b5f82612591576001905061264c565b8161259e575f905061264c565b81600181146125b457600281146125be576125ed565b600191505061264c565b60ff8411156125d0576125cf6124f7565b5b8360020a9150848211156125e7576125e66124f7565b5b5061264c565b5060208310610133831016604e8410600b84101617156126225782820a90508381111561261d5761261c6124f7565b5b61264c565b61262f8484846001612530565b92509050818404811115612646576126456124f7565b5b81810290505b9392505050565b5f61265d82611f62565b915061266883611f62565b92506126957fffffffffffffffffffffffffffffffffffffffffffffffffffffffffffffffff8484612582565b905092915050565b5f6126a782611f62565b91506126b283611f62565b92508282026126c081611f62565b915082820484148315176126d7576126d66124f7565b5b5092915050565b7f4e6f7420656e6f756768206d6f6e6579000000000000000000000000000000005f82015250565b5f612712601083612347565b915061271d826126de565b602082019050919050565b5f6020820190508181035f83015261273f81612706565b9050919050565b7f416c7265616479206578697374730000000000000000000000000000000000005f82015250565b5f61277a600e83612347565b915061278582612746565b602082019050919050565b5f6020820190508181035f8301526127a78161276e565b9050919050565b5f82905092915050565b7f4e487b71000000000000000000000000000000000000000000000000000000005f52604160045260245ffd5b5f819050815f5260205f209050919050565b5f6020601f8301049050919050565b5f82821b905092915050565b5f600883026128417fffffffffffffffffffffffffffffffffffffffffffffffffffffffffffffffff82612806565b61284b8683612806565b95508019841693508086168417925050509392505050565b5f819050919050565b5f61288661288161287c84611f62565b612863565b611f62565b9050919050565b5f819050919050565b61289f8361286c565b6128b36128ab8261288d565b848454612812565b825550505050565b5f5f905090565b6128ca6128bb565b6128d5818484612896565b505050565b5b818110156128f8576128ed5f826128c2565b6001810190506128db565b5050565b601f82111561293d5761290e816127e5565b612917846127f7565b81016020851015612926578190505b61293a612932856127f7565b8301826128da565b50505b505050565b5f82821c905092915050565b5f61295d5f1984600802612942565b1980831691505092915050565b5f612975838361294e565b9150826002028217905092915050565b61298f83836127ae565b67ffffffffffffffff8111156129a8576129a76127b8565b5b6129b28254612317565b6129bd8282856128fc565b5f601f8311600181146129ea575f84156129d8578287013590505b6129e2858261296a565b865550612a49565b601f1984166129f8866127e5565b5f5b82811015612a1f578489013582556001820191506020850194506020810190506129fa565b86831015612a3c5784890135612a38601f89168261294e565b8355505b6001600288020188555050505b50505050505050565b7f496e76616c696420726563697069656e740000000000000000000000000000005f82015250565b5f612a86601183612347565b9150612a9182612a52565b602082019050919050565b5f6020820190508181035f830152612ab381612a7a565b9050919050565b5f612ac482611f62565b9150612acf83611f62565b9250828203905081811115612ae757612ae66124f7565b5b92915050565b5f612af782611f62565b9150612b0283611f62565b9250828201905080821115612b1a57612b196124f7565b5b92915050565b5f82825260208201905092915050565b50565b5f612b3e5f83612b20565b9150612b4982612b30565b5f82019050919050565b5f608082019050612b665f830186611ff0565b612b736020830185611ff0565b612b806040830184612203565b8181036060830152612b9181612b33565b9050949350505050565b5f81519050612ba981611eda565b92915050565b5f60208284031215612bc457612bc3611ea7565b5b5f612bd184828501612b9b565b91505092915050565b7f496e76616c6964207265636965766572000000000000000000000000000000005f82015250565b5f612c0e601083612347565b9150612c1982612bda565b602082019050919050565b5f6020820190508181035f830152612c3b81612c02565b9050919050565b7f546f6b656e2072656a65637465640000000000000000000000000000000000005f82015250565b5f612c76600e83612347565b9150612c8182612c42565b602082019050919050565b5f6020820190508181035f830152612ca381612c6a565b9050919050565b5f81905092915050565b5f612cbf5f83612caa565b9150612cca82612b30565b5f82019050919050565b5f612cde82612cb4565b9150819050919050565b7f5061796d656e74206661696c65640000000000000000000000000000000000005f82015250565b5f612d1c600e83612347565b9150612d2782612ce8565b602082019050919050565b5f6020820190508181035f830152612d4981612d10565b9050919050565b7f496e76616c6964206164647265737300000000000000000000000000000000005f82015250565b5f612d84600f83612347565b9150612d8f82612d50565b602082019050919050565b5f6020820190508181035f830152612db181612d78565b9050919050565b7f496e73756666696369656e742066756e647300000000000000000000000000005f82015250565b5f612dec601283612347565b9150612df782612db8565b602082019050919050565b5f6020820190508181035f830152612e1981612de0565b9050919050565b7f5472616e73666572206661696c656400000000000000000000000000000000005f82015250565b5f612e54600f83612347565b9150612e5f82612e20565b602082019050919050565b5f6020820190508181035f830152612e8181612e48565b9050919050565b5f612e9282611f62565b9150612e9d83612276565b9250612eca7fffffffffffffffffffffffffffffffffffffffffffffffffffffffffffffffff8484612582565b905092915050565b7f4e487b71000000000000000000000000000000000000000000000000000000005f52603260045260245ffd5b5f819050815f5260205f209050919050565b5f8154612f1d81612317565b612f278186612caa565b9450600182165f8114612f415760018114612f5657612f88565b60ff1983168652811515820286019350612f88565b612f5f85612eff565b5f5b83811015612f8057815481890152600182019150602081019050612f61565b838801955050505b50505092915050565b5f612f9c8284612f11565b915081905092915050565b5f612fb182612276565b9150612fbc83612276565b9250828201905060ff811115612fd557612fd46124f7565b5b92915050565b7f4e487b71000000000000000000000000000000000000000000000000000000005f52601260045260245ffd5b5f61301282611f62565b915061301d83611f62565b92508261302d5761302c612fdb565b5b82820490509291505056fea26469706673582212208fd0e3e45f07e892bf3e071f5bb172264241e1e680e97a1c341e9b6f5b4e92ce64736f6c634300081f0033",
					"opcodes": "PUSH1 0x80 PUSH1 0x40 MSTORE PUSH2 0x2711 PUSH0 SSTORE PUSH0 PUSH1 0x5 SSTORE CALLVALUE DUP1 ISZERO PUSH1 0x17 JUMPI PUSH0 PUSH0 REVERT JUMPDEST POP CALLER PUSH1 0x6 PUSH0 PUSH2 0x100 EXP DUP2 SLOAD DUP2 PUSH20 0xFFFFFFFFFFFFFFFFFFFFFFFFFFFFFFFFFFFFFFFF MUL NOT AND SWAP1 DUP4 PUSH20 0xFFFFFFFFFFFFFFFFFFFFFFFFFFFFFFFFFFFFFFFF AND MUL OR SWAP1 SSTORE POP PUSH2 0x306E DUP1 PUSH2 0x65 PUSH0 CODECOPY PUSH0 RETURN INVALID PUSH1 0x80 PUSH1 0x40 MSTORE PUSH1 0x4 CALLDATASIZE LT PUSH2 0xE0 JUMPI PUSH0 CALLDATALOAD PUSH1 0xE0 SHR DUP1 PUSH4 0x50FAC4F1 GT PUSH2 0x7E JUMPI DUP1 PUSH4 0xB90F1AAA GT PUSH2 0x58 JUMPI DUP1 PUSH4 0xB90F1AAA EQ PUSH2 0x292 JUMPI DUP1 PUSH4 0xC57981B5 EQ PUSH2 0x2C2 JUMPI DUP1 PUSH4 0xC958E0D6 EQ PUSH2 0x2EC JUMPI DUP1 PUSH4 0xD6AD8A94 EQ PUSH2 0x302 JUMPI PUSH2 0xE7 JUMP JUMPDEST DUP1 PUSH4 0x50FAC4F1 EQ PUSH2 0x1FE JUMPI DUP1 PUSH4 0x6352211E EQ PUSH2 0x21A JUMPI DUP1 PUSH4 0x70A08231 EQ PUSH2 0x256 JUMPI PUSH2 0xE7 JUMP JUMPDEST DUP1 PUSH4 0xA0EAC29 GT PUSH2 0xBA JUMPI DUP1 PUSH4 0xA0EAC29 EQ PUSH2 0x17F JUMPI DUP1 PUSH4 0x23B872DD EQ PUSH2 0x19B JUMPI DUP1 PUSH4 0x2D2D1451 EQ PUSH2 0x1B7 JUMPI DUP1 PUSH4 0x42842E0E EQ PUSH2 0x1E2 JUMPI PUSH2 0xE7 JUMP JUMPDEST DUP1 PUSH4 0x1FFC9A7 EQ PUSH2 0xEB JUMPI DUP1 PUSH4 0x81812FC EQ PUSH2 0x127 JUMPI DUP1 PUSH4 0x95EA7B3 EQ PUSH2 0x163 JUMPI PUSH2 0xE7 JUMP JUMPDEST CALLDATASIZE PUSH2 0xE7 JUMPI STOP JUMPDEST PUSH0 PUSH0 REVERT JUMPDEST CALLVALUE DUP1 ISZERO PUSH2 0xF6 JUMPI PUSH0 PUSH0 REVERT JUMPDEST POP PUSH2 0x111 PUSH1 0x4 DUP1 CALLDATASIZE SUB DUP2 ADD SWAP1 PUSH2 0x10C SWAP2 SWAP1 PUSH2 0x1F04 JUMP JUMPDEST PUSH2 0x31E JUMP JUMPDEST PUSH1 0x40 MLOAD PUSH2 0x11E SWAP2 SWAP1 PUSH2 0x1F49 JUMP JUMPDEST PUSH1 0x40 MLOAD DUP1 SWAP2 SUB SWAP1 RETURN JUMPDEST CALLVALUE DUP1 ISZERO PUSH2 0x132 JUMPI PUSH0 PUSH0 REVERT JUMPDEST POP PUSH2 0x14D PUSH1 0x4 DUP1 CALLDATASIZE SUB DUP2 ADD SWAP1 PUSH2 0x148 SWAP2 SWAP1 PUSH2 0x1F95 JUMP JUMPDEST PUSH2 0x3FF JUMP JUMPDEST PUSH1 0x40 MLOAD PUSH2 0x15A SWAP2 SWAP1 PUSH2 0x1FFF JUMP JUMPDEST PUSH1 0x40 MLOAD DUP1 SWAP2 SUB SWAP1 RETURN JUMPDEST PUSH2 0x17D PUSH1 0x4 DUP1 CALLDATASIZE SUB DUP2 ADD SWAP1 PUSH2 0x178 SWAP2 SWAP1 PUSH2 0x2042 JUMP JUMPDEST PUSH2 0x499 JUMP JUMPDEST STOP JUMPDEST PUSH2 0x199 PUSH1 0x4 DUP1 CALLDATASIZE SUB DUP2 ADD SWAP1 PUSH2 0x194 SWAP2 SWAP1 PUSH2 0x20E1 JUMP JUMPDEST PUSH2 0x71C JUMP JUMPDEST STOP JUMPDEST PUSH2 0x1B5 PUSH1 0x4 DUP1 CALLDATASIZE SUB DUP2 ADD SWAP1 PUSH2 0x1B0 SWAP2 SWAP1 PUSH2 0x2152 JUMP JUMPDEST PUSH2 0xA39 JUMP JUMPDEST STOP JUMPDEST CALLVALUE DUP1 ISZERO PUSH2 0x1C2 JUMPI PUSH0 PUSH0 REVERT JUMPDEST POP PUSH2 0x1CB PUSH2 0xE47 JUMP JUMPDEST PUSH1 0x40 MLOAD PUSH2 0x1D9 SWAP3 SWAP2 SWAP1 PUSH2 0x21B1 JUMP JUMPDEST PUSH1 0x40 MLOAD DUP1 SWAP2 SUB SWAP1 RETURN JUMPDEST PUSH2 0x1FC PUSH1 0x4 DUP1 CALLDATASIZE SUB DUP2 ADD SWAP1 PUSH2 0x1F7 SWAP2 SWAP1 PUSH2 0x2152 JUMP JUMPDEST PUSH2 0xE93 JUMP JUMPDEST STOP JUMPDEST PUSH2 0x218 PUSH1 0x4 DUP1 CALLDATASIZE SUB DUP2 ADD SWAP1 PUSH2 0x213 SWAP2 SWAP1 PUSH2 0x1F95 JUMP JUMPDEST PUSH2 0x1440 JUMP JUMPDEST STOP JUMPDEST CALLVALUE DUP1 ISZERO PUSH2 0x225 JUMPI PUSH0 PUSH0 REVERT JUMPDEST POP PUSH2 0x240 PUSH1 0x4 DUP1 CALLDATASIZE SUB DUP2 ADD SWAP1 PUSH2 0x23B SWAP2 SWAP1 PUSH2 0x1F95 JUMP JUMPDEST PUSH2 0x170C JUMP JUMPDEST PUSH1 0x40 MLOAD PUSH2 0x24D SWAP2 SWAP1 PUSH2 0x1FFF JUMP JUMPDEST PUSH1 0x40 MLOAD DUP1 SWAP2 SUB SWAP1 RETURN JUMPDEST CALLVALUE DUP1 ISZERO PUSH2 0x261 JUMPI PUSH0 PUSH0 REVERT JUMPDEST POP PUSH2 0x27C PUSH1 0x4 DUP1 CALLDATASIZE SUB DUP2 ADD SWAP1 PUSH2 0x277 SWAP2 SWAP1 PUSH2 0x21D8 JUMP JUMPDEST PUSH2 0x17B8 JUMP JUMPDEST PUSH1 0x40 MLOAD PUSH2 0x289 SWAP2 SWAP1 PUSH2 0x2212 JUMP JUMPDEST PUSH1 0x40 MLOAD DUP1 SWAP2 SUB SWAP1 RETURN JUMPDEST PUSH2 0x2AC PUSH1 0x4 DUP1 CALLDATASIZE SUB DUP2 ADD SWAP1 PUSH2 0x2A7 SWAP2 SWAP1 PUSH2 0x222B JUMP JUMPDEST PUSH2 0x186C JUMP JUMPDEST PUSH1 0x40 MLOAD PUSH2 0x2B9 SWAP2 SWAP1 PUSH2 0x2212 JUMP JUMPDEST PUSH1 0x40 MLOAD DUP1 SWAP2 SUB SWAP1 RETURN JUMPDEST CALLVALUE DUP1 ISZERO PUSH2 0x2CD JUMPI PUSH0 PUSH0 REVERT JUMPDEST POP PUSH2 0x2D6 PUSH2 0x19C0 JUMP JUMPDEST PUSH1 0x40 MLOAD PUSH2 0x2E3 SWAP2 SWAP1 PUSH2 0x2212 JUMP JUMPDEST PUSH1 0x40 MLOAD DUP1 SWAP2 SUB SWAP1 RETURN JUMPDEST CALLVALUE DUP1 ISZERO PUSH2 0x2F7 JUMPI PUSH0 PUSH0 REVERT JUMPDEST POP PUSH2 0x300 PUSH2 0x19C6 JUMP JUMPDEST STOP JUMPDEST PUSH2 0x31C PUSH1 0x4 DUP1 CALLDATASIZE SUB DUP2 ADD SWAP1 PUSH2 0x317 SWAP2 SWAP1 PUSH2 0x22AC JUMP JUMPDEST PUSH2 0x1B1F JUMP JUMPDEST STOP JUMPDEST PUSH0 DUP2 PUSH28 0xFFFFFFFFFFFFFFFFFFFFFFFFFFFFFFFFFFFFFFFFFFFFFFFFFFFFFFFF NOT AND PUSH32 0x1FFC9A700000000000000000000000000000000000000000000000000000000 PUSH28 0xFFFFFFFFFFFFFFFFFFFFFFFFFFFFFFFFFFFFFFFFFFFFFFFFFFFFFFFF NOT AND EQ DUP1 PUSH2 0x3E8 JUMPI POP DUP2 PUSH28 0xFFFFFFFFFFFFFFFFFFFFFFFFFFFFFFFFFFFFFFFFFFFFFFFFFFFFFFFF NOT AND PUSH32 0x73884AB300000000000000000000000000000000000000000000000000000000 PUSH28 0xFFFFFFFFFFFFFFFFFFFFFFFFFFFFFFFFFFFFFFFFFFFFFFFFFFFFFFFF NOT AND EQ JUMPDEST ISZERO PUSH2 0x3F6 JUMPI PUSH1 0x1 SWAP1 POP PUSH2 0x3FA JUMP JUMPDEST PUSH0 SWAP1 POP JUMPDEST SWAP2 SWAP1 POP JUMP JUMPDEST PUSH0 PUSH0 PUSH1 0x4 PUSH0 DUP5 DUP2 MSTORE PUSH1 0x20 ADD SWAP1 DUP2 MSTORE PUSH1 0x20 ADD PUSH0 KECCAK256 PUSH0 ADD DUP1 SLOAD PUSH2 0x41F SWAP1 PUSH2 0x2317 JUMP JUMPDEST SWAP1 POP SUB PUSH2 0x461 JUMPI PUSH1 0x40 MLOAD PUSH32 0x8C379A000000000000000000000000000000000000000000000000000000000 DUP2 MSTORE PUSH1 0x4 ADD PUSH2 0x458 SWAP1 PUSH2 0x23A1 JUMP JUMPDEST PUSH1 0x40 MLOAD DUP1 SWAP2 SUB SWAP1 REVERT JUMPDEST PUSH1 0x3 PUSH0 DUP4 DUP2 MSTORE PUSH1 0x20 ADD SWAP1 DUP2 MSTORE PUSH1 0x20 ADD PUSH0 KECCAK256 PUSH0 SWAP1 SLOAD SWAP1 PUSH2 0x100 EXP SWAP1 DIV PUSH20 0xFFFFFFFFFFFFFFFFFFFFFFFFFFFFFFFFFFFFFFFF AND SWAP1 POP SWAP2 SWAP1 POP JUMP JUMPDEST CALLER PUSH20 0xFFFFFFFFFFFFFFFFFFFFFFFFFFFFFFFFFFFFFFFF AND PUSH1 0x2 PUSH0 DUP4 DUP2 MSTORE PUSH1 0x20 ADD SWAP1 DUP2 MSTORE PUSH1 0x20 ADD PUSH0 KECCAK256 PUSH0 SWAP1 SLOAD SWAP1 PUSH2 0x100 EXP SWAP1 DIV PUSH20 0xFFFFFFFFFFFFFFFFFFFFFFFFFFFFFFFFFFFFFFFF AND PUSH20 0xFFFFFFFFFFFFFFFFFFFFFFFFFFFFFFFFFFFFFFFF AND EQ PUSH2 0x537 JUMPI PUSH1 0x40 MLOAD PUSH32 0x8C379A000000000000000000000000000000000000000000000000000000000 DUP2 MSTORE PUSH1 0x4 ADD PUSH2 0x52E SWAP1 PUSH2 0x2409 JUMP JUMPDEST PUSH1 0x40 MLOAD DUP1 SWAP2 SUB SWAP1 REVERT JUMPDEST PUSH0 PUSH20 0xFFFFFFFFFFFFFFFFFFFFFFFFFFFFFFFFFFFFFFFF AND DUP3 PUSH20 0xFFFFFFFFFFFFFFFFFFFFFFFFFFFFFFFFFFFFFFFF AND EQ ISZERO DUP1 PUSH2 0x5CE JUMPI POP PUSH0 PUSH20 0xFFFFFFFFFFFFFFFFFFFFFFFFFFFFFFFFFFFFFFFF AND PUSH1 0x3 PUSH0 DUP4 DUP2 MSTORE PUSH1 0x20 ADD SWAP1 DUP2 MSTORE PUSH1 0x20 ADD PUSH0 KECCAK256 PUSH0 SWAP1 SLOAD SWAP1 PUSH2 0x100 EXP SWAP1 DIV PUSH20 0xFFFFFFFFFFFFFFFFFFFFFFFFFFFFFFFFFFFFFFFF AND PUSH20 0xFFFFFFFFFFFFFFFFFFFFFFFFFFFFFFFFFFFFFFFF AND EQ ISZERO JUMPDEST PUSH2 0x60D JUMPI PUSH1 0x40 MLOAD PUSH32 0x8C379A000000000000000000000000000000000000000000000000000000000 DUP2 MSTORE PUSH1 0x4 ADD PUSH2 0x604 SWAP1 PUSH2 0x2471 JUMP JUMPDEST PUSH1 0x40 MLOAD DUP1 SWAP2 SUB SWAP1 REVERT JUMPDEST PUSH2 0x62C PUSH1 0x4 PUSH0 DUP4 DUP2 MSTORE PUSH1 0x20 ADD SWAP1 DUP2 MSTORE PUSH1 0x20 ADD PUSH0 KECCAK256 PUSH1 0x1 ADD PUSH1 0x1 ADD PUSH2 0x1CA2 JUMP JUMPDEST CALLVALUE LT ISZERO PUSH2 0x66E JUMPI PUSH1 0x40 MLOAD PUSH32 0x8C379A000000000000000000000000000000000000000000000000000000000 DUP2 MSTORE PUSH1 0x4 ADD PUSH2 0x665 SWAP1 PUSH2 0x24D9 JUMP JUMPDEST PUSH1 0x40 MLOAD DUP1 SWAP2 SUB SWAP1 REVERT JUMPDEST DUP2 PUSH1 0x3 PUSH0 DUP4 DUP2 MSTORE PUSH1 0x20 ADD SWAP1 DUP2 MSTORE PUSH1 0x20 ADD PUSH0 KECCAK256 PUSH0 PUSH2 0x100 EXP DUP2 SLOAD DUP2 PUSH20 0xFFFFFFFFFFFFFFFFFFFFFFFFFFFFFFFFFFFFFFFF MUL NOT AND SWAP1 DUP4 PUSH20 0xFFFFFFFFFFFFFFFFFFFFFFFFFFFFFFFFFFFFFFFF AND MUL OR SWAP1 SSTORE POP DUP1 DUP3 PUSH20 0xFFFFFFFFFFFFFFFFFFFFFFFFFFFFFFFFFFFFFFFF AND CALLER PUSH20 0xFFFFFFFFFFFFFFFFFFFFFFFFFFFFFFFFFFFFFFFF AND PUSH32 0x8C5BE1E5EBEC7D5BD14F71427D1E84F3DD0314C0F7B2291E5B200AC8C7C3B925 PUSH1 0x40 MLOAD PUSH1 0x40 MLOAD DUP1 SWAP2 SUB SWAP1 LOG4 POP POP JUMP JUMPDEST CALLER PUSH20 0xFFFFFFFFFFFFFFFFFFFFFFFFFFFFFFFFFFFFFFFF AND PUSH1 0x3 PUSH0 DUP7 DUP2 MSTORE PUSH1 0x20 ADD SWAP1 DUP2 MSTORE PUSH1 0x20 ADD PUSH0 KECCAK256 PUSH0 SWAP1 SLOAD SWAP1 PUSH2 0x100 EXP SWAP1 DIV PUSH20 0xFFFFFFFFFFFFFFFFFFFFFFFFFFFFFFFFFFFFFFFF AND PUSH20 0xFFFFFFFFFFFFFFFFFFFFFFFFFFFFFFFFFFFFFFFF AND EQ DUP1 PUSH2 0x7E1 JUMPI POP CALLER PUSH20 0xFFFFFFFFFFFFFFFFFFFFFFFFFFFFFFFFFFFFFFFF AND PUSH1 0x2 PUSH0 DUP7 DUP2 MSTORE PUSH1 0x20 ADD SWAP1 DUP2 MSTORE PUSH1 0x20 ADD PUSH0 KECCAK256 PUSH0 SWAP1 SLOAD SWAP1 PUSH2 0x100 EXP SWAP1 DIV PUSH20 0xFFFFFFFFFFFFFFFFFFFFFFFFFFFFFFFFFFFFFFFF AND PUSH20 0xFFFFFFFFFFFFFFFFFFFFFFFFFFFFFFFFFFFFFFFF AND EQ JUMPDEST PUSH2 0x820 JUMPI PUSH1 0x40 MLOAD PUSH32 0x8C379A000000000000000000000000000000000000000000000000000000000 DUP2 MSTORE PUSH1 0x4 ADD PUSH2 0x817 SWAP1 PUSH2 0x2409 JUMP JUMPDEST PUSH1 0x40 MLOAD DUP1 SWAP2 SUB SWAP1 REVERT JUMPDEST PUSH0 PUSH1 0x4 PUSH0 DUP7 DUP2 MSTORE PUSH1 0x20 ADD SWAP1 DUP2 MSTORE PUSH1 0x20 ADD PUSH0 KECCAK256 PUSH0 ADD DUP1 SLOAD PUSH2 0x83F SWAP1 PUSH2 0x2317 JUMP JUMPDEST SWAP1 POP SUB PUSH2 0x881 JUMPI PUSH1 0x40 MLOAD PUSH32 0x8C379A000000000000000000000000000000000000000000000000000000000 DUP2 MSTORE PUSH1 0x4 ADD PUSH2 0x878 SWAP1 PUSH2 0x23A1 JUMP JUMPDEST PUSH1 0x40 MLOAD DUP1 SWAP2 SUB SWAP1 REVERT JUMPDEST PUSH0 PUSH1 0x4 PUSH0 DUP7 DUP2 MSTORE PUSH1 0x20 ADD SWAP1 DUP2 MSTORE PUSH1 0x20 ADD PUSH0 KECCAK256 PUSH1 0x1 ADD PUSH0 ADD DUP1 SLOAD SWAP1 POP SWAP1 POP DUP1 PUSH1 0x2 PUSH2 0x8AB SWAP2 SWAP1 PUSH2 0x2653 JUMP JUMPDEST DUP3 PUSH2 0x8B6 SWAP2 SWAP1 PUSH2 0x269D JUMP JUMPDEST CALLVALUE LT ISZERO PUSH2 0x8F8 JUMPI PUSH1 0x40 MLOAD PUSH32 0x8C379A000000000000000000000000000000000000000000000000000000000 DUP2 MSTORE PUSH1 0x4 ADD PUSH2 0x8EF SWAP1 PUSH2 0x2728 JUMP JUMPDEST PUSH1 0x40 MLOAD DUP1 SWAP2 SUB SWAP1 REVERT JUMPDEST PUSH0 PUSH2 0x964 DUP6 DUP6 DUP1 DUP1 PUSH1 0x1F ADD PUSH1 0x20 DUP1 SWAP2 DIV MUL PUSH1 0x20 ADD PUSH1 0x40 MLOAD SWAP1 DUP2 ADD PUSH1 0x40 MSTORE DUP1 SWAP4 SWAP3 SWAP2 SWAP1 DUP2 DUP2 MSTORE PUSH1 0x20 ADD DUP4 DUP4 DUP1 DUP3 DUP5 CALLDATACOPY PUSH0 DUP2 DUP5 ADD MSTORE PUSH1 0x1F NOT PUSH1 0x1F DUP3 ADD AND SWAP1 POP DUP1 DUP4 ADD SWAP3 POP POP POP POP POP POP POP PUSH1 0x4 PUSH0 DUP10 DUP2 MSTORE PUSH1 0x20 ADD SWAP1 DUP2 MSTORE PUSH1 0x20 ADD PUSH0 KECCAK256 PUSH1 0x1 ADD PUSH0 ADD PUSH2 0x1CF5 SWAP1 SWAP2 SWAP1 PUSH4 0xFFFFFFFF AND JUMP JUMPDEST SWAP1 POP DUP1 ISZERO PUSH2 0x9A7 JUMPI PUSH1 0x40 MLOAD PUSH32 0x8C379A000000000000000000000000000000000000000000000000000000000 DUP2 MSTORE PUSH1 0x4 ADD PUSH2 0x99E SWAP1 PUSH2 0x2790 JUMP JUMPDEST PUSH1 0x40 MLOAD DUP1 SWAP2 SUB SWAP1 REVERT JUMPDEST PUSH1 0x4 PUSH0 DUP8 DUP2 MSTORE PUSH1 0x20 ADD SWAP1 DUP2 MSTORE PUSH1 0x20 ADD PUSH0 KECCAK256 PUSH1 0x1 ADD PUSH0 ADD DUP6 DUP6 SWAP1 SWAP2 DUP1 PUSH1 0x1 DUP2 SLOAD ADD DUP1 DUP3 SSTORE DUP1 SWAP2 POP POP PUSH1 0x1 SWAP1 SUB SWAP1 PUSH0 MSTORE PUSH1 0x20 PUSH0 KECCAK256 ADD PUSH0 SWAP1 SWAP2 SWAP3 SWAP1 SWAP2 SWAP3 SWAP1 SWAP2 SWAP3 SWAP1 SWAP2 SWAP3 POP SWAP2 DUP3 PUSH2 0x9F5 SWAP3 SWAP2 SWAP1 PUSH2 0x2985 JUMP JUMPDEST POP PUSH1 0x4 PUSH0 DUP8 DUP2 MSTORE PUSH1 0x20 ADD SWAP1 DUP2 MSTORE PUSH1 0x20 ADD PUSH0 KECCAK256 PUSH1 0x1 ADD PUSH1 0x1 ADD DUP4 SWAP1 DUP1 PUSH1 0x1 DUP2 SLOAD ADD DUP1 DUP3 SSTORE DUP1 SWAP2 POP POP PUSH1 0x1 SWAP1 SUB SWAP1 PUSH0 MSTORE PUSH1 0x20 PUSH0 KECCAK256 ADD PUSH0 SWAP1 SWAP2 SWAP1 SWAP2 SWAP1 SWAP2 POP SSTORE POP POP POP POP POP POP JUMP JUMPDEST PUSH0 PUSH20 0xFFFFFFFFFFFFFFFFFFFFFFFFFFFFFFFFFFFFFFFF AND DUP3 PUSH20 0xFFFFFFFFFFFFFFFFFFFFFFFFFFFFFFFFFFFFFFFF AND SUB PUSH2 0xAA7 JUMPI PUSH1 0x40 MLOAD PUSH32 0x8C379A000000000000000000000000000000000000000000000000000000000 DUP2 MSTORE PUSH1 0x4 ADD PUSH2 0xA9E SWAP1 PUSH2 0x2A9C JUMP JUMPDEST PUSH1 0x40 MLOAD DUP1 SWAP2 SUB SWAP1 REVERT JUMPDEST DUP3 PUSH20 0xFFFFFFFFFFFFFFFFFFFFFFFFFFFFFFFFFFFFFFFF AND PUSH1 0x2 PUSH0 DUP4 DUP2 MSTORE PUSH1 0x20 ADD SWAP1 DUP2 MSTORE PUSH1 0x20 ADD PUSH0 KECCAK256 PUSH0 SWAP1 SLOAD SWAP1 PUSH2 0x100 EXP SWAP1 DIV PUSH20 0xFFFFFFFFFFFFFFFFFFFFFFFFFFFFFFFFFFFFFFFF AND PUSH20 0xFFFFFFFFFFFFFFFFFFFFFFFFFFFFFFFFFFFFFFFF AND EQ DUP1 ISZERO PUSH2 0xBD3 JUMPI POP CALLER PUSH20 0xFFFFFFFFFFFFFFFFFFFFFFFFFFFFFFFFFFFFFFFF AND PUSH1 0x2 PUSH0 DUP4 DUP2 MSTORE PUSH1 0x20 ADD SWAP1 DUP2 MSTORE PUSH1 0x20 ADD PUSH0 KECCAK256 PUSH0 SWAP1 SLOAD SWAP1 PUSH2 0x100 EXP SWAP1 DIV PUSH20 0xFFFFFFFFFFFFFFFFFFFFFFFFFFFFFFFFFFFFFFFF AND PUSH20 0xFFFFFFFFFFFFFFFFFFFFFFFFFFFFFFFFFFFFFFFF AND EQ DUP1 PUSH2 0xBD2 JUMPI POP CALLER PUSH20 0xFFFFFFFFFFFFFFFFFFFFFFFFFFFFFFFFFFFFFFFF AND PUSH1 0x3 PUSH0 DUP4 DUP2 MSTORE PUSH1 0x20 ADD SWAP1 DUP2 MSTORE PUSH1 0x20 ADD PUSH0 KECCAK256 PUSH0 SWAP1 SLOAD SWAP1 PUSH2 0x100 EXP SWAP1 DIV PUSH20 0xFFFFFFFFFFFFFFFFFFFFFFFFFFFFFFFFFFFFFFFF AND PUSH20 0xFFFFFFFFFFFFFFFFFFFFFFFFFFFFFFFFFFFFFFFF AND EQ JUMPDEST JUMPDEST PUSH2 0xC12 JUMPI PUSH1 0x40 MLOAD PUSH32 0x8C379A000000000000000000000000000000000000000000000000000000000 DUP2 MSTORE PUSH1 0x4 ADD PUSH2 0xC09 SWAP1 PUSH2 0x2409 JUMP JUMPDEST PUSH1 0x40 MLOAD DUP1 SWAP2 SUB SWAP1 REVERT JUMPDEST PUSH2 0xC31 PUSH1 0x4 PUSH0 DUP4 DUP2 MSTORE PUSH1 0x20 ADD SWAP1 DUP2 MSTORE PUSH1 0x20 ADD PUSH0 KECCAK256 PUSH1 0x1 ADD PUSH1 0x1 ADD PUSH2 0x1CA2 JUMP JUMPDEST CALLVALUE LT ISZERO PUSH2 0xC73 JUMPI PUSH1 0x40 MLOAD PUSH32 0x8C379A000000000000000000000000000000000000000000000000000000000 DUP2 MSTORE PUSH1 0x4 ADD PUSH2 0xC6A SWAP1 PUSH2 0x24D9 JUMP JUMPDEST PUSH1 0x40 MLOAD DUP1 SWAP2 SUB SWAP1 REVERT JUMPDEST PUSH1 0x1 DUP1 PUSH0 PUSH1 0x2 PUSH0 DUP6 DUP2 MSTORE PUSH1 0x20 ADD SWAP1 DUP2 MSTORE PUSH1 0x20 ADD PUSH0 KECCAK256 PUSH0 SWAP1 SLOAD SWAP1 PUSH2 0x100 EXP SWAP1 DIV PUSH20 0xFFFFFFFFFFFFFFFFFFFFFFFFFFFFFFFFFFFFFFFF AND PUSH20 0xFFFFFFFFFFFFFFFFFFFFFFFFFFFFFFFFFFFFFFFF AND PUSH20 0xFFFFFFFFFFFFFFFFFFFFFFFFFFFFFFFFFFFFFFFF AND DUP2 MSTORE PUSH1 0x20 ADD SWAP1 DUP2 MSTORE PUSH1 0x20 ADD PUSH0 KECCAK256 PUSH0 DUP3 DUP3 SLOAD PUSH2 0xCEF SWAP2 SWAP1 PUSH2 0x2ABA JUMP JUMPDEST SWAP3 POP POP DUP2 SWAP1 SSTORE POP PUSH1 0x1 DUP1 PUSH0 DUP5 PUSH20 0xFFFFFFFFFFFFFFFFFFFFFFFFFFFFFFFFFFFFFFFF AND PUSH20 0xFFFFFFFFFFFFFFFFFFFFFFFFFFFFFFFFFFFFFFFF AND DUP2 MSTORE PUSH1 0x20 ADD SWAP1 DUP2 MSTORE PUSH1 0x20 ADD PUSH0 KECCAK256 PUSH0 DUP3 DUP3 SLOAD PUSH2 0xD42 SWAP2 SWAP1 PUSH2 0x2AED JUMP JUMPDEST SWAP3 POP POP DUP2 SWAP1 SSTORE POP DUP2 PUSH1 0x2 PUSH0 DUP4 DUP2 MSTORE PUSH1 0x20 ADD SWAP1 DUP2 MSTORE PUSH1 0x20 ADD PUSH0 KECCAK256 PUSH0 PUSH2 0x100 EXP DUP2 SLOAD DUP2 PUSH20 0xFFFFFFFFFFFFFFFFFFFFFFFFFFFFFFFFFFFFFFFF MUL NOT AND SWAP1 DUP4 PUSH20 0xFFFFFFFFFFFFFFFFFFFFFFFFFFFFFFFFFFFFFFFF AND MUL OR SWAP1 SSTORE POP PUSH0 PUSH1 0x3 PUSH0 DUP4 DUP2 MSTORE PUSH1 0x20 ADD SWAP1 DUP2 MSTORE PUSH1 0x20 ADD PUSH0 KECCAK256 PUSH0 PUSH2 0x100 EXP DUP2 SLOAD DUP2 PUSH20 0xFFFFFFFFFFFFFFFFFFFFFFFFFFFFFFFFFFFFFFFF MUL NOT AND SWAP1 DUP4 PUSH20 0xFFFFFFFFFFFFFFFFFFFFFFFFFFFFFFFFFFFFFFFF AND MUL OR SWAP1 SSTORE POP DUP1 DUP3 PUSH20 0xFFFFFFFFFFFFFFFFFFFFFFFFFFFFFFFFFFFFFFFF AND DUP5 PUSH20 0xFFFFFFFFFFFFFFFFFFFFFFFFFFFFFFFFFFFFFFFF AND PUSH32 0xDDF252AD1BE2C89B69C2B068FC378DAA952BA7F163C4A11628F55A4DF523B3EF PUSH1 0x40 MLOAD PUSH1 0x40 MLOAD DUP1 SWAP2 SUB SWAP1 LOG4 POP POP POP JUMP JUMPDEST PUSH0 PUSH0 PUSH32 0x1FFC9A700000000000000000000000000000000000000000000000000000000 SWAP2 POP PUSH32 0x73884AB300000000000000000000000000000000000000000000000000000000 SWAP1 POP SWAP1 SWAP2 JUMP JUMPDEST PUSH0 PUSH20 0xFFFFFFFFFFFFFFFFFFFFFFFFFFFFFFFFFFFFFFFF AND DUP3 PUSH20 0xFFFFFFFFFFFFFFFFFFFFFFFFFFFFFFFFFFFFFFFF AND SUB PUSH2 0xF01 JUMPI PUSH1 0x40 MLOAD PUSH32 0x8C379A000000000000000000000000000000000000000000000000000000000 DUP2 MSTORE PUSH1 0x4 ADD PUSH2 0xEF8 SWAP1 PUSH2 0x2A9C JUMP JUMPDEST PUSH1 0x40 MLOAD DUP1 SWAP2 SUB SWAP1 REVERT JUMPDEST DUP3 PUSH20 0xFFFFFFFFFFFFFFFFFFFFFFFFFFFFFFFFFFFFFFFF AND PUSH1 0x2 PUSH0 DUP4 DUP2 MSTORE PUSH1 0x20 ADD SWAP1 DUP2 MSTORE PUSH1 0x20 ADD PUSH0 KECCAK256 PUSH0 SWAP1 SLOAD SWAP1 PUSH2 0x100 EXP SWAP1 DIV PUSH20 0xFFFFFFFFFFFFFFFFFFFFFFFFFFFFFFFFFFFFFFFF AND PUSH20 0xFFFFFFFFFFFFFFFFFFFFFFFFFFFFFFFFFFFFFFFF AND EQ DUP1 ISZERO PUSH2 0x102D JUMPI POP CALLER PUSH20 0xFFFFFFFFFFFFFFFFFFFFFFFFFFFFFFFFFFFFFFFF AND PUSH1 0x2 PUSH0 DUP4 DUP2 MSTORE PUSH1 0x20 ADD SWAP1 DUP2 MSTORE PUSH1 0x20 ADD PUSH0 KECCAK256 PUSH0 SWAP1 SLOAD SWAP1 PUSH2 0x100 EXP SWAP1 DIV PUSH20 0xFFFFFFFFFFFFFFFFFFFFFFFFFFFFFFFFFFFFFFFF AND PUSH20 0xFFFFFFFFFFFFFFFFFFFFFFFFFFFFFFFFFFFFFFFF AND EQ DUP1 PUSH2 0x102C JUMPI POP CALLER PUSH20 0xFFFFFFFFFFFFFFFFFFFFFFFFFFFFFFFFFFFFFFFF AND PUSH1 0x3 PUSH0 DUP4 DUP2 MSTORE PUSH1 0x20 ADD SWAP1 DUP2 MSTORE PUSH1 0x20 ADD PUSH0 KECCAK256 PUSH0 SWAP1 SLOAD SWAP1 PUSH2 0x100 EXP SWAP1 DIV PUSH20 0xFFFFFFFFFFFFFFFFFFFFFFFFFFFFFFFFFFFFFFFF AND PUSH20 0xFFFFFFFFFFFFFFFFFFFFFFFFFFFFFFFFFFFFFFFF AND EQ JUMPDEST JUMPDEST PUSH2 0x106C JUMPI PUSH1 0x40 MLOAD PUSH32 0x8C379A000000000000000000000000000000000000000000000000000000000 DUP2 MSTORE PUSH1 0x4 ADD PUSH2 0x1063 SWAP1 PUSH2 0x2409 JUMP JUMPDEST PUSH1 0x40 MLOAD DUP1 SWAP2 SUB SWAP1 REVERT JUMPDEST PUSH2 0x108B PUSH1 0x4 PUSH0 DUP4 DUP2 MSTORE PUSH1 0x20 ADD SWAP1 DUP2 MSTORE PUSH1 0x20 ADD PUSH0 KECCAK256 PUSH1 0x1 ADD PUSH1 0x1 ADD PUSH2 0x1CA2 JUMP JUMPDEST CALLVALUE LT ISZERO PUSH2 0x10CD JUMPI PUSH1 0x40 MLOAD PUSH32 0x8C379A000000000000000000000000000000000000000000000000000000000 DUP2 MSTORE PUSH1 0x4 ADD PUSH2 0x10C4 SWAP1 PUSH2 0x24D9 JUMP JUMPDEST PUSH1 0x40 MLOAD DUP1 SWAP2 SUB SWAP1 REVERT JUMPDEST PUSH0 DUP3 PUSH20 0xFFFFFFFFFFFFFFFFFFFFFFFFFFFFFFFFFFFFFFFF AND EXTCODESIZE GT ISZERO PUSH2 0x126C JUMPI DUP2 PUSH20 0xFFFFFFFFFFFFFFFFFFFFFFFFFFFFFFFFFFFFFFFF AND PUSH4 0x150B7A02 CALLER DUP6 DUP5 PUSH1 0x40 MLOAD DUP5 PUSH4 0xFFFFFFFF AND PUSH1 0xE0 SHL DUP2 MSTORE PUSH1 0x4 ADD PUSH2 0x1129 SWAP4 SWAP3 SWAP2 SWAP1 PUSH2 0x2B53 JUMP JUMPDEST PUSH1 0x20 PUSH1 0x40 MLOAD DUP1 DUP4 SUB DUP2 PUSH0 DUP8 GAS CALL SWAP3 POP POP POP DUP1 ISZERO PUSH2 0x1164 JUMPI POP PUSH1 0x40 MLOAD RETURNDATASIZE PUSH1 0x1F NOT PUSH1 0x1F DUP3 ADD AND DUP3 ADD DUP1 PUSH1 0x40 MSTORE POP DUP2 ADD SWAP1 PUSH2 0x1161 SWAP2 SWAP1 PUSH2 0x2BAF JUMP JUMPDEST PUSH1 0x1 JUMPDEST PUSH2 0x11E3 JUMPI RETURNDATASIZE DUP1 PUSH0 DUP2 EQ PUSH2 0x1192 JUMPI PUSH1 0x40 MLOAD SWAP2 POP PUSH1 0x1F NOT PUSH1 0x3F RETURNDATASIZE ADD AND DUP3 ADD PUSH1 0x40 MSTORE RETURNDATASIZE DUP3 MSTORE RETURNDATASIZE PUSH0 PUSH1 0x20 DUP5 ADD RETURNDATACOPY PUSH2 0x1197 JUMP JUMPDEST PUSH1 0x60 SWAP2 POP JUMPDEST POP PUSH0 DUP2 MLOAD SUB PUSH2 0x11DB JUMPI PUSH1 0x40 MLOAD PUSH32 0x8C379A000000000000000000000000000000000000000000000000000000000 DUP2 MSTORE PUSH1 0x4 ADD PUSH2 0x11D2 SWAP1 PUSH2 0x2C24 JUMP JUMPDEST PUSH1 0x40 MLOAD DUP1 SWAP2 SUB SWAP1 REVERT JUMPDEST DUP1 MLOAD PUSH1 0x20 DUP3 ADD REVERT JUMPDEST PUSH4 0x150B7A02 PUSH1 0xE0 SHL PUSH28 0xFFFFFFFFFFFFFFFFFFFFFFFFFFFFFFFFFFFFFFFFFFFFFFFFFFFFFFFF NOT AND DUP2 PUSH28 0xFFFFFFFFFFFFFFFFFFFFFFFFFFFFFFFFFFFFFFFFFFFFFFFFFFFFFFFF NOT AND EQ PUSH2 0x126A JUMPI PUSH1 0x40 MLOAD PUSH32 0x8C379A000000000000000000000000000000000000000000000000000000000 DUP2 MSTORE PUSH1 0x4 ADD PUSH2 0x1261 SWAP1 PUSH2 0x2C8C JUMP JUMPDEST PUSH1 0x40 MLOAD DUP1 SWAP2 SUB SWAP1 REVERT JUMPDEST POP JUMPDEST PUSH1 0x1 DUP1 PUSH0 PUSH1 0x2 PUSH0 DUP6 DUP2 MSTORE PUSH1 0x20 ADD SWAP1 DUP2 MSTORE PUSH1 0x20 ADD PUSH0 KECCAK256 PUSH0 SWAP1 SLOAD SWAP1 PUSH2 0x100 EXP SWAP1 DIV PUSH20 0xFFFFFFFFFFFFFFFFFFFFFFFFFFFFFFFFFFFFFFFF AND PUSH20 0xFFFFFFFFFFFFFFFFFFFFFFFFFFFFFFFFFFFFFFFF AND PUSH20 0xFFFFFFFFFFFFFFFFFFFFFFFFFFFFFFFFFFFFFFFF AND DUP2 MSTORE PUSH1 0x20 ADD SWAP1 DUP2 MSTORE PUSH1 0x20 ADD PUSH0 KECCAK256 PUSH0 DUP3 DUP3 SLOAD PUSH2 0x12E8 SWAP2 SWAP1 PUSH2 0x2ABA JUMP JUMPDEST SWAP3 POP POP DUP2 SWAP1 SSTORE POP PUSH1 0x1 DUP1 PUSH0 DUP5 PUSH20 0xFFFFFFFFFFFFFFFFFFFFFFFFFFFFFFFFFFFFFFFF AND PUSH20 0xFFFFFFFFFFFFFFFFFFFFFFFFFFFFFFFFFFFFFFFF AND DUP2 MSTORE PUSH1 0x20 ADD SWAP1 DUP2 MSTORE PUSH1 0x20 ADD PUSH0 KECCAK256 PUSH0 DUP3 DUP3 SLOAD PUSH2 0x133B SWAP2 SWAP1 PUSH2 0x2AED JUMP JUMPDEST SWAP3 POP POP DUP2 SWAP1 SSTORE POP DUP2 PUSH1 0x2 PUSH0 DUP4 DUP2 MSTORE PUSH1 0x20 ADD SWAP1 DUP2 MSTORE PUSH1 0x20 ADD PUSH0 KECCAK256 PUSH0 PUSH2 0x100 EXP DUP2 SLOAD DUP2 PUSH20 0xFFFFFFFFFFFFFFFFFFFFFFFFFFFFFFFFFFFFFFFF MUL NOT AND SWAP1 DUP4 PUSH20 0xFFFFFFFFFFFFFFFFFFFFFFFFFFFFFFFFFFFFFFFF AND MUL OR SWAP1 SSTORE POP PUSH0 PUSH1 0x3 PUSH0 DUP4 DUP2 MSTORE PUSH1 0x20 ADD SWAP1 DUP2 MSTORE PUSH1 0x20 ADD PUSH0 KECCAK256 PUSH0 PUSH2 0x100 EXP DUP2 SLOAD DUP2 PUSH20 0xFFFFFFFFFFFFFFFFFFFFFFFFFFFFFFFFFFFFFFFF MUL NOT AND SWAP1 DUP4 PUSH20 0xFFFFFFFFFFFFFFFFFFFFFFFFFFFFFFFFFFFFFFFF AND MUL OR SWAP1 SSTORE POP DUP1 DUP3 PUSH20 0xFFFFFFFFFFFFFFFFFFFFFFFFFFFFFFFFFFFFFFFF AND DUP5 PUSH20 0xFFFFFFFFFFFFFFFFFFFFFFFFFFFFFFFFFFFFFFFF AND PUSH32 0xDDF252AD1BE2C89B69C2B068FC378DAA952BA7F163C4A11628F55A4DF523B3EF PUSH1 0x40 MLOAD PUSH1 0x40 MLOAD DUP1 SWAP2 SUB SWAP1 LOG4 POP POP POP JUMP JUMPDEST PUSH0 PUSH20 0xFFFFFFFFFFFFFFFFFFFFFFFFFFFFFFFFFFFFFFFF AND PUSH1 0x2 PUSH0 DUP4 DUP2 MSTORE PUSH1 0x20 ADD SWAP1 DUP2 MSTORE PUSH1 0x20 ADD PUSH0 KECCAK256 PUSH0 SWAP1 SLOAD SWAP1 PUSH2 0x100 EXP SWAP1 DIV PUSH20 0xFFFFFFFFFFFFFFFFFFFFFFFFFFFFFFFFFFFFFFFF AND PUSH20 0xFFFFFFFFFFFFFFFFFFFFFFFFFFFFFFFFFFFFFFFF AND EQ ISZERO DUP1 ISZERO PUSH2 0x1507 JUMPI POP CALLER PUSH20 0xFFFFFFFFFFFFFFFFFFFFFFFFFFFFFFFFFFFFFFFF AND PUSH1 0x2 PUSH0 DUP4 DUP2 MSTORE PUSH1 0x20 ADD SWAP1 DUP2 MSTORE PUSH1 0x20 ADD PUSH0 KECCAK256 PUSH0 SWAP1 SLOAD SWAP1 PUSH2 0x100 EXP SWAP1 DIV PUSH20 0xFFFFFFFFFFFFFFFFFFFFFFFFFFFFFFFFFFFFFFFF AND PUSH20 0xFFFFFFFFFFFFFFFFFFFFFFFFFFFFFFFFFFFFFFFF AND EQ JUMPDEST PUSH2 0x1546 JUMPI PUSH1 0x40 MLOAD PUSH32 0x8C379A000000000000000000000000000000000000000000000000000000000 DUP2 MSTORE PUSH1 0x4 ADD PUSH2 0x153D SWAP1 PUSH2 0x2409 JUMP JUMPDEST PUSH1 0x40 MLOAD DUP1 SWAP2 SUB SWAP1 REVERT JUMPDEST PUSH1 0x1 PUSH1 0x5 PUSH0 DUP3 DUP3 SLOAD PUSH2 0x1558 SWAP2 SWAP1 PUSH2 0x2ABA JUMP JUMPDEST SWAP3 POP POP DUP2 SWAP1 SSTORE POP PUSH1 0x1 DUP1 PUSH0 CALLER PUSH20 0xFFFFFFFFFFFFFFFFFFFFFFFFFFFFFFFFFFFFFFFF AND PUSH20 0xFFFFFFFFFFFFFFFFFFFFFFFFFFFFFFFFFFFFFFFF AND DUP2 MSTORE PUSH1 0x20 ADD SWAP1 DUP2 MSTORE PUSH1 0x20 ADD PUSH0 KECCAK256 PUSH0 DUP3 DUP3 SLOAD PUSH2 0x15AB SWAP2 SWAP1 PUSH2 0x2ABA JUMP JUMPDEST SWAP3 POP POP DUP2 SWAP1 SSTORE POP PUSH1 0x2 PUSH0 DUP3 DUP2 MSTORE PUSH1 0x20 ADD SWAP1 DUP2 MSTORE PUSH1 0x20 ADD PUSH0 KECCAK256 PUSH0 PUSH2 0x100 EXP DUP2 SLOAD SWAP1 PUSH20 0xFFFFFFFFFFFFFFFFFFFFFFFFFFFFFFFFFFFFFFFF MUL NOT AND SWAP1 SSTORE PUSH1 0x3 PUSH0 DUP3 DUP2 MSTORE PUSH1 0x20 ADD SWAP1 DUP2 MSTORE PUSH1 0x20 ADD PUSH0 KECCAK256 PUSH0 PUSH2 0x100 EXP DUP2 SLOAD SWAP1 PUSH20 0xFFFFFFFFFFFFFFFFFFFFFFFFFFFFFFFFFFFFFFFF MUL NOT AND SWAP1 SSTORE PUSH1 0x4 PUSH0 DUP3 DUP2 MSTORE PUSH1 0x20 ADD SWAP1 DUP2 MSTORE PUSH1 0x20 ADD PUSH0 KECCAK256 PUSH0 PUSH0 DUP3 ADD PUSH0 PUSH2 0x1638 SWAP2 SWAP1 PUSH2 0x1DF0 JUMP JUMPDEST PUSH1 0x1 DUP3 ADD PUSH0 PUSH0 DUP3 ADD PUSH0 PUSH2 0x164B SWAP2 SWAP1 PUSH2 0x1E2D JUMP JUMPDEST PUSH1 0x1 DUP3 ADD PUSH0 PUSH2 0x165A SWAP2 SWAP1 PUSH2 0x1E4B JUMP JUMPDEST POP POP POP POP PUSH0 CALLER PUSH20 0xFFFFFFFFFFFFFFFFFFFFFFFFFFFFFFFFFFFFFFFF AND PUSH2 0x3E8 PUSH1 0x40 MLOAD PUSH2 0x1685 SWAP1 PUSH2 0x2CD4 JUMP JUMPDEST PUSH0 PUSH1 0x40 MLOAD DUP1 DUP4 SUB DUP2 DUP6 DUP8 GAS CALL SWAP3 POP POP POP RETURNDATASIZE DUP1 PUSH0 DUP2 EQ PUSH2 0x16BF JUMPI PUSH1 0x40 MLOAD SWAP2 POP PUSH1 0x1F NOT PUSH1 0x3F RETURNDATASIZE ADD AND DUP3 ADD PUSH1 0x40 MSTORE RETURNDATASIZE DUP3 MSTORE RETURNDATASIZE PUSH0 PUSH1 0x20 DUP5 ADD RETURNDATACOPY PUSH2 0x16C4 JUMP JUMPDEST PUSH1 0x60 SWAP2 POP JUMPDEST POP POP SWAP1 POP DUP1 PUSH2 0x1708 JUMPI PUSH1 0x40 MLOAD PUSH32 0x8C379A000000000000000000000000000000000000000000000000000000000 DUP2 MSTORE PUSH1 0x4 ADD PUSH2 0x16FF SWAP1 PUSH2 0x2D32 JUMP JUMPDEST PUSH1 0x40 MLOAD DUP1 SWAP2 SUB SWAP1 REVERT JUMPDEST POP POP JUMP JUMPDEST PUSH0 PUSH0 PUSH1 0x2 PUSH0 DUP5 DUP2 MSTORE PUSH1 0x20 ADD SWAP1 DUP2 MSTORE PUSH1 0x20 ADD PUSH0 KECCAK256 PUSH0 SWAP1 SLOAD SWAP1 PUSH2 0x100 EXP SWAP1 DIV PUSH20 0xFFFFFFFFFFFFFFFFFFFFFFFFFFFFFFFFFFFFFFFF AND SWAP1 POP PUSH0 PUSH20 0xFFFFFFFFFFFFFFFFFFFFFFFFFFFFFFFFFFFFFFFF AND DUP2 PUSH20 0xFFFFFFFFFFFFFFFFFFFFFFFFFFFFFFFFFFFFFFFF AND SUB PUSH2 0x17AF JUMPI PUSH1 0x40 MLOAD PUSH32 0x8C379A000000000000000000000000000000000000000000000000000000000 DUP2 MSTORE PUSH1 0x4 ADD PUSH2 0x17A6 SWAP1 PUSH2 0x23A1 JUMP JUMPDEST PUSH1 0x40 MLOAD DUP1 SWAP2 SUB SWAP1 REVERT JUMPDEST DUP1 SWAP2 POP POP SWAP2 SWAP1 POP JUMP JUMPDEST PUSH0 PUSH0 PUSH20 0xFFFFFFFFFFFFFFFFFFFFFFFFFFFFFFFFFFFFFFFF AND DUP3 PUSH20 0xFFFFFFFFFFFFFFFFFFFFFFFFFFFFFFFFFFFFFFFF AND SUB PUSH2 0x1827 JUMPI PUSH1 0x40 MLOAD PUSH32 0x8C379A000000000000000000000000000000000000000000000000000000000 DUP2 MSTORE PUSH1 0x4 ADD PUSH2 0x181E SWAP1 PUSH2 0x2D9A JUMP JUMPDEST PUSH1 0x40 MLOAD DUP1 SWAP2 SUB SWAP1 REVERT JUMPDEST PUSH1 0x1 PUSH0 DUP4 PUSH20 0xFFFFFFFFFFFFFFFFFFFFFFFFFFFFFFFFFFFFFFFF AND PUSH20 0xFFFFFFFFFFFFFFFFFFFFFFFFFFFFFFFFFFFFFFFF AND DUP2 MSTORE PUSH1 0x20 ADD SWAP1 DUP2 MSTORE PUSH1 0x20 ADD PUSH0 KECCAK256 SLOAD SWAP1 POP SWAP2 SWAP1 POP JUMP JUMPDEST PUSH0 PUSH2 0x3E8 CALLVALUE LT ISZERO PUSH2 0x18B2 JUMPI PUSH1 0x40 MLOAD PUSH32 0x8C379A000000000000000000000000000000000000000000000000000000000 DUP2 MSTORE PUSH1 0x4 ADD PUSH2 0x18A9 SWAP1 PUSH2 0x2E02 JUMP JUMPDEST PUSH1 0x40 MLOAD DUP1 SWAP2 SUB SWAP1 REVERT JUMPDEST PUSH1 0x1 DUP1 PUSH0 CALLER PUSH20 0xFFFFFFFFFFFFFFFFFFFFFFFFFFFFFFFFFFFFFFFF AND PUSH20 0xFFFFFFFFFFFFFFFFFFFFFFFFFFFFFFFFFFFFFFFF AND DUP2 MSTORE PUSH1 0x20 ADD SWAP1 DUP2 MSTORE PUSH1 0x20 ADD PUSH0 KECCAK256 PUSH0 DUP3 DUP3 SLOAD PUSH2 0x18FE SWAP2 SWAP1 PUSH2 0x2AED JUMP JUMPDEST SWAP3 POP POP DUP2 SWAP1 SSTORE POP CALLER PUSH1 0x2 PUSH0 PUSH0 SLOAD DUP2 MSTORE PUSH1 0x20 ADD SWAP1 DUP2 MSTORE PUSH1 0x20 ADD PUSH0 KECCAK256 PUSH0 PUSH2 0x100 EXP DUP2 SLOAD DUP2 PUSH20 0xFFFFFFFFFFFFFFFFFFFFFFFFFFFFFFFFFFFFFFFF MUL NOT AND SWAP1 DUP4 PUSH20 0xFFFFFFFFFFFFFFFFFFFFFFFFFFFFFFFFFFFFFFFF AND MUL OR SWAP1 SSTORE POP DUP3 DUP3 PUSH1 0x4 PUSH0 PUSH0 SLOAD DUP2 MSTORE PUSH1 0x20 ADD SWAP1 DUP2 MSTORE PUSH1 0x20 ADD PUSH0 KECCAK256 PUSH0 ADD SWAP2 DUP3 PUSH2 0x1978 SWAP3 SWAP2 SWAP1 PUSH2 0x2985 JUMP JUMPDEST POP PUSH1 0x1 PUSH1 0x5 PUSH0 DUP3 DUP3 SLOAD PUSH2 0x198B SWAP2 SWAP1 PUSH2 0x2AED JUMP JUMPDEST SWAP3 POP POP DUP2 SWAP1 SSTORE POP PUSH1 0x1 PUSH0 PUSH0 DUP3 DUP3 SLOAD PUSH2 0x19A3 SWAP2 SWAP1 PUSH2 0x2AED JUMP JUMPDEST SWAP3 POP POP DUP2 SWAP1 SSTORE POP PUSH1 0x1 PUSH0 SLOAD PUSH2 0x19B8 SWAP2 SWAP1 PUSH2 0x2ABA JUMP JUMPDEST SWAP1 POP SWAP3 SWAP2 POP POP JUMP JUMPDEST PUSH2 0x3E8 DUP2 JUMP JUMPDEST PUSH1 0x6 PUSH0 SWAP1 SLOAD SWAP1 PUSH2 0x100 EXP SWAP1 DIV PUSH20 0xFFFFFFFFFFFFFFFFFFFFFFFFFFFFFFFFFFFFFFFF AND PUSH20 0xFFFFFFFFFFFFFFFFFFFFFFFFFFFFFFFFFFFFFFFF AND CALLER PUSH20 0xFFFFFFFFFFFFFFFFFFFFFFFFFFFFFFFFFFFFFFFF AND EQ PUSH2 0x1A55 JUMPI PUSH1 0x40 MLOAD PUSH32 0x8C379A000000000000000000000000000000000000000000000000000000000 DUP2 MSTORE PUSH1 0x4 ADD PUSH2 0x1A4C SWAP1 PUSH2 0x2409 JUMP JUMPDEST PUSH1 0x40 MLOAD DUP1 SWAP2 SUB SWAP1 REVERT JUMPDEST PUSH0 PUSH2 0x3E8 PUSH1 0x5 SLOAD PUSH2 0x1A66 SWAP2 SWAP1 PUSH2 0x269D JUMP JUMPDEST SELFBALANCE PUSH2 0x1A71 SWAP2 SWAP1 PUSH2 0x2ABA JUMP JUMPDEST SWAP1 POP PUSH0 CALLER PUSH20 0xFFFFFFFFFFFFFFFFFFFFFFFFFFFFFFFFFFFFFFFF AND DUP3 PUSH1 0x40 MLOAD PUSH2 0x1A98 SWAP1 PUSH2 0x2CD4 JUMP JUMPDEST PUSH0 PUSH1 0x40 MLOAD DUP1 DUP4 SUB DUP2 DUP6 DUP8 GAS CALL SWAP3 POP POP POP RETURNDATASIZE DUP1 PUSH0 DUP2 EQ PUSH2 0x1AD2 JUMPI PUSH1 0x40 MLOAD SWAP2 POP PUSH1 0x1F NOT PUSH1 0x3F RETURNDATASIZE ADD AND DUP3 ADD PUSH1 0x40 MSTORE RETURNDATASIZE DUP3 MSTORE RETURNDATASIZE PUSH0 PUSH1 0x20 DUP5 ADD RETURNDATACOPY PUSH2 0x1AD7 JUMP JUMPDEST PUSH1 0x60 SWAP2 POP JUMPDEST POP POP SWAP1 POP DUP1 PUSH2 0x1B1B JUMPI PUSH1 0x40 MLOAD PUSH32 0x8C379A000000000000000000000000000000000000000000000000000000000 DUP2 MSTORE PUSH1 0x4 ADD PUSH2 0x1B12 SWAP1 PUSH2 0x2E6A JUMP JUMPDEST PUSH1 0x40 MLOAD DUP1 SWAP2 SUB SWAP1 REVERT JUMPDEST POP POP JUMP JUMPDEST CALLER PUSH20 0xFFFFFFFFFFFFFFFFFFFFFFFFFFFFFFFFFFFFFFFF AND PUSH1 0x3 PUSH0 DUP5 DUP2 MSTORE PUSH1 0x20 ADD SWAP1 DUP2 MSTORE PUSH1 0x20 ADD PUSH0 KECCAK256 PUSH0 SWAP1 SLOAD SWAP1 PUSH2 0x100 EXP SWAP1 DIV PUSH20 0xFFFFFFFFFFFFFFFFFFFFFFFFFFFFFFFFFFFFFFFF AND PUSH20 0xFFFFFFFFFFFFFFFFFFFFFFFFFFFFFFFFFFFFFFFF AND EQ DUP1 PUSH2 0x1BE4 JUMPI POP CALLER PUSH20 0xFFFFFFFFFFFFFFFFFFFFFFFFFFFFFFFFFFFFFFFF AND PUSH1 0x2 PUSH0 DUP5 DUP2 MSTORE PUSH1 0x20 ADD SWAP1 DUP2 MSTORE PUSH1 0x20 ADD PUSH0 KECCAK256 PUSH0 SWAP1 SLOAD SWAP1 PUSH2 0x100 EXP SWAP1 DIV PUSH20 0xFFFFFFFFFFFFFFFFFFFFFFFFFFFFFFFFFFFFFFFF AND PUSH20 0xFFFFFFFFFFFFFFFFFFFFFFFFFFFFFFFFFFFFFFFF AND EQ JUMPDEST PUSH2 0x1C23 JUMPI PUSH1 0x40 MLOAD PUSH32 0x8C379A000000000000000000000000000000000000000000000000000000000 DUP2 MSTORE PUSH1 0x4 ADD PUSH2 0x1C1A SWAP1 PUSH2 0x2409 JUMP JUMPDEST PUSH1 0x40 MLOAD DUP1 SWAP2 SUB SWAP1 REVERT JUMPDEST PUSH1 0x2 DUP2 PUSH1 0xFF AND PUSH2 0x1C33 SWAP2 SWAP1 PUSH2 0x2E88 JUMP JUMPDEST CALLVALUE LT ISZERO PUSH2 0x1C75 JUMPI PUSH1 0x40 MLOAD PUSH32 0x8C379A000000000000000000000000000000000000000000000000000000000 DUP2 MSTORE PUSH1 0x4 ADD PUSH2 0x1C6C SWAP1 PUSH2 0x2728 JUMP JUMPDEST PUSH1 0x40 MLOAD DUP1 SWAP2 SUB SWAP1 REVERT JUMPDEST PUSH2 0x1C9E DUP2 PUSH1 0x4 PUSH0 DUP6 DUP2 MSTORE PUSH1 0x20 ADD SWAP1 DUP2 MSTORE PUSH1 0x20 ADD PUSH0 KECCAK256 PUSH1 0x1 ADD PUSH1 0x1 ADD PUSH2 0x1D6C SWAP1 SWAP2 SWAP1 PUSH4 0xFFFFFFFF AND JUMP JUMPDEST POP POP JUMP JUMPDEST PUSH0 PUSH0 PUSH0 PUSH0 SWAP1 POP JUMPDEST DUP4 DUP1 SLOAD SWAP1 POP DUP2 LT ISZERO PUSH2 0x1CEB JUMPI DUP4 DUP2 DUP2 SLOAD DUP2 LT PUSH2 0x1CC8 JUMPI PUSH2 0x1CC7 PUSH2 0x2ED2 JUMP JUMPDEST JUMPDEST SWAP1 PUSH0 MSTORE PUSH1 0x20 PUSH0 KECCAK256 ADD SLOAD DUP3 PUSH2 0x1CDC SWAP2 SWAP1 PUSH2 0x2AED JUMP JUMPDEST SWAP2 POP DUP1 DUP1 PUSH1 0x1 ADD SWAP2 POP POP PUSH2 0x1CA9 JUMP JUMPDEST POP DUP1 SWAP2 POP POP SWAP2 SWAP1 POP JUMP JUMPDEST PUSH0 PUSH0 DUP3 DUP1 MLOAD SWAP1 PUSH1 0x20 ADD KECCAK256 SWAP1 POP PUSH0 PUSH0 SWAP1 POP JUMPDEST DUP5 DUP1 SLOAD SWAP1 POP DUP2 LT ISZERO PUSH2 0x1D60 JUMPI DUP2 DUP6 DUP3 DUP2 SLOAD DUP2 LT PUSH2 0x1D26 JUMPI PUSH2 0x1D25 PUSH2 0x2ED2 JUMP JUMPDEST JUMPDEST SWAP1 PUSH0 MSTORE PUSH1 0x20 PUSH0 KECCAK256 ADD PUSH1 0x40 MLOAD PUSH2 0x1D3B SWAP2 SWAP1 PUSH2 0x2F91 JUMP JUMPDEST PUSH1 0x40 MLOAD DUP1 SWAP2 SUB SWAP1 KECCAK256 SUB PUSH2 0x1D53 JUMPI PUSH1 0x1 SWAP3 POP POP POP PUSH2 0x1D66 JUMP JUMPDEST DUP1 DUP1 PUSH1 0x1 ADD SWAP2 POP POP PUSH2 0x1D06 JUMP JUMPDEST POP PUSH0 SWAP2 POP POP JUMPDEST SWAP3 SWAP2 POP POP JUMP JUMPDEST PUSH0 PUSH0 SWAP1 POP JUMPDEST DUP3 DUP1 SLOAD SWAP1 POP DUP2 LT ISZERO PUSH2 0x1DEB JUMPI PUSH1 0x64 DUP3 PUSH1 0x64 PUSH2 0x1D8C SWAP2 SWAP1 PUSH2 0x2FA7 JUMP JUMPDEST PUSH1 0xFF AND DUP5 DUP4 DUP2 SLOAD DUP2 LT PUSH2 0x1DA2 JUMPI PUSH2 0x1DA1 PUSH2 0x2ED2 JUMP JUMPDEST JUMPDEST SWAP1 PUSH0 MSTORE PUSH1 0x20 PUSH0 KECCAK256 ADD SLOAD PUSH2 0x1DB5 SWAP2 SWAP1 PUSH2 0x269D JUMP JUMPDEST PUSH2 0x1DBF SWAP2 SWAP1 PUSH2 0x3008 JUMP JUMPDEST DUP4 DUP3 DUP2 SLOAD DUP2 LT PUSH2 0x1DD2 JUMPI PUSH2 0x1DD1 PUSH2 0x2ED2 JUMP JUMPDEST JUMPDEST SWAP1 PUSH0 MSTORE PUSH1 0x20 PUSH0 KECCAK256 ADD DUP2 SWAP1 SSTORE POP DUP1 DUP1 PUSH1 0x1 ADD SWAP2 POP POP PUSH2 0x1D71 JUMP JUMPDEST POP POP POP JUMP JUMPDEST POP DUP1 SLOAD PUSH2 0x1DFC SWAP1 PUSH2 0x2317 JUMP JUMPDEST PUSH0 DUP3 SSTORE DUP1 PUSH1 0x1F LT PUSH2 0x1E0D JUMPI POP PUSH2 0x1E2A JUMP JUMPDEST PUSH1 0x1F ADD PUSH1 0x20 SWAP1 DIV SWAP1 PUSH0 MSTORE PUSH1 0x20 PUSH0 KECCAK256 SWAP1 DUP2 ADD SWAP1 PUSH2 0x1E29 SWAP2 SWAP1 PUSH2 0x1E69 JUMP JUMPDEST JUMPDEST POP JUMP JUMPDEST POP DUP1 SLOAD PUSH0 DUP3 SSTORE SWAP1 PUSH0 MSTORE PUSH1 0x20 PUSH0 KECCAK256 SWAP1 DUP2 ADD SWAP1 PUSH2 0x1E48 SWAP2 SWAP1 PUSH2 0x1E84 JUMP JUMPDEST POP JUMP JUMPDEST POP DUP1 SLOAD PUSH0 DUP3 SSTORE SWAP1 PUSH0 MSTORE PUSH1 0x20 PUSH0 KECCAK256 SWAP1 DUP2 ADD SWAP1 PUSH2 0x1E66 SWAP2 SWAP1 PUSH2 0x1E69 JUMP JUMPDEST POP JUMP JUMPDEST JUMPDEST DUP1 DUP3 GT ISZERO PUSH2 0x1E80 JUMPI PUSH0 DUP2 PUSH0 SWAP1 SSTORE POP PUSH1 0x1 ADD PUSH2 0x1E6A JUMP JUMPDEST POP SWAP1 JUMP JUMPDEST JUMPDEST DUP1 DUP3 GT ISZERO PUSH2 0x1EA3 JUMPI PUSH0 DUP2 DUP2 PUSH2 0x1E9A SWAP2 SWAP1 PUSH2 0x1DF0 JUMP JUMPDEST POP PUSH1 0x1 ADD PUSH2 0x1E85 JUMP JUMPDEST POP SWAP1 JUMP JUMPDEST PUSH0 PUSH0 REVERT JUMPDEST PUSH0 PUSH0 REVERT JUMPDEST PUSH0 PUSH32 0xFFFFFFFF00000000000000000000000000000000000000000000000000000000 DUP3 AND SWAP1 POP SWAP2 SWAP1 POP JUMP JUMPDEST PUSH2 0x1EE3 DUP2 PUSH2 0x1EAF JUMP JUMPDEST DUP2 EQ PUSH2 0x1EED JUMPI PUSH0 PUSH0 REVERT JUMPDEST POP JUMP JUMPDEST PUSH0 DUP2 CALLDATALOAD SWAP1 POP PUSH2 0x1EFE DUP2 PUSH2 0x1EDA JUMP JUMPDEST SWAP3 SWAP2 POP POP JUMP JUMPDEST PUSH0 PUSH1 0x20 DUP3 DUP5 SUB SLT ISZERO PUSH2 0x1F19 JUMPI PUSH2 0x1F18 PUSH2 0x1EA7 JUMP JUMPDEST JUMPDEST PUSH0 PUSH2 0x1F26 DUP5 DUP3 DUP6 ADD PUSH2 0x1EF0 JUMP JUMPDEST SWAP2 POP POP SWAP3 SWAP2 POP POP JUMP JUMPDEST PUSH0 DUP2 ISZERO ISZERO SWAP1 POP SWAP2 SWAP1 POP JUMP JUMPDEST PUSH2 0x1F43 DUP2 PUSH2 0x1F2F JUMP JUMPDEST DUP3 MSTORE POP POP JUMP JUMPDEST PUSH0 PUSH1 0x20 DUP3 ADD SWAP1 POP PUSH2 0x1F5C PUSH0 DUP4 ADD DUP5 PUSH2 0x1F3A JUMP JUMPDEST SWAP3 SWAP2 POP POP JUMP JUMPDEST PUSH0 DUP2 SWAP1 POP SWAP2 SWAP1 POP JUMP JUMPDEST PUSH2 0x1F74 DUP2 PUSH2 0x1F62 JUMP JUMPDEST DUP2 EQ PUSH2 0x1F7E JUMPI PUSH0 PUSH0 REVERT JUMPDEST POP JUMP JUMPDEST PUSH0 DUP2 CALLDATALOAD SWAP1 POP PUSH2 0x1F8F DUP2 PUSH2 0x1F6B JUMP JUMPDEST SWAP3 SWAP2 POP POP JUMP JUMPDEST PUSH0 PUSH1 0x20 DUP3 DUP5 SUB SLT ISZERO PUSH2 0x1FAA JUMPI PUSH2 0x1FA9 PUSH2 0x1EA7 JUMP JUMPDEST JUMPDEST PUSH0 PUSH2 0x1FB7 DUP5 DUP3 DUP6 ADD PUSH2 0x1F81 JUMP JUMPDEST SWAP2 POP POP SWAP3 SWAP2 POP POP JUMP JUMPDEST PUSH0 PUSH20 0xFFFFFFFFFFFFFFFFFFFFFFFFFFFFFFFFFFFFFFFF DUP3 AND SWAP1 POP SWAP2 SWAP1 POP JUMP JUMPDEST PUSH0 PUSH2 0x1FE9 DUP3 PUSH2 0x1FC0 JUMP JUMPDEST SWAP1 POP SWAP2 SWAP1 POP JUMP JUMPDEST PUSH2 0x1FF9 DUP2 PUSH2 0x1FDF JUMP JUMPDEST DUP3 MSTORE POP POP JUMP JUMPDEST PUSH0 PUSH1 0x20 DUP3 ADD SWAP1 POP PUSH2 0x2012 PUSH0 DUP4 ADD DUP5 PUSH2 0x1FF0 JUMP JUMPDEST SWAP3 SWAP2 POP POP JUMP JUMPDEST PUSH2 0x2021 DUP2 PUSH2 0x1FDF JUMP JUMPDEST DUP2 EQ PUSH2 0x202B JUMPI PUSH0 PUSH0 REVERT JUMPDEST POP JUMP JUMPDEST PUSH0 DUP2 CALLDATALOAD SWAP1 POP PUSH2 0x203C DUP2 PUSH2 0x2018 JUMP JUMPDEST SWAP3 SWAP2 POP POP JUMP JUMPDEST PUSH0 PUSH0 PUSH1 0x40 DUP4 DUP6 SUB SLT ISZERO PUSH2 0x2058 JUMPI PUSH2 0x2057 PUSH2 0x1EA7 JUMP JUMPDEST JUMPDEST PUSH0 PUSH2 0x2065 DUP6 DUP3 DUP7 ADD PUSH2 0x202E JUMP JUMPDEST SWAP3 POP POP PUSH1 0x20 PUSH2 0x2076 DUP6 DUP3 DUP7 ADD PUSH2 0x1F81 JUMP JUMPDEST SWAP2 POP POP SWAP3 POP SWAP3 SWAP1 POP JUMP JUMPDEST PUSH0 PUSH0 REVERT JUMPDEST PUSH0 PUSH0 REVERT JUMPDEST PUSH0 PUSH0 REVERT JUMPDEST PUSH0 PUSH0 DUP4 PUSH1 0x1F DUP5 ADD SLT PUSH2 0x20A1 JUMPI PUSH2 0x20A0 PUSH2 0x2080 JUMP JUMPDEST JUMPDEST DUP3 CALLDATALOAD SWAP1 POP PUSH8 0xFFFFFFFFFFFFFFFF DUP2 GT ISZERO PUSH2 0x20BE JUMPI PUSH2 0x20BD PUSH2 0x2084 JUMP JUMPDEST JUMPDEST PUSH1 0x20 DUP4 ADD SWAP2 POP DUP4 PUSH1 0x1 DUP3 MUL DUP4 ADD GT ISZERO PUSH2 0x20DA JUMPI PUSH2 0x20D9 PUSH2 0x2088 JUMP JUMPDEST JUMPDEST SWAP3 POP SWAP3 SWAP1 POP JUMP JUMPDEST PUSH0 PUSH0 PUSH0 PUSH0 PUSH1 0x60 DUP6 DUP8 SUB SLT ISZERO PUSH2 0x20F9 JUMPI PUSH2 0x20F8 PUSH2 0x1EA7 JUMP JUMPDEST JUMPDEST PUSH0 PUSH2 0x2106 DUP8 DUP3 DUP9 ADD PUSH2 0x1F81 JUMP JUMPDEST SWAP5 POP POP PUSH1 0x20 DUP6 ADD CALLDATALOAD PUSH8 0xFFFFFFFFFFFFFFFF DUP2 GT ISZERO PUSH2 0x2127 JUMPI PUSH2 0x2126 PUSH2 0x1EAB JUMP JUMPDEST JUMPDEST PUSH2 0x2133 DUP8 DUP3 DUP9 ADD PUSH2 0x208C JUMP JUMPDEST SWAP4 POP SWAP4 POP POP PUSH1 0x40 PUSH2 0x2146 DUP8 DUP3 DUP9 ADD PUSH2 0x1F81 JUMP JUMPDEST SWAP2 POP POP SWAP3 SWAP6 SWAP2 SWAP5 POP SWAP3 POP JUMP JUMPDEST PUSH0 PUSH0 PUSH0 PUSH1 0x60 DUP5 DUP7 SUB SLT ISZERO PUSH2 0x2169 JUMPI PUSH2 0x2168 PUSH2 0x1EA7 JUMP JUMPDEST JUMPDEST PUSH0 PUSH2 0x2176 DUP7 DUP3 DUP8 ADD PUSH2 0x202E JUMP JUMPDEST SWAP4 POP POP PUSH1 0x20 PUSH2 0x2187 DUP7 DUP3 DUP8 ADD PUSH2 0x202E JUMP JUMPDEST SWAP3 POP POP PUSH1 0x40 PUSH2 0x2198 DUP7 DUP3 DUP8 ADD PUSH2 0x1F81 JUMP JUMPDEST SWAP2 POP POP SWAP3 POP SWAP3 POP SWAP3 JUMP JUMPDEST PUSH2 0x21AB DUP2 PUSH2 0x1EAF JUMP JUMPDEST DUP3 MSTORE POP POP JUMP JUMPDEST PUSH0 PUSH1 0x40 DUP3 ADD SWAP1 POP PUSH2 0x21C4 PUSH0 DUP4 ADD DUP6 PUSH2 0x21A2 JUMP JUMPDEST PUSH2 0x21D1 PUSH1 0x20 DUP4 ADD DUP5 PUSH2 0x21A2 JUMP JUMPDEST SWAP4 SWAP3 POP POP POP JUMP JUMPDEST PUSH0 PUSH1 0x20 DUP3 DUP5 SUB SLT ISZERO PUSH2 0x21ED JUMPI PUSH2 0x21EC PUSH2 0x1EA7 JUMP JUMPDEST JUMPDEST PUSH0 PUSH2 0x21FA DUP5 DUP3 DUP6 ADD PUSH2 0x202E JUMP JUMPDEST SWAP2 POP POP SWAP3 SWAP2 POP POP JUMP JUMPDEST PUSH2 0x220C DUP2 PUSH2 0x1F62 JUMP JUMPDEST DUP3 MSTORE POP POP JUMP JUMPDEST PUSH0 PUSH1 0x20 DUP3 ADD SWAP1 POP PUSH2 0x2225 PUSH0 DUP4 ADD DUP5 PUSH2 0x2203 JUMP JUMPDEST SWAP3 SWAP2 POP POP JUMP JUMPDEST PUSH0 PUSH0 PUSH1 0x20 DUP4 DUP6 SUB SLT ISZERO PUSH2 0x2241 JUMPI PUSH2 0x2240 PUSH2 0x1EA7 JUMP JUMPDEST JUMPDEST PUSH0 DUP4 ADD CALLDATALOAD PUSH8 0xFFFFFFFFFFFFFFFF DUP2 GT ISZERO PUSH2 0x225E JUMPI PUSH2 0x225D PUSH2 0x1EAB JUMP JUMPDEST JUMPDEST PUSH2 0x226A DUP6 DUP3 DUP7 ADD PUSH2 0x208C JUMP JUMPDEST SWAP3 POP SWAP3 POP POP SWAP3 POP SWAP3 SWAP1 POP JUMP JUMPDEST PUSH0 PUSH1 0xFF DUP3 AND SWAP1 POP SWAP2 SWAP1 POP JUMP JUMPDEST PUSH2 0x228B DUP2 PUSH2 0x2276 JUMP JUMPDEST DUP2 EQ PUSH2 0x2295 JUMPI PUSH0 PUSH0 REVERT JUMPDEST POP JUMP JUMPDEST PUSH0 DUP2 CALLDATALOAD SWAP1 POP PUSH2 0x22A6 DUP2 PUSH2 0x2282 JUMP JUMPDEST SWAP3 SWAP2 POP POP JUMP JUMPDEST PUSH0 PUSH0 PUSH1 0x40 DUP4 DUP6 SUB SLT ISZERO PUSH2 0x22C2 JUMPI PUSH2 0x22C1 PUSH2 0x1EA7 JUMP JUMPDEST JUMPDEST PUSH0 PUSH2 0x22CF DUP6 DUP3 DUP7 ADD PUSH2 0x1F81 JUMP JUMPDEST SWAP3 POP POP PUSH1 0x20 PUSH2 0x22E0 DUP6 DUP3 DUP7 ADD PUSH2 0x2298 JUMP JUMPDEST SWAP2 POP POP SWAP3 POP SWAP3 SWAP1 POP JUMP JUMPDEST PUSH32 0x4E487B7100000000000000000000000000000000000000000000000000000000 PUSH0 MSTORE PUSH1 0x22 PUSH1 0x4 MSTORE PUSH1 0x24 PUSH0 REVERT JUMPDEST PUSH0 PUSH1 0x2 DUP3 DIV SWAP1 POP PUSH1 0x1 DUP3 AND DUP1 PUSH2 0x232E JUMPI PUSH1 0x7F DUP3 AND SWAP2 POP JUMPDEST PUSH1 0x20 DUP3 LT DUP2 SUB PUSH2 0x2341 JUMPI PUSH2 0x2340 PUSH2 0x22EA JUMP JUMPDEST JUMPDEST POP SWAP2 SWAP1 POP JUMP JUMPDEST PUSH0 DUP3 DUP3 MSTORE PUSH1 0x20 DUP3 ADD SWAP1 POP SWAP3 SWAP2 POP POP JUMP JUMPDEST PUSH32 0x496E76616C696420746F6B656E00000000000000000000000000000000000000 PUSH0 DUP3 ADD MSTORE POP JUMP JUMPDEST PUSH0 PUSH2 0x238B PUSH1 0xD DUP4 PUSH2 0x2347 JUMP JUMPDEST SWAP2 POP PUSH2 0x2396 DUP3 PUSH2 0x2357 JUMP JUMPDEST PUSH1 0x20 DUP3 ADD SWAP1 POP SWAP2 SWAP1 POP JUMP JUMPDEST PUSH0 PUSH1 0x20 DUP3 ADD SWAP1 POP DUP2 DUP2 SUB PUSH0 DUP4 ADD MSTORE PUSH2 0x23B8 DUP2 PUSH2 0x237F JUMP JUMPDEST SWAP1 POP SWAP2 SWAP1 POP JUMP JUMPDEST PUSH32 0x556E617574686F72697A65642061636365737300000000000000000000000000 PUSH0 DUP3 ADD MSTORE POP JUMP JUMPDEST PUSH0 PUSH2 0x23F3 PUSH1 0x13 DUP4 PUSH2 0x2347 JUMP JUMPDEST SWAP2 POP PUSH2 0x23FE DUP3 PUSH2 0x23BF JUMP JUMPDEST PUSH1 0x20 DUP3 ADD SWAP1 POP SWAP2 SWAP1 POP JUMP JUMPDEST PUSH0 PUSH1 0x20 DUP3 ADD SWAP1 POP DUP2 DUP2 SUB PUSH0 DUP4 ADD MSTORE PUSH2 0x2420 DUP2 PUSH2 0x23E7 JUMP JUMPDEST SWAP1 POP SWAP2 SWAP1 POP JUMP JUMPDEST PUSH32 0x4E6F7468696E6720746F20617070726F76650000000000000000000000000000 PUSH0 DUP3 ADD MSTORE POP JUMP JUMPDEST PUSH0 PUSH2 0x245B PUSH1 0x12 DUP4 PUSH2 0x2347 JUMP JUMPDEST SWAP2 POP PUSH2 0x2466 DUP3 PUSH2 0x2427 JUMP JUMPDEST PUSH1 0x20 DUP3 ADD SWAP1 POP SWAP2 SWAP1 POP JUMP JUMPDEST PUSH0 PUSH1 0x20 DUP3 ADD SWAP1 POP DUP2 DUP2 SUB PUSH0 DUP4 ADD MSTORE PUSH2 0x2488 DUP2 PUSH2 0x244F JUMP JUMPDEST SWAP1 POP SWAP2 SWAP1 POP JUMP JUMPDEST PUSH32 0x4E6F7420656E6F7567682066756E647300000000000000000000000000000000 PUSH0 DUP3 ADD MSTORE POP JUMP JUMPDEST PUSH0 PUSH2 0x24C3 PUSH1 0x10 DUP4 PUSH2 0x2347 JUMP JUMPDEST SWAP2 POP PUSH2 0x24CE DUP3 PUSH2 0x248F JUMP JUMPDEST PUSH1 0x20 DUP3 ADD SWAP1 POP SWAP2 SWAP1 POP JUMP JUMPDEST PUSH0 PUSH1 0x20 DUP3 ADD SWAP1 POP DUP2 DUP2 SUB PUSH0 DUP4 ADD MSTORE PUSH2 0x24F0 DUP2 PUSH2 0x24B7 JUMP JUMPDEST SWAP1 POP SWAP2 SWAP1 POP JUMP JUMPDEST PUSH32 0x4E487B7100000000000000000000000000000000000000000000000000000000 PUSH0 MSTORE PUSH1 0x11 PUSH1 0x4 MSTORE PUSH1 0x24 PUSH0 REVERT JUMPDEST PUSH0 DUP2 PUSH1 0x1 SHR SWAP1 POP SWAP2 SWAP1 POP JUMP JUMPDEST PUSH0 PUSH0 DUP3 SWAP2 POP DUP4 SWAP1 POP JUMPDEST PUSH1 0x1 DUP6 GT ISZERO PUSH2 0x2579 JUMPI DUP1 DUP7 DIV DUP2 GT ISZERO PUSH2 0x2555 JUMPI PUSH2 0x2554 PUSH2 0x24F7 JUMP JUMPDEST JUMPDEST PUSH1 0x1 DUP6 AND ISZERO PUSH2 0x2564 JUMPI DUP1 DUP3 MUL SWAP2 POP JUMPDEST DUP1 DUP2 MUL SWAP1 POP PUSH2 0x2572 DUP6 PUSH2 0x2524 JUMP JUMPDEST SWAP5 POP PUSH2 0x2539 JUMP JUMPDEST SWAP5 POP SWAP5 SWAP3 POP POP POP JUMP JUMPDEST PUSH0 DUP3 PUSH2 0x2591 JUMPI PUSH1 0x1 SWAP1 POP PUSH2 0x264C JUMP JUMPDEST DUP2 PUSH2 0x259E JUMPI PUSH0 SWAP1 POP PUSH2 0x264C JUMP JUMPDEST DUP2 PUSH1 0x1 DUP2 EQ PUSH2 0x25B4 JUMPI PUSH1 0x2 DUP2 EQ PUSH2 0x25BE JUMPI PUSH2 0x25ED JUMP JUMPDEST PUSH1 0x1 SWAP2 POP POP PUSH2 0x264C JUMP JUMPDEST PUSH1 0xFF DUP5 GT ISZERO PUSH2 0x25D0 JUMPI PUSH2 0x25CF PUSH2 0x24F7 JUMP JUMPDEST JUMPDEST DUP4 PUSH1 0x2 EXP SWAP2 POP DUP5 DUP3 GT ISZERO PUSH2 0x25E7 JUMPI PUSH2 0x25E6 PUSH2 0x24F7 JUMP JUMPDEST JUMPDEST POP PUSH2 0x264C JUMP JUMPDEST POP PUSH1 0x20 DUP4 LT PUSH2 0x133 DUP4 LT AND PUSH1 0x4E DUP5 LT PUSH1 0xB DUP5 LT AND OR ISZERO PUSH2 0x2622 JUMPI DUP3 DUP3 EXP SWAP1 POP DUP4 DUP2 GT ISZERO PUSH2 0x261D JUMPI PUSH2 0x261C PUSH2 0x24F7 JUMP JUMPDEST JUMPDEST PUSH2 0x264C JUMP JUMPDEST PUSH2 0x262F DUP5 DUP5 DUP5 PUSH1 0x1 PUSH2 0x2530 JUMP JUMPDEST SWAP3 POP SWAP1 POP DUP2 DUP5 DIV DUP2 GT ISZERO PUSH2 0x2646 JUMPI PUSH2 0x2645 PUSH2 0x24F7 JUMP JUMPDEST JUMPDEST DUP2 DUP2 MUL SWAP1 POP JUMPDEST SWAP4 SWAP3 POP POP POP JUMP JUMPDEST PUSH0 PUSH2 0x265D DUP3 PUSH2 0x1F62 JUMP JUMPDEST SWAP2 POP PUSH2 0x2668 DUP4 PUSH2 0x1F62 JUMP JUMPDEST SWAP3 POP PUSH2 0x2695 PUSH32 0xFFFFFFFFFFFFFFFFFFFFFFFFFFFFFFFFFFFFFFFFFFFFFFFFFFFFFFFFFFFFFFFF DUP5 DUP5 PUSH2 0x2582 JUMP JUMPDEST SWAP1 POP SWAP3 SWAP2 POP POP JUMP JUMPDEST PUSH0 PUSH2 0x26A7 DUP3 PUSH2 0x1F62 JUMP JUMPDEST SWAP2 POP PUSH2 0x26B2 DUP4 PUSH2 0x1F62 JUMP JUMPDEST SWAP3 POP DUP3 DUP3 MUL PUSH2 0x26C0 DUP2 PUSH2 0x1F62 JUMP JUMPDEST SWAP2 POP DUP3 DUP3 DIV DUP5 EQ DUP4 ISZERO OR PUSH2 0x26D7 JUMPI PUSH2 0x26D6 PUSH2 0x24F7 JUMP JUMPDEST JUMPDEST POP SWAP3 SWAP2 POP POP JUMP JUMPDEST PUSH32 0x4E6F7420656E6F756768206D6F6E657900000000000000000000000000000000 PUSH0 DUP3 ADD MSTORE POP JUMP JUMPDEST PUSH0 PUSH2 0x2712 PUSH1 0x10 DUP4 PUSH2 0x2347 JUMP JUMPDEST SWAP2 POP PUSH2 0x271D DUP3 PUSH2 0x26DE JUMP JUMPDEST PUSH1 0x20 DUP3 ADD SWAP1 POP SWAP2 SWAP1 POP JUMP JUMPDEST PUSH0 PUSH1 0x20 DUP3 ADD SWAP1 POP DUP2 DUP2 SUB PUSH0 DUP4 ADD MSTORE PUSH2 0x273F DUP2 PUSH2 0x2706 JUMP JUMPDEST SWAP1 POP SWAP2 SWAP1 POP JUMP JUMPDEST PUSH32 0x416C726561647920657869737473000000000000000000000000000000000000 PUSH0 DUP3 ADD MSTORE POP JUMP JUMPDEST PUSH0 PUSH2 0x277A PUSH1 0xE DUP4 PUSH2 0x2347 JUMP JUMPDEST SWAP2 POP PUSH2 0x2785 DUP3 PUSH2 0x2746 JUMP JUMPDEST PUSH1 0x20 DUP3 ADD SWAP1 POP SWAP2 SWAP1 POP JUMP JUMPDEST PUSH0 PUSH1 0x20 DUP3 ADD SWAP1 POP DUP2 DUP2 SUB PUSH0 DUP4 ADD MSTORE PUSH2 0x27A7 DUP2 PUSH2 0x276E JUMP JUMPDEST SWAP1 POP SWAP2 SWAP1 POP JUMP JUMPDEST PUSH0 DUP3 SWAP1 POP SWAP3 SWAP2 POP POP JUMP JUMPDEST PUSH32 0x4E487B7100000000000000000000000000000000000000000000000000000000 PUSH0 MSTORE PUSH1 0x41 PUSH1 0x4 MSTORE PUSH1 0x24 PUSH0 REVERT JUMPDEST PUSH0 DUP2 SWAP1 POP DUP2 PUSH0 MSTORE PUSH1 0x20 PUSH0 KECCAK256 SWAP1 POP SWAP2 SWAP1 POP JUMP JUMPDEST PUSH0 PUSH1 0x20 PUSH1 0x1F DUP4 ADD DIV SWAP1 POP SWAP2 SWAP1 POP JUMP JUMPDEST PUSH0 DUP3 DUP3 SHL SWAP1 POP SWAP3 SWAP2 POP POP JUMP JUMPDEST PUSH0 PUSH1 0x8 DUP4 MUL PUSH2 0x2841 PUSH32 0xFFFFFFFFFFFFFFFFFFFFFFFFFFFFFFFFFFFFFFFFFFFFFFFFFFFFFFFFFFFFFFFF DUP3 PUSH2 0x2806 JUMP JUMPDEST PUSH2 0x284B DUP7 DUP4 PUSH2 0x2806 JUMP JUMPDEST SWAP6 POP DUP1 NOT DUP5 AND SWAP4 POP DUP1 DUP7 AND DUP5 OR SWAP3 POP POP POP SWAP4 SWAP3 POP POP POP JUMP JUMPDEST PUSH0 DUP2 SWAP1 POP SWAP2 SWAP1 POP JUMP JUMPDEST PUSH0 PUSH2 0x2886 PUSH2 0x2881 PUSH2 0x287C DUP5 PUSH2 0x1F62 JUMP JUMPDEST PUSH2 0x2863 JUMP JUMPDEST PUSH2 0x1F62 JUMP JUMPDEST SWAP1 POP SWAP2 SWAP1 POP JUMP JUMPDEST PUSH0 DUP2 SWAP1 POP SWAP2 SWAP1 POP JUMP JUMPDEST PUSH2 0x289F DUP4 PUSH2 0x286C JUMP JUMPDEST PUSH2 0x28B3 PUSH2 0x28AB DUP3 PUSH2 0x288D JUMP JUMPDEST DUP5 DUP5 SLOAD PUSH2 0x2812 JUMP JUMPDEST DUP3 SSTORE POP POP POP POP JUMP JUMPDEST PUSH0 PUSH0 SWAP1 POP SWAP1 JUMP JUMPDEST PUSH2 0x28CA PUSH2 0x28BB JUMP JUMPDEST PUSH2 0x28D5 DUP2 DUP5 DUP5 PUSH2 0x2896 JUMP JUMPDEST POP POP POP JUMP JUMPDEST JUMPDEST DUP2 DUP2 LT ISZERO PUSH2 0x28F8 JUMPI PUSH2 0x28ED PUSH0 DUP3 PUSH2 0x28C2 JUMP JUMPDEST PUSH1 0x1 DUP2 ADD SWAP1 POP PUSH2 0x28DB JUMP JUMPDEST POP POP JUMP JUMPDEST PUSH1 0x1F DUP3 GT ISZERO PUSH2 0x293D JUMPI PUSH2 0x290E DUP2 PUSH2 0x27E5 JUMP JUMPDEST PUSH2 0x2917 DUP5 PUSH2 0x27F7 JUMP JUMPDEST DUP2 ADD PUSH1 0x20 DUP6 LT ISZERO PUSH2 0x2926 JUMPI DUP2 SWAP1 POP JUMPDEST PUSH2 0x293A PUSH2 0x2932 DUP6 PUSH2 0x27F7 JUMP JUMPDEST DUP4 ADD DUP3 PUSH2 0x28DA JUMP JUMPDEST POP POP JUMPDEST POP POP POP JUMP JUMPDEST PUSH0 DUP3 DUP3 SHR SWAP1 POP SWAP3 SWAP2 POP POP JUMP JUMPDEST PUSH0 PUSH2 0x295D PUSH0 NOT DUP5 PUSH1 0x8 MUL PUSH2 0x2942 JUMP JUMPDEST NOT DUP1 DUP4 AND SWAP2 POP POP SWAP3 SWAP2 POP POP JUMP JUMPDEST PUSH0 PUSH2 0x2975 DUP4 DUP4 PUSH2 0x294E JUMP JUMPDEST SWAP2 POP DUP3 PUSH1 0x2 MUL DUP3 OR SWAP1 POP SWAP3 SWAP2 POP POP JUMP JUMPDEST PUSH2 0x298F DUP4 DUP4 PUSH2 0x27AE JUMP JUMPDEST PUSH8 0xFFFFFFFFFFFFFFFF DUP2 GT ISZERO PUSH2 0x29A8 JUMPI PUSH2 0x29A7 PUSH2 0x27B8 JUMP JUMPDEST JUMPDEST PUSH2 0x29B2 DUP3 SLOAD PUSH2 0x2317 JUMP JUMPDEST PUSH2 0x29BD DUP3 DUP3 DUP6 PUSH2 0x28FC JUMP JUMPDEST PUSH0 PUSH1 0x1F DUP4 GT PUSH1 0x1 DUP2 EQ PUSH2 0x29EA JUMPI PUSH0 DUP5 ISZERO PUSH2 0x29D8 JUMPI DUP3 DUP8 ADD CALLDATALOAD SWAP1 POP JUMPDEST PUSH2 0x29E2 DUP6 DUP3 PUSH2 0x296A JUMP JUMPDEST DUP7 SSTORE POP PUSH2 0x2A49 JUMP JUMPDEST PUSH1 0x1F NOT DUP5 AND PUSH2 0x29F8 DUP7 PUSH2 0x27E5 JUMP JUMPDEST PUSH0 JUMPDEST DUP3 DUP2 LT ISZERO PUSH2 0x2A1F JUMPI DUP5 DUP10 ADD CALLDATALOAD DUP3 SSTORE PUSH1 0x1 DUP3 ADD SWAP2 POP PUSH1 0x20 DUP6 ADD SWAP5 POP PUSH1 0x20 DUP2 ADD SWAP1 POP PUSH2 0x29FA JUMP JUMPDEST DUP7 DUP4 LT ISZERO PUSH2 0x2A3C JUMPI DUP5 DUP10 ADD CALLDATALOAD PUSH2 0x2A38 PUSH1 0x1F DUP10 AND DUP3 PUSH2 0x294E JUMP JUMPDEST DUP4 SSTORE POP JUMPDEST PUSH1 0x1 PUSH1 0x2 DUP9 MUL ADD DUP9 SSTORE POP POP POP JUMPDEST POP POP POP POP POP POP POP JUMP JUMPDEST PUSH32 0x496E76616C696420726563697069656E74000000000000000000000000000000 PUSH0 DUP3 ADD MSTORE POP JUMP JUMPDEST PUSH0 PUSH2 0x2A86 PUSH1 0x11 DUP4 PUSH2 0x2347 JUMP JUMPDEST SWAP2 POP PUSH2 0x2A91 DUP3 PUSH2 0x2A52 JUMP JUMPDEST PUSH1 0x20 DUP3 ADD SWAP1 POP SWAP2 SWAP1 POP JUMP JUMPDEST PUSH0 PUSH1 0x20 DUP3 ADD SWAP1 POP DUP2 DUP2 SUB PUSH0 DUP4 ADD MSTORE PUSH2 0x2AB3 DUP2 PUSH2 0x2A7A JUMP JUMPDEST SWAP1 POP SWAP2 SWAP1 POP JUMP JUMPDEST PUSH0 PUSH2 0x2AC4 DUP3 PUSH2 0x1F62 JUMP JUMPDEST SWAP2 POP PUSH2 0x2ACF DUP4 PUSH2 0x1F62 JUMP JUMPDEST SWAP3 POP DUP3 DUP3 SUB SWAP1 POP DUP2 DUP2 GT ISZERO PUSH2 0x2AE7 JUMPI PUSH2 0x2AE6 PUSH2 0x24F7 JUMP JUMPDEST JUMPDEST SWAP3 SWAP2 POP POP JUMP JUMPDEST PUSH0 PUSH2 0x2AF7 DUP3 PUSH2 0x1F62 JUMP JUMPDEST SWAP2 POP PUSH2 0x2B02 DUP4 PUSH2 0x1F62 JUMP JUMPDEST SWAP3 POP DUP3 DUP3 ADD SWAP1 POP DUP1 DUP3 GT ISZERO PUSH2 0x2B1A JUMPI PUSH2 0x2B19 PUSH2 0x24F7 JUMP JUMPDEST JUMPDEST SWAP3 SWAP2 POP POP JUMP JUMPDEST PUSH0 DUP3 DUP3 MSTORE PUSH1 0x20 DUP3 ADD SWAP1 POP SWAP3 SWAP2 POP POP JUMP JUMPDEST POP JUMP JUMPDEST PUSH0 PUSH2 0x2B3E PUSH0 DUP4 PUSH2 0x2B20 JUMP JUMPDEST SWAP2 POP PUSH2 0x2B49 DUP3 PUSH2 0x2B30 JUMP JUMPDEST PUSH0 DUP3 ADD SWAP1 POP SWAP2 SWAP1 POP JUMP JUMPDEST PUSH0 PUSH1 0x80 DUP3 ADD SWAP1 POP PUSH2 0x2B66 PUSH0 DUP4 ADD DUP7 PUSH2 0x1FF0 JUMP JUMPDEST PUSH2 0x2B73 PUSH1 0x20 DUP4 ADD DUP6 PUSH2 0x1FF0 JUMP JUMPDEST PUSH2 0x2B80 PUSH1 0x40 DUP4 ADD DUP5 PUSH2 0x2203 JUMP JUMPDEST DUP2 DUP2 SUB PUSH1 0x60 DUP4 ADD MSTORE PUSH2 0x2B91 DUP2 PUSH2 0x2B33 JUMP JUMPDEST SWAP1 POP SWAP5 SWAP4 POP POP POP POP JUMP JUMPDEST PUSH0 DUP2 MLOAD SWAP1 POP PUSH2 0x2BA9 DUP2 PUSH2 0x1EDA JUMP JUMPDEST SWAP3 SWAP2 POP POP JUMP JUMPDEST PUSH0 PUSH1 0x20 DUP3 DUP5 SUB SLT ISZERO PUSH2 0x2BC4 JUMPI PUSH2 0x2BC3 PUSH2 0x1EA7 JUMP JUMPDEST JUMPDEST PUSH0 PUSH2 0x2BD1 DUP5 DUP3 DUP6 ADD PUSH2 0x2B9B JUMP JUMPDEST SWAP2 POP POP SWAP3 SWAP2 POP POP JUMP JUMPDEST PUSH32 0x496E76616C696420726563696576657200000000000000000000000000000000 PUSH0 DUP3 ADD MSTORE POP JUMP JUMPDEST PUSH0 PUSH2 0x2C0E PUSH1 0x10 DUP4 PUSH2 0x2347 JUMP JUMPDEST SWAP2 POP PUSH2 0x2C19 DUP3 PUSH2 0x2BDA JUMP JUMPDEST PUSH1 0x20 DUP3 ADD SWAP1 POP SWAP2 SWAP1 POP JUMP JUMPDEST PUSH0 PUSH1 0x20 DUP3 ADD SWAP1 POP DUP2 DUP2 SUB PUSH0 DUP4 ADD MSTORE PUSH2 0x2C3B DUP2 PUSH2 0x2C02 JUMP JUMPDEST SWAP1 POP SWAP2 SWAP1 POP JUMP JUMPDEST PUSH32 0x546F6B656E2072656A6563746564000000000000000000000000000000000000 PUSH0 DUP3 ADD MSTORE POP JUMP JUMPDEST PUSH0 PUSH2 0x2C76 PUSH1 0xE DUP4 PUSH2 0x2347 JUMP JUMPDEST SWAP2 POP PUSH2 0x2C81 DUP3 PUSH2 0x2C42 JUMP JUMPDEST PUSH1 0x20 DUP3 ADD SWAP1 POP SWAP2 SWAP1 POP JUMP JUMPDEST PUSH0 PUSH1 0x20 DUP3 ADD SWAP1 POP DUP2 DUP2 SUB PUSH0 DUP4 ADD MSTORE PUSH2 0x2CA3 DUP2 PUSH2 0x2C6A JUMP JUMPDEST SWAP1 POP SWAP2 SWAP1 POP JUMP JUMPDEST PUSH0 DUP2 SWAP1 POP SWAP3 SWAP2 POP POP JUMP JUMPDEST PUSH0 PUSH2 0x2CBF PUSH0 DUP4 PUSH2 0x2CAA JUMP JUMPDEST SWAP2 POP PUSH2 0x2CCA DUP3 PUSH2 0x2B30 JUMP JUMPDEST PUSH0 DUP3 ADD SWAP1 POP SWAP2 SWAP1 POP JUMP JUMPDEST PUSH0 PUSH2 0x2CDE DUP3 PUSH2 0x2CB4 JUMP JUMPDEST SWAP2 POP DUP2 SWAP1 POP SWAP2 SWAP1 POP JUMP JUMPDEST PUSH32 0x5061796D656E74206661696C6564000000000000000000000000000000000000 PUSH0 DUP3 ADD MSTORE POP JUMP JUMPDEST PUSH0 PUSH2 0x2D1C PUSH1 0xE DUP4 PUSH2 0x2347 JUMP JUMPDEST SWAP2 POP PUSH2 0x2D27 DUP3 PUSH2 0x2CE8 JUMP JUMPDEST PUSH1 0x20 DUP3 ADD SWAP1 POP SWAP2 SWAP1 POP JUMP JUMPDEST PUSH0 PUSH1 0x20 DUP3 ADD SWAP1 POP DUP2 DUP2 SUB PUSH0 DUP4 ADD MSTORE PUSH2 0x2D49 DUP2 PUSH2 0x2D10 JUMP JUMPDEST SWAP1 POP SWAP2 SWAP1 POP JUMP JUMPDEST PUSH32 0x496E76616C696420616464726573730000000000000000000000000000000000 PUSH0 DUP3 ADD MSTORE POP JUMP JUMPDEST PUSH0 PUSH2 0x2D84 PUSH1 0xF DUP4 PUSH2 0x2347 JUMP JUMPDEST SWAP2 POP PUSH2 0x2D8F DUP3 PUSH2 0x2D50 JUMP JUMPDEST PUSH1 0x20 DUP3 ADD SWAP1 POP SWAP2 SWAP1 POP JUMP JUMPDEST PUSH0 PUSH1 0x20 DUP3 ADD SWAP1 POP DUP2 DUP2 SUB PUSH0 DUP4 ADD MSTORE PUSH2 0x2DB1 DUP2 PUSH2 0x2D78 JUMP JUMPDEST SWAP1 POP SWAP2 SWAP1 POP JUMP JUMPDEST PUSH32 0x496E73756666696369656E742066756E64730000000000000000000000000000 PUSH0 DUP3 ADD MSTORE POP JUMP JUMPDEST PUSH0 PUSH2 0x2DEC PUSH1 0x12 DUP4 PUSH2 0x2347 JUMP JUMPDEST SWAP2 POP PUSH2 0x2DF7 DUP3 PUSH2 0x2DB8 JUMP JUMPDEST PUSH1 0x20 DUP3 ADD SWAP1 POP SWAP2 SWAP1 POP JUMP JUMPDEST PUSH0 PUSH1 0x20 DUP3 ADD SWAP1 POP DUP2 DUP2 SUB PUSH0 DUP4 ADD MSTORE PUSH2 0x2E19 DUP2 PUSH2 0x2DE0 JUMP JUMPDEST SWAP1 POP SWAP2 SWAP1 POP JUMP JUMPDEST PUSH32 0x5472616E73666572206661696C65640000000000000000000000000000000000 PUSH0 DUP3 ADD MSTORE POP JUMP JUMPDEST PUSH0 PUSH2 0x2E54 PUSH1 0xF DUP4 PUSH2 0x2347 JUMP JUMPDEST SWAP2 POP PUSH2 0x2E5F DUP3 PUSH2 0x2E20 JUMP JUMPDEST PUSH1 0x20 DUP3 ADD SWAP1 POP SWAP2 SWAP1 POP JUMP JUMPDEST PUSH0 PUSH1 0x20 DUP3 ADD SWAP1 POP DUP2 DUP2 SUB PUSH0 DUP4 ADD MSTORE PUSH2 0x2E81 DUP2 PUSH2 0x2E48 JUMP JUMPDEST SWAP1 POP SWAP2 SWAP1 POP JUMP JUMPDEST PUSH0 PUSH2 0x2E92 DUP3 PUSH2 0x1F62 JUMP JUMPDEST SWAP2 POP PUSH2 0x2E9D DUP4 PUSH2 0x2276 JUMP JUMPDEST SWAP3 POP PUSH2 0x2ECA PUSH32 0xFFFFFFFFFFFFFFFFFFFFFFFFFFFFFFFFFFFFFFFFFFFFFFFFFFFFFFFFFFFFFFFF DUP5 DUP5 PUSH2 0x2582 JUMP JUMPDEST SWAP1 POP SWAP3 SWAP2 POP POP JUMP JUMPDEST PUSH32 0x4E487B7100000000000000000000000000000000000000000000000000000000 PUSH0 MSTORE PUSH1 0x32 PUSH1 0x4 MSTORE PUSH1 0x24 PUSH0 REVERT JUMPDEST PUSH0 DUP2 SWAP1 POP DUP2 PUSH0 MSTORE PUSH1 0x20 PUSH0 KECCAK256 SWAP1 POP SWAP2 SWAP1 POP JUMP JUMPDEST PUSH0 DUP2 SLOAD PUSH2 0x2F1D DUP2 PUSH2 0x2317 JUMP JUMPDEST PUSH2 0x2F27 DUP2 DUP7 PUSH2 0x2CAA JUMP JUMPDEST SWAP5 POP PUSH1 0x1 DUP3 AND PUSH0 DUP2 EQ PUSH2 0x2F41 JUMPI PUSH1 0x1 DUP2 EQ PUSH2 0x2F56 JUMPI PUSH2 0x2F88 JUMP JUMPDEST PUSH1 0xFF NOT DUP4 AND DUP7 MSTORE DUP2 ISZERO ISZERO DUP3 MUL DUP7 ADD SWAP4 POP PUSH2 0x2F88 JUMP JUMPDEST PUSH2 0x2F5F DUP6 PUSH2 0x2EFF JUMP JUMPDEST PUSH0 JUMPDEST DUP4 DUP2 LT ISZERO PUSH2 0x2F80 JUMPI DUP2 SLOAD DUP2 DUP10 ADD MSTORE PUSH1 0x1 DUP3 ADD SWAP2 POP PUSH1 0x20 DUP2 ADD SWAP1 POP PUSH2 0x2F61 JUMP JUMPDEST DUP4 DUP9 ADD SWAP6 POP POP POP JUMPDEST POP POP POP SWAP3 SWAP2 POP POP JUMP JUMPDEST PUSH0 PUSH2 0x2F9C DUP3 DUP5 PUSH2 0x2F11 JUMP JUMPDEST SWAP2 POP DUP2 SWAP1 POP SWAP3 SWAP2 POP POP JUMP JUMPDEST PUSH0 PUSH2 0x2FB1 DUP3 PUSH2 0x2276 JUMP JUMPDEST SWAP2 POP PUSH2 0x2FBC DUP4 PUSH2 0x2276 JUMP JUMPDEST SWAP3 POP DUP3 DUP3 ADD SWAP1 POP PUSH1 0xFF DUP2 GT ISZERO PUSH2 0x2FD5 JUMPI PUSH2 0x2FD4 PUSH2 0x24F7 JUMP JUMPDEST JUMPDEST SWAP3 SWAP2 POP POP JUMP JUMPDEST PUSH32 0x4E487B7100000000000000000000000000000000000000000000000000000000 PUSH0 MSTORE PUSH1 0x12 PUSH1 0x4 MSTORE PUSH1 0x24 PUSH0 REVERT JUMPDEST PUSH0 PUSH2 0x3012 DUP3 PUSH2 0x1F62 JUMP JUMPDEST SWAP2 POP PUSH2 0x301D DUP4 PUSH2 0x1F62 JUMP JUMPDEST SWAP3 POP DUP3 PUSH2 0x302D JUMPI PUSH2 0x302C PUSH2 0x2FDB JUMP JUMPDEST JUMPDEST DUP3 DUP3 DIV SWAP1 POP SWAP3 SWAP2 POP POP JUMP INVALID LOG2 PUSH5 0x6970667358 0x22 SLT KECCAK256 DUP16 0xD0 CALLF 0xE45F SMOD 0xE8 SWAP3 0xBF RETURNDATACOPY SMOD 0x1F JUMPDEST 0xB1 PUSH19 0x264241E1E680E97A1C341E9B6F5B4E92CE6473 PUSH16 0x6C634300081F00330000000000000000 "
				},
				"gasEstimates": {
					"creation": {
						"codeDepositCost": "2479600",
						"executionCost": "54046",
						"totalCost": "2533646"
					},
					"external": {
						"FEE()": "369",
						"addWeapon(uint256,string,uint256)": "infinite",
						"approve(address,uint256)": "infinite",
						"balanceOf(address)": "2930",
						"collectProfits()": "infinite",
						"createNewToken(string)": "infinite",
						"getApproved(uint256)": "5233",
						"getInterfaceIds()": "infinite",
						"incrementFirePower(uint256,uint8)": "infinite",
						"ownerOf(uint256)": "2985",
						"removeMonsterToken(uint256)": "infinite",
						"safeTransferFrom(address,address,uint256)": "infinite",
						"supportsInterface(bytes4)": "730",
						"transferFrom(address,address,uint256)": "infinite"
					}
				},
				"methodIdentifiers": {
					"FEE()": "c57981b5",
					"addWeapon(uint256,string,uint256)": "0a0eac29",
					"approve(address,uint256)": "095ea7b3",
					"balanceOf(address)": "70a08231",
					"collectProfits()": "c958e0d6",
					"createNewToken(string)": "b90f1aaa",
					"getApproved(uint256)": "081812fc",
					"getInterfaceIds()": "2d2d1451",
					"incrementFirePower(uint256,uint8)": "d6ad8a94",
					"ownerOf(uint256)": "6352211e",
					"removeMonsterToken(uint256)": "50fac4f1",
					"safeTransferFrom(address,address,uint256)": "42842e0e",
					"supportsInterface(bytes4)": "01ffc9a7",
					"transferFrom(address,address,uint256)": "23b872dd"
				}
			},
			"storageLayout": {
				"storage": [
					{
						"astId": 225,
						"contract": "practica_3/MonsterTokens.sol:MonsterTokens",
						"label": "token_id_actual",
						"offset": 0,
						"slot": "0",
						"type": "t_uint256"
					},
					{
						"astId": 242,
						"contract": "practica_3/MonsterTokens.sol:MonsterTokens",
						"label": "registry",
						"offset": 0,
						"slot": "1",
						"type": "t_mapping(t_address,t_uint256)"
					},
					{
						"astId": 246,
						"contract": "practica_3/MonsterTokens.sol:MonsterTokens",
						"label": "owners",
						"offset": 0,
						"slot": "2",
						"type": "t_mapping(t_uint256,t_address)"
					},
					{
						"astId": 250,
						"contract": "practica_3/MonsterTokens.sol:MonsterTokens",
						"label": "approvals",
						"offset": 0,
						"slot": "3",
						"type": "t_mapping(t_uint256,t_address)"
					},
					{
						"astId": 255,
						"contract": "practica_3/MonsterTokens.sol:MonsterTokens",
						"label": "tokens",
						"offset": 0,
						"slot": "4",
						"type": "t_mapping(t_uint256,t_struct(Character)238_storage)"
					},
					{
						"astId": 258,
						"contract": "practica_3/MonsterTokens.sol:MonsterTokens",
						"label": "creados",
						"offset": 0,
						"slot": "5",
						"type": "t_uint256"
					},
					{
						"astId": 260,
						"contract": "practica_3/MonsterTokens.sol:MonsterTokens",
						"label": "contract_owner",
						"offset": 0,
						"slot": "6",
						"type": "t_address"
					}
				],
				"types": {
					"t_address": {
						"encoding": "inplace",
						"label": "address",
						"numberOfBytes": "20"
					},
					"t_array(t_string_storage)dyn_storage": {
						"base": "t_string_storage",
						"encoding": "dynamic_array",
						"label": "string[]",
						"numberOfBytes": "32"
					},
					"t_array(t_uint256)dyn_storage": {
						"base": "t_uint256",
						"encoding": "dynamic_array",
						"label": "uint256[]",
						"numberOfBytes": "32"
					},
					"t_mapping(t_address,t_uint256)": {
						"encoding": "mapping",
						"key": "t_address",
						"label": "mapping(address => uint256)",
						"numberOfBytes": "32",
						"value": "t_uint256"
					},
					"t_mapping(t_uint256,t_address)": {
						"encoding": "mapping",
						"key": "t_uint256",
						"label": "mapping(uint256 => address)",
						"numberOfBytes": "32",
						"value": "t_address"
					},
					"t_mapping(t_uint256,t_struct(Character)238_storage)": {
						"encoding": "mapping",
						"key": "t_uint256",
						"label": "mapping(uint256 => struct MonsterTokens.Character)",
						"numberOfBytes": "32",
						"value": "t_struct(Character)238_storage"
					},
					"t_string_storage": {
						"encoding": "bytes",
						"label": "string",
						"numberOfBytes": "32"
					},
					"t_struct(Character)238_storage": {
						"encoding": "inplace",
						"label": "struct MonsterTokens.Character",
						"members": [
							{
								"astId": 234,
								"contract": "practica_3/MonsterTokens.sol:MonsterTokens",
								"label": "name",
								"offset": 0,
								"slot": "0",
								"type": "t_string_storage"
							},
							{
								"astId": 237,
								"contract": "practica_3/MonsterTokens.sol:MonsterTokens",
								"label": "weapons",
								"offset": 0,
								"slot": "1",
								"type": "t_struct(Weapons)232_storage"
							}
						],
						"numberOfBytes": "96"
					},
					"t_struct(Weapons)232_storage": {
						"encoding": "inplace",
						"label": "struct MonsterTokens.Weapons",
						"members": [
							{
								"astId": 228,
								"contract": "practica_3/MonsterTokens.sol:MonsterTokens",
								"label": "names",
								"offset": 0,
								"slot": "0",
								"type": "t_array(t_string_storage)dyn_storage"
							},
							{
								"astId": 231,
								"contract": "practica_3/MonsterTokens.sol:MonsterTokens",
								"label": "firePowers",
								"offset": 0,
								"slot": "1",
								"type": "t_array(t_uint256)dyn_storage"
							}
						],
						"numberOfBytes": "64"
					},
					"t_uint256": {
						"encoding": "inplace",
						"label": "uint256",
						"numberOfBytes": "32"
					}
				}
			},
			"userdoc": {
				"kind": "user",
				"methods": {},
				"version": 1
			}
		}
	}
}