{
	"practica_3/MonsterTokens.sol": {
		"MonsterTokens": {
			"abi": [
				{
					"inputs": [],
					"name": "FEE",
					"outputs": [
						{
							"internalType": "uint256",
							"name": "",
							"type": "uint256"
						}
					],
					"stateMutability": "view",
					"type": "function"
				},
				{
					"inputs": [
						{
							"internalType": "uint256",
							"name": "token_id_p",
							"type": "uint256"
						},
						{
							"internalType": "string",
							"name": "nombre_arma",
							"type": "string"
						},
						{
							"internalType": "uint256",
							"name": "fire_power",
							"type": "uint256"
						}
					],
					"name": "addWeapon",
					"outputs": [],
					"stateMutability": "payable",
					"type": "function"
				},
				{
					"inputs": [
						{
							"internalType": "string",
							"name": "nombre",
							"type": "string"
						}
					],
					"name": "createNewToken",
					"outputs": [
						{
							"internalType": "uint256",
							"name": "",
							"type": "uint256"
						}
					],
					"stateMutability": "payable",
					"type": "function"
				},
				{
					"inputs": [
						{
							"internalType": "uint256",
							"name": "token_id_u",
							"type": "uint256"
						}
					],
					"name": "removeMonsterToken",
					"outputs": [],
					"stateMutability": "payable",
					"type": "function"
				}
			],
			"devdoc": {
				"kind": "dev",
				"methods": {},
				"version": 1
			},
			"evm": {
				"assembly": "    /* \"practica_3/MonsterTokens.sol\":83:1999  contract MonsterTokens{... */\n  mstore(0x40, 0x80)\n    /* \"practica_3/MonsterTokens.sol\":191:196  10001 */\n  0x2711\n    /* \"practica_3/MonsterTokens.sol\":167:196  uint private token_id = 10001 */\n  0x00\n  sstore\n    /* \"practica_3/MonsterTokens.sol\":506:507  0 */\n  0x00\n    /* \"practica_3/MonsterTokens.sol\":492:507  uint creados= 0 */\n  0x05\n  sstore\n    /* \"practica_3/MonsterTokens.sol\":83:1999  contract MonsterTokens{... */\n  callvalue\n  dup1\n  iszero\n  tag_1\n  jumpi\n  revert(0x00, 0x00)\ntag_1:\n  pop\n  dataSize(sub_0)\n  dup1\n  dataOffset(sub_0)\n  0x00\n  codecopy\n  0x00\n  return\nstop\n\nsub_0: assembly {\n        /* \"practica_3/MonsterTokens.sol\":83:1999  contract MonsterTokens{... */\n      mstore(0x40, 0x80)\n      jumpi(tag_1, lt(calldatasize, 0x04))\n      shr(0xe0, calldataload(0x00))\n      dup1\n      0x0a0eac29\n      eq\n      tag_2\n      jumpi\n      dup1\n      0x50fac4f1\n      eq\n      tag_3\n      jumpi\n      dup1\n      0xb90f1aaa\n      eq\n      tag_4\n      jumpi\n      dup1\n      0xc57981b5\n      eq\n      tag_5\n      jumpi\n    tag_1:\n      revert(0x00, 0x00)\n        /* \"practica_3/MonsterTokens.sol\":1483:1993  function addWeapon(uint token_id_p, string calldata nombre_arma, uint fire_power) payable external {... */\n    tag_2:\n      tag_6\n      0x04\n      dup1\n      calldatasize\n      sub\n      dup2\n      add\n      swap1\n      tag_7\n      swap2\n      swap1\n      tag_8\n      jump\t// in\n    tag_7:\n      tag_9\n      jump\t// in\n    tag_6:\n      stop\n        /* \"practica_3/MonsterTokens.sol\":1058:1479  function removeMonsterToken(uint token_id_u) external payable {... */\n    tag_3:\n      tag_10\n      0x04\n      dup1\n      calldatasize\n      sub\n      dup2\n      add\n      swap1\n      tag_11\n      swap2\n      swap1\n      tag_12\n      jump\t// in\n    tag_11:\n      tag_13\n      jump\t// in\n    tag_10:\n      stop\n        /* \"practica_3/MonsterTokens.sol\":547:1056  function createNewToken(string calldata nombre) external payable returns(uint){... */\n    tag_4:\n      tag_14\n      0x04\n      dup1\n      calldatasize\n      sub\n      dup2\n      add\n      swap1\n      tag_15\n      swap2\n      swap1\n      tag_16\n      jump\t// in\n    tag_15:\n      tag_17\n      jump\t// in\n    tag_14:\n      mload(0x40)\n      tag_18\n      swap2\n      swap1\n      tag_19\n      jump\t// in\n    tag_18:\n      mload(0x40)\n      dup1\n      swap2\n      sub\n      swap1\n      return\n        /* \"practica_3/MonsterTokens.sol\":510:544  uint256 public constant FEE = 1000 */\n    tag_5:\n      callvalue\n      dup1\n      iszero\n      tag_20\n      jumpi\n      revert(0x00, 0x00)\n    tag_20:\n      pop\n      tag_21\n      tag_22\n      jump\t// in\n    tag_21:\n      mload(0x40)\n      tag_23\n      swap2\n      swap1\n      tag_19\n      jump\t// in\n    tag_23:\n      mload(0x40)\n      dup1\n      swap2\n      sub\n      swap1\n      return\n        /* \"practica_3/MonsterTokens.sol\":1483:1993  function addWeapon(uint token_id_p, string calldata nombre_arma, uint fire_power) payable external {... */\n    tag_9:\n        /* \"practica_3/MonsterTokens.sol\":1621:1631  msg.sender */\n      caller\n        /* \"practica_3/MonsterTokens.sol\":1596:1631  approvals[token_id_p] == msg.sender */\n      0xffffffffffffffffffffffffffffffffffffffff\n      and\n        /* \"practica_3/MonsterTokens.sol\":1596:1605  approvals */\n      0x03\n        /* \"practica_3/MonsterTokens.sol\":1596:1617  approvals[token_id_p] */\n      0x00\n        /* \"practica_3/MonsterTokens.sol\":1606:1616  token_id_p */\n      dup7\n        /* \"practica_3/MonsterTokens.sol\":1596:1617  approvals[token_id_p] */\n      dup2\n      mstore\n      0x20\n      add\n      swap1\n      dup2\n      mstore\n      0x20\n      add\n      0x00\n      keccak256\n      0x00\n      swap1\n      sload\n      swap1\n      0x0100\n      exp\n      swap1\n      div\n      0xffffffffffffffffffffffffffffffffffffffff\n      and\n        /* \"practica_3/MonsterTokens.sol\":1596:1631  approvals[token_id_p] == msg.sender */\n      0xffffffffffffffffffffffffffffffffffffffff\n      and\n      eq\n        /* \"practica_3/MonsterTokens.sol\":1596:1667  approvals[token_id_p] == msg.sender || owners[token_id_p] == msg.sender */\n      dup1\n      tag_25\n      jumpi\n      pop\n        /* \"practica_3/MonsterTokens.sol\":1657:1667  msg.sender */\n      caller\n        /* \"practica_3/MonsterTokens.sol\":1635:1667  owners[token_id_p] == msg.sender */\n      0xffffffffffffffffffffffffffffffffffffffff\n      and\n        /* \"practica_3/MonsterTokens.sol\":1635:1641  owners */\n      0x02\n        /* \"practica_3/MonsterTokens.sol\":1635:1653  owners[token_id_p] */\n      0x00\n        /* \"practica_3/MonsterTokens.sol\":1642:1652  token_id_p */\n      dup7\n        /* \"practica_3/MonsterTokens.sol\":1635:1653  owners[token_id_p] */\n      dup2\n      mstore\n      0x20\n      add\n      swap1\n      dup2\n      mstore\n      0x20\n      add\n      0x00\n      keccak256\n      0x00\n      swap1\n      sload\n      swap1\n      0x0100\n      exp\n      swap1\n      div\n      0xffffffffffffffffffffffffffffffffffffffff\n      and\n        /* \"practica_3/MonsterTokens.sol\":1635:1667  owners[token_id_p] == msg.sender */\n      0xffffffffffffffffffffffffffffffffffffffff\n      and\n      eq\n        /* \"practica_3/MonsterTokens.sol\":1596:1667  approvals[token_id_p] == msg.sender || owners[token_id_p] == msg.sender */\n    tag_25:\n        /* \"practica_3/MonsterTokens.sol\":1588:1691  require(approvals[token_id_p] == msg.sender || owners[token_id_p] == msg.sender, \"Unauthorized access\") */\n      tag_26\n      jumpi\n      mload(0x40)\n      0x08c379a000000000000000000000000000000000000000000000000000000000\n      dup2\n      mstore\n      0x04\n      add\n      tag_27\n      swap1\n      tag_28\n      jump\t// in\n    tag_27:\n      mload(0x40)\n      dup1\n      swap2\n      sub\n      swap1\n      revert\n    tag_26:\n        /* \"practica_3/MonsterTokens.sol\":1746:1747  0 */\n      0x00\n        /* \"practica_3/MonsterTokens.sol\":1711:1717  tokens */\n      0x04\n        /* \"practica_3/MonsterTokens.sol\":1711:1729  tokens[token_id_p] */\n      0x00\n        /* \"practica_3/MonsterTokens.sol\":1718:1728  token_id_p */\n      dup7\n        /* \"practica_3/MonsterTokens.sol\":1711:1729  tokens[token_id_p] */\n      dup2\n      mstore\n      0x20\n      add\n      swap1\n      dup2\n      mstore\n      0x20\n      add\n      0x00\n      keccak256\n        /* \"practica_3/MonsterTokens.sol\":1711:1734  tokens[token_id_p].name */\n      0x00\n      add\n        /* \"practica_3/MonsterTokens.sol\":1705:1742  bytes(tokens[token_id_p].name).length */\n      dup1\n      sload\n      tag_29\n      swap1\n      tag_30\n      jump\t// in\n    tag_29:\n      swap1\n      pop\n        /* \"practica_3/MonsterTokens.sol\":1705:1747  bytes(tokens[token_id_p].name).length == 0 */\n      eq\n        /* \"practica_3/MonsterTokens.sol\":1697:1771  require(bytes(tokens[token_id_p].name).length == 0, \"Unauthorized access\") */\n      tag_31\n      jumpi\n      mload(0x40)\n      0x08c379a000000000000000000000000000000000000000000000000000000000\n      dup2\n      mstore\n      0x04\n      add\n      tag_32\n      swap1\n      tag_28\n      jump\t// in\n    tag_32:\n      mload(0x40)\n      dup1\n      swap2\n      sub\n      swap1\n      revert\n    tag_31:\n        /* \"practica_3/MonsterTokens.sol\":1814:1820  tokens */\n      0x04\n        /* \"practica_3/MonsterTokens.sol\":1814:1832  tokens[token_id_p] */\n      0x00\n        /* \"practica_3/MonsterTokens.sol\":1821:1831  token_id_p */\n      dup6\n        /* \"practica_3/MonsterTokens.sol\":1814:1832  tokens[token_id_p] */\n      dup2\n      mstore\n      0x20\n      add\n      swap1\n      dup2\n      mstore\n      0x20\n      add\n      0x00\n      keccak256\n        /* \"practica_3/MonsterTokens.sol\":1814:1840  tokens[token_id_p].weapons */\n      0x01\n      add\n        /* \"practica_3/MonsterTokens.sol\":1814:1846  tokens[token_id_p].weapons.names */\n      0x00\n      add\n        /* \"practica_3/MonsterTokens.sol\":1814:1853  tokens[token_id_p].weapons.names.length */\n      dup1\n      sload\n      swap1\n      pop\n        /* \"practica_3/MonsterTokens.sol\":1811:1812  2 */\n      0x02\n        /* \"practica_3/MonsterTokens.sol\":1811:1853  2**tokens[token_id_p].weapons.names.length */\n      tag_33\n      swap2\n      swap1\n      tag_34\n      jump\t// in\n    tag_33:\n        /* \"practica_3/MonsterTokens.sol\":1798:1808  fire_power */\n      dup2\n        /* \"practica_3/MonsterTokens.sol\":1798:1853  fire_power * 2**tokens[token_id_p].weapons.names.length */\n      tag_35\n      swap2\n      swap1\n      tag_36\n      jump\t// in\n    tag_35:\n        /* \"practica_3/MonsterTokens.sol\":1785:1794  msg.value */\n      callvalue\n        /* \"practica_3/MonsterTokens.sol\":1785:1853  msg.value >= fire_power * 2**tokens[token_id_p].weapons.names.length */\n      lt\n      iszero\n        /* \"practica_3/MonsterTokens.sol\":1777:1873  require(msg.value >= fire_power * 2**tokens[token_id_p].weapons.names.length,\"Not enough money\") */\n      tag_37\n      jumpi\n      mload(0x40)\n      0x08c379a000000000000000000000000000000000000000000000000000000000\n      dup2\n      mstore\n      0x04\n      add\n      tag_38\n      swap1\n      tag_39\n      jump\t// in\n    tag_38:\n      mload(0x40)\n      dup1\n      swap2\n      sub\n      swap1\n      revert\n    tag_37:\n        /* \"practica_3/MonsterTokens.sol\":1879:1885  tokens */\n      0x04\n        /* \"practica_3/MonsterTokens.sol\":1879:1897  tokens[token_id_p] */\n      0x00\n        /* \"practica_3/MonsterTokens.sol\":1886:1896  token_id_p */\n      dup6\n        /* \"practica_3/MonsterTokens.sol\":1879:1897  tokens[token_id_p] */\n      dup2\n      mstore\n      0x20\n      add\n      swap1\n      dup2\n      mstore\n      0x20\n      add\n      0x00\n      keccak256\n        /* \"practica_3/MonsterTokens.sol\":1879:1905  tokens[token_id_p].weapons */\n      0x01\n      add\n        /* \"practica_3/MonsterTokens.sol\":1879:1911  tokens[token_id_p].weapons.names */\n      0x00\n      add\n        /* \"practica_3/MonsterTokens.sol\":1917:1928  nombre_arma */\n      dup4\n      dup4\n        /* \"practica_3/MonsterTokens.sol\":1879:1929  tokens[token_id_p].weapons.names.push(nombre_arma) */\n      swap1\n      swap2\n      dup1\n      0x01\n      dup2\n      sload\n      add\n      dup1\n      dup3\n      sstore\n      dup1\n      swap2\n      pop\n      pop\n      0x01\n      swap1\n      sub\n      swap1\n      0x00\n      mstore\n      keccak256(0x00, 0x20)\n      add\n      0x00\n      swap1\n      swap2\n      swap3\n      swap1\n      swap2\n      swap3\n      swap1\n      swap2\n      swap3\n      swap1\n      swap2\n      swap3\n      pop\n      swap2\n      dup3\n      tag_41\n      swap3\n      swap2\n      swap1\n      tag_42\n      jump\t// in\n    tag_41:\n      pop\n        /* \"practica_3/MonsterTokens.sol\":1935:1941  tokens */\n      0x04\n        /* \"practica_3/MonsterTokens.sol\":1935:1953  tokens[token_id_p] */\n      0x00\n        /* \"practica_3/MonsterTokens.sol\":1942:1952  token_id_p */\n      dup6\n        /* \"practica_3/MonsterTokens.sol\":1935:1953  tokens[token_id_p] */\n      dup2\n      mstore\n      0x20\n      add\n      swap1\n      dup2\n      mstore\n      0x20\n      add\n      0x00\n      keccak256\n        /* \"practica_3/MonsterTokens.sol\":1935:1961  tokens[token_id_p].weapons */\n      0x01\n      add\n        /* \"practica_3/MonsterTokens.sol\":1935:1972  tokens[token_id_p].weapons.firePowers */\n      0x01\n      add\n        /* \"practica_3/MonsterTokens.sol\":1978:1988  fire_power */\n      dup2\n        /* \"practica_3/MonsterTokens.sol\":1935:1989  tokens[token_id_p].weapons.firePowers.push(fire_power) */\n      swap1\n      dup1\n      0x01\n      dup2\n      sload\n      add\n      dup1\n      dup3\n      sstore\n      dup1\n      swap2\n      pop\n      pop\n      0x01\n      swap1\n      sub\n      swap1\n      0x00\n      mstore\n      keccak256(0x00, 0x20)\n      add\n      0x00\n      swap1\n      swap2\n      swap1\n      swap2\n      swap1\n      swap2\n      pop\n      sstore\n        /* \"practica_3/MonsterTokens.sol\":1483:1993  function addWeapon(uint token_id_p, string calldata nombre_arma, uint fire_power) payable external {... */\n      pop\n      pop\n      pop\n      pop\n      jump\t// out\n        /* \"practica_3/MonsterTokens.sol\":1058:1479  function removeMonsterToken(uint token_id_u) external payable {... */\n    tag_13:\n        /* \"practica_3/MonsterTokens.sol\":1164:1165  0 */\n      0x00\n        /* \"practica_3/MonsterTokens.sol\":1134:1166  owners[token_id_u] != address(0) */\n      0xffffffffffffffffffffffffffffffffffffffff\n      and\n        /* \"practica_3/MonsterTokens.sol\":1134:1140  owners */\n      0x02\n        /* \"practica_3/MonsterTokens.sol\":1134:1152  owners[token_id_u] */\n      0x00\n        /* \"practica_3/MonsterTokens.sol\":1141:1151  token_id_u */\n      dup4\n        /* \"practica_3/MonsterTokens.sol\":1134:1152  owners[token_id_u] */\n      dup2\n      mstore\n      0x20\n      add\n      swap1\n      dup2\n      mstore\n      0x20\n      add\n      0x00\n      keccak256\n      0x00\n      swap1\n      sload\n      swap1\n      0x0100\n      exp\n      swap1\n      div\n      0xffffffffffffffffffffffffffffffffffffffff\n      and\n        /* \"practica_3/MonsterTokens.sol\":1134:1166  owners[token_id_u] != address(0) */\n      0xffffffffffffffffffffffffffffffffffffffff\n      and\n      eq\n      iszero\n        /* \"practica_3/MonsterTokens.sol\":1134:1202  owners[token_id_u] != address(0) && owners[token_id_u] == msg.sender */\n      dup1\n      iszero\n      tag_45\n      jumpi\n      pop\n        /* \"practica_3/MonsterTokens.sol\":1192:1202  msg.sender */\n      caller\n        /* \"practica_3/MonsterTokens.sol\":1170:1202  owners[token_id_u] == msg.sender */\n      0xffffffffffffffffffffffffffffffffffffffff\n      and\n        /* \"practica_3/MonsterTokens.sol\":1170:1176  owners */\n      0x02\n        /* \"practica_3/MonsterTokens.sol\":1170:1188  owners[token_id_u] */\n      0x00\n        /* \"practica_3/MonsterTokens.sol\":1177:1187  token_id_u */\n      dup4\n        /* \"practica_3/MonsterTokens.sol\":1170:1188  owners[token_id_u] */\n      dup2\n      mstore\n      0x20\n      add\n      swap1\n      dup2\n      mstore\n      0x20\n      add\n      0x00\n      keccak256\n      0x00\n      swap1\n      sload\n      swap1\n      0x0100\n      exp\n      swap1\n      div\n      0xffffffffffffffffffffffffffffffffffffffff\n      and\n        /* \"practica_3/MonsterTokens.sol\":1170:1202  owners[token_id_u] == msg.sender */\n      0xffffffffffffffffffffffffffffffffffffffff\n      and\n      eq\n        /* \"practica_3/MonsterTokens.sol\":1134:1202  owners[token_id_u] != address(0) && owners[token_id_u] == msg.sender */\n    tag_45:\n        /* \"practica_3/MonsterTokens.sol\":1126:1227  require(owners[token_id_u] != address(0) && owners[token_id_u] == msg.sender , \"unauthorized access\") */\n      tag_46\n      jumpi\n      mload(0x40)\n      0x08c379a000000000000000000000000000000000000000000000000000000000\n      dup2\n      mstore\n      0x04\n      add\n      tag_47\n      swap1\n      tag_48\n      jump\t// in\n    tag_47:\n      mload(0x40)\n      dup1\n      swap2\n      sub\n      swap1\n      revert\n    tag_46:\n        /* \"practica_3/MonsterTokens.sol\":1234:1244  bool exito */\n      0x00\n        /* \"practica_3/MonsterTokens.sol\":1258:1268  msg.sender */\n      caller\n        /* \"practica_3/MonsterTokens.sol\":1250:1274  payable(msg.sender).call */\n      0xffffffffffffffffffffffffffffffffffffffff\n      and\n        /* \"practica_3/MonsterTokens.sol\":1281:1285  1000 */\n      0x03e8\n        /* \"practica_3/MonsterTokens.sol\":1250:1290  payable(msg.sender).call{value:1000}(\"\") */\n      mload(0x40)\n      tag_49\n      swap1\n      tag_50\n      jump\t// in\n    tag_49:\n      0x00\n      mload(0x40)\n      dup1\n      dup4\n      sub\n      dup2\n      dup6\n      dup8\n      gas\n      call\n      swap3\n      pop\n      pop\n      pop\n      returndatasize\n      dup1\n      0x00\n      dup2\n      eq\n      tag_53\n      jumpi\n      mload(0x40)\n      swap2\n      pop\n      and(add(returndatasize, 0x3f), not(0x1f))\n      dup3\n      add\n      0x40\n      mstore\n      returndatasize\n      dup3\n      mstore\n      returndatasize\n      0x00\n      0x20\n      dup5\n      add\n      returndatacopy\n      jump(tag_52)\n    tag_53:\n      0x60\n      swap2\n      pop\n    tag_52:\n      pop\n        /* \"practica_3/MonsterTokens.sol\":1233:1290  (bool exito, ) = payable(msg.sender).call{value:1000}(\"\") */\n      pop\n      swap1\n      pop\n        /* \"practica_3/MonsterTokens.sol\":1304:1309  exito */\n      dup1\n        /* \"practica_3/MonsterTokens.sol\":1296:1330  require(exito, \"fallo en el pago\") */\n      tag_54\n      jumpi\n      mload(0x40)\n      0x08c379a000000000000000000000000000000000000000000000000000000000\n      dup2\n      mstore\n      0x04\n      add\n      tag_55\n      swap1\n      tag_56\n      jump\t// in\n    tag_55:\n      mload(0x40)\n      dup1\n      swap2\n      sub\n      swap1\n      revert\n    tag_54:\n        /* \"practica_3/MonsterTokens.sol\":1347:1348  1 */\n      0x01\n        /* \"practica_3/MonsterTokens.sol\":1336:1343  creados */\n      0x05\n      0x00\n        /* \"practica_3/MonsterTokens.sol\":1336:1348  creados -= 1 */\n      dup3\n      dup3\n      sload\n      tag_57\n      swap2\n      swap1\n      tag_58\n      jump\t// in\n    tag_57:\n      swap3\n      pop\n      pop\n      dup2\n      swap1\n      sstore\n      pop\n        /* \"practica_3/MonsterTokens.sol\":1378:1379  1 */\n      0x01\n        /* \"practica_3/MonsterTokens.sol\":1354:1362  registry */\n      dup1\n        /* \"practica_3/MonsterTokens.sol\":1354:1374  registry[msg.sender] */\n      0x00\n        /* \"practica_3/MonsterTokens.sol\":1363:1373  msg.sender */\n      caller\n        /* \"practica_3/MonsterTokens.sol\":1354:1374  registry[msg.sender] */\n      0xffffffffffffffffffffffffffffffffffffffff\n      and\n      0xffffffffffffffffffffffffffffffffffffffff\n      and\n      dup2\n      mstore\n      0x20\n      add\n      swap1\n      dup2\n      mstore\n      0x20\n      add\n      0x00\n      keccak256\n      0x00\n        /* \"practica_3/MonsterTokens.sol\":1354:1379  registry[msg.sender] -= 1 */\n      dup3\n      dup3\n      sload\n      tag_59\n      swap2\n      swap1\n      tag_58\n      jump\t// in\n    tag_59:\n      swap3\n      pop\n      pop\n      dup2\n      swap1\n      sstore\n      pop\n        /* \"practica_3/MonsterTokens.sol\":1392:1398  owners */\n      0x02\n        /* \"practica_3/MonsterTokens.sol\":1392:1410  owners[token_id_u] */\n      0x00\n        /* \"practica_3/MonsterTokens.sol\":1399:1409  token_id_u */\n      dup4\n        /* \"practica_3/MonsterTokens.sol\":1392:1410  owners[token_id_u] */\n      dup2\n      mstore\n      0x20\n      add\n      swap1\n      dup2\n      mstore\n      0x20\n      add\n      0x00\n      keccak256\n      0x00\n        /* \"practica_3/MonsterTokens.sol\":1385:1410  delete owners[token_id_u] */\n      0x0100\n      exp\n      dup2\n      sload\n      swap1\n      0xffffffffffffffffffffffffffffffffffffffff\n      mul\n      not\n      and\n      swap1\n      sstore\n        /* \"practica_3/MonsterTokens.sol\":1423:1432  approvals */\n      0x03\n        /* \"practica_3/MonsterTokens.sol\":1423:1444  approvals[token_id_u] */\n      0x00\n        /* \"practica_3/MonsterTokens.sol\":1433:1443  token_id_u */\n      dup4\n        /* \"practica_3/MonsterTokens.sol\":1423:1444  approvals[token_id_u] */\n      dup2\n      mstore\n      0x20\n      add\n      swap1\n      dup2\n      mstore\n      0x20\n      add\n      0x00\n      keccak256\n      0x00\n        /* \"practica_3/MonsterTokens.sol\":1416:1444  delete approvals[token_id_u] */\n      0x0100\n      exp\n      dup2\n      sload\n      swap1\n      0xffffffffffffffffffffffffffffffffffffffff\n      mul\n      not\n      and\n      swap1\n      sstore\n        /* \"practica_3/MonsterTokens.sol\":1457:1463  tokens */\n      0x04\n        /* \"practica_3/MonsterTokens.sol\":1457:1475  tokens[token_id_u] */\n      0x00\n        /* \"practica_3/MonsterTokens.sol\":1464:1474  token_id_u */\n      dup4\n        /* \"practica_3/MonsterTokens.sol\":1457:1475  tokens[token_id_u] */\n      dup2\n      mstore\n      0x20\n      add\n      swap1\n      dup2\n      mstore\n      0x20\n      add\n      0x00\n      keccak256\n      0x00\n        /* \"practica_3/MonsterTokens.sol\":1450:1475  delete tokens[token_id_u] */\n      0x00\n      dup3\n      add\n      0x00\n      tag_60\n      swap2\n      swap1\n      tag_61\n      jump\t// in\n    tag_60:\n      0x01\n      dup3\n      add\n      0x00\n      0x00\n      dup3\n      add\n      0x00\n      tag_62\n      swap2\n      swap1\n      tag_63\n      jump\t// in\n    tag_62:\n      0x01\n      dup3\n      add\n      0x00\n      tag_64\n      swap2\n      swap1\n      tag_65\n      jump\t// in\n    tag_64:\n      pop\n      pop\n      pop\n      pop\n        /* \"practica_3/MonsterTokens.sol\":1120:1479  {... */\n      pop\n        /* \"practica_3/MonsterTokens.sol\":1058:1479  function removeMonsterToken(uint token_id_u) external payable {... */\n      pop\n      jump\t// out\n        /* \"practica_3/MonsterTokens.sol\":547:1056  function createNewToken(string calldata nombre) external payable returns(uint){... */\n    tag_17:\n        /* \"practica_3/MonsterTokens.sol\":620:624  uint */\n      0x00\n        /* \"practica_3/MonsterTokens.sol\":540:544  1000 */\n      0x03e8\n        /* \"practica_3/MonsterTokens.sol\":639:648  msg.value */\n      callvalue\n        /* \"practica_3/MonsterTokens.sol\":639:655  msg.value >= FEE */\n      lt\n      iszero\n        /* \"practica_3/MonsterTokens.sol\":631:677  require(msg.value >= FEE, \"Insuffcient funds\") */\n      tag_67\n      jumpi\n      mload(0x40)\n      0x08c379a000000000000000000000000000000000000000000000000000000000\n      dup2\n      mstore\n      0x04\n      add\n      tag_68\n      swap1\n      tag_69\n      jump\t// in\n    tag_68:\n      mload(0x40)\n      dup1\n      swap2\n      sub\n      swap1\n      revert\n    tag_67:\n        /* \"practica_3/MonsterTokens.sol\":707:708  1 */\n      0x01\n        /* \"practica_3/MonsterTokens.sol\":684:692  registry */\n      dup1\n        /* \"practica_3/MonsterTokens.sol\":684:704  registry[msg.sender] */\n      0x00\n        /* \"practica_3/MonsterTokens.sol\":693:703  msg.sender */\n      caller\n        /* \"practica_3/MonsterTokens.sol\":684:704  registry[msg.sender] */\n      0xffffffffffffffffffffffffffffffffffffffff\n      and\n      0xffffffffffffffffffffffffffffffffffffffff\n      and\n      dup2\n      mstore\n      0x20\n      add\n      swap1\n      dup2\n      mstore\n      0x20\n      add\n      0x00\n      keccak256\n      0x00\n        /* \"practica_3/MonsterTokens.sol\":684:708  registry[msg.sender] +=1 */\n      dup3\n      dup3\n      sload\n      tag_70\n      swap2\n      swap1\n      tag_71\n      jump\t// in\n    tag_70:\n      swap3\n      pop\n      pop\n      dup2\n      swap1\n      sstore\n      pop\n        /* \"practica_3/MonsterTokens.sol\":733:743  msg.sender */\n      caller\n        /* \"practica_3/MonsterTokens.sol\":714:720  owners */\n      0x02\n        /* \"practica_3/MonsterTokens.sol\":714:730  owners[token_id] */\n      0x00\n        /* \"practica_3/MonsterTokens.sol\":721:729  token_id */\n      sload(0x00)\n        /* \"practica_3/MonsterTokens.sol\":714:730  owners[token_id] */\n      dup2\n      mstore\n      0x20\n      add\n      swap1\n      dup2\n      mstore\n      0x20\n      add\n      0x00\n      keccak256\n      0x00\n        /* \"practica_3/MonsterTokens.sol\":714:743  owners[token_id] = msg.sender */\n      0x0100\n      exp\n      dup2\n      sload\n      dup2\n      0xffffffffffffffffffffffffffffffffffffffff\n      mul\n      not\n      and\n      swap1\n      dup4\n      0xffffffffffffffffffffffffffffffffffffffff\n      and\n      mul\n      or\n      swap1\n      sstore\n      pop\n        /* \"practica_3/MonsterTokens.sol\":749:767  Character memory c */\n      0x00\n        /* \"practica_3/MonsterTokens.sol\":770:967  Character({... */\n      mload(0x40)\n      dup1\n      0x40\n      add\n      0x40\n      mstore\n      dup1\n        /* \"practica_3/MonsterTokens.sol\":795:801  nombre */\n      dup6\n      dup6\n        /* \"practica_3/MonsterTokens.sol\":770:967  Character({... */\n      dup1\n      dup1\n      0x1f\n      add\n      0x20\n      dup1\n      swap2\n      div\n      mul\n      0x20\n      add\n      mload(0x40)\n      swap1\n      dup2\n      add\n      0x40\n      mstore\n      dup1\n      swap4\n      swap3\n      swap2\n      swap1\n      dup2\n      dup2\n      mstore\n      0x20\n      add\n      dup4\n      dup4\n      dup1\n      dup3\n      dup5\n      calldatacopy\n      0x00\n      dup2\n      dup5\n      add\n      mstore\n      not(0x1f)\n      0x1f\n      dup3\n      add\n      and\n      swap1\n      pop\n      dup1\n      dup4\n      add\n      swap3\n      pop\n      pop\n      pop\n      pop\n      pop\n      pop\n      pop\n      dup2\n      mstore\n      0x20\n      add\n        /* \"practica_3/MonsterTokens.sol\":821:955  Weapons({... */\n      mload(0x40)\n      dup1\n      0x40\n      add\n      0x40\n      mstore\n      dup1\n        /* \"practica_3/MonsterTokens.sol\":875:876  0 */\n      0x00\n        /* \"practica_3/MonsterTokens.sol\":862:877  new string[](0) */\n      0xffffffffffffffff\n      dup2\n      gt\n      iszero\n      tag_72\n      jumpi\n      tag_73\n      tag_74\n      jump\t// in\n    tag_73:\n    tag_72:\n      mload(0x40)\n      swap1\n      dup1\n      dup3\n      mstore\n      dup1\n      0x20\n      mul\n      0x20\n      add\n      dup3\n      add\n      0x40\n      mstore\n      dup1\n      iszero\n      tag_75\n      jumpi\n      dup2\n      0x20\n      add\n    tag_76:\n      0x60\n      dup2\n      mstore\n      0x20\n      add\n      swap1\n      0x01\n      swap1\n      sub\n      swap1\n      dup2\n      tag_76\n      jumpi\n      swap1\n      pop\n    tag_75:\n      pop\n        /* \"practica_3/MonsterTokens.sol\":821:955  Weapons({... */\n      dup2\n      mstore\n      0x20\n      add\n        /* \"practica_3/MonsterTokens.sol\":926:927  0 */\n      0x00\n        /* \"practica_3/MonsterTokens.sol\":915:928  new uint[](0) */\n      0xffffffffffffffff\n      dup2\n      gt\n      iszero\n      tag_77\n      jumpi\n      tag_78\n      tag_74\n      jump\t// in\n    tag_78:\n    tag_77:\n      mload(0x40)\n      swap1\n      dup1\n      dup3\n      mstore\n      dup1\n      0x20\n      mul\n      0x20\n      add\n      dup3\n      add\n      0x40\n      mstore\n      dup1\n      iszero\n      tag_79\n      jumpi\n      dup2\n      0x20\n      add\n      0x20\n      dup3\n      mul\n      dup1\n      calldatasize\n      dup4\n      calldatacopy\n      dup1\n      dup3\n      add\n      swap2\n      pop\n      pop\n      swap1\n      pop\n    tag_79:\n      pop\n        /* \"practica_3/MonsterTokens.sol\":821:955  Weapons({... */\n      dup2\n      mstore\n      pop\n        /* \"practica_3/MonsterTokens.sol\":770:967  Character({... */\n      dup2\n      mstore\n      pop\n        /* \"practica_3/MonsterTokens.sol\":749:967  Character memory c = Character({... */\n      swap1\n      pop\n        /* \"practica_3/MonsterTokens.sol\":984:985  1 */\n      0x01\n        /* \"practica_3/MonsterTokens.sol\":973:980  creados */\n      0x05\n      0x00\n        /* \"practica_3/MonsterTokens.sol\":973:985  creados += 1 */\n      dup3\n      dup3\n      sload\n      tag_80\n      swap2\n      swap1\n      tag_71\n      jump\t// in\n    tag_80:\n      swap3\n      pop\n      pop\n      dup2\n      swap1\n      sstore\n      pop\n        /* \"practica_3/MonsterTokens.sol\":1010:1011  c */\n      dup1\n        /* \"practica_3/MonsterTokens.sol\":991:997  tokens */\n      0x04\n        /* \"practica_3/MonsterTokens.sol\":991:1007  tokens[token_id] */\n      0x00\n        /* \"practica_3/MonsterTokens.sol\":998:1006  token_id */\n      sload(0x00)\n        /* \"practica_3/MonsterTokens.sol\":991:1007  tokens[token_id] */\n      dup2\n      mstore\n      0x20\n      add\n      swap1\n      dup2\n      mstore\n      0x20\n      add\n      0x00\n      keccak256\n        /* \"practica_3/MonsterTokens.sol\":991:1011  tokens[token_id] = c */\n      0x00\n      dup3\n      add\n      mload\n      dup2\n      0x00\n      add\n      swap1\n      dup2\n      tag_81\n      swap2\n      swap1\n      tag_82\n      jump\t// in\n    tag_81:\n      pop\n      0x20\n      dup3\n      add\n      mload\n      dup2\n      0x01\n      add\n      0x00\n      dup3\n      add\n      mload\n      dup2\n      0x00\n      add\n      swap1\n      dup1\n      mload\n      swap1\n      0x20\n      add\n      swap1\n      tag_83\n      swap3\n      swap2\n      swap1\n      tag_84\n      jump\t// in\n    tag_83:\n      pop\n      0x20\n      dup3\n      add\n      mload\n      dup2\n      0x01\n      add\n      swap1\n      dup1\n      mload\n      swap1\n      0x20\n      add\n      swap1\n      tag_85\n      swap3\n      swap2\n      swap1\n      tag_86\n      jump\t// in\n    tag_85:\n      pop\n      pop\n      pop\n      swap1\n      pop\n      pop\n        /* \"practica_3/MonsterTokens.sol\":1028:1029  1 */\n      0x01\n        /* \"practica_3/MonsterTokens.sol\":1017:1025  token_id */\n      0x00\n      0x00\n        /* \"practica_3/MonsterTokens.sol\":1017:1029  token_id +=1 */\n      dup3\n      dup3\n      sload\n      tag_87\n      swap2\n      swap1\n      tag_71\n      jump\t// in\n    tag_87:\n      swap3\n      pop\n      pop\n      dup2\n      swap1\n      sstore\n      pop\n        /* \"practica_3/MonsterTokens.sol\":1052:1053  1 */\n      0x01\n        /* \"practica_3/MonsterTokens.sol\":1042:1050  token_id */\n      sload(0x00)\n        /* \"practica_3/MonsterTokens.sol\":1042:1053  token_id -1 */\n      tag_88\n      swap2\n      swap1\n      tag_58\n      jump\t// in\n    tag_88:\n        /* \"practica_3/MonsterTokens.sol\":1035:1053  return token_id -1 */\n      swap2\n      pop\n      pop\n        /* \"practica_3/MonsterTokens.sol\":547:1056  function createNewToken(string calldata nombre) external payable returns(uint){... */\n      swap3\n      swap2\n      pop\n      pop\n      jump\t// out\n        /* \"practica_3/MonsterTokens.sol\":510:544  uint256 public constant FEE = 1000 */\n    tag_22:\n        /* \"practica_3/MonsterTokens.sol\":540:544  1000 */\n      0x03e8\n        /* \"practica_3/MonsterTokens.sol\":510:544  uint256 public constant FEE = 1000 */\n      dup2\n      jump\t// out\n    tag_61:\n      pop\n      dup1\n      sload\n      tag_89\n      swap1\n      tag_30\n      jump\t// in\n    tag_89:\n      0x00\n      dup3\n      sstore\n      dup1\n      0x1f\n      lt\n      tag_91\n      jumpi\n      pop\n      jump(tag_90)\n    tag_91:\n      0x1f\n      add\n      0x20\n      swap1\n      div\n      swap1\n      0x00\n      mstore\n      keccak256(0x00, 0x20)\n      swap1\n      dup2\n      add\n      swap1\n      tag_92\n      swap2\n      swap1\n      tag_93\n      jump\t// in\n    tag_92:\n    tag_90:\n      pop\n      jump\t// out\n    tag_63:\n      pop\n      dup1\n      sload\n      0x00\n      dup3\n      sstore\n      swap1\n      0x00\n      mstore\n      keccak256(0x00, 0x20)\n      swap1\n      dup2\n      add\n      swap1\n      tag_95\n      swap2\n      swap1\n      tag_96\n      jump\t// in\n    tag_95:\n      pop\n      jump\t// out\n    tag_65:\n      pop\n      dup1\n      sload\n      0x00\n      dup3\n      sstore\n      swap1\n      0x00\n      mstore\n      keccak256(0x00, 0x20)\n      swap1\n      dup2\n      add\n      swap1\n      tag_98\n      swap2\n      swap1\n      tag_93\n      jump\t// in\n    tag_98:\n      pop\n      jump\t// out\n    tag_84:\n      dup3\n      dup1\n      sload\n      dup3\n      dup3\n      sstore\n      swap1\n      0x00\n      mstore\n      keccak256(0x00, 0x20)\n      swap1\n      dup2\n      add\n      swap3\n      dup3\n      iszero\n      tag_99\n      jumpi\n      swap2\n      0x20\n      mul\n      dup3\n      add\n    tag_100:\n      dup3\n      dup2\n      gt\n      iszero\n      tag_101\n      jumpi\n      dup3\n      mload\n      dup3\n      swap1\n      dup2\n      tag_102\n      swap2\n      swap1\n      tag_82\n      jump\t// in\n    tag_102:\n      pop\n      swap2\n      0x20\n      add\n      swap2\n      swap1\n      0x01\n      add\n      swap1\n      jump(tag_100)\n    tag_101:\n    tag_99:\n      pop\n      swap1\n      pop\n      tag_103\n      swap2\n      swap1\n      tag_96\n      jump\t// in\n    tag_103:\n      pop\n      swap1\n      jump\t// out\n    tag_86:\n      dup3\n      dup1\n      sload\n      dup3\n      dup3\n      sstore\n      swap1\n      0x00\n      mstore\n      keccak256(0x00, 0x20)\n      swap1\n      dup2\n      add\n      swap3\n      dup3\n      iszero\n      tag_104\n      jumpi\n      swap2\n      0x20\n      mul\n      dup3\n      add\n    tag_105:\n      dup3\n      dup2\n      gt\n      iszero\n      tag_106\n      jumpi\n      dup3\n      mload\n      dup3\n      sstore\n      swap2\n      0x20\n      add\n      swap2\n      swap1\n      0x01\n      add\n      swap1\n      jump(tag_105)\n    tag_106:\n    tag_104:\n      pop\n      swap1\n      pop\n      tag_107\n      swap2\n      swap1\n      tag_93\n      jump\t// in\n    tag_107:\n      pop\n      swap1\n      jump\t// out\n    tag_93:\n    tag_108:\n      dup1\n      dup3\n      gt\n      iszero\n      tag_109\n      jumpi\n      0x00\n      dup2\n      0x00\n      swap1\n      sstore\n      pop\n      0x01\n      add\n      jump(tag_108)\n    tag_109:\n      pop\n      swap1\n      jump\t// out\n    tag_96:\n    tag_110:\n      dup1\n      dup3\n      gt\n      iszero\n      tag_111\n      jumpi\n      0x00\n      dup2\n      dup2\n      tag_112\n      swap2\n      swap1\n      tag_61\n      jump\t// in\n    tag_112:\n      pop\n      0x01\n      add\n      jump(tag_110)\n    tag_111:\n      pop\n      swap1\n      jump\t// out\n        /* \"#utility.yul\":88:205   */\n    tag_114:\n        /* \"#utility.yul\":197:198   */\n      0x00\n        /* \"#utility.yul\":194:195   */\n      0x00\n        /* \"#utility.yul\":187:199   */\n      revert\n        /* \"#utility.yul\":211:328   */\n    tag_115:\n        /* \"#utility.yul\":320:321   */\n      0x00\n        /* \"#utility.yul\":317:318   */\n      0x00\n        /* \"#utility.yul\":310:322   */\n      revert\n        /* \"#utility.yul\":334:411   */\n    tag_116:\n        /* \"#utility.yul\":371:378   */\n      0x00\n        /* \"#utility.yul\":400:405   */\n      dup2\n        /* \"#utility.yul\":389:405   */\n      swap1\n      pop\n        /* \"#utility.yul\":334:411   */\n      swap2\n      swap1\n      pop\n      jump\t// out\n        /* \"#utility.yul\":417:539   */\n    tag_117:\n        /* \"#utility.yul\":490:514   */\n      tag_166\n        /* \"#utility.yul\":508:513   */\n      dup2\n        /* \"#utility.yul\":490:514   */\n      tag_116\n      jump\t// in\n    tag_166:\n        /* \"#utility.yul\":483:488   */\n      dup2\n        /* \"#utility.yul\":480:515   */\n      eq\n        /* \"#utility.yul\":470:533   */\n      tag_167\n      jumpi\n        /* \"#utility.yul\":529:530   */\n      0x00\n        /* \"#utility.yul\":526:527   */\n      0x00\n        /* \"#utility.yul\":519:531   */\n      revert\n        /* \"#utility.yul\":470:533   */\n    tag_167:\n        /* \"#utility.yul\":417:539   */\n      pop\n      jump\t// out\n        /* \"#utility.yul\":545:684   */\n    tag_118:\n        /* \"#utility.yul\":591:596   */\n      0x00\n        /* \"#utility.yul\":629:635   */\n      dup2\n        /* \"#utility.yul\":616:636   */\n      calldataload\n        /* \"#utility.yul\":607:636   */\n      swap1\n      pop\n        /* \"#utility.yul\":645:678   */\n      tag_169\n        /* \"#utility.yul\":672:677   */\n      dup2\n        /* \"#utility.yul\":645:678   */\n      tag_117\n      jump\t// in\n    tag_169:\n        /* \"#utility.yul\":545:684   */\n      swap3\n      swap2\n      pop\n      pop\n      jump\t// out\n        /* \"#utility.yul\":690:807   */\n    tag_119:\n        /* \"#utility.yul\":799:800   */\n      0x00\n        /* \"#utility.yul\":796:797   */\n      0x00\n        /* \"#utility.yul\":789:801   */\n      revert\n        /* \"#utility.yul\":813:930   */\n    tag_120:\n        /* \"#utility.yul\":922:923   */\n      0x00\n        /* \"#utility.yul\":919:920   */\n      0x00\n        /* \"#utility.yul\":912:924   */\n      revert\n        /* \"#utility.yul\":936:1053   */\n    tag_121:\n        /* \"#utility.yul\":1045:1046   */\n      0x00\n        /* \"#utility.yul\":1042:1043   */\n      0x00\n        /* \"#utility.yul\":1035:1047   */\n      revert\n        /* \"#utility.yul\":1073:1626   */\n    tag_122:\n        /* \"#utility.yul\":1131:1139   */\n      0x00\n        /* \"#utility.yul\":1141:1147   */\n      0x00\n        /* \"#utility.yul\":1191:1194   */\n      dup4\n        /* \"#utility.yul\":1184:1188   */\n      0x1f\n        /* \"#utility.yul\":1176:1182   */\n      dup5\n        /* \"#utility.yul\":1172:1189   */\n      add\n        /* \"#utility.yul\":1168:1195   */\n      slt\n        /* \"#utility.yul\":1158:1280   */\n      tag_174\n      jumpi\n        /* \"#utility.yul\":1199:1278   */\n      tag_175\n      tag_119\n      jump\t// in\n    tag_175:\n        /* \"#utility.yul\":1158:1280   */\n    tag_174:\n        /* \"#utility.yul\":1312:1318   */\n      dup3\n        /* \"#utility.yul\":1299:1319   */\n      calldataload\n        /* \"#utility.yul\":1289:1319   */\n      swap1\n      pop\n        /* \"#utility.yul\":1342:1360   */\n      0xffffffffffffffff\n        /* \"#utility.yul\":1334:1340   */\n      dup2\n        /* \"#utility.yul\":1331:1361   */\n      gt\n        /* \"#utility.yul\":1328:1445   */\n      iszero\n      tag_176\n      jumpi\n        /* \"#utility.yul\":1364:1443   */\n      tag_177\n      tag_120\n      jump\t// in\n    tag_177:\n        /* \"#utility.yul\":1328:1445   */\n    tag_176:\n        /* \"#utility.yul\":1478:1482   */\n      0x20\n        /* \"#utility.yul\":1470:1476   */\n      dup4\n        /* \"#utility.yul\":1466:1483   */\n      add\n        /* \"#utility.yul\":1454:1483   */\n      swap2\n      pop\n        /* \"#utility.yul\":1532:1535   */\n      dup4\n        /* \"#utility.yul\":1524:1528   */\n      0x01\n        /* \"#utility.yul\":1516:1522   */\n      dup3\n        /* \"#utility.yul\":1512:1529   */\n      mul\n        /* \"#utility.yul\":1502:1510   */\n      dup4\n        /* \"#utility.yul\":1498:1530   */\n      add\n        /* \"#utility.yul\":1495:1536   */\n      gt\n        /* \"#utility.yul\":1492:1620   */\n      iszero\n      tag_178\n      jumpi\n        /* \"#utility.yul\":1539:1618   */\n      tag_179\n      tag_121\n      jump\t// in\n    tag_179:\n        /* \"#utility.yul\":1492:1620   */\n    tag_178:\n        /* \"#utility.yul\":1073:1626   */\n      swap3\n      pop\n      swap3\n      swap1\n      pop\n      jump\t// out\n        /* \"#utility.yul\":1632:2451   */\n    tag_8:\n        /* \"#utility.yul\":1721:1727   */\n      0x00\n        /* \"#utility.yul\":1729:1735   */\n      0x00\n        /* \"#utility.yul\":1737:1743   */\n      0x00\n        /* \"#utility.yul\":1745:1751   */\n      0x00\n        /* \"#utility.yul\":1794:1796   */\n      0x60\n        /* \"#utility.yul\":1782:1791   */\n      dup6\n        /* \"#utility.yul\":1773:1780   */\n      dup8\n        /* \"#utility.yul\":1769:1792   */\n      sub\n        /* \"#utility.yul\":1765:1797   */\n      slt\n        /* \"#utility.yul\":1762:1881   */\n      iszero\n      tag_181\n      jumpi\n        /* \"#utility.yul\":1800:1879   */\n      tag_182\n      tag_114\n      jump\t// in\n    tag_182:\n        /* \"#utility.yul\":1762:1881   */\n    tag_181:\n        /* \"#utility.yul\":1920:1921   */\n      0x00\n        /* \"#utility.yul\":1945:1998   */\n      tag_183\n        /* \"#utility.yul\":1990:1997   */\n      dup8\n        /* \"#utility.yul\":1981:1987   */\n      dup3\n        /* \"#utility.yul\":1970:1979   */\n      dup9\n        /* \"#utility.yul\":1966:1988   */\n      add\n        /* \"#utility.yul\":1945:1998   */\n      tag_118\n      jump\t// in\n    tag_183:\n        /* \"#utility.yul\":1935:1998   */\n      swap5\n      pop\n        /* \"#utility.yul\":1891:2008   */\n      pop\n        /* \"#utility.yul\":2075:2077   */\n      0x20\n        /* \"#utility.yul\":2064:2073   */\n      dup6\n        /* \"#utility.yul\":2060:2078   */\n      add\n        /* \"#utility.yul\":2047:2079   */\n      calldataload\n        /* \"#utility.yul\":2106:2124   */\n      0xffffffffffffffff\n        /* \"#utility.yul\":2098:2104   */\n      dup2\n        /* \"#utility.yul\":2095:2125   */\n      gt\n        /* \"#utility.yul\":2092:2209   */\n      iszero\n      tag_184\n      jumpi\n        /* \"#utility.yul\":2128:2207   */\n      tag_185\n      tag_115\n      jump\t// in\n    tag_185:\n        /* \"#utility.yul\":2092:2209   */\n    tag_184:\n        /* \"#utility.yul\":2241:2306   */\n      tag_186\n        /* \"#utility.yul\":2298:2305   */\n      dup8\n        /* \"#utility.yul\":2289:2295   */\n      dup3\n        /* \"#utility.yul\":2278:2287   */\n      dup9\n        /* \"#utility.yul\":2274:2296   */\n      add\n        /* \"#utility.yul\":2241:2306   */\n      tag_122\n      jump\t// in\n    tag_186:\n        /* \"#utility.yul\":2223:2306   */\n      swap4\n      pop\n      swap4\n      pop\n        /* \"#utility.yul\":2018:2316   */\n      pop\n        /* \"#utility.yul\":2355:2357   */\n      0x40\n        /* \"#utility.yul\":2381:2434   */\n      tag_187\n        /* \"#utility.yul\":2426:2433   */\n      dup8\n        /* \"#utility.yul\":2417:2423   */\n      dup3\n        /* \"#utility.yul\":2406:2415   */\n      dup9\n        /* \"#utility.yul\":2402:2424   */\n      add\n        /* \"#utility.yul\":2381:2434   */\n      tag_118\n      jump\t// in\n    tag_187:\n        /* \"#utility.yul\":2371:2434   */\n      swap2\n      pop\n        /* \"#utility.yul\":2326:2444   */\n      pop\n        /* \"#utility.yul\":1632:2451   */\n      swap3\n      swap6\n      swap2\n      swap5\n      pop\n      swap3\n      pop\n      jump\t// out\n        /* \"#utility.yul\":2457:2786   */\n    tag_12:\n        /* \"#utility.yul\":2516:2522   */\n      0x00\n        /* \"#utility.yul\":2565:2567   */\n      0x20\n        /* \"#utility.yul\":2553:2562   */\n      dup3\n        /* \"#utility.yul\":2544:2551   */\n      dup5\n        /* \"#utility.yul\":2540:2563   */\n      sub\n        /* \"#utility.yul\":2536:2568   */\n      slt\n        /* \"#utility.yul\":2533:2652   */\n      iszero\n      tag_189\n      jumpi\n        /* \"#utility.yul\":2571:2650   */\n      tag_190\n      tag_114\n      jump\t// in\n    tag_190:\n        /* \"#utility.yul\":2533:2652   */\n    tag_189:\n        /* \"#utility.yul\":2691:2692   */\n      0x00\n        /* \"#utility.yul\":2716:2769   */\n      tag_191\n        /* \"#utility.yul\":2761:2768   */\n      dup5\n        /* \"#utility.yul\":2752:2758   */\n      dup3\n        /* \"#utility.yul\":2741:2750   */\n      dup6\n        /* \"#utility.yul\":2737:2759   */\n      add\n        /* \"#utility.yul\":2716:2769   */\n      tag_118\n      jump\t// in\n    tag_191:\n        /* \"#utility.yul\":2706:2769   */\n      swap2\n      pop\n        /* \"#utility.yul\":2662:2779   */\n      pop\n        /* \"#utility.yul\":2457:2786   */\n      swap3\n      swap2\n      pop\n      pop\n      jump\t// out\n        /* \"#utility.yul\":2792:3321   */\n    tag_16:\n        /* \"#utility.yul\":2863:2869   */\n      0x00\n        /* \"#utility.yul\":2871:2877   */\n      0x00\n        /* \"#utility.yul\":2920:2922   */\n      0x20\n        /* \"#utility.yul\":2908:2917   */\n      dup4\n        /* \"#utility.yul\":2899:2906   */\n      dup6\n        /* \"#utility.yul\":2895:2918   */\n      sub\n        /* \"#utility.yul\":2891:2923   */\n      slt\n        /* \"#utility.yul\":2888:3007   */\n      iszero\n      tag_193\n      jumpi\n        /* \"#utility.yul\":2926:3005   */\n      tag_194\n      tag_114\n      jump\t// in\n    tag_194:\n        /* \"#utility.yul\":2888:3007   */\n    tag_193:\n        /* \"#utility.yul\":3074:3075   */\n      0x00\n        /* \"#utility.yul\":3063:3072   */\n      dup4\n        /* \"#utility.yul\":3059:3076   */\n      add\n        /* \"#utility.yul\":3046:3077   */\n      calldataload\n        /* \"#utility.yul\":3104:3122   */\n      0xffffffffffffffff\n        /* \"#utility.yul\":3096:3102   */\n      dup2\n        /* \"#utility.yul\":3093:3123   */\n      gt\n        /* \"#utility.yul\":3090:3207   */\n      iszero\n      tag_195\n      jumpi\n        /* \"#utility.yul\":3126:3205   */\n      tag_196\n      tag_115\n      jump\t// in\n    tag_196:\n        /* \"#utility.yul\":3090:3207   */\n    tag_195:\n        /* \"#utility.yul\":3239:3304   */\n      tag_197\n        /* \"#utility.yul\":3296:3303   */\n      dup6\n        /* \"#utility.yul\":3287:3293   */\n      dup3\n        /* \"#utility.yul\":3276:3285   */\n      dup7\n        /* \"#utility.yul\":3272:3294   */\n      add\n        /* \"#utility.yul\":3239:3304   */\n      tag_122\n      jump\t// in\n    tag_197:\n        /* \"#utility.yul\":3221:3304   */\n      swap3\n      pop\n      swap3\n      pop\n        /* \"#utility.yul\":3017:3314   */\n      pop\n        /* \"#utility.yul\":2792:3321   */\n      swap3\n      pop\n      swap3\n      swap1\n      pop\n      jump\t// out\n        /* \"#utility.yul\":3327:3445   */\n    tag_123:\n        /* \"#utility.yul\":3414:3438   */\n      tag_199\n        /* \"#utility.yul\":3432:3437   */\n      dup2\n        /* \"#utility.yul\":3414:3438   */\n      tag_116\n      jump\t// in\n    tag_199:\n        /* \"#utility.yul\":3409:3412   */\n      dup3\n        /* \"#utility.yul\":3402:3439   */\n      mstore\n        /* \"#utility.yul\":3327:3445   */\n      pop\n      pop\n      jump\t// out\n        /* \"#utility.yul\":3451:3673   */\n    tag_19:\n        /* \"#utility.yul\":3544:3548   */\n      0x00\n        /* \"#utility.yul\":3582:3584   */\n      0x20\n        /* \"#utility.yul\":3571:3580   */\n      dup3\n        /* \"#utility.yul\":3567:3585   */\n      add\n        /* \"#utility.yul\":3559:3585   */\n      swap1\n      pop\n        /* \"#utility.yul\":3595:3666   */\n      tag_201\n        /* \"#utility.yul\":3663:3664   */\n      0x00\n        /* \"#utility.yul\":3652:3661   */\n      dup4\n        /* \"#utility.yul\":3648:3665   */\n      add\n        /* \"#utility.yul\":3639:3645   */\n      dup5\n        /* \"#utility.yul\":3595:3666   */\n      tag_123\n      jump\t// in\n    tag_201:\n        /* \"#utility.yul\":3451:3673   */\n      swap3\n      swap2\n      pop\n      pop\n      jump\t// out\n        /* \"#utility.yul\":3679:3848   */\n    tag_124:\n        /* \"#utility.yul\":3763:3774   */\n      0x00\n        /* \"#utility.yul\":3797:3803   */\n      dup3\n        /* \"#utility.yul\":3792:3795   */\n      dup3\n        /* \"#utility.yul\":3785:3804   */\n      mstore\n        /* \"#utility.yul\":3837:3841   */\n      0x20\n        /* \"#utility.yul\":3832:3835   */\n      dup3\n        /* \"#utility.yul\":3828:3842   */\n      add\n        /* \"#utility.yul\":3813:3842   */\n      swap1\n      pop\n        /* \"#utility.yul\":3679:3848   */\n      swap3\n      swap2\n      pop\n      pop\n      jump\t// out\n        /* \"#utility.yul\":3854:4023   */\n    tag_125:\n        /* \"#utility.yul\":3994:4015   */\n      0x556e617574686f72697a65642061636365737300000000000000000000000000\n        /* \"#utility.yul\":3990:3991   */\n      0x00\n        /* \"#utility.yul\":3982:3988   */\n      dup3\n        /* \"#utility.yul\":3978:3992   */\n      add\n        /* \"#utility.yul\":3971:4016   */\n      mstore\n        /* \"#utility.yul\":3854:4023   */\n      pop\n      jump\t// out\n        /* \"#utility.yul\":4029:4395   */\n    tag_126:\n        /* \"#utility.yul\":4171:4174   */\n      0x00\n        /* \"#utility.yul\":4192:4259   */\n      tag_205\n        /* \"#utility.yul\":4256:4258   */\n      0x13\n        /* \"#utility.yul\":4251:4254   */\n      dup4\n        /* \"#utility.yul\":4192:4259   */\n      tag_124\n      jump\t// in\n    tag_205:\n        /* \"#utility.yul\":4185:4259   */\n      swap2\n      pop\n        /* \"#utility.yul\":4268:4361   */\n      tag_206\n        /* \"#utility.yul\":4357:4360   */\n      dup3\n        /* \"#utility.yul\":4268:4361   */\n      tag_125\n      jump\t// in\n    tag_206:\n        /* \"#utility.yul\":4386:4388   */\n      0x20\n        /* \"#utility.yul\":4381:4384   */\n      dup3\n        /* \"#utility.yul\":4377:4389   */\n      add\n        /* \"#utility.yul\":4370:4389   */\n      swap1\n      pop\n        /* \"#utility.yul\":4029:4395   */\n      swap2\n      swap1\n      pop\n      jump\t// out\n        /* \"#utility.yul\":4401:4820   */\n    tag_28:\n        /* \"#utility.yul\":4567:4571   */\n      0x00\n        /* \"#utility.yul\":4605:4607   */\n      0x20\n        /* \"#utility.yul\":4594:4603   */\n      dup3\n        /* \"#utility.yul\":4590:4608   */\n      add\n        /* \"#utility.yul\":4582:4608   */\n      swap1\n      pop\n        /* \"#utility.yul\":4654:4663   */\n      dup2\n        /* \"#utility.yul\":4648:4652   */\n      dup2\n        /* \"#utility.yul\":4644:4664   */\n      sub\n        /* \"#utility.yul\":4640:4641   */\n      0x00\n        /* \"#utility.yul\":4629:4638   */\n      dup4\n        /* \"#utility.yul\":4625:4642   */\n      add\n        /* \"#utility.yul\":4618:4665   */\n      mstore\n        /* \"#utility.yul\":4682:4813   */\n      tag_208\n        /* \"#utility.yul\":4808:4812   */\n      dup2\n        /* \"#utility.yul\":4682:4813   */\n      tag_126\n      jump\t// in\n    tag_208:\n        /* \"#utility.yul\":4674:4813   */\n      swap1\n      pop\n        /* \"#utility.yul\":4401:4820   */\n      swap2\n      swap1\n      pop\n      jump\t// out\n        /* \"#utility.yul\":4826:5006   */\n    tag_127:\n        /* \"#utility.yul\":4874:4951   */\n      0x4e487b7100000000000000000000000000000000000000000000000000000000\n        /* \"#utility.yul\":4871:4872   */\n      0x00\n        /* \"#utility.yul\":4864:4952   */\n      mstore\n        /* \"#utility.yul\":4971:4975   */\n      0x22\n        /* \"#utility.yul\":4968:4969   */\n      0x04\n        /* \"#utility.yul\":4961:4976   */\n      mstore\n        /* \"#utility.yul\":4995:4999   */\n      0x24\n        /* \"#utility.yul\":4992:4993   */\n      0x00\n        /* \"#utility.yul\":4985:5000   */\n      revert\n        /* \"#utility.yul\":5012:5332   */\n    tag_30:\n        /* \"#utility.yul\":5056:5062   */\n      0x00\n        /* \"#utility.yul\":5093:5094   */\n      0x02\n        /* \"#utility.yul\":5087:5091   */\n      dup3\n        /* \"#utility.yul\":5083:5095   */\n      div\n        /* \"#utility.yul\":5073:5095   */\n      swap1\n      pop\n        /* \"#utility.yul\":5140:5141   */\n      0x01\n        /* \"#utility.yul\":5134:5138   */\n      dup3\n        /* \"#utility.yul\":5130:5142   */\n      and\n        /* \"#utility.yul\":5161:5179   */\n      dup1\n        /* \"#utility.yul\":5151:5232   */\n      tag_211\n      jumpi\n        /* \"#utility.yul\":5217:5221   */\n      0x7f\n        /* \"#utility.yul\":5209:5215   */\n      dup3\n        /* \"#utility.yul\":5205:5222   */\n      and\n        /* \"#utility.yul\":5195:5222   */\n      swap2\n      pop\n        /* \"#utility.yul\":5151:5232   */\n    tag_211:\n        /* \"#utility.yul\":5279:5281   */\n      0x20\n        /* \"#utility.yul\":5271:5277   */\n      dup3\n        /* \"#utility.yul\":5268:5282   */\n      lt\n        /* \"#utility.yul\":5248:5266   */\n      dup2\n        /* \"#utility.yul\":5245:5283   */\n      sub\n        /* \"#utility.yul\":5242:5326   */\n      tag_212\n      jumpi\n        /* \"#utility.yul\":5298:5316   */\n      tag_213\n      tag_127\n      jump\t// in\n    tag_213:\n        /* \"#utility.yul\":5242:5326   */\n    tag_212:\n        /* \"#utility.yul\":5063:5332   */\n      pop\n        /* \"#utility.yul\":5012:5332   */\n      swap2\n      swap1\n      pop\n      jump\t// out\n        /* \"#utility.yul\":5338:5518   */\n    tag_128:\n        /* \"#utility.yul\":5386:5463   */\n      0x4e487b7100000000000000000000000000000000000000000000000000000000\n        /* \"#utility.yul\":5383:5384   */\n      0x00\n        /* \"#utility.yul\":5376:5464   */\n      mstore\n        /* \"#utility.yul\":5483:5487   */\n      0x11\n        /* \"#utility.yul\":5480:5481   */\n      0x04\n        /* \"#utility.yul\":5473:5488   */\n      mstore\n        /* \"#utility.yul\":5507:5511   */\n      0x24\n        /* \"#utility.yul\":5504:5505   */\n      0x00\n        /* \"#utility.yul\":5497:5512   */\n      revert\n        /* \"#utility.yul\":5524:5626   */\n    tag_129:\n        /* \"#utility.yul\":5566:5574   */\n      0x00\n        /* \"#utility.yul\":5613:5618   */\n      dup2\n        /* \"#utility.yul\":5610:5611   */\n      0x01\n        /* \"#utility.yul\":5606:5619   */\n      shr\n        /* \"#utility.yul\":5585:5619   */\n      swap1\n      pop\n        /* \"#utility.yul\":5524:5626   */\n      swap2\n      swap1\n      pop\n      jump\t// out\n        /* \"#utility.yul\":5632:6480   */\n    tag_130:\n        /* \"#utility.yul\":5693:5698   */\n      0x00\n        /* \"#utility.yul\":5700:5704   */\n      0x00\n        /* \"#utility.yul\":5724:5730   */\n      dup3\n        /* \"#utility.yul\":5715:5730   */\n      swap2\n      pop\n        /* \"#utility.yul\":5748:5753   */\n      dup4\n        /* \"#utility.yul\":5739:5753   */\n      swap1\n      pop\n        /* \"#utility.yul\":5762:6474   */\n    tag_217:\n        /* \"#utility.yul\":5783:5784   */\n      0x01\n        /* \"#utility.yul\":5773:5781   */\n      dup6\n        /* \"#utility.yul\":5770:5785   */\n      gt\n        /* \"#utility.yul\":5762:6474   */\n      iszero\n      tag_219\n      jumpi\n        /* \"#utility.yul\":5878:5882   */\n      dup1\n        /* \"#utility.yul\":5873:5876   */\n      dup7\n        /* \"#utility.yul\":5869:5883   */\n      div\n        /* \"#utility.yul\":5863:5867   */\n      dup2\n        /* \"#utility.yul\":5860:5884   */\n      gt\n        /* \"#utility.yul\":5857:5907   */\n      iszero\n      tag_220\n      jumpi\n        /* \"#utility.yul\":5887:5905   */\n      tag_221\n      tag_128\n      jump\t// in\n    tag_221:\n        /* \"#utility.yul\":5857:5907   */\n    tag_220:\n        /* \"#utility.yul\":5937:5938   */\n      0x01\n        /* \"#utility.yul\":5927:5935   */\n      dup6\n        /* \"#utility.yul\":5923:5939   */\n      and\n        /* \"#utility.yul\":5920:6371   */\n      iszero\n      tag_222\n      jumpi\n        /* \"#utility.yul\":6352:6356   */\n      dup1\n        /* \"#utility.yul\":6345:6350   */\n      dup3\n        /* \"#utility.yul\":6341:6357   */\n      mul\n        /* \"#utility.yul\":6332:6357   */\n      swap2\n      pop\n        /* \"#utility.yul\":5920:6371   */\n    tag_222:\n        /* \"#utility.yul\":6402:6406   */\n      dup1\n        /* \"#utility.yul\":6396:6400   */\n      dup2\n        /* \"#utility.yul\":6392:6407   */\n      mul\n        /* \"#utility.yul\":6384:6407   */\n      swap1\n      pop\n        /* \"#utility.yul\":6432:6464   */\n      tag_223\n        /* \"#utility.yul\":6455:6463   */\n      dup6\n        /* \"#utility.yul\":6432:6464   */\n      tag_129\n      jump\t// in\n    tag_223:\n        /* \"#utility.yul\":6420:6464   */\n      swap5\n      pop\n        /* \"#utility.yul\":5762:6474   */\n      jump(tag_217)\n    tag_219:\n        /* \"#utility.yul\":5632:6480   */\n      swap5\n      pop\n      swap5\n      swap3\n      pop\n      pop\n      pop\n      jump\t// out\n        /* \"#utility.yul\":6486:7559   */\n    tag_131:\n        /* \"#utility.yul\":6540:6545   */\n      0x00\n        /* \"#utility.yul\":6731:6739   */\n      dup3\n        /* \"#utility.yul\":6721:6761   */\n      tag_225\n      jumpi\n        /* \"#utility.yul\":6752:6753   */\n      0x01\n        /* \"#utility.yul\":6743:6753   */\n      swap1\n      pop\n        /* \"#utility.yul\":6754:6759   */\n      jump(tag_224)\n        /* \"#utility.yul\":6721:6761   */\n    tag_225:\n        /* \"#utility.yul\":6780:6784   */\n      dup2\n        /* \"#utility.yul\":6770:6806   */\n      tag_226\n      jumpi\n        /* \"#utility.yul\":6797:6798   */\n      0x00\n        /* \"#utility.yul\":6788:6798   */\n      swap1\n      pop\n        /* \"#utility.yul\":6799:6804   */\n      jump(tag_224)\n        /* \"#utility.yul\":6770:6806   */\n    tag_226:\n        /* \"#utility.yul\":6866:6870   */\n      dup2\n        /* \"#utility.yul\":6914:6915   */\n      0x01\n        /* \"#utility.yul\":6909:6936   */\n      dup2\n      eq\n      tag_228\n      jumpi\n        /* \"#utility.yul\":6950:6951   */\n      0x02\n        /* \"#utility.yul\":6945:7136   */\n      dup2\n      eq\n      tag_229\n      jumpi\n        /* \"#utility.yul\":6859:7136   */\n      jump(tag_227)\n        /* \"#utility.yul\":6909:6936   */\n    tag_228:\n        /* \"#utility.yul\":6927:6928   */\n      0x01\n        /* \"#utility.yul\":6918:6928   */\n      swap2\n      pop\n        /* \"#utility.yul\":6929:6934   */\n      pop\n      jump(tag_224)\n        /* \"#utility.yul\":6945:7136   */\n    tag_229:\n        /* \"#utility.yul\":6990:6993   */\n      0xff\n        /* \"#utility.yul\":6980:6988   */\n      dup5\n        /* \"#utility.yul\":6977:6994   */\n      gt\n        /* \"#utility.yul\":6974:7017   */\n      iszero\n      tag_230\n      jumpi\n        /* \"#utility.yul\":6997:7015   */\n      tag_231\n      tag_128\n      jump\t// in\n    tag_231:\n        /* \"#utility.yul\":6974:7017   */\n    tag_230:\n        /* \"#utility.yul\":7046:7054   */\n      dup4\n        /* \"#utility.yul\":7043:7044   */\n      0x02\n        /* \"#utility.yul\":7039:7055   */\n      exp\n        /* \"#utility.yul\":7030:7055   */\n      swap2\n      pop\n        /* \"#utility.yul\":7081:7084   */\n      dup5\n        /* \"#utility.yul\":7074:7079   */\n      dup3\n        /* \"#utility.yul\":7071:7085   */\n      gt\n        /* \"#utility.yul\":7068:7108   */\n      iszero\n      tag_232\n      jumpi\n        /* \"#utility.yul\":7088:7106   */\n      tag_233\n      tag_128\n      jump\t// in\n    tag_233:\n        /* \"#utility.yul\":7068:7108   */\n    tag_232:\n        /* \"#utility.yul\":7121:7126   */\n      pop\n      jump(tag_224)\n        /* \"#utility.yul\":6859:7136   */\n    tag_227:\n      pop\n        /* \"#utility.yul\":7245:7247   */\n      0x20\n        /* \"#utility.yul\":7235:7243   */\n      dup4\n        /* \"#utility.yul\":7232:7248   */\n      lt\n        /* \"#utility.yul\":7226:7229   */\n      0x0133\n        /* \"#utility.yul\":7220:7224   */\n      dup4\n        /* \"#utility.yul\":7217:7230   */\n      lt\n        /* \"#utility.yul\":7213:7249   */\n      and\n        /* \"#utility.yul\":7195:7197   */\n      0x4e\n        /* \"#utility.yul\":7185:7193   */\n      dup5\n        /* \"#utility.yul\":7182:7198   */\n      lt\n        /* \"#utility.yul\":7177:7179   */\n      0x0b\n        /* \"#utility.yul\":7171:7175   */\n      dup5\n        /* \"#utility.yul\":7168:7180   */\n      lt\n        /* \"#utility.yul\":7164:7199   */\n      and\n        /* \"#utility.yul\":7148:7259   */\n      or\n        /* \"#utility.yul\":7145:7391   */\n      iszero\n      tag_234\n      jumpi\n        /* \"#utility.yul\":7301:7309   */\n      dup3\n        /* \"#utility.yul\":7295:7299   */\n      dup3\n        /* \"#utility.yul\":7291:7310   */\n      exp\n        /* \"#utility.yul\":7282:7310   */\n      swap1\n      pop\n        /* \"#utility.yul\":7336:7339   */\n      dup4\n        /* \"#utility.yul\":7329:7334   */\n      dup2\n        /* \"#utility.yul\":7326:7340   */\n      gt\n        /* \"#utility.yul\":7323:7363   */\n      iszero\n      tag_235\n      jumpi\n        /* \"#utility.yul\":7343:7361   */\n      tag_236\n      tag_128\n      jump\t// in\n    tag_236:\n        /* \"#utility.yul\":7323:7363   */\n    tag_235:\n        /* \"#utility.yul\":7376:7381   */\n      jump(tag_224)\n        /* \"#utility.yul\":7145:7391   */\n    tag_234:\n        /* \"#utility.yul\":7416:7458   */\n      tag_237\n        /* \"#utility.yul\":7454:7457   */\n      dup5\n        /* \"#utility.yul\":7444:7452   */\n      dup5\n        /* \"#utility.yul\":7438:7442   */\n      dup5\n        /* \"#utility.yul\":7435:7436   */\n      0x01\n        /* \"#utility.yul\":7416:7458   */\n      tag_130\n      jump\t// in\n    tag_237:\n        /* \"#utility.yul\":7401:7458   */\n      swap3\n      pop\n      swap1\n      pop\n        /* \"#utility.yul\":7490:7494   */\n      dup2\n        /* \"#utility.yul\":7485:7488   */\n      dup5\n        /* \"#utility.yul\":7481:7495   */\n      div\n        /* \"#utility.yul\":7474:7479   */\n      dup2\n        /* \"#utility.yul\":7471:7496   */\n      gt\n        /* \"#utility.yul\":7468:7519   */\n      iszero\n      tag_238\n      jumpi\n        /* \"#utility.yul\":7499:7517   */\n      tag_239\n      tag_128\n      jump\t// in\n    tag_239:\n        /* \"#utility.yul\":7468:7519   */\n    tag_238:\n        /* \"#utility.yul\":7548:7552   */\n      dup2\n        /* \"#utility.yul\":7541:7546   */\n      dup2\n        /* \"#utility.yul\":7537:7553   */\n      mul\n        /* \"#utility.yul\":7528:7553   */\n      swap1\n      pop\n        /* \"#utility.yul\":6486:7559   */\n    tag_224:\n      swap4\n      swap3\n      pop\n      pop\n      pop\n      jump\t// out\n        /* \"#utility.yul\":7565:7850   */\n    tag_34:\n        /* \"#utility.yul\":7625:7630   */\n      0x00\n        /* \"#utility.yul\":7649:7672   */\n      tag_241\n        /* \"#utility.yul\":7667:7671   */\n      dup3\n        /* \"#utility.yul\":7649:7672   */\n      tag_116\n      jump\t// in\n    tag_241:\n        /* \"#utility.yul\":7641:7672   */\n      swap2\n      pop\n        /* \"#utility.yul\":7693:7720   */\n      tag_242\n        /* \"#utility.yul\":7711:7719   */\n      dup4\n        /* \"#utility.yul\":7693:7720   */\n      tag_116\n      jump\t// in\n    tag_242:\n        /* \"#utility.yul\":7681:7720   */\n      swap3\n      pop\n        /* \"#utility.yul\":7739:7843   */\n      tag_243\n        /* \"#utility.yul\":7776:7842   */\n      0xffffffffffffffffffffffffffffffffffffffffffffffffffffffffffffffff\n        /* \"#utility.yul\":7766:7774   */\n      dup5\n        /* \"#utility.yul\":7760:7764   */\n      dup5\n        /* \"#utility.yul\":7739:7843   */\n      tag_131\n      jump\t// in\n    tag_243:\n        /* \"#utility.yul\":7730:7843   */\n      swap1\n      pop\n        /* \"#utility.yul\":7565:7850   */\n      swap3\n      swap2\n      pop\n      pop\n      jump\t// out\n        /* \"#utility.yul\":7856:8266   */\n    tag_36:\n        /* \"#utility.yul\":7896:7903   */\n      0x00\n        /* \"#utility.yul\":7919:7939   */\n      tag_245\n        /* \"#utility.yul\":7937:7938   */\n      dup3\n        /* \"#utility.yul\":7919:7939   */\n      tag_116\n      jump\t// in\n    tag_245:\n        /* \"#utility.yul\":7914:7939   */\n      swap2\n      pop\n        /* \"#utility.yul\":7953:7973   */\n      tag_246\n        /* \"#utility.yul\":7971:7972   */\n      dup4\n        /* \"#utility.yul\":7953:7973   */\n      tag_116\n      jump\t// in\n    tag_246:\n        /* \"#utility.yul\":7948:7973   */\n      swap3\n      pop\n        /* \"#utility.yul\":8008:8009   */\n      dup3\n        /* \"#utility.yul\":8005:8006   */\n      dup3\n        /* \"#utility.yul\":8001:8010   */\n      mul\n        /* \"#utility.yul\":8030:8060   */\n      tag_247\n        /* \"#utility.yul\":8048:8059   */\n      dup2\n        /* \"#utility.yul\":8030:8060   */\n      tag_116\n      jump\t// in\n    tag_247:\n        /* \"#utility.yul\":8019:8060   */\n      swap2\n      pop\n        /* \"#utility.yul\":8209:8210   */\n      dup3\n        /* \"#utility.yul\":8200:8207   */\n      dup3\n        /* \"#utility.yul\":8196:8211   */\n      div\n        /* \"#utility.yul\":8193:8194   */\n      dup5\n        /* \"#utility.yul\":8190:8212   */\n      eq\n        /* \"#utility.yul\":8170:8171   */\n      dup4\n        /* \"#utility.yul\":8163:8172   */\n      iszero\n        /* \"#utility.yul\":8143:8226   */\n      or\n        /* \"#utility.yul\":8120:8259   */\n      tag_248\n      jumpi\n        /* \"#utility.yul\":8239:8257   */\n      tag_249\n      tag_128\n      jump\t// in\n    tag_249:\n        /* \"#utility.yul\":8120:8259   */\n    tag_248:\n        /* \"#utility.yul\":7904:8266   */\n      pop\n        /* \"#utility.yul\":7856:8266   */\n      swap3\n      swap2\n      pop\n      pop\n      jump\t// out\n        /* \"#utility.yul\":8272:8438   */\n    tag_132:\n        /* \"#utility.yul\":8412:8430   */\n      0x4e6f7420656e6f756768206d6f6e657900000000000000000000000000000000\n        /* \"#utility.yul\":8408:8409   */\n      0x00\n        /* \"#utility.yul\":8400:8406   */\n      dup3\n        /* \"#utility.yul\":8396:8410   */\n      add\n        /* \"#utility.yul\":8389:8431   */\n      mstore\n        /* \"#utility.yul\":8272:8438   */\n      pop\n      jump\t// out\n        /* \"#utility.yul\":8444:8810   */\n    tag_133:\n        /* \"#utility.yul\":8586:8589   */\n      0x00\n        /* \"#utility.yul\":8607:8674   */\n      tag_252\n        /* \"#utility.yul\":8671:8673   */\n      0x10\n        /* \"#utility.yul\":8666:8669   */\n      dup4\n        /* \"#utility.yul\":8607:8674   */\n      tag_124\n      jump\t// in\n    tag_252:\n        /* \"#utility.yul\":8600:8674   */\n      swap2\n      pop\n        /* \"#utility.yul\":8683:8776   */\n      tag_253\n        /* \"#utility.yul\":8772:8775   */\n      dup3\n        /* \"#utility.yul\":8683:8776   */\n      tag_132\n      jump\t// in\n    tag_253:\n        /* \"#utility.yul\":8801:8803   */\n      0x20\n        /* \"#utility.yul\":8796:8799   */\n      dup3\n        /* \"#utility.yul\":8792:8804   */\n      add\n        /* \"#utility.yul\":8785:8804   */\n      swap1\n      pop\n        /* \"#utility.yul\":8444:8810   */\n      swap2\n      swap1\n      pop\n      jump\t// out\n        /* \"#utility.yul\":8816:9235   */\n    tag_39:\n        /* \"#utility.yul\":8982:8986   */\n      0x00\n        /* \"#utility.yul\":9020:9022   */\n      0x20\n        /* \"#utility.yul\":9009:9018   */\n      dup3\n        /* \"#utility.yul\":9005:9023   */\n      add\n        /* \"#utility.yul\":8997:9023   */\n      swap1\n      pop\n        /* \"#utility.yul\":9069:9078   */\n      dup2\n        /* \"#utility.yul\":9063:9067   */\n      dup2\n        /* \"#utility.yul\":9059:9079   */\n      sub\n        /* \"#utility.yul\":9055:9056   */\n      0x00\n        /* \"#utility.yul\":9044:9053   */\n      dup4\n        /* \"#utility.yul\":9040:9057   */\n      add\n        /* \"#utility.yul\":9033:9080   */\n      mstore\n        /* \"#utility.yul\":9097:9228   */\n      tag_255\n        /* \"#utility.yul\":9223:9227   */\n      dup2\n        /* \"#utility.yul\":9097:9228   */\n      tag_133\n      jump\t// in\n    tag_255:\n        /* \"#utility.yul\":9089:9228   */\n      swap1\n      pop\n        /* \"#utility.yul\":8816:9235   */\n      swap2\n      swap1\n      pop\n      jump\t// out\n        /* \"#utility.yul\":9241:9338   */\n    tag_134:\n        /* \"#utility.yul\":9300:9306   */\n      0x00\n        /* \"#utility.yul\":9328:9331   */\n      dup3\n        /* \"#utility.yul\":9318:9331   */\n      swap1\n      pop\n        /* \"#utility.yul\":9241:9338   */\n      swap3\n      swap2\n      pop\n      pop\n      jump\t// out\n        /* \"#utility.yul\":9344:9524   */\n    tag_74:\n        /* \"#utility.yul\":9392:9469   */\n      0x4e487b7100000000000000000000000000000000000000000000000000000000\n        /* \"#utility.yul\":9389:9390   */\n      0x00\n        /* \"#utility.yul\":9382:9470   */\n      mstore\n        /* \"#utility.yul\":9489:9493   */\n      0x41\n        /* \"#utility.yul\":9486:9487   */\n      0x04\n        /* \"#utility.yul\":9479:9494   */\n      mstore\n        /* \"#utility.yul\":9513:9517   */\n      0x24\n        /* \"#utility.yul\":9510:9511   */\n      0x00\n        /* \"#utility.yul\":9503:9518   */\n      revert\n        /* \"#utility.yul\":9530:9671   */\n    tag_135:\n        /* \"#utility.yul\":9579:9583   */\n      0x00\n        /* \"#utility.yul\":9602:9605   */\n      dup2\n        /* \"#utility.yul\":9594:9605   */\n      swap1\n      pop\n        /* \"#utility.yul\":9625:9628   */\n      dup2\n        /* \"#utility.yul\":9622:9623   */\n      0x00\n        /* \"#utility.yul\":9615:9629   */\n      mstore\n        /* \"#utility.yul\":9659:9663   */\n      0x20\n        /* \"#utility.yul\":9656:9657   */\n      0x00\n        /* \"#utility.yul\":9646:9664   */\n      keccak256\n        /* \"#utility.yul\":9638:9664   */\n      swap1\n      pop\n        /* \"#utility.yul\":9530:9671   */\n      swap2\n      swap1\n      pop\n      jump\t// out\n        /* \"#utility.yul\":9677:9770   */\n    tag_136:\n        /* \"#utility.yul\":9714:9720   */\n      0x00\n        /* \"#utility.yul\":9761:9763   */\n      0x20\n        /* \"#utility.yul\":9756:9758   */\n      0x1f\n        /* \"#utility.yul\":9749:9754   */\n      dup4\n        /* \"#utility.yul\":9745:9759   */\n      add\n        /* \"#utility.yul\":9741:9764   */\n      div\n        /* \"#utility.yul\":9731:9764   */\n      swap1\n      pop\n        /* \"#utility.yul\":9677:9770   */\n      swap2\n      swap1\n      pop\n      jump\t// out\n        /* \"#utility.yul\":9776:9883   */\n    tag_137:\n        /* \"#utility.yul\":9820:9828   */\n      0x00\n        /* \"#utility.yul\":9870:9875   */\n      dup3\n        /* \"#utility.yul\":9864:9868   */\n      dup3\n        /* \"#utility.yul\":9860:9876   */\n      shl\n        /* \"#utility.yul\":9839:9876   */\n      swap1\n      pop\n        /* \"#utility.yul\":9776:9883   */\n      swap3\n      swap2\n      pop\n      pop\n      jump\t// out\n        /* \"#utility.yul\":9889:10282   */\n    tag_138:\n        /* \"#utility.yul\":9958:9964   */\n      0x00\n        /* \"#utility.yul\":10008:10009   */\n      0x08\n        /* \"#utility.yul\":9996:10006   */\n      dup4\n        /* \"#utility.yul\":9992:10010   */\n      mul\n        /* \"#utility.yul\":10031:10128   */\n      tag_262\n        /* \"#utility.yul\":10061:10127   */\n      0xffffffffffffffffffffffffffffffffffffffffffffffffffffffffffffffff\n        /* \"#utility.yul\":10050:10059   */\n      dup3\n        /* \"#utility.yul\":10031:10128   */\n      tag_137\n      jump\t// in\n    tag_262:\n        /* \"#utility.yul\":10149:10188   */\n      tag_263\n        /* \"#utility.yul\":10179:10187   */\n      dup7\n        /* \"#utility.yul\":10168:10177   */\n      dup4\n        /* \"#utility.yul\":10149:10188   */\n      tag_137\n      jump\t// in\n    tag_263:\n        /* \"#utility.yul\":10137:10188   */\n      swap6\n      pop\n        /* \"#utility.yul\":10221:10225   */\n      dup1\n        /* \"#utility.yul\":10217:10226   */\n      not\n        /* \"#utility.yul\":10210:10215   */\n      dup5\n        /* \"#utility.yul\":10206:10227   */\n      and\n        /* \"#utility.yul\":10197:10227   */\n      swap4\n      pop\n        /* \"#utility.yul\":10270:10274   */\n      dup1\n        /* \"#utility.yul\":10260:10268   */\n      dup7\n        /* \"#utility.yul\":10256:10275   */\n      and\n        /* \"#utility.yul\":10249:10254   */\n      dup5\n        /* \"#utility.yul\":10246:10276   */\n      or\n        /* \"#utility.yul\":10236:10276   */\n      swap3\n      pop\n        /* \"#utility.yul\":9965:10282   */\n      pop\n      pop\n        /* \"#utility.yul\":9889:10282   */\n      swap4\n      swap3\n      pop\n      pop\n      pop\n      jump\t// out\n        /* \"#utility.yul\":10288:10348   */\n    tag_139:\n        /* \"#utility.yul\":10316:10319   */\n      0x00\n        /* \"#utility.yul\":10337:10342   */\n      dup2\n        /* \"#utility.yul\":10330:10342   */\n      swap1\n      pop\n        /* \"#utility.yul\":10288:10348   */\n      swap2\n      swap1\n      pop\n      jump\t// out\n        /* \"#utility.yul\":10354:10496   */\n    tag_140:\n        /* \"#utility.yul\":10404:10413   */\n      0x00\n        /* \"#utility.yul\":10437:10490   */\n      tag_266\n        /* \"#utility.yul\":10455:10489   */\n      tag_267\n        /* \"#utility.yul\":10464:10488   */\n      tag_268\n        /* \"#utility.yul\":10482:10487   */\n      dup5\n        /* \"#utility.yul\":10464:10488   */\n      tag_116\n      jump\t// in\n    tag_268:\n        /* \"#utility.yul\":10455:10489   */\n      tag_139\n      jump\t// in\n    tag_267:\n        /* \"#utility.yul\":10437:10490   */\n      tag_116\n      jump\t// in\n    tag_266:\n        /* \"#utility.yul\":10424:10490   */\n      swap1\n      pop\n        /* \"#utility.yul\":10354:10496   */\n      swap2\n      swap1\n      pop\n      jump\t// out\n        /* \"#utility.yul\":10502:10577   */\n    tag_141:\n        /* \"#utility.yul\":10545:10548   */\n      0x00\n        /* \"#utility.yul\":10566:10571   */\n      dup2\n        /* \"#utility.yul\":10559:10571   */\n      swap1\n      pop\n        /* \"#utility.yul\":10502:10577   */\n      swap2\n      swap1\n      pop\n      jump\t// out\n        /* \"#utility.yul\":10583:10852   */\n    tag_142:\n        /* \"#utility.yul\":10693:10732   */\n      tag_271\n        /* \"#utility.yul\":10724:10731   */\n      dup4\n        /* \"#utility.yul\":10693:10732   */\n      tag_140\n      jump\t// in\n    tag_271:\n        /* \"#utility.yul\":10754:10845   */\n      tag_272\n        /* \"#utility.yul\":10803:10844   */\n      tag_273\n        /* \"#utility.yul\":10827:10843   */\n      dup3\n        /* \"#utility.yul\":10803:10844   */\n      tag_141\n      jump\t// in\n    tag_273:\n        /* \"#utility.yul\":10795:10801   */\n      dup5\n        /* \"#utility.yul\":10788:10792   */\n      dup5\n        /* \"#utility.yul\":10782:10793   */\n      sload\n        /* \"#utility.yul\":10754:10845   */\n      tag_138\n      jump\t// in\n    tag_272:\n        /* \"#utility.yul\":10748:10752   */\n      dup3\n        /* \"#utility.yul\":10741:10846   */\n      sstore\n        /* \"#utility.yul\":10659:10852   */\n      pop\n        /* \"#utility.yul\":10583:10852   */\n      pop\n      pop\n      pop\n      jump\t// out\n        /* \"#utility.yul\":10858:10931   */\n    tag_143:\n        /* \"#utility.yul\":10903:10906   */\n      0x00\n        /* \"#utility.yul\":10924:10925   */\n      0x00\n        /* \"#utility.yul\":10917:10925   */\n      swap1\n      pop\n        /* \"#utility.yul\":10858:10931   */\n      swap1\n      jump\t// out\n        /* \"#utility.yul\":10937:11126   */\n    tag_144:\n        /* \"#utility.yul\":11014:11046   */\n      tag_276\n      tag_143\n      jump\t// in\n    tag_276:\n        /* \"#utility.yul\":11055:11120   */\n      tag_277\n        /* \"#utility.yul\":11113:11119   */\n      dup2\n        /* \"#utility.yul\":11105:11111   */\n      dup5\n        /* \"#utility.yul\":11099:11103   */\n      dup5\n        /* \"#utility.yul\":11055:11120   */\n      tag_142\n      jump\t// in\n    tag_277:\n        /* \"#utility.yul\":10990:11126   */\n      pop\n        /* \"#utility.yul\":10937:11126   */\n      pop\n      pop\n      jump\t// out\n        /* \"#utility.yul\":11132:11318   */\n    tag_145:\n        /* \"#utility.yul\":11192:11312   */\n    tag_279:\n        /* \"#utility.yul\":11209:11212   */\n      dup2\n        /* \"#utility.yul\":11202:11207   */\n      dup2\n        /* \"#utility.yul\":11199:11213   */\n      lt\n        /* \"#utility.yul\":11192:11312   */\n      iszero\n      tag_281\n      jumpi\n        /* \"#utility.yul\":11263:11302   */\n      tag_282\n        /* \"#utility.yul\":11300:11301   */\n      0x00\n        /* \"#utility.yul\":11293:11298   */\n      dup3\n        /* \"#utility.yul\":11263:11302   */\n      tag_144\n      jump\t// in\n    tag_282:\n        /* \"#utility.yul\":11236:11237   */\n      0x01\n        /* \"#utility.yul\":11229:11234   */\n      dup2\n        /* \"#utility.yul\":11225:11238   */\n      add\n        /* \"#utility.yul\":11216:11238   */\n      swap1\n      pop\n        /* \"#utility.yul\":11192:11312   */\n      jump(tag_279)\n    tag_281:\n        /* \"#utility.yul\":11132:11318   */\n      pop\n      pop\n      jump\t// out\n        /* \"#utility.yul\":11324:11867   */\n    tag_146:\n        /* \"#utility.yul\":11425:11427   */\n      0x1f\n        /* \"#utility.yul\":11420:11423   */\n      dup3\n        /* \"#utility.yul\":11417:11428   */\n      gt\n        /* \"#utility.yul\":11414:11860   */\n      iszero\n      tag_284\n      jumpi\n        /* \"#utility.yul\":11459:11497   */\n      tag_285\n        /* \"#utility.yul\":11491:11496   */\n      dup2\n        /* \"#utility.yul\":11459:11497   */\n      tag_135\n      jump\t// in\n    tag_285:\n        /* \"#utility.yul\":11543:11572   */\n      tag_286\n        /* \"#utility.yul\":11561:11571   */\n      dup5\n        /* \"#utility.yul\":11543:11572   */\n      tag_136\n      jump\t// in\n    tag_286:\n        /* \"#utility.yul\":11533:11541   */\n      dup2\n        /* \"#utility.yul\":11529:11573   */\n      add\n        /* \"#utility.yul\":11726:11728   */\n      0x20\n        /* \"#utility.yul\":11714:11724   */\n      dup6\n        /* \"#utility.yul\":11711:11729   */\n      lt\n        /* \"#utility.yul\":11708:11757   */\n      iszero\n      tag_287\n      jumpi\n        /* \"#utility.yul\":11747:11755   */\n      dup2\n        /* \"#utility.yul\":11732:11755   */\n      swap1\n      pop\n        /* \"#utility.yul\":11708:11757   */\n    tag_287:\n        /* \"#utility.yul\":11770:11850   */\n      tag_288\n        /* \"#utility.yul\":11826:11848   */\n      tag_289\n        /* \"#utility.yul\":11844:11847   */\n      dup6\n        /* \"#utility.yul\":11826:11848   */\n      tag_136\n      jump\t// in\n    tag_289:\n        /* \"#utility.yul\":11816:11824   */\n      dup4\n        /* \"#utility.yul\":11812:11849   */\n      add\n        /* \"#utility.yul\":11799:11810   */\n      dup3\n        /* \"#utility.yul\":11770:11850   */\n      tag_145\n      jump\t// in\n    tag_288:\n        /* \"#utility.yul\":11429:11860   */\n      pop\n      pop\n        /* \"#utility.yul\":11414:11860   */\n    tag_284:\n        /* \"#utility.yul\":11324:11867   */\n      pop\n      pop\n      pop\n      jump\t// out\n        /* \"#utility.yul\":11873:11990   */\n    tag_147:\n        /* \"#utility.yul\":11927:11935   */\n      0x00\n        /* \"#utility.yul\":11977:11982   */\n      dup3\n        /* \"#utility.yul\":11971:11975   */\n      dup3\n        /* \"#utility.yul\":11967:11983   */\n      shr\n        /* \"#utility.yul\":11946:11983   */\n      swap1\n      pop\n        /* \"#utility.yul\":11873:11990   */\n      swap3\n      swap2\n      pop\n      pop\n      jump\t// out\n        /* \"#utility.yul\":11996:12165   */\n    tag_148:\n        /* \"#utility.yul\":12040:12046   */\n      0x00\n        /* \"#utility.yul\":12073:12124   */\n      tag_292\n        /* \"#utility.yul\":12121:12122   */\n      0x00\n        /* \"#utility.yul\":12117:12123   */\n      not\n        /* \"#utility.yul\":12109:12114   */\n      dup5\n        /* \"#utility.yul\":12106:12107   */\n      0x08\n        /* \"#utility.yul\":12102:12115   */\n      mul\n        /* \"#utility.yul\":12073:12124   */\n      tag_147\n      jump\t// in\n    tag_292:\n        /* \"#utility.yul\":12069:12125   */\n      not\n        /* \"#utility.yul\":12154:12158   */\n      dup1\n        /* \"#utility.yul\":12148:12152   */\n      dup4\n        /* \"#utility.yul\":12144:12159   */\n      and\n        /* \"#utility.yul\":12134:12159   */\n      swap2\n      pop\n        /* \"#utility.yul\":12047:12165   */\n      pop\n        /* \"#utility.yul\":11996:12165   */\n      swap3\n      swap2\n      pop\n      pop\n      jump\t// out\n        /* \"#utility.yul\":12170:12465   */\n    tag_149:\n        /* \"#utility.yul\":12246:12250   */\n      0x00\n        /* \"#utility.yul\":12392:12421   */\n      tag_294\n        /* \"#utility.yul\":12417:12420   */\n      dup4\n        /* \"#utility.yul\":12411:12415   */\n      dup4\n        /* \"#utility.yul\":12392:12421   */\n      tag_148\n      jump\t// in\n    tag_294:\n        /* \"#utility.yul\":12384:12421   */\n      swap2\n      pop\n        /* \"#utility.yul\":12454:12457   */\n      dup3\n        /* \"#utility.yul\":12451:12452   */\n      0x02\n        /* \"#utility.yul\":12447:12458   */\n      mul\n        /* \"#utility.yul\":12441:12445   */\n      dup3\n        /* \"#utility.yul\":12438:12459   */\n      or\n        /* \"#utility.yul\":12430:12459   */\n      swap1\n      pop\n        /* \"#utility.yul\":12170:12465   */\n      swap3\n      swap2\n      pop\n      pop\n      jump\t// out\n        /* \"#utility.yul\":12470:13873   */\n    tag_42:\n        /* \"#utility.yul\":12594:12638   */\n      tag_296\n        /* \"#utility.yul\":12634:12637   */\n      dup4\n        /* \"#utility.yul\":12629:12632   */\n      dup4\n        /* \"#utility.yul\":12594:12638   */\n      tag_134\n      jump\t// in\n    tag_296:\n        /* \"#utility.yul\":12703:12721   */\n      0xffffffffffffffff\n        /* \"#utility.yul\":12695:12701   */\n      dup2\n        /* \"#utility.yul\":12692:12722   */\n      gt\n        /* \"#utility.yul\":12689:12745   */\n      iszero\n      tag_297\n      jumpi\n        /* \"#utility.yul\":12725:12743   */\n      tag_298\n      tag_74\n      jump\t// in\n    tag_298:\n        /* \"#utility.yul\":12689:12745   */\n    tag_297:\n        /* \"#utility.yul\":12769:12807   */\n      tag_299\n        /* \"#utility.yul\":12801:12805   */\n      dup3\n        /* \"#utility.yul\":12795:12806   */\n      sload\n        /* \"#utility.yul\":12769:12807   */\n      tag_30\n      jump\t// in\n    tag_299:\n        /* \"#utility.yul\":12854:12921   */\n      tag_300\n        /* \"#utility.yul\":12914:12920   */\n      dup3\n        /* \"#utility.yul\":12906:12912   */\n      dup3\n        /* \"#utility.yul\":12900:12904   */\n      dup6\n        /* \"#utility.yul\":12854:12921   */\n      tag_146\n      jump\t// in\n    tag_300:\n        /* \"#utility.yul\":12948:12949   */\n      0x00\n        /* \"#utility.yul\":12977:12979   */\n      0x1f\n        /* \"#utility.yul\":12969:12975   */\n      dup4\n        /* \"#utility.yul\":12966:12980   */\n      gt\n        /* \"#utility.yul\":12994:12995   */\n      0x01\n        /* \"#utility.yul\":12989:13621   */\n      dup2\n      eq\n      tag_302\n      jumpi\n        /* \"#utility.yul\":13665:13666   */\n      0x00\n        /* \"#utility.yul\":13682:13688   */\n      dup5\n        /* \"#utility.yul\":13679:13763   */\n      iszero\n      tag_303\n      jumpi\n        /* \"#utility.yul\":13738:13747   */\n      dup3\n        /* \"#utility.yul\":13733:13736   */\n      dup8\n        /* \"#utility.yul\":13729:13748   */\n      add\n        /* \"#utility.yul\":13716:13749   */\n      calldataload\n        /* \"#utility.yul\":13707:13749   */\n      swap1\n      pop\n        /* \"#utility.yul\":13679:13763   */\n    tag_303:\n        /* \"#utility.yul\":13789:13856   */\n      tag_304\n        /* \"#utility.yul\":13849:13855   */\n      dup6\n        /* \"#utility.yul\":13842:13847   */\n      dup3\n        /* \"#utility.yul\":13789:13856   */\n      tag_149\n      jump\t// in\n    tag_304:\n        /* \"#utility.yul\":13783:13787   */\n      dup7\n        /* \"#utility.yul\":13776:13857   */\n      sstore\n        /* \"#utility.yul\":13638:13867   */\n      pop\n        /* \"#utility.yul\":12959:13867   */\n      jump(tag_301)\n        /* \"#utility.yul\":12989:13621   */\n    tag_302:\n        /* \"#utility.yul\":13041:13045   */\n      0x1f\n        /* \"#utility.yul\":13037:13046   */\n      not\n        /* \"#utility.yul\":13029:13035   */\n      dup5\n        /* \"#utility.yul\":13025:13047   */\n      and\n        /* \"#utility.yul\":13075:13112   */\n      tag_305\n        /* \"#utility.yul\":13107:13111   */\n      dup7\n        /* \"#utility.yul\":13075:13112   */\n      tag_135\n      jump\t// in\n    tag_305:\n        /* \"#utility.yul\":13134:13135   */\n      0x00\n        /* \"#utility.yul\":13148:13363   */\n    tag_306:\n        /* \"#utility.yul\":13162:13169   */\n      dup3\n        /* \"#utility.yul\":13159:13160   */\n      dup2\n        /* \"#utility.yul\":13156:13170   */\n      lt\n        /* \"#utility.yul\":13148:13363   */\n      iszero\n      tag_308\n      jumpi\n        /* \"#utility.yul\":13248:13257   */\n      dup5\n        /* \"#utility.yul\":13243:13246   */\n      dup10\n        /* \"#utility.yul\":13239:13258   */\n      add\n        /* \"#utility.yul\":13226:13259   */\n      calldataload\n        /* \"#utility.yul\":13218:13224   */\n      dup3\n        /* \"#utility.yul\":13211:13260   */\n      sstore\n        /* \"#utility.yul\":13299:13300   */\n      0x01\n        /* \"#utility.yul\":13291:13297   */\n      dup3\n        /* \"#utility.yul\":13287:13301   */\n      add\n        /* \"#utility.yul\":13277:13301   */\n      swap2\n      pop\n        /* \"#utility.yul\":13346:13348   */\n      0x20\n        /* \"#utility.yul\":13335:13344   */\n      dup6\n        /* \"#utility.yul\":13331:13349   */\n      add\n        /* \"#utility.yul\":13318:13349   */\n      swap5\n      pop\n        /* \"#utility.yul\":13185:13189   */\n      0x20\n        /* \"#utility.yul\":13182:13183   */\n      dup2\n        /* \"#utility.yul\":13178:13190   */\n      add\n        /* \"#utility.yul\":13173:13190   */\n      swap1\n      pop\n        /* \"#utility.yul\":13148:13363   */\n      jump(tag_306)\n    tag_308:\n        /* \"#utility.yul\":13391:13397   */\n      dup7\n        /* \"#utility.yul\":13382:13389   */\n      dup4\n        /* \"#utility.yul\":13379:13398   */\n      lt\n        /* \"#utility.yul\":13376:13562   */\n      iszero\n      tag_309\n      jumpi\n        /* \"#utility.yul\":13456:13465   */\n      dup5\n        /* \"#utility.yul\":13451:13454   */\n      dup10\n        /* \"#utility.yul\":13447:13466   */\n      add\n        /* \"#utility.yul\":13434:13467   */\n      calldataload\n        /* \"#utility.yul\":13499:13547   */\n      tag_310\n        /* \"#utility.yul\":13541:13545   */\n      0x1f\n        /* \"#utility.yul\":13533:13539   */\n      dup10\n        /* \"#utility.yul\":13529:13546   */\n      and\n        /* \"#utility.yul\":13518:13527   */\n      dup3\n        /* \"#utility.yul\":13499:13547   */\n      tag_148\n      jump\t// in\n    tag_310:\n        /* \"#utility.yul\":13491:13497   */\n      dup4\n        /* \"#utility.yul\":13484:13548   */\n      sstore\n        /* \"#utility.yul\":13399:13562   */\n      pop\n        /* \"#utility.yul\":13376:13562   */\n    tag_309:\n        /* \"#utility.yul\":13608:13609   */\n      0x01\n        /* \"#utility.yul\":13604:13605   */\n      0x02\n        /* \"#utility.yul\":13596:13602   */\n      dup9\n        /* \"#utility.yul\":13592:13606   */\n      mul\n        /* \"#utility.yul\":13588:13610   */\n      add\n        /* \"#utility.yul\":13582:13586   */\n      dup9\n        /* \"#utility.yul\":13575:13611   */\n      sstore\n        /* \"#utility.yul\":12996:13621   */\n      pop\n      pop\n      pop\n        /* \"#utility.yul\":12959:13867   */\n    tag_301:\n      pop\n        /* \"#utility.yul\":12569:13873   */\n      pop\n      pop\n      pop\n        /* \"#utility.yul\":12470:13873   */\n      pop\n      pop\n      pop\n      jump\t// out\n        /* \"#utility.yul\":13879:14048   */\n    tag_150:\n        /* \"#utility.yul\":14019:14040   */\n      0x756e617574686f72697a65642061636365737300000000000000000000000000\n        /* \"#utility.yul\":14015:14016   */\n      0x00\n        /* \"#utility.yul\":14007:14013   */\n      dup3\n        /* \"#utility.yul\":14003:14017   */\n      add\n        /* \"#utility.yul\":13996:14041   */\n      mstore\n        /* \"#utility.yul\":13879:14048   */\n      pop\n      jump\t// out\n        /* \"#utility.yul\":14054:14420   */\n    tag_151:\n        /* \"#utility.yul\":14196:14199   */\n      0x00\n        /* \"#utility.yul\":14217:14284   */\n      tag_313\n        /* \"#utility.yul\":14281:14283   */\n      0x13\n        /* \"#utility.yul\":14276:14279   */\n      dup4\n        /* \"#utility.yul\":14217:14284   */\n      tag_124\n      jump\t// in\n    tag_313:\n        /* \"#utility.yul\":14210:14284   */\n      swap2\n      pop\n        /* \"#utility.yul\":14293:14386   */\n      tag_314\n        /* \"#utility.yul\":14382:14385   */\n      dup3\n        /* \"#utility.yul\":14293:14386   */\n      tag_150\n      jump\t// in\n    tag_314:\n        /* \"#utility.yul\":14411:14413   */\n      0x20\n        /* \"#utility.yul\":14406:14409   */\n      dup3\n        /* \"#utility.yul\":14402:14414   */\n      add\n        /* \"#utility.yul\":14395:14414   */\n      swap1\n      pop\n        /* \"#utility.yul\":14054:14420   */\n      swap2\n      swap1\n      pop\n      jump\t// out\n        /* \"#utility.yul\":14426:14845   */\n    tag_48:\n        /* \"#utility.yul\":14592:14596   */\n      0x00\n        /* \"#utility.yul\":14630:14632   */\n      0x20\n        /* \"#utility.yul\":14619:14628   */\n      dup3\n        /* \"#utility.yul\":14615:14633   */\n      add\n        /* \"#utility.yul\":14607:14633   */\n      swap1\n      pop\n        /* \"#utility.yul\":14679:14688   */\n      dup2\n        /* \"#utility.yul\":14673:14677   */\n      dup2\n        /* \"#utility.yul\":14669:14689   */\n      sub\n        /* \"#utility.yul\":14665:14666   */\n      0x00\n        /* \"#utility.yul\":14654:14663   */\n      dup4\n        /* \"#utility.yul\":14650:14667   */\n      add\n        /* \"#utility.yul\":14643:14690   */\n      mstore\n        /* \"#utility.yul\":14707:14838   */\n      tag_316\n        /* \"#utility.yul\":14833:14837   */\n      dup2\n        /* \"#utility.yul\":14707:14838   */\n      tag_151\n      jump\t// in\n    tag_316:\n        /* \"#utility.yul\":14699:14838   */\n      swap1\n      pop\n        /* \"#utility.yul\":14426:14845   */\n      swap2\n      swap1\n      pop\n      jump\t// out\n        /* \"#utility.yul\":14851:14998   */\n    tag_152:\n        /* \"#utility.yul\":14952:14963   */\n      0x00\n        /* \"#utility.yul\":14989:14992   */\n      dup2\n        /* \"#utility.yul\":14974:14992   */\n      swap1\n      pop\n        /* \"#utility.yul\":14851:14998   */\n      swap3\n      swap2\n      pop\n      pop\n      jump\t// out\n        /* \"#utility.yul\":15004:15118   */\n    tag_153:\n      pop\n      jump\t// out\n        /* \"#utility.yul\":15124:15522   */\n    tag_154:\n        /* \"#utility.yul\":15283:15286   */\n      0x00\n        /* \"#utility.yul\":15304:15387   */\n      tag_320\n        /* \"#utility.yul\":15385:15386   */\n      0x00\n        /* \"#utility.yul\":15380:15383   */\n      dup4\n        /* \"#utility.yul\":15304:15387   */\n      tag_152\n      jump\t// in\n    tag_320:\n        /* \"#utility.yul\":15297:15387   */\n      swap2\n      pop\n        /* \"#utility.yul\":15396:15489   */\n      tag_321\n        /* \"#utility.yul\":15485:15488   */\n      dup3\n        /* \"#utility.yul\":15396:15489   */\n      tag_153\n      jump\t// in\n    tag_321:\n        /* \"#utility.yul\":15514:15515   */\n      0x00\n        /* \"#utility.yul\":15509:15512   */\n      dup3\n        /* \"#utility.yul\":15505:15516   */\n      add\n        /* \"#utility.yul\":15498:15516   */\n      swap1\n      pop\n        /* \"#utility.yul\":15124:15522   */\n      swap2\n      swap1\n      pop\n      jump\t// out\n        /* \"#utility.yul\":15528:15907   */\n    tag_50:\n        /* \"#utility.yul\":15712:15715   */\n      0x00\n        /* \"#utility.yul\":15734:15881   */\n      tag_323\n        /* \"#utility.yul\":15877:15880   */\n      dup3\n        /* \"#utility.yul\":15734:15881   */\n      tag_154\n      jump\t// in\n    tag_323:\n        /* \"#utility.yul\":15727:15881   */\n      swap2\n      pop\n        /* \"#utility.yul\":15898:15901   */\n      dup2\n        /* \"#utility.yul\":15891:15901   */\n      swap1\n      pop\n        /* \"#utility.yul\":15528:15907   */\n      swap2\n      swap1\n      pop\n      jump\t// out\n        /* \"#utility.yul\":15913:16079   */\n    tag_155:\n        /* \"#utility.yul\":16053:16071   */\n      0x66616c6c6f20656e20656c207061676f00000000000000000000000000000000\n        /* \"#utility.yul\":16049:16050   */\n      0x00\n        /* \"#utility.yul\":16041:16047   */\n      dup3\n        /* \"#utility.yul\":16037:16051   */\n      add\n        /* \"#utility.yul\":16030:16072   */\n      mstore\n        /* \"#utility.yul\":15913:16079   */\n      pop\n      jump\t// out\n        /* \"#utility.yul\":16085:16451   */\n    tag_156:\n        /* \"#utility.yul\":16227:16230   */\n      0x00\n        /* \"#utility.yul\":16248:16315   */\n      tag_326\n        /* \"#utility.yul\":16312:16314   */\n      0x10\n        /* \"#utility.yul\":16307:16310   */\n      dup4\n        /* \"#utility.yul\":16248:16315   */\n      tag_124\n      jump\t// in\n    tag_326:\n        /* \"#utility.yul\":16241:16315   */\n      swap2\n      pop\n        /* \"#utility.yul\":16324:16417   */\n      tag_327\n        /* \"#utility.yul\":16413:16416   */\n      dup3\n        /* \"#utility.yul\":16324:16417   */\n      tag_155\n      jump\t// in\n    tag_327:\n        /* \"#utility.yul\":16442:16444   */\n      0x20\n        /* \"#utility.yul\":16437:16440   */\n      dup3\n        /* \"#utility.yul\":16433:16445   */\n      add\n        /* \"#utility.yul\":16426:16445   */\n      swap1\n      pop\n        /* \"#utility.yul\":16085:16451   */\n      swap2\n      swap1\n      pop\n      jump\t// out\n        /* \"#utility.yul\":16457:16876   */\n    tag_56:\n        /* \"#utility.yul\":16623:16627   */\n      0x00\n        /* \"#utility.yul\":16661:16663   */\n      0x20\n        /* \"#utility.yul\":16650:16659   */\n      dup3\n        /* \"#utility.yul\":16646:16664   */\n      add\n        /* \"#utility.yul\":16638:16664   */\n      swap1\n      pop\n        /* \"#utility.yul\":16710:16719   */\n      dup2\n        /* \"#utility.yul\":16704:16708   */\n      dup2\n        /* \"#utility.yul\":16700:16720   */\n      sub\n        /* \"#utility.yul\":16696:16697   */\n      0x00\n        /* \"#utility.yul\":16685:16694   */\n      dup4\n        /* \"#utility.yul\":16681:16698   */\n      add\n        /* \"#utility.yul\":16674:16721   */\n      mstore\n        /* \"#utility.yul\":16738:16869   */\n      tag_329\n        /* \"#utility.yul\":16864:16868   */\n      dup2\n        /* \"#utility.yul\":16738:16869   */\n      tag_156\n      jump\t// in\n    tag_329:\n        /* \"#utility.yul\":16730:16869   */\n      swap1\n      pop\n        /* \"#utility.yul\":16457:16876   */\n      swap2\n      swap1\n      pop\n      jump\t// out\n        /* \"#utility.yul\":16882:17076   */\n    tag_58:\n        /* \"#utility.yul\":16922:16926   */\n      0x00\n        /* \"#utility.yul\":16942:16962   */\n      tag_331\n        /* \"#utility.yul\":16960:16961   */\n      dup3\n        /* \"#utility.yul\":16942:16962   */\n      tag_116\n      jump\t// in\n    tag_331:\n        /* \"#utility.yul\":16937:16962   */\n      swap2\n      pop\n        /* \"#utility.yul\":16976:16996   */\n      tag_332\n        /* \"#utility.yul\":16994:16995   */\n      dup4\n        /* \"#utility.yul\":16976:16996   */\n      tag_116\n      jump\t// in\n    tag_332:\n        /* \"#utility.yul\":16971:16996   */\n      swap3\n      pop\n        /* \"#utility.yul\":17020:17021   */\n      dup3\n        /* \"#utility.yul\":17017:17018   */\n      dup3\n        /* \"#utility.yul\":17013:17022   */\n      sub\n        /* \"#utility.yul\":17005:17022   */\n      swap1\n      pop\n        /* \"#utility.yul\":17044:17045   */\n      dup2\n        /* \"#utility.yul\":17038:17042   */\n      dup2\n        /* \"#utility.yul\":17035:17046   */\n      gt\n        /* \"#utility.yul\":17032:17069   */\n      iszero\n      tag_333\n      jumpi\n        /* \"#utility.yul\":17049:17067   */\n      tag_334\n      tag_128\n      jump\t// in\n    tag_334:\n        /* \"#utility.yul\":17032:17069   */\n    tag_333:\n        /* \"#utility.yul\":16882:17076   */\n      swap3\n      swap2\n      pop\n      pop\n      jump\t// out\n        /* \"#utility.yul\":17082:17249   */\n    tag_157:\n        /* \"#utility.yul\":17222:17241   */\n      0x496e737566666369656e742066756e6473000000000000000000000000000000\n        /* \"#utility.yul\":17218:17219   */\n      0x00\n        /* \"#utility.yul\":17210:17216   */\n      dup3\n        /* \"#utility.yul\":17206:17220   */\n      add\n        /* \"#utility.yul\":17199:17242   */\n      mstore\n        /* \"#utility.yul\":17082:17249   */\n      pop\n      jump\t// out\n        /* \"#utility.yul\":17255:17621   */\n    tag_158:\n        /* \"#utility.yul\":17397:17400   */\n      0x00\n        /* \"#utility.yul\":17418:17485   */\n      tag_337\n        /* \"#utility.yul\":17482:17484   */\n      0x11\n        /* \"#utility.yul\":17477:17480   */\n      dup4\n        /* \"#utility.yul\":17418:17485   */\n      tag_124\n      jump\t// in\n    tag_337:\n        /* \"#utility.yul\":17411:17485   */\n      swap2\n      pop\n        /* \"#utility.yul\":17494:17587   */\n      tag_338\n        /* \"#utility.yul\":17583:17586   */\n      dup3\n        /* \"#utility.yul\":17494:17587   */\n      tag_157\n      jump\t// in\n    tag_338:\n        /* \"#utility.yul\":17612:17614   */\n      0x20\n        /* \"#utility.yul\":17607:17610   */\n      dup3\n        /* \"#utility.yul\":17603:17615   */\n      add\n        /* \"#utility.yul\":17596:17615   */\n      swap1\n      pop\n        /* \"#utility.yul\":17255:17621   */\n      swap2\n      swap1\n      pop\n      jump\t// out\n        /* \"#utility.yul\":17627:18046   */\n    tag_69:\n        /* \"#utility.yul\":17793:17797   */\n      0x00\n        /* \"#utility.yul\":17831:17833   */\n      0x20\n        /* \"#utility.yul\":17820:17829   */\n      dup3\n        /* \"#utility.yul\":17816:17834   */\n      add\n        /* \"#utility.yul\":17808:17834   */\n      swap1\n      pop\n        /* \"#utility.yul\":17880:17889   */\n      dup2\n        /* \"#utility.yul\":17874:17878   */\n      dup2\n        /* \"#utility.yul\":17870:17890   */\n      sub\n        /* \"#utility.yul\":17866:17867   */\n      0x00\n        /* \"#utility.yul\":17855:17864   */\n      dup4\n        /* \"#utility.yul\":17851:17868   */\n      add\n        /* \"#utility.yul\":17844:17891   */\n      mstore\n        /* \"#utility.yul\":17908:18039   */\n      tag_340\n        /* \"#utility.yul\":18034:18038   */\n      dup2\n        /* \"#utility.yul\":17908:18039   */\n      tag_158\n      jump\t// in\n    tag_340:\n        /* \"#utility.yul\":17900:18039   */\n      swap1\n      pop\n        /* \"#utility.yul\":17627:18046   */\n      swap2\n      swap1\n      pop\n      jump\t// out\n        /* \"#utility.yul\":18052:18243   */\n    tag_71:\n        /* \"#utility.yul\":18092:18095   */\n      0x00\n        /* \"#utility.yul\":18111:18131   */\n      tag_342\n        /* \"#utility.yul\":18129:18130   */\n      dup3\n        /* \"#utility.yul\":18111:18131   */\n      tag_116\n      jump\t// in\n    tag_342:\n        /* \"#utility.yul\":18106:18131   */\n      swap2\n      pop\n        /* \"#utility.yul\":18145:18165   */\n      tag_343\n        /* \"#utility.yul\":18163:18164   */\n      dup4\n        /* \"#utility.yul\":18145:18165   */\n      tag_116\n      jump\t// in\n    tag_343:\n        /* \"#utility.yul\":18140:18165   */\n      swap3\n      pop\n        /* \"#utility.yul\":18188:18189   */\n      dup3\n        /* \"#utility.yul\":18185:18186   */\n      dup3\n        /* \"#utility.yul\":18181:18190   */\n      add\n        /* \"#utility.yul\":18174:18190   */\n      swap1\n      pop\n        /* \"#utility.yul\":18209:18212   */\n      dup1\n        /* \"#utility.yul\":18206:18207   */\n      dup3\n        /* \"#utility.yul\":18203:18213   */\n      gt\n        /* \"#utility.yul\":18200:18236   */\n      iszero\n      tag_344\n      jumpi\n        /* \"#utility.yul\":18216:18234   */\n      tag_345\n      tag_128\n      jump\t// in\n    tag_345:\n        /* \"#utility.yul\":18200:18236   */\n    tag_344:\n        /* \"#utility.yul\":18052:18243   */\n      swap3\n      swap2\n      pop\n      pop\n      jump\t// out\n        /* \"#utility.yul\":18249:18348   */\n    tag_159:\n        /* \"#utility.yul\":18301:18307   */\n      0x00\n        /* \"#utility.yul\":18335:18340   */\n      dup2\n        /* \"#utility.yul\":18329:18341   */\n      mload\n        /* \"#utility.yul\":18319:18341   */\n      swap1\n      pop\n        /* \"#utility.yul\":18249:18348   */\n      swap2\n      swap1\n      pop\n      jump\t// out\n        /* \"#utility.yul\":18354:19749   */\n    tag_82:\n        /* \"#utility.yul\":18471:18508   */\n      tag_348\n        /* \"#utility.yul\":18504:18507   */\n      dup3\n        /* \"#utility.yul\":18471:18508   */\n      tag_159\n      jump\t// in\n    tag_348:\n        /* \"#utility.yul\":18573:18591   */\n      0xffffffffffffffff\n        /* \"#utility.yul\":18565:18571   */\n      dup2\n        /* \"#utility.yul\":18562:18592   */\n      gt\n        /* \"#utility.yul\":18559:18615   */\n      iszero\n      tag_349\n      jumpi\n        /* \"#utility.yul\":18595:18613   */\n      tag_350\n      tag_74\n      jump\t// in\n    tag_350:\n        /* \"#utility.yul\":18559:18615   */\n    tag_349:\n        /* \"#utility.yul\":18639:18677   */\n      tag_351\n        /* \"#utility.yul\":18671:18675   */\n      dup3\n        /* \"#utility.yul\":18665:18676   */\n      sload\n        /* \"#utility.yul\":18639:18677   */\n      tag_30\n      jump\t// in\n    tag_351:\n        /* \"#utility.yul\":18724:18791   */\n      tag_352\n        /* \"#utility.yul\":18784:18790   */\n      dup3\n        /* \"#utility.yul\":18776:18782   */\n      dup3\n        /* \"#utility.yul\":18770:18774   */\n      dup6\n        /* \"#utility.yul\":18724:18791   */\n      tag_146\n      jump\t// in\n    tag_352:\n        /* \"#utility.yul\":18818:18819   */\n      0x00\n        /* \"#utility.yul\":18842:18846   */\n      0x20\n        /* \"#utility.yul\":18829:18846   */\n      swap1\n      pop\n        /* \"#utility.yul\":18874:18876   */\n      0x1f\n        /* \"#utility.yul\":18866:18872   */\n      dup4\n        /* \"#utility.yul\":18863:18877   */\n      gt\n        /* \"#utility.yul\":18891:18892   */\n      0x01\n        /* \"#utility.yul\":18886:19504   */\n      dup2\n      eq\n      tag_354\n      jumpi\n        /* \"#utility.yul\":19548:19549   */\n      0x00\n        /* \"#utility.yul\":19565:19571   */\n      dup5\n        /* \"#utility.yul\":19562:19639   */\n      iszero\n      tag_355\n      jumpi\n        /* \"#utility.yul\":19614:19623   */\n      dup3\n        /* \"#utility.yul\":19609:19612   */\n      dup8\n        /* \"#utility.yul\":19605:19624   */\n      add\n        /* \"#utility.yul\":19599:19625   */\n      mload\n        /* \"#utility.yul\":19590:19625   */\n      swap1\n      pop\n        /* \"#utility.yul\":19562:19639   */\n    tag_355:\n        /* \"#utility.yul\":19665:19732   */\n      tag_356\n        /* \"#utility.yul\":19725:19731   */\n      dup6\n        /* \"#utility.yul\":19718:19723   */\n      dup3\n        /* \"#utility.yul\":19665:19732   */\n      tag_149\n      jump\t// in\n    tag_356:\n        /* \"#utility.yul\":19659:19663   */\n      dup7\n        /* \"#utility.yul\":19652:19733   */\n      sstore\n        /* \"#utility.yul\":19521:19743   */\n      pop\n        /* \"#utility.yul\":18856:19743   */\n      jump(tag_353)\n        /* \"#utility.yul\":18886:19504   */\n    tag_354:\n        /* \"#utility.yul\":18938:18942   */\n      0x1f\n        /* \"#utility.yul\":18934:18943   */\n      not\n        /* \"#utility.yul\":18926:18932   */\n      dup5\n        /* \"#utility.yul\":18922:18944   */\n      and\n        /* \"#utility.yul\":18972:19009   */\n      tag_357\n        /* \"#utility.yul\":19004:19008   */\n      dup7\n        /* \"#utility.yul\":18972:19009   */\n      tag_135\n      jump\t// in\n    tag_357:\n        /* \"#utility.yul\":19031:19032   */\n      0x00\n        /* \"#utility.yul\":19045:19253   */\n    tag_358:\n        /* \"#utility.yul\":19059:19066   */\n      dup3\n        /* \"#utility.yul\":19056:19057   */\n      dup2\n        /* \"#utility.yul\":19053:19067   */\n      lt\n        /* \"#utility.yul\":19045:19253   */\n      iszero\n      tag_360\n      jumpi\n        /* \"#utility.yul\":19138:19147   */\n      dup5\n        /* \"#utility.yul\":19133:19136   */\n      dup10\n        /* \"#utility.yul\":19129:19148   */\n      add\n        /* \"#utility.yul\":19123:19149   */\n      mload\n        /* \"#utility.yul\":19115:19121   */\n      dup3\n        /* \"#utility.yul\":19108:19150   */\n      sstore\n        /* \"#utility.yul\":19189:19190   */\n      0x01\n        /* \"#utility.yul\":19181:19187   */\n      dup3\n        /* \"#utility.yul\":19177:19191   */\n      add\n        /* \"#utility.yul\":19167:19191   */\n      swap2\n      pop\n        /* \"#utility.yul\":19236:19238   */\n      0x20\n        /* \"#utility.yul\":19225:19234   */\n      dup6\n        /* \"#utility.yul\":19221:19239   */\n      add\n        /* \"#utility.yul\":19208:19239   */\n      swap5\n      pop\n        /* \"#utility.yul\":19082:19086   */\n      0x20\n        /* \"#utility.yul\":19079:19080   */\n      dup2\n        /* \"#utility.yul\":19075:19087   */\n      add\n        /* \"#utility.yul\":19070:19087   */\n      swap1\n      pop\n        /* \"#utility.yul\":19045:19253   */\n      jump(tag_358)\n    tag_360:\n        /* \"#utility.yul\":19281:19287   */\n      dup7\n        /* \"#utility.yul\":19272:19279   */\n      dup4\n        /* \"#utility.yul\":19269:19288   */\n      lt\n        /* \"#utility.yul\":19266:19445   */\n      iszero\n      tag_361\n      jumpi\n        /* \"#utility.yul\":19339:19348   */\n      dup5\n        /* \"#utility.yul\":19334:19337   */\n      dup10\n        /* \"#utility.yul\":19330:19349   */\n      add\n        /* \"#utility.yul\":19324:19350   */\n      mload\n        /* \"#utility.yul\":19382:19430   */\n      tag_362\n        /* \"#utility.yul\":19424:19428   */\n      0x1f\n        /* \"#utility.yul\":19416:19422   */\n      dup10\n        /* \"#utility.yul\":19412:19429   */\n      and\n        /* \"#utility.yul\":19401:19410   */\n      dup3\n        /* \"#utility.yul\":19382:19430   */\n      tag_148\n      jump\t// in\n    tag_362:\n        /* \"#utility.yul\":19374:19380   */\n      dup4\n        /* \"#utility.yul\":19367:19431   */\n      sstore\n        /* \"#utility.yul\":19289:19445   */\n      pop\n        /* \"#utility.yul\":19266:19445   */\n    tag_361:\n        /* \"#utility.yul\":19491:19492   */\n      0x01\n        /* \"#utility.yul\":19487:19488   */\n      0x02\n        /* \"#utility.yul\":19479:19485   */\n      dup9\n        /* \"#utility.yul\":19475:19489   */\n      mul\n        /* \"#utility.yul\":19471:19493   */\n      add\n        /* \"#utility.yul\":19465:19469   */\n      dup9\n        /* \"#utility.yul\":19458:19494   */\n      sstore\n        /* \"#utility.yul\":18893:19504   */\n      pop\n      pop\n      pop\n        /* \"#utility.yul\":18856:19743   */\n    tag_353:\n      pop\n        /* \"#utility.yul\":18446:19749   */\n      pop\n      pop\n      pop\n        /* \"#utility.yul\":18354:19749   */\n      pop\n      pop\n      jump\t// out\n\n    auxdata: 0xa264697066735822122075dbdd7f26ff43cd9df89d5cbd76088d977d090d419be991241c4ab31dece0d664736f6c634300081f0033\n}\n",
				"bytecode": {
					"linkReferences": {},
					"object": "60806040526127115f555f6005553480156017575f5ffd5b5061146a806100255f395ff3fe60806040526004361061003e575f3560e01c80630a0eac291461004257806350fac4f11461005e578063b90f1aaa1461007a578063c57981b5146100aa575b5f5ffd5b61005c60048036038101906100579190610aa5565b6100d4565b005b61007860048036038101906100739190610b16565b61033c565b005b610094600480360381019061008f9190610b41565b610608565b6040516100a19190610b9b565b60405180910390f35b3480156100b5575f5ffd5b506100be6108aa565b6040516100cb9190610b9b565b60405180910390f35b3373ffffffffffffffffffffffffffffffffffffffff1660035f8681526020019081526020015f205f9054906101000a900473ffffffffffffffffffffffffffffffffffffffff1673ffffffffffffffffffffffffffffffffffffffff16148061019957503373ffffffffffffffffffffffffffffffffffffffff1660025f8681526020019081526020015f205f9054906101000a900473ffffffffffffffffffffffffffffffffffffffff1673ffffffffffffffffffffffffffffffffffffffff16145b6101d8576040517f08c379a00000000000000000000000000000000000000000000000000000000081526004016101cf90610c0e565b60405180910390fd5b5f60045f8681526020019081526020015f205f0180546101f790610c59565b905014610239576040517f08c379a000000000000000000000000000000000000000000000000000000000815260040161023090610c0e565b60405180910390fd5b60045f8581526020019081526020015f206001015f0180549050600261025f9190610de5565b8161026a9190610e2f565b3410156102ac576040517f08c379a00000000000000000000000000000000000000000000000000000000081526004016102a390610eba565b60405180910390fd5b60045f8581526020019081526020015f206001015f01838390918060018154018082558091505060019003905f5260205f20015f9091929091929091929091925091826102fa9291906110af565b5060045f8581526020019081526020015f2060010160010181908060018154018082558091505060019003905f5260205f20015f909190919091505550505050565b5f73ffffffffffffffffffffffffffffffffffffffff1660025f8381526020019081526020015f205f9054906101000a900473ffffffffffffffffffffffffffffffffffffffff1673ffffffffffffffffffffffffffffffffffffffff161415801561040357503373ffffffffffffffffffffffffffffffffffffffff1660025f8381526020019081526020015f205f9054906101000a900473ffffffffffffffffffffffffffffffffffffffff1673ffffffffffffffffffffffffffffffffffffffff16145b610442576040517f08c379a0000000000000000000000000000000000000000000000000000000008152600401610439906111c6565b60405180910390fd5b5f3373ffffffffffffffffffffffffffffffffffffffff166103e860405161046990611211565b5f6040518083038185875af1925050503d805f81146104a3576040519150601f19603f3d011682016040523d82523d5f602084013e6104a8565b606091505b50509050806104ec576040517f08c379a00000000000000000000000000000000000000000000000000000000081526004016104e39061126f565b60405180910390fd5b600160055f8282546104fe919061128d565b925050819055506001805f3373ffffffffffffffffffffffffffffffffffffffff1673ffffffffffffffffffffffffffffffffffffffff1681526020019081526020015f205f828254610551919061128d565b9250508190555060025f8381526020019081526020015f205f6101000a81549073ffffffffffffffffffffffffffffffffffffffff021916905560035f8381526020019081526020015f205f6101000a81549073ffffffffffffffffffffffffffffffffffffffff021916905560045f8381526020019081526020015f205f5f82015f6105de91906108b0565b600182015f5f82015f6105f191906108ed565b600182015f610600919061090b565b505050505050565b5f6103e834101561064e576040517f08c379a00000000000000000000000000000000000000000000000000000000081526004016106459061130a565b60405180910390fd5b6001805f3373ffffffffffffffffffffffffffffffffffffffff1673ffffffffffffffffffffffffffffffffffffffff1681526020019081526020015f205f82825461069a9190611328565b925050819055503360025f5f5481526020019081526020015f205f6101000a81548173ffffffffffffffffffffffffffffffffffffffff021916908373ffffffffffffffffffffffffffffffffffffffff1602179055505f604051806040016040528085858080601f0160208091040260200160405190810160405280939291908181526020018383808284375f81840152601f19601f82011690508083019250505050505050815260200160405180604001604052805f67ffffffffffffffff81111561076b5761076a610ee2565b5b60405190808252806020026020018201604052801561079e57816020015b60608152602001906001900390816107895790505b5081526020015f67ffffffffffffffff8111156107be576107bd610ee2565b5b6040519080825280602002602001820160405280156107ec5781602001602082028036833780820191505090505b508152508152509050600160055f8282546108079190611328565b925050819055508060045f5f5481526020019081526020015f205f820151815f0190816108349190611365565b506020820151816001015f820151815f019080519060200190610858929190610929565b506020820151816001019080519060200190610875929190610980565b50505090505060015f5f82825461088c9190611328565b9250508190555060015f546108a1919061128d565b91505092915050565b6103e881565b5080546108bc90610c59565b5f825580601f106108cd57506108ea565b601f0160209004905f5260205f20908101906108e991906109cb565b5b50565b5080545f8255905f5260205f209081019061090891906109e6565b50565b5080545f8255905f5260205f209081019061092691906109cb565b50565b828054828255905f5260205f2090810192821561096f579160200282015b8281111561096e57825182908161095e9190611365565b5091602001919060010190610947565b5b50905061097c91906109e6565b5090565b828054828255905f5260205f209081019282156109ba579160200282015b828111156109b957825182559160200191906001019061099e565b5b5090506109c791906109cb565b5090565b5b808211156109e2575f815f9055506001016109cc565b5090565b5b80821115610a05575f81816109fc91906108b0565b506001016109e7565b5090565b5f5ffd5b5f5ffd5b5f819050919050565b610a2381610a11565b8114610a2d575f5ffd5b50565b5f81359050610a3e81610a1a565b92915050565b5f5ffd5b5f5ffd5b5f5ffd5b5f5f83601f840112610a6557610a64610a44565b5b8235905067ffffffffffffffff811115610a8257610a81610a48565b5b602083019150836001820283011115610a9e57610a9d610a4c565b5b9250929050565b5f5f5f5f60608587031215610abd57610abc610a09565b5b5f610aca87828801610a30565b945050602085013567ffffffffffffffff811115610aeb57610aea610a0d565b5b610af787828801610a50565b93509350506040610b0a87828801610a30565b91505092959194509250565b5f60208284031215610b2b57610b2a610a09565b5b5f610b3884828501610a30565b91505092915050565b5f5f60208385031215610b5757610b56610a09565b5b5f83013567ffffffffffffffff811115610b7457610b73610a0d565b5b610b8085828601610a50565b92509250509250929050565b610b9581610a11565b82525050565b5f602082019050610bae5f830184610b8c565b92915050565b5f82825260208201905092915050565b7f556e617574686f72697a656420616363657373000000000000000000000000005f82015250565b5f610bf8601383610bb4565b9150610c0382610bc4565b602082019050919050565b5f6020820190508181035f830152610c2581610bec565b9050919050565b7f4e487b71000000000000000000000000000000000000000000000000000000005f52602260045260245ffd5b5f6002820490506001821680610c7057607f821691505b602082108103610c8357610c82610c2c565b5b50919050565b7f4e487b71000000000000000000000000000000000000000000000000000000005f52601160045260245ffd5b5f8160011c9050919050565b5f5f8291508390505b6001851115610d0b57808604811115610ce757610ce6610c89565b5b6001851615610cf65780820291505b8081029050610d0485610cb6565b9450610ccb565b94509492505050565b5f82610d235760019050610dde565b81610d30575f9050610dde565b8160018114610d465760028114610d5057610d7f565b6001915050610dde565b60ff841115610d6257610d61610c89565b5b8360020a915084821115610d7957610d78610c89565b5b50610dde565b5060208310610133831016604e8410600b8410161715610db45782820a905083811115610daf57610dae610c89565b5b610dde565b610dc18484846001610cc2565b92509050818404811115610dd857610dd7610c89565b5b81810290505b9392505050565b5f610def82610a11565b9150610dfa83610a11565b9250610e277fffffffffffffffffffffffffffffffffffffffffffffffffffffffffffffffff8484610d14565b905092915050565b5f610e3982610a11565b9150610e4483610a11565b9250828202610e5281610a11565b91508282048414831517610e6957610e68610c89565b5b5092915050565b7f4e6f7420656e6f756768206d6f6e6579000000000000000000000000000000005f82015250565b5f610ea4601083610bb4565b9150610eaf82610e70565b602082019050919050565b5f6020820190508181035f830152610ed181610e98565b9050919050565b5f82905092915050565b7f4e487b71000000000000000000000000000000000000000000000000000000005f52604160045260245ffd5b5f819050815f5260205f209050919050565b5f6020601f8301049050919050565b5f82821b905092915050565b5f60088302610f6b7fffffffffffffffffffffffffffffffffffffffffffffffffffffffffffffffff82610f30565b610f758683610f30565b95508019841693508086168417925050509392505050565b5f819050919050565b5f610fb0610fab610fa684610a11565b610f8d565b610a11565b9050919050565b5f819050919050565b610fc983610f96565b610fdd610fd582610fb7565b848454610f3c565b825550505050565b5f5f905090565b610ff4610fe5565b610fff818484610fc0565b505050565b5b81811015611022576110175f82610fec565b600181019050611005565b5050565b601f8211156110675761103881610f0f565b61104184610f21565b81016020851015611050578190505b61106461105c85610f21565b830182611004565b50505b505050565b5f82821c905092915050565b5f6110875f198460080261106c565b1980831691505092915050565b5f61109f8383611078565b9150826002028217905092915050565b6110b98383610ed8565b67ffffffffffffffff8111156110d2576110d1610ee2565b5b6110dc8254610c59565b6110e7828285611026565b5f601f831160018114611114575f8415611102578287013590505b61110c8582611094565b865550611173565b601f19841661112286610f0f565b5f5b8281101561114957848901358255600182019150602085019450602081019050611124565b868310156111665784890135611162601f891682611078565b8355505b6001600288020188555050505b50505050505050565b7f756e617574686f72697a656420616363657373000000000000000000000000005f82015250565b5f6111b0601383610bb4565b91506111bb8261117c565b602082019050919050565b5f6020820190508181035f8301526111dd816111a4565b9050919050565b5f81905092915050565b50565b5f6111fc5f836111e4565b9150611207826111ee565b5f82019050919050565b5f61121b826111f1565b9150819050919050565b7f66616c6c6f20656e20656c207061676f000000000000000000000000000000005f82015250565b5f611259601083610bb4565b915061126482611225565b602082019050919050565b5f6020820190508181035f8301526112868161124d565b9050919050565b5f61129782610a11565b91506112a283610a11565b92508282039050818111156112ba576112b9610c89565b5b92915050565b7f496e737566666369656e742066756e64730000000000000000000000000000005f82015250565b5f6112f4601183610bb4565b91506112ff826112c0565b602082019050919050565b5f6020820190508181035f830152611321816112e8565b9050919050565b5f61133282610a11565b915061133d83610a11565b925082820190508082111561135557611354610c89565b5b92915050565b5f81519050919050565b61136e8261135b565b67ffffffffffffffff81111561138757611386610ee2565b5b6113918254610c59565b61139c828285611026565b5f60209050601f8311600181146113cd575f84156113bb578287015190505b6113c58582611094565b86555061142c565b601f1984166113db86610f0f565b5f5b82811015611402578489015182556001820191506020850194506020810190506113dd565b8683101561141f578489015161141b601f891682611078565b8355505b6001600288020188555050505b50505050505056fea264697066735822122075dbdd7f26ff43cd9df89d5cbd76088d977d090d419be991241c4ab31dece0d664736f6c634300081f0033",
					"opcodes": "PUSH1 0x80 PUSH1 0x40 MSTORE PUSH2 0x2711 PUSH0 SSTORE PUSH0 PUSH1 0x5 SSTORE CALLVALUE DUP1 ISZERO PUSH1 0x17 JUMPI PUSH0 PUSH0 REVERT JUMPDEST POP PUSH2 0x146A DUP1 PUSH2 0x25 PUSH0 CODECOPY PUSH0 RETURN INVALID PUSH1 0x80 PUSH1 0x40 MSTORE PUSH1 0x4 CALLDATASIZE LT PUSH2 0x3E JUMPI PUSH0 CALLDATALOAD PUSH1 0xE0 SHR DUP1 PUSH4 0xA0EAC29 EQ PUSH2 0x42 JUMPI DUP1 PUSH4 0x50FAC4F1 EQ PUSH2 0x5E JUMPI DUP1 PUSH4 0xB90F1AAA EQ PUSH2 0x7A JUMPI DUP1 PUSH4 0xC57981B5 EQ PUSH2 0xAA JUMPI JUMPDEST PUSH0 PUSH0 REVERT JUMPDEST PUSH2 0x5C PUSH1 0x4 DUP1 CALLDATASIZE SUB DUP2 ADD SWAP1 PUSH2 0x57 SWAP2 SWAP1 PUSH2 0xAA5 JUMP JUMPDEST PUSH2 0xD4 JUMP JUMPDEST STOP JUMPDEST PUSH2 0x78 PUSH1 0x4 DUP1 CALLDATASIZE SUB DUP2 ADD SWAP1 PUSH2 0x73 SWAP2 SWAP1 PUSH2 0xB16 JUMP JUMPDEST PUSH2 0x33C JUMP JUMPDEST STOP JUMPDEST PUSH2 0x94 PUSH1 0x4 DUP1 CALLDATASIZE SUB DUP2 ADD SWAP1 PUSH2 0x8F SWAP2 SWAP1 PUSH2 0xB41 JUMP JUMPDEST PUSH2 0x608 JUMP JUMPDEST PUSH1 0x40 MLOAD PUSH2 0xA1 SWAP2 SWAP1 PUSH2 0xB9B JUMP JUMPDEST PUSH1 0x40 MLOAD DUP1 SWAP2 SUB SWAP1 RETURN JUMPDEST CALLVALUE DUP1 ISZERO PUSH2 0xB5 JUMPI PUSH0 PUSH0 REVERT JUMPDEST POP PUSH2 0xBE PUSH2 0x8AA JUMP JUMPDEST PUSH1 0x40 MLOAD PUSH2 0xCB SWAP2 SWAP1 PUSH2 0xB9B JUMP JUMPDEST PUSH1 0x40 MLOAD DUP1 SWAP2 SUB SWAP1 RETURN JUMPDEST CALLER PUSH20 0xFFFFFFFFFFFFFFFFFFFFFFFFFFFFFFFFFFFFFFFF AND PUSH1 0x3 PUSH0 DUP7 DUP2 MSTORE PUSH1 0x20 ADD SWAP1 DUP2 MSTORE PUSH1 0x20 ADD PUSH0 KECCAK256 PUSH0 SWAP1 SLOAD SWAP1 PUSH2 0x100 EXP SWAP1 DIV PUSH20 0xFFFFFFFFFFFFFFFFFFFFFFFFFFFFFFFFFFFFFFFF AND PUSH20 0xFFFFFFFFFFFFFFFFFFFFFFFFFFFFFFFFFFFFFFFF AND EQ DUP1 PUSH2 0x199 JUMPI POP CALLER PUSH20 0xFFFFFFFFFFFFFFFFFFFFFFFFFFFFFFFFFFFFFFFF AND PUSH1 0x2 PUSH0 DUP7 DUP2 MSTORE PUSH1 0x20 ADD SWAP1 DUP2 MSTORE PUSH1 0x20 ADD PUSH0 KECCAK256 PUSH0 SWAP1 SLOAD SWAP1 PUSH2 0x100 EXP SWAP1 DIV PUSH20 0xFFFFFFFFFFFFFFFFFFFFFFFFFFFFFFFFFFFFFFFF AND PUSH20 0xFFFFFFFFFFFFFFFFFFFFFFFFFFFFFFFFFFFFFFFF AND EQ JUMPDEST PUSH2 0x1D8 JUMPI PUSH1 0x40 MLOAD PUSH32 0x8C379A000000000000000000000000000000000000000000000000000000000 DUP2 MSTORE PUSH1 0x4 ADD PUSH2 0x1CF SWAP1 PUSH2 0xC0E JUMP JUMPDEST PUSH1 0x40 MLOAD DUP1 SWAP2 SUB SWAP1 REVERT JUMPDEST PUSH0 PUSH1 0x4 PUSH0 DUP7 DUP2 MSTORE PUSH1 0x20 ADD SWAP1 DUP2 MSTORE PUSH1 0x20 ADD PUSH0 KECCAK256 PUSH0 ADD DUP1 SLOAD PUSH2 0x1F7 SWAP1 PUSH2 0xC59 JUMP JUMPDEST SWAP1 POP EQ PUSH2 0x239 JUMPI PUSH1 0x40 MLOAD PUSH32 0x8C379A000000000000000000000000000000000000000000000000000000000 DUP2 MSTORE PUSH1 0x4 ADD PUSH2 0x230 SWAP1 PUSH2 0xC0E JUMP JUMPDEST PUSH1 0x40 MLOAD DUP1 SWAP2 SUB SWAP1 REVERT JUMPDEST PUSH1 0x4 PUSH0 DUP6 DUP2 MSTORE PUSH1 0x20 ADD SWAP1 DUP2 MSTORE PUSH1 0x20 ADD PUSH0 KECCAK256 PUSH1 0x1 ADD PUSH0 ADD DUP1 SLOAD SWAP1 POP PUSH1 0x2 PUSH2 0x25F SWAP2 SWAP1 PUSH2 0xDE5 JUMP JUMPDEST DUP2 PUSH2 0x26A SWAP2 SWAP1 PUSH2 0xE2F JUMP JUMPDEST CALLVALUE LT ISZERO PUSH2 0x2AC JUMPI PUSH1 0x40 MLOAD PUSH32 0x8C379A000000000000000000000000000000000000000000000000000000000 DUP2 MSTORE PUSH1 0x4 ADD PUSH2 0x2A3 SWAP1 PUSH2 0xEBA JUMP JUMPDEST PUSH1 0x40 MLOAD DUP1 SWAP2 SUB SWAP1 REVERT JUMPDEST PUSH1 0x4 PUSH0 DUP6 DUP2 MSTORE PUSH1 0x20 ADD SWAP1 DUP2 MSTORE PUSH1 0x20 ADD PUSH0 KECCAK256 PUSH1 0x1 ADD PUSH0 ADD DUP4 DUP4 SWAP1 SWAP2 DUP1 PUSH1 0x1 DUP2 SLOAD ADD DUP1 DUP3 SSTORE DUP1 SWAP2 POP POP PUSH1 0x1 SWAP1 SUB SWAP1 PUSH0 MSTORE PUSH1 0x20 PUSH0 KECCAK256 ADD PUSH0 SWAP1 SWAP2 SWAP3 SWAP1 SWAP2 SWAP3 SWAP1 SWAP2 SWAP3 SWAP1 SWAP2 SWAP3 POP SWAP2 DUP3 PUSH2 0x2FA SWAP3 SWAP2 SWAP1 PUSH2 0x10AF JUMP JUMPDEST POP PUSH1 0x4 PUSH0 DUP6 DUP2 MSTORE PUSH1 0x20 ADD SWAP1 DUP2 MSTORE PUSH1 0x20 ADD PUSH0 KECCAK256 PUSH1 0x1 ADD PUSH1 0x1 ADD DUP2 SWAP1 DUP1 PUSH1 0x1 DUP2 SLOAD ADD DUP1 DUP3 SSTORE DUP1 SWAP2 POP POP PUSH1 0x1 SWAP1 SUB SWAP1 PUSH0 MSTORE PUSH1 0x20 PUSH0 KECCAK256 ADD PUSH0 SWAP1 SWAP2 SWAP1 SWAP2 SWAP1 SWAP2 POP SSTORE POP POP POP POP JUMP JUMPDEST PUSH0 PUSH20 0xFFFFFFFFFFFFFFFFFFFFFFFFFFFFFFFFFFFFFFFF AND PUSH1 0x2 PUSH0 DUP4 DUP2 MSTORE PUSH1 0x20 ADD SWAP1 DUP2 MSTORE PUSH1 0x20 ADD PUSH0 KECCAK256 PUSH0 SWAP1 SLOAD SWAP1 PUSH2 0x100 EXP SWAP1 DIV PUSH20 0xFFFFFFFFFFFFFFFFFFFFFFFFFFFFFFFFFFFFFFFF AND PUSH20 0xFFFFFFFFFFFFFFFFFFFFFFFFFFFFFFFFFFFFFFFF AND EQ ISZERO DUP1 ISZERO PUSH2 0x403 JUMPI POP CALLER PUSH20 0xFFFFFFFFFFFFFFFFFFFFFFFFFFFFFFFFFFFFFFFF AND PUSH1 0x2 PUSH0 DUP4 DUP2 MSTORE PUSH1 0x20 ADD SWAP1 DUP2 MSTORE PUSH1 0x20 ADD PUSH0 KECCAK256 PUSH0 SWAP1 SLOAD SWAP1 PUSH2 0x100 EXP SWAP1 DIV PUSH20 0xFFFFFFFFFFFFFFFFFFFFFFFFFFFFFFFFFFFFFFFF AND PUSH20 0xFFFFFFFFFFFFFFFFFFFFFFFFFFFFFFFFFFFFFFFF AND EQ JUMPDEST PUSH2 0x442 JUMPI PUSH1 0x40 MLOAD PUSH32 0x8C379A000000000000000000000000000000000000000000000000000000000 DUP2 MSTORE PUSH1 0x4 ADD PUSH2 0x439 SWAP1 PUSH2 0x11C6 JUMP JUMPDEST PUSH1 0x40 MLOAD DUP1 SWAP2 SUB SWAP1 REVERT JUMPDEST PUSH0 CALLER PUSH20 0xFFFFFFFFFFFFFFFFFFFFFFFFFFFFFFFFFFFFFFFF AND PUSH2 0x3E8 PUSH1 0x40 MLOAD PUSH2 0x469 SWAP1 PUSH2 0x1211 JUMP JUMPDEST PUSH0 PUSH1 0x40 MLOAD DUP1 DUP4 SUB DUP2 DUP6 DUP8 GAS CALL SWAP3 POP POP POP RETURNDATASIZE DUP1 PUSH0 DUP2 EQ PUSH2 0x4A3 JUMPI PUSH1 0x40 MLOAD SWAP2 POP PUSH1 0x1F NOT PUSH1 0x3F RETURNDATASIZE ADD AND DUP3 ADD PUSH1 0x40 MSTORE RETURNDATASIZE DUP3 MSTORE RETURNDATASIZE PUSH0 PUSH1 0x20 DUP5 ADD RETURNDATACOPY PUSH2 0x4A8 JUMP JUMPDEST PUSH1 0x60 SWAP2 POP JUMPDEST POP POP SWAP1 POP DUP1 PUSH2 0x4EC JUMPI PUSH1 0x40 MLOAD PUSH32 0x8C379A000000000000000000000000000000000000000000000000000000000 DUP2 MSTORE PUSH1 0x4 ADD PUSH2 0x4E3 SWAP1 PUSH2 0x126F JUMP JUMPDEST PUSH1 0x40 MLOAD DUP1 SWAP2 SUB SWAP1 REVERT JUMPDEST PUSH1 0x1 PUSH1 0x5 PUSH0 DUP3 DUP3 SLOAD PUSH2 0x4FE SWAP2 SWAP1 PUSH2 0x128D JUMP JUMPDEST SWAP3 POP POP DUP2 SWAP1 SSTORE POP PUSH1 0x1 DUP1 PUSH0 CALLER PUSH20 0xFFFFFFFFFFFFFFFFFFFFFFFFFFFFFFFFFFFFFFFF AND PUSH20 0xFFFFFFFFFFFFFFFFFFFFFFFFFFFFFFFFFFFFFFFF AND DUP2 MSTORE PUSH1 0x20 ADD SWAP1 DUP2 MSTORE PUSH1 0x20 ADD PUSH0 KECCAK256 PUSH0 DUP3 DUP3 SLOAD PUSH2 0x551 SWAP2 SWAP1 PUSH2 0x128D JUMP JUMPDEST SWAP3 POP POP DUP2 SWAP1 SSTORE POP PUSH1 0x2 PUSH0 DUP4 DUP2 MSTORE PUSH1 0x20 ADD SWAP1 DUP2 MSTORE PUSH1 0x20 ADD PUSH0 KECCAK256 PUSH0 PUSH2 0x100 EXP DUP2 SLOAD SWAP1 PUSH20 0xFFFFFFFFFFFFFFFFFFFFFFFFFFFFFFFFFFFFFFFF MUL NOT AND SWAP1 SSTORE PUSH1 0x3 PUSH0 DUP4 DUP2 MSTORE PUSH1 0x20 ADD SWAP1 DUP2 MSTORE PUSH1 0x20 ADD PUSH0 KECCAK256 PUSH0 PUSH2 0x100 EXP DUP2 SLOAD SWAP1 PUSH20 0xFFFFFFFFFFFFFFFFFFFFFFFFFFFFFFFFFFFFFFFF MUL NOT AND SWAP1 SSTORE PUSH1 0x4 PUSH0 DUP4 DUP2 MSTORE PUSH1 0x20 ADD SWAP1 DUP2 MSTORE PUSH1 0x20 ADD PUSH0 KECCAK256 PUSH0 PUSH0 DUP3 ADD PUSH0 PUSH2 0x5DE SWAP2 SWAP1 PUSH2 0x8B0 JUMP JUMPDEST PUSH1 0x1 DUP3 ADD PUSH0 PUSH0 DUP3 ADD PUSH0 PUSH2 0x5F1 SWAP2 SWAP1 PUSH2 0x8ED JUMP JUMPDEST PUSH1 0x1 DUP3 ADD PUSH0 PUSH2 0x600 SWAP2 SWAP1 PUSH2 0x90B JUMP JUMPDEST POP POP POP POP POP POP JUMP JUMPDEST PUSH0 PUSH2 0x3E8 CALLVALUE LT ISZERO PUSH2 0x64E JUMPI PUSH1 0x40 MLOAD PUSH32 0x8C379A000000000000000000000000000000000000000000000000000000000 DUP2 MSTORE PUSH1 0x4 ADD PUSH2 0x645 SWAP1 PUSH2 0x130A JUMP JUMPDEST PUSH1 0x40 MLOAD DUP1 SWAP2 SUB SWAP1 REVERT JUMPDEST PUSH1 0x1 DUP1 PUSH0 CALLER PUSH20 0xFFFFFFFFFFFFFFFFFFFFFFFFFFFFFFFFFFFFFFFF AND PUSH20 0xFFFFFFFFFFFFFFFFFFFFFFFFFFFFFFFFFFFFFFFF AND DUP2 MSTORE PUSH1 0x20 ADD SWAP1 DUP2 MSTORE PUSH1 0x20 ADD PUSH0 KECCAK256 PUSH0 DUP3 DUP3 SLOAD PUSH2 0x69A SWAP2 SWAP1 PUSH2 0x1328 JUMP JUMPDEST SWAP3 POP POP DUP2 SWAP1 SSTORE POP CALLER PUSH1 0x2 PUSH0 PUSH0 SLOAD DUP2 MSTORE PUSH1 0x20 ADD SWAP1 DUP2 MSTORE PUSH1 0x20 ADD PUSH0 KECCAK256 PUSH0 PUSH2 0x100 EXP DUP2 SLOAD DUP2 PUSH20 0xFFFFFFFFFFFFFFFFFFFFFFFFFFFFFFFFFFFFFFFF MUL NOT AND SWAP1 DUP4 PUSH20 0xFFFFFFFFFFFFFFFFFFFFFFFFFFFFFFFFFFFFFFFF AND MUL OR SWAP1 SSTORE POP PUSH0 PUSH1 0x40 MLOAD DUP1 PUSH1 0x40 ADD PUSH1 0x40 MSTORE DUP1 DUP6 DUP6 DUP1 DUP1 PUSH1 0x1F ADD PUSH1 0x20 DUP1 SWAP2 DIV MUL PUSH1 0x20 ADD PUSH1 0x40 MLOAD SWAP1 DUP2 ADD PUSH1 0x40 MSTORE DUP1 SWAP4 SWAP3 SWAP2 SWAP1 DUP2 DUP2 MSTORE PUSH1 0x20 ADD DUP4 DUP4 DUP1 DUP3 DUP5 CALLDATACOPY PUSH0 DUP2 DUP5 ADD MSTORE PUSH1 0x1F NOT PUSH1 0x1F DUP3 ADD AND SWAP1 POP DUP1 DUP4 ADD SWAP3 POP POP POP POP POP POP POP DUP2 MSTORE PUSH1 0x20 ADD PUSH1 0x40 MLOAD DUP1 PUSH1 0x40 ADD PUSH1 0x40 MSTORE DUP1 PUSH0 PUSH8 0xFFFFFFFFFFFFFFFF DUP2 GT ISZERO PUSH2 0x76B JUMPI PUSH2 0x76A PUSH2 0xEE2 JUMP JUMPDEST JUMPDEST PUSH1 0x40 MLOAD SWAP1 DUP1 DUP3 MSTORE DUP1 PUSH1 0x20 MUL PUSH1 0x20 ADD DUP3 ADD PUSH1 0x40 MSTORE DUP1 ISZERO PUSH2 0x79E JUMPI DUP2 PUSH1 0x20 ADD JUMPDEST PUSH1 0x60 DUP2 MSTORE PUSH1 0x20 ADD SWAP1 PUSH1 0x1 SWAP1 SUB SWAP1 DUP2 PUSH2 0x789 JUMPI SWAP1 POP JUMPDEST POP DUP2 MSTORE PUSH1 0x20 ADD PUSH0 PUSH8 0xFFFFFFFFFFFFFFFF DUP2 GT ISZERO PUSH2 0x7BE JUMPI PUSH2 0x7BD PUSH2 0xEE2 JUMP JUMPDEST JUMPDEST PUSH1 0x40 MLOAD SWAP1 DUP1 DUP3 MSTORE DUP1 PUSH1 0x20 MUL PUSH1 0x20 ADD DUP3 ADD PUSH1 0x40 MSTORE DUP1 ISZERO PUSH2 0x7EC JUMPI DUP2 PUSH1 0x20 ADD PUSH1 0x20 DUP3 MUL DUP1 CALLDATASIZE DUP4 CALLDATACOPY DUP1 DUP3 ADD SWAP2 POP POP SWAP1 POP JUMPDEST POP DUP2 MSTORE POP DUP2 MSTORE POP SWAP1 POP PUSH1 0x1 PUSH1 0x5 PUSH0 DUP3 DUP3 SLOAD PUSH2 0x807 SWAP2 SWAP1 PUSH2 0x1328 JUMP JUMPDEST SWAP3 POP POP DUP2 SWAP1 SSTORE POP DUP1 PUSH1 0x4 PUSH0 PUSH0 SLOAD DUP2 MSTORE PUSH1 0x20 ADD SWAP1 DUP2 MSTORE PUSH1 0x20 ADD PUSH0 KECCAK256 PUSH0 DUP3 ADD MLOAD DUP2 PUSH0 ADD SWAP1 DUP2 PUSH2 0x834 SWAP2 SWAP1 PUSH2 0x1365 JUMP JUMPDEST POP PUSH1 0x20 DUP3 ADD MLOAD DUP2 PUSH1 0x1 ADD PUSH0 DUP3 ADD MLOAD DUP2 PUSH0 ADD SWAP1 DUP1 MLOAD SWAP1 PUSH1 0x20 ADD SWAP1 PUSH2 0x858 SWAP3 SWAP2 SWAP1 PUSH2 0x929 JUMP JUMPDEST POP PUSH1 0x20 DUP3 ADD MLOAD DUP2 PUSH1 0x1 ADD SWAP1 DUP1 MLOAD SWAP1 PUSH1 0x20 ADD SWAP1 PUSH2 0x875 SWAP3 SWAP2 SWAP1 PUSH2 0x980 JUMP JUMPDEST POP POP POP SWAP1 POP POP PUSH1 0x1 PUSH0 PUSH0 DUP3 DUP3 SLOAD PUSH2 0x88C SWAP2 SWAP1 PUSH2 0x1328 JUMP JUMPDEST SWAP3 POP POP DUP2 SWAP1 SSTORE POP PUSH1 0x1 PUSH0 SLOAD PUSH2 0x8A1 SWAP2 SWAP1 PUSH2 0x128D JUMP JUMPDEST SWAP2 POP POP SWAP3 SWAP2 POP POP JUMP JUMPDEST PUSH2 0x3E8 DUP2 JUMP JUMPDEST POP DUP1 SLOAD PUSH2 0x8BC SWAP1 PUSH2 0xC59 JUMP JUMPDEST PUSH0 DUP3 SSTORE DUP1 PUSH1 0x1F LT PUSH2 0x8CD JUMPI POP PUSH2 0x8EA JUMP JUMPDEST PUSH1 0x1F ADD PUSH1 0x20 SWAP1 DIV SWAP1 PUSH0 MSTORE PUSH1 0x20 PUSH0 KECCAK256 SWAP1 DUP2 ADD SWAP1 PUSH2 0x8E9 SWAP2 SWAP1 PUSH2 0x9CB JUMP JUMPDEST JUMPDEST POP JUMP JUMPDEST POP DUP1 SLOAD PUSH0 DUP3 SSTORE SWAP1 PUSH0 MSTORE PUSH1 0x20 PUSH0 KECCAK256 SWAP1 DUP2 ADD SWAP1 PUSH2 0x908 SWAP2 SWAP1 PUSH2 0x9E6 JUMP JUMPDEST POP JUMP JUMPDEST POP DUP1 SLOAD PUSH0 DUP3 SSTORE SWAP1 PUSH0 MSTORE PUSH1 0x20 PUSH0 KECCAK256 SWAP1 DUP2 ADD SWAP1 PUSH2 0x926 SWAP2 SWAP1 PUSH2 0x9CB JUMP JUMPDEST POP JUMP JUMPDEST DUP3 DUP1 SLOAD DUP3 DUP3 SSTORE SWAP1 PUSH0 MSTORE PUSH1 0x20 PUSH0 KECCAK256 SWAP1 DUP2 ADD SWAP3 DUP3 ISZERO PUSH2 0x96F JUMPI SWAP2 PUSH1 0x20 MUL DUP3 ADD JUMPDEST DUP3 DUP2 GT ISZERO PUSH2 0x96E JUMPI DUP3 MLOAD DUP3 SWAP1 DUP2 PUSH2 0x95E SWAP2 SWAP1 PUSH2 0x1365 JUMP JUMPDEST POP SWAP2 PUSH1 0x20 ADD SWAP2 SWAP1 PUSH1 0x1 ADD SWAP1 PUSH2 0x947 JUMP JUMPDEST JUMPDEST POP SWAP1 POP PUSH2 0x97C SWAP2 SWAP1 PUSH2 0x9E6 JUMP JUMPDEST POP SWAP1 JUMP JUMPDEST DUP3 DUP1 SLOAD DUP3 DUP3 SSTORE SWAP1 PUSH0 MSTORE PUSH1 0x20 PUSH0 KECCAK256 SWAP1 DUP2 ADD SWAP3 DUP3 ISZERO PUSH2 0x9BA JUMPI SWAP2 PUSH1 0x20 MUL DUP3 ADD JUMPDEST DUP3 DUP2 GT ISZERO PUSH2 0x9B9 JUMPI DUP3 MLOAD DUP3 SSTORE SWAP2 PUSH1 0x20 ADD SWAP2 SWAP1 PUSH1 0x1 ADD SWAP1 PUSH2 0x99E JUMP JUMPDEST JUMPDEST POP SWAP1 POP PUSH2 0x9C7 SWAP2 SWAP1 PUSH2 0x9CB JUMP JUMPDEST POP SWAP1 JUMP JUMPDEST JUMPDEST DUP1 DUP3 GT ISZERO PUSH2 0x9E2 JUMPI PUSH0 DUP2 PUSH0 SWAP1 SSTORE POP PUSH1 0x1 ADD PUSH2 0x9CC JUMP JUMPDEST POP SWAP1 JUMP JUMPDEST JUMPDEST DUP1 DUP3 GT ISZERO PUSH2 0xA05 JUMPI PUSH0 DUP2 DUP2 PUSH2 0x9FC SWAP2 SWAP1 PUSH2 0x8B0 JUMP JUMPDEST POP PUSH1 0x1 ADD PUSH2 0x9E7 JUMP JUMPDEST POP SWAP1 JUMP JUMPDEST PUSH0 PUSH0 REVERT JUMPDEST PUSH0 PUSH0 REVERT JUMPDEST PUSH0 DUP2 SWAP1 POP SWAP2 SWAP1 POP JUMP JUMPDEST PUSH2 0xA23 DUP2 PUSH2 0xA11 JUMP JUMPDEST DUP2 EQ PUSH2 0xA2D JUMPI PUSH0 PUSH0 REVERT JUMPDEST POP JUMP JUMPDEST PUSH0 DUP2 CALLDATALOAD SWAP1 POP PUSH2 0xA3E DUP2 PUSH2 0xA1A JUMP JUMPDEST SWAP3 SWAP2 POP POP JUMP JUMPDEST PUSH0 PUSH0 REVERT JUMPDEST PUSH0 PUSH0 REVERT JUMPDEST PUSH0 PUSH0 REVERT JUMPDEST PUSH0 PUSH0 DUP4 PUSH1 0x1F DUP5 ADD SLT PUSH2 0xA65 JUMPI PUSH2 0xA64 PUSH2 0xA44 JUMP JUMPDEST JUMPDEST DUP3 CALLDATALOAD SWAP1 POP PUSH8 0xFFFFFFFFFFFFFFFF DUP2 GT ISZERO PUSH2 0xA82 JUMPI PUSH2 0xA81 PUSH2 0xA48 JUMP JUMPDEST JUMPDEST PUSH1 0x20 DUP4 ADD SWAP2 POP DUP4 PUSH1 0x1 DUP3 MUL DUP4 ADD GT ISZERO PUSH2 0xA9E JUMPI PUSH2 0xA9D PUSH2 0xA4C JUMP JUMPDEST JUMPDEST SWAP3 POP SWAP3 SWAP1 POP JUMP JUMPDEST PUSH0 PUSH0 PUSH0 PUSH0 PUSH1 0x60 DUP6 DUP8 SUB SLT ISZERO PUSH2 0xABD JUMPI PUSH2 0xABC PUSH2 0xA09 JUMP JUMPDEST JUMPDEST PUSH0 PUSH2 0xACA DUP8 DUP3 DUP9 ADD PUSH2 0xA30 JUMP JUMPDEST SWAP5 POP POP PUSH1 0x20 DUP6 ADD CALLDATALOAD PUSH8 0xFFFFFFFFFFFFFFFF DUP2 GT ISZERO PUSH2 0xAEB JUMPI PUSH2 0xAEA PUSH2 0xA0D JUMP JUMPDEST JUMPDEST PUSH2 0xAF7 DUP8 DUP3 DUP9 ADD PUSH2 0xA50 JUMP JUMPDEST SWAP4 POP SWAP4 POP POP PUSH1 0x40 PUSH2 0xB0A DUP8 DUP3 DUP9 ADD PUSH2 0xA30 JUMP JUMPDEST SWAP2 POP POP SWAP3 SWAP6 SWAP2 SWAP5 POP SWAP3 POP JUMP JUMPDEST PUSH0 PUSH1 0x20 DUP3 DUP5 SUB SLT ISZERO PUSH2 0xB2B JUMPI PUSH2 0xB2A PUSH2 0xA09 JUMP JUMPDEST JUMPDEST PUSH0 PUSH2 0xB38 DUP5 DUP3 DUP6 ADD PUSH2 0xA30 JUMP JUMPDEST SWAP2 POP POP SWAP3 SWAP2 POP POP JUMP JUMPDEST PUSH0 PUSH0 PUSH1 0x20 DUP4 DUP6 SUB SLT ISZERO PUSH2 0xB57 JUMPI PUSH2 0xB56 PUSH2 0xA09 JUMP JUMPDEST JUMPDEST PUSH0 DUP4 ADD CALLDATALOAD PUSH8 0xFFFFFFFFFFFFFFFF DUP2 GT ISZERO PUSH2 0xB74 JUMPI PUSH2 0xB73 PUSH2 0xA0D JUMP JUMPDEST JUMPDEST PUSH2 0xB80 DUP6 DUP3 DUP7 ADD PUSH2 0xA50 JUMP JUMPDEST SWAP3 POP SWAP3 POP POP SWAP3 POP SWAP3 SWAP1 POP JUMP JUMPDEST PUSH2 0xB95 DUP2 PUSH2 0xA11 JUMP JUMPDEST DUP3 MSTORE POP POP JUMP JUMPDEST PUSH0 PUSH1 0x20 DUP3 ADD SWAP1 POP PUSH2 0xBAE PUSH0 DUP4 ADD DUP5 PUSH2 0xB8C JUMP JUMPDEST SWAP3 SWAP2 POP POP JUMP JUMPDEST PUSH0 DUP3 DUP3 MSTORE PUSH1 0x20 DUP3 ADD SWAP1 POP SWAP3 SWAP2 POP POP JUMP JUMPDEST PUSH32 0x556E617574686F72697A65642061636365737300000000000000000000000000 PUSH0 DUP3 ADD MSTORE POP JUMP JUMPDEST PUSH0 PUSH2 0xBF8 PUSH1 0x13 DUP4 PUSH2 0xBB4 JUMP JUMPDEST SWAP2 POP PUSH2 0xC03 DUP3 PUSH2 0xBC4 JUMP JUMPDEST PUSH1 0x20 DUP3 ADD SWAP1 POP SWAP2 SWAP1 POP JUMP JUMPDEST PUSH0 PUSH1 0x20 DUP3 ADD SWAP1 POP DUP2 DUP2 SUB PUSH0 DUP4 ADD MSTORE PUSH2 0xC25 DUP2 PUSH2 0xBEC JUMP JUMPDEST SWAP1 POP SWAP2 SWAP1 POP JUMP JUMPDEST PUSH32 0x4E487B7100000000000000000000000000000000000000000000000000000000 PUSH0 MSTORE PUSH1 0x22 PUSH1 0x4 MSTORE PUSH1 0x24 PUSH0 REVERT JUMPDEST PUSH0 PUSH1 0x2 DUP3 DIV SWAP1 POP PUSH1 0x1 DUP3 AND DUP1 PUSH2 0xC70 JUMPI PUSH1 0x7F DUP3 AND SWAP2 POP JUMPDEST PUSH1 0x20 DUP3 LT DUP2 SUB PUSH2 0xC83 JUMPI PUSH2 0xC82 PUSH2 0xC2C JUMP JUMPDEST JUMPDEST POP SWAP2 SWAP1 POP JUMP JUMPDEST PUSH32 0x4E487B7100000000000000000000000000000000000000000000000000000000 PUSH0 MSTORE PUSH1 0x11 PUSH1 0x4 MSTORE PUSH1 0x24 PUSH0 REVERT JUMPDEST PUSH0 DUP2 PUSH1 0x1 SHR SWAP1 POP SWAP2 SWAP1 POP JUMP JUMPDEST PUSH0 PUSH0 DUP3 SWAP2 POP DUP4 SWAP1 POP JUMPDEST PUSH1 0x1 DUP6 GT ISZERO PUSH2 0xD0B JUMPI DUP1 DUP7 DIV DUP2 GT ISZERO PUSH2 0xCE7 JUMPI PUSH2 0xCE6 PUSH2 0xC89 JUMP JUMPDEST JUMPDEST PUSH1 0x1 DUP6 AND ISZERO PUSH2 0xCF6 JUMPI DUP1 DUP3 MUL SWAP2 POP JUMPDEST DUP1 DUP2 MUL SWAP1 POP PUSH2 0xD04 DUP6 PUSH2 0xCB6 JUMP JUMPDEST SWAP5 POP PUSH2 0xCCB JUMP JUMPDEST SWAP5 POP SWAP5 SWAP3 POP POP POP JUMP JUMPDEST PUSH0 DUP3 PUSH2 0xD23 JUMPI PUSH1 0x1 SWAP1 POP PUSH2 0xDDE JUMP JUMPDEST DUP2 PUSH2 0xD30 JUMPI PUSH0 SWAP1 POP PUSH2 0xDDE JUMP JUMPDEST DUP2 PUSH1 0x1 DUP2 EQ PUSH2 0xD46 JUMPI PUSH1 0x2 DUP2 EQ PUSH2 0xD50 JUMPI PUSH2 0xD7F JUMP JUMPDEST PUSH1 0x1 SWAP2 POP POP PUSH2 0xDDE JUMP JUMPDEST PUSH1 0xFF DUP5 GT ISZERO PUSH2 0xD62 JUMPI PUSH2 0xD61 PUSH2 0xC89 JUMP JUMPDEST JUMPDEST DUP4 PUSH1 0x2 EXP SWAP2 POP DUP5 DUP3 GT ISZERO PUSH2 0xD79 JUMPI PUSH2 0xD78 PUSH2 0xC89 JUMP JUMPDEST JUMPDEST POP PUSH2 0xDDE JUMP JUMPDEST POP PUSH1 0x20 DUP4 LT PUSH2 0x133 DUP4 LT AND PUSH1 0x4E DUP5 LT PUSH1 0xB DUP5 LT AND OR ISZERO PUSH2 0xDB4 JUMPI DUP3 DUP3 EXP SWAP1 POP DUP4 DUP2 GT ISZERO PUSH2 0xDAF JUMPI PUSH2 0xDAE PUSH2 0xC89 JUMP JUMPDEST JUMPDEST PUSH2 0xDDE JUMP JUMPDEST PUSH2 0xDC1 DUP5 DUP5 DUP5 PUSH1 0x1 PUSH2 0xCC2 JUMP JUMPDEST SWAP3 POP SWAP1 POP DUP2 DUP5 DIV DUP2 GT ISZERO PUSH2 0xDD8 JUMPI PUSH2 0xDD7 PUSH2 0xC89 JUMP JUMPDEST JUMPDEST DUP2 DUP2 MUL SWAP1 POP JUMPDEST SWAP4 SWAP3 POP POP POP JUMP JUMPDEST PUSH0 PUSH2 0xDEF DUP3 PUSH2 0xA11 JUMP JUMPDEST SWAP2 POP PUSH2 0xDFA DUP4 PUSH2 0xA11 JUMP JUMPDEST SWAP3 POP PUSH2 0xE27 PUSH32 0xFFFFFFFFFFFFFFFFFFFFFFFFFFFFFFFFFFFFFFFFFFFFFFFFFFFFFFFFFFFFFFFF DUP5 DUP5 PUSH2 0xD14 JUMP JUMPDEST SWAP1 POP SWAP3 SWAP2 POP POP JUMP JUMPDEST PUSH0 PUSH2 0xE39 DUP3 PUSH2 0xA11 JUMP JUMPDEST SWAP2 POP PUSH2 0xE44 DUP4 PUSH2 0xA11 JUMP JUMPDEST SWAP3 POP DUP3 DUP3 MUL PUSH2 0xE52 DUP2 PUSH2 0xA11 JUMP JUMPDEST SWAP2 POP DUP3 DUP3 DIV DUP5 EQ DUP4 ISZERO OR PUSH2 0xE69 JUMPI PUSH2 0xE68 PUSH2 0xC89 JUMP JUMPDEST JUMPDEST POP SWAP3 SWAP2 POP POP JUMP JUMPDEST PUSH32 0x4E6F7420656E6F756768206D6F6E657900000000000000000000000000000000 PUSH0 DUP3 ADD MSTORE POP JUMP JUMPDEST PUSH0 PUSH2 0xEA4 PUSH1 0x10 DUP4 PUSH2 0xBB4 JUMP JUMPDEST SWAP2 POP PUSH2 0xEAF DUP3 PUSH2 0xE70 JUMP JUMPDEST PUSH1 0x20 DUP3 ADD SWAP1 POP SWAP2 SWAP1 POP JUMP JUMPDEST PUSH0 PUSH1 0x20 DUP3 ADD SWAP1 POP DUP2 DUP2 SUB PUSH0 DUP4 ADD MSTORE PUSH2 0xED1 DUP2 PUSH2 0xE98 JUMP JUMPDEST SWAP1 POP SWAP2 SWAP1 POP JUMP JUMPDEST PUSH0 DUP3 SWAP1 POP SWAP3 SWAP2 POP POP JUMP JUMPDEST PUSH32 0x4E487B7100000000000000000000000000000000000000000000000000000000 PUSH0 MSTORE PUSH1 0x41 PUSH1 0x4 MSTORE PUSH1 0x24 PUSH0 REVERT JUMPDEST PUSH0 DUP2 SWAP1 POP DUP2 PUSH0 MSTORE PUSH1 0x20 PUSH0 KECCAK256 SWAP1 POP SWAP2 SWAP1 POP JUMP JUMPDEST PUSH0 PUSH1 0x20 PUSH1 0x1F DUP4 ADD DIV SWAP1 POP SWAP2 SWAP1 POP JUMP JUMPDEST PUSH0 DUP3 DUP3 SHL SWAP1 POP SWAP3 SWAP2 POP POP JUMP JUMPDEST PUSH0 PUSH1 0x8 DUP4 MUL PUSH2 0xF6B PUSH32 0xFFFFFFFFFFFFFFFFFFFFFFFFFFFFFFFFFFFFFFFFFFFFFFFFFFFFFFFFFFFFFFFF DUP3 PUSH2 0xF30 JUMP JUMPDEST PUSH2 0xF75 DUP7 DUP4 PUSH2 0xF30 JUMP JUMPDEST SWAP6 POP DUP1 NOT DUP5 AND SWAP4 POP DUP1 DUP7 AND DUP5 OR SWAP3 POP POP POP SWAP4 SWAP3 POP POP POP JUMP JUMPDEST PUSH0 DUP2 SWAP1 POP SWAP2 SWAP1 POP JUMP JUMPDEST PUSH0 PUSH2 0xFB0 PUSH2 0xFAB PUSH2 0xFA6 DUP5 PUSH2 0xA11 JUMP JUMPDEST PUSH2 0xF8D JUMP JUMPDEST PUSH2 0xA11 JUMP JUMPDEST SWAP1 POP SWAP2 SWAP1 POP JUMP JUMPDEST PUSH0 DUP2 SWAP1 POP SWAP2 SWAP1 POP JUMP JUMPDEST PUSH2 0xFC9 DUP4 PUSH2 0xF96 JUMP JUMPDEST PUSH2 0xFDD PUSH2 0xFD5 DUP3 PUSH2 0xFB7 JUMP JUMPDEST DUP5 DUP5 SLOAD PUSH2 0xF3C JUMP JUMPDEST DUP3 SSTORE POP POP POP POP JUMP JUMPDEST PUSH0 PUSH0 SWAP1 POP SWAP1 JUMP JUMPDEST PUSH2 0xFF4 PUSH2 0xFE5 JUMP JUMPDEST PUSH2 0xFFF DUP2 DUP5 DUP5 PUSH2 0xFC0 JUMP JUMPDEST POP POP POP JUMP JUMPDEST JUMPDEST DUP2 DUP2 LT ISZERO PUSH2 0x1022 JUMPI PUSH2 0x1017 PUSH0 DUP3 PUSH2 0xFEC JUMP JUMPDEST PUSH1 0x1 DUP2 ADD SWAP1 POP PUSH2 0x1005 JUMP JUMPDEST POP POP JUMP JUMPDEST PUSH1 0x1F DUP3 GT ISZERO PUSH2 0x1067 JUMPI PUSH2 0x1038 DUP2 PUSH2 0xF0F JUMP JUMPDEST PUSH2 0x1041 DUP5 PUSH2 0xF21 JUMP JUMPDEST DUP2 ADD PUSH1 0x20 DUP6 LT ISZERO PUSH2 0x1050 JUMPI DUP2 SWAP1 POP JUMPDEST PUSH2 0x1064 PUSH2 0x105C DUP6 PUSH2 0xF21 JUMP JUMPDEST DUP4 ADD DUP3 PUSH2 0x1004 JUMP JUMPDEST POP POP JUMPDEST POP POP POP JUMP JUMPDEST PUSH0 DUP3 DUP3 SHR SWAP1 POP SWAP3 SWAP2 POP POP JUMP JUMPDEST PUSH0 PUSH2 0x1087 PUSH0 NOT DUP5 PUSH1 0x8 MUL PUSH2 0x106C JUMP JUMPDEST NOT DUP1 DUP4 AND SWAP2 POP POP SWAP3 SWAP2 POP POP JUMP JUMPDEST PUSH0 PUSH2 0x109F DUP4 DUP4 PUSH2 0x1078 JUMP JUMPDEST SWAP2 POP DUP3 PUSH1 0x2 MUL DUP3 OR SWAP1 POP SWAP3 SWAP2 POP POP JUMP JUMPDEST PUSH2 0x10B9 DUP4 DUP4 PUSH2 0xED8 JUMP JUMPDEST PUSH8 0xFFFFFFFFFFFFFFFF DUP2 GT ISZERO PUSH2 0x10D2 JUMPI PUSH2 0x10D1 PUSH2 0xEE2 JUMP JUMPDEST JUMPDEST PUSH2 0x10DC DUP3 SLOAD PUSH2 0xC59 JUMP JUMPDEST PUSH2 0x10E7 DUP3 DUP3 DUP6 PUSH2 0x1026 JUMP JUMPDEST PUSH0 PUSH1 0x1F DUP4 GT PUSH1 0x1 DUP2 EQ PUSH2 0x1114 JUMPI PUSH0 DUP5 ISZERO PUSH2 0x1102 JUMPI DUP3 DUP8 ADD CALLDATALOAD SWAP1 POP JUMPDEST PUSH2 0x110C DUP6 DUP3 PUSH2 0x1094 JUMP JUMPDEST DUP7 SSTORE POP PUSH2 0x1173 JUMP JUMPDEST PUSH1 0x1F NOT DUP5 AND PUSH2 0x1122 DUP7 PUSH2 0xF0F JUMP JUMPDEST PUSH0 JUMPDEST DUP3 DUP2 LT ISZERO PUSH2 0x1149 JUMPI DUP5 DUP10 ADD CALLDATALOAD DUP3 SSTORE PUSH1 0x1 DUP3 ADD SWAP2 POP PUSH1 0x20 DUP6 ADD SWAP5 POP PUSH1 0x20 DUP2 ADD SWAP1 POP PUSH2 0x1124 JUMP JUMPDEST DUP7 DUP4 LT ISZERO PUSH2 0x1166 JUMPI DUP5 DUP10 ADD CALLDATALOAD PUSH2 0x1162 PUSH1 0x1F DUP10 AND DUP3 PUSH2 0x1078 JUMP JUMPDEST DUP4 SSTORE POP JUMPDEST PUSH1 0x1 PUSH1 0x2 DUP9 MUL ADD DUP9 SSTORE POP POP POP JUMPDEST POP POP POP POP POP POP POP JUMP JUMPDEST PUSH32 0x756E617574686F72697A65642061636365737300000000000000000000000000 PUSH0 DUP3 ADD MSTORE POP JUMP JUMPDEST PUSH0 PUSH2 0x11B0 PUSH1 0x13 DUP4 PUSH2 0xBB4 JUMP JUMPDEST SWAP2 POP PUSH2 0x11BB DUP3 PUSH2 0x117C JUMP JUMPDEST PUSH1 0x20 DUP3 ADD SWAP1 POP SWAP2 SWAP1 POP JUMP JUMPDEST PUSH0 PUSH1 0x20 DUP3 ADD SWAP1 POP DUP2 DUP2 SUB PUSH0 DUP4 ADD MSTORE PUSH2 0x11DD DUP2 PUSH2 0x11A4 JUMP JUMPDEST SWAP1 POP SWAP2 SWAP1 POP JUMP JUMPDEST PUSH0 DUP2 SWAP1 POP SWAP3 SWAP2 POP POP JUMP JUMPDEST POP JUMP JUMPDEST PUSH0 PUSH2 0x11FC PUSH0 DUP4 PUSH2 0x11E4 JUMP JUMPDEST SWAP2 POP PUSH2 0x1207 DUP3 PUSH2 0x11EE JUMP JUMPDEST PUSH0 DUP3 ADD SWAP1 POP SWAP2 SWAP1 POP JUMP JUMPDEST PUSH0 PUSH2 0x121B DUP3 PUSH2 0x11F1 JUMP JUMPDEST SWAP2 POP DUP2 SWAP1 POP SWAP2 SWAP1 POP JUMP JUMPDEST PUSH32 0x66616C6C6F20656E20656C207061676F00000000000000000000000000000000 PUSH0 DUP3 ADD MSTORE POP JUMP JUMPDEST PUSH0 PUSH2 0x1259 PUSH1 0x10 DUP4 PUSH2 0xBB4 JUMP JUMPDEST SWAP2 POP PUSH2 0x1264 DUP3 PUSH2 0x1225 JUMP JUMPDEST PUSH1 0x20 DUP3 ADD SWAP1 POP SWAP2 SWAP1 POP JUMP JUMPDEST PUSH0 PUSH1 0x20 DUP3 ADD SWAP1 POP DUP2 DUP2 SUB PUSH0 DUP4 ADD MSTORE PUSH2 0x1286 DUP2 PUSH2 0x124D JUMP JUMPDEST SWAP1 POP SWAP2 SWAP1 POP JUMP JUMPDEST PUSH0 PUSH2 0x1297 DUP3 PUSH2 0xA11 JUMP JUMPDEST SWAP2 POP PUSH2 0x12A2 DUP4 PUSH2 0xA11 JUMP JUMPDEST SWAP3 POP DUP3 DUP3 SUB SWAP1 POP DUP2 DUP2 GT ISZERO PUSH2 0x12BA JUMPI PUSH2 0x12B9 PUSH2 0xC89 JUMP JUMPDEST JUMPDEST SWAP3 SWAP2 POP POP JUMP JUMPDEST PUSH32 0x496E737566666369656E742066756E6473000000000000000000000000000000 PUSH0 DUP3 ADD MSTORE POP JUMP JUMPDEST PUSH0 PUSH2 0x12F4 PUSH1 0x11 DUP4 PUSH2 0xBB4 JUMP JUMPDEST SWAP2 POP PUSH2 0x12FF DUP3 PUSH2 0x12C0 JUMP JUMPDEST PUSH1 0x20 DUP3 ADD SWAP1 POP SWAP2 SWAP1 POP JUMP JUMPDEST PUSH0 PUSH1 0x20 DUP3 ADD SWAP1 POP DUP2 DUP2 SUB PUSH0 DUP4 ADD MSTORE PUSH2 0x1321 DUP2 PUSH2 0x12E8 JUMP JUMPDEST SWAP1 POP SWAP2 SWAP1 POP JUMP JUMPDEST PUSH0 PUSH2 0x1332 DUP3 PUSH2 0xA11 JUMP JUMPDEST SWAP2 POP PUSH2 0x133D DUP4 PUSH2 0xA11 JUMP JUMPDEST SWAP3 POP DUP3 DUP3 ADD SWAP1 POP DUP1 DUP3 GT ISZERO PUSH2 0x1355 JUMPI PUSH2 0x1354 PUSH2 0xC89 JUMP JUMPDEST JUMPDEST SWAP3 SWAP2 POP POP JUMP JUMPDEST PUSH0 DUP2 MLOAD SWAP1 POP SWAP2 SWAP1 POP JUMP JUMPDEST PUSH2 0x136E DUP3 PUSH2 0x135B JUMP JUMPDEST PUSH8 0xFFFFFFFFFFFFFFFF DUP2 GT ISZERO PUSH2 0x1387 JUMPI PUSH2 0x1386 PUSH2 0xEE2 JUMP JUMPDEST JUMPDEST PUSH2 0x1391 DUP3 SLOAD PUSH2 0xC59 JUMP JUMPDEST PUSH2 0x139C DUP3 DUP3 DUP6 PUSH2 0x1026 JUMP JUMPDEST PUSH0 PUSH1 0x20 SWAP1 POP PUSH1 0x1F DUP4 GT PUSH1 0x1 DUP2 EQ PUSH2 0x13CD JUMPI PUSH0 DUP5 ISZERO PUSH2 0x13BB JUMPI DUP3 DUP8 ADD MLOAD SWAP1 POP JUMPDEST PUSH2 0x13C5 DUP6 DUP3 PUSH2 0x1094 JUMP JUMPDEST DUP7 SSTORE POP PUSH2 0x142C JUMP JUMPDEST PUSH1 0x1F NOT DUP5 AND PUSH2 0x13DB DUP7 PUSH2 0xF0F JUMP JUMPDEST PUSH0 JUMPDEST DUP3 DUP2 LT ISZERO PUSH2 0x1402 JUMPI DUP5 DUP10 ADD MLOAD DUP3 SSTORE PUSH1 0x1 DUP3 ADD SWAP2 POP PUSH1 0x20 DUP6 ADD SWAP5 POP PUSH1 0x20 DUP2 ADD SWAP1 POP PUSH2 0x13DD JUMP JUMPDEST DUP7 DUP4 LT ISZERO PUSH2 0x141F JUMPI DUP5 DUP10 ADD MLOAD PUSH2 0x141B PUSH1 0x1F DUP10 AND DUP3 PUSH2 0x1078 JUMP JUMPDEST DUP4 SSTORE POP JUMPDEST PUSH1 0x1 PUSH1 0x2 DUP9 MUL ADD DUP9 SSTORE POP POP POP JUMPDEST POP POP POP POP POP POP JUMP INVALID LOG2 PUSH5 0x6970667358 0x22 SLT KECCAK256 PUSH22 0xDBDD7F26FF43CD9DF89D5CBD76088D977D090D419BE9 SWAP2 0x24 SHR BLOBBASEFEE 0xB3 SAR EOFCREATE 0xE0 0xD6 PUSH5 0x736F6C6343 STOP ADDMOD 0x1F STOP CALLER "
				},
				"gasEstimates": {
					"creation": {
						"codeDepositCost": "1045200",
						"executionCost": "28195",
						"totalCost": "1073395"
					},
					"external": {
						"FEE()": "369",
						"addWeapon(uint256,string,uint256)": "infinite",
						"createNewToken(string)": "infinite",
						"removeMonsterToken(uint256)": "infinite"
					}
				},
				"methodIdentifiers": {
					"FEE()": "c57981b5",
					"addWeapon(uint256,string,uint256)": "0a0eac29",
					"createNewToken(string)": "b90f1aaa",
					"removeMonsterToken(uint256)": "50fac4f1"
				}
			},
			"storageLayout": {
				"storage": [
					{
						"astId": 138,
						"contract": "practica_3/MonsterTokens.sol:MonsterTokens",
						"label": "token_id",
						"offset": 0,
						"slot": "0",
						"type": "t_uint256"
					},
					{
						"astId": 155,
						"contract": "practica_3/MonsterTokens.sol:MonsterTokens",
						"label": "registry",
						"offset": 0,
						"slot": "1",
						"type": "t_mapping(t_address,t_uint256)"
					},
					{
						"astId": 159,
						"contract": "practica_3/MonsterTokens.sol:MonsterTokens",
						"label": "owners",
						"offset": 0,
						"slot": "2",
						"type": "t_mapping(t_uint256,t_address)"
					},
					{
						"astId": 163,
						"contract": "practica_3/MonsterTokens.sol:MonsterTokens",
						"label": "approvals",
						"offset": 0,
						"slot": "3",
						"type": "t_mapping(t_uint256,t_address)"
					},
					{
						"astId": 168,
						"contract": "practica_3/MonsterTokens.sol:MonsterTokens",
						"label": "tokens",
						"offset": 0,
						"slot": "4",
						"type": "t_mapping(t_uint256,t_struct(Character)151_storage)"
					},
					{
						"astId": 171,
						"contract": "practica_3/MonsterTokens.sol:MonsterTokens",
						"label": "creados",
						"offset": 0,
						"slot": "5",
						"type": "t_uint256"
					}
				],
				"types": {
					"t_address": {
						"encoding": "inplace",
						"label": "address",
						"numberOfBytes": "20"
					},
					"t_array(t_string_storage)dyn_storage": {
						"base": "t_string_storage",
						"encoding": "dynamic_array",
						"label": "string[]",
						"numberOfBytes": "32"
					},
					"t_array(t_uint256)dyn_storage": {
						"base": "t_uint256",
						"encoding": "dynamic_array",
						"label": "uint256[]",
						"numberOfBytes": "32"
					},
					"t_mapping(t_address,t_uint256)": {
						"encoding": "mapping",
						"key": "t_address",
						"label": "mapping(address => uint256)",
						"numberOfBytes": "32",
						"value": "t_uint256"
					},
					"t_mapping(t_uint256,t_address)": {
						"encoding": "mapping",
						"key": "t_uint256",
						"label": "mapping(uint256 => address)",
						"numberOfBytes": "32",
						"value": "t_address"
					},
					"t_mapping(t_uint256,t_struct(Character)151_storage)": {
						"encoding": "mapping",
						"key": "t_uint256",
						"label": "mapping(uint256 => struct MonsterTokens.Character)",
						"numberOfBytes": "32",
						"value": "t_struct(Character)151_storage"
					},
					"t_string_storage": {
						"encoding": "bytes",
						"label": "string",
						"numberOfBytes": "32"
					},
					"t_struct(Character)151_storage": {
						"encoding": "inplace",
						"label": "struct MonsterTokens.Character",
						"members": [
							{
								"astId": 147,
								"contract": "practica_3/MonsterTokens.sol:MonsterTokens",
								"label": "name",
								"offset": 0,
								"slot": "0",
								"type": "t_string_storage"
							},
							{
								"astId": 150,
								"contract": "practica_3/MonsterTokens.sol:MonsterTokens",
								"label": "weapons",
								"offset": 0,
								"slot": "1",
								"type": "t_struct(Weapons)145_storage"
							}
						],
						"numberOfBytes": "96"
					},
					"t_struct(Weapons)145_storage": {
						"encoding": "inplace",
						"label": "struct MonsterTokens.Weapons",
						"members": [
							{
								"astId": 141,
								"contract": "practica_3/MonsterTokens.sol:MonsterTokens",
								"label": "names",
								"offset": 0,
								"slot": "0",
								"type": "t_array(t_string_storage)dyn_storage"
							},
							{
								"astId": 144,
								"contract": "practica_3/MonsterTokens.sol:MonsterTokens",
								"label": "firePowers",
								"offset": 0,
								"slot": "1",
								"type": "t_array(t_uint256)dyn_storage"
							}
						],
						"numberOfBytes": "64"
					},
					"t_uint256": {
						"encoding": "inplace",
						"label": "uint256",
						"numberOfBytes": "32"
					}
				}
			},
			"userdoc": {
				"kind": "user",
				"methods": {},
				"version": 1
			}
		}
	}
}