{
	"practica_3/contrato_aux.sol": {
		"aux": {
			"abi": [
				{
					"inputs": [],
					"name": "getToken",
					"outputs": [
						{
							"internalType": "uint256",
							"name": "",
							"type": "uint256"
						}
					],
					"stateMutability": "view",
					"type": "function"
				},
				{
					"inputs": [
						{
							"internalType": "address",
							"name": "_operator",
							"type": "address"
						},
						{
							"internalType": "address",
							"name": "_from",
							"type": "address"
						},
						{
							"internalType": "uint256",
							"name": "_tokenId",
							"type": "uint256"
						},
						{
							"internalType": "bytes",
							"name": "_data",
							"type": "bytes"
						}
					],
					"name": "onERC721Received",
					"outputs": [
						{
							"internalType": "bytes4",
							"name": "",
							"type": "bytes4"
						}
					],
					"stateMutability": "nonpayable",
					"type": "function"
				}
			],
			"devdoc": {
				"kind": "dev",
				"methods": {},
				"version": 1
			},
			"evm": {
				"assembly": "    /* \"practica_3/contrato_aux.sol\":261:737  contract aux is ERC721TokenReceiver {... */\n  mstore(0x40, 0x80)\n  callvalue\n  dup1\n  iszero\n  tag_1\n  jumpi\n  revert(0x00, 0x00)\ntag_1:\n  pop\n  dataSize(sub_0)\n  dup1\n  dataOffset(sub_0)\n  0x00\n  codecopy\n  0x00\n  return\nstop\n\nsub_0: assembly {\n        /* \"practica_3/contrato_aux.sol\":261:737  contract aux is ERC721TokenReceiver {... */\n      mstore(0x40, 0x80)\n      callvalue\n      dup1\n      iszero\n      tag_1\n      jumpi\n      revert(0x00, 0x00)\n    tag_1:\n      pop\n      jumpi(tag_2, lt(calldatasize, 0x04))\n      shr(0xe0, calldataload(0x00))\n      dup1\n      0x150b7a02\n      eq\n      tag_3\n      jumpi\n      dup1\n      0x21df0da7\n      eq\n      tag_4\n      jumpi\n    tag_2:\n      revert(0x00, 0x00)\n        /* \"practica_3/contrato_aux.sol\":335:600  function onERC721Received(... */\n    tag_3:\n      tag_5\n      0x04\n      dup1\n      calldatasize\n      sub\n      dup2\n      add\n      swap1\n      tag_6\n      swap2\n      swap1\n      tag_7\n      jump\t// in\n    tag_6:\n      tag_8\n      jump\t// in\n    tag_5:\n      mload(0x40)\n      tag_9\n      swap2\n      swap1\n      tag_10\n      jump\t// in\n    tag_9:\n      mload(0x40)\n      dup1\n      swap2\n      sub\n      swap1\n      return\n        /* \"practica_3/contrato_aux.sol\":606:735  function getToken() public view returns (uint) {... */\n    tag_4:\n      tag_11\n      tag_12\n      jump\t// in\n    tag_11:\n      mload(0x40)\n      tag_13\n      swap2\n      swap1\n      tag_14\n      jump\t// in\n    tag_13:\n      mload(0x40)\n      dup1\n      swap2\n      sub\n      swap1\n      return\n        /* \"practica_3/contrato_aux.sol\":335:600  function onERC721Received(... */\n    tag_8:\n        /* \"practica_3/contrato_aux.sol\":491:497  bytes4 */\n      0x00\n        /* \"practica_3/contrato_aux.sol\":523:531  _tokenId */\n      dup4\n        /* \"practica_3/contrato_aux.sol\":509:520  token_owner */\n      0x00\n        /* \"practica_3/contrato_aux.sol\":509:531  token_owner = _tokenId */\n      dup2\n      swap1\n      sstore\n      pop\n        /* \"practica_3/contrato_aux.sol\":548:593  ERC721TokenReceiver.onERC721Received.selector */\n      shl(0xe0, 0x150b7a02)\n        /* \"practica_3/contrato_aux.sol\":541:593  return ERC721TokenReceiver.onERC721Received.selector */\n      swap1\n      pop\n        /* \"practica_3/contrato_aux.sol\":335:600  function onERC721Received(... */\n      swap6\n      swap5\n      pop\n      pop\n      pop\n      pop\n      pop\n      jump\t// out\n        /* \"practica_3/contrato_aux.sol\":606:735  function getToken() public view returns (uint) {... */\n    tag_12:\n        /* \"practica_3/contrato_aux.sol\":647:651  uint */\n      0x00\n        /* \"practica_3/contrato_aux.sol\":686:687  0 */\n      0x00\n        /* \"practica_3/contrato_aux.sol\":671:682  token_owner */\n      sload(0x00)\n        /* \"practica_3/contrato_aux.sol\":671:687  token_owner != 0 */\n      sub\n        /* \"practica_3/contrato_aux.sol\":663:700  require(token_owner != 0, \"No token\") */\n      tag_17\n      jumpi\n      mload(0x40)\n      0x08c379a000000000000000000000000000000000000000000000000000000000\n      dup2\n      mstore\n      0x04\n      add\n      tag_18\n      swap1\n      tag_19\n      jump\t// in\n    tag_18:\n      mload(0x40)\n      dup1\n      swap2\n      sub\n      swap1\n      revert\n    tag_17:\n        /* \"practica_3/contrato_aux.sol\":717:728  token_owner */\n      sload(0x00)\n        /* \"practica_3/contrato_aux.sol\":710:728  return token_owner */\n      swap1\n      pop\n        /* \"practica_3/contrato_aux.sol\":606:735  function getToken() public view returns (uint) {... */\n      swap1\n      jump\t// out\n        /* \"#utility.yul\":88:205   */\n    tag_21:\n        /* \"#utility.yul\":197:198   */\n      0x00\n        /* \"#utility.yul\":194:195   */\n      0x00\n        /* \"#utility.yul\":187:199   */\n      revert\n        /* \"#utility.yul\":211:328   */\n    tag_22:\n        /* \"#utility.yul\":320:321   */\n      0x00\n        /* \"#utility.yul\":317:318   */\n      0x00\n        /* \"#utility.yul\":310:322   */\n      revert\n        /* \"#utility.yul\":334:460   */\n    tag_23:\n        /* \"#utility.yul\":371:378   */\n      0x00\n        /* \"#utility.yul\":411:453   */\n      0xffffffffffffffffffffffffffffffffffffffff\n        /* \"#utility.yul\":404:409   */\n      dup3\n        /* \"#utility.yul\":400:454   */\n      and\n        /* \"#utility.yul\":389:454   */\n      swap1\n      pop\n        /* \"#utility.yul\":334:460   */\n      swap2\n      swap1\n      pop\n      jump\t// out\n        /* \"#utility.yul\":466:562   */\n    tag_24:\n        /* \"#utility.yul\":503:510   */\n      0x00\n        /* \"#utility.yul\":532:556   */\n      tag_46\n        /* \"#utility.yul\":550:555   */\n      dup3\n        /* \"#utility.yul\":532:556   */\n      tag_23\n      jump\t// in\n    tag_46:\n        /* \"#utility.yul\":521:556   */\n      swap1\n      pop\n        /* \"#utility.yul\":466:562   */\n      swap2\n      swap1\n      pop\n      jump\t// out\n        /* \"#utility.yul\":568:690   */\n    tag_25:\n        /* \"#utility.yul\":641:665   */\n      tag_48\n        /* \"#utility.yul\":659:664   */\n      dup2\n        /* \"#utility.yul\":641:665   */\n      tag_24\n      jump\t// in\n    tag_48:\n        /* \"#utility.yul\":634:639   */\n      dup2\n        /* \"#utility.yul\":631:666   */\n      eq\n        /* \"#utility.yul\":621:684   */\n      tag_49\n      jumpi\n        /* \"#utility.yul\":680:681   */\n      0x00\n        /* \"#utility.yul\":677:678   */\n      0x00\n        /* \"#utility.yul\":670:682   */\n      revert\n        /* \"#utility.yul\":621:684   */\n    tag_49:\n        /* \"#utility.yul\":568:690   */\n      pop\n      jump\t// out\n        /* \"#utility.yul\":696:835   */\n    tag_26:\n        /* \"#utility.yul\":742:747   */\n      0x00\n        /* \"#utility.yul\":780:786   */\n      dup2\n        /* \"#utility.yul\":767:787   */\n      calldataload\n        /* \"#utility.yul\":758:787   */\n      swap1\n      pop\n        /* \"#utility.yul\":796:829   */\n      tag_51\n        /* \"#utility.yul\":823:828   */\n      dup2\n        /* \"#utility.yul\":796:829   */\n      tag_25\n      jump\t// in\n    tag_51:\n        /* \"#utility.yul\":696:835   */\n      swap3\n      swap2\n      pop\n      pop\n      jump\t// out\n        /* \"#utility.yul\":841:918   */\n    tag_27:\n        /* \"#utility.yul\":878:885   */\n      0x00\n        /* \"#utility.yul\":907:912   */\n      dup2\n        /* \"#utility.yul\":896:912   */\n      swap1\n      pop\n        /* \"#utility.yul\":841:918   */\n      swap2\n      swap1\n      pop\n      jump\t// out\n        /* \"#utility.yul\":924:1046   */\n    tag_28:\n        /* \"#utility.yul\":997:1021   */\n      tag_54\n        /* \"#utility.yul\":1015:1020   */\n      dup2\n        /* \"#utility.yul\":997:1021   */\n      tag_27\n      jump\t// in\n    tag_54:\n        /* \"#utility.yul\":990:995   */\n      dup2\n        /* \"#utility.yul\":987:1022   */\n      eq\n        /* \"#utility.yul\":977:1040   */\n      tag_55\n      jumpi\n        /* \"#utility.yul\":1036:1037   */\n      0x00\n        /* \"#utility.yul\":1033:1034   */\n      0x00\n        /* \"#utility.yul\":1026:1038   */\n      revert\n        /* \"#utility.yul\":977:1040   */\n    tag_55:\n        /* \"#utility.yul\":924:1046   */\n      pop\n      jump\t// out\n        /* \"#utility.yul\":1052:1191   */\n    tag_29:\n        /* \"#utility.yul\":1098:1103   */\n      0x00\n        /* \"#utility.yul\":1136:1142   */\n      dup2\n        /* \"#utility.yul\":1123:1143   */\n      calldataload\n        /* \"#utility.yul\":1114:1143   */\n      swap1\n      pop\n        /* \"#utility.yul\":1152:1185   */\n      tag_57\n        /* \"#utility.yul\":1179:1184   */\n      dup2\n        /* \"#utility.yul\":1152:1185   */\n      tag_28\n      jump\t// in\n    tag_57:\n        /* \"#utility.yul\":1052:1191   */\n      swap3\n      swap2\n      pop\n      pop\n      jump\t// out\n        /* \"#utility.yul\":1197:1314   */\n    tag_30:\n        /* \"#utility.yul\":1306:1307   */\n      0x00\n        /* \"#utility.yul\":1303:1304   */\n      0x00\n        /* \"#utility.yul\":1296:1308   */\n      revert\n        /* \"#utility.yul\":1320:1437   */\n    tag_31:\n        /* \"#utility.yul\":1429:1430   */\n      0x00\n        /* \"#utility.yul\":1426:1427   */\n      0x00\n        /* \"#utility.yul\":1419:1431   */\n      revert\n        /* \"#utility.yul\":1443:1560   */\n    tag_32:\n        /* \"#utility.yul\":1552:1553   */\n      0x00\n        /* \"#utility.yul\":1549:1550   */\n      0x00\n        /* \"#utility.yul\":1542:1554   */\n      revert\n        /* \"#utility.yul\":1579:2131   */\n    tag_33:\n        /* \"#utility.yul\":1636:1644   */\n      0x00\n        /* \"#utility.yul\":1646:1652   */\n      0x00\n        /* \"#utility.yul\":1696:1699   */\n      dup4\n        /* \"#utility.yul\":1689:1693   */\n      0x1f\n        /* \"#utility.yul\":1681:1687   */\n      dup5\n        /* \"#utility.yul\":1677:1694   */\n      add\n        /* \"#utility.yul\":1673:1700   */\n      slt\n        /* \"#utility.yul\":1663:1785   */\n      tag_62\n      jumpi\n        /* \"#utility.yul\":1704:1783   */\n      tag_63\n      tag_30\n      jump\t// in\n    tag_63:\n        /* \"#utility.yul\":1663:1785   */\n    tag_62:\n        /* \"#utility.yul\":1817:1823   */\n      dup3\n        /* \"#utility.yul\":1804:1824   */\n      calldataload\n        /* \"#utility.yul\":1794:1824   */\n      swap1\n      pop\n        /* \"#utility.yul\":1847:1865   */\n      0xffffffffffffffff\n        /* \"#utility.yul\":1839:1845   */\n      dup2\n        /* \"#utility.yul\":1836:1866   */\n      gt\n        /* \"#utility.yul\":1833:1950   */\n      iszero\n      tag_64\n      jumpi\n        /* \"#utility.yul\":1869:1948   */\n      tag_65\n      tag_31\n      jump\t// in\n    tag_65:\n        /* \"#utility.yul\":1833:1950   */\n    tag_64:\n        /* \"#utility.yul\":1983:1987   */\n      0x20\n        /* \"#utility.yul\":1975:1981   */\n      dup4\n        /* \"#utility.yul\":1971:1988   */\n      add\n        /* \"#utility.yul\":1959:1988   */\n      swap2\n      pop\n        /* \"#utility.yul\":2037:2040   */\n      dup4\n        /* \"#utility.yul\":2029:2033   */\n      0x01\n        /* \"#utility.yul\":2021:2027   */\n      dup3\n        /* \"#utility.yul\":2017:2034   */\n      mul\n        /* \"#utility.yul\":2007:2015   */\n      dup4\n        /* \"#utility.yul\":2003:2035   */\n      add\n        /* \"#utility.yul\":2000:2041   */\n      gt\n        /* \"#utility.yul\":1997:2125   */\n      iszero\n      tag_66\n      jumpi\n        /* \"#utility.yul\":2044:2123   */\n      tag_67\n      tag_32\n      jump\t// in\n    tag_67:\n        /* \"#utility.yul\":1997:2125   */\n    tag_66:\n        /* \"#utility.yul\":1579:2131   */\n      swap3\n      pop\n      swap3\n      swap1\n      pop\n      jump\t// out\n        /* \"#utility.yul\":2137:3100   */\n    tag_7:\n        /* \"#utility.yul\":2234:2240   */\n      0x00\n        /* \"#utility.yul\":2242:2248   */\n      0x00\n        /* \"#utility.yul\":2250:2256   */\n      0x00\n        /* \"#utility.yul\":2258:2264   */\n      0x00\n        /* \"#utility.yul\":2266:2272   */\n      0x00\n        /* \"#utility.yul\":2315:2318   */\n      0x80\n        /* \"#utility.yul\":2303:2312   */\n      dup7\n        /* \"#utility.yul\":2294:2301   */\n      dup9\n        /* \"#utility.yul\":2290:2313   */\n      sub\n        /* \"#utility.yul\":2286:2319   */\n      slt\n        /* \"#utility.yul\":2283:2403   */\n      iszero\n      tag_69\n      jumpi\n        /* \"#utility.yul\":2322:2401   */\n      tag_70\n      tag_21\n      jump\t// in\n    tag_70:\n        /* \"#utility.yul\":2283:2403   */\n    tag_69:\n        /* \"#utility.yul\":2442:2443   */\n      0x00\n        /* \"#utility.yul\":2467:2520   */\n      tag_71\n        /* \"#utility.yul\":2512:2519   */\n      dup9\n        /* \"#utility.yul\":2503:2509   */\n      dup3\n        /* \"#utility.yul\":2492:2501   */\n      dup10\n        /* \"#utility.yul\":2488:2510   */\n      add\n        /* \"#utility.yul\":2467:2520   */\n      tag_26\n      jump\t// in\n    tag_71:\n        /* \"#utility.yul\":2457:2520   */\n      swap6\n      pop\n        /* \"#utility.yul\":2413:2530   */\n      pop\n        /* \"#utility.yul\":2569:2571   */\n      0x20\n        /* \"#utility.yul\":2595:2648   */\n      tag_72\n        /* \"#utility.yul\":2640:2647   */\n      dup9\n        /* \"#utility.yul\":2631:2637   */\n      dup3\n        /* \"#utility.yul\":2620:2629   */\n      dup10\n        /* \"#utility.yul\":2616:2638   */\n      add\n        /* \"#utility.yul\":2595:2648   */\n      tag_26\n      jump\t// in\n    tag_72:\n        /* \"#utility.yul\":2585:2648   */\n      swap5\n      pop\n        /* \"#utility.yul\":2540:2658   */\n      pop\n        /* \"#utility.yul\":2697:2699   */\n      0x40\n        /* \"#utility.yul\":2723:2776   */\n      tag_73\n        /* \"#utility.yul\":2768:2775   */\n      dup9\n        /* \"#utility.yul\":2759:2765   */\n      dup3\n        /* \"#utility.yul\":2748:2757   */\n      dup10\n        /* \"#utility.yul\":2744:2766   */\n      add\n        /* \"#utility.yul\":2723:2776   */\n      tag_29\n      jump\t// in\n    tag_73:\n        /* \"#utility.yul\":2713:2776   */\n      swap4\n      pop\n        /* \"#utility.yul\":2668:2786   */\n      pop\n        /* \"#utility.yul\":2853:2855   */\n      0x60\n        /* \"#utility.yul\":2842:2851   */\n      dup7\n        /* \"#utility.yul\":2838:2856   */\n      add\n        /* \"#utility.yul\":2825:2857   */\n      calldataload\n        /* \"#utility.yul\":2884:2902   */\n      0xffffffffffffffff\n        /* \"#utility.yul\":2876:2882   */\n      dup2\n        /* \"#utility.yul\":2873:2903   */\n      gt\n        /* \"#utility.yul\":2870:2987   */\n      iszero\n      tag_74\n      jumpi\n        /* \"#utility.yul\":2906:2985   */\n      tag_75\n      tag_22\n      jump\t// in\n    tag_75:\n        /* \"#utility.yul\":2870:2987   */\n    tag_74:\n        /* \"#utility.yul\":3019:3083   */\n      tag_76\n        /* \"#utility.yul\":3075:3082   */\n      dup9\n        /* \"#utility.yul\":3066:3072   */\n      dup3\n        /* \"#utility.yul\":3055:3064   */\n      dup10\n        /* \"#utility.yul\":3051:3073   */\n      add\n        /* \"#utility.yul\":3019:3083   */\n      tag_33\n      jump\t// in\n    tag_76:\n        /* \"#utility.yul\":3001:3083   */\n      swap3\n      pop\n      swap3\n      pop\n        /* \"#utility.yul\":2796:3093   */\n      pop\n        /* \"#utility.yul\":2137:3100   */\n      swap3\n      swap6\n      pop\n      swap3\n      swap6\n      swap1\n      swap4\n      pop\n      jump\t// out\n        /* \"#utility.yul\":3106:3255   */\n    tag_34:\n        /* \"#utility.yul\":3142:3149   */\n      0x00\n        /* \"#utility.yul\":3182:3248   */\n      0xffffffff00000000000000000000000000000000000000000000000000000000\n        /* \"#utility.yul\":3175:3180   */\n      dup3\n        /* \"#utility.yul\":3171:3249   */\n      and\n        /* \"#utility.yul\":3160:3249   */\n      swap1\n      pop\n        /* \"#utility.yul\":3106:3255   */\n      swap2\n      swap1\n      pop\n      jump\t// out\n        /* \"#utility.yul\":3261:3376   */\n    tag_35:\n        /* \"#utility.yul\":3346:3369   */\n      tag_79\n        /* \"#utility.yul\":3363:3368   */\n      dup2\n        /* \"#utility.yul\":3346:3369   */\n      tag_34\n      jump\t// in\n    tag_79:\n        /* \"#utility.yul\":3341:3344   */\n      dup3\n        /* \"#utility.yul\":3334:3370   */\n      mstore\n        /* \"#utility.yul\":3261:3376   */\n      pop\n      pop\n      jump\t// out\n        /* \"#utility.yul\":3382:3600   */\n    tag_10:\n        /* \"#utility.yul\":3473:3477   */\n      0x00\n        /* \"#utility.yul\":3511:3513   */\n      0x20\n        /* \"#utility.yul\":3500:3509   */\n      dup3\n        /* \"#utility.yul\":3496:3514   */\n      add\n        /* \"#utility.yul\":3488:3514   */\n      swap1\n      pop\n        /* \"#utility.yul\":3524:3593   */\n      tag_81\n        /* \"#utility.yul\":3590:3591   */\n      0x00\n        /* \"#utility.yul\":3579:3588   */\n      dup4\n        /* \"#utility.yul\":3575:3592   */\n      add\n        /* \"#utility.yul\":3566:3572   */\n      dup5\n        /* \"#utility.yul\":3524:3593   */\n      tag_35\n      jump\t// in\n    tag_81:\n        /* \"#utility.yul\":3382:3600   */\n      swap3\n      swap2\n      pop\n      pop\n      jump\t// out\n        /* \"#utility.yul\":3606:3724   */\n    tag_36:\n        /* \"#utility.yul\":3693:3717   */\n      tag_83\n        /* \"#utility.yul\":3711:3716   */\n      dup2\n        /* \"#utility.yul\":3693:3717   */\n      tag_27\n      jump\t// in\n    tag_83:\n        /* \"#utility.yul\":3688:3691   */\n      dup3\n        /* \"#utility.yul\":3681:3718   */\n      mstore\n        /* \"#utility.yul\":3606:3724   */\n      pop\n      pop\n      jump\t// out\n        /* \"#utility.yul\":3730:3952   */\n    tag_14:\n        /* \"#utility.yul\":3823:3827   */\n      0x00\n        /* \"#utility.yul\":3861:3863   */\n      0x20\n        /* \"#utility.yul\":3850:3859   */\n      dup3\n        /* \"#utility.yul\":3846:3864   */\n      add\n        /* \"#utility.yul\":3838:3864   */\n      swap1\n      pop\n        /* \"#utility.yul\":3874:3945   */\n      tag_85\n        /* \"#utility.yul\":3942:3943   */\n      0x00\n        /* \"#utility.yul\":3931:3940   */\n      dup4\n        /* \"#utility.yul\":3927:3944   */\n      add\n        /* \"#utility.yul\":3918:3924   */\n      dup5\n        /* \"#utility.yul\":3874:3945   */\n      tag_36\n      jump\t// in\n    tag_85:\n        /* \"#utility.yul\":3730:3952   */\n      swap3\n      swap2\n      pop\n      pop\n      jump\t// out\n        /* \"#utility.yul\":3958:4127   */\n    tag_37:\n        /* \"#utility.yul\":4042:4053   */\n      0x00\n        /* \"#utility.yul\":4076:4082   */\n      dup3\n        /* \"#utility.yul\":4071:4074   */\n      dup3\n        /* \"#utility.yul\":4064:4083   */\n      mstore\n        /* \"#utility.yul\":4116:4120   */\n      0x20\n        /* \"#utility.yul\":4111:4114   */\n      dup3\n        /* \"#utility.yul\":4107:4121   */\n      add\n        /* \"#utility.yul\":4092:4121   */\n      swap1\n      pop\n        /* \"#utility.yul\":3958:4127   */\n      swap3\n      swap2\n      pop\n      pop\n      jump\t// out\n        /* \"#utility.yul\":4133:4291   */\n    tag_38:\n        /* \"#utility.yul\":4273:4283   */\n      0x4e6f20746f6b656e000000000000000000000000000000000000000000000000\n        /* \"#utility.yul\":4269:4270   */\n      0x00\n        /* \"#utility.yul\":4261:4267   */\n      dup3\n        /* \"#utility.yul\":4257:4271   */\n      add\n        /* \"#utility.yul\":4250:4284   */\n      mstore\n        /* \"#utility.yul\":4133:4291   */\n      pop\n      jump\t// out\n        /* \"#utility.yul\":4297:4662   */\n    tag_39:\n        /* \"#utility.yul\":4439:4442   */\n      0x00\n        /* \"#utility.yul\":4460:4526   */\n      tag_89\n        /* \"#utility.yul\":4524:4525   */\n      0x08\n        /* \"#utility.yul\":4519:4522   */\n      dup4\n        /* \"#utility.yul\":4460:4526   */\n      tag_37\n      jump\t// in\n    tag_89:\n        /* \"#utility.yul\":4453:4526   */\n      swap2\n      pop\n        /* \"#utility.yul\":4535:4628   */\n      tag_90\n        /* \"#utility.yul\":4624:4627   */\n      dup3\n        /* \"#utility.yul\":4535:4628   */\n      tag_38\n      jump\t// in\n    tag_90:\n        /* \"#utility.yul\":4653:4655   */\n      0x20\n        /* \"#utility.yul\":4648:4651   */\n      dup3\n        /* \"#utility.yul\":4644:4656   */\n      add\n        /* \"#utility.yul\":4637:4656   */\n      swap1\n      pop\n        /* \"#utility.yul\":4297:4662   */\n      swap2\n      swap1\n      pop\n      jump\t// out\n        /* \"#utility.yul\":4668:5087   */\n    tag_19:\n        /* \"#utility.yul\":4834:4838   */\n      0x00\n        /* \"#utility.yul\":4872:4874   */\n      0x20\n        /* \"#utility.yul\":4861:4870   */\n      dup3\n        /* \"#utility.yul\":4857:4875   */\n      add\n        /* \"#utility.yul\":4849:4875   */\n      swap1\n      pop\n        /* \"#utility.yul\":4921:4930   */\n      dup2\n        /* \"#utility.yul\":4915:4919   */\n      dup2\n        /* \"#utility.yul\":4911:4931   */\n      sub\n        /* \"#utility.yul\":4907:4908   */\n      0x00\n        /* \"#utility.yul\":4896:4905   */\n      dup4\n        /* \"#utility.yul\":4892:4909   */\n      add\n        /* \"#utility.yul\":4885:4932   */\n      mstore\n        /* \"#utility.yul\":4949:5080   */\n      tag_92\n        /* \"#utility.yul\":5075:5079   */\n      dup2\n        /* \"#utility.yul\":4949:5080   */\n      tag_39\n      jump\t// in\n    tag_92:\n        /* \"#utility.yul\":4941:5080   */\n      swap1\n      pop\n        /* \"#utility.yul\":4668:5087   */\n      swap2\n      swap1\n      pop\n      jump\t// out\n\n    auxdata: 0xa2646970667358221220f37f762861c3a89279c17b0c4d77e34f198b97ff5d4a40221cb13dbb35c5865f64736f6c634300081f0033\n}\n",
				"bytecode": {
					"linkReferences": {},
					"object": "6080604052348015600e575f5ffd5b5061038e8061001c5f395ff3fe608060405234801561000f575f5ffd5b5060043610610034575f3560e01c8063150b7a021461003857806321df0da714610068575b5f5ffd5b610052600480360381019061004d91906101e1565b610086565b60405161005f919061029f565b60405180910390f35b6100706100a0565b60405161007d91906102c7565b60405180910390f35b5f835f8190555063150b7a0260e01b905095945050505050565b5f5f5f54036100e4576040517f08c379a00000000000000000000000000000000000000000000000000000000081526004016100db9061033a565b60405180910390fd5b5f54905090565b5f5ffd5b5f5ffd5b5f73ffffffffffffffffffffffffffffffffffffffff82169050919050565b5f61011c826100f3565b9050919050565b61012c81610112565b8114610136575f5ffd5b50565b5f8135905061014781610123565b92915050565b5f819050919050565b61015f8161014d565b8114610169575f5ffd5b50565b5f8135905061017a81610156565b92915050565b5f5ffd5b5f5ffd5b5f5ffd5b5f5f83601f8401126101a1576101a0610180565b5b8235905067ffffffffffffffff8111156101be576101bd610184565b5b6020830191508360018202830111156101da576101d9610188565b5b9250929050565b5f5f5f5f5f608086880312156101fa576101f96100eb565b5b5f61020788828901610139565b955050602061021888828901610139565b94505060406102298882890161016c565b935050606086013567ffffffffffffffff81111561024a576102496100ef565b5b6102568882890161018c565b92509250509295509295909350565b5f7fffffffff0000000000000000000000000000000000000000000000000000000082169050919050565b61029981610265565b82525050565b5f6020820190506102b25f830184610290565b92915050565b6102c18161014d565b82525050565b5f6020820190506102da5f8301846102b8565b92915050565b5f82825260208201905092915050565b7f4e6f20746f6b656e0000000000000000000000000000000000000000000000005f82015250565b5f6103246008836102e0565b915061032f826102f0565b602082019050919050565b5f6020820190508181035f83015261035181610318565b905091905056fea2646970667358221220f37f762861c3a89279c17b0c4d77e34f198b97ff5d4a40221cb13dbb35c5865f64736f6c634300081f0033",
					"opcodes": "PUSH1 0x80 PUSH1 0x40 MSTORE CALLVALUE DUP1 ISZERO PUSH1 0xE JUMPI PUSH0 PUSH0 REVERT JUMPDEST POP PUSH2 0x38E DUP1 PUSH2 0x1C PUSH0 CODECOPY PUSH0 RETURN INVALID PUSH1 0x80 PUSH1 0x40 MSTORE CALLVALUE DUP1 ISZERO PUSH2 0xF JUMPI PUSH0 PUSH0 REVERT JUMPDEST POP PUSH1 0x4 CALLDATASIZE LT PUSH2 0x34 JUMPI PUSH0 CALLDATALOAD PUSH1 0xE0 SHR DUP1 PUSH4 0x150B7A02 EQ PUSH2 0x38 JUMPI DUP1 PUSH4 0x21DF0DA7 EQ PUSH2 0x68 JUMPI JUMPDEST PUSH0 PUSH0 REVERT JUMPDEST PUSH2 0x52 PUSH1 0x4 DUP1 CALLDATASIZE SUB DUP2 ADD SWAP1 PUSH2 0x4D SWAP2 SWAP1 PUSH2 0x1E1 JUMP JUMPDEST PUSH2 0x86 JUMP JUMPDEST PUSH1 0x40 MLOAD PUSH2 0x5F SWAP2 SWAP1 PUSH2 0x29F JUMP JUMPDEST PUSH1 0x40 MLOAD DUP1 SWAP2 SUB SWAP1 RETURN JUMPDEST PUSH2 0x70 PUSH2 0xA0 JUMP JUMPDEST PUSH1 0x40 MLOAD PUSH2 0x7D SWAP2 SWAP1 PUSH2 0x2C7 JUMP JUMPDEST PUSH1 0x40 MLOAD DUP1 SWAP2 SUB SWAP1 RETURN JUMPDEST PUSH0 DUP4 PUSH0 DUP2 SWAP1 SSTORE POP PUSH4 0x150B7A02 PUSH1 0xE0 SHL SWAP1 POP SWAP6 SWAP5 POP POP POP POP POP JUMP JUMPDEST PUSH0 PUSH0 PUSH0 SLOAD SUB PUSH2 0xE4 JUMPI PUSH1 0x40 MLOAD PUSH32 0x8C379A000000000000000000000000000000000000000000000000000000000 DUP2 MSTORE PUSH1 0x4 ADD PUSH2 0xDB SWAP1 PUSH2 0x33A JUMP JUMPDEST PUSH1 0x40 MLOAD DUP1 SWAP2 SUB SWAP1 REVERT JUMPDEST PUSH0 SLOAD SWAP1 POP SWAP1 JUMP JUMPDEST PUSH0 PUSH0 REVERT JUMPDEST PUSH0 PUSH0 REVERT JUMPDEST PUSH0 PUSH20 0xFFFFFFFFFFFFFFFFFFFFFFFFFFFFFFFFFFFFFFFF DUP3 AND SWAP1 POP SWAP2 SWAP1 POP JUMP JUMPDEST PUSH0 PUSH2 0x11C DUP3 PUSH2 0xF3 JUMP JUMPDEST SWAP1 POP SWAP2 SWAP1 POP JUMP JUMPDEST PUSH2 0x12C DUP2 PUSH2 0x112 JUMP JUMPDEST DUP2 EQ PUSH2 0x136 JUMPI PUSH0 PUSH0 REVERT JUMPDEST POP JUMP JUMPDEST PUSH0 DUP2 CALLDATALOAD SWAP1 POP PUSH2 0x147 DUP2 PUSH2 0x123 JUMP JUMPDEST SWAP3 SWAP2 POP POP JUMP JUMPDEST PUSH0 DUP2 SWAP1 POP SWAP2 SWAP1 POP JUMP JUMPDEST PUSH2 0x15F DUP2 PUSH2 0x14D JUMP JUMPDEST DUP2 EQ PUSH2 0x169 JUMPI PUSH0 PUSH0 REVERT JUMPDEST POP JUMP JUMPDEST PUSH0 DUP2 CALLDATALOAD SWAP1 POP PUSH2 0x17A DUP2 PUSH2 0x156 JUMP JUMPDEST SWAP3 SWAP2 POP POP JUMP JUMPDEST PUSH0 PUSH0 REVERT JUMPDEST PUSH0 PUSH0 REVERT JUMPDEST PUSH0 PUSH0 REVERT JUMPDEST PUSH0 PUSH0 DUP4 PUSH1 0x1F DUP5 ADD SLT PUSH2 0x1A1 JUMPI PUSH2 0x1A0 PUSH2 0x180 JUMP JUMPDEST JUMPDEST DUP3 CALLDATALOAD SWAP1 POP PUSH8 0xFFFFFFFFFFFFFFFF DUP2 GT ISZERO PUSH2 0x1BE JUMPI PUSH2 0x1BD PUSH2 0x184 JUMP JUMPDEST JUMPDEST PUSH1 0x20 DUP4 ADD SWAP2 POP DUP4 PUSH1 0x1 DUP3 MUL DUP4 ADD GT ISZERO PUSH2 0x1DA JUMPI PUSH2 0x1D9 PUSH2 0x188 JUMP JUMPDEST JUMPDEST SWAP3 POP SWAP3 SWAP1 POP JUMP JUMPDEST PUSH0 PUSH0 PUSH0 PUSH0 PUSH0 PUSH1 0x80 DUP7 DUP9 SUB SLT ISZERO PUSH2 0x1FA JUMPI PUSH2 0x1F9 PUSH2 0xEB JUMP JUMPDEST JUMPDEST PUSH0 PUSH2 0x207 DUP9 DUP3 DUP10 ADD PUSH2 0x139 JUMP JUMPDEST SWAP6 POP POP PUSH1 0x20 PUSH2 0x218 DUP9 DUP3 DUP10 ADD PUSH2 0x139 JUMP JUMPDEST SWAP5 POP POP PUSH1 0x40 PUSH2 0x229 DUP9 DUP3 DUP10 ADD PUSH2 0x16C JUMP JUMPDEST SWAP4 POP POP PUSH1 0x60 DUP7 ADD CALLDATALOAD PUSH8 0xFFFFFFFFFFFFFFFF DUP2 GT ISZERO PUSH2 0x24A JUMPI PUSH2 0x249 PUSH2 0xEF JUMP JUMPDEST JUMPDEST PUSH2 0x256 DUP9 DUP3 DUP10 ADD PUSH2 0x18C JUMP JUMPDEST SWAP3 POP SWAP3 POP POP SWAP3 SWAP6 POP SWAP3 SWAP6 SWAP1 SWAP4 POP JUMP JUMPDEST PUSH0 PUSH32 0xFFFFFFFF00000000000000000000000000000000000000000000000000000000 DUP3 AND SWAP1 POP SWAP2 SWAP1 POP JUMP JUMPDEST PUSH2 0x299 DUP2 PUSH2 0x265 JUMP JUMPDEST DUP3 MSTORE POP POP JUMP JUMPDEST PUSH0 PUSH1 0x20 DUP3 ADD SWAP1 POP PUSH2 0x2B2 PUSH0 DUP4 ADD DUP5 PUSH2 0x290 JUMP JUMPDEST SWAP3 SWAP2 POP POP JUMP JUMPDEST PUSH2 0x2C1 DUP2 PUSH2 0x14D JUMP JUMPDEST DUP3 MSTORE POP POP JUMP JUMPDEST PUSH0 PUSH1 0x20 DUP3 ADD SWAP1 POP PUSH2 0x2DA PUSH0 DUP4 ADD DUP5 PUSH2 0x2B8 JUMP JUMPDEST SWAP3 SWAP2 POP POP JUMP JUMPDEST PUSH0 DUP3 DUP3 MSTORE PUSH1 0x20 DUP3 ADD SWAP1 POP SWAP3 SWAP2 POP POP JUMP JUMPDEST PUSH32 0x4E6F20746F6B656E000000000000000000000000000000000000000000000000 PUSH0 DUP3 ADD MSTORE POP JUMP JUMPDEST PUSH0 PUSH2 0x324 PUSH1 0x8 DUP4 PUSH2 0x2E0 JUMP JUMPDEST SWAP2 POP PUSH2 0x32F DUP3 PUSH2 0x2F0 JUMP JUMPDEST PUSH1 0x20 DUP3 ADD SWAP1 POP SWAP2 SWAP1 POP JUMP JUMPDEST PUSH0 PUSH1 0x20 DUP3 ADD SWAP1 POP DUP2 DUP2 SUB PUSH0 DUP4 ADD MSTORE PUSH2 0x351 DUP2 PUSH2 0x318 JUMP JUMPDEST SWAP1 POP SWAP2 SWAP1 POP JUMP INVALID LOG2 PUSH5 0x6970667358 0x22 SLT KECCAK256 RETURN PUSH32 0x762861C3A89279C17B0C4D77E34F198B97FF5D4A40221CB13DBB35C5865F6473 PUSH16 0x6C634300081F00330000000000000000 "
				},
				"gasEstimates": {
					"creation": {
						"codeDepositCost": "182000",
						"executionCost": "224",
						"totalCost": "182224"
					},
					"external": {
						"getToken()": "4552",
						"onERC721Received(address,address,uint256,bytes)": "infinite"
					}
				},
				"methodIdentifiers": {
					"getToken()": "21df0da7",
					"onERC721Received(address,address,uint256,bytes)": "150b7a02"
				}
			},
			"storageLayout": {
				"storage": [
					{
						"astId": 19,
						"contract": "practica_3/contrato_aux.sol:aux",
						"label": "token_owner",
						"offset": 0,
						"slot": "0",
						"type": "t_uint256"
					}
				],
				"types": {
					"t_uint256": {
						"encoding": "inplace",
						"label": "uint256",
						"numberOfBytes": "32"
					}
				}
			},
			"userdoc": {
				"kind": "user",
				"methods": {},
				"version": 1
			}
		}
	}
}