{
	"practica_2/DhondtPollingStation.sol": {
		"DhondtPollingStation": {
			"abi": [
				{
					"inputs": [
						{
							"internalType": "address",
							"name": "presidente",
							"type": "address"
						},
						{
							"internalType": "uint256",
							"name": "numPartidos",
							"type": "uint256"
						},
						{
							"internalType": "uint256",
							"name": "idRegion",
							"type": "uint256"
						}
					],
					"stateMutability": "nonpayable",
					"type": "constructor"
				},
				{
					"inputs": [
						{
							"internalType": "uint256",
							"name": "partidoId",
							"type": "uint256"
						}
					],
					"name": "castVote",
					"outputs": [],
					"stateMutability": "nonpayable",
					"type": "function"
				},
				{
					"inputs": [],
					"name": "closeVoting",
					"outputs": [],
					"stateMutability": "nonpayable",
					"type": "function"
				},
				{
					"inputs": [],
					"name": "getResults",
					"outputs": [
						{
							"internalType": "uint256[]",
							"name": "",
							"type": "uint256[]"
						}
					],
					"stateMutability": "view",
					"type": "function"
				},
				{
					"inputs": [],
					"name": "openVoting",
					"outputs": [],
					"stateMutability": "nonpayable",
					"type": "function"
				},
				{
					"inputs": [],
					"name": "votingFinished",
					"outputs": [
						{
							"internalType": "bool",
							"name": "",
							"type": "bool"
						}
					],
					"stateMutability": "view",
					"type": "function"
				}
			],
			"devdoc": {
				"kind": "dev",
				"methods": {},
				"version": 1
			},
			"evm": {
				"assembly": "    /* \"practica_2/DhondtPollingStation.sol\":126:687  contract DhondtPollingStation is DhondtElectionRegion, PollingStation {... */\n  mstore(0x40, 0xa0)\n    /* \"practica_2/DhondtPollingStation.sol\":202:340  constructor (address presidente, uint numPartidos, uint idRegion) DhondtElectionRegion(numPartidos, idRegion) PollingStation(presidente){} */\n  callvalue\n  dup1\n  iszero\n  tag_1\n  jumpi\n  revert(0x00, 0x00)\ntag_1:\n  pop\n  mload(0x40)\n  sub(codesize, bytecodeSize)\n  dup1\n  bytecodeSize\n  dup4\n  codecopy\n  dup2\n  dup2\n  add\n  0x40\n  mstore\n  dup2\n  add\n  swap1\n  tag_2\n  swap2\n  swap1\n  tag_3\n  jump\t// in\ntag_2:\n    /* \"practica_2/DhondtPollingStation.sol\":327:337  presidente */\n  dup3\n    /* \"practica_2/DhondtPollingStation.sol\":289:300  numPartidos */\n  dup3\n    /* \"practica_2/DhondtPollingStation.sol\":302:310  idRegion */\n  dup3\n    /* \"practica_2/DhondtElectionRegion.sol\":295:296  n */\n  dup2\n    /* \"practica_2/DhondtElectionRegion.sol\":280:292  num_partidos */\n  0x01\n    /* \"practica_2/DhondtElectionRegion.sol\":280:296  num_partidos = n */\n  dup2\n  swap1\n  sstore\n  pop\n    /* \"practica_2/DhondtElectionRegion.sol\":317:320  rId */\n  dup1\n    /* \"practica_2/DhondtElectionRegion.sol\":306:320  regionId = rId */\n  0x80\n  dup2\n  dup2\n  mstore\n  pop\n  pop\n    /* \"practica_2/DhondtElectionRegion.sol\":351:352  n */\n  dup2\n    /* \"practica_2/DhondtElectionRegion.sol\":340:353  new uint[](n) */\n  0xffffffffffffffff\n  dup2\n  gt\n  iszero\n  tag_8\n  jumpi\n  tag_9\n  tag_10\n  jump\t// in\ntag_9:\ntag_8:\n  mload(0x40)\n  swap1\n  dup1\n  dup3\n  mstore\n  dup1\n  0x20\n  mul\n  0x20\n  add\n  dup3\n  add\n  0x40\n  mstore\n  dup1\n  iszero\n  tag_11\n  jumpi\n  dup2\n  0x20\n  add\n  0x20\n  dup3\n  mul\n  dup1\n  calldatasize\n  dup4\n  calldatacopy\n  dup1\n  dup3\n  add\n  swap2\n  pop\n  pop\n  swap1\n  pop\ntag_11:\n  pop\n    /* \"practica_2/DhondtElectionRegion.sol\":330:337  results */\n  0x02\n    /* \"practica_2/DhondtElectionRegion.sol\":330:353  results = new uint[](n) */\n  swap1\n  dup1\n  mload\n  swap1\n  0x20\n  add\n  swap1\n  tag_12\n  swap3\n  swap2\n  swap1\n  tag_13\n  jump\t// in\ntag_12:\n  pop\n    /* \"practica_2/DhondtElectionRegion.sol\":363:380  savedRegionInfo() */\n  tag_14\n    /* \"practica_2/DhondtElectionRegion.sol\":363:378  savedRegionInfo */\n  shl(0x20, tag_15)\n    /* \"practica_2/DhondtElectionRegion.sol\":363:380  savedRegionInfo() */\n  0x20\n  shr\n  jump\t// in\ntag_14:\n    /* \"practica_2/DhondtElectionRegion.sol\":239:388  constructor (uint n, uint rId ){... */\n  pop\n  pop\n    /* \"practica_2/PollingStation.sol\":220:221  p */\n  dup1\n    /* \"practica_2/PollingStation.sol\":207:217  presidente */\n  0x03\n  0x02\n    /* \"practica_2/PollingStation.sol\":207:221  presidente = p */\n  0x0100\n  exp\n  dup2\n  sload\n  dup2\n  0xffffffffffffffffffffffffffffffffffffffff\n  mul\n  not\n  and\n  swap1\n  dup4\n  0xffffffffffffffffffffffffffffffffffffffff\n  and\n  mul\n  or\n  swap1\n  sstore\n  pop\n    /* \"practica_2/PollingStation.sol\":244:249  false */\n  0x00\n    /* \"practica_2/PollingStation.sol\":227:241  votingFinished */\n  0x03\n  0x00\n    /* \"practica_2/PollingStation.sol\":227:249  votingFinished = false */\n  0x0100\n  exp\n  dup2\n  sload\n  dup2\n  0xff\n  mul\n  not\n  and\n  swap1\n  dup4\n  iszero\n  iszero\n  mul\n  or\n  swap1\n  sstore\n  pop\n    /* \"practica_2/PollingStation.sol\":268:273  false */\n  0x00\n    /* \"practica_2/PollingStation.sol\":255:265  votingOpen */\n  0x03\n  0x01\n    /* \"practica_2/PollingStation.sol\":255:273  votingOpen = false */\n  0x0100\n  exp\n  dup2\n  sload\n  dup2\n  0xff\n  mul\n  not\n  and\n  swap1\n  dup4\n  iszero\n  iszero\n  mul\n  or\n  swap1\n  sstore\n  pop\n    /* \"practica_2/PollingStation.sol\":179:277  constructor(address p){... */\n  pop\n    /* \"practica_2/DhondtPollingStation.sol\":202:340  constructor (address presidente, uint numPartidos, uint idRegion) DhondtElectionRegion(numPartidos, idRegion) PollingStation(presidente){} */\n  pop\n  pop\n  pop\n    /* \"practica_2/DhondtPollingStation.sol\":126:687  contract DhondtPollingStation is DhondtElectionRegion, PollingStation {... */\n  jump(tag_18)\n    /* \"practica_2/DhondtElectionRegion.sol\":390:680  function savedRegionInfo() private{... */\ntag_15:\n    /* \"practica_2/DhondtElectionRegion.sol\":444:445  1 */\n  0x01\n    /* \"practica_2/DhondtElectionRegion.sol\":430:437  weights */\n  0x00\n    /* \"practica_2/DhondtElectionRegion.sol\":430:441  weights[28] */\n  0x00\n    /* \"practica_2/DhondtElectionRegion.sol\":438:440  28 */\n  0x1c\n    /* \"practica_2/DhondtElectionRegion.sol\":430:441  weights[28] */\n  dup2\n  mstore\n  0x20\n  add\n  swap1\n  dup2\n  mstore\n  0x20\n  add\n  0x00\n  keccak256\n    /* \"practica_2/DhondtElectionRegion.sol\":430:445  weights[28] = 1 */\n  dup2\n  swap1\n  sstore\n  pop\n    /* \"practica_2/DhondtElectionRegion.sol\":474:475  1 */\n  0x01\n    /* \"practica_2/DhondtElectionRegion.sol\":461:468  weights */\n  0x00\n    /* \"practica_2/DhondtElectionRegion.sol\":461:471  weights[8] */\n  0x00\n    /* \"practica_2/DhondtElectionRegion.sol\":469:470  8 */\n  0x08\n    /* \"practica_2/DhondtElectionRegion.sol\":461:471  weights[8] */\n  dup2\n  mstore\n  0x20\n  add\n  swap1\n  dup2\n  mstore\n  0x20\n  add\n  0x00\n  keccak256\n    /* \"practica_2/DhondtElectionRegion.sol\":461:475  weights[8] = 1 */\n  dup2\n  swap1\n  sstore\n  pop\n    /* \"practica_2/DhondtElectionRegion.sol\":508:509  1 */\n  0x01\n    /* \"practica_2/DhondtElectionRegion.sol\":494:501  weights */\n  0x00\n    /* \"practica_2/DhondtElectionRegion.sol\":494:505  weights[41] */\n  0x00\n    /* \"practica_2/DhondtElectionRegion.sol\":502:504  41 */\n  0x29\n    /* \"practica_2/DhondtElectionRegion.sol\":494:505  weights[41] */\n  dup2\n  mstore\n  0x20\n  add\n  swap1\n  dup2\n  mstore\n  0x20\n  add\n  0x00\n  keccak256\n    /* \"practica_2/DhondtElectionRegion.sol\":494:509  weights[41] = 1 */\n  dup2\n  swap1\n  sstore\n  pop\n    /* \"practica_2/DhondtElectionRegion.sol\":540:541  5 */\n  0x05\n    /* \"practica_2/DhondtElectionRegion.sol\":526:533  weights */\n  0x00\n    /* \"practica_2/DhondtElectionRegion.sol\":526:537  weights[44] */\n  0x00\n    /* \"practica_2/DhondtElectionRegion.sol\":534:536  44 */\n  0x2c\n    /* \"practica_2/DhondtElectionRegion.sol\":526:537  weights[44] */\n  dup2\n  mstore\n  0x20\n  add\n  swap1\n  dup2\n  mstore\n  0x20\n  add\n  0x00\n  keccak256\n    /* \"practica_2/DhondtElectionRegion.sol\":526:541  weights[44] = 5 */\n  dup2\n  swap1\n  sstore\n  pop\n    /* \"practica_2/DhondtElectionRegion.sol\":571:572  5 */\n  0x05\n    /* \"practica_2/DhondtElectionRegion.sol\":557:564  weights */\n  0x00\n    /* \"practica_2/DhondtElectionRegion.sol\":557:568  weights[42] */\n  0x00\n    /* \"practica_2/DhondtElectionRegion.sol\":565:567  42 */\n  0x2a\n    /* \"practica_2/DhondtElectionRegion.sol\":557:568  weights[42] */\n  dup2\n  mstore\n  0x20\n  add\n  swap1\n  dup2\n  mstore\n  0x20\n  add\n  0x00\n  keccak256\n    /* \"practica_2/DhondtElectionRegion.sol\":557:572  weights[42] = 5 */\n  dup2\n  swap1\n  sstore\n  pop\n    /* \"practica_2/DhondtElectionRegion.sol\":601:602  4 */\n  0x04\n    /* \"practica_2/DhondtElectionRegion.sol\":587:594  weights */\n  0x00\n    /* \"practica_2/DhondtElectionRegion.sol\":587:598  weights[49] */\n  0x00\n    /* \"practica_2/DhondtElectionRegion.sol\":595:597  49 */\n  0x31\n    /* \"practica_2/DhondtElectionRegion.sol\":587:598  weights[49] */\n  dup2\n  mstore\n  0x20\n  add\n  swap1\n  dup2\n  mstore\n  0x20\n  add\n  0x00\n  keccak256\n    /* \"practica_2/DhondtElectionRegion.sol\":587:602  weights[49] = 4 */\n  dup2\n  swap1\n  sstore\n  pop\n    /* \"practica_2/DhondtElectionRegion.sol\":631:632  4 */\n  0x04\n    /* \"practica_2/DhondtElectionRegion.sol\":618:625  weights */\n  0x00\n    /* \"practica_2/DhondtElectionRegion.sol\":618:628  weights[9] */\n  0x00\n    /* \"practica_2/DhondtElectionRegion.sol\":626:627  9 */\n  0x09\n    /* \"practica_2/DhondtElectionRegion.sol\":618:628  weights[9] */\n  dup2\n  mstore\n  0x20\n  add\n  swap1\n  dup2\n  mstore\n  0x20\n  add\n  0x00\n  keccak256\n    /* \"practica_2/DhondtElectionRegion.sol\":618:632  weights[9] = 4 */\n  dup2\n  swap1\n  sstore\n  pop\n    /* \"practica_2/DhondtElectionRegion.sol\":662:663  2 */\n  0x02\n    /* \"practica_2/DhondtElectionRegion.sol\":648:655  weights */\n  0x00\n    /* \"practica_2/DhondtElectionRegion.sol\":648:659  weights[29] */\n  0x00\n    /* \"practica_2/DhondtElectionRegion.sol\":656:658  29 */\n  0x1d\n    /* \"practica_2/DhondtElectionRegion.sol\":648:659  weights[29] */\n  dup2\n  mstore\n  0x20\n  add\n  swap1\n  dup2\n  mstore\n  0x20\n  add\n  0x00\n  keccak256\n    /* \"practica_2/DhondtElectionRegion.sol\":648:663  weights[29] = 2 */\n  dup2\n  swap1\n  sstore\n  pop\n    /* \"practica_2/DhondtElectionRegion.sol\":390:680  function savedRegionInfo() private{... */\n  jump\t// out\n    /* \"practica_2/DhondtPollingStation.sol\":126:687  contract DhondtPollingStation is DhondtElectionRegion, PollingStation {... */\ntag_13:\n  dup3\n  dup1\n  sload\n  dup3\n  dup3\n  sstore\n  swap1\n  0x00\n  mstore\n  keccak256(0x00, 0x20)\n  swap1\n  dup2\n  add\n  swap3\n  dup3\n  iszero\n  tag_20\n  jumpi\n  swap2\n  0x20\n  mul\n  dup3\n  add\ntag_21:\n  dup3\n  dup2\n  gt\n  iszero\n  tag_22\n  jumpi\n  dup3\n  mload\n  dup3\n  sstore\n  swap2\n  0x20\n  add\n  swap2\n  swap1\n  0x01\n  add\n  swap1\n  jump(tag_21)\ntag_22:\ntag_20:\n  pop\n  swap1\n  pop\n  tag_23\n  swap2\n  swap1\n  tag_24\n  jump\t// in\ntag_23:\n  pop\n  swap1\n  jump\t// out\ntag_24:\ntag_25:\n  dup1\n  dup3\n  gt\n  iszero\n  tag_26\n  jumpi\n  0x00\n  dup2\n  0x00\n  swap1\n  sstore\n  pop\n  0x01\n  add\n  jump(tag_25)\ntag_26:\n  pop\n  swap1\n  jump\t// out\n    /* \"#utility.yul\":88:205   */\ntag_28:\n    /* \"#utility.yul\":197:198   */\n  0x00\n    /* \"#utility.yul\":194:195   */\n  0x00\n    /* \"#utility.yul\":187:199   */\n  revert\n    /* \"#utility.yul\":334:460   */\ntag_30:\n    /* \"#utility.yul\":371:378   */\n  0x00\n    /* \"#utility.yul\":411:453   */\n  0xffffffffffffffffffffffffffffffffffffffff\n    /* \"#utility.yul\":404:409   */\n  dup3\n    /* \"#utility.yul\":400:454   */\n  and\n    /* \"#utility.yul\":389:454   */\n  swap1\n  pop\n    /* \"#utility.yul\":334:460   */\n  swap2\n  swap1\n  pop\n  jump\t// out\n    /* \"#utility.yul\":466:562   */\ntag_31:\n    /* \"#utility.yul\":503:510   */\n  0x00\n    /* \"#utility.yul\":532:556   */\n  tag_43\n    /* \"#utility.yul\":550:555   */\n  dup3\n    /* \"#utility.yul\":532:556   */\n  tag_30\n  jump\t// in\ntag_43:\n    /* \"#utility.yul\":521:556   */\n  swap1\n  pop\n    /* \"#utility.yul\":466:562   */\n  swap2\n  swap1\n  pop\n  jump\t// out\n    /* \"#utility.yul\":568:690   */\ntag_32:\n    /* \"#utility.yul\":641:665   */\n  tag_45\n    /* \"#utility.yul\":659:664   */\n  dup2\n    /* \"#utility.yul\":641:665   */\n  tag_31\n  jump\t// in\ntag_45:\n    /* \"#utility.yul\":634:639   */\n  dup2\n    /* \"#utility.yul\":631:666   */\n  eq\n    /* \"#utility.yul\":621:684   */\n  tag_46\n  jumpi\n    /* \"#utility.yul\":680:681   */\n  0x00\n    /* \"#utility.yul\":677:678   */\n  0x00\n    /* \"#utility.yul\":670:682   */\n  revert\n    /* \"#utility.yul\":621:684   */\ntag_46:\n    /* \"#utility.yul\":568:690   */\n  pop\n  jump\t// out\n    /* \"#utility.yul\":696:839   */\ntag_33:\n    /* \"#utility.yul\":753:758   */\n  0x00\n    /* \"#utility.yul\":784:790   */\n  dup2\n    /* \"#utility.yul\":778:791   */\n  mload\n    /* \"#utility.yul\":769:791   */\n  swap1\n  pop\n    /* \"#utility.yul\":800:833   */\n  tag_48\n    /* \"#utility.yul\":827:832   */\n  dup2\n    /* \"#utility.yul\":800:833   */\n  tag_32\n  jump\t// in\ntag_48:\n    /* \"#utility.yul\":696:839   */\n  swap3\n  swap2\n  pop\n  pop\n  jump\t// out\n    /* \"#utility.yul\":845:922   */\ntag_34:\n    /* \"#utility.yul\":882:889   */\n  0x00\n    /* \"#utility.yul\":911:916   */\n  dup2\n    /* \"#utility.yul\":900:916   */\n  swap1\n  pop\n    /* \"#utility.yul\":845:922   */\n  swap2\n  swap1\n  pop\n  jump\t// out\n    /* \"#utility.yul\":928:1050   */\ntag_35:\n    /* \"#utility.yul\":1001:1025   */\n  tag_51\n    /* \"#utility.yul\":1019:1024   */\n  dup2\n    /* \"#utility.yul\":1001:1025   */\n  tag_34\n  jump\t// in\ntag_51:\n    /* \"#utility.yul\":994:999   */\n  dup2\n    /* \"#utility.yul\":991:1026   */\n  eq\n    /* \"#utility.yul\":981:1044   */\n  tag_52\n  jumpi\n    /* \"#utility.yul\":1040:1041   */\n  0x00\n    /* \"#utility.yul\":1037:1038   */\n  0x00\n    /* \"#utility.yul\":1030:1042   */\n  revert\n    /* \"#utility.yul\":981:1044   */\ntag_52:\n    /* \"#utility.yul\":928:1050   */\n  pop\n  jump\t// out\n    /* \"#utility.yul\":1056:1199   */\ntag_36:\n    /* \"#utility.yul\":1113:1118   */\n  0x00\n    /* \"#utility.yul\":1144:1150   */\n  dup2\n    /* \"#utility.yul\":1138:1151   */\n  mload\n    /* \"#utility.yul\":1129:1151   */\n  swap1\n  pop\n    /* \"#utility.yul\":1160:1193   */\n  tag_54\n    /* \"#utility.yul\":1187:1192   */\n  dup2\n    /* \"#utility.yul\":1160:1193   */\n  tag_35\n  jump\t// in\ntag_54:\n    /* \"#utility.yul\":1056:1199   */\n  swap3\n  swap2\n  pop\n  pop\n  jump\t// out\n    /* \"#utility.yul\":1205:1868   */\ntag_3:\n    /* \"#utility.yul\":1293:1299   */\n  0x00\n    /* \"#utility.yul\":1301:1307   */\n  0x00\n    /* \"#utility.yul\":1309:1315   */\n  0x00\n    /* \"#utility.yul\":1358:1360   */\n  0x60\n    /* \"#utility.yul\":1346:1355   */\n  dup5\n    /* \"#utility.yul\":1337:1344   */\n  dup7\n    /* \"#utility.yul\":1333:1356   */\n  sub\n    /* \"#utility.yul\":1329:1361   */\n  slt\n    /* \"#utility.yul\":1326:1445   */\n  iszero\n  tag_56\n  jumpi\n    /* \"#utility.yul\":1364:1443   */\n  tag_57\n  tag_28\n  jump\t// in\ntag_57:\n    /* \"#utility.yul\":1326:1445   */\ntag_56:\n    /* \"#utility.yul\":1484:1485   */\n  0x00\n    /* \"#utility.yul\":1509:1573   */\n  tag_58\n    /* \"#utility.yul\":1565:1572   */\n  dup7\n    /* \"#utility.yul\":1556:1562   */\n  dup3\n    /* \"#utility.yul\":1545:1554   */\n  dup8\n    /* \"#utility.yul\":1541:1563   */\n  add\n    /* \"#utility.yul\":1509:1573   */\n  tag_33\n  jump\t// in\ntag_58:\n    /* \"#utility.yul\":1499:1573   */\n  swap4\n  pop\n    /* \"#utility.yul\":1455:1583   */\n  pop\n    /* \"#utility.yul\":1622:1624   */\n  0x20\n    /* \"#utility.yul\":1648:1712   */\n  tag_59\n    /* \"#utility.yul\":1704:1711   */\n  dup7\n    /* \"#utility.yul\":1695:1701   */\n  dup3\n    /* \"#utility.yul\":1684:1693   */\n  dup8\n    /* \"#utility.yul\":1680:1702   */\n  add\n    /* \"#utility.yul\":1648:1712   */\n  tag_36\n  jump\t// in\ntag_59:\n    /* \"#utility.yul\":1638:1712   */\n  swap3\n  pop\n    /* \"#utility.yul\":1593:1722   */\n  pop\n    /* \"#utility.yul\":1761:1763   */\n  0x40\n    /* \"#utility.yul\":1787:1851   */\n  tag_60\n    /* \"#utility.yul\":1843:1850   */\n  dup7\n    /* \"#utility.yul\":1834:1840   */\n  dup3\n    /* \"#utility.yul\":1823:1832   */\n  dup8\n    /* \"#utility.yul\":1819:1841   */\n  add\n    /* \"#utility.yul\":1787:1851   */\n  tag_36\n  jump\t// in\ntag_60:\n    /* \"#utility.yul\":1777:1851   */\n  swap2\n  pop\n    /* \"#utility.yul\":1732:1861   */\n  pop\n    /* \"#utility.yul\":1205:1868   */\n  swap3\n  pop\n  swap3\n  pop\n  swap3\n  jump\t// out\n    /* \"#utility.yul\":1874:2054   */\ntag_10:\n    /* \"#utility.yul\":1922:1999   */\n  0x4e487b7100000000000000000000000000000000000000000000000000000000\n    /* \"#utility.yul\":1919:1920   */\n  0x00\n    /* \"#utility.yul\":1912:2000   */\n  mstore\n    /* \"#utility.yul\":2019:2023   */\n  0x41\n    /* \"#utility.yul\":2016:2017   */\n  0x04\n    /* \"#utility.yul\":2009:2024   */\n  mstore\n    /* \"#utility.yul\":2043:2047   */\n  0x24\n    /* \"#utility.yul\":2040:2041   */\n  0x00\n    /* \"#utility.yul\":2033:2048   */\n  revert\n    /* \"practica_2/DhondtPollingStation.sol\":126:687  contract DhondtPollingStation is DhondtElectionRegion, PollingStation {... */\ntag_18:\n  mload(0x80)\n  codecopy(0x00, dataOffset(sub_0), dataSize(sub_0))\n  0x00\n  assignImmutable(\"0x7f8b6b088b6d74c2852fc86c796dca07b44eed6fb3daf5e6b59f7c364db14528\")\n  return(0x00, dataSize(sub_0))\nstop\n\nsub_0: assembly {\n        /* \"practica_2/DhondtPollingStation.sol\":126:687  contract DhondtPollingStation is DhondtElectionRegion, PollingStation {... */\n      mstore(0x40, 0x80)\n      callvalue\n      dup1\n      iszero\n      tag_1\n      jumpi\n      revert(0x00, 0x00)\n    tag_1:\n      pop\n      jumpi(tag_2, lt(calldatasize, 0x04))\n      shr(0xe0, calldataload(0x00))\n      dup1\n      0x3eb76b9c\n      eq\n      tag_3\n      jumpi\n      dup1\n      0x4717f97c\n      eq\n      tag_4\n      jumpi\n      dup1\n      0x789d9e8a\n      eq\n      tag_5\n      jumpi\n      dup1\n      0xaffc0670\n      eq\n      tag_6\n      jumpi\n      dup1\n      0xc631b292\n      eq\n      tag_7\n      jumpi\n    tag_2:\n      revert(0x00, 0x00)\n        /* \"practica_2/DhondtPollingStation.sol\":350:512  function castVote(uint partidoId)  external override votoValido{... */\n    tag_3:\n      tag_8\n      0x04\n      dup1\n      calldatasize\n      sub\n      dup2\n      add\n      swap1\n      tag_9\n      swap2\n      swap1\n      tag_10\n      jump\t// in\n    tag_9:\n      tag_11\n      jump\t// in\n    tag_8:\n      stop\n        /* \"practica_2/DhondtPollingStation.sol\":518:685  function getResults() external override view returns(uint[] memory){... */\n    tag_4:\n      tag_12\n      tag_13\n      jump\t// in\n    tag_12:\n      mload(0x40)\n      tag_14\n      swap2\n      swap1\n      tag_15\n      jump\t// in\n    tag_14:\n      mload(0x40)\n      dup1\n      swap2\n      sub\n      swap1\n      return\n        /* \"practica_2/PollingStation.sol\":95:121  bool public votingFinished */\n    tag_5:\n      tag_16\n      tag_17\n      jump\t// in\n    tag_16:\n      mload(0x40)\n      tag_18\n      swap2\n      swap1\n      tag_19\n      jump\t// in\n    tag_18:\n      mload(0x40)\n      dup1\n      swap2\n      sub\n      swap1\n      return\n        /* \"practica_2/PollingStation.sol\":512:586  function openVoting() external presidenteValido{... */\n    tag_6:\n      tag_20\n      tag_21\n      jump\t// in\n    tag_20:\n      stop\n        /* \"practica_2/PollingStation.sol\":589:693  function closeVoting() external presidenteValido {... */\n    tag_7:\n      tag_22\n      tag_23\n      jump\t// in\n    tag_22:\n      stop\n        /* \"practica_2/DhondtPollingStation.sol\":350:512  function castVote(uint partidoId)  external override votoValido{... */\n    tag_11:\n        /* \"practica_2/PollingStation.sol\":444:448  true */\n      0x01\n        /* \"practica_2/PollingStation.sol\":430:448  votingOpen == true */\n      iszero\n      iszero\n        /* \"practica_2/PollingStation.sol\":430:440  votingOpen */\n      0x03\n      0x01\n      swap1\n      sload\n      swap1\n      0x0100\n      exp\n      swap1\n      div\n      0xff\n      and\n        /* \"practica_2/PollingStation.sol\":430:448  votingOpen == true */\n      iszero\n      iszero\n      eq\n        /* \"practica_2/PollingStation.sol\":429:478  (votingOpen == true) && (votingFinished == false) */\n      dup1\n      iszero\n      tag_25\n      jumpi\n      pop\n        /* \"practica_2/PollingStation.sol\":472:477  false */\n      0x00\n        /* \"practica_2/PollingStation.sol\":454:477  votingFinished == false */\n      iszero\n      iszero\n        /* \"practica_2/PollingStation.sol\":454:468  votingFinished */\n      0x03\n      0x00\n      swap1\n      sload\n      swap1\n      0x0100\n      exp\n      swap1\n      div\n      0xff\n      and\n        /* \"practica_2/PollingStation.sol\":454:477  votingFinished == false */\n      iszero\n      iszero\n      eq\n        /* \"practica_2/PollingStation.sol\":429:478  (votingOpen == true) && (votingFinished == false) */\n    tag_25:\n        /* \"practica_2/PollingStation.sol\":420:499  require( (votingOpen == true) && (votingFinished == false), \"Votacion cerrada\") */\n      tag_26\n      jumpi\n      mload(0x40)\n      0x08c379a000000000000000000000000000000000000000000000000000000000\n      dup2\n      mstore\n      0x04\n      add\n      tag_27\n      swap1\n      tag_28\n      jump\t// in\n    tag_27:\n      mload(0x40)\n      dup1\n      swap2\n      sub\n      swap1\n      revert\n    tag_26:\n        /* \"practica_2/DhondtPollingStation.sol\":423:434  bool valido */\n      0x00\n        /* \"practica_2/DhondtPollingStation.sol\":437:460  registerVote(partidoId) */\n      tag_30\n        /* \"practica_2/DhondtPollingStation.sol\":450:459  partidoId */\n      dup3\n        /* \"practica_2/DhondtPollingStation.sol\":437:449  registerVote */\n      tag_31\n        /* \"practica_2/DhondtPollingStation.sol\":437:460  registerVote(partidoId) */\n      jump\t// in\n    tag_30:\n        /* \"practica_2/DhondtPollingStation.sol\":423:460  bool valido = registerVote(partidoId) */\n      swap1\n      pop\n        /* \"practica_2/DhondtPollingStation.sol\":478:484  valido */\n      dup1\n        /* \"practica_2/DhondtPollingStation.sol\":470:505  require(valido, \"Partido invalido\") */\n      tag_32\n      jumpi\n      mload(0x40)\n      0x08c379a000000000000000000000000000000000000000000000000000000000\n      dup2\n      mstore\n      0x04\n      add\n      tag_33\n      swap1\n      tag_34\n      jump\t// in\n    tag_33:\n      mload(0x40)\n      dup1\n      swap2\n      sub\n      swap1\n      revert\n    tag_32:\n        /* \"practica_2/DhondtPollingStation.sol\":413:512  {... */\n      pop\n        /* \"practica_2/DhondtPollingStation.sol\":350:512  function castVote(uint partidoId)  external override votoValido{... */\n      pop\n      jump\t// out\n        /* \"practica_2/DhondtPollingStation.sol\":518:685  function getResults() external override view returns(uint[] memory){... */\n    tag_13:\n        /* \"practica_2/DhondtPollingStation.sol\":571:584  uint[] memory */\n      0x60\n        /* \"practica_2/DhondtPollingStation.sol\":621:625  true */\n      0x01\n        /* \"practica_2/DhondtPollingStation.sol\":603:625  votingFinished == true */\n      iszero\n      iszero\n        /* \"practica_2/DhondtPollingStation.sol\":603:617  votingFinished */\n      0x03\n      0x00\n      swap1\n      sload\n      swap1\n      0x0100\n      exp\n      swap1\n      div\n      0xff\n      and\n        /* \"practica_2/DhondtPollingStation.sol\":603:625  votingFinished == true */\n      iszero\n      iszero\n      eq\n        /* \"practica_2/DhondtPollingStation.sol\":595:654  require(votingFinished == true, \"Hay una votacion abierta\") */\n      tag_36\n      jumpi\n      mload(0x40)\n      0x08c379a000000000000000000000000000000000000000000000000000000000\n      dup2\n      mstore\n      0x04\n      add\n      tag_37\n      swap1\n      tag_38\n      jump\t// in\n    tag_37:\n      mload(0x40)\n      dup1\n      swap2\n      sub\n      swap1\n      revert\n    tag_36:\n        /* \"practica_2/DhondtPollingStation.sol\":671:678  results */\n      0x02\n        /* \"practica_2/DhondtPollingStation.sol\":664:678  return results */\n      dup1\n      sload\n      dup1\n      0x20\n      mul\n      0x20\n      add\n      mload(0x40)\n      swap1\n      dup2\n      add\n      0x40\n      mstore\n      dup1\n      swap3\n      swap2\n      swap1\n      dup2\n      dup2\n      mstore\n      0x20\n      add\n      dup3\n      dup1\n      sload\n      dup1\n      iszero\n      tag_39\n      jumpi\n      0x20\n      mul\n      dup3\n      add\n      swap2\n      swap1\n      0x00\n      mstore\n      keccak256(0x00, 0x20)\n      swap1\n    tag_40:\n      dup2\n      sload\n      dup2\n      mstore\n      0x20\n      add\n      swap1\n      0x01\n      add\n      swap1\n      dup1\n      dup4\n      gt\n      tag_40\n      jumpi\n    tag_39:\n      pop\n      pop\n      pop\n      pop\n      pop\n      swap1\n      pop\n        /* \"practica_2/DhondtPollingStation.sol\":518:685  function getResults() external override view returns(uint[] memory){... */\n      swap1\n      jump\t// out\n        /* \"practica_2/PollingStation.sol\":95:121  bool public votingFinished */\n    tag_17:\n      0x03\n      0x00\n      swap1\n      sload\n      swap1\n      0x0100\n      exp\n      swap1\n      div\n      0xff\n      and\n      dup2\n      jump\t// out\n        /* \"practica_2/PollingStation.sol\":512:586  function openVoting() external presidenteValido{... */\n    tag_21:\n        /* \"practica_2/PollingStation.sol\":336:346  msg.sender */\n      caller\n        /* \"practica_2/PollingStation.sol\":322:346  presidente == msg.sender */\n      0xffffffffffffffffffffffffffffffffffffffff\n      and\n        /* \"practica_2/PollingStation.sol\":322:332  presidente */\n      0x03\n      0x02\n      swap1\n      sload\n      swap1\n      0x0100\n      exp\n      swap1\n      div\n      0xffffffffffffffffffffffffffffffffffffffff\n      and\n        /* \"practica_2/PollingStation.sol\":322:346  presidente == msg.sender */\n      0xffffffffffffffffffffffffffffffffffffffff\n      and\n      eq\n        /* \"practica_2/PollingStation.sol\":314:381  require(presidente == msg.sender, \"no es el presidente de la mesa\") */\n      tag_42\n      jumpi\n      mload(0x40)\n      0x08c379a000000000000000000000000000000000000000000000000000000000\n      dup2\n      mstore\n      0x04\n      add\n      tag_43\n      swap1\n      tag_44\n      jump\t// in\n    tag_43:\n      mload(0x40)\n      dup1\n      swap2\n      sub\n      swap1\n      revert\n    tag_42:\n        /* \"practica_2/PollingStation.sol\":578:582  true */\n      0x01\n        /* \"practica_2/PollingStation.sol\":565:575  votingOpen */\n      0x03\n      0x01\n        /* \"practica_2/PollingStation.sol\":565:582  votingOpen = true */\n      0x0100\n      exp\n      dup2\n      sload\n      dup2\n      0xff\n      mul\n      not\n      and\n      swap1\n      dup4\n      iszero\n      iszero\n      mul\n      or\n      swap1\n      sstore\n      pop\n        /* \"practica_2/PollingStation.sol\":512:586  function openVoting() external presidenteValido{... */\n      jump\t// out\n        /* \"practica_2/PollingStation.sol\":589:693  function closeVoting() external presidenteValido {... */\n    tag_23:\n        /* \"practica_2/PollingStation.sol\":336:346  msg.sender */\n      caller\n        /* \"practica_2/PollingStation.sol\":322:346  presidente == msg.sender */\n      0xffffffffffffffffffffffffffffffffffffffff\n      and\n        /* \"practica_2/PollingStation.sol\":322:332  presidente */\n      0x03\n      0x02\n      swap1\n      sload\n      swap1\n      0x0100\n      exp\n      swap1\n      div\n      0xffffffffffffffffffffffffffffffffffffffff\n      and\n        /* \"practica_2/PollingStation.sol\":322:346  presidente == msg.sender */\n      0xffffffffffffffffffffffffffffffffffffffff\n      and\n      eq\n        /* \"practica_2/PollingStation.sol\":314:381  require(presidente == msg.sender, \"no es el presidente de la mesa\") */\n      tag_47\n      jumpi\n      mload(0x40)\n      0x08c379a000000000000000000000000000000000000000000000000000000000\n      dup2\n      mstore\n      0x04\n      add\n      tag_48\n      swap1\n      tag_44\n      jump\t// in\n    tag_48:\n      mload(0x40)\n      dup1\n      swap2\n      sub\n      swap1\n      revert\n    tag_47:\n        /* \"practica_2/PollingStation.sol\":657:662  false */\n      0x00\n        /* \"practica_2/PollingStation.sol\":644:654  votingOpen */\n      0x03\n      0x01\n        /* \"practica_2/PollingStation.sol\":644:662  votingOpen = false */\n      0x0100\n      exp\n      dup2\n      sload\n      dup2\n      0xff\n      mul\n      not\n      and\n      swap1\n      dup4\n      iszero\n      iszero\n      mul\n      or\n      swap1\n      sstore\n      pop\n        /* \"practica_2/PollingStation.sol\":685:689  true */\n      0x01\n        /* \"practica_2/PollingStation.sol\":668:682  votingFinished */\n      0x03\n      0x00\n        /* \"practica_2/PollingStation.sol\":668:689  votingFinished = true */\n      0x0100\n      exp\n      dup2\n      sload\n      dup2\n      0xff\n      mul\n      not\n      and\n      swap1\n      dup4\n      iszero\n      iszero\n      mul\n      or\n      swap1\n      sstore\n      pop\n        /* \"practica_2/PollingStation.sol\":589:693  function closeVoting() external presidenteValido {... */\n      jump\t// out\n        /* \"practica_2/DhondtElectionRegion.sol\":686:893  function registerVote(uint partido) internal returns (bool){... */\n    tag_31:\n        /* \"practica_2/DhondtElectionRegion.sol\":740:744  bool */\n      0x00\n        /* \"practica_2/DhondtElectionRegion.sol\":769:781  num_partidos */\n      sload(0x01)\n        /* \"practica_2/DhondtElectionRegion.sol\":758:765  partido */\n      dup3\n        /* \"practica_2/DhondtElectionRegion.sol\":758:781  partido >= num_partidos */\n      lt\n        /* \"practica_2/DhondtElectionRegion.sol\":755:819  if(partido >= num_partidos){... */\n      tag_51\n      jumpi\n        /* \"practica_2/DhondtElectionRegion.sol\":803:808  false */\n      0x00\n        /* \"practica_2/DhondtElectionRegion.sol\":796:808  return false */\n      swap1\n      pop\n      jump(tag_50)\n        /* \"practica_2/DhondtElectionRegion.sol\":755:819  if(partido >= num_partidos){... */\n    tag_51:\n        /* \"practica_2/DhondtElectionRegion.sol\":848:855  weights */\n      0x00\n        /* \"practica_2/DhondtElectionRegion.sol\":848:865  weights[regionId] */\n      0x00\n        /* \"practica_2/DhondtElectionRegion.sol\":856:864  regionId */\n      immutable(\"0x7f8b6b088b6d74c2852fc86c796dca07b44eed6fb3daf5e6b59f7c364db14528\")\n        /* \"practica_2/DhondtElectionRegion.sol\":848:865  weights[regionId] */\n      dup2\n      mstore\n      0x20\n      add\n      swap1\n      dup2\n      mstore\n      0x20\n      add\n      0x00\n      keccak256\n      sload\n        /* \"practica_2/DhondtElectionRegion.sol\":828:835  results */\n      0x02\n        /* \"practica_2/DhondtElectionRegion.sol\":836:843  partido */\n      dup4\n        /* \"practica_2/DhondtElectionRegion.sol\":828:844  results[partido] */\n      dup2\n      sload\n      dup2\n      lt\n      tag_52\n      jumpi\n      tag_53\n      tag_54\n      jump\t// in\n    tag_53:\n    tag_52:\n      swap1\n      0x00\n      mstore\n      keccak256(0x00, 0x20)\n      add\n      0x00\n        /* \"practica_2/DhondtElectionRegion.sol\":828:865  results[partido] += weights[regionId] */\n      dup3\n      dup3\n      sload\n      tag_56\n      swap2\n      swap1\n      tag_57\n      jump\t// in\n    tag_56:\n      swap3\n      pop\n      pop\n      dup2\n      swap1\n      sstore\n      pop\n        /* \"practica_2/DhondtElectionRegion.sol\":882:886  true */\n      0x01\n        /* \"practica_2/DhondtElectionRegion.sol\":875:886  return true */\n      swap1\n      pop\n        /* \"practica_2/DhondtElectionRegion.sol\":686:893  function registerVote(uint partido) internal returns (bool){... */\n    tag_50:\n      swap2\n      swap1\n      pop\n      jump\t// out\n        /* \"#utility.yul\":88:205   */\n    tag_59:\n        /* \"#utility.yul\":197:198   */\n      0x00\n        /* \"#utility.yul\":194:195   */\n      0x00\n        /* \"#utility.yul\":187:199   */\n      revert\n        /* \"#utility.yul\":334:411   */\n    tag_61:\n        /* \"#utility.yul\":371:378   */\n      0x00\n        /* \"#utility.yul\":400:405   */\n      dup2\n        /* \"#utility.yul\":389:405   */\n      swap1\n      pop\n        /* \"#utility.yul\":334:411   */\n      swap2\n      swap1\n      pop\n      jump\t// out\n        /* \"#utility.yul\":417:539   */\n    tag_62:\n        /* \"#utility.yul\":490:514   */\n      tag_89\n        /* \"#utility.yul\":508:513   */\n      dup2\n        /* \"#utility.yul\":490:514   */\n      tag_61\n      jump\t// in\n    tag_89:\n        /* \"#utility.yul\":483:488   */\n      dup2\n        /* \"#utility.yul\":480:515   */\n      eq\n        /* \"#utility.yul\":470:533   */\n      tag_90\n      jumpi\n        /* \"#utility.yul\":529:530   */\n      0x00\n        /* \"#utility.yul\":526:527   */\n      0x00\n        /* \"#utility.yul\":519:531   */\n      revert\n        /* \"#utility.yul\":470:533   */\n    tag_90:\n        /* \"#utility.yul\":417:539   */\n      pop\n      jump\t// out\n        /* \"#utility.yul\":545:684   */\n    tag_63:\n        /* \"#utility.yul\":591:596   */\n      0x00\n        /* \"#utility.yul\":629:635   */\n      dup2\n        /* \"#utility.yul\":616:636   */\n      calldataload\n        /* \"#utility.yul\":607:636   */\n      swap1\n      pop\n        /* \"#utility.yul\":645:678   */\n      tag_92\n        /* \"#utility.yul\":672:677   */\n      dup2\n        /* \"#utility.yul\":645:678   */\n      tag_62\n      jump\t// in\n    tag_92:\n        /* \"#utility.yul\":545:684   */\n      swap3\n      swap2\n      pop\n      pop\n      jump\t// out\n        /* \"#utility.yul\":690:1019   */\n    tag_10:\n        /* \"#utility.yul\":749:755   */\n      0x00\n        /* \"#utility.yul\":798:800   */\n      0x20\n        /* \"#utility.yul\":786:795   */\n      dup3\n        /* \"#utility.yul\":777:784   */\n      dup5\n        /* \"#utility.yul\":773:796   */\n      sub\n        /* \"#utility.yul\":769:801   */\n      slt\n        /* \"#utility.yul\":766:885   */\n      iszero\n      tag_94\n      jumpi\n        /* \"#utility.yul\":804:883   */\n      tag_95\n      tag_59\n      jump\t// in\n    tag_95:\n        /* \"#utility.yul\":766:885   */\n    tag_94:\n        /* \"#utility.yul\":924:925   */\n      0x00\n        /* \"#utility.yul\":949:1002   */\n      tag_96\n        /* \"#utility.yul\":994:1001   */\n      dup5\n        /* \"#utility.yul\":985:991   */\n      dup3\n        /* \"#utility.yul\":974:983   */\n      dup6\n        /* \"#utility.yul\":970:992   */\n      add\n        /* \"#utility.yul\":949:1002   */\n      tag_63\n      jump\t// in\n    tag_96:\n        /* \"#utility.yul\":939:1002   */\n      swap2\n      pop\n        /* \"#utility.yul\":895:1012   */\n      pop\n        /* \"#utility.yul\":690:1019   */\n      swap3\n      swap2\n      pop\n      pop\n      jump\t// out\n        /* \"#utility.yul\":1025:1139   */\n    tag_64:\n        /* \"#utility.yul\":1092:1098   */\n      0x00\n        /* \"#utility.yul\":1126:1131   */\n      dup2\n        /* \"#utility.yul\":1120:1132   */\n      mload\n        /* \"#utility.yul\":1110:1132   */\n      swap1\n      pop\n        /* \"#utility.yul\":1025:1139   */\n      swap2\n      swap1\n      pop\n      jump\t// out\n        /* \"#utility.yul\":1145:1329   */\n    tag_65:\n        /* \"#utility.yul\":1244:1255   */\n      0x00\n        /* \"#utility.yul\":1278:1284   */\n      dup3\n        /* \"#utility.yul\":1273:1276   */\n      dup3\n        /* \"#utility.yul\":1266:1285   */\n      mstore\n        /* \"#utility.yul\":1318:1322   */\n      0x20\n        /* \"#utility.yul\":1313:1316   */\n      dup3\n        /* \"#utility.yul\":1309:1323   */\n      add\n        /* \"#utility.yul\":1294:1323   */\n      swap1\n      pop\n        /* \"#utility.yul\":1145:1329   */\n      swap3\n      swap2\n      pop\n      pop\n      jump\t// out\n        /* \"#utility.yul\":1335:1467   */\n    tag_66:\n        /* \"#utility.yul\":1402:1406   */\n      0x00\n        /* \"#utility.yul\":1425:1428   */\n      dup2\n        /* \"#utility.yul\":1417:1428   */\n      swap1\n      pop\n        /* \"#utility.yul\":1455:1459   */\n      0x20\n        /* \"#utility.yul\":1450:1453   */\n      dup3\n        /* \"#utility.yul\":1446:1460   */\n      add\n        /* \"#utility.yul\":1438:1460   */\n      swap1\n      pop\n        /* \"#utility.yul\":1335:1467   */\n      swap2\n      swap1\n      pop\n      jump\t// out\n        /* \"#utility.yul\":1473:1581   */\n    tag_67:\n        /* \"#utility.yul\":1550:1574   */\n      tag_101\n        /* \"#utility.yul\":1568:1573   */\n      dup2\n        /* \"#utility.yul\":1550:1574   */\n      tag_61\n      jump\t// in\n    tag_101:\n        /* \"#utility.yul\":1545:1548   */\n      dup3\n        /* \"#utility.yul\":1538:1575   */\n      mstore\n        /* \"#utility.yul\":1473:1581   */\n      pop\n      pop\n      jump\t// out\n        /* \"#utility.yul\":1587:1766   */\n    tag_68:\n        /* \"#utility.yul\":1656:1666   */\n      0x00\n        /* \"#utility.yul\":1677:1723   */\n      tag_103\n        /* \"#utility.yul\":1719:1722   */\n      dup4\n        /* \"#utility.yul\":1711:1717   */\n      dup4\n        /* \"#utility.yul\":1677:1723   */\n      tag_67\n      jump\t// in\n    tag_103:\n        /* \"#utility.yul\":1755:1759   */\n      0x20\n        /* \"#utility.yul\":1750:1753   */\n      dup4\n        /* \"#utility.yul\":1746:1760   */\n      add\n        /* \"#utility.yul\":1732:1760   */\n      swap1\n      pop\n        /* \"#utility.yul\":1587:1766   */\n      swap3\n      swap2\n      pop\n      pop\n      jump\t// out\n        /* \"#utility.yul\":1772:1885   */\n    tag_69:\n        /* \"#utility.yul\":1842:1846   */\n      0x00\n        /* \"#utility.yul\":1874:1878   */\n      0x20\n        /* \"#utility.yul\":1869:1872   */\n      dup3\n        /* \"#utility.yul\":1865:1879   */\n      add\n        /* \"#utility.yul\":1857:1879   */\n      swap1\n      pop\n        /* \"#utility.yul\":1772:1885   */\n      swap2\n      swap1\n      pop\n      jump\t// out\n        /* \"#utility.yul\":1921:2653   */\n    tag_70:\n        /* \"#utility.yul\":2040:2043   */\n      0x00\n        /* \"#utility.yul\":2069:2123   */\n      tag_106\n        /* \"#utility.yul\":2117:2122   */\n      dup3\n        /* \"#utility.yul\":2069:2123   */\n      tag_64\n      jump\t// in\n    tag_106:\n        /* \"#utility.yul\":2139:2225   */\n      tag_107\n        /* \"#utility.yul\":2218:2224   */\n      dup2\n        /* \"#utility.yul\":2213:2216   */\n      dup6\n        /* \"#utility.yul\":2139:2225   */\n      tag_65\n      jump\t// in\n    tag_107:\n        /* \"#utility.yul\":2132:2225   */\n      swap4\n      pop\n        /* \"#utility.yul\":2249:2305   */\n      tag_108\n        /* \"#utility.yul\":2299:2304   */\n      dup4\n        /* \"#utility.yul\":2249:2305   */\n      tag_66\n      jump\t// in\n    tag_108:\n        /* \"#utility.yul\":2328:2335   */\n      dup1\n        /* \"#utility.yul\":2359:2360   */\n      0x00\n        /* \"#utility.yul\":2344:2628   */\n    tag_109:\n        /* \"#utility.yul\":2369:2375   */\n      dup4\n        /* \"#utility.yul\":2366:2367   */\n      dup2\n        /* \"#utility.yul\":2363:2376   */\n      lt\n        /* \"#utility.yul\":2344:2628   */\n      iszero\n      tag_111\n      jumpi\n        /* \"#utility.yul\":2445:2451   */\n      dup2\n        /* \"#utility.yul\":2439:2452   */\n      mload\n        /* \"#utility.yul\":2472:2535   */\n      tag_112\n        /* \"#utility.yul\":2531:2534   */\n      dup9\n        /* \"#utility.yul\":2516:2529   */\n      dup3\n        /* \"#utility.yul\":2472:2535   */\n      tag_68\n      jump\t// in\n    tag_112:\n        /* \"#utility.yul\":2465:2535   */\n      swap8\n      pop\n        /* \"#utility.yul\":2558:2618   */\n      tag_113\n        /* \"#utility.yul\":2611:2617   */\n      dup4\n        /* \"#utility.yul\":2558:2618   */\n      tag_69\n      jump\t// in\n    tag_113:\n        /* \"#utility.yul\":2548:2618   */\n      swap3\n      pop\n        /* \"#utility.yul\":2404:2628   */\n      pop\n        /* \"#utility.yul\":2391:2392   */\n      0x01\n        /* \"#utility.yul\":2388:2389   */\n      dup2\n        /* \"#utility.yul\":2384:2393   */\n      add\n        /* \"#utility.yul\":2379:2393   */\n      swap1\n      pop\n        /* \"#utility.yul\":2344:2628   */\n      jump(tag_109)\n    tag_111:\n        /* \"#utility.yul\":2348:2362   */\n      pop\n        /* \"#utility.yul\":2644:2647   */\n      dup6\n        /* \"#utility.yul\":2637:2647   */\n      swap4\n      pop\n        /* \"#utility.yul\":2045:2653   */\n      pop\n      pop\n      pop\n        /* \"#utility.yul\":1921:2653   */\n      swap3\n      swap2\n      pop\n      pop\n      jump\t// out\n        /* \"#utility.yul\":2659:3032   */\n    tag_15:\n        /* \"#utility.yul\":2802:2806   */\n      0x00\n        /* \"#utility.yul\":2840:2842   */\n      0x20\n        /* \"#utility.yul\":2829:2838   */\n      dup3\n        /* \"#utility.yul\":2825:2843   */\n      add\n        /* \"#utility.yul\":2817:2843   */\n      swap1\n      pop\n        /* \"#utility.yul\":2889:2898   */\n      dup2\n        /* \"#utility.yul\":2883:2887   */\n      dup2\n        /* \"#utility.yul\":2879:2899   */\n      sub\n        /* \"#utility.yul\":2875:2876   */\n      0x00\n        /* \"#utility.yul\":2864:2873   */\n      dup4\n        /* \"#utility.yul\":2860:2877   */\n      add\n        /* \"#utility.yul\":2853:2900   */\n      mstore\n        /* \"#utility.yul\":2917:3025   */\n      tag_115\n        /* \"#utility.yul\":3020:3024   */\n      dup2\n        /* \"#utility.yul\":3011:3017   */\n      dup5\n        /* \"#utility.yul\":2917:3025   */\n      tag_70\n      jump\t// in\n    tag_115:\n        /* \"#utility.yul\":2909:3025   */\n      swap1\n      pop\n        /* \"#utility.yul\":2659:3032   */\n      swap3\n      swap2\n      pop\n      pop\n      jump\t// out\n        /* \"#utility.yul\":3038:3128   */\n    tag_71:\n        /* \"#utility.yul\":3072:3079   */\n      0x00\n        /* \"#utility.yul\":3115:3120   */\n      dup2\n        /* \"#utility.yul\":3108:3121   */\n      iszero\n        /* \"#utility.yul\":3101:3122   */\n      iszero\n        /* \"#utility.yul\":3090:3122   */\n      swap1\n      pop\n        /* \"#utility.yul\":3038:3128   */\n      swap2\n      swap1\n      pop\n      jump\t// out\n        /* \"#utility.yul\":3134:3243   */\n    tag_72:\n        /* \"#utility.yul\":3215:3236   */\n      tag_118\n        /* \"#utility.yul\":3230:3235   */\n      dup2\n        /* \"#utility.yul\":3215:3236   */\n      tag_71\n      jump\t// in\n    tag_118:\n        /* \"#utility.yul\":3210:3213   */\n      dup3\n        /* \"#utility.yul\":3203:3237   */\n      mstore\n        /* \"#utility.yul\":3134:3243   */\n      pop\n      pop\n      jump\t// out\n        /* \"#utility.yul\":3249:3459   */\n    tag_19:\n        /* \"#utility.yul\":3336:3340   */\n      0x00\n        /* \"#utility.yul\":3374:3376   */\n      0x20\n        /* \"#utility.yul\":3363:3372   */\n      dup3\n        /* \"#utility.yul\":3359:3377   */\n      add\n        /* \"#utility.yul\":3351:3377   */\n      swap1\n      pop\n        /* \"#utility.yul\":3387:3452   */\n      tag_120\n        /* \"#utility.yul\":3449:3450   */\n      0x00\n        /* \"#utility.yul\":3438:3447   */\n      dup4\n        /* \"#utility.yul\":3434:3451   */\n      add\n        /* \"#utility.yul\":3425:3431   */\n      dup5\n        /* \"#utility.yul\":3387:3452   */\n      tag_72\n      jump\t// in\n    tag_120:\n        /* \"#utility.yul\":3249:3459   */\n      swap3\n      swap2\n      pop\n      pop\n      jump\t// out\n        /* \"#utility.yul\":3465:3634   */\n    tag_73:\n        /* \"#utility.yul\":3549:3560   */\n      0x00\n        /* \"#utility.yul\":3583:3589   */\n      dup3\n        /* \"#utility.yul\":3578:3581   */\n      dup3\n        /* \"#utility.yul\":3571:3590   */\n      mstore\n        /* \"#utility.yul\":3623:3627   */\n      0x20\n        /* \"#utility.yul\":3618:3621   */\n      dup3\n        /* \"#utility.yul\":3614:3628   */\n      add\n        /* \"#utility.yul\":3599:3628   */\n      swap1\n      pop\n        /* \"#utility.yul\":3465:3634   */\n      swap3\n      swap2\n      pop\n      pop\n      jump\t// out\n        /* \"#utility.yul\":3640:3806   */\n    tag_74:\n        /* \"#utility.yul\":3780:3798   */\n      0x566f746163696f6e206365727261646100000000000000000000000000000000\n        /* \"#utility.yul\":3776:3777   */\n      0x00\n        /* \"#utility.yul\":3768:3774   */\n      dup3\n        /* \"#utility.yul\":3764:3778   */\n      add\n        /* \"#utility.yul\":3757:3799   */\n      mstore\n        /* \"#utility.yul\":3640:3806   */\n      pop\n      jump\t// out\n        /* \"#utility.yul\":3812:4178   */\n    tag_75:\n        /* \"#utility.yul\":3954:3957   */\n      0x00\n        /* \"#utility.yul\":3975:4042   */\n      tag_124\n        /* \"#utility.yul\":4039:4041   */\n      0x10\n        /* \"#utility.yul\":4034:4037   */\n      dup4\n        /* \"#utility.yul\":3975:4042   */\n      tag_73\n      jump\t// in\n    tag_124:\n        /* \"#utility.yul\":3968:4042   */\n      swap2\n      pop\n        /* \"#utility.yul\":4051:4144   */\n      tag_125\n        /* \"#utility.yul\":4140:4143   */\n      dup3\n        /* \"#utility.yul\":4051:4144   */\n      tag_74\n      jump\t// in\n    tag_125:\n        /* \"#utility.yul\":4169:4171   */\n      0x20\n        /* \"#utility.yul\":4164:4167   */\n      dup3\n        /* \"#utility.yul\":4160:4172   */\n      add\n        /* \"#utility.yul\":4153:4172   */\n      swap1\n      pop\n        /* \"#utility.yul\":3812:4178   */\n      swap2\n      swap1\n      pop\n      jump\t// out\n        /* \"#utility.yul\":4184:4603   */\n    tag_28:\n        /* \"#utility.yul\":4350:4354   */\n      0x00\n        /* \"#utility.yul\":4388:4390   */\n      0x20\n        /* \"#utility.yul\":4377:4386   */\n      dup3\n        /* \"#utility.yul\":4373:4391   */\n      add\n        /* \"#utility.yul\":4365:4391   */\n      swap1\n      pop\n        /* \"#utility.yul\":4437:4446   */\n      dup2\n        /* \"#utility.yul\":4431:4435   */\n      dup2\n        /* \"#utility.yul\":4427:4447   */\n      sub\n        /* \"#utility.yul\":4423:4424   */\n      0x00\n        /* \"#utility.yul\":4412:4421   */\n      dup4\n        /* \"#utility.yul\":4408:4425   */\n      add\n        /* \"#utility.yul\":4401:4448   */\n      mstore\n        /* \"#utility.yul\":4465:4596   */\n      tag_127\n        /* \"#utility.yul\":4591:4595   */\n      dup2\n        /* \"#utility.yul\":4465:4596   */\n      tag_75\n      jump\t// in\n    tag_127:\n        /* \"#utility.yul\":4457:4596   */\n      swap1\n      pop\n        /* \"#utility.yul\":4184:4603   */\n      swap2\n      swap1\n      pop\n      jump\t// out\n        /* \"#utility.yul\":4609:4775   */\n    tag_76:\n        /* \"#utility.yul\":4749:4767   */\n      0x5061727469646f20696e76616c69646f00000000000000000000000000000000\n        /* \"#utility.yul\":4745:4746   */\n      0x00\n        /* \"#utility.yul\":4737:4743   */\n      dup3\n        /* \"#utility.yul\":4733:4747   */\n      add\n        /* \"#utility.yul\":4726:4768   */\n      mstore\n        /* \"#utility.yul\":4609:4775   */\n      pop\n      jump\t// out\n        /* \"#utility.yul\":4781:5147   */\n    tag_77:\n        /* \"#utility.yul\":4923:4926   */\n      0x00\n        /* \"#utility.yul\":4944:5011   */\n      tag_130\n        /* \"#utility.yul\":5008:5010   */\n      0x10\n        /* \"#utility.yul\":5003:5006   */\n      dup4\n        /* \"#utility.yul\":4944:5011   */\n      tag_73\n      jump\t// in\n    tag_130:\n        /* \"#utility.yul\":4937:5011   */\n      swap2\n      pop\n        /* \"#utility.yul\":5020:5113   */\n      tag_131\n        /* \"#utility.yul\":5109:5112   */\n      dup3\n        /* \"#utility.yul\":5020:5113   */\n      tag_76\n      jump\t// in\n    tag_131:\n        /* \"#utility.yul\":5138:5140   */\n      0x20\n        /* \"#utility.yul\":5133:5136   */\n      dup3\n        /* \"#utility.yul\":5129:5141   */\n      add\n        /* \"#utility.yul\":5122:5141   */\n      swap1\n      pop\n        /* \"#utility.yul\":4781:5147   */\n      swap2\n      swap1\n      pop\n      jump\t// out\n        /* \"#utility.yul\":5153:5572   */\n    tag_34:\n        /* \"#utility.yul\":5319:5323   */\n      0x00\n        /* \"#utility.yul\":5357:5359   */\n      0x20\n        /* \"#utility.yul\":5346:5355   */\n      dup3\n        /* \"#utility.yul\":5342:5360   */\n      add\n        /* \"#utility.yul\":5334:5360   */\n      swap1\n      pop\n        /* \"#utility.yul\":5406:5415   */\n      dup2\n        /* \"#utility.yul\":5400:5404   */\n      dup2\n        /* \"#utility.yul\":5396:5416   */\n      sub\n        /* \"#utility.yul\":5392:5393   */\n      0x00\n        /* \"#utility.yul\":5381:5390   */\n      dup4\n        /* \"#utility.yul\":5377:5394   */\n      add\n        /* \"#utility.yul\":5370:5417   */\n      mstore\n        /* \"#utility.yul\":5434:5565   */\n      tag_133\n        /* \"#utility.yul\":5560:5564   */\n      dup2\n        /* \"#utility.yul\":5434:5565   */\n      tag_77\n      jump\t// in\n    tag_133:\n        /* \"#utility.yul\":5426:5565   */\n      swap1\n      pop\n        /* \"#utility.yul\":5153:5572   */\n      swap2\n      swap1\n      pop\n      jump\t// out\n        /* \"#utility.yul\":5578:5752   */\n    tag_78:\n        /* \"#utility.yul\":5718:5744   */\n      0x48617920756e6120766f746163696f6e20616269657274610000000000000000\n        /* \"#utility.yul\":5714:5715   */\n      0x00\n        /* \"#utility.yul\":5706:5712   */\n      dup3\n        /* \"#utility.yul\":5702:5716   */\n      add\n        /* \"#utility.yul\":5695:5745   */\n      mstore\n        /* \"#utility.yul\":5578:5752   */\n      pop\n      jump\t// out\n        /* \"#utility.yul\":5758:6124   */\n    tag_79:\n        /* \"#utility.yul\":5900:5903   */\n      0x00\n        /* \"#utility.yul\":5921:5988   */\n      tag_136\n        /* \"#utility.yul\":5985:5987   */\n      0x18\n        /* \"#utility.yul\":5980:5983   */\n      dup4\n        /* \"#utility.yul\":5921:5988   */\n      tag_73\n      jump\t// in\n    tag_136:\n        /* \"#utility.yul\":5914:5988   */\n      swap2\n      pop\n        /* \"#utility.yul\":5997:6090   */\n      tag_137\n        /* \"#utility.yul\":6086:6089   */\n      dup3\n        /* \"#utility.yul\":5997:6090   */\n      tag_78\n      jump\t// in\n    tag_137:\n        /* \"#utility.yul\":6115:6117   */\n      0x20\n        /* \"#utility.yul\":6110:6113   */\n      dup3\n        /* \"#utility.yul\":6106:6118   */\n      add\n        /* \"#utility.yul\":6099:6118   */\n      swap1\n      pop\n        /* \"#utility.yul\":5758:6124   */\n      swap2\n      swap1\n      pop\n      jump\t// out\n        /* \"#utility.yul\":6130:6549   */\n    tag_38:\n        /* \"#utility.yul\":6296:6300   */\n      0x00\n        /* \"#utility.yul\":6334:6336   */\n      0x20\n        /* \"#utility.yul\":6323:6332   */\n      dup3\n        /* \"#utility.yul\":6319:6337   */\n      add\n        /* \"#utility.yul\":6311:6337   */\n      swap1\n      pop\n        /* \"#utility.yul\":6383:6392   */\n      dup2\n        /* \"#utility.yul\":6377:6381   */\n      dup2\n        /* \"#utility.yul\":6373:6393   */\n      sub\n        /* \"#utility.yul\":6369:6370   */\n      0x00\n        /* \"#utility.yul\":6358:6367   */\n      dup4\n        /* \"#utility.yul\":6354:6371   */\n      add\n        /* \"#utility.yul\":6347:6394   */\n      mstore\n        /* \"#utility.yul\":6411:6542   */\n      tag_139\n        /* \"#utility.yul\":6537:6541   */\n      dup2\n        /* \"#utility.yul\":6411:6542   */\n      tag_79\n      jump\t// in\n    tag_139:\n        /* \"#utility.yul\":6403:6542   */\n      swap1\n      pop\n        /* \"#utility.yul\":6130:6549   */\n      swap2\n      swap1\n      pop\n      jump\t// out\n        /* \"#utility.yul\":6555:6735   */\n    tag_80:\n        /* \"#utility.yul\":6695:6727   */\n      0x6e6f20657320656c20707265736964656e7465206465206c61206d6573610000\n        /* \"#utility.yul\":6691:6692   */\n      0x00\n        /* \"#utility.yul\":6683:6689   */\n      dup3\n        /* \"#utility.yul\":6679:6693   */\n      add\n        /* \"#utility.yul\":6672:6728   */\n      mstore\n        /* \"#utility.yul\":6555:6735   */\n      pop\n      jump\t// out\n        /* \"#utility.yul\":6741:7107   */\n    tag_81:\n        /* \"#utility.yul\":6883:6886   */\n      0x00\n        /* \"#utility.yul\":6904:6971   */\n      tag_142\n        /* \"#utility.yul\":6968:6970   */\n      0x1e\n        /* \"#utility.yul\":6963:6966   */\n      dup4\n        /* \"#utility.yul\":6904:6971   */\n      tag_73\n      jump\t// in\n    tag_142:\n        /* \"#utility.yul\":6897:6971   */\n      swap2\n      pop\n        /* \"#utility.yul\":6980:7073   */\n      tag_143\n        /* \"#utility.yul\":7069:7072   */\n      dup3\n        /* \"#utility.yul\":6980:7073   */\n      tag_80\n      jump\t// in\n    tag_143:\n        /* \"#utility.yul\":7098:7100   */\n      0x20\n        /* \"#utility.yul\":7093:7096   */\n      dup3\n        /* \"#utility.yul\":7089:7101   */\n      add\n        /* \"#utility.yul\":7082:7101   */\n      swap1\n      pop\n        /* \"#utility.yul\":6741:7107   */\n      swap2\n      swap1\n      pop\n      jump\t// out\n        /* \"#utility.yul\":7113:7532   */\n    tag_44:\n        /* \"#utility.yul\":7279:7283   */\n      0x00\n        /* \"#utility.yul\":7317:7319   */\n      0x20\n        /* \"#utility.yul\":7306:7315   */\n      dup3\n        /* \"#utility.yul\":7302:7320   */\n      add\n        /* \"#utility.yul\":7294:7320   */\n      swap1\n      pop\n        /* \"#utility.yul\":7366:7375   */\n      dup2\n        /* \"#utility.yul\":7360:7364   */\n      dup2\n        /* \"#utility.yul\":7356:7376   */\n      sub\n        /* \"#utility.yul\":7352:7353   */\n      0x00\n        /* \"#utility.yul\":7341:7350   */\n      dup4\n        /* \"#utility.yul\":7337:7354   */\n      add\n        /* \"#utility.yul\":7330:7377   */\n      mstore\n        /* \"#utility.yul\":7394:7525   */\n      tag_145\n        /* \"#utility.yul\":7520:7524   */\n      dup2\n        /* \"#utility.yul\":7394:7525   */\n      tag_81\n      jump\t// in\n    tag_145:\n        /* \"#utility.yul\":7386:7525   */\n      swap1\n      pop\n        /* \"#utility.yul\":7113:7532   */\n      swap2\n      swap1\n      pop\n      jump\t// out\n        /* \"#utility.yul\":7538:7718   */\n    tag_54:\n        /* \"#utility.yul\":7586:7663   */\n      0x4e487b7100000000000000000000000000000000000000000000000000000000\n        /* \"#utility.yul\":7583:7584   */\n      0x00\n        /* \"#utility.yul\":7576:7664   */\n      mstore\n        /* \"#utility.yul\":7683:7687   */\n      0x32\n        /* \"#utility.yul\":7680:7681   */\n      0x04\n        /* \"#utility.yul\":7673:7688   */\n      mstore\n        /* \"#utility.yul\":7707:7711   */\n      0x24\n        /* \"#utility.yul\":7704:7705   */\n      0x00\n        /* \"#utility.yul\":7697:7712   */\n      revert\n        /* \"#utility.yul\":7724:7904   */\n    tag_82:\n        /* \"#utility.yul\":7772:7849   */\n      0x4e487b7100000000000000000000000000000000000000000000000000000000\n        /* \"#utility.yul\":7769:7770   */\n      0x00\n        /* \"#utility.yul\":7762:7850   */\n      mstore\n        /* \"#utility.yul\":7869:7873   */\n      0x11\n        /* \"#utility.yul\":7866:7867   */\n      0x04\n        /* \"#utility.yul\":7859:7874   */\n      mstore\n        /* \"#utility.yul\":7893:7897   */\n      0x24\n        /* \"#utility.yul\":7890:7891   */\n      0x00\n        /* \"#utility.yul\":7883:7898   */\n      revert\n        /* \"#utility.yul\":7910:8101   */\n    tag_57:\n        /* \"#utility.yul\":7950:7953   */\n      0x00\n        /* \"#utility.yul\":7969:7989   */\n      tag_149\n        /* \"#utility.yul\":7987:7988   */\n      dup3\n        /* \"#utility.yul\":7969:7989   */\n      tag_61\n      jump\t// in\n    tag_149:\n        /* \"#utility.yul\":7964:7989   */\n      swap2\n      pop\n        /* \"#utility.yul\":8003:8023   */\n      tag_150\n        /* \"#utility.yul\":8021:8022   */\n      dup4\n        /* \"#utility.yul\":8003:8023   */\n      tag_61\n      jump\t// in\n    tag_150:\n        /* \"#utility.yul\":7998:8023   */\n      swap3\n      pop\n        /* \"#utility.yul\":8046:8047   */\n      dup3\n        /* \"#utility.yul\":8043:8044   */\n      dup3\n        /* \"#utility.yul\":8039:8048   */\n      add\n        /* \"#utility.yul\":8032:8048   */\n      swap1\n      pop\n        /* \"#utility.yul\":8067:8070   */\n      dup1\n        /* \"#utility.yul\":8064:8065   */\n      dup3\n        /* \"#utility.yul\":8061:8071   */\n      gt\n        /* \"#utility.yul\":8058:8094   */\n      iszero\n      tag_151\n      jumpi\n        /* \"#utility.yul\":8074:8092   */\n      tag_152\n      tag_82\n      jump\t// in\n    tag_152:\n        /* \"#utility.yul\":8058:8094   */\n    tag_151:\n        /* \"#utility.yul\":7910:8101   */\n      swap3\n      swap2\n      pop\n      pop\n      jump\t// out\n\n    auxdata: 0xa2646970667358221220b0ee07c1796f476578e6fa82876cb1741374970e610e7ecbdca8dc662960bd9c64736f6c634300081f0033\n}\n",
				"bytecode": {
					"linkReferences": {},
					"object": "60a060405234801561000f575f5ffd5b50604051610b8a380380610b8a833981810160405281019061003191906102e0565b8282828160018190555080608081815250508167ffffffffffffffff81111561005d5761005c610330565b5b60405190808252806020026020018201604052801561008b5781602001602082028036833780820191505090505b50600290805190602001906100a19291906101e9565b506100b061012f60201b60201c565b505080600360026101000a81548173ffffffffffffffffffffffffffffffffffffffff021916908373ffffffffffffffffffffffffffffffffffffffff1602179055505f60035f6101000a81548160ff0219169083151502179055505f600360016101000a81548160ff0219169083151502179055505050505061035d565b60015f5f601c81526020019081526020015f208190555060015f5f600881526020019081526020015f208190555060015f5f602981526020019081526020015f208190555060055f5f602c81526020019081526020015f208190555060055f5f602a81526020019081526020015f208190555060045f5f603181526020019081526020015f208190555060045f5f600981526020019081526020015f208190555060025f5f601d81526020019081526020015f2081905550565b828054828255905f5260205f20908101928215610223579160200282015b82811115610222578251825591602001919060010190610207565b5b5090506102309190610234565b5090565b5b8082111561024b575f815f905550600101610235565b5090565b5f5ffd5b5f73ffffffffffffffffffffffffffffffffffffffff82169050919050565b5f61027c82610253565b9050919050565b61028c81610272565b8114610296575f5ffd5b50565b5f815190506102a781610283565b92915050565b5f819050919050565b6102bf816102ad565b81146102c9575f5ffd5b50565b5f815190506102da816102b6565b92915050565b5f5f5f606084860312156102f7576102f661024f565b5b5f61030486828701610299565b9350506020610315868287016102cc565b9250506040610326868287016102cc565b9150509250925092565b7f4e487b71000000000000000000000000000000000000000000000000000000005f52604160045260245ffd5b6080516108156103755f395f6103ce01526108155ff3fe608060405234801561000f575f5ffd5b5060043610610055575f3560e01c80633eb76b9c146100595780634717f97c14610075578063789d9e8a14610093578063affc0670146100b1578063c631b292146100bb575b5f5ffd5b610073600480360381019061006e919061046d565b6100c5565b005b61007d610188565b60405161008a919061054f565b60405180910390f35b61009b610233565b6040516100a89190610589565b60405180910390f35b6100b9610245565b005b6100c36102f2565b005b60011515600360019054906101000a900460ff1615151480156100f957505f151560035f9054906101000a900460ff161515145b610138576040517f08c379a000000000000000000000000000000000000000000000000000000000815260040161012f906105fc565b60405180910390fd5b5f610142826103b8565b905080610184576040517f08c379a000000000000000000000000000000000000000000000000000000000815260040161017b90610664565b60405180910390fd5b5050565b60606001151560035f9054906101000a900460ff161515146101df576040517f08c379a00000000000000000000000000000000000000000000000000000000081526004016101d6906106cc565b60405180910390fd5b600280548060200260200160405190810160405280929190818152602001828054801561022957602002820191905f5260205f20905b815481526020019060010190808311610215575b5050505050905090565b60035f9054906101000a900460ff1681565b3373ffffffffffffffffffffffffffffffffffffffff16600360029054906101000a900473ffffffffffffffffffffffffffffffffffffffff1673ffffffffffffffffffffffffffffffffffffffff16146102d5576040517f08c379a00000000000000000000000000000000000000000000000000000000081526004016102cc90610734565b60405180910390fd5b6001600360016101000a81548160ff021916908315150217905550565b3373ffffffffffffffffffffffffffffffffffffffff16600360029054906101000a900473ffffffffffffffffffffffffffffffffffffffff1673ffffffffffffffffffffffffffffffffffffffff1614610382576040517f08c379a000000000000000000000000000000000000000000000000000000000815260040161037990610734565b60405180910390fd5b5f600360016101000a81548160ff021916908315150217905550600160035f6101000a81548160ff021916908315150217905550565b5f60015482106103ca575f9050610431565b5f5f7f000000000000000000000000000000000000000000000000000000000000000081526020019081526020015f20546002838154811061040f5761040e610752565b5b905f5260205f20015f82825461042591906107ac565b92505081905550600190505b919050565b5f5ffd5b5f819050919050565b61044c8161043a565b8114610456575f5ffd5b50565b5f8135905061046781610443565b92915050565b5f6020828403121561048257610481610436565b5b5f61048f84828501610459565b91505092915050565b5f81519050919050565b5f82825260208201905092915050565b5f819050602082019050919050565b6104ca8161043a565b82525050565b5f6104db83836104c1565b60208301905092915050565b5f602082019050919050565b5f6104fd82610498565b61050781856104a2565b9350610512836104b2565b805f5b8381101561054257815161052988826104d0565b9750610534836104e7565b925050600181019050610515565b5085935050505092915050565b5f6020820190508181035f83015261056781846104f3565b905092915050565b5f8115159050919050565b6105838161056f565b82525050565b5f60208201905061059c5f83018461057a565b92915050565b5f82825260208201905092915050565b7f566f746163696f6e2063657272616461000000000000000000000000000000005f82015250565b5f6105e66010836105a2565b91506105f1826105b2565b602082019050919050565b5f6020820190508181035f830152610613816105da565b9050919050565b7f5061727469646f20696e76616c69646f000000000000000000000000000000005f82015250565b5f61064e6010836105a2565b91506106598261061a565b602082019050919050565b5f6020820190508181035f83015261067b81610642565b9050919050565b7f48617920756e6120766f746163696f6e206162696572746100000000000000005f82015250565b5f6106b66018836105a2565b91506106c182610682565b602082019050919050565b5f6020820190508181035f8301526106e3816106aa565b9050919050565b7f6e6f20657320656c20707265736964656e7465206465206c61206d65736100005f82015250565b5f61071e601e836105a2565b9150610729826106ea565b602082019050919050565b5f6020820190508181035f83015261074b81610712565b9050919050565b7f4e487b71000000000000000000000000000000000000000000000000000000005f52603260045260245ffd5b7f4e487b71000000000000000000000000000000000000000000000000000000005f52601160045260245ffd5b5f6107b68261043a565b91506107c18361043a565b92508282019050808211156107d9576107d861077f565b5b9291505056fea2646970667358221220b0ee07c1796f476578e6fa82876cb1741374970e610e7ecbdca8dc662960bd9c64736f6c634300081f0033",
					"opcodes": "PUSH1 0xA0 PUSH1 0x40 MSTORE CALLVALUE DUP1 ISZERO PUSH2 0xF JUMPI PUSH0 PUSH0 REVERT JUMPDEST POP PUSH1 0x40 MLOAD PUSH2 0xB8A CODESIZE SUB DUP1 PUSH2 0xB8A DUP4 CODECOPY DUP2 DUP2 ADD PUSH1 0x40 MSTORE DUP2 ADD SWAP1 PUSH2 0x31 SWAP2 SWAP1 PUSH2 0x2E0 JUMP JUMPDEST DUP3 DUP3 DUP3 DUP2 PUSH1 0x1 DUP2 SWAP1 SSTORE POP DUP1 PUSH1 0x80 DUP2 DUP2 MSTORE POP POP DUP2 PUSH8 0xFFFFFFFFFFFFFFFF DUP2 GT ISZERO PUSH2 0x5D JUMPI PUSH2 0x5C PUSH2 0x330 JUMP JUMPDEST JUMPDEST PUSH1 0x40 MLOAD SWAP1 DUP1 DUP3 MSTORE DUP1 PUSH1 0x20 MUL PUSH1 0x20 ADD DUP3 ADD PUSH1 0x40 MSTORE DUP1 ISZERO PUSH2 0x8B JUMPI DUP2 PUSH1 0x20 ADD PUSH1 0x20 DUP3 MUL DUP1 CALLDATASIZE DUP4 CALLDATACOPY DUP1 DUP3 ADD SWAP2 POP POP SWAP1 POP JUMPDEST POP PUSH1 0x2 SWAP1 DUP1 MLOAD SWAP1 PUSH1 0x20 ADD SWAP1 PUSH2 0xA1 SWAP3 SWAP2 SWAP1 PUSH2 0x1E9 JUMP JUMPDEST POP PUSH2 0xB0 PUSH2 0x12F PUSH1 0x20 SHL PUSH1 0x20 SHR JUMP JUMPDEST POP POP DUP1 PUSH1 0x3 PUSH1 0x2 PUSH2 0x100 EXP DUP2 SLOAD DUP2 PUSH20 0xFFFFFFFFFFFFFFFFFFFFFFFFFFFFFFFFFFFFFFFF MUL NOT AND SWAP1 DUP4 PUSH20 0xFFFFFFFFFFFFFFFFFFFFFFFFFFFFFFFFFFFFFFFF AND MUL OR SWAP1 SSTORE POP PUSH0 PUSH1 0x3 PUSH0 PUSH2 0x100 EXP DUP2 SLOAD DUP2 PUSH1 0xFF MUL NOT AND SWAP1 DUP4 ISZERO ISZERO MUL OR SWAP1 SSTORE POP PUSH0 PUSH1 0x3 PUSH1 0x1 PUSH2 0x100 EXP DUP2 SLOAD DUP2 PUSH1 0xFF MUL NOT AND SWAP1 DUP4 ISZERO ISZERO MUL OR SWAP1 SSTORE POP POP POP POP POP PUSH2 0x35D JUMP JUMPDEST PUSH1 0x1 PUSH0 PUSH0 PUSH1 0x1C DUP2 MSTORE PUSH1 0x20 ADD SWAP1 DUP2 MSTORE PUSH1 0x20 ADD PUSH0 KECCAK256 DUP2 SWAP1 SSTORE POP PUSH1 0x1 PUSH0 PUSH0 PUSH1 0x8 DUP2 MSTORE PUSH1 0x20 ADD SWAP1 DUP2 MSTORE PUSH1 0x20 ADD PUSH0 KECCAK256 DUP2 SWAP1 SSTORE POP PUSH1 0x1 PUSH0 PUSH0 PUSH1 0x29 DUP2 MSTORE PUSH1 0x20 ADD SWAP1 DUP2 MSTORE PUSH1 0x20 ADD PUSH0 KECCAK256 DUP2 SWAP1 SSTORE POP PUSH1 0x5 PUSH0 PUSH0 PUSH1 0x2C DUP2 MSTORE PUSH1 0x20 ADD SWAP1 DUP2 MSTORE PUSH1 0x20 ADD PUSH0 KECCAK256 DUP2 SWAP1 SSTORE POP PUSH1 0x5 PUSH0 PUSH0 PUSH1 0x2A DUP2 MSTORE PUSH1 0x20 ADD SWAP1 DUP2 MSTORE PUSH1 0x20 ADD PUSH0 KECCAK256 DUP2 SWAP1 SSTORE POP PUSH1 0x4 PUSH0 PUSH0 PUSH1 0x31 DUP2 MSTORE PUSH1 0x20 ADD SWAP1 DUP2 MSTORE PUSH1 0x20 ADD PUSH0 KECCAK256 DUP2 SWAP1 SSTORE POP PUSH1 0x4 PUSH0 PUSH0 PUSH1 0x9 DUP2 MSTORE PUSH1 0x20 ADD SWAP1 DUP2 MSTORE PUSH1 0x20 ADD PUSH0 KECCAK256 DUP2 SWAP1 SSTORE POP PUSH1 0x2 PUSH0 PUSH0 PUSH1 0x1D DUP2 MSTORE PUSH1 0x20 ADD SWAP1 DUP2 MSTORE PUSH1 0x20 ADD PUSH0 KECCAK256 DUP2 SWAP1 SSTORE POP JUMP JUMPDEST DUP3 DUP1 SLOAD DUP3 DUP3 SSTORE SWAP1 PUSH0 MSTORE PUSH1 0x20 PUSH0 KECCAK256 SWAP1 DUP2 ADD SWAP3 DUP3 ISZERO PUSH2 0x223 JUMPI SWAP2 PUSH1 0x20 MUL DUP3 ADD JUMPDEST DUP3 DUP2 GT ISZERO PUSH2 0x222 JUMPI DUP3 MLOAD DUP3 SSTORE SWAP2 PUSH1 0x20 ADD SWAP2 SWAP1 PUSH1 0x1 ADD SWAP1 PUSH2 0x207 JUMP JUMPDEST JUMPDEST POP SWAP1 POP PUSH2 0x230 SWAP2 SWAP1 PUSH2 0x234 JUMP JUMPDEST POP SWAP1 JUMP JUMPDEST JUMPDEST DUP1 DUP3 GT ISZERO PUSH2 0x24B JUMPI PUSH0 DUP2 PUSH0 SWAP1 SSTORE POP PUSH1 0x1 ADD PUSH2 0x235 JUMP JUMPDEST POP SWAP1 JUMP JUMPDEST PUSH0 PUSH0 REVERT JUMPDEST PUSH0 PUSH20 0xFFFFFFFFFFFFFFFFFFFFFFFFFFFFFFFFFFFFFFFF DUP3 AND SWAP1 POP SWAP2 SWAP1 POP JUMP JUMPDEST PUSH0 PUSH2 0x27C DUP3 PUSH2 0x253 JUMP JUMPDEST SWAP1 POP SWAP2 SWAP1 POP JUMP JUMPDEST PUSH2 0x28C DUP2 PUSH2 0x272 JUMP JUMPDEST DUP2 EQ PUSH2 0x296 JUMPI PUSH0 PUSH0 REVERT JUMPDEST POP JUMP JUMPDEST PUSH0 DUP2 MLOAD SWAP1 POP PUSH2 0x2A7 DUP2 PUSH2 0x283 JUMP JUMPDEST SWAP3 SWAP2 POP POP JUMP JUMPDEST PUSH0 DUP2 SWAP1 POP SWAP2 SWAP1 POP JUMP JUMPDEST PUSH2 0x2BF DUP2 PUSH2 0x2AD JUMP JUMPDEST DUP2 EQ PUSH2 0x2C9 JUMPI PUSH0 PUSH0 REVERT JUMPDEST POP JUMP JUMPDEST PUSH0 DUP2 MLOAD SWAP1 POP PUSH2 0x2DA DUP2 PUSH2 0x2B6 JUMP JUMPDEST SWAP3 SWAP2 POP POP JUMP JUMPDEST PUSH0 PUSH0 PUSH0 PUSH1 0x60 DUP5 DUP7 SUB SLT ISZERO PUSH2 0x2F7 JUMPI PUSH2 0x2F6 PUSH2 0x24F JUMP JUMPDEST JUMPDEST PUSH0 PUSH2 0x304 DUP7 DUP3 DUP8 ADD PUSH2 0x299 JUMP JUMPDEST SWAP4 POP POP PUSH1 0x20 PUSH2 0x315 DUP7 DUP3 DUP8 ADD PUSH2 0x2CC JUMP JUMPDEST SWAP3 POP POP PUSH1 0x40 PUSH2 0x326 DUP7 DUP3 DUP8 ADD PUSH2 0x2CC JUMP JUMPDEST SWAP2 POP POP SWAP3 POP SWAP3 POP SWAP3 JUMP JUMPDEST PUSH32 0x4E487B7100000000000000000000000000000000000000000000000000000000 PUSH0 MSTORE PUSH1 0x41 PUSH1 0x4 MSTORE PUSH1 0x24 PUSH0 REVERT JUMPDEST PUSH1 0x80 MLOAD PUSH2 0x815 PUSH2 0x375 PUSH0 CODECOPY PUSH0 PUSH2 0x3CE ADD MSTORE PUSH2 0x815 PUSH0 RETURN INVALID PUSH1 0x80 PUSH1 0x40 MSTORE CALLVALUE DUP1 ISZERO PUSH2 0xF JUMPI PUSH0 PUSH0 REVERT JUMPDEST POP PUSH1 0x4 CALLDATASIZE LT PUSH2 0x55 JUMPI PUSH0 CALLDATALOAD PUSH1 0xE0 SHR DUP1 PUSH4 0x3EB76B9C EQ PUSH2 0x59 JUMPI DUP1 PUSH4 0x4717F97C EQ PUSH2 0x75 JUMPI DUP1 PUSH4 0x789D9E8A EQ PUSH2 0x93 JUMPI DUP1 PUSH4 0xAFFC0670 EQ PUSH2 0xB1 JUMPI DUP1 PUSH4 0xC631B292 EQ PUSH2 0xBB JUMPI JUMPDEST PUSH0 PUSH0 REVERT JUMPDEST PUSH2 0x73 PUSH1 0x4 DUP1 CALLDATASIZE SUB DUP2 ADD SWAP1 PUSH2 0x6E SWAP2 SWAP1 PUSH2 0x46D JUMP JUMPDEST PUSH2 0xC5 JUMP JUMPDEST STOP JUMPDEST PUSH2 0x7D PUSH2 0x188 JUMP JUMPDEST PUSH1 0x40 MLOAD PUSH2 0x8A SWAP2 SWAP1 PUSH2 0x54F JUMP JUMPDEST PUSH1 0x40 MLOAD DUP1 SWAP2 SUB SWAP1 RETURN JUMPDEST PUSH2 0x9B PUSH2 0x233 JUMP JUMPDEST PUSH1 0x40 MLOAD PUSH2 0xA8 SWAP2 SWAP1 PUSH2 0x589 JUMP JUMPDEST PUSH1 0x40 MLOAD DUP1 SWAP2 SUB SWAP1 RETURN JUMPDEST PUSH2 0xB9 PUSH2 0x245 JUMP JUMPDEST STOP JUMPDEST PUSH2 0xC3 PUSH2 0x2F2 JUMP JUMPDEST STOP JUMPDEST PUSH1 0x1 ISZERO ISZERO PUSH1 0x3 PUSH1 0x1 SWAP1 SLOAD SWAP1 PUSH2 0x100 EXP SWAP1 DIV PUSH1 0xFF AND ISZERO ISZERO EQ DUP1 ISZERO PUSH2 0xF9 JUMPI POP PUSH0 ISZERO ISZERO PUSH1 0x3 PUSH0 SWAP1 SLOAD SWAP1 PUSH2 0x100 EXP SWAP1 DIV PUSH1 0xFF AND ISZERO ISZERO EQ JUMPDEST PUSH2 0x138 JUMPI PUSH1 0x40 MLOAD PUSH32 0x8C379A000000000000000000000000000000000000000000000000000000000 DUP2 MSTORE PUSH1 0x4 ADD PUSH2 0x12F SWAP1 PUSH2 0x5FC JUMP JUMPDEST PUSH1 0x40 MLOAD DUP1 SWAP2 SUB SWAP1 REVERT JUMPDEST PUSH0 PUSH2 0x142 DUP3 PUSH2 0x3B8 JUMP JUMPDEST SWAP1 POP DUP1 PUSH2 0x184 JUMPI PUSH1 0x40 MLOAD PUSH32 0x8C379A000000000000000000000000000000000000000000000000000000000 DUP2 MSTORE PUSH1 0x4 ADD PUSH2 0x17B SWAP1 PUSH2 0x664 JUMP JUMPDEST PUSH1 0x40 MLOAD DUP1 SWAP2 SUB SWAP1 REVERT JUMPDEST POP POP JUMP JUMPDEST PUSH1 0x60 PUSH1 0x1 ISZERO ISZERO PUSH1 0x3 PUSH0 SWAP1 SLOAD SWAP1 PUSH2 0x100 EXP SWAP1 DIV PUSH1 0xFF AND ISZERO ISZERO EQ PUSH2 0x1DF JUMPI PUSH1 0x40 MLOAD PUSH32 0x8C379A000000000000000000000000000000000000000000000000000000000 DUP2 MSTORE PUSH1 0x4 ADD PUSH2 0x1D6 SWAP1 PUSH2 0x6CC JUMP JUMPDEST PUSH1 0x40 MLOAD DUP1 SWAP2 SUB SWAP1 REVERT JUMPDEST PUSH1 0x2 DUP1 SLOAD DUP1 PUSH1 0x20 MUL PUSH1 0x20 ADD PUSH1 0x40 MLOAD SWAP1 DUP2 ADD PUSH1 0x40 MSTORE DUP1 SWAP3 SWAP2 SWAP1 DUP2 DUP2 MSTORE PUSH1 0x20 ADD DUP3 DUP1 SLOAD DUP1 ISZERO PUSH2 0x229 JUMPI PUSH1 0x20 MUL DUP3 ADD SWAP2 SWAP1 PUSH0 MSTORE PUSH1 0x20 PUSH0 KECCAK256 SWAP1 JUMPDEST DUP2 SLOAD DUP2 MSTORE PUSH1 0x20 ADD SWAP1 PUSH1 0x1 ADD SWAP1 DUP1 DUP4 GT PUSH2 0x215 JUMPI JUMPDEST POP POP POP POP POP SWAP1 POP SWAP1 JUMP JUMPDEST PUSH1 0x3 PUSH0 SWAP1 SLOAD SWAP1 PUSH2 0x100 EXP SWAP1 DIV PUSH1 0xFF AND DUP2 JUMP JUMPDEST CALLER PUSH20 0xFFFFFFFFFFFFFFFFFFFFFFFFFFFFFFFFFFFFFFFF AND PUSH1 0x3 PUSH1 0x2 SWAP1 SLOAD SWAP1 PUSH2 0x100 EXP SWAP1 DIV PUSH20 0xFFFFFFFFFFFFFFFFFFFFFFFFFFFFFFFFFFFFFFFF AND PUSH20 0xFFFFFFFFFFFFFFFFFFFFFFFFFFFFFFFFFFFFFFFF AND EQ PUSH2 0x2D5 JUMPI PUSH1 0x40 MLOAD PUSH32 0x8C379A000000000000000000000000000000000000000000000000000000000 DUP2 MSTORE PUSH1 0x4 ADD PUSH2 0x2CC SWAP1 PUSH2 0x734 JUMP JUMPDEST PUSH1 0x40 MLOAD DUP1 SWAP2 SUB SWAP1 REVERT JUMPDEST PUSH1 0x1 PUSH1 0x3 PUSH1 0x1 PUSH2 0x100 EXP DUP2 SLOAD DUP2 PUSH1 0xFF MUL NOT AND SWAP1 DUP4 ISZERO ISZERO MUL OR SWAP1 SSTORE POP JUMP JUMPDEST CALLER PUSH20 0xFFFFFFFFFFFFFFFFFFFFFFFFFFFFFFFFFFFFFFFF AND PUSH1 0x3 PUSH1 0x2 SWAP1 SLOAD SWAP1 PUSH2 0x100 EXP SWAP1 DIV PUSH20 0xFFFFFFFFFFFFFFFFFFFFFFFFFFFFFFFFFFFFFFFF AND PUSH20 0xFFFFFFFFFFFFFFFFFFFFFFFFFFFFFFFFFFFFFFFF AND EQ PUSH2 0x382 JUMPI PUSH1 0x40 MLOAD PUSH32 0x8C379A000000000000000000000000000000000000000000000000000000000 DUP2 MSTORE PUSH1 0x4 ADD PUSH2 0x379 SWAP1 PUSH2 0x734 JUMP JUMPDEST PUSH1 0x40 MLOAD DUP1 SWAP2 SUB SWAP1 REVERT JUMPDEST PUSH0 PUSH1 0x3 PUSH1 0x1 PUSH2 0x100 EXP DUP2 SLOAD DUP2 PUSH1 0xFF MUL NOT AND SWAP1 DUP4 ISZERO ISZERO MUL OR SWAP1 SSTORE POP PUSH1 0x1 PUSH1 0x3 PUSH0 PUSH2 0x100 EXP DUP2 SLOAD DUP2 PUSH1 0xFF MUL NOT AND SWAP1 DUP4 ISZERO ISZERO MUL OR SWAP1 SSTORE POP JUMP JUMPDEST PUSH0 PUSH1 0x1 SLOAD DUP3 LT PUSH2 0x3CA JUMPI PUSH0 SWAP1 POP PUSH2 0x431 JUMP JUMPDEST PUSH0 PUSH0 PUSH32 0x0 DUP2 MSTORE PUSH1 0x20 ADD SWAP1 DUP2 MSTORE PUSH1 0x20 ADD PUSH0 KECCAK256 SLOAD PUSH1 0x2 DUP4 DUP2 SLOAD DUP2 LT PUSH2 0x40F JUMPI PUSH2 0x40E PUSH2 0x752 JUMP JUMPDEST JUMPDEST SWAP1 PUSH0 MSTORE PUSH1 0x20 PUSH0 KECCAK256 ADD PUSH0 DUP3 DUP3 SLOAD PUSH2 0x425 SWAP2 SWAP1 PUSH2 0x7AC JUMP JUMPDEST SWAP3 POP POP DUP2 SWAP1 SSTORE POP PUSH1 0x1 SWAP1 POP JUMPDEST SWAP2 SWAP1 POP JUMP JUMPDEST PUSH0 PUSH0 REVERT JUMPDEST PUSH0 DUP2 SWAP1 POP SWAP2 SWAP1 POP JUMP JUMPDEST PUSH2 0x44C DUP2 PUSH2 0x43A JUMP JUMPDEST DUP2 EQ PUSH2 0x456 JUMPI PUSH0 PUSH0 REVERT JUMPDEST POP JUMP JUMPDEST PUSH0 DUP2 CALLDATALOAD SWAP1 POP PUSH2 0x467 DUP2 PUSH2 0x443 JUMP JUMPDEST SWAP3 SWAP2 POP POP JUMP JUMPDEST PUSH0 PUSH1 0x20 DUP3 DUP5 SUB SLT ISZERO PUSH2 0x482 JUMPI PUSH2 0x481 PUSH2 0x436 JUMP JUMPDEST JUMPDEST PUSH0 PUSH2 0x48F DUP5 DUP3 DUP6 ADD PUSH2 0x459 JUMP JUMPDEST SWAP2 POP POP SWAP3 SWAP2 POP POP JUMP JUMPDEST PUSH0 DUP2 MLOAD SWAP1 POP SWAP2 SWAP1 POP JUMP JUMPDEST PUSH0 DUP3 DUP3 MSTORE PUSH1 0x20 DUP3 ADD SWAP1 POP SWAP3 SWAP2 POP POP JUMP JUMPDEST PUSH0 DUP2 SWAP1 POP PUSH1 0x20 DUP3 ADD SWAP1 POP SWAP2 SWAP1 POP JUMP JUMPDEST PUSH2 0x4CA DUP2 PUSH2 0x43A JUMP JUMPDEST DUP3 MSTORE POP POP JUMP JUMPDEST PUSH0 PUSH2 0x4DB DUP4 DUP4 PUSH2 0x4C1 JUMP JUMPDEST PUSH1 0x20 DUP4 ADD SWAP1 POP SWAP3 SWAP2 POP POP JUMP JUMPDEST PUSH0 PUSH1 0x20 DUP3 ADD SWAP1 POP SWAP2 SWAP1 POP JUMP JUMPDEST PUSH0 PUSH2 0x4FD DUP3 PUSH2 0x498 JUMP JUMPDEST PUSH2 0x507 DUP2 DUP6 PUSH2 0x4A2 JUMP JUMPDEST SWAP4 POP PUSH2 0x512 DUP4 PUSH2 0x4B2 JUMP JUMPDEST DUP1 PUSH0 JUMPDEST DUP4 DUP2 LT ISZERO PUSH2 0x542 JUMPI DUP2 MLOAD PUSH2 0x529 DUP9 DUP3 PUSH2 0x4D0 JUMP JUMPDEST SWAP8 POP PUSH2 0x534 DUP4 PUSH2 0x4E7 JUMP JUMPDEST SWAP3 POP POP PUSH1 0x1 DUP2 ADD SWAP1 POP PUSH2 0x515 JUMP JUMPDEST POP DUP6 SWAP4 POP POP POP POP SWAP3 SWAP2 POP POP JUMP JUMPDEST PUSH0 PUSH1 0x20 DUP3 ADD SWAP1 POP DUP2 DUP2 SUB PUSH0 DUP4 ADD MSTORE PUSH2 0x567 DUP2 DUP5 PUSH2 0x4F3 JUMP JUMPDEST SWAP1 POP SWAP3 SWAP2 POP POP JUMP JUMPDEST PUSH0 DUP2 ISZERO ISZERO SWAP1 POP SWAP2 SWAP1 POP JUMP JUMPDEST PUSH2 0x583 DUP2 PUSH2 0x56F JUMP JUMPDEST DUP3 MSTORE POP POP JUMP JUMPDEST PUSH0 PUSH1 0x20 DUP3 ADD SWAP1 POP PUSH2 0x59C PUSH0 DUP4 ADD DUP5 PUSH2 0x57A JUMP JUMPDEST SWAP3 SWAP2 POP POP JUMP JUMPDEST PUSH0 DUP3 DUP3 MSTORE PUSH1 0x20 DUP3 ADD SWAP1 POP SWAP3 SWAP2 POP POP JUMP JUMPDEST PUSH32 0x566F746163696F6E206365727261646100000000000000000000000000000000 PUSH0 DUP3 ADD MSTORE POP JUMP JUMPDEST PUSH0 PUSH2 0x5E6 PUSH1 0x10 DUP4 PUSH2 0x5A2 JUMP JUMPDEST SWAP2 POP PUSH2 0x5F1 DUP3 PUSH2 0x5B2 JUMP JUMPDEST PUSH1 0x20 DUP3 ADD SWAP1 POP SWAP2 SWAP1 POP JUMP JUMPDEST PUSH0 PUSH1 0x20 DUP3 ADD SWAP1 POP DUP2 DUP2 SUB PUSH0 DUP4 ADD MSTORE PUSH2 0x613 DUP2 PUSH2 0x5DA JUMP JUMPDEST SWAP1 POP SWAP2 SWAP1 POP JUMP JUMPDEST PUSH32 0x5061727469646F20696E76616C69646F00000000000000000000000000000000 PUSH0 DUP3 ADD MSTORE POP JUMP JUMPDEST PUSH0 PUSH2 0x64E PUSH1 0x10 DUP4 PUSH2 0x5A2 JUMP JUMPDEST SWAP2 POP PUSH2 0x659 DUP3 PUSH2 0x61A JUMP JUMPDEST PUSH1 0x20 DUP3 ADD SWAP1 POP SWAP2 SWAP1 POP JUMP JUMPDEST PUSH0 PUSH1 0x20 DUP3 ADD SWAP1 POP DUP2 DUP2 SUB PUSH0 DUP4 ADD MSTORE PUSH2 0x67B DUP2 PUSH2 0x642 JUMP JUMPDEST SWAP1 POP SWAP2 SWAP1 POP JUMP JUMPDEST PUSH32 0x48617920756E6120766F746163696F6E20616269657274610000000000000000 PUSH0 DUP3 ADD MSTORE POP JUMP JUMPDEST PUSH0 PUSH2 0x6B6 PUSH1 0x18 DUP4 PUSH2 0x5A2 JUMP JUMPDEST SWAP2 POP PUSH2 0x6C1 DUP3 PUSH2 0x682 JUMP JUMPDEST PUSH1 0x20 DUP3 ADD SWAP1 POP SWAP2 SWAP1 POP JUMP JUMPDEST PUSH0 PUSH1 0x20 DUP3 ADD SWAP1 POP DUP2 DUP2 SUB PUSH0 DUP4 ADD MSTORE PUSH2 0x6E3 DUP2 PUSH2 0x6AA JUMP JUMPDEST SWAP1 POP SWAP2 SWAP1 POP JUMP JUMPDEST PUSH32 0x6E6F20657320656C20707265736964656E7465206465206C61206D6573610000 PUSH0 DUP3 ADD MSTORE POP JUMP JUMPDEST PUSH0 PUSH2 0x71E PUSH1 0x1E DUP4 PUSH2 0x5A2 JUMP JUMPDEST SWAP2 POP PUSH2 0x729 DUP3 PUSH2 0x6EA JUMP JUMPDEST PUSH1 0x20 DUP3 ADD SWAP1 POP SWAP2 SWAP1 POP JUMP JUMPDEST PUSH0 PUSH1 0x20 DUP3 ADD SWAP1 POP DUP2 DUP2 SUB PUSH0 DUP4 ADD MSTORE PUSH2 0x74B DUP2 PUSH2 0x712 JUMP JUMPDEST SWAP1 POP SWAP2 SWAP1 POP JUMP JUMPDEST PUSH32 0x4E487B7100000000000000000000000000000000000000000000000000000000 PUSH0 MSTORE PUSH1 0x32 PUSH1 0x4 MSTORE PUSH1 0x24 PUSH0 REVERT JUMPDEST PUSH32 0x4E487B7100000000000000000000000000000000000000000000000000000000 PUSH0 MSTORE PUSH1 0x11 PUSH1 0x4 MSTORE PUSH1 0x24 PUSH0 REVERT JUMPDEST PUSH0 PUSH2 0x7B6 DUP3 PUSH2 0x43A JUMP JUMPDEST SWAP2 POP PUSH2 0x7C1 DUP4 PUSH2 0x43A JUMP JUMPDEST SWAP3 POP DUP3 DUP3 ADD SWAP1 POP DUP1 DUP3 GT ISZERO PUSH2 0x7D9 JUMPI PUSH2 0x7D8 PUSH2 0x77F JUMP JUMPDEST JUMPDEST SWAP3 SWAP2 POP POP JUMP INVALID LOG2 PUSH5 0x6970667358 0x22 SLT KECCAK256 0xB0 RETURNCONTRACT 0x7 0xC1 PUSH26 0x6F476578E6FA82876CB1741374970E610E7ECBDCA8DC662960BD SWAP13 PUSH5 0x736F6C6343 STOP ADDMOD 0x1F STOP CALLER "
				},
				"gasEstimates": {
					"creation": {
						"codeDepositCost": "413800",
						"executionCost": "infinite",
						"totalCost": "infinite"
					},
					"external": {
						"castVote(uint256)": "infinite",
						"closeVoting()": "51011",
						"getResults()": "infinite",
						"openVoting()": "26724",
						"votingFinished()": "2488"
					}
				},
				"methodIdentifiers": {
					"castVote(uint256)": "3eb76b9c",
					"closeVoting()": "c631b292",
					"getResults()": "4717f97c",
					"openVoting()": "affc0670",
					"votingFinished()": "789d9e8a"
				}
			},
			"storageLayout": {
				"storage": [
					{
						"astId": 5,
						"contract": "practica_2/DhondtPollingStation.sol:DhondtPollingStation",
						"label": "weights",
						"offset": 0,
						"slot": "0",
						"type": "t_mapping(t_uint256,t_uint256)"
					},
					{
						"astId": 7,
						"contract": "practica_2/DhondtPollingStation.sol:DhondtPollingStation",
						"label": "num_partidos",
						"offset": 0,
						"slot": "1",
						"type": "t_uint256"
					},
					{
						"astId": 10,
						"contract": "practica_2/DhondtPollingStation.sol:DhondtPollingStation",
						"label": "results",
						"offset": 0,
						"slot": "2",
						"type": "t_array(t_uint256)dyn_storage"
					},
					{
						"astId": 426,
						"contract": "practica_2/DhondtPollingStation.sol:DhondtPollingStation",
						"label": "votingFinished",
						"offset": 0,
						"slot": "3",
						"type": "t_bool"
					},
					{
						"astId": 428,
						"contract": "practica_2/DhondtPollingStation.sol:DhondtPollingStation",
						"label": "votingOpen",
						"offset": 1,
						"slot": "3",
						"type": "t_bool"
					},
					{
						"astId": 430,
						"contract": "practica_2/DhondtPollingStation.sol:DhondtPollingStation",
						"label": "presidente",
						"offset": 2,
						"slot": "3",
						"type": "t_address"
					}
				],
				"types": {
					"t_address": {
						"encoding": "inplace",
						"label": "address",
						"numberOfBytes": "20"
					},
					"t_array(t_uint256)dyn_storage": {
						"base": "t_uint256",
						"encoding": "dynamic_array",
						"label": "uint256[]",
						"numberOfBytes": "32"
					},
					"t_bool": {
						"encoding": "inplace",
						"label": "bool",
						"numberOfBytes": "1"
					},
					"t_mapping(t_uint256,t_uint256)": {
						"encoding": "mapping",
						"key": "t_uint256",
						"label": "mapping(uint256 => uint256)",
						"numberOfBytes": "32",
						"value": "t_uint256"
					},
					"t_uint256": {
						"encoding": "inplace",
						"label": "uint256",
						"numberOfBytes": "32"
					}
				}
			},
			"userdoc": {
				"kind": "user",
				"methods": {},
				"version": 1
			}
		}
	}
}