{
	"practica_3/MonsterTokens.sol": {
		"MonsterTokens": {
			"abi": [
				{
					"inputs": [],
					"stateMutability": "nonpayable",
					"type": "constructor"
				},
				{
					"anonymous": false,
					"inputs": [
						{
							"indexed": true,
							"internalType": "address",
							"name": "_owner",
							"type": "address"
						},
						{
							"indexed": true,
							"internalType": "address",
							"name": "_approved",
							"type": "address"
						},
						{
							"indexed": true,
							"internalType": "uint256",
							"name": "_tokenId",
							"type": "uint256"
						}
					],
					"name": "Approval",
					"type": "event"
				},
				{
					"anonymous": false,
					"inputs": [
						{
							"indexed": true,
							"internalType": "address",
							"name": "_from",
							"type": "address"
						},
						{
							"indexed": true,
							"internalType": "address",
							"name": "_to",
							"type": "address"
						},
						{
							"indexed": true,
							"internalType": "uint256",
							"name": "_tokenId",
							"type": "uint256"
						}
					],
					"name": "Transfer",
					"type": "event"
				},
				{
					"inputs": [],
					"name": "FEE",
					"outputs": [
						{
							"internalType": "uint256",
							"name": "",
							"type": "uint256"
						}
					],
					"stateMutability": "view",
					"type": "function"
				},
				{
					"inputs": [
						{
							"internalType": "uint256",
							"name": "token_id_p",
							"type": "uint256"
						},
						{
							"internalType": "string",
							"name": "nombre_arma",
							"type": "string"
						},
						{
							"internalType": "uint256",
							"name": "fire_power",
							"type": "uint256"
						}
					],
					"name": "addWeapon",
					"outputs": [],
					"stateMutability": "payable",
					"type": "function"
				},
				{
					"inputs": [
						{
							"internalType": "address",
							"name": "approved",
							"type": "address"
						},
						{
							"internalType": "uint256",
							"name": "tokenId",
							"type": "uint256"
						}
					],
					"name": "approve",
					"outputs": [],
					"stateMutability": "payable",
					"type": "function"
				},
				{
					"inputs": [
						{
							"internalType": "address",
							"name": "owner",
							"type": "address"
						}
					],
					"name": "balanceOf",
					"outputs": [
						{
							"internalType": "uint256",
							"name": "",
							"type": "uint256"
						}
					],
					"stateMutability": "view",
					"type": "function"
				},
				{
					"inputs": [],
					"name": "collectProfits",
					"outputs": [],
					"stateMutability": "nonpayable",
					"type": "function"
				},
				{
					"inputs": [
						{
							"internalType": "string",
							"name": "nombre",
							"type": "string"
						}
					],
					"name": "createNewToken",
					"outputs": [
						{
							"internalType": "uint256",
							"name": "",
							"type": "uint256"
						}
					],
					"stateMutability": "payable",
					"type": "function"
				},
				{
					"inputs": [
						{
							"internalType": "uint256",
							"name": "tokenId",
							"type": "uint256"
						}
					],
					"name": "getApproved",
					"outputs": [
						{
							"internalType": "address",
							"name": "",
							"type": "address"
						}
					],
					"stateMutability": "view",
					"type": "function"
				},
				{
					"inputs": [
						{
							"internalType": "uint256",
							"name": "token_id_p",
							"type": "uint256"
						},
						{
							"internalType": "uint8",
							"name": "incr",
							"type": "uint8"
						}
					],
					"name": "incrementFirePower",
					"outputs": [],
					"stateMutability": "payable",
					"type": "function"
				},
				{
					"inputs": [
						{
							"internalType": "uint256",
							"name": "tokenId",
							"type": "uint256"
						}
					],
					"name": "ownerOf",
					"outputs": [
						{
							"internalType": "address",
							"name": "",
							"type": "address"
						}
					],
					"stateMutability": "view",
					"type": "function"
				},
				{
					"inputs": [
						{
							"internalType": "uint256",
							"name": "token_id_u",
							"type": "uint256"
						}
					],
					"name": "removeMonsterToken",
					"outputs": [],
					"stateMutability": "payable",
					"type": "function"
				},
				{
					"inputs": [
						{
							"internalType": "address",
							"name": "from",
							"type": "address"
						},
						{
							"internalType": "address",
							"name": "to",
							"type": "address"
						},
						{
							"internalType": "uint256",
							"name": "tokenId",
							"type": "uint256"
						}
					],
					"name": "safeTransferFrom",
					"outputs": [],
					"stateMutability": "payable",
					"type": "function"
				},
				{
					"inputs": [
						{
							"internalType": "bytes4",
							"name": "interfaceId",
							"type": "bytes4"
						}
					],
					"name": "supportsInterface",
					"outputs": [
						{
							"internalType": "bool",
							"name": "",
							"type": "bool"
						}
					],
					"stateMutability": "pure",
					"type": "function"
				},
				{
					"inputs": [
						{
							"internalType": "address",
							"name": "from",
							"type": "address"
						},
						{
							"internalType": "address",
							"name": "to",
							"type": "address"
						},
						{
							"internalType": "uint256",
							"name": "tokenId",
							"type": "uint256"
						}
					],
					"name": "transferFrom",
					"outputs": [],
					"stateMutability": "payable",
					"type": "function"
				},
				{
					"stateMutability": "payable",
					"type": "receive"
				}
			],
			"devdoc": {
				"kind": "dev",
				"methods": {},
				"version": 1
			},
			"evm": {
				"assembly": "    /* \"practica_3/MonsterTokens.sol\":322:6523  contract MonsterTokens is ERC721simplified {... */\n  mstore(0x40, 0x80)\n    /* \"practica_3/MonsterTokens.sol\":471:476  10001 */\n  0x2711\n    /* \"practica_3/MonsterTokens.sol\":440:476  uint private token_id_actual = 10001 */\n  0x00\n  sstore\n    /* \"practica_3/MonsterTokens.sol\":848:849  0 */\n  0x00\n    /* \"practica_3/MonsterTokens.sol\":825:849  uint private creados = 0 */\n  0x05\n  sstore\n    /* \"practica_3/MonsterTokens.sol\":933:991  constructor() {... */\n  callvalue\n  dup1\n  iszero\n  tag_1\n  jumpi\n  revert(0x00, 0x00)\ntag_1:\n  pop\n    /* \"practica_3/MonsterTokens.sol\":974:984  msg.sender */\n  caller\n    /* \"practica_3/MonsterTokens.sol\":957:971  contract_owner */\n  0x06\n  0x00\n    /* \"practica_3/MonsterTokens.sol\":957:984  contract_owner = msg.sender */\n  0x0100\n  exp\n  dup2\n  sload\n  dup2\n  0xffffffffffffffffffffffffffffffffffffffff\n  mul\n  not\n  and\n  swap1\n  dup4\n  0xffffffffffffffffffffffffffffffffffffffff\n  and\n  mul\n  or\n  swap1\n  sstore\n  pop\n    /* \"practica_3/MonsterTokens.sol\":322:6523  contract MonsterTokens is ERC721simplified {... */\n  dataSize(sub_0)\n  dup1\n  dataOffset(sub_0)\n  0x00\n  codecopy\n  0x00\n  return\nstop\n\nsub_0: assembly {\n        /* \"practica_3/MonsterTokens.sol\":322:6523  contract MonsterTokens is ERC721simplified {... */\n      mstore(0x40, 0x80)\n      jumpi(tag_1, lt(calldatasize, 0x04))\n      shr(0xe0, calldataload(0x00))\n      dup1\n      0x50fac4f1\n      gt\n      tag_16\n      jumpi\n      dup1\n      0xb90f1aaa\n      gt\n      tag_17\n      jumpi\n      dup1\n      0xb90f1aaa\n      eq\n      tag_12\n      jumpi\n      dup1\n      0xc57981b5\n      eq\n      tag_13\n      jumpi\n      dup1\n      0xc958e0d6\n      eq\n      tag_14\n      jumpi\n      dup1\n      0xd6ad8a94\n      eq\n      tag_15\n      jumpi\n      jump(tag_2)\n    tag_17:\n      dup1\n      0x50fac4f1\n      eq\n      tag_9\n      jumpi\n      dup1\n      0x6352211e\n      eq\n      tag_10\n      jumpi\n      dup1\n      0x70a08231\n      eq\n      tag_11\n      jumpi\n      jump(tag_2)\n    tag_16:\n      dup1\n      0x01ffc9a7\n      eq\n      tag_3\n      jumpi\n      dup1\n      0x081812fc\n      eq\n      tag_4\n      jumpi\n      dup1\n      0x095ea7b3\n      eq\n      tag_5\n      jumpi\n      dup1\n      0x0a0eac29\n      eq\n      tag_6\n      jumpi\n      dup1\n      0x23b872dd\n      eq\n      tag_7\n      jumpi\n      dup1\n      0x42842e0e\n      eq\n      tag_8\n      jumpi\n      jump(tag_2)\n    tag_1:\n      jumpi(tag_2, calldatasize)\n      stop\n    tag_2:\n      revert(0x00, 0x00)\n        /* \"practica_3/MonsterTokens.sol\":6252:6486  function supportsInterface(bytes4 interfaceId) external pure override returns (bool) {... */\n    tag_3:\n      callvalue\n      dup1\n      iszero\n      tag_20\n      jumpi\n      revert(0x00, 0x00)\n    tag_20:\n      pop\n      tag_21\n      0x04\n      dup1\n      calldatasize\n      sub\n      dup2\n      add\n      swap1\n      tag_22\n      swap2\n      swap1\n      tag_23\n      jump\t// in\n    tag_22:\n      tag_24\n      jump\t// in\n    tag_21:\n      mload(0x40)\n      tag_25\n      swap2\n      swap1\n      tag_26\n      jump\t// in\n    tag_25:\n      mload(0x40)\n      dup1\n      swap2\n      sub\n      swap1\n      return\n        /* \"practica_3/MonsterTokens.sol\":6050:6246  function getApproved(uint256 tokenId) external view override returns (address) {... */\n    tag_4:\n      callvalue\n      dup1\n      iszero\n      tag_27\n      jumpi\n      revert(0x00, 0x00)\n    tag_27:\n      pop\n      tag_28\n      0x04\n      dup1\n      calldatasize\n      sub\n      dup2\n      add\n      swap1\n      tag_29\n      swap2\n      swap1\n      tag_30\n      jump\t// in\n    tag_29:\n      tag_31\n      jump\t// in\n    tag_28:\n      mload(0x40)\n      tag_32\n      swap2\n      swap1\n      tag_33\n      jump\t// in\n    tag_32:\n      mload(0x40)\n      dup1\n      swap2\n      sub\n      swap1\n      return\n        /* \"practica_3/MonsterTokens.sol\":3299:3775  function approve(address approved, uint256 tokenId) external payable override {... */\n    tag_5:\n      tag_34\n      0x04\n      dup1\n      calldatasize\n      sub\n      dup2\n      add\n      swap1\n      tag_35\n      swap2\n      swap1\n      tag_36\n      jump\t// in\n    tag_35:\n      tag_37\n      jump\t// in\n    tag_34:\n      stop\n        /* \"practica_3/MonsterTokens.sol\":1860:2626  function addWeapon( uint token_id_p, string calldata nombre_arma, uint fire_power) external payable {... */\n    tag_6:\n      tag_38\n      0x04\n      dup1\n      calldatasize\n      sub\n      dup2\n      add\n      swap1\n      tag_39\n      swap2\n      swap1\n      tag_40\n      jump\t// in\n    tag_39:\n      tag_41\n      jump\t// in\n    tag_38:\n      stop\n        /* \"practica_3/MonsterTokens.sol\":3781:4424  function transferFrom(address from,address to, uint256 tokenId) external payable override {... */\n    tag_7:\n      tag_42\n      0x04\n      dup1\n      calldatasize\n      sub\n      dup2\n      add\n      swap1\n      tag_43\n      swap2\n      swap1\n      tag_44\n      jump\t// in\n    tag_43:\n      tag_45\n      jump\t// in\n    tag_42:\n      stop\n        /* \"practica_3/MonsterTokens.sol\":4430:5664  function safeTransferFrom( address from, address to, uint256 tokenId) external payable override {... */\n    tag_8:\n      tag_46\n      0x04\n      dup1\n      calldatasize\n      sub\n      dup2\n      add\n      swap1\n      tag_47\n      swap2\n      swap1\n      tag_44\n      jump\t// in\n    tag_47:\n      tag_48\n      jump\t// in\n    tag_46:\n      stop\n        /* \"practica_3/MonsterTokens.sol\":1365:1854  function removeMonsterToken(uint token_id_u) external payable {... */\n    tag_9:\n      tag_49\n      0x04\n      dup1\n      calldatasize\n      sub\n      dup2\n      add\n      swap1\n      tag_50\n      swap2\n      swap1\n      tag_30\n      jump\t// in\n    tag_50:\n      tag_51\n      jump\t// in\n    tag_49:\n      stop\n        /* \"practica_3/MonsterTokens.sol\":5847:6044  function ownerOf(uint256 tokenId) external view override returns (address) {... */\n    tag_10:\n      callvalue\n      dup1\n      iszero\n      tag_52\n      jumpi\n      revert(0x00, 0x00)\n    tag_52:\n      pop\n      tag_53\n      0x04\n      dup1\n      calldatasize\n      sub\n      dup2\n      add\n      swap1\n      tag_54\n      swap2\n      swap1\n      tag_30\n      jump\t// in\n    tag_54:\n      tag_55\n      jump\t// in\n    tag_53:\n      mload(0x40)\n      tag_56\n      swap2\n      swap1\n      tag_33\n      jump\t// in\n    tag_56:\n      mload(0x40)\n      dup1\n      swap2\n      sub\n      swap1\n      return\n        /* \"practica_3/MonsterTokens.sol\":5670:5841  function balanceOf(address owner) external view override returns (uint256) {... */\n    tag_11:\n      callvalue\n      dup1\n      iszero\n      tag_57\n      jumpi\n      revert(0x00, 0x00)\n    tag_57:\n      pop\n      tag_58\n      0x04\n      dup1\n      calldatasize\n      sub\n      dup2\n      add\n      swap1\n      tag_59\n      swap2\n      swap1\n      tag_60\n      jump\t// in\n    tag_59:\n      tag_61\n      jump\t// in\n    tag_58:\n      mload(0x40)\n      tag_62\n      swap2\n      swap1\n      tag_63\n      jump\t// in\n    tag_62:\n      mload(0x40)\n      dup1\n      swap2\n      sub\n      swap1\n      return\n        /* \"practica_3/MonsterTokens.sol\":997:1359  function createNewToken(string calldata nombre) external payable returns (uint) {... */\n    tag_12:\n      tag_64\n      0x04\n      dup1\n      calldatasize\n      sub\n      dup2\n      add\n      swap1\n      tag_65\n      swap2\n      swap1\n      tag_66\n      jump\t// in\n    tag_65:\n      tag_67\n      jump\t// in\n    tag_64:\n      mload(0x40)\n      tag_68\n      swap2\n      swap1\n      tag_63\n      jump\t// in\n    tag_68:\n      mload(0x40)\n      dup1\n      swap2\n      sub\n      swap1\n      return\n        /* \"practica_3/MonsterTokens.sol\":892:926  uint256 public constant FEE = 1000 */\n    tag_13:\n      callvalue\n      dup1\n      iszero\n      tag_69\n      jumpi\n      revert(0x00, 0x00)\n    tag_69:\n      pop\n      tag_70\n      tag_71\n      jump\t// in\n    tag_70:\n      mload(0x40)\n      tag_72\n      swap2\n      swap1\n      tag_63\n      jump\t// in\n    tag_72:\n      mload(0x40)\n      dup1\n      swap2\n      sub\n      swap1\n      return\n        /* \"practica_3/MonsterTokens.sol\":3000:3292  function collectProfits() external {... */\n    tag_14:\n      callvalue\n      dup1\n      iszero\n      tag_73\n      jumpi\n      revert(0x00, 0x00)\n    tag_73:\n      pop\n      tag_74\n      tag_75\n      jump\t// in\n    tag_74:\n      stop\n        /* \"practica_3/MonsterTokens.sol\":2632:2994  function incrementFirePower(uint token_id_p, uint8 incr) external payable {... */\n    tag_15:\n      tag_76\n      0x04\n      dup1\n      calldatasize\n      sub\n      dup2\n      add\n      swap1\n      tag_77\n      swap2\n      swap1\n      tag_78\n      jump\t// in\n    tag_77:\n      tag_79\n      jump\t// in\n    tag_76:\n      stop\n        /* \"practica_3/MonsterTokens.sol\":6252:6486  function supportsInterface(bytes4 interfaceId) external pure override returns (bool) {... */\n    tag_24:\n        /* \"practica_3/MonsterTokens.sol\":6331:6335  bool */\n      0x00\n        /* \"practica_3/MonsterTokens.sol\":6378:6389  interfaceId */\n      dup2\n        /* \"practica_3/MonsterTokens.sol\":6350:6389  type(ERC165).interfaceId == interfaceId */\n      not(0xffffffffffffffffffffffffffffffffffffffffffffffffffffffff)\n      and\n        /* \"practica_3/MonsterTokens.sol\":6350:6374  type(ERC165).interfaceId */\n      0x01ffc9a700000000000000000000000000000000000000000000000000000000\n        /* \"practica_3/MonsterTokens.sol\":6350:6389  type(ERC165).interfaceId == interfaceId */\n      not(0xffffffffffffffffffffffffffffffffffffffffffffffffffffffff)\n      and\n      eq\n        /* \"practica_3/MonsterTokens.sol\":6350:6442  type(ERC165).interfaceId == interfaceId || type(ERC721simplified).interfaceId == interfaceId */\n      dup1\n      tag_81\n      jumpi\n      pop\n        /* \"practica_3/MonsterTokens.sol\":6431:6442  interfaceId */\n      dup2\n        /* \"practica_3/MonsterTokens.sol\":6393:6442  type(ERC721simplified).interfaceId == interfaceId */\n      not(0xffffffffffffffffffffffffffffffffffffffffffffffffffffffff)\n      and\n        /* \"practica_3/MonsterTokens.sol\":6393:6427  type(ERC721simplified).interfaceId */\n      0x73884ab300000000000000000000000000000000000000000000000000000000\n        /* \"practica_3/MonsterTokens.sol\":6393:6442  type(ERC721simplified).interfaceId == interfaceId */\n      not(0xffffffffffffffffffffffffffffffffffffffffffffffffffffffff)\n      and\n      eq\n        /* \"practica_3/MonsterTokens.sol\":6350:6442  type(ERC165).interfaceId == interfaceId || type(ERC721simplified).interfaceId == interfaceId */\n    tag_81:\n        /* \"practica_3/MonsterTokens.sol\":6347:6456  if(type(ERC165).interfaceId == interfaceId || type(ERC721simplified).interfaceId == interfaceId)  return true */\n      iszero\n      tag_82\n      jumpi\n        /* \"practica_3/MonsterTokens.sol\":6452:6456  true */\n      0x01\n        /* \"practica_3/MonsterTokens.sol\":6445:6456  return true */\n      swap1\n      pop\n      jump(tag_80)\n        /* \"practica_3/MonsterTokens.sol\":6347:6456  if(type(ERC165).interfaceId == interfaceId || type(ERC721simplified).interfaceId == interfaceId)  return true */\n    tag_82:\n        /* \"practica_3/MonsterTokens.sol\":6473:6478  false */\n      0x00\n        /* \"practica_3/MonsterTokens.sol\":6466:6478  return false */\n      swap1\n      pop\n        /* \"practica_3/MonsterTokens.sol\":6252:6486  function supportsInterface(bytes4 interfaceId) external pure override returns (bool) {... */\n    tag_80:\n      swap2\n      swap1\n      pop\n      jump\t// out\n        /* \"practica_3/MonsterTokens.sol\":6050:6246  function getApproved(uint256 tokenId) external view override returns (address) {... */\n    tag_31:\n        /* \"practica_3/MonsterTokens.sol\":6120:6127  address */\n      0x00\n        /* \"practica_3/MonsterTokens.sol\":6185:6186  0 */\n      0x00\n        /* \"practica_3/MonsterTokens.sol\":6153:6159  tokens */\n      0x04\n        /* \"practica_3/MonsterTokens.sol\":6153:6168  tokens[tokenId] */\n      0x00\n        /* \"practica_3/MonsterTokens.sol\":6160:6167  tokenId */\n      dup5\n        /* \"practica_3/MonsterTokens.sol\":6153:6168  tokens[tokenId] */\n      dup2\n      mstore\n      0x20\n      add\n      swap1\n      dup2\n      mstore\n      0x20\n      add\n      0x00\n      keccak256\n        /* \"practica_3/MonsterTokens.sol\":6153:6173  tokens[tokenId].name */\n      0x00\n      add\n        /* \"practica_3/MonsterTokens.sol\":6147:6181  bytes(tokens[tokenId].name).length */\n      dup1\n      sload\n      tag_84\n      swap1\n      tag_85\n      jump\t// in\n    tag_84:\n      swap1\n      pop\n        /* \"practica_3/MonsterTokens.sol\":6147:6186  bytes(tokens[tokenId].name).length != 0 */\n      sub\n        /* \"practica_3/MonsterTokens.sol\":6139:6204  require(bytes(tokens[tokenId].name).length != 0, \"Invalid token\") */\n      tag_86\n      jumpi\n      mload(0x40)\n      0x08c379a000000000000000000000000000000000000000000000000000000000\n      dup2\n      mstore\n      0x04\n      add\n      tag_87\n      swap1\n      tag_88\n      jump\t// in\n    tag_87:\n      mload(0x40)\n      dup1\n      swap2\n      sub\n      swap1\n      revert\n    tag_86:\n        /* \"practica_3/MonsterTokens.sol\":6221:6230  approvals */\n      0x03\n        /* \"practica_3/MonsterTokens.sol\":6221:6239  approvals[tokenId] */\n      0x00\n        /* \"practica_3/MonsterTokens.sol\":6231:6238  tokenId */\n      dup4\n        /* \"practica_3/MonsterTokens.sol\":6221:6239  approvals[tokenId] */\n      dup2\n      mstore\n      0x20\n      add\n      swap1\n      dup2\n      mstore\n      0x20\n      add\n      0x00\n      keccak256\n      0x00\n      swap1\n      sload\n      swap1\n      0x0100\n      exp\n      swap1\n      div\n      0xffffffffffffffffffffffffffffffffffffffff\n      and\n        /* \"practica_3/MonsterTokens.sol\":6214:6239  return approvals[tokenId] */\n      swap1\n      pop\n        /* \"practica_3/MonsterTokens.sol\":6050:6246  function getApproved(uint256 tokenId) external view override returns (address) {... */\n      swap2\n      swap1\n      pop\n      jump\t// out\n        /* \"practica_3/MonsterTokens.sol\":3299:3775  function approve(address approved, uint256 tokenId) external payable override {... */\n    tag_37:\n        /* \"practica_3/MonsterTokens.sol\":3414:3424  msg.sender */\n      caller\n        /* \"practica_3/MonsterTokens.sol\":3395:3424  owners[tokenId] == msg.sender */\n      0xffffffffffffffffffffffffffffffffffffffff\n      and\n        /* \"practica_3/MonsterTokens.sol\":3395:3401  owners */\n      0x02\n        /* \"practica_3/MonsterTokens.sol\":3395:3410  owners[tokenId] */\n      0x00\n        /* \"practica_3/MonsterTokens.sol\":3402:3409  tokenId */\n      dup4\n        /* \"practica_3/MonsterTokens.sol\":3395:3410  owners[tokenId] */\n      dup2\n      mstore\n      0x20\n      add\n      swap1\n      dup2\n      mstore\n      0x20\n      add\n      0x00\n      keccak256\n      0x00\n      swap1\n      sload\n      swap1\n      0x0100\n      exp\n      swap1\n      div\n      0xffffffffffffffffffffffffffffffffffffffff\n      and\n        /* \"practica_3/MonsterTokens.sol\":3395:3424  owners[tokenId] == msg.sender */\n      0xffffffffffffffffffffffffffffffffffffffff\n      and\n      eq\n        /* \"practica_3/MonsterTokens.sol\":3387:3448  require(owners[tokenId] == msg.sender, \"Unauthorized access\") */\n      tag_90\n      jumpi\n      mload(0x40)\n      0x08c379a000000000000000000000000000000000000000000000000000000000\n      dup2\n      mstore\n      0x04\n      add\n      tag_91\n      swap1\n      tag_92\n      jump\t// in\n    tag_91:\n      mload(0x40)\n      dup1\n      swap2\n      sub\n      swap1\n      revert\n    tag_90:\n        /* \"practica_3/MonsterTokens.sol\":3486:3487  0 */\n      0x00\n        /* \"practica_3/MonsterTokens.sol\":3466:3488  approved != address(0) */\n      0xffffffffffffffffffffffffffffffffffffffff\n      and\n        /* \"practica_3/MonsterTokens.sol\":3466:3474  approved */\n      dup3\n        /* \"practica_3/MonsterTokens.sol\":3466:3488  approved != address(0) */\n      0xffffffffffffffffffffffffffffffffffffffff\n      and\n      eq\n      iszero\n        /* \"practica_3/MonsterTokens.sol\":3466:3524  approved != address(0) || approvals[tokenId] != address(0) */\n      dup1\n      tag_93\n      jumpi\n      pop\n        /* \"practica_3/MonsterTokens.sol\":3522:3523  0 */\n      0x00\n        /* \"practica_3/MonsterTokens.sol\":3492:3524  approvals[tokenId] != address(0) */\n      0xffffffffffffffffffffffffffffffffffffffff\n      and\n        /* \"practica_3/MonsterTokens.sol\":3492:3501  approvals */\n      0x03\n        /* \"practica_3/MonsterTokens.sol\":3492:3510  approvals[tokenId] */\n      0x00\n        /* \"practica_3/MonsterTokens.sol\":3502:3509  tokenId */\n      dup4\n        /* \"practica_3/MonsterTokens.sol\":3492:3510  approvals[tokenId] */\n      dup2\n      mstore\n      0x20\n      add\n      swap1\n      dup2\n      mstore\n      0x20\n      add\n      0x00\n      keccak256\n      0x00\n      swap1\n      sload\n      swap1\n      0x0100\n      exp\n      swap1\n      div\n      0xffffffffffffffffffffffffffffffffffffffff\n      and\n        /* \"practica_3/MonsterTokens.sol\":3492:3524  approvals[tokenId] != address(0) */\n      0xffffffffffffffffffffffffffffffffffffffff\n      and\n      eq\n      iszero\n        /* \"practica_3/MonsterTokens.sol\":3466:3524  approved != address(0) || approvals[tokenId] != address(0) */\n    tag_93:\n        /* \"practica_3/MonsterTokens.sol\":3458:3547  require(approved != address(0) || approvals[tokenId] != address(0), \"Nothing to approve\") */\n      tag_94\n      jumpi\n      mload(0x40)\n      0x08c379a000000000000000000000000000000000000000000000000000000000\n      dup2\n      mstore\n      0x04\n      add\n      tag_95\n      swap1\n      tag_96\n      jump\t// in\n    tag_95:\n      mload(0x40)\n      dup1\n      swap2\n      sub\n      swap1\n      revert\n    tag_94:\n        /* \"practica_3/MonsterTokens.sol\":3592:3632  tokens[tokenId].weapons.firePowers.sum() */\n      tag_97\n        /* \"practica_3/MonsterTokens.sol\":3592:3598  tokens */\n      0x04\n        /* \"practica_3/MonsterTokens.sol\":3592:3607  tokens[tokenId] */\n      0x00\n        /* \"practica_3/MonsterTokens.sol\":3599:3606  tokenId */\n      dup4\n        /* \"practica_3/MonsterTokens.sol\":3592:3607  tokens[tokenId] */\n      dup2\n      mstore\n      0x20\n      add\n      swap1\n      dup2\n      mstore\n      0x20\n      add\n      0x00\n      keccak256\n        /* \"practica_3/MonsterTokens.sol\":3592:3615  tokens[tokenId].weapons */\n      0x01\n      add\n        /* \"practica_3/MonsterTokens.sol\":3592:3626  tokens[tokenId].weapons.firePowers */\n      0x01\n      add\n        /* \"practica_3/MonsterTokens.sol\":3592:3630  tokens[tokenId].weapons.firePowers.sum */\n      tag_98\n        /* \"practica_3/MonsterTokens.sol\":3592:3632  tokens[tokenId].weapons.firePowers.sum() */\n      jump\t// in\n    tag_97:\n        /* \"practica_3/MonsterTokens.sol\":3579:3588  msg.value */\n      callvalue\n        /* \"practica_3/MonsterTokens.sol\":3579:3632  msg.value >= tokens[tokenId].weapons.firePowers.sum() */\n      lt\n      iszero\n        /* \"practica_3/MonsterTokens.sol\":3558:3674  require(... */\n      tag_99\n      jumpi\n      mload(0x40)\n      0x08c379a000000000000000000000000000000000000000000000000000000000\n      dup2\n      mstore\n      0x04\n      add\n      tag_100\n      swap1\n      tag_101\n      jump\t// in\n    tag_100:\n      mload(0x40)\n      dup1\n      swap2\n      sub\n      swap1\n      revert\n    tag_99:\n        /* \"practica_3/MonsterTokens.sol\":3706:3714  approved */\n      dup2\n        /* \"practica_3/MonsterTokens.sol\":3685:3694  approvals */\n      0x03\n        /* \"practica_3/MonsterTokens.sol\":3685:3703  approvals[tokenId] */\n      0x00\n        /* \"practica_3/MonsterTokens.sol\":3695:3702  tokenId */\n      dup4\n        /* \"practica_3/MonsterTokens.sol\":3685:3703  approvals[tokenId] */\n      dup2\n      mstore\n      0x20\n      add\n      swap1\n      dup2\n      mstore\n      0x20\n      add\n      0x00\n      keccak256\n      0x00\n        /* \"practica_3/MonsterTokens.sol\":3685:3714  approvals[tokenId] = approved */\n      0x0100\n      exp\n      dup2\n      sload\n      dup2\n      0xffffffffffffffffffffffffffffffffffffffff\n      mul\n      not\n      and\n      swap1\n      dup4\n      0xffffffffffffffffffffffffffffffffffffffff\n      and\n      mul\n      or\n      swap1\n      sstore\n      pop\n        /* \"practica_3/MonsterTokens.sol\":3760:3767  tokenId */\n      dup1\n        /* \"practica_3/MonsterTokens.sol\":3750:3758  approved */\n      dup3\n        /* \"practica_3/MonsterTokens.sol\":3729:3768  Approval(msg.sender, approved, tokenId) */\n      0xffffffffffffffffffffffffffffffffffffffff\n      and\n        /* \"practica_3/MonsterTokens.sol\":3738:3748  msg.sender */\n      caller\n        /* \"practica_3/MonsterTokens.sol\":3729:3768  Approval(msg.sender, approved, tokenId) */\n      0xffffffffffffffffffffffffffffffffffffffff\n      and\n      0x8c5be1e5ebec7d5bd14f71427d1e84f3dd0314c0f7b2291e5b200ac8c7c3b925\n      mload(0x40)\n      mload(0x40)\n      dup1\n      swap2\n      sub\n      swap1\n      log4\n        /* \"practica_3/MonsterTokens.sol\":3299:3775  function approve(address approved, uint256 tokenId) external payable override {... */\n      pop\n      pop\n      jump\t// out\n        /* \"practica_3/MonsterTokens.sol\":1860:2626  function addWeapon( uint token_id_p, string calldata nombre_arma, uint fire_power) external payable {... */\n    tag_41:\n        /* \"practica_3/MonsterTokens.sol\":2016:2026  msg.sender */\n      caller\n        /* \"practica_3/MonsterTokens.sol\":1991:2026  approvals[token_id_p] == msg.sender */\n      0xffffffffffffffffffffffffffffffffffffffff\n      and\n        /* \"practica_3/MonsterTokens.sol\":1991:2000  approvals */\n      0x03\n        /* \"practica_3/MonsterTokens.sol\":1991:2012  approvals[token_id_p] */\n      0x00\n        /* \"practica_3/MonsterTokens.sol\":2001:2011  token_id_p */\n      dup7\n        /* \"practica_3/MonsterTokens.sol\":1991:2012  approvals[token_id_p] */\n      dup2\n      mstore\n      0x20\n      add\n      swap1\n      dup2\n      mstore\n      0x20\n      add\n      0x00\n      keccak256\n      0x00\n      swap1\n      sload\n      swap1\n      0x0100\n      exp\n      swap1\n      div\n      0xffffffffffffffffffffffffffffffffffffffff\n      and\n        /* \"practica_3/MonsterTokens.sol\":1991:2026  approvals[token_id_p] == msg.sender */\n      0xffffffffffffffffffffffffffffffffffffffff\n      and\n      eq\n        /* \"practica_3/MonsterTokens.sol\":1991:2062  approvals[token_id_p] == msg.sender || owners[token_id_p] == msg.sender */\n      dup1\n      tag_103\n      jumpi\n      pop\n        /* \"practica_3/MonsterTokens.sol\":2052:2062  msg.sender */\n      caller\n        /* \"practica_3/MonsterTokens.sol\":2030:2062  owners[token_id_p] == msg.sender */\n      0xffffffffffffffffffffffffffffffffffffffff\n      and\n        /* \"practica_3/MonsterTokens.sol\":2030:2036  owners */\n      0x02\n        /* \"practica_3/MonsterTokens.sol\":2030:2048  owners[token_id_p] */\n      0x00\n        /* \"practica_3/MonsterTokens.sol\":2037:2047  token_id_p */\n      dup7\n        /* \"practica_3/MonsterTokens.sol\":2030:2048  owners[token_id_p] */\n      dup2\n      mstore\n      0x20\n      add\n      swap1\n      dup2\n      mstore\n      0x20\n      add\n      0x00\n      keccak256\n      0x00\n      swap1\n      sload\n      swap1\n      0x0100\n      exp\n      swap1\n      div\n      0xffffffffffffffffffffffffffffffffffffffff\n      and\n        /* \"practica_3/MonsterTokens.sol\":2030:2062  owners[token_id_p] == msg.sender */\n      0xffffffffffffffffffffffffffffffffffffffff\n      and\n      eq\n        /* \"practica_3/MonsterTokens.sol\":1991:2062  approvals[token_id_p] == msg.sender || owners[token_id_p] == msg.sender */\n    tag_103:\n        /* \"practica_3/MonsterTokens.sol\":1970:2107  require(... */\n      tag_104\n      jumpi\n      mload(0x40)\n      0x08c379a000000000000000000000000000000000000000000000000000000000\n      dup2\n      mstore\n      0x04\n      add\n      tag_105\n      swap1\n      tag_92\n      jump\t// in\n    tag_105:\n      mload(0x40)\n      dup1\n      swap2\n      sub\n      swap1\n      revert\n    tag_104:\n        /* \"practica_3/MonsterTokens.sol\":2166:2167  0 */\n      0x00\n        /* \"practica_3/MonsterTokens.sol\":2131:2137  tokens */\n      0x04\n        /* \"practica_3/MonsterTokens.sol\":2131:2149  tokens[token_id_p] */\n      0x00\n        /* \"practica_3/MonsterTokens.sol\":2138:2148  token_id_p */\n      dup7\n        /* \"practica_3/MonsterTokens.sol\":2131:2149  tokens[token_id_p] */\n      dup2\n      mstore\n      0x20\n      add\n      swap1\n      dup2\n      mstore\n      0x20\n      add\n      0x00\n      keccak256\n        /* \"practica_3/MonsterTokens.sol\":2131:2154  tokens[token_id_p].name */\n      0x00\n      add\n        /* \"practica_3/MonsterTokens.sol\":2125:2162  bytes(tokens[token_id_p].name).length */\n      dup1\n      sload\n      tag_106\n      swap1\n      tag_85\n      jump\t// in\n    tag_106:\n      swap1\n      pop\n        /* \"practica_3/MonsterTokens.sol\":2125:2167  bytes(tokens[token_id_p].name).length != 0 */\n      sub\n        /* \"practica_3/MonsterTokens.sol\":2117:2185  require(bytes(tokens[token_id_p].name).length != 0, \"Invalid token\") */\n      tag_107\n      jumpi\n      mload(0x40)\n      0x08c379a000000000000000000000000000000000000000000000000000000000\n      dup2\n      mstore\n      0x04\n      add\n      tag_108\n      swap1\n      tag_88\n      jump\t// in\n    tag_108:\n      mload(0x40)\n      dup1\n      swap2\n      sub\n      swap1\n      revert\n    tag_107:\n        /* \"practica_3/MonsterTokens.sol\":2196:2212  uint weaponIndex */\n      0x00\n        /* \"practica_3/MonsterTokens.sol\":2215:2221  tokens */\n      0x04\n        /* \"practica_3/MonsterTokens.sol\":2215:2233  tokens[token_id_p] */\n      0x00\n        /* \"practica_3/MonsterTokens.sol\":2222:2232  token_id_p */\n      dup7\n        /* \"practica_3/MonsterTokens.sol\":2215:2233  tokens[token_id_p] */\n      dup2\n      mstore\n      0x20\n      add\n      swap1\n      dup2\n      mstore\n      0x20\n      add\n      0x00\n      keccak256\n        /* \"practica_3/MonsterTokens.sol\":2215:2241  tokens[token_id_p].weapons */\n      0x01\n      add\n        /* \"practica_3/MonsterTokens.sol\":2215:2247  tokens[token_id_p].weapons.names */\n      0x00\n      add\n        /* \"practica_3/MonsterTokens.sol\":2215:2254  tokens[token_id_p].weapons.names.length */\n      dup1\n      sload\n      swap1\n      pop\n        /* \"practica_3/MonsterTokens.sol\":2196:2254  uint weaponIndex = tokens[token_id_p].weapons.names.length */\n      swap1\n      pop\n        /* \"practica_3/MonsterTokens.sol\":2317:2328  weaponIndex */\n      dup1\n        /* \"practica_3/MonsterTokens.sol\":2312:2313  2 */\n      0x02\n        /* \"practica_3/MonsterTokens.sol\":2312:2328  2 ** weaponIndex */\n      tag_109\n      swap2\n      swap1\n      tag_110\n      jump\t// in\n    tag_109:\n        /* \"practica_3/MonsterTokens.sol\":2298:2308  fire_power */\n      dup3\n        /* \"practica_3/MonsterTokens.sol\":2298:2329  fire_power * (2 ** weaponIndex) */\n      tag_111\n      swap2\n      swap1\n      tag_112\n      jump\t// in\n    tag_111:\n        /* \"practica_3/MonsterTokens.sol\":2285:2294  msg.value */\n      callvalue\n        /* \"practica_3/MonsterTokens.sol\":2285:2329  msg.value >= fire_power * (2 ** weaponIndex) */\n      lt\n      iszero\n        /* \"practica_3/MonsterTokens.sol\":2264:2371  require(... */\n      tag_113\n      jumpi\n      mload(0x40)\n      0x08c379a000000000000000000000000000000000000000000000000000000000\n      dup2\n      mstore\n      0x04\n      add\n      tag_114\n      swap1\n      tag_115\n      jump\t// in\n    tag_114:\n      mload(0x40)\n      dup1\n      swap2\n      sub\n      swap1\n      revert\n    tag_113:\n        /* \"practica_3/MonsterTokens.sol\":2382:2393  bool existe */\n      0x00\n        /* \"practica_3/MonsterTokens.sol\":2396:2450  tokens[token_id_p].weapons.names.contains(nombre_arma) */\n      tag_116\n        /* \"practica_3/MonsterTokens.sol\":2438:2449  nombre_arma */\n      dup6\n      dup6\n        /* \"practica_3/MonsterTokens.sol\":2396:2450  tokens[token_id_p].weapons.names.contains(nombre_arma) */\n      dup1\n      dup1\n      0x1f\n      add\n      0x20\n      dup1\n      swap2\n      div\n      mul\n      0x20\n      add\n      mload(0x40)\n      swap1\n      dup2\n      add\n      0x40\n      mstore\n      dup1\n      swap4\n      swap3\n      swap2\n      swap1\n      dup2\n      dup2\n      mstore\n      0x20\n      add\n      dup4\n      dup4\n      dup1\n      dup3\n      dup5\n      calldatacopy\n      0x00\n      dup2\n      dup5\n      add\n      mstore\n      not(0x1f)\n      0x1f\n      dup3\n      add\n      and\n      swap1\n      pop\n      dup1\n      dup4\n      add\n      swap3\n      pop\n      pop\n      pop\n      pop\n      pop\n      pop\n      pop\n        /* \"practica_3/MonsterTokens.sol\":2396:2402  tokens */\n      0x04\n        /* \"practica_3/MonsterTokens.sol\":2396:2414  tokens[token_id_p] */\n      0x00\n        /* \"practica_3/MonsterTokens.sol\":2403:2413  token_id_p */\n      dup10\n        /* \"practica_3/MonsterTokens.sol\":2396:2414  tokens[token_id_p] */\n      dup2\n      mstore\n      0x20\n      add\n      swap1\n      dup2\n      mstore\n      0x20\n      add\n      0x00\n      keccak256\n        /* \"practica_3/MonsterTokens.sol\":2396:2422  tokens[token_id_p].weapons */\n      0x01\n      add\n        /* \"practica_3/MonsterTokens.sol\":2396:2428  tokens[token_id_p].weapons.names */\n      0x00\n      add\n        /* \"practica_3/MonsterTokens.sol\":2396:2437  tokens[token_id_p].weapons.names.contains */\n      tag_117\n      swap1\n        /* \"practica_3/MonsterTokens.sol\":2396:2450  tokens[token_id_p].weapons.names.contains(nombre_arma) */\n      swap2\n      swap1\n      0xffffffff\n      and\n      jump\t// in\n    tag_116:\n        /* \"practica_3/MonsterTokens.sol\":2382:2450  bool existe = tokens[token_id_p].weapons.names.contains(nombre_arma) */\n      swap1\n      pop\n        /* \"practica_3/MonsterTokens.sol\":2469:2475  existe */\n      dup1\n        /* \"practica_3/MonsterTokens.sol\":2468:2475  !existe */\n      iszero\n        /* \"practica_3/MonsterTokens.sol\":2460:2494  require(!existe, \"Already exists\") */\n      tag_118\n      jumpi\n      mload(0x40)\n      0x08c379a000000000000000000000000000000000000000000000000000000000\n      dup2\n      mstore\n      0x04\n      add\n      tag_119\n      swap1\n      tag_120\n      jump\t// in\n    tag_119:\n      mload(0x40)\n      dup1\n      swap2\n      sub\n      swap1\n      revert\n    tag_118:\n        /* \"practica_3/MonsterTokens.sol\":2505:2511  tokens */\n      0x04\n        /* \"practica_3/MonsterTokens.sol\":2505:2523  tokens[token_id_p] */\n      0x00\n        /* \"practica_3/MonsterTokens.sol\":2512:2522  token_id_p */\n      dup8\n        /* \"practica_3/MonsterTokens.sol\":2505:2523  tokens[token_id_p] */\n      dup2\n      mstore\n      0x20\n      add\n      swap1\n      dup2\n      mstore\n      0x20\n      add\n      0x00\n      keccak256\n        /* \"practica_3/MonsterTokens.sol\":2505:2531  tokens[token_id_p].weapons */\n      0x01\n      add\n        /* \"practica_3/MonsterTokens.sol\":2505:2537  tokens[token_id_p].weapons.names */\n      0x00\n      add\n        /* \"practica_3/MonsterTokens.sol\":2543:2554  nombre_arma */\n      dup6\n      dup6\n        /* \"practica_3/MonsterTokens.sol\":2505:2555  tokens[token_id_p].weapons.names.push(nombre_arma) */\n      swap1\n      swap2\n      dup1\n      0x01\n      dup2\n      sload\n      add\n      dup1\n      dup3\n      sstore\n      dup1\n      swap2\n      pop\n      pop\n      0x01\n      swap1\n      sub\n      swap1\n      0x00\n      mstore\n      keccak256(0x00, 0x20)\n      add\n      0x00\n      swap1\n      swap2\n      swap3\n      swap1\n      swap2\n      swap3\n      swap1\n      swap2\n      swap3\n      swap1\n      swap2\n      swap3\n      pop\n      swap2\n      dup3\n      tag_122\n      swap3\n      swap2\n      swap1\n      tag_123\n      jump\t// in\n    tag_122:\n      pop\n        /* \"practica_3/MonsterTokens.sol\":2565:2571  tokens */\n      0x04\n        /* \"practica_3/MonsterTokens.sol\":2565:2583  tokens[token_id_p] */\n      0x00\n        /* \"practica_3/MonsterTokens.sol\":2572:2582  token_id_p */\n      dup8\n        /* \"practica_3/MonsterTokens.sol\":2565:2583  tokens[token_id_p] */\n      dup2\n      mstore\n      0x20\n      add\n      swap1\n      dup2\n      mstore\n      0x20\n      add\n      0x00\n      keccak256\n        /* \"practica_3/MonsterTokens.sol\":2565:2591  tokens[token_id_p].weapons */\n      0x01\n      add\n        /* \"practica_3/MonsterTokens.sol\":2565:2602  tokens[token_id_p].weapons.firePowers */\n      0x01\n      add\n        /* \"practica_3/MonsterTokens.sol\":2608:2618  fire_power */\n      dup4\n        /* \"practica_3/MonsterTokens.sol\":2565:2619  tokens[token_id_p].weapons.firePowers.push(fire_power) */\n      swap1\n      dup1\n      0x01\n      dup2\n      sload\n      add\n      dup1\n      dup3\n      sstore\n      dup1\n      swap2\n      pop\n      pop\n      0x01\n      swap1\n      sub\n      swap1\n      0x00\n      mstore\n      keccak256(0x00, 0x20)\n      add\n      0x00\n      swap1\n      swap2\n      swap1\n      swap2\n      swap1\n      swap2\n      pop\n      sstore\n        /* \"practica_3/MonsterTokens.sol\":1960:2626  {... */\n      pop\n      pop\n        /* \"practica_3/MonsterTokens.sol\":1860:2626  function addWeapon( uint token_id_p, string calldata nombre_arma, uint fire_power) external payable {... */\n      pop\n      pop\n      pop\n      pop\n      jump\t// out\n        /* \"practica_3/MonsterTokens.sol\":3781:4424  function transferFrom(address from,address to, uint256 tokenId) external payable override {... */\n    tag_45:\n        /* \"practica_3/MonsterTokens.sol\":3903:3904  0 */\n      0x00\n        /* \"practica_3/MonsterTokens.sol\":3889:3905  to != address(0) */\n      0xffffffffffffffffffffffffffffffffffffffff\n      and\n        /* \"practica_3/MonsterTokens.sol\":3889:3891  to */\n      dup3\n        /* \"practica_3/MonsterTokens.sol\":3889:3905  to != address(0) */\n      0xffffffffffffffffffffffffffffffffffffffff\n      and\n      sub\n        /* \"practica_3/MonsterTokens.sol\":3881:3927  require(to != address(0), \"Invalid recipient\") */\n      tag_126\n      jumpi\n      mload(0x40)\n      0x08c379a000000000000000000000000000000000000000000000000000000000\n      dup2\n      mstore\n      0x04\n      add\n      tag_127\n      swap1\n      tag_128\n      jump\t// in\n    tag_127:\n      mload(0x40)\n      dup1\n      swap2\n      sub\n      swap1\n      revert\n    tag_126:\n        /* \"practica_3/MonsterTokens.sol\":3977:3981  from */\n      dup3\n        /* \"practica_3/MonsterTokens.sol\":3958:3981  owners[tokenId] == from */\n      0xffffffffffffffffffffffffffffffffffffffff\n      and\n        /* \"practica_3/MonsterTokens.sol\":3958:3964  owners */\n      0x02\n        /* \"practica_3/MonsterTokens.sol\":3958:3973  owners[tokenId] */\n      0x00\n        /* \"practica_3/MonsterTokens.sol\":3965:3972  tokenId */\n      dup4\n        /* \"practica_3/MonsterTokens.sol\":3958:3973  owners[tokenId] */\n      dup2\n      mstore\n      0x20\n      add\n      swap1\n      dup2\n      mstore\n      0x20\n      add\n      0x00\n      keccak256\n      0x00\n      swap1\n      sload\n      swap1\n      0x0100\n      exp\n      swap1\n      div\n      0xffffffffffffffffffffffffffffffffffffffff\n      and\n        /* \"practica_3/MonsterTokens.sol\":3958:3981  owners[tokenId] == from */\n      0xffffffffffffffffffffffffffffffffffffffff\n      and\n      eq\n        /* \"practica_3/MonsterTokens.sol\":3958:4064  owners[tokenId] == from &&... */\n      dup1\n      iszero\n      tag_129\n      jumpi\n      pop\n        /* \"practica_3/MonsterTokens.sol\":4017:4027  msg.sender */\n      caller\n        /* \"practica_3/MonsterTokens.sol\":3998:4027  owners[tokenId] == msg.sender */\n      0xffffffffffffffffffffffffffffffffffffffff\n      and\n        /* \"practica_3/MonsterTokens.sol\":3998:4004  owners */\n      0x02\n        /* \"practica_3/MonsterTokens.sol\":3998:4013  owners[tokenId] */\n      0x00\n        /* \"practica_3/MonsterTokens.sol\":4005:4012  tokenId */\n      dup4\n        /* \"practica_3/MonsterTokens.sol\":3998:4013  owners[tokenId] */\n      dup2\n      mstore\n      0x20\n      add\n      swap1\n      dup2\n      mstore\n      0x20\n      add\n      0x00\n      keccak256\n      0x00\n      swap1\n      sload\n      swap1\n      0x0100\n      exp\n      swap1\n      div\n      0xffffffffffffffffffffffffffffffffffffffff\n      and\n        /* \"practica_3/MonsterTokens.sol\":3998:4027  owners[tokenId] == msg.sender */\n      0xffffffffffffffffffffffffffffffffffffffff\n      and\n      eq\n        /* \"practica_3/MonsterTokens.sol\":3998:4063  owners[tokenId] == msg.sender || approvals[tokenId] == msg.sender */\n      dup1\n      tag_130\n      jumpi\n      pop\n        /* \"practica_3/MonsterTokens.sol\":4053:4063  msg.sender */\n      caller\n        /* \"practica_3/MonsterTokens.sol\":4031:4063  approvals[tokenId] == msg.sender */\n      0xffffffffffffffffffffffffffffffffffffffff\n      and\n        /* \"practica_3/MonsterTokens.sol\":4031:4040  approvals */\n      0x03\n        /* \"practica_3/MonsterTokens.sol\":4031:4049  approvals[tokenId] */\n      0x00\n        /* \"practica_3/MonsterTokens.sol\":4041:4048  tokenId */\n      dup4\n        /* \"practica_3/MonsterTokens.sol\":4031:4049  approvals[tokenId] */\n      dup2\n      mstore\n      0x20\n      add\n      swap1\n      dup2\n      mstore\n      0x20\n      add\n      0x00\n      keccak256\n      0x00\n      swap1\n      sload\n      swap1\n      0x0100\n      exp\n      swap1\n      div\n      0xffffffffffffffffffffffffffffffffffffffff\n      and\n        /* \"practica_3/MonsterTokens.sol\":4031:4063  approvals[tokenId] == msg.sender */\n      0xffffffffffffffffffffffffffffffffffffffff\n      and\n      eq\n        /* \"practica_3/MonsterTokens.sol\":3998:4063  owners[tokenId] == msg.sender || approvals[tokenId] == msg.sender */\n    tag_130:\n        /* \"practica_3/MonsterTokens.sol\":3958:4064  owners[tokenId] == from &&... */\n    tag_129:\n        /* \"practica_3/MonsterTokens.sol\":3937:4109  require(... */\n      tag_131\n      jumpi\n      mload(0x40)\n      0x08c379a000000000000000000000000000000000000000000000000000000000\n      dup2\n      mstore\n      0x04\n      add\n      tag_132\n      swap1\n      tag_92\n      jump\t// in\n    tag_132:\n      mload(0x40)\n      dup1\n      swap2\n      sub\n      swap1\n      revert\n    tag_131:\n        /* \"practica_3/MonsterTokens.sol\":4153:4193  tokens[tokenId].weapons.firePowers.sum() */\n      tag_133\n        /* \"practica_3/MonsterTokens.sol\":4153:4159  tokens */\n      0x04\n        /* \"practica_3/MonsterTokens.sol\":4153:4168  tokens[tokenId] */\n      0x00\n        /* \"practica_3/MonsterTokens.sol\":4160:4167  tokenId */\n      dup4\n        /* \"practica_3/MonsterTokens.sol\":4153:4168  tokens[tokenId] */\n      dup2\n      mstore\n      0x20\n      add\n      swap1\n      dup2\n      mstore\n      0x20\n      add\n      0x00\n      keccak256\n        /* \"practica_3/MonsterTokens.sol\":4153:4176  tokens[tokenId].weapons */\n      0x01\n      add\n        /* \"practica_3/MonsterTokens.sol\":4153:4187  tokens[tokenId].weapons.firePowers */\n      0x01\n      add\n        /* \"practica_3/MonsterTokens.sol\":4153:4191  tokens[tokenId].weapons.firePowers.sum */\n      tag_98\n        /* \"practica_3/MonsterTokens.sol\":4153:4193  tokens[tokenId].weapons.firePowers.sum() */\n      jump\t// in\n    tag_133:\n        /* \"practica_3/MonsterTokens.sol\":4140:4149  msg.value */\n      callvalue\n        /* \"practica_3/MonsterTokens.sol\":4140:4193  msg.value >= tokens[tokenId].weapons.firePowers.sum() */\n      lt\n      iszero\n        /* \"practica_3/MonsterTokens.sol\":4119:4235  require(... */\n      tag_134\n      jumpi\n      mload(0x40)\n      0x08c379a000000000000000000000000000000000000000000000000000000000\n      dup2\n      mstore\n      0x04\n      add\n      tag_135\n      swap1\n      tag_101\n      jump\t// in\n    tag_135:\n      mload(0x40)\n      dup1\n      swap2\n      sub\n      swap1\n      revert\n    tag_134:\n        /* \"practica_3/MonsterTokens.sol\":4275:4276  1 */\n      0x01\n        /* \"practica_3/MonsterTokens.sol\":4246:4254  registry */\n      dup1\n        /* \"practica_3/MonsterTokens.sol\":4246:4271  registry[owners[tokenId]] */\n      0x00\n        /* \"practica_3/MonsterTokens.sol\":4255:4261  owners */\n      0x02\n        /* \"practica_3/MonsterTokens.sol\":4255:4270  owners[tokenId] */\n      0x00\n        /* \"practica_3/MonsterTokens.sol\":4262:4269  tokenId */\n      dup6\n        /* \"practica_3/MonsterTokens.sol\":4255:4270  owners[tokenId] */\n      dup2\n      mstore\n      0x20\n      add\n      swap1\n      dup2\n      mstore\n      0x20\n      add\n      0x00\n      keccak256\n      0x00\n      swap1\n      sload\n      swap1\n      0x0100\n      exp\n      swap1\n      div\n      0xffffffffffffffffffffffffffffffffffffffff\n      and\n        /* \"practica_3/MonsterTokens.sol\":4246:4271  registry[owners[tokenId]] */\n      0xffffffffffffffffffffffffffffffffffffffff\n      and\n      0xffffffffffffffffffffffffffffffffffffffff\n      and\n      dup2\n      mstore\n      0x20\n      add\n      swap1\n      dup2\n      mstore\n      0x20\n      add\n      0x00\n      keccak256\n      0x00\n        /* \"practica_3/MonsterTokens.sol\":4246:4276  registry[owners[tokenId]] -= 1 */\n      dup3\n      dup3\n      sload\n      tag_136\n      swap2\n      swap1\n      tag_137\n      jump\t// in\n    tag_136:\n      swap3\n      pop\n      pop\n      dup2\n      swap1\n      sstore\n      pop\n        /* \"practica_3/MonsterTokens.sol\":4302:4303  1 */\n      0x01\n        /* \"practica_3/MonsterTokens.sol\":4286:4294  registry */\n      dup1\n        /* \"practica_3/MonsterTokens.sol\":4286:4298  registry[to] */\n      0x00\n        /* \"practica_3/MonsterTokens.sol\":4295:4297  to */\n      dup5\n        /* \"practica_3/MonsterTokens.sol\":4286:4298  registry[to] */\n      0xffffffffffffffffffffffffffffffffffffffff\n      and\n      0xffffffffffffffffffffffffffffffffffffffff\n      and\n      dup2\n      mstore\n      0x20\n      add\n      swap1\n      dup2\n      mstore\n      0x20\n      add\n      0x00\n      keccak256\n      0x00\n        /* \"practica_3/MonsterTokens.sol\":4286:4303  registry[to] += 1 */\n      dup3\n      dup3\n      sload\n      tag_138\n      swap2\n      swap1\n      tag_139\n      jump\t// in\n    tag_138:\n      swap3\n      pop\n      pop\n      dup2\n      swap1\n      sstore\n      pop\n        /* \"practica_3/MonsterTokens.sol\":4331:4333  to */\n      dup2\n        /* \"practica_3/MonsterTokens.sol\":4313:4319  owners */\n      0x02\n        /* \"practica_3/MonsterTokens.sol\":4313:4328  owners[tokenId] */\n      0x00\n        /* \"practica_3/MonsterTokens.sol\":4320:4327  tokenId */\n      dup4\n        /* \"practica_3/MonsterTokens.sol\":4313:4328  owners[tokenId] */\n      dup2\n      mstore\n      0x20\n      add\n      swap1\n      dup2\n      mstore\n      0x20\n      add\n      0x00\n      keccak256\n      0x00\n        /* \"practica_3/MonsterTokens.sol\":4313:4333  owners[tokenId] = to */\n      0x0100\n      exp\n      dup2\n      sload\n      dup2\n      0xffffffffffffffffffffffffffffffffffffffff\n      mul\n      not\n      and\n      swap1\n      dup4\n      0xffffffffffffffffffffffffffffffffffffffff\n      and\n      mul\n      or\n      swap1\n      sstore\n      pop\n        /* \"practica_3/MonsterTokens.sol\":4372:4373  0 */\n      0x00\n        /* \"practica_3/MonsterTokens.sol\":4343:4352  approvals */\n      0x03\n        /* \"practica_3/MonsterTokens.sol\":4343:4361  approvals[tokenId] */\n      0x00\n        /* \"practica_3/MonsterTokens.sol\":4353:4360  tokenId */\n      dup4\n        /* \"practica_3/MonsterTokens.sol\":4343:4361  approvals[tokenId] */\n      dup2\n      mstore\n      0x20\n      add\n      swap1\n      dup2\n      mstore\n      0x20\n      add\n      0x00\n      keccak256\n      0x00\n        /* \"practica_3/MonsterTokens.sol\":4343:4374  approvals[tokenId] = address(0) */\n      0x0100\n      exp\n      dup2\n      sload\n      dup2\n      0xffffffffffffffffffffffffffffffffffffffff\n      mul\n      not\n      and\n      swap1\n      dup4\n      0xffffffffffffffffffffffffffffffffffffffff\n      and\n      mul\n      or\n      swap1\n      sstore\n      pop\n        /* \"practica_3/MonsterTokens.sol\":4409:4416  tokenId */\n      dup1\n        /* \"practica_3/MonsterTokens.sol\":4405:4407  to */\n      dup3\n        /* \"practica_3/MonsterTokens.sol\":4390:4417  Transfer(from, to, tokenId) */\n      0xffffffffffffffffffffffffffffffffffffffff\n      and\n        /* \"practica_3/MonsterTokens.sol\":4399:4403  from */\n      dup5\n        /* \"practica_3/MonsterTokens.sol\":4390:4417  Transfer(from, to, tokenId) */\n      0xffffffffffffffffffffffffffffffffffffffff\n      and\n      0xddf252ad1be2c89b69c2b068fc378daa952ba7f163c4a11628f55a4df523b3ef\n      mload(0x40)\n      mload(0x40)\n      dup1\n      swap2\n      sub\n      swap1\n      log4\n        /* \"practica_3/MonsterTokens.sol\":3781:4424  function transferFrom(address from,address to, uint256 tokenId) external payable override {... */\n      pop\n      pop\n      pop\n      jump\t// out\n        /* \"practica_3/MonsterTokens.sol\":4430:5664  function safeTransferFrom( address from, address to, uint256 tokenId) external payable override {... */\n    tag_48:\n        /* \"practica_3/MonsterTokens.sol\":4558:4559  0 */\n      0x00\n        /* \"practica_3/MonsterTokens.sol\":4544:4560  to != address(0) */\n      0xffffffffffffffffffffffffffffffffffffffff\n      and\n        /* \"practica_3/MonsterTokens.sol\":4544:4546  to */\n      dup3\n        /* \"practica_3/MonsterTokens.sol\":4544:4560  to != address(0) */\n      0xffffffffffffffffffffffffffffffffffffffff\n      and\n      sub\n        /* \"practica_3/MonsterTokens.sol\":4536:4582  require(to != address(0), \"Invalid recipient\") */\n      tag_141\n      jumpi\n      mload(0x40)\n      0x08c379a000000000000000000000000000000000000000000000000000000000\n      dup2\n      mstore\n      0x04\n      add\n      tag_142\n      swap1\n      tag_128\n      jump\t// in\n    tag_142:\n      mload(0x40)\n      dup1\n      swap2\n      sub\n      swap1\n      revert\n    tag_141:\n        /* \"practica_3/MonsterTokens.sol\":4619:4623  from */\n      dup3\n        /* \"practica_3/MonsterTokens.sol\":4600:4623  owners[tokenId] == from */\n      0xffffffffffffffffffffffffffffffffffffffff\n      and\n        /* \"practica_3/MonsterTokens.sol\":4600:4606  owners */\n      0x02\n        /* \"practica_3/MonsterTokens.sol\":4600:4615  owners[tokenId] */\n      0x00\n        /* \"practica_3/MonsterTokens.sol\":4607:4614  tokenId */\n      dup4\n        /* \"practica_3/MonsterTokens.sol\":4600:4615  owners[tokenId] */\n      dup2\n      mstore\n      0x20\n      add\n      swap1\n      dup2\n      mstore\n      0x20\n      add\n      0x00\n      keccak256\n      0x00\n      swap1\n      sload\n      swap1\n      0x0100\n      exp\n      swap1\n      div\n      0xffffffffffffffffffffffffffffffffffffffff\n      and\n        /* \"practica_3/MonsterTokens.sol\":4600:4623  owners[tokenId] == from */\n      0xffffffffffffffffffffffffffffffffffffffff\n      and\n      eq\n        /* \"practica_3/MonsterTokens.sol\":4600:4694  owners[tokenId] == from && (owners[tokenId] == msg.sender || approvals[tokenId] == msg.sender) */\n      dup1\n      iszero\n      tag_143\n      jumpi\n      pop\n        /* \"practica_3/MonsterTokens.sol\":4647:4657  msg.sender */\n      caller\n        /* \"practica_3/MonsterTokens.sol\":4628:4657  owners[tokenId] == msg.sender */\n      0xffffffffffffffffffffffffffffffffffffffff\n      and\n        /* \"practica_3/MonsterTokens.sol\":4628:4634  owners */\n      0x02\n        /* \"practica_3/MonsterTokens.sol\":4628:4643  owners[tokenId] */\n      0x00\n        /* \"practica_3/MonsterTokens.sol\":4635:4642  tokenId */\n      dup4\n        /* \"practica_3/MonsterTokens.sol\":4628:4643  owners[tokenId] */\n      dup2\n      mstore\n      0x20\n      add\n      swap1\n      dup2\n      mstore\n      0x20\n      add\n      0x00\n      keccak256\n      0x00\n      swap1\n      sload\n      swap1\n      0x0100\n      exp\n      swap1\n      div\n      0xffffffffffffffffffffffffffffffffffffffff\n      and\n        /* \"practica_3/MonsterTokens.sol\":4628:4657  owners[tokenId] == msg.sender */\n      0xffffffffffffffffffffffffffffffffffffffff\n      and\n      eq\n        /* \"practica_3/MonsterTokens.sol\":4628:4693  owners[tokenId] == msg.sender || approvals[tokenId] == msg.sender */\n      dup1\n      tag_144\n      jumpi\n      pop\n        /* \"practica_3/MonsterTokens.sol\":4683:4693  msg.sender */\n      caller\n        /* \"practica_3/MonsterTokens.sol\":4661:4693  approvals[tokenId] == msg.sender */\n      0xffffffffffffffffffffffffffffffffffffffff\n      and\n        /* \"practica_3/MonsterTokens.sol\":4661:4670  approvals */\n      0x03\n        /* \"practica_3/MonsterTokens.sol\":4661:4679  approvals[tokenId] */\n      0x00\n        /* \"practica_3/MonsterTokens.sol\":4671:4678  tokenId */\n      dup4\n        /* \"practica_3/MonsterTokens.sol\":4661:4679  approvals[tokenId] */\n      dup2\n      mstore\n      0x20\n      add\n      swap1\n      dup2\n      mstore\n      0x20\n      add\n      0x00\n      keccak256\n      0x00\n      swap1\n      sload\n      swap1\n      0x0100\n      exp\n      swap1\n      div\n      0xffffffffffffffffffffffffffffffffffffffff\n      and\n        /* \"practica_3/MonsterTokens.sol\":4661:4693  approvals[tokenId] == msg.sender */\n      0xffffffffffffffffffffffffffffffffffffffff\n      and\n      eq\n        /* \"practica_3/MonsterTokens.sol\":4628:4693  owners[tokenId] == msg.sender || approvals[tokenId] == msg.sender */\n    tag_144:\n        /* \"practica_3/MonsterTokens.sol\":4600:4694  owners[tokenId] == from && (owners[tokenId] == msg.sender || approvals[tokenId] == msg.sender) */\n    tag_143:\n        /* \"practica_3/MonsterTokens.sol\":4592:4726  require(owners[tokenId] == from && (owners[tokenId] == msg.sender || approvals[tokenId] == msg.sender),... */\n      tag_145\n      jumpi\n      mload(0x40)\n      0x08c379a000000000000000000000000000000000000000000000000000000000\n      dup2\n      mstore\n      0x04\n      add\n      tag_146\n      swap1\n      tag_92\n      jump\t// in\n    tag_146:\n      mload(0x40)\n      dup1\n      swap2\n      sub\n      swap1\n      revert\n    tag_145:\n        /* \"practica_3/MonsterTokens.sol\":4758:4798  tokens[tokenId].weapons.firePowers.sum() */\n      tag_147\n        /* \"practica_3/MonsterTokens.sol\":4758:4764  tokens */\n      0x04\n        /* \"practica_3/MonsterTokens.sol\":4758:4773  tokens[tokenId] */\n      0x00\n        /* \"practica_3/MonsterTokens.sol\":4765:4772  tokenId */\n      dup4\n        /* \"practica_3/MonsterTokens.sol\":4758:4773  tokens[tokenId] */\n      dup2\n      mstore\n      0x20\n      add\n      swap1\n      dup2\n      mstore\n      0x20\n      add\n      0x00\n      keccak256\n        /* \"practica_3/MonsterTokens.sol\":4758:4781  tokens[tokenId].weapons */\n      0x01\n      add\n        /* \"practica_3/MonsterTokens.sol\":4758:4792  tokens[tokenId].weapons.firePowers */\n      0x01\n      add\n        /* \"practica_3/MonsterTokens.sol\":4758:4796  tokens[tokenId].weapons.firePowers.sum */\n      tag_98\n        /* \"practica_3/MonsterTokens.sol\":4758:4798  tokens[tokenId].weapons.firePowers.sum() */\n      jump\t// in\n    tag_147:\n        /* \"practica_3/MonsterTokens.sol\":4745:4754  msg.value */\n      callvalue\n        /* \"practica_3/MonsterTokens.sol\":4745:4798  msg.value >= tokens[tokenId].weapons.firePowers.sum() */\n      lt\n      iszero\n        /* \"practica_3/MonsterTokens.sol\":4736:4836  require( msg.value >= tokens[tokenId].weapons.firePowers.sum(),... */\n      tag_148\n      jumpi\n      mload(0x40)\n      0x08c379a000000000000000000000000000000000000000000000000000000000\n      dup2\n      mstore\n      0x04\n      add\n      tag_149\n      swap1\n      tag_101\n      jump\t// in\n    tag_149:\n      mload(0x40)\n      dup1\n      swap2\n      sub\n      swap1\n      revert\n    tag_148:\n        /* \"practica_3/MonsterTokens.sol\":4867:4868  0 */\n      0x00\n        /* \"practica_3/MonsterTokens.sol\":4850:4852  to */\n      dup3\n        /* \"practica_3/MonsterTokens.sol\":4850:4864  to.code.length */\n      0xffffffffffffffffffffffffffffffffffffffff\n      and\n      extcodesize\n        /* \"practica_3/MonsterTokens.sol\":4850:4868  to.code.length > 0 */\n      gt\n        /* \"practica_3/MonsterTokens.sol\":4847:5463  if(to.code.length > 0){... */\n      iszero\n      tag_150\n      jumpi\n        /* \"practica_3/MonsterTokens.sol\":4908:4910  to */\n      dup2\n        /* \"practica_3/MonsterTokens.sol\":4888:4928  ERC721TokenReceiver(to).onERC721Received */\n      0xffffffffffffffffffffffffffffffffffffffff\n      and\n      0x150b7a02\n        /* \"practica_3/MonsterTokens.sol\":4929:4939  msg.sender */\n      caller\n        /* \"practica_3/MonsterTokens.sol\":4941:4945  from */\n      dup6\n        /* \"practica_3/MonsterTokens.sol\":4947:4954  tokenId */\n      dup5\n        /* \"practica_3/MonsterTokens.sol\":4888:4959  ERC721TokenReceiver(to).onERC721Received(msg.sender, from, tokenId, \"\") */\n      mload(0x40)\n      dup5\n      0xffffffff\n      and\n      0xe0\n      shl\n      dup2\n      mstore\n      0x04\n      add\n      tag_151\n      swap4\n      swap3\n      swap2\n      swap1\n      tag_152\n      jump\t// in\n    tag_151:\n      0x20\n      mload(0x40)\n      dup1\n      dup4\n      sub\n      dup2\n      0x00\n      dup8\n      gas\n      call\n      swap3\n      pop\n      pop\n      pop\n      dup1\n      iszero\n      tag_153\n      jumpi\n      pop\n      mload(0x40)\n      returndatasize\n      not(0x1f)\n      0x1f\n      dup3\n      add\n      and\n      dup3\n      add\n      dup1\n      0x40\n      mstore\n      pop\n      dup2\n      add\n      swap1\n      tag_154\n      swap2\n      swap1\n      tag_155\n      jump\t// in\n    tag_154:\n      0x01\n    tag_153:\n        /* \"practica_3/MonsterTokens.sol\":4884:5453  try ERC721TokenReceiver(to).onERC721Received(msg.sender, from, tokenId, \"\") returns (bytes4 retval) {... */\n      tag_156\n      jumpi\n      returndatasize\n      dup1\n      0x00\n      dup2\n      eq\n      tag_161\n      jumpi\n      mload(0x40)\n      swap2\n      pop\n      and(add(returndatasize, 0x3f), not(0x1f))\n      dup3\n      add\n      0x40\n      mstore\n      returndatasize\n      dup3\n      mstore\n      returndatasize\n      0x00\n      0x20\n      dup5\n      add\n      returndatacopy\n      jump(tag_160)\n    tag_161:\n      0x60\n      swap2\n      pop\n    tag_160:\n      pop\n        /* \"practica_3/MonsterTokens.sol\":5210:5211  0 */\n      0x00\n        /* \"practica_3/MonsterTokens.sol\":5193:5199  reason */\n      dup2\n        /* \"practica_3/MonsterTokens.sol\":5193:5206  reason.length */\n      mload\n        /* \"practica_3/MonsterTokens.sol\":5193:5211  reason.length == 0 */\n      sub\n        /* \"practica_3/MonsterTokens.sol\":5189:5439  if (reason.length == 0) {... */\n      tag_162\n      jumpi\n        /* \"practica_3/MonsterTokens.sol\":5235:5261  revert(\"Invalid reciever\") */\n      mload(0x40)\n      0x08c379a000000000000000000000000000000000000000000000000000000000\n      dup2\n      mstore\n      0x04\n      add\n      tag_163\n      swap1\n      tag_164\n      jump\t// in\n    tag_163:\n      mload(0x40)\n      dup1\n      swap2\n      sub\n      swap1\n      revert\n        /* \"practica_3/MonsterTokens.sol\":5189:5439  if (reason.length == 0) {... */\n    tag_162:\n        /* \"practica_3/MonsterTokens.sol\":5391:5397  reason */\n      dup1\n        /* \"practica_3/MonsterTokens.sol\":5385:5398  mload(reason) */\n      mload\n        /* \"practica_3/MonsterTokens.sol\":5378:5382  0x20 */\n      0x20\n        /* \"practica_3/MonsterTokens.sol\":5370:5376  reason */\n      dup3\n        /* \"practica_3/MonsterTokens.sol\":5366:5383  add(reason, 0x20) */\n      add\n        /* \"practica_3/MonsterTokens.sol\":5359:5399  revert(add(reason, 0x20), mload(reason)) */\n      revert\n        /* \"practica_3/MonsterTokens.sol\":4884:5453  try ERC721TokenReceiver(to).onERC721Received(msg.sender, from, tokenId, \"\") returns (bytes4 retval) {... */\n    tag_156:\n        /* \"practica_3/MonsterTokens.sol\":5016:5061  ERC721TokenReceiver.onERC721Received.selector */\n      shl(0xe0, 0x150b7a02)\n        /* \"practica_3/MonsterTokens.sol\":5006:5061  retval != ERC721TokenReceiver.onERC721Received.selector */\n      not(0xffffffffffffffffffffffffffffffffffffffffffffffffffffffff)\n      and\n        /* \"practica_3/MonsterTokens.sol\":5006:5012  retval */\n      dup2\n        /* \"practica_3/MonsterTokens.sol\":5006:5061  retval != ERC721TokenReceiver.onERC721Received.selector */\n      not(0xffffffffffffffffffffffffffffffffffffffffffffffffffffffff)\n      and\n      eq\n        /* \"practica_3/MonsterTokens.sol\":5002:5128  if (retval != ERC721TokenReceiver.onERC721Received.selector) {... */\n      tag_167\n      jumpi\n        /* \"practica_3/MonsterTokens.sol\":5085:5109  revert(\"Token rejected\") */\n      mload(0x40)\n      0x08c379a000000000000000000000000000000000000000000000000000000000\n      dup2\n      mstore\n      0x04\n      add\n      tag_168\n      swap1\n      tag_169\n      jump\t// in\n    tag_168:\n      mload(0x40)\n      dup1\n      swap2\n      sub\n      swap1\n      revert\n        /* \"practica_3/MonsterTokens.sol\":5002:5128  if (retval != ERC721TokenReceiver.onERC721Received.selector) {... */\n    tag_167:\n        /* \"practica_3/MonsterTokens.sol\":4960:5142  returns (bytes4 retval) {... */\n      pop\n        /* \"practica_3/MonsterTokens.sol\":4847:5463  if(to.code.length > 0){... */\n    tag_150:\n        /* \"practica_3/MonsterTokens.sol\":5512:5513  1 */\n      0x01\n        /* \"practica_3/MonsterTokens.sol\":5483:5491  registry */\n      dup1\n        /* \"practica_3/MonsterTokens.sol\":5483:5508  registry[owners[tokenId]] */\n      0x00\n        /* \"practica_3/MonsterTokens.sol\":5492:5498  owners */\n      0x02\n        /* \"practica_3/MonsterTokens.sol\":5492:5507  owners[tokenId] */\n      0x00\n        /* \"practica_3/MonsterTokens.sol\":5499:5506  tokenId */\n      dup6\n        /* \"practica_3/MonsterTokens.sol\":5492:5507  owners[tokenId] */\n      dup2\n      mstore\n      0x20\n      add\n      swap1\n      dup2\n      mstore\n      0x20\n      add\n      0x00\n      keccak256\n      0x00\n      swap1\n      sload\n      swap1\n      0x0100\n      exp\n      swap1\n      div\n      0xffffffffffffffffffffffffffffffffffffffff\n      and\n        /* \"practica_3/MonsterTokens.sol\":5483:5508  registry[owners[tokenId]] */\n      0xffffffffffffffffffffffffffffffffffffffff\n      and\n      0xffffffffffffffffffffffffffffffffffffffff\n      and\n      dup2\n      mstore\n      0x20\n      add\n      swap1\n      dup2\n      mstore\n      0x20\n      add\n      0x00\n      keccak256\n      0x00\n        /* \"practica_3/MonsterTokens.sol\":5483:5513  registry[owners[tokenId]] -= 1 */\n      dup3\n      dup3\n      sload\n      tag_170\n      swap2\n      swap1\n      tag_137\n      jump\t// in\n    tag_170:\n      swap3\n      pop\n      pop\n      dup2\n      swap1\n      sstore\n      pop\n        /* \"practica_3/MonsterTokens.sol\":5539:5540  1 */\n      0x01\n        /* \"practica_3/MonsterTokens.sol\":5523:5531  registry */\n      dup1\n        /* \"practica_3/MonsterTokens.sol\":5523:5535  registry[to] */\n      0x00\n        /* \"practica_3/MonsterTokens.sol\":5532:5534  to */\n      dup5\n        /* \"practica_3/MonsterTokens.sol\":5523:5535  registry[to] */\n      0xffffffffffffffffffffffffffffffffffffffff\n      and\n      0xffffffffffffffffffffffffffffffffffffffff\n      and\n      dup2\n      mstore\n      0x20\n      add\n      swap1\n      dup2\n      mstore\n      0x20\n      add\n      0x00\n      keccak256\n      0x00\n        /* \"practica_3/MonsterTokens.sol\":5523:5540  registry[to] += 1 */\n      dup3\n      dup3\n      sload\n      tag_171\n      swap2\n      swap1\n      tag_139\n      jump\t// in\n    tag_171:\n      swap3\n      pop\n      pop\n      dup2\n      swap1\n      sstore\n      pop\n        /* \"practica_3/MonsterTokens.sol\":5568:5570  to */\n      dup2\n        /* \"practica_3/MonsterTokens.sol\":5550:5556  owners */\n      0x02\n        /* \"practica_3/MonsterTokens.sol\":5550:5565  owners[tokenId] */\n      0x00\n        /* \"practica_3/MonsterTokens.sol\":5557:5564  tokenId */\n      dup4\n        /* \"practica_3/MonsterTokens.sol\":5550:5565  owners[tokenId] */\n      dup2\n      mstore\n      0x20\n      add\n      swap1\n      dup2\n      mstore\n      0x20\n      add\n      0x00\n      keccak256\n      0x00\n        /* \"practica_3/MonsterTokens.sol\":5550:5570  owners[tokenId] = to */\n      0x0100\n      exp\n      dup2\n      sload\n      dup2\n      0xffffffffffffffffffffffffffffffffffffffff\n      mul\n      not\n      and\n      swap1\n      dup4\n      0xffffffffffffffffffffffffffffffffffffffff\n      and\n      mul\n      or\n      swap1\n      sstore\n      pop\n        /* \"practica_3/MonsterTokens.sol\":5609:5610  0 */\n      0x00\n        /* \"practica_3/MonsterTokens.sol\":5580:5589  approvals */\n      0x03\n        /* \"practica_3/MonsterTokens.sol\":5580:5598  approvals[tokenId] */\n      0x00\n        /* \"practica_3/MonsterTokens.sol\":5590:5597  tokenId */\n      dup4\n        /* \"practica_3/MonsterTokens.sol\":5580:5598  approvals[tokenId] */\n      dup2\n      mstore\n      0x20\n      add\n      swap1\n      dup2\n      mstore\n      0x20\n      add\n      0x00\n      keccak256\n      0x00\n        /* \"practica_3/MonsterTokens.sol\":5580:5611  approvals[tokenId] = address(0) */\n      0x0100\n      exp\n      dup2\n      sload\n      dup2\n      0xffffffffffffffffffffffffffffffffffffffff\n      mul\n      not\n      and\n      swap1\n      dup4\n      0xffffffffffffffffffffffffffffffffffffffff\n      and\n      mul\n      or\n      swap1\n      sstore\n      pop\n        /* \"practica_3/MonsterTokens.sol\":5646:5653  tokenId */\n      dup1\n        /* \"practica_3/MonsterTokens.sol\":5642:5644  to */\n      dup3\n        /* \"practica_3/MonsterTokens.sol\":5627:5654  Transfer(from, to, tokenId) */\n      0xffffffffffffffffffffffffffffffffffffffff\n      and\n        /* \"practica_3/MonsterTokens.sol\":5636:5640  from */\n      dup5\n        /* \"practica_3/MonsterTokens.sol\":5627:5654  Transfer(from, to, tokenId) */\n      0xffffffffffffffffffffffffffffffffffffffff\n      and\n      0xddf252ad1be2c89b69c2b068fc378daa952ba7f163c4a11628f55a4df523b3ef\n      mload(0x40)\n      mload(0x40)\n      dup1\n      swap2\n      sub\n      swap1\n      log4\n        /* \"practica_3/MonsterTokens.sol\":4430:5664  function safeTransferFrom( address from, address to, uint256 tokenId) external payable override {... */\n      pop\n      pop\n      pop\n      jump\t// out\n        /* \"practica_3/MonsterTokens.sol\":1365:1854  function removeMonsterToken(uint token_id_u) external payable {... */\n    tag_51:\n        /* \"practica_3/MonsterTokens.sol\":1488:1489  0 */\n      0x00\n        /* \"practica_3/MonsterTokens.sol\":1458:1490  owners[token_id_u] != address(0) */\n      0xffffffffffffffffffffffffffffffffffffffff\n      and\n        /* \"practica_3/MonsterTokens.sol\":1458:1464  owners */\n      0x02\n        /* \"practica_3/MonsterTokens.sol\":1458:1476  owners[token_id_u] */\n      0x00\n        /* \"practica_3/MonsterTokens.sol\":1465:1475  token_id_u */\n      dup4\n        /* \"practica_3/MonsterTokens.sol\":1458:1476  owners[token_id_u] */\n      dup2\n      mstore\n      0x20\n      add\n      swap1\n      dup2\n      mstore\n      0x20\n      add\n      0x00\n      keccak256\n      0x00\n      swap1\n      sload\n      swap1\n      0x0100\n      exp\n      swap1\n      div\n      0xffffffffffffffffffffffffffffffffffffffff\n      and\n        /* \"practica_3/MonsterTokens.sol\":1458:1490  owners[token_id_u] != address(0) */\n      0xffffffffffffffffffffffffffffffffffffffff\n      and\n      eq\n      iszero\n        /* \"practica_3/MonsterTokens.sol\":1458:1526  owners[token_id_u] != address(0) && owners[token_id_u] == msg.sender */\n      dup1\n      iszero\n      tag_173\n      jumpi\n      pop\n        /* \"practica_3/MonsterTokens.sol\":1516:1526  msg.sender */\n      caller\n        /* \"practica_3/MonsterTokens.sol\":1494:1526  owners[token_id_u] == msg.sender */\n      0xffffffffffffffffffffffffffffffffffffffff\n      and\n        /* \"practica_3/MonsterTokens.sol\":1494:1500  owners */\n      0x02\n        /* \"practica_3/MonsterTokens.sol\":1494:1512  owners[token_id_u] */\n      0x00\n        /* \"practica_3/MonsterTokens.sol\":1501:1511  token_id_u */\n      dup4\n        /* \"practica_3/MonsterTokens.sol\":1494:1512  owners[token_id_u] */\n      dup2\n      mstore\n      0x20\n      add\n      swap1\n      dup2\n      mstore\n      0x20\n      add\n      0x00\n      keccak256\n      0x00\n      swap1\n      sload\n      swap1\n      0x0100\n      exp\n      swap1\n      div\n      0xffffffffffffffffffffffffffffffffffffffff\n      and\n        /* \"practica_3/MonsterTokens.sol\":1494:1526  owners[token_id_u] == msg.sender */\n      0xffffffffffffffffffffffffffffffffffffffff\n      and\n      eq\n        /* \"practica_3/MonsterTokens.sol\":1458:1526  owners[token_id_u] != address(0) && owners[token_id_u] == msg.sender */\n    tag_173:\n        /* \"practica_3/MonsterTokens.sol\":1437:1571  require(... */\n      tag_174\n      jumpi\n      mload(0x40)\n      0x08c379a000000000000000000000000000000000000000000000000000000000\n      dup2\n      mstore\n      0x04\n      add\n      tag_175\n      swap1\n      tag_92\n      jump\t// in\n    tag_175:\n      mload(0x40)\n      dup1\n      swap2\n      sub\n      swap1\n      revert\n    tag_174:\n        /* \"practica_3/MonsterTokens.sol\":1593:1594  1 */\n      0x01\n        /* \"practica_3/MonsterTokens.sol\":1582:1589  creados */\n      0x05\n      0x00\n        /* \"practica_3/MonsterTokens.sol\":1582:1594  creados -= 1 */\n      dup3\n      dup3\n      sload\n      tag_176\n      swap2\n      swap1\n      tag_137\n      jump\t// in\n    tag_176:\n      swap3\n      pop\n      pop\n      dup2\n      swap1\n      sstore\n      pop\n        /* \"practica_3/MonsterTokens.sol\":1628:1629  1 */\n      0x01\n        /* \"practica_3/MonsterTokens.sol\":1604:1612  registry */\n      dup1\n        /* \"practica_3/MonsterTokens.sol\":1604:1624  registry[msg.sender] */\n      0x00\n        /* \"practica_3/MonsterTokens.sol\":1613:1623  msg.sender */\n      caller\n        /* \"practica_3/MonsterTokens.sol\":1604:1624  registry[msg.sender] */\n      0xffffffffffffffffffffffffffffffffffffffff\n      and\n      0xffffffffffffffffffffffffffffffffffffffff\n      and\n      dup2\n      mstore\n      0x20\n      add\n      swap1\n      dup2\n      mstore\n      0x20\n      add\n      0x00\n      keccak256\n      0x00\n        /* \"practica_3/MonsterTokens.sol\":1604:1629  registry[msg.sender] -= 1 */\n      dup3\n      dup3\n      sload\n      tag_177\n      swap2\n      swap1\n      tag_137\n      jump\t// in\n    tag_177:\n      swap3\n      pop\n      pop\n      dup2\n      swap1\n      sstore\n      pop\n        /* \"practica_3/MonsterTokens.sol\":1646:1652  owners */\n      0x02\n        /* \"practica_3/MonsterTokens.sol\":1646:1664  owners[token_id_u] */\n      0x00\n        /* \"practica_3/MonsterTokens.sol\":1653:1663  token_id_u */\n      dup3\n        /* \"practica_3/MonsterTokens.sol\":1646:1664  owners[token_id_u] */\n      dup2\n      mstore\n      0x20\n      add\n      swap1\n      dup2\n      mstore\n      0x20\n      add\n      0x00\n      keccak256\n      0x00\n        /* \"practica_3/MonsterTokens.sol\":1639:1664  delete owners[token_id_u] */\n      0x0100\n      exp\n      dup2\n      sload\n      swap1\n      0xffffffffffffffffffffffffffffffffffffffff\n      mul\n      not\n      and\n      swap1\n      sstore\n        /* \"practica_3/MonsterTokens.sol\":1681:1690  approvals */\n      0x03\n        /* \"practica_3/MonsterTokens.sol\":1681:1702  approvals[token_id_u] */\n      0x00\n        /* \"practica_3/MonsterTokens.sol\":1691:1701  token_id_u */\n      dup3\n        /* \"practica_3/MonsterTokens.sol\":1681:1702  approvals[token_id_u] */\n      dup2\n      mstore\n      0x20\n      add\n      swap1\n      dup2\n      mstore\n      0x20\n      add\n      0x00\n      keccak256\n      0x00\n        /* \"practica_3/MonsterTokens.sol\":1674:1702  delete approvals[token_id_u] */\n      0x0100\n      exp\n      dup2\n      sload\n      swap1\n      0xffffffffffffffffffffffffffffffffffffffff\n      mul\n      not\n      and\n      swap1\n      sstore\n        /* \"practica_3/MonsterTokens.sol\":1719:1725  tokens */\n      0x04\n        /* \"practica_3/MonsterTokens.sol\":1719:1737  tokens[token_id_u] */\n      0x00\n        /* \"practica_3/MonsterTokens.sol\":1726:1736  token_id_u */\n      dup3\n        /* \"practica_3/MonsterTokens.sol\":1719:1737  tokens[token_id_u] */\n      dup2\n      mstore\n      0x20\n      add\n      swap1\n      dup2\n      mstore\n      0x20\n      add\n      0x00\n      keccak256\n      0x00\n        /* \"practica_3/MonsterTokens.sol\":1712:1737  delete tokens[token_id_u] */\n      0x00\n      dup3\n      add\n      0x00\n      tag_178\n      swap2\n      swap1\n      tag_179\n      jump\t// in\n    tag_178:\n      0x01\n      dup3\n      add\n      0x00\n      0x00\n      dup3\n      add\n      0x00\n      tag_180\n      swap2\n      swap1\n      tag_181\n      jump\t// in\n    tag_180:\n      0x01\n      dup3\n      add\n      0x00\n      tag_182\n      swap2\n      swap1\n      tag_183\n      jump\t// in\n    tag_182:\n      pop\n      pop\n      pop\n      pop\n        /* \"practica_3/MonsterTokens.sol\":1749:1759  bool exito */\n      0x00\n        /* \"practica_3/MonsterTokens.sol\":1773:1783  msg.sender */\n      caller\n        /* \"practica_3/MonsterTokens.sol\":1765:1789  payable(msg.sender).call */\n      0xffffffffffffffffffffffffffffffffffffffff\n      and\n        /* \"practica_3/MonsterTokens.sol\":922:926  1000 */\n      0x03e8\n        /* \"practica_3/MonsterTokens.sol\":1765:1805  payable(msg.sender).call{value: FEE}(\"\") */\n      mload(0x40)\n      tag_184\n      swap1\n      tag_185\n      jump\t// in\n    tag_184:\n      0x00\n      mload(0x40)\n      dup1\n      dup4\n      sub\n      dup2\n      dup6\n      dup8\n      gas\n      call\n      swap3\n      pop\n      pop\n      pop\n      returndatasize\n      dup1\n      0x00\n      dup2\n      eq\n      tag_188\n      jumpi\n      mload(0x40)\n      swap2\n      pop\n      and(add(returndatasize, 0x3f), not(0x1f))\n      dup3\n      add\n      0x40\n      mstore\n      returndatasize\n      dup3\n      mstore\n      returndatasize\n      0x00\n      0x20\n      dup5\n      add\n      returndatacopy\n      jump(tag_187)\n    tag_188:\n      0x60\n      swap2\n      pop\n    tag_187:\n      pop\n        /* \"practica_3/MonsterTokens.sol\":1748:1805  (bool exito, ) = payable(msg.sender).call{value: FEE}(\"\") */\n      pop\n      swap1\n      pop\n        /* \"practica_3/MonsterTokens.sol\":1823:1828  exito */\n      dup1\n        /* \"practica_3/MonsterTokens.sol\":1815:1847  require(exito, \"Payment failed\") */\n      tag_189\n      jumpi\n      mload(0x40)\n      0x08c379a000000000000000000000000000000000000000000000000000000000\n      dup2\n      mstore\n      0x04\n      add\n      tag_190\n      swap1\n      tag_191\n      jump\t// in\n    tag_190:\n      mload(0x40)\n      dup1\n      swap2\n      sub\n      swap1\n      revert\n    tag_189:\n        /* \"practica_3/MonsterTokens.sol\":1427:1854  {... */\n      pop\n        /* \"practica_3/MonsterTokens.sol\":1365:1854  function removeMonsterToken(uint token_id_u) external payable {... */\n      pop\n      jump\t// out\n        /* \"practica_3/MonsterTokens.sol\":5847:6044  function ownerOf(uint256 tokenId) external view override returns (address) {... */\n    tag_55:\n        /* \"practica_3/MonsterTokens.sol\":5913:5920  address */\n      0x00\n        /* \"practica_3/MonsterTokens.sol\":5932:5944  address addr */\n      0x00\n        /* \"practica_3/MonsterTokens.sol\":5947:5953  owners */\n      0x02\n        /* \"practica_3/MonsterTokens.sol\":5947:5962  owners[tokenId] */\n      0x00\n        /* \"practica_3/MonsterTokens.sol\":5954:5961  tokenId */\n      dup5\n        /* \"practica_3/MonsterTokens.sol\":5947:5962  owners[tokenId] */\n      dup2\n      mstore\n      0x20\n      add\n      swap1\n      dup2\n      mstore\n      0x20\n      add\n      0x00\n      keccak256\n      0x00\n      swap1\n      sload\n      swap1\n      0x0100\n      exp\n      swap1\n      div\n      0xffffffffffffffffffffffffffffffffffffffff\n      and\n        /* \"practica_3/MonsterTokens.sol\":5932:5962  address addr = owners[tokenId] */\n      swap1\n      pop\n        /* \"practica_3/MonsterTokens.sol\":5996:5997  0 */\n      0x00\n        /* \"practica_3/MonsterTokens.sol\":5980:5998  addr != address(0) */\n      0xffffffffffffffffffffffffffffffffffffffff\n      and\n        /* \"practica_3/MonsterTokens.sol\":5980:5984  addr */\n      dup2\n        /* \"practica_3/MonsterTokens.sol\":5980:5998  addr != address(0) */\n      0xffffffffffffffffffffffffffffffffffffffff\n      and\n      sub\n        /* \"practica_3/MonsterTokens.sol\":5972:6016  require(addr != address(0), \"Invalid token\") */\n      tag_193\n      jumpi\n      mload(0x40)\n      0x08c379a000000000000000000000000000000000000000000000000000000000\n      dup2\n      mstore\n      0x04\n      add\n      tag_194\n      swap1\n      tag_88\n      jump\t// in\n    tag_194:\n      mload(0x40)\n      dup1\n      swap2\n      sub\n      swap1\n      revert\n    tag_193:\n        /* \"practica_3/MonsterTokens.sol\":6033:6037  addr */\n      dup1\n        /* \"practica_3/MonsterTokens.sol\":6026:6037  return addr */\n      swap2\n      pop\n      pop\n        /* \"practica_3/MonsterTokens.sol\":5847:6044  function ownerOf(uint256 tokenId) external view override returns (address) {... */\n      swap2\n      swap1\n      pop\n      jump\t// out\n        /* \"practica_3/MonsterTokens.sol\":5670:5841  function balanceOf(address owner) external view override returns (uint256) {... */\n    tag_61:\n        /* \"practica_3/MonsterTokens.sol\":5736:5743  uint256 */\n      0x00\n        /* \"practica_3/MonsterTokens.sol\":5780:5781  0 */\n      0x00\n        /* \"practica_3/MonsterTokens.sol\":5763:5782  owner != address(0) */\n      0xffffffffffffffffffffffffffffffffffffffff\n      and\n        /* \"practica_3/MonsterTokens.sol\":5763:5768  owner */\n      dup3\n        /* \"practica_3/MonsterTokens.sol\":5763:5782  owner != address(0) */\n      0xffffffffffffffffffffffffffffffffffffffff\n      and\n      sub\n        /* \"practica_3/MonsterTokens.sol\":5755:5802  require(owner != address(0), \"Invalid address\") */\n      tag_196\n      jumpi\n      mload(0x40)\n      0x08c379a000000000000000000000000000000000000000000000000000000000\n      dup2\n      mstore\n      0x04\n      add\n      tag_197\n      swap1\n      tag_198\n      jump\t// in\n    tag_197:\n      mload(0x40)\n      dup1\n      swap2\n      sub\n      swap1\n      revert\n    tag_196:\n        /* \"practica_3/MonsterTokens.sol\":5819:5827  registry */\n      0x01\n        /* \"practica_3/MonsterTokens.sol\":5819:5834  registry[owner] */\n      0x00\n        /* \"practica_3/MonsterTokens.sol\":5828:5833  owner */\n      dup4\n        /* \"practica_3/MonsterTokens.sol\":5819:5834  registry[owner] */\n      0xffffffffffffffffffffffffffffffffffffffff\n      and\n      0xffffffffffffffffffffffffffffffffffffffff\n      and\n      dup2\n      mstore\n      0x20\n      add\n      swap1\n      dup2\n      mstore\n      0x20\n      add\n      0x00\n      keccak256\n      sload\n        /* \"practica_3/MonsterTokens.sol\":5812:5834  return registry[owner] */\n      swap1\n      pop\n        /* \"practica_3/MonsterTokens.sol\":5670:5841  function balanceOf(address owner) external view override returns (uint256) {... */\n      swap2\n      swap1\n      pop\n      jump\t// out\n        /* \"practica_3/MonsterTokens.sol\":997:1359  function createNewToken(string calldata nombre) external payable returns (uint) {... */\n    tag_67:\n        /* \"practica_3/MonsterTokens.sol\":1071:1075  uint */\n      0x00\n        /* \"practica_3/MonsterTokens.sol\":922:926  1000 */\n      0x03e8\n        /* \"practica_3/MonsterTokens.sol\":1095:1104  msg.value */\n      callvalue\n        /* \"practica_3/MonsterTokens.sol\":1095:1111  msg.value >= FEE */\n      lt\n      iszero\n        /* \"practica_3/MonsterTokens.sol\":1087:1134  require(msg.value >= FEE, \"Insufficient funds\") */\n      tag_200\n      jumpi\n      mload(0x40)\n      0x08c379a000000000000000000000000000000000000000000000000000000000\n      dup2\n      mstore\n      0x04\n      add\n      tag_201\n      swap1\n      tag_202\n      jump\t// in\n    tag_201:\n      mload(0x40)\n      dup1\n      swap2\n      sub\n      swap1\n      revert\n    tag_200:\n        /* \"practica_3/MonsterTokens.sol\":1169:1170  1 */\n      0x01\n        /* \"practica_3/MonsterTokens.sol\":1145:1153  registry */\n      dup1\n        /* \"practica_3/MonsterTokens.sol\":1145:1165  registry[msg.sender] */\n      0x00\n        /* \"practica_3/MonsterTokens.sol\":1154:1164  msg.sender */\n      caller\n        /* \"practica_3/MonsterTokens.sol\":1145:1165  registry[msg.sender] */\n      0xffffffffffffffffffffffffffffffffffffffff\n      and\n      0xffffffffffffffffffffffffffffffffffffffff\n      and\n      dup2\n      mstore\n      0x20\n      add\n      swap1\n      dup2\n      mstore\n      0x20\n      add\n      0x00\n      keccak256\n      0x00\n        /* \"practica_3/MonsterTokens.sol\":1145:1170  registry[msg.sender] += 1 */\n      dup3\n      dup3\n      sload\n      tag_203\n      swap2\n      swap1\n      tag_139\n      jump\t// in\n    tag_203:\n      swap3\n      pop\n      pop\n      dup2\n      swap1\n      sstore\n      pop\n        /* \"practica_3/MonsterTokens.sol\":1206:1216  msg.sender */\n      caller\n        /* \"practica_3/MonsterTokens.sol\":1180:1186  owners */\n      0x02\n        /* \"practica_3/MonsterTokens.sol\":1180:1203  owners[token_id_actual] */\n      0x00\n        /* \"practica_3/MonsterTokens.sol\":1187:1202  token_id_actual */\n      sload(0x00)\n        /* \"practica_3/MonsterTokens.sol\":1180:1203  owners[token_id_actual] */\n      dup2\n      mstore\n      0x20\n      add\n      swap1\n      dup2\n      mstore\n      0x20\n      add\n      0x00\n      keccak256\n      0x00\n        /* \"practica_3/MonsterTokens.sol\":1180:1216  owners[token_id_actual] = msg.sender */\n      0x0100\n      exp\n      dup2\n      sload\n      dup2\n      0xffffffffffffffffffffffffffffffffffffffff\n      mul\n      not\n      and\n      swap1\n      dup4\n      0xffffffffffffffffffffffffffffffffffffffff\n      and\n      mul\n      or\n      swap1\n      sstore\n      pop\n        /* \"practica_3/MonsterTokens.sol\":1257:1263  nombre */\n      dup3\n      dup3\n        /* \"practica_3/MonsterTokens.sol\":1226:1232  tokens */\n      0x04\n        /* \"practica_3/MonsterTokens.sol\":1226:1249  tokens[token_id_actual] */\n      0x00\n        /* \"practica_3/MonsterTokens.sol\":1233:1248  token_id_actual */\n      sload(0x00)\n        /* \"practica_3/MonsterTokens.sol\":1226:1249  tokens[token_id_actual] */\n      dup2\n      mstore\n      0x20\n      add\n      swap1\n      dup2\n      mstore\n      0x20\n      add\n      0x00\n      keccak256\n        /* \"practica_3/MonsterTokens.sol\":1226:1254  tokens[token_id_actual].name */\n      0x00\n      add\n        /* \"practica_3/MonsterTokens.sol\":1226:1263  tokens[token_id_actual].name = nombre */\n      swap2\n      dup3\n      tag_204\n      swap3\n      swap2\n      swap1\n      tag_123\n      jump\t// in\n    tag_204:\n      pop\n        /* \"practica_3/MonsterTokens.sol\":1285:1286  1 */\n      0x01\n        /* \"practica_3/MonsterTokens.sol\":1274:1281  creados */\n      0x05\n      0x00\n        /* \"practica_3/MonsterTokens.sol\":1274:1286  creados += 1 */\n      dup3\n      dup3\n      sload\n      tag_205\n      swap2\n      swap1\n      tag_139\n      jump\t// in\n    tag_205:\n      swap3\n      pop\n      pop\n      dup2\n      swap1\n      sstore\n      pop\n        /* \"practica_3/MonsterTokens.sol\":1315:1316  1 */\n      0x01\n        /* \"practica_3/MonsterTokens.sol\":1296:1311  token_id_actual */\n      0x00\n      0x00\n        /* \"practica_3/MonsterTokens.sol\":1296:1316  token_id_actual += 1 */\n      dup3\n      dup3\n      sload\n      tag_206\n      swap2\n      swap1\n      tag_139\n      jump\t// in\n    tag_206:\n      swap3\n      pop\n      pop\n      dup2\n      swap1\n      sstore\n      pop\n        /* \"practica_3/MonsterTokens.sol\":1351:1352  1 */\n      0x01\n        /* \"practica_3/MonsterTokens.sol\":1333:1348  token_id_actual */\n      sload(0x00)\n        /* \"practica_3/MonsterTokens.sol\":1333:1352  token_id_actual - 1 */\n      tag_207\n      swap2\n      swap1\n      tag_137\n      jump\t// in\n    tag_207:\n        /* \"practica_3/MonsterTokens.sol\":1326:1352  return token_id_actual - 1 */\n      swap1\n      pop\n        /* \"practica_3/MonsterTokens.sol\":997:1359  function createNewToken(string calldata nombre) external payable returns (uint) {... */\n      swap3\n      swap2\n      pop\n      pop\n      jump\t// out\n        /* \"practica_3/MonsterTokens.sol\":892:926  uint256 public constant FEE = 1000 */\n    tag_71:\n        /* \"practica_3/MonsterTokens.sol\":922:926  1000 */\n      0x03e8\n        /* \"practica_3/MonsterTokens.sol\":892:926  uint256 public constant FEE = 1000 */\n      dup2\n      jump\t// out\n        /* \"practica_3/MonsterTokens.sol\":3000:3292  function collectProfits() external {... */\n    tag_75:\n        /* \"practica_3/MonsterTokens.sol\":3067:3081  contract_owner */\n      0x06\n      0x00\n      swap1\n      sload\n      swap1\n      0x0100\n      exp\n      swap1\n      div\n      0xffffffffffffffffffffffffffffffffffffffff\n      and\n        /* \"practica_3/MonsterTokens.sol\":3053:3081  msg.sender == contract_owner */\n      0xffffffffffffffffffffffffffffffffffffffff\n      and\n        /* \"practica_3/MonsterTokens.sol\":3053:3063  msg.sender */\n      caller\n        /* \"practica_3/MonsterTokens.sol\":3053:3081  msg.sender == contract_owner */\n      0xffffffffffffffffffffffffffffffffffffffff\n      and\n      eq\n        /* \"practica_3/MonsterTokens.sol\":3045:3105  require(msg.sender == contract_owner, \"Unauthorized access\") */\n      tag_209\n      jumpi\n      mload(0x40)\n      0x08c379a000000000000000000000000000000000000000000000000000000000\n      dup2\n      mstore\n      0x04\n      add\n      tag_210\n      swap1\n      tag_92\n      jump\t// in\n    tag_210:\n      mload(0x40)\n      dup1\n      swap2\n      sub\n      swap1\n      revert\n    tag_209:\n        /* \"practica_3/MonsterTokens.sol\":3115:3127  uint profits */\n      0x00\n        /* \"practica_3/MonsterTokens.sol\":922:926  1000 */\n      0x03e8\n        /* \"practica_3/MonsterTokens.sol\":3154:3161  creados */\n      sload(0x05)\n        /* \"practica_3/MonsterTokens.sol\":3154:3167  creados * FEE */\n      tag_211\n      swap2\n      swap1\n      tag_112\n      jump\t// in\n    tag_211:\n        /* \"practica_3/MonsterTokens.sol\":3130:3151  address(this).balance */\n      selfbalance\n        /* \"practica_3/MonsterTokens.sol\":3130:3167  address(this).balance - creados * FEE */\n      tag_212\n      swap2\n      swap1\n      tag_137\n      jump\t// in\n    tag_212:\n        /* \"practica_3/MonsterTokens.sol\":3115:3167  uint profits = address(this).balance - creados * FEE */\n      swap1\n      pop\n        /* \"practica_3/MonsterTokens.sol\":3178:3190  bool success */\n      0x00\n        /* \"practica_3/MonsterTokens.sol\":3204:3214  msg.sender */\n      caller\n        /* \"practica_3/MonsterTokens.sol\":3196:3220  payable(msg.sender).call */\n      0xffffffffffffffffffffffffffffffffffffffff\n      and\n        /* \"practica_3/MonsterTokens.sol\":3228:3235  profits */\n      dup3\n        /* \"practica_3/MonsterTokens.sol\":3196:3240  payable(msg.sender).call{value: profits}(\"\") */\n      mload(0x40)\n      tag_213\n      swap1\n      tag_185\n      jump\t// in\n    tag_213:\n      0x00\n      mload(0x40)\n      dup1\n      dup4\n      sub\n      dup2\n      dup6\n      dup8\n      gas\n      call\n      swap3\n      pop\n      pop\n      pop\n      returndatasize\n      dup1\n      0x00\n      dup2\n      eq\n      tag_216\n      jumpi\n      mload(0x40)\n      swap2\n      pop\n      and(add(returndatasize, 0x3f), not(0x1f))\n      dup3\n      add\n      0x40\n      mstore\n      returndatasize\n      dup3\n      mstore\n      returndatasize\n      0x00\n      0x20\n      dup5\n      add\n      returndatacopy\n      jump(tag_215)\n    tag_216:\n      0x60\n      swap2\n      pop\n    tag_215:\n      pop\n        /* \"practica_3/MonsterTokens.sol\":3177:3240  (bool success, ) = payable(msg.sender).call{value: profits}(\"\") */\n      pop\n      swap1\n      pop\n        /* \"practica_3/MonsterTokens.sol\":3258:3265  success */\n      dup1\n        /* \"practica_3/MonsterTokens.sol\":3250:3285  require(success, \"Transfer failed\") */\n      tag_217\n      jumpi\n      mload(0x40)\n      0x08c379a000000000000000000000000000000000000000000000000000000000\n      dup2\n      mstore\n      0x04\n      add\n      tag_218\n      swap1\n      tag_219\n      jump\t// in\n    tag_218:\n      mload(0x40)\n      dup1\n      swap2\n      sub\n      swap1\n      revert\n    tag_217:\n        /* \"practica_3/MonsterTokens.sol\":3035:3292  {... */\n      pop\n      pop\n        /* \"practica_3/MonsterTokens.sol\":3000:3292  function collectProfits() external {... */\n      jump\t// out\n        /* \"practica_3/MonsterTokens.sol\":2632:2994  function incrementFirePower(uint token_id_p, uint8 incr) external payable {... */\n    tag_79:\n        /* \"practica_3/MonsterTokens.sol\":2762:2772  msg.sender */\n      caller\n        /* \"practica_3/MonsterTokens.sol\":2737:2772  approvals[token_id_p] == msg.sender */\n      0xffffffffffffffffffffffffffffffffffffffff\n      and\n        /* \"practica_3/MonsterTokens.sol\":2737:2746  approvals */\n      0x03\n        /* \"practica_3/MonsterTokens.sol\":2737:2758  approvals[token_id_p] */\n      0x00\n        /* \"practica_3/MonsterTokens.sol\":2747:2757  token_id_p */\n      dup5\n        /* \"practica_3/MonsterTokens.sol\":2737:2758  approvals[token_id_p] */\n      dup2\n      mstore\n      0x20\n      add\n      swap1\n      dup2\n      mstore\n      0x20\n      add\n      0x00\n      keccak256\n      0x00\n      swap1\n      sload\n      swap1\n      0x0100\n      exp\n      swap1\n      div\n      0xffffffffffffffffffffffffffffffffffffffff\n      and\n        /* \"practica_3/MonsterTokens.sol\":2737:2772  approvals[token_id_p] == msg.sender */\n      0xffffffffffffffffffffffffffffffffffffffff\n      and\n      eq\n        /* \"practica_3/MonsterTokens.sol\":2737:2808  approvals[token_id_p] == msg.sender || owners[token_id_p] == msg.sender */\n      dup1\n      tag_221\n      jumpi\n      pop\n        /* \"practica_3/MonsterTokens.sol\":2798:2808  msg.sender */\n      caller\n        /* \"practica_3/MonsterTokens.sol\":2776:2808  owners[token_id_p] == msg.sender */\n      0xffffffffffffffffffffffffffffffffffffffff\n      and\n        /* \"practica_3/MonsterTokens.sol\":2776:2782  owners */\n      0x02\n        /* \"practica_3/MonsterTokens.sol\":2776:2794  owners[token_id_p] */\n      0x00\n        /* \"practica_3/MonsterTokens.sol\":2783:2793  token_id_p */\n      dup5\n        /* \"practica_3/MonsterTokens.sol\":2776:2794  owners[token_id_p] */\n      dup2\n      mstore\n      0x20\n      add\n      swap1\n      dup2\n      mstore\n      0x20\n      add\n      0x00\n      keccak256\n      0x00\n      swap1\n      sload\n      swap1\n      0x0100\n      exp\n      swap1\n      div\n      0xffffffffffffffffffffffffffffffffffffffff\n      and\n        /* \"practica_3/MonsterTokens.sol\":2776:2808  owners[token_id_p] == msg.sender */\n      0xffffffffffffffffffffffffffffffffffffffff\n      and\n      eq\n        /* \"practica_3/MonsterTokens.sol\":2737:2808  approvals[token_id_p] == msg.sender || owners[token_id_p] == msg.sender */\n    tag_221:\n        /* \"practica_3/MonsterTokens.sol\":2716:2853  require(... */\n      tag_222\n      jumpi\n      mload(0x40)\n      0x08c379a000000000000000000000000000000000000000000000000000000000\n      dup2\n      mstore\n      0x04\n      add\n      tag_223\n      swap1\n      tag_92\n      jump\t// in\n    tag_223:\n      mload(0x40)\n      dup1\n      swap2\n      sub\n      swap1\n      revert\n    tag_222:\n        /* \"practica_3/MonsterTokens.sol\":2901:2902  2 */\n      0x02\n        /* \"practica_3/MonsterTokens.sol\":2892:2896  incr */\n      dup2\n        /* \"practica_3/MonsterTokens.sol\":2884:2897  uint256(incr) */\n      0xff\n      and\n        /* \"practica_3/MonsterTokens.sol\":2884:2902  uint256(incr) ** 2 */\n      tag_224\n      swap2\n      swap1\n      tag_225\n      jump\t// in\n    tag_224:\n        /* \"practica_3/MonsterTokens.sol\":2871:2880  msg.value */\n      callvalue\n        /* \"practica_3/MonsterTokens.sol\":2871:2902  msg.value >= uint256(incr) ** 2 */\n      lt\n      iszero\n        /* \"practica_3/MonsterTokens.sol\":2863:2923  require(msg.value >= uint256(incr) ** 2, \"Not enough money\") */\n      tag_226\n      jumpi\n      mload(0x40)\n      0x08c379a000000000000000000000000000000000000000000000000000000000\n      dup2\n      mstore\n      0x04\n      add\n      tag_227\n      swap1\n      tag_115\n      jump\t// in\n    tag_227:\n      mload(0x40)\n      dup1\n      swap2\n      sub\n      swap1\n      revert\n    tag_226:\n        /* \"practica_3/MonsterTokens.sol\":2934:2987  tokens[token_id_p].weapons.firePowers.increment(incr) */\n      tag_228\n        /* \"practica_3/MonsterTokens.sol\":2982:2986  incr */\n      dup2\n        /* \"practica_3/MonsterTokens.sol\":2934:2940  tokens */\n      0x04\n        /* \"practica_3/MonsterTokens.sol\":2934:2952  tokens[token_id_p] */\n      0x00\n        /* \"practica_3/MonsterTokens.sol\":2941:2951  token_id_p */\n      dup6\n        /* \"practica_3/MonsterTokens.sol\":2934:2952  tokens[token_id_p] */\n      dup2\n      mstore\n      0x20\n      add\n      swap1\n      dup2\n      mstore\n      0x20\n      add\n      0x00\n      keccak256\n        /* \"practica_3/MonsterTokens.sol\":2934:2960  tokens[token_id_p].weapons */\n      0x01\n      add\n        /* \"practica_3/MonsterTokens.sol\":2934:2971  tokens[token_id_p].weapons.firePowers */\n      0x01\n      add\n        /* \"practica_3/MonsterTokens.sol\":2934:2981  tokens[token_id_p].weapons.firePowers.increment */\n      tag_229\n      swap1\n        /* \"practica_3/MonsterTokens.sol\":2934:2987  tokens[token_id_p].weapons.firePowers.increment(incr) */\n      swap2\n      swap1\n      0xffffffff\n      and\n      jump\t// in\n    tag_228:\n        /* \"practica_3/MonsterTokens.sol\":2632:2994  function incrementFirePower(uint token_id_p, uint8 incr) external payable {... */\n      pop\n      pop\n      jump\t// out\n        /* \"practica_3/ArrayUtils.sol\":379:553  function sum(uint[] storage arr) internal view returns (uint) {... */\n    tag_98:\n        /* \"practica_3/ArrayUtils.sol\":435:439  uint */\n      0x00\n        /* \"practica_3/ArrayUtils.sol\":451:461  uint total */\n      0x00\n        /* \"practica_3/ArrayUtils.sol\":476:482  uint i */\n      0x00\n        /* \"practica_3/ArrayUtils.sol\":485:486  0 */\n      0x00\n        /* \"practica_3/ArrayUtils.sol\":476:486  uint i = 0 */\n      swap1\n      pop\n        /* \"practica_3/ArrayUtils.sol\":471:524  for (uint i = 0; i < arr.length; i++) total += arr[i] */\n    tag_231:\n        /* \"practica_3/ArrayUtils.sol\":492:495  arr */\n      dup4\n        /* \"practica_3/ArrayUtils.sol\":492:502  arr.length */\n      dup1\n      sload\n      swap1\n      pop\n        /* \"practica_3/ArrayUtils.sol\":488:489  i */\n      dup2\n        /* \"practica_3/ArrayUtils.sol\":488:502  i < arr.length */\n      lt\n        /* \"practica_3/ArrayUtils.sol\":471:524  for (uint i = 0; i < arr.length; i++) total += arr[i] */\n      iszero\n      tag_232\n      jumpi\n        /* \"practica_3/ArrayUtils.sol\":518:521  arr */\n      dup4\n        /* \"practica_3/ArrayUtils.sol\":522:523  i */\n      dup2\n        /* \"practica_3/ArrayUtils.sol\":518:524  arr[i] */\n      dup2\n      sload\n      dup2\n      lt\n      tag_234\n      jumpi\n      tag_235\n      tag_236\n      jump\t// in\n    tag_235:\n    tag_234:\n      swap1\n      0x00\n      mstore\n      keccak256(0x00, 0x20)\n      add\n      sload\n        /* \"practica_3/ArrayUtils.sol\":509:524  total += arr[i] */\n      dup3\n      tag_238\n      swap2\n      swap1\n      tag_139\n      jump\t// in\n    tag_238:\n      swap2\n      pop\n        /* \"practica_3/ArrayUtils.sol\":504:507  i++ */\n      dup1\n      dup1\n      0x01\n      add\n      swap2\n      pop\n      pop\n        /* \"practica_3/ArrayUtils.sol\":471:524  for (uint i = 0; i < arr.length; i++) total += arr[i] */\n      jump(tag_231)\n    tag_232:\n      pop\n        /* \"practica_3/ArrayUtils.sol\":541:546  total */\n      dup1\n        /* \"practica_3/ArrayUtils.sol\":534:546  return total */\n      swap2\n      pop\n      pop\n        /* \"practica_3/ArrayUtils.sol\":379:553  function sum(uint[] storage arr) internal view returns (uint) {... */\n      swap2\n      swap1\n      pop\n      jump\t// out\n        /* \"practica_3/ArrayUtils.sol\":83:373  function contains(string[] storage arr, string memory val) internal view returns (bool) {... */\n    tag_117:\n        /* \"practica_3/ArrayUtils.sol\":165:169  bool */\n      0x00\n        /* \"practica_3/ArrayUtils.sol\":181:196  bytes32 hashVal */\n      0x00\n        /* \"practica_3/ArrayUtils.sol\":215:218  val */\n      dup3\n        /* \"practica_3/ArrayUtils.sol\":199:220  keccak256(bytes(val)) */\n      dup1\n      mload\n      swap1\n      0x20\n      add\n      keccak256\n        /* \"practica_3/ArrayUtils.sol\":181:220  bytes32 hashVal = keccak256(bytes(val)) */\n      swap1\n      pop\n        /* \"practica_3/ArrayUtils.sol\":235:241  uint i */\n      0x00\n        /* \"practica_3/ArrayUtils.sol\":244:245  0 */\n      0x00\n        /* \"practica_3/ArrayUtils.sol\":235:245  uint i = 0 */\n      swap1\n      pop\n        /* \"practica_3/ArrayUtils.sol\":230:345  for (uint i = 0; i < arr.length; i++) {... */\n    tag_240:\n        /* \"practica_3/ArrayUtils.sol\":251:254  arr */\n      dup5\n        /* \"practica_3/ArrayUtils.sol\":251:261  arr.length */\n      dup1\n      sload\n      swap1\n      pop\n        /* \"practica_3/ArrayUtils.sol\":247:248  i */\n      dup2\n        /* \"practica_3/ArrayUtils.sol\":247:261  i < arr.length */\n      lt\n        /* \"practica_3/ArrayUtils.sol\":230:345  for (uint i = 0; i < arr.length; i++) {... */\n      iszero\n      tag_241\n      jumpi\n        /* \"practica_3/ArrayUtils.sol\":314:321  hashVal */\n      dup2\n        /* \"practica_3/ArrayUtils.sol\":302:305  arr */\n      dup6\n        /* \"practica_3/ArrayUtils.sol\":306:307  i */\n      dup3\n        /* \"practica_3/ArrayUtils.sol\":302:308  arr[i] */\n      dup2\n      sload\n      dup2\n      lt\n      tag_243\n      jumpi\n      tag_244\n      tag_236\n      jump\t// in\n    tag_244:\n    tag_243:\n      swap1\n      0x00\n      mstore\n      keccak256(0x00, 0x20)\n      add\n        /* \"practica_3/ArrayUtils.sol\":286:310  keccak256(bytes(arr[i])) */\n      mload(0x40)\n      tag_246\n      swap2\n      swap1\n      tag_247\n      jump\t// in\n    tag_246:\n      mload(0x40)\n      dup1\n      swap2\n      sub\n      swap1\n      keccak256\n        /* \"practica_3/ArrayUtils.sol\":286:321  keccak256(bytes(arr[i])) == hashVal */\n      sub\n        /* \"practica_3/ArrayUtils.sol\":282:334  if (keccak256(bytes(arr[i])) == hashVal) return true */\n      tag_248\n      jumpi\n        /* \"practica_3/ArrayUtils.sol\":330:334  true */\n      0x01\n        /* \"practica_3/ArrayUtils.sol\":323:334  return true */\n      swap3\n      pop\n      pop\n      pop\n      jump(tag_239)\n        /* \"practica_3/ArrayUtils.sol\":282:334  if (keccak256(bytes(arr[i])) == hashVal) return true */\n    tag_248:\n        /* \"practica_3/ArrayUtils.sol\":263:266  i++ */\n      dup1\n      dup1\n      0x01\n      add\n      swap2\n      pop\n      pop\n        /* \"practica_3/ArrayUtils.sol\":230:345  for (uint i = 0; i < arr.length; i++) {... */\n      jump(tag_240)\n    tag_241:\n      pop\n        /* \"practica_3/ArrayUtils.sol\":361:366  false */\n      0x00\n        /* \"practica_3/ArrayUtils.sol\":354:366  return false */\n      swap2\n      pop\n      pop\n        /* \"practica_3/ArrayUtils.sol\":83:373  function contains(string[] storage arr, string memory val) internal view returns (bool) {... */\n    tag_239:\n      swap3\n      swap2\n      pop\n      pop\n      jump\t// out\n        /* \"practica_3/ArrayUtils.sol\":559:746  function increment(uint[] storage arr, uint8 porcentaje) internal {... */\n    tag_229:\n        /* \"practica_3/ArrayUtils.sol\":640:646  uint i */\n      0x00\n        /* \"practica_3/ArrayUtils.sol\":649:650  0 */\n      0x00\n        /* \"practica_3/ArrayUtils.sol\":640:650  uint i = 0 */\n      swap1\n      pop\n        /* \"practica_3/ArrayUtils.sol\":635:740  for (uint i = 0; i < arr.length; i++) {... */\n    tag_250:\n        /* \"practica_3/ArrayUtils.sol\":656:659  arr */\n      dup3\n        /* \"practica_3/ArrayUtils.sol\":656:666  arr.length */\n      dup1\n      sload\n      swap1\n      pop\n        /* \"practica_3/ArrayUtils.sol\":652:653  i */\n      dup2\n        /* \"practica_3/ArrayUtils.sol\":652:666  i < arr.length */\n      lt\n        /* \"practica_3/ArrayUtils.sol\":635:740  for (uint i = 0; i < arr.length; i++) {... */\n      iszero\n      tag_251\n      jumpi\n        /* \"practica_3/ArrayUtils.sol\":726:729  100 */\n      0x64\n        /* \"practica_3/ArrayUtils.sol\":712:722  porcentaje */\n      dup3\n        /* \"practica_3/ArrayUtils.sol\":706:709  100 */\n      0x64\n        /* \"practica_3/ArrayUtils.sol\":706:722  100 + porcentaje */\n      tag_253\n      swap2\n      swap1\n      tag_254\n      jump\t// in\n    tag_253:\n        /* \"practica_3/ArrayUtils.sol\":696:723  arr[i] * (100 + porcentaje) */\n      0xff\n      and\n        /* \"practica_3/ArrayUtils.sol\":696:699  arr */\n      dup5\n        /* \"practica_3/ArrayUtils.sol\":700:701  i */\n      dup4\n        /* \"practica_3/ArrayUtils.sol\":696:702  arr[i] */\n      dup2\n      sload\n      dup2\n      lt\n      tag_255\n      jumpi\n      tag_256\n      tag_236\n      jump\t// in\n    tag_256:\n    tag_255:\n      swap1\n      0x00\n      mstore\n      keccak256(0x00, 0x20)\n      add\n      sload\n        /* \"practica_3/ArrayUtils.sol\":696:723  arr[i] * (100 + porcentaje) */\n      tag_258\n      swap2\n      swap1\n      tag_112\n      jump\t// in\n    tag_258:\n        /* \"practica_3/ArrayUtils.sol\":696:729  arr[i] * (100 + porcentaje) / 100 */\n      tag_259\n      swap2\n      swap1\n      tag_260\n      jump\t// in\n    tag_259:\n        /* \"practica_3/ArrayUtils.sol\":687:690  arr */\n      dup4\n        /* \"practica_3/ArrayUtils.sol\":691:692  i */\n      dup3\n        /* \"practica_3/ArrayUtils.sol\":687:693  arr[i] */\n      dup2\n      sload\n      dup2\n      lt\n      tag_261\n      jumpi\n      tag_262\n      tag_236\n      jump\t// in\n    tag_262:\n    tag_261:\n      swap1\n      0x00\n      mstore\n      keccak256(0x00, 0x20)\n      add\n        /* \"practica_3/ArrayUtils.sol\":687:729  arr[i] = arr[i] * (100 + porcentaje) / 100 */\n      dup2\n      swap1\n      sstore\n      pop\n        /* \"practica_3/ArrayUtils.sol\":668:671  i++ */\n      dup1\n      dup1\n      0x01\n      add\n      swap2\n      pop\n      pop\n        /* \"practica_3/ArrayUtils.sol\":635:740  for (uint i = 0; i < arr.length; i++) {... */\n      jump(tag_250)\n    tag_251:\n      pop\n        /* \"practica_3/ArrayUtils.sol\":559:746  function increment(uint[] storage arr, uint8 porcentaje) internal {... */\n      pop\n      pop\n      jump\t// out\n    tag_179:\n      pop\n      dup1\n      sload\n      tag_264\n      swap1\n      tag_85\n      jump\t// in\n    tag_264:\n      0x00\n      dup3\n      sstore\n      dup1\n      0x1f\n      lt\n      tag_266\n      jumpi\n      pop\n      jump(tag_265)\n    tag_266:\n      0x1f\n      add\n      0x20\n      swap1\n      div\n      swap1\n      0x00\n      mstore\n      keccak256(0x00, 0x20)\n      swap1\n      dup2\n      add\n      swap1\n      tag_267\n      swap2\n      swap1\n      tag_268\n      jump\t// in\n    tag_267:\n    tag_265:\n      pop\n      jump\t// out\n    tag_181:\n      pop\n      dup1\n      sload\n      0x00\n      dup3\n      sstore\n      swap1\n      0x00\n      mstore\n      keccak256(0x00, 0x20)\n      swap1\n      dup2\n      add\n      swap1\n      tag_270\n      swap2\n      swap1\n      tag_271\n      jump\t// in\n    tag_270:\n      pop\n      jump\t// out\n    tag_183:\n      pop\n      dup1\n      sload\n      0x00\n      dup3\n      sstore\n      swap1\n      0x00\n      mstore\n      keccak256(0x00, 0x20)\n      swap1\n      dup2\n      add\n      swap1\n      tag_273\n      swap2\n      swap1\n      tag_268\n      jump\t// in\n    tag_273:\n      pop\n      jump\t// out\n    tag_268:\n    tag_274:\n      dup1\n      dup3\n      gt\n      iszero\n      tag_275\n      jumpi\n      0x00\n      dup2\n      0x00\n      swap1\n      sstore\n      pop\n      0x01\n      add\n      jump(tag_274)\n    tag_275:\n      pop\n      swap1\n      jump\t// out\n    tag_271:\n    tag_276:\n      dup1\n      dup3\n      gt\n      iszero\n      tag_277\n      jumpi\n      0x00\n      dup2\n      dup2\n      tag_278\n      swap2\n      swap1\n      tag_179\n      jump\t// in\n    tag_278:\n      pop\n      0x01\n      add\n      jump(tag_276)\n    tag_277:\n      pop\n      swap1\n      jump\t// out\n        /* \"#utility.yul\":88:205   */\n    tag_280:\n        /* \"#utility.yul\":197:198   */\n      0x00\n        /* \"#utility.yul\":194:195   */\n      0x00\n        /* \"#utility.yul\":187:199   */\n      revert\n        /* \"#utility.yul\":211:328   */\n    tag_281:\n        /* \"#utility.yul\":320:321   */\n      0x00\n        /* \"#utility.yul\":317:318   */\n      0x00\n        /* \"#utility.yul\":310:322   */\n      revert\n        /* \"#utility.yul\":334:483   */\n    tag_282:\n        /* \"#utility.yul\":370:377   */\n      0x00\n        /* \"#utility.yul\":410:476   */\n      0xffffffff00000000000000000000000000000000000000000000000000000000\n        /* \"#utility.yul\":403:408   */\n      dup3\n        /* \"#utility.yul\":399:477   */\n      and\n        /* \"#utility.yul\":388:477   */\n      swap1\n      pop\n        /* \"#utility.yul\":334:483   */\n      swap2\n      swap1\n      pop\n      jump\t// out\n        /* \"#utility.yul\":489:609   */\n    tag_283:\n        /* \"#utility.yul\":561:584   */\n      tag_367\n        /* \"#utility.yul\":578:583   */\n      dup2\n        /* \"#utility.yul\":561:584   */\n      tag_282\n      jump\t// in\n    tag_367:\n        /* \"#utility.yul\":554:559   */\n      dup2\n        /* \"#utility.yul\":551:585   */\n      eq\n        /* \"#utility.yul\":541:603   */\n      tag_368\n      jumpi\n        /* \"#utility.yul\":599:600   */\n      0x00\n        /* \"#utility.yul\":596:597   */\n      0x00\n        /* \"#utility.yul\":589:601   */\n      revert\n        /* \"#utility.yul\":541:603   */\n    tag_368:\n        /* \"#utility.yul\":489:609   */\n      pop\n      jump\t// out\n        /* \"#utility.yul\":615:752   */\n    tag_284:\n        /* \"#utility.yul\":660:665   */\n      0x00\n        /* \"#utility.yul\":698:704   */\n      dup2\n        /* \"#utility.yul\":685:705   */\n      calldataload\n        /* \"#utility.yul\":676:705   */\n      swap1\n      pop\n        /* \"#utility.yul\":714:746   */\n      tag_370\n        /* \"#utility.yul\":740:745   */\n      dup2\n        /* \"#utility.yul\":714:746   */\n      tag_283\n      jump\t// in\n    tag_370:\n        /* \"#utility.yul\":615:752   */\n      swap3\n      swap2\n      pop\n      pop\n      jump\t// out\n        /* \"#utility.yul\":758:1085   */\n    tag_23:\n        /* \"#utility.yul\":816:822   */\n      0x00\n        /* \"#utility.yul\":865:867   */\n      0x20\n        /* \"#utility.yul\":853:862   */\n      dup3\n        /* \"#utility.yul\":844:851   */\n      dup5\n        /* \"#utility.yul\":840:863   */\n      sub\n        /* \"#utility.yul\":836:868   */\n      slt\n        /* \"#utility.yul\":833:952   */\n      iszero\n      tag_372\n      jumpi\n        /* \"#utility.yul\":871:950   */\n      tag_373\n      tag_280\n      jump\t// in\n    tag_373:\n        /* \"#utility.yul\":833:952   */\n    tag_372:\n        /* \"#utility.yul\":991:992   */\n      0x00\n        /* \"#utility.yul\":1016:1068   */\n      tag_374\n        /* \"#utility.yul\":1060:1067   */\n      dup5\n        /* \"#utility.yul\":1051:1057   */\n      dup3\n        /* \"#utility.yul\":1040:1049   */\n      dup6\n        /* \"#utility.yul\":1036:1058   */\n      add\n        /* \"#utility.yul\":1016:1068   */\n      tag_284\n      jump\t// in\n    tag_374:\n        /* \"#utility.yul\":1006:1068   */\n      swap2\n      pop\n        /* \"#utility.yul\":962:1078   */\n      pop\n        /* \"#utility.yul\":758:1085   */\n      swap3\n      swap2\n      pop\n      pop\n      jump\t// out\n        /* \"#utility.yul\":1091:1181   */\n    tag_285:\n        /* \"#utility.yul\":1125:1132   */\n      0x00\n        /* \"#utility.yul\":1168:1173   */\n      dup2\n        /* \"#utility.yul\":1161:1174   */\n      iszero\n        /* \"#utility.yul\":1154:1175   */\n      iszero\n        /* \"#utility.yul\":1143:1175   */\n      swap1\n      pop\n        /* \"#utility.yul\":1091:1181   */\n      swap2\n      swap1\n      pop\n      jump\t// out\n        /* \"#utility.yul\":1187:1296   */\n    tag_286:\n        /* \"#utility.yul\":1268:1289   */\n      tag_377\n        /* \"#utility.yul\":1283:1288   */\n      dup2\n        /* \"#utility.yul\":1268:1289   */\n      tag_285\n      jump\t// in\n    tag_377:\n        /* \"#utility.yul\":1263:1266   */\n      dup3\n        /* \"#utility.yul\":1256:1290   */\n      mstore\n        /* \"#utility.yul\":1187:1296   */\n      pop\n      pop\n      jump\t// out\n        /* \"#utility.yul\":1302:1512   */\n    tag_26:\n        /* \"#utility.yul\":1389:1393   */\n      0x00\n        /* \"#utility.yul\":1427:1429   */\n      0x20\n        /* \"#utility.yul\":1416:1425   */\n      dup3\n        /* \"#utility.yul\":1412:1430   */\n      add\n        /* \"#utility.yul\":1404:1430   */\n      swap1\n      pop\n        /* \"#utility.yul\":1440:1505   */\n      tag_379\n        /* \"#utility.yul\":1502:1503   */\n      0x00\n        /* \"#utility.yul\":1491:1500   */\n      dup4\n        /* \"#utility.yul\":1487:1504   */\n      add\n        /* \"#utility.yul\":1478:1484   */\n      dup5\n        /* \"#utility.yul\":1440:1505   */\n      tag_286\n      jump\t// in\n    tag_379:\n        /* \"#utility.yul\":1302:1512   */\n      swap3\n      swap2\n      pop\n      pop\n      jump\t// out\n        /* \"#utility.yul\":1518:1595   */\n    tag_287:\n        /* \"#utility.yul\":1555:1562   */\n      0x00\n        /* \"#utility.yul\":1584:1589   */\n      dup2\n        /* \"#utility.yul\":1573:1589   */\n      swap1\n      pop\n        /* \"#utility.yul\":1518:1595   */\n      swap2\n      swap1\n      pop\n      jump\t// out\n        /* \"#utility.yul\":1601:1723   */\n    tag_288:\n        /* \"#utility.yul\":1674:1698   */\n      tag_382\n        /* \"#utility.yul\":1692:1697   */\n      dup2\n        /* \"#utility.yul\":1674:1698   */\n      tag_287\n      jump\t// in\n    tag_382:\n        /* \"#utility.yul\":1667:1672   */\n      dup2\n        /* \"#utility.yul\":1664:1699   */\n      eq\n        /* \"#utility.yul\":1654:1717   */\n      tag_383\n      jumpi\n        /* \"#utility.yul\":1713:1714   */\n      0x00\n        /* \"#utility.yul\":1710:1711   */\n      0x00\n        /* \"#utility.yul\":1703:1715   */\n      revert\n        /* \"#utility.yul\":1654:1717   */\n    tag_383:\n        /* \"#utility.yul\":1601:1723   */\n      pop\n      jump\t// out\n        /* \"#utility.yul\":1729:1868   */\n    tag_289:\n        /* \"#utility.yul\":1775:1780   */\n      0x00\n        /* \"#utility.yul\":1813:1819   */\n      dup2\n        /* \"#utility.yul\":1800:1820   */\n      calldataload\n        /* \"#utility.yul\":1791:1820   */\n      swap1\n      pop\n        /* \"#utility.yul\":1829:1862   */\n      tag_385\n        /* \"#utility.yul\":1856:1861   */\n      dup2\n        /* \"#utility.yul\":1829:1862   */\n      tag_288\n      jump\t// in\n    tag_385:\n        /* \"#utility.yul\":1729:1868   */\n      swap3\n      swap2\n      pop\n      pop\n      jump\t// out\n        /* \"#utility.yul\":1874:2203   */\n    tag_30:\n        /* \"#utility.yul\":1933:1939   */\n      0x00\n        /* \"#utility.yul\":1982:1984   */\n      0x20\n        /* \"#utility.yul\":1970:1979   */\n      dup3\n        /* \"#utility.yul\":1961:1968   */\n      dup5\n        /* \"#utility.yul\":1957:1980   */\n      sub\n        /* \"#utility.yul\":1953:1985   */\n      slt\n        /* \"#utility.yul\":1950:2069   */\n      iszero\n      tag_387\n      jumpi\n        /* \"#utility.yul\":1988:2067   */\n      tag_388\n      tag_280\n      jump\t// in\n    tag_388:\n        /* \"#utility.yul\":1950:2069   */\n    tag_387:\n        /* \"#utility.yul\":2108:2109   */\n      0x00\n        /* \"#utility.yul\":2133:2186   */\n      tag_389\n        /* \"#utility.yul\":2178:2185   */\n      dup5\n        /* \"#utility.yul\":2169:2175   */\n      dup3\n        /* \"#utility.yul\":2158:2167   */\n      dup6\n        /* \"#utility.yul\":2154:2176   */\n      add\n        /* \"#utility.yul\":2133:2186   */\n      tag_289\n      jump\t// in\n    tag_389:\n        /* \"#utility.yul\":2123:2186   */\n      swap2\n      pop\n        /* \"#utility.yul\":2079:2196   */\n      pop\n        /* \"#utility.yul\":1874:2203   */\n      swap3\n      swap2\n      pop\n      pop\n      jump\t// out\n        /* \"#utility.yul\":2209:2335   */\n    tag_290:\n        /* \"#utility.yul\":2246:2253   */\n      0x00\n        /* \"#utility.yul\":2286:2328   */\n      0xffffffffffffffffffffffffffffffffffffffff\n        /* \"#utility.yul\":2279:2284   */\n      dup3\n        /* \"#utility.yul\":2275:2329   */\n      and\n        /* \"#utility.yul\":2264:2329   */\n      swap1\n      pop\n        /* \"#utility.yul\":2209:2335   */\n      swap2\n      swap1\n      pop\n      jump\t// out\n        /* \"#utility.yul\":2341:2437   */\n    tag_291:\n        /* \"#utility.yul\":2378:2385   */\n      0x00\n        /* \"#utility.yul\":2407:2431   */\n      tag_392\n        /* \"#utility.yul\":2425:2430   */\n      dup3\n        /* \"#utility.yul\":2407:2431   */\n      tag_290\n      jump\t// in\n    tag_392:\n        /* \"#utility.yul\":2396:2431   */\n      swap1\n      pop\n        /* \"#utility.yul\":2341:2437   */\n      swap2\n      swap1\n      pop\n      jump\t// out\n        /* \"#utility.yul\":2443:2561   */\n    tag_292:\n        /* \"#utility.yul\":2530:2554   */\n      tag_394\n        /* \"#utility.yul\":2548:2553   */\n      dup2\n        /* \"#utility.yul\":2530:2554   */\n      tag_291\n      jump\t// in\n    tag_394:\n        /* \"#utility.yul\":2525:2528   */\n      dup3\n        /* \"#utility.yul\":2518:2555   */\n      mstore\n        /* \"#utility.yul\":2443:2561   */\n      pop\n      pop\n      jump\t// out\n        /* \"#utility.yul\":2567:2789   */\n    tag_33:\n        /* \"#utility.yul\":2660:2664   */\n      0x00\n        /* \"#utility.yul\":2698:2700   */\n      0x20\n        /* \"#utility.yul\":2687:2696   */\n      dup3\n        /* \"#utility.yul\":2683:2701   */\n      add\n        /* \"#utility.yul\":2675:2701   */\n      swap1\n      pop\n        /* \"#utility.yul\":2711:2782   */\n      tag_396\n        /* \"#utility.yul\":2779:2780   */\n      0x00\n        /* \"#utility.yul\":2768:2777   */\n      dup4\n        /* \"#utility.yul\":2764:2781   */\n      add\n        /* \"#utility.yul\":2755:2761   */\n      dup5\n        /* \"#utility.yul\":2711:2782   */\n      tag_292\n      jump\t// in\n    tag_396:\n        /* \"#utility.yul\":2567:2789   */\n      swap3\n      swap2\n      pop\n      pop\n      jump\t// out\n        /* \"#utility.yul\":2795:2917   */\n    tag_293:\n        /* \"#utility.yul\":2868:2892   */\n      tag_398\n        /* \"#utility.yul\":2886:2891   */\n      dup2\n        /* \"#utility.yul\":2868:2892   */\n      tag_291\n      jump\t// in\n    tag_398:\n        /* \"#utility.yul\":2861:2866   */\n      dup2\n        /* \"#utility.yul\":2858:2893   */\n      eq\n        /* \"#utility.yul\":2848:2911   */\n      tag_399\n      jumpi\n        /* \"#utility.yul\":2907:2908   */\n      0x00\n        /* \"#utility.yul\":2904:2905   */\n      0x00\n        /* \"#utility.yul\":2897:2909   */\n      revert\n        /* \"#utility.yul\":2848:2911   */\n    tag_399:\n        /* \"#utility.yul\":2795:2917   */\n      pop\n      jump\t// out\n        /* \"#utility.yul\":2923:3062   */\n    tag_294:\n        /* \"#utility.yul\":2969:2974   */\n      0x00\n        /* \"#utility.yul\":3007:3013   */\n      dup2\n        /* \"#utility.yul\":2994:3014   */\n      calldataload\n        /* \"#utility.yul\":2985:3014   */\n      swap1\n      pop\n        /* \"#utility.yul\":3023:3056   */\n      tag_401\n        /* \"#utility.yul\":3050:3055   */\n      dup2\n        /* \"#utility.yul\":3023:3056   */\n      tag_293\n      jump\t// in\n    tag_401:\n        /* \"#utility.yul\":2923:3062   */\n      swap3\n      swap2\n      pop\n      pop\n      jump\t// out\n        /* \"#utility.yul\":3068:3542   */\n    tag_36:\n        /* \"#utility.yul\":3136:3142   */\n      0x00\n        /* \"#utility.yul\":3144:3150   */\n      0x00\n        /* \"#utility.yul\":3193:3195   */\n      0x40\n        /* \"#utility.yul\":3181:3190   */\n      dup4\n        /* \"#utility.yul\":3172:3179   */\n      dup6\n        /* \"#utility.yul\":3168:3191   */\n      sub\n        /* \"#utility.yul\":3164:3196   */\n      slt\n        /* \"#utility.yul\":3161:3280   */\n      iszero\n      tag_403\n      jumpi\n        /* \"#utility.yul\":3199:3278   */\n      tag_404\n      tag_280\n      jump\t// in\n    tag_404:\n        /* \"#utility.yul\":3161:3280   */\n    tag_403:\n        /* \"#utility.yul\":3319:3320   */\n      0x00\n        /* \"#utility.yul\":3344:3397   */\n      tag_405\n        /* \"#utility.yul\":3389:3396   */\n      dup6\n        /* \"#utility.yul\":3380:3386   */\n      dup3\n        /* \"#utility.yul\":3369:3378   */\n      dup7\n        /* \"#utility.yul\":3365:3387   */\n      add\n        /* \"#utility.yul\":3344:3397   */\n      tag_294\n      jump\t// in\n    tag_405:\n        /* \"#utility.yul\":3334:3397   */\n      swap3\n      pop\n        /* \"#utility.yul\":3290:3407   */\n      pop\n        /* \"#utility.yul\":3446:3448   */\n      0x20\n        /* \"#utility.yul\":3472:3525   */\n      tag_406\n        /* \"#utility.yul\":3517:3524   */\n      dup6\n        /* \"#utility.yul\":3508:3514   */\n      dup3\n        /* \"#utility.yul\":3497:3506   */\n      dup7\n        /* \"#utility.yul\":3493:3515   */\n      add\n        /* \"#utility.yul\":3472:3525   */\n      tag_289\n      jump\t// in\n    tag_406:\n        /* \"#utility.yul\":3462:3525   */\n      swap2\n      pop\n        /* \"#utility.yul\":3417:3535   */\n      pop\n        /* \"#utility.yul\":3068:3542   */\n      swap3\n      pop\n      swap3\n      swap1\n      pop\n      jump\t// out\n        /* \"#utility.yul\":3548:3665   */\n    tag_295:\n        /* \"#utility.yul\":3657:3658   */\n      0x00\n        /* \"#utility.yul\":3654:3655   */\n      0x00\n        /* \"#utility.yul\":3647:3659   */\n      revert\n        /* \"#utility.yul\":3671:3788   */\n    tag_296:\n        /* \"#utility.yul\":3780:3781   */\n      0x00\n        /* \"#utility.yul\":3777:3778   */\n      0x00\n        /* \"#utility.yul\":3770:3782   */\n      revert\n        /* \"#utility.yul\":3794:3911   */\n    tag_297:\n        /* \"#utility.yul\":3903:3904   */\n      0x00\n        /* \"#utility.yul\":3900:3901   */\n      0x00\n        /* \"#utility.yul\":3893:3905   */\n      revert\n        /* \"#utility.yul\":3931:4484   */\n    tag_298:\n        /* \"#utility.yul\":3989:3997   */\n      0x00\n        /* \"#utility.yul\":3999:4005   */\n      0x00\n        /* \"#utility.yul\":4049:4052   */\n      dup4\n        /* \"#utility.yul\":4042:4046   */\n      0x1f\n        /* \"#utility.yul\":4034:4040   */\n      dup5\n        /* \"#utility.yul\":4030:4047   */\n      add\n        /* \"#utility.yul\":4026:4053   */\n      slt\n        /* \"#utility.yul\":4016:4138   */\n      tag_411\n      jumpi\n        /* \"#utility.yul\":4057:4136   */\n      tag_412\n      tag_295\n      jump\t// in\n    tag_412:\n        /* \"#utility.yul\":4016:4138   */\n    tag_411:\n        /* \"#utility.yul\":4170:4176   */\n      dup3\n        /* \"#utility.yul\":4157:4177   */\n      calldataload\n        /* \"#utility.yul\":4147:4177   */\n      swap1\n      pop\n        /* \"#utility.yul\":4200:4218   */\n      0xffffffffffffffff\n        /* \"#utility.yul\":4192:4198   */\n      dup2\n        /* \"#utility.yul\":4189:4219   */\n      gt\n        /* \"#utility.yul\":4186:4303   */\n      iszero\n      tag_413\n      jumpi\n        /* \"#utility.yul\":4222:4301   */\n      tag_414\n      tag_296\n      jump\t// in\n    tag_414:\n        /* \"#utility.yul\":4186:4303   */\n    tag_413:\n        /* \"#utility.yul\":4336:4340   */\n      0x20\n        /* \"#utility.yul\":4328:4334   */\n      dup4\n        /* \"#utility.yul\":4324:4341   */\n      add\n        /* \"#utility.yul\":4312:4341   */\n      swap2\n      pop\n        /* \"#utility.yul\":4390:4393   */\n      dup4\n        /* \"#utility.yul\":4382:4386   */\n      0x01\n        /* \"#utility.yul\":4374:4380   */\n      dup3\n        /* \"#utility.yul\":4370:4387   */\n      mul\n        /* \"#utility.yul\":4360:4368   */\n      dup4\n        /* \"#utility.yul\":4356:4388   */\n      add\n        /* \"#utility.yul\":4353:4394   */\n      gt\n        /* \"#utility.yul\":4350:4478   */\n      iszero\n      tag_415\n      jumpi\n        /* \"#utility.yul\":4397:4476   */\n      tag_416\n      tag_297\n      jump\t// in\n    tag_416:\n        /* \"#utility.yul\":4350:4478   */\n    tag_415:\n        /* \"#utility.yul\":3931:4484   */\n      swap3\n      pop\n      swap3\n      swap1\n      pop\n      jump\t// out\n        /* \"#utility.yul\":4490:5309   */\n    tag_40:\n        /* \"#utility.yul\":4579:4585   */\n      0x00\n        /* \"#utility.yul\":4587:4593   */\n      0x00\n        /* \"#utility.yul\":4595:4601   */\n      0x00\n        /* \"#utility.yul\":4603:4609   */\n      0x00\n        /* \"#utility.yul\":4652:4654   */\n      0x60\n        /* \"#utility.yul\":4640:4649   */\n      dup6\n        /* \"#utility.yul\":4631:4638   */\n      dup8\n        /* \"#utility.yul\":4627:4650   */\n      sub\n        /* \"#utility.yul\":4623:4655   */\n      slt\n        /* \"#utility.yul\":4620:4739   */\n      iszero\n      tag_418\n      jumpi\n        /* \"#utility.yul\":4658:4737   */\n      tag_419\n      tag_280\n      jump\t// in\n    tag_419:\n        /* \"#utility.yul\":4620:4739   */\n    tag_418:\n        /* \"#utility.yul\":4778:4779   */\n      0x00\n        /* \"#utility.yul\":4803:4856   */\n      tag_420\n        /* \"#utility.yul\":4848:4855   */\n      dup8\n        /* \"#utility.yul\":4839:4845   */\n      dup3\n        /* \"#utility.yul\":4828:4837   */\n      dup9\n        /* \"#utility.yul\":4824:4846   */\n      add\n        /* \"#utility.yul\":4803:4856   */\n      tag_289\n      jump\t// in\n    tag_420:\n        /* \"#utility.yul\":4793:4856   */\n      swap5\n      pop\n        /* \"#utility.yul\":4749:4866   */\n      pop\n        /* \"#utility.yul\":4933:4935   */\n      0x20\n        /* \"#utility.yul\":4922:4931   */\n      dup6\n        /* \"#utility.yul\":4918:4936   */\n      add\n        /* \"#utility.yul\":4905:4937   */\n      calldataload\n        /* \"#utility.yul\":4964:4982   */\n      0xffffffffffffffff\n        /* \"#utility.yul\":4956:4962   */\n      dup2\n        /* \"#utility.yul\":4953:4983   */\n      gt\n        /* \"#utility.yul\":4950:5067   */\n      iszero\n      tag_421\n      jumpi\n        /* \"#utility.yul\":4986:5065   */\n      tag_422\n      tag_281\n      jump\t// in\n    tag_422:\n        /* \"#utility.yul\":4950:5067   */\n    tag_421:\n        /* \"#utility.yul\":5099:5164   */\n      tag_423\n        /* \"#utility.yul\":5156:5163   */\n      dup8\n        /* \"#utility.yul\":5147:5153   */\n      dup3\n        /* \"#utility.yul\":5136:5145   */\n      dup9\n        /* \"#utility.yul\":5132:5154   */\n      add\n        /* \"#utility.yul\":5099:5164   */\n      tag_298\n      jump\t// in\n    tag_423:\n        /* \"#utility.yul\":5081:5164   */\n      swap4\n      pop\n      swap4\n      pop\n        /* \"#utility.yul\":4876:5174   */\n      pop\n        /* \"#utility.yul\":5213:5215   */\n      0x40\n        /* \"#utility.yul\":5239:5292   */\n      tag_424\n        /* \"#utility.yul\":5284:5291   */\n      dup8\n        /* \"#utility.yul\":5275:5281   */\n      dup3\n        /* \"#utility.yul\":5264:5273   */\n      dup9\n        /* \"#utility.yul\":5260:5282   */\n      add\n        /* \"#utility.yul\":5239:5292   */\n      tag_289\n      jump\t// in\n    tag_424:\n        /* \"#utility.yul\":5229:5292   */\n      swap2\n      pop\n        /* \"#utility.yul\":5184:5302   */\n      pop\n        /* \"#utility.yul\":4490:5309   */\n      swap3\n      swap6\n      swap2\n      swap5\n      pop\n      swap3\n      pop\n      jump\t// out\n        /* \"#utility.yul\":5315:5934   */\n    tag_44:\n        /* \"#utility.yul\":5392:5398   */\n      0x00\n        /* \"#utility.yul\":5400:5406   */\n      0x00\n        /* \"#utility.yul\":5408:5414   */\n      0x00\n        /* \"#utility.yul\":5457:5459   */\n      0x60\n        /* \"#utility.yul\":5445:5454   */\n      dup5\n        /* \"#utility.yul\":5436:5443   */\n      dup7\n        /* \"#utility.yul\":5432:5455   */\n      sub\n        /* \"#utility.yul\":5428:5460   */\n      slt\n        /* \"#utility.yul\":5425:5544   */\n      iszero\n      tag_426\n      jumpi\n        /* \"#utility.yul\":5463:5542   */\n      tag_427\n      tag_280\n      jump\t// in\n    tag_427:\n        /* \"#utility.yul\":5425:5544   */\n    tag_426:\n        /* \"#utility.yul\":5583:5584   */\n      0x00\n        /* \"#utility.yul\":5608:5661   */\n      tag_428\n        /* \"#utility.yul\":5653:5660   */\n      dup7\n        /* \"#utility.yul\":5644:5650   */\n      dup3\n        /* \"#utility.yul\":5633:5642   */\n      dup8\n        /* \"#utility.yul\":5629:5651   */\n      add\n        /* \"#utility.yul\":5608:5661   */\n      tag_294\n      jump\t// in\n    tag_428:\n        /* \"#utility.yul\":5598:5661   */\n      swap4\n      pop\n        /* \"#utility.yul\":5554:5671   */\n      pop\n        /* \"#utility.yul\":5710:5712   */\n      0x20\n        /* \"#utility.yul\":5736:5789   */\n      tag_429\n        /* \"#utility.yul\":5781:5788   */\n      dup7\n        /* \"#utility.yul\":5772:5778   */\n      dup3\n        /* \"#utility.yul\":5761:5770   */\n      dup8\n        /* \"#utility.yul\":5757:5779   */\n      add\n        /* \"#utility.yul\":5736:5789   */\n      tag_294\n      jump\t// in\n    tag_429:\n        /* \"#utility.yul\":5726:5789   */\n      swap3\n      pop\n        /* \"#utility.yul\":5681:5799   */\n      pop\n        /* \"#utility.yul\":5838:5840   */\n      0x40\n        /* \"#utility.yul\":5864:5917   */\n      tag_430\n        /* \"#utility.yul\":5909:5916   */\n      dup7\n        /* \"#utility.yul\":5900:5906   */\n      dup3\n        /* \"#utility.yul\":5889:5898   */\n      dup8\n        /* \"#utility.yul\":5885:5907   */\n      add\n        /* \"#utility.yul\":5864:5917   */\n      tag_289\n      jump\t// in\n    tag_430:\n        /* \"#utility.yul\":5854:5917   */\n      swap2\n      pop\n        /* \"#utility.yul\":5809:5927   */\n      pop\n        /* \"#utility.yul\":5315:5934   */\n      swap3\n      pop\n      swap3\n      pop\n      swap3\n      jump\t// out\n        /* \"#utility.yul\":5940:6269   */\n    tag_60:\n        /* \"#utility.yul\":5999:6005   */\n      0x00\n        /* \"#utility.yul\":6048:6050   */\n      0x20\n        /* \"#utility.yul\":6036:6045   */\n      dup3\n        /* \"#utility.yul\":6027:6034   */\n      dup5\n        /* \"#utility.yul\":6023:6046   */\n      sub\n        /* \"#utility.yul\":6019:6051   */\n      slt\n        /* \"#utility.yul\":6016:6135   */\n      iszero\n      tag_432\n      jumpi\n        /* \"#utility.yul\":6054:6133   */\n      tag_433\n      tag_280\n      jump\t// in\n    tag_433:\n        /* \"#utility.yul\":6016:6135   */\n    tag_432:\n        /* \"#utility.yul\":6174:6175   */\n      0x00\n        /* \"#utility.yul\":6199:6252   */\n      tag_434\n        /* \"#utility.yul\":6244:6251   */\n      dup5\n        /* \"#utility.yul\":6235:6241   */\n      dup3\n        /* \"#utility.yul\":6224:6233   */\n      dup6\n        /* \"#utility.yul\":6220:6242   */\n      add\n        /* \"#utility.yul\":6199:6252   */\n      tag_294\n      jump\t// in\n    tag_434:\n        /* \"#utility.yul\":6189:6252   */\n      swap2\n      pop\n        /* \"#utility.yul\":6145:6262   */\n      pop\n        /* \"#utility.yul\":5940:6269   */\n      swap3\n      swap2\n      pop\n      pop\n      jump\t// out\n        /* \"#utility.yul\":6275:6393   */\n    tag_299:\n        /* \"#utility.yul\":6362:6386   */\n      tag_436\n        /* \"#utility.yul\":6380:6385   */\n      dup2\n        /* \"#utility.yul\":6362:6386   */\n      tag_287\n      jump\t// in\n    tag_436:\n        /* \"#utility.yul\":6357:6360   */\n      dup3\n        /* \"#utility.yul\":6350:6387   */\n      mstore\n        /* \"#utility.yul\":6275:6393   */\n      pop\n      pop\n      jump\t// out\n        /* \"#utility.yul\":6399:6621   */\n    tag_63:\n        /* \"#utility.yul\":6492:6496   */\n      0x00\n        /* \"#utility.yul\":6530:6532   */\n      0x20\n        /* \"#utility.yul\":6519:6528   */\n      dup3\n        /* \"#utility.yul\":6515:6533   */\n      add\n        /* \"#utility.yul\":6507:6533   */\n      swap1\n      pop\n        /* \"#utility.yul\":6543:6614   */\n      tag_438\n        /* \"#utility.yul\":6611:6612   */\n      0x00\n        /* \"#utility.yul\":6600:6609   */\n      dup4\n        /* \"#utility.yul\":6596:6613   */\n      add\n        /* \"#utility.yul\":6587:6593   */\n      dup5\n        /* \"#utility.yul\":6543:6614   */\n      tag_299\n      jump\t// in\n    tag_438:\n        /* \"#utility.yul\":6399:6621   */\n      swap3\n      swap2\n      pop\n      pop\n      jump\t// out\n        /* \"#utility.yul\":6627:7156   */\n    tag_66:\n        /* \"#utility.yul\":6698:6704   */\n      0x00\n        /* \"#utility.yul\":6706:6712   */\n      0x00\n        /* \"#utility.yul\":6755:6757   */\n      0x20\n        /* \"#utility.yul\":6743:6752   */\n      dup4\n        /* \"#utility.yul\":6734:6741   */\n      dup6\n        /* \"#utility.yul\":6730:6753   */\n      sub\n        /* \"#utility.yul\":6726:6758   */\n      slt\n        /* \"#utility.yul\":6723:6842   */\n      iszero\n      tag_440\n      jumpi\n        /* \"#utility.yul\":6761:6840   */\n      tag_441\n      tag_280\n      jump\t// in\n    tag_441:\n        /* \"#utility.yul\":6723:6842   */\n    tag_440:\n        /* \"#utility.yul\":6909:6910   */\n      0x00\n        /* \"#utility.yul\":6898:6907   */\n      dup4\n        /* \"#utility.yul\":6894:6911   */\n      add\n        /* \"#utility.yul\":6881:6912   */\n      calldataload\n        /* \"#utility.yul\":6939:6957   */\n      0xffffffffffffffff\n        /* \"#utility.yul\":6931:6937   */\n      dup2\n        /* \"#utility.yul\":6928:6958   */\n      gt\n        /* \"#utility.yul\":6925:7042   */\n      iszero\n      tag_442\n      jumpi\n        /* \"#utility.yul\":6961:7040   */\n      tag_443\n      tag_281\n      jump\t// in\n    tag_443:\n        /* \"#utility.yul\":6925:7042   */\n    tag_442:\n        /* \"#utility.yul\":7074:7139   */\n      tag_444\n        /* \"#utility.yul\":7131:7138   */\n      dup6\n        /* \"#utility.yul\":7122:7128   */\n      dup3\n        /* \"#utility.yul\":7111:7120   */\n      dup7\n        /* \"#utility.yul\":7107:7129   */\n      add\n        /* \"#utility.yul\":7074:7139   */\n      tag_298\n      jump\t// in\n    tag_444:\n        /* \"#utility.yul\":7056:7139   */\n      swap3\n      pop\n      swap3\n      pop\n        /* \"#utility.yul\":6852:7149   */\n      pop\n        /* \"#utility.yul\":6627:7156   */\n      swap3\n      pop\n      swap3\n      swap1\n      pop\n      jump\t// out\n        /* \"#utility.yul\":7162:7248   */\n    tag_300:\n        /* \"#utility.yul\":7197:7204   */\n      0x00\n        /* \"#utility.yul\":7237:7241   */\n      0xff\n        /* \"#utility.yul\":7230:7235   */\n      dup3\n        /* \"#utility.yul\":7226:7242   */\n      and\n        /* \"#utility.yul\":7215:7242   */\n      swap1\n      pop\n        /* \"#utility.yul\":7162:7248   */\n      swap2\n      swap1\n      pop\n      jump\t// out\n        /* \"#utility.yul\":7254:7372   */\n    tag_301:\n        /* \"#utility.yul\":7325:7347   */\n      tag_447\n        /* \"#utility.yul\":7341:7346   */\n      dup2\n        /* \"#utility.yul\":7325:7347   */\n      tag_300\n      jump\t// in\n    tag_447:\n        /* \"#utility.yul\":7318:7323   */\n      dup2\n        /* \"#utility.yul\":7315:7348   */\n      eq\n        /* \"#utility.yul\":7305:7366   */\n      tag_448\n      jumpi\n        /* \"#utility.yul\":7362:7363   */\n      0x00\n        /* \"#utility.yul\":7359:7360   */\n      0x00\n        /* \"#utility.yul\":7352:7364   */\n      revert\n        /* \"#utility.yul\":7305:7366   */\n    tag_448:\n        /* \"#utility.yul\":7254:7372   */\n      pop\n      jump\t// out\n        /* \"#utility.yul\":7378:7513   */\n    tag_302:\n        /* \"#utility.yul\":7422:7427   */\n      0x00\n        /* \"#utility.yul\":7460:7466   */\n      dup2\n        /* \"#utility.yul\":7447:7467   */\n      calldataload\n        /* \"#utility.yul\":7438:7467   */\n      swap1\n      pop\n        /* \"#utility.yul\":7476:7507   */\n      tag_450\n        /* \"#utility.yul\":7501:7506   */\n      dup2\n        /* \"#utility.yul\":7476:7507   */\n      tag_301\n      jump\t// in\n    tag_450:\n        /* \"#utility.yul\":7378:7513   */\n      swap3\n      swap2\n      pop\n      pop\n      jump\t// out\n        /* \"#utility.yul\":7519:7989   */\n    tag_78:\n        /* \"#utility.yul\":7585:7591   */\n      0x00\n        /* \"#utility.yul\":7593:7599   */\n      0x00\n        /* \"#utility.yul\":7642:7644   */\n      0x40\n        /* \"#utility.yul\":7630:7639   */\n      dup4\n        /* \"#utility.yul\":7621:7628   */\n      dup6\n        /* \"#utility.yul\":7617:7640   */\n      sub\n        /* \"#utility.yul\":7613:7645   */\n      slt\n        /* \"#utility.yul\":7610:7729   */\n      iszero\n      tag_452\n      jumpi\n        /* \"#utility.yul\":7648:7727   */\n      tag_453\n      tag_280\n      jump\t// in\n    tag_453:\n        /* \"#utility.yul\":7610:7729   */\n    tag_452:\n        /* \"#utility.yul\":7768:7769   */\n      0x00\n        /* \"#utility.yul\":7793:7846   */\n      tag_454\n        /* \"#utility.yul\":7838:7845   */\n      dup6\n        /* \"#utility.yul\":7829:7835   */\n      dup3\n        /* \"#utility.yul\":7818:7827   */\n      dup7\n        /* \"#utility.yul\":7814:7836   */\n      add\n        /* \"#utility.yul\":7793:7846   */\n      tag_289\n      jump\t// in\n    tag_454:\n        /* \"#utility.yul\":7783:7846   */\n      swap3\n      pop\n        /* \"#utility.yul\":7739:7856   */\n      pop\n        /* \"#utility.yul\":7895:7897   */\n      0x20\n        /* \"#utility.yul\":7921:7972   */\n      tag_455\n        /* \"#utility.yul\":7964:7971   */\n      dup6\n        /* \"#utility.yul\":7955:7961   */\n      dup3\n        /* \"#utility.yul\":7944:7953   */\n      dup7\n        /* \"#utility.yul\":7940:7962   */\n      add\n        /* \"#utility.yul\":7921:7972   */\n      tag_302\n      jump\t// in\n    tag_455:\n        /* \"#utility.yul\":7911:7972   */\n      swap2\n      pop\n        /* \"#utility.yul\":7866:7982   */\n      pop\n        /* \"#utility.yul\":7519:7989   */\n      swap3\n      pop\n      swap3\n      swap1\n      pop\n      jump\t// out\n        /* \"#utility.yul\":7995:8175   */\n    tag_303:\n        /* \"#utility.yul\":8043:8120   */\n      0x4e487b7100000000000000000000000000000000000000000000000000000000\n        /* \"#utility.yul\":8040:8041   */\n      0x00\n        /* \"#utility.yul\":8033:8121   */\n      mstore\n        /* \"#utility.yul\":8140:8144   */\n      0x22\n        /* \"#utility.yul\":8137:8138   */\n      0x04\n        /* \"#utility.yul\":8130:8145   */\n      mstore\n        /* \"#utility.yul\":8164:8168   */\n      0x24\n        /* \"#utility.yul\":8161:8162   */\n      0x00\n        /* \"#utility.yul\":8154:8169   */\n      revert\n        /* \"#utility.yul\":8181:8501   */\n    tag_85:\n        /* \"#utility.yul\":8225:8231   */\n      0x00\n        /* \"#utility.yul\":8262:8263   */\n      0x02\n        /* \"#utility.yul\":8256:8260   */\n      dup3\n        /* \"#utility.yul\":8252:8264   */\n      div\n        /* \"#utility.yul\":8242:8264   */\n      swap1\n      pop\n        /* \"#utility.yul\":8309:8310   */\n      0x01\n        /* \"#utility.yul\":8303:8307   */\n      dup3\n        /* \"#utility.yul\":8299:8311   */\n      and\n        /* \"#utility.yul\":8330:8348   */\n      dup1\n        /* \"#utility.yul\":8320:8401   */\n      tag_458\n      jumpi\n        /* \"#utility.yul\":8386:8390   */\n      0x7f\n        /* \"#utility.yul\":8378:8384   */\n      dup3\n        /* \"#utility.yul\":8374:8391   */\n      and\n        /* \"#utility.yul\":8364:8391   */\n      swap2\n      pop\n        /* \"#utility.yul\":8320:8401   */\n    tag_458:\n        /* \"#utility.yul\":8448:8450   */\n      0x20\n        /* \"#utility.yul\":8440:8446   */\n      dup3\n        /* \"#utility.yul\":8437:8451   */\n      lt\n        /* \"#utility.yul\":8417:8435   */\n      dup2\n        /* \"#utility.yul\":8414:8452   */\n      sub\n        /* \"#utility.yul\":8411:8495   */\n      tag_459\n      jumpi\n        /* \"#utility.yul\":8467:8485   */\n      tag_460\n      tag_303\n      jump\t// in\n    tag_460:\n        /* \"#utility.yul\":8411:8495   */\n    tag_459:\n        /* \"#utility.yul\":8232:8501   */\n      pop\n        /* \"#utility.yul\":8181:8501   */\n      swap2\n      swap1\n      pop\n      jump\t// out\n        /* \"#utility.yul\":8507:8676   */\n    tag_304:\n        /* \"#utility.yul\":8591:8602   */\n      0x00\n        /* \"#utility.yul\":8625:8631   */\n      dup3\n        /* \"#utility.yul\":8620:8623   */\n      dup3\n        /* \"#utility.yul\":8613:8632   */\n      mstore\n        /* \"#utility.yul\":8665:8669   */\n      0x20\n        /* \"#utility.yul\":8660:8663   */\n      dup3\n        /* \"#utility.yul\":8656:8670   */\n      add\n        /* \"#utility.yul\":8641:8670   */\n      swap1\n      pop\n        /* \"#utility.yul\":8507:8676   */\n      swap3\n      swap2\n      pop\n      pop\n      jump\t// out\n        /* \"#utility.yul\":8682:8845   */\n    tag_305:\n        /* \"#utility.yul\":8822:8837   */\n      0x496e76616c696420746f6b656e00000000000000000000000000000000000000\n        /* \"#utility.yul\":8818:8819   */\n      0x00\n        /* \"#utility.yul\":8810:8816   */\n      dup3\n        /* \"#utility.yul\":8806:8820   */\n      add\n        /* \"#utility.yul\":8799:8838   */\n      mstore\n        /* \"#utility.yul\":8682:8845   */\n      pop\n      jump\t// out\n        /* \"#utility.yul\":8851:9217   */\n    tag_306:\n        /* \"#utility.yul\":8993:8996   */\n      0x00\n        /* \"#utility.yul\":9014:9081   */\n      tag_464\n        /* \"#utility.yul\":9078:9080   */\n      0x0d\n        /* \"#utility.yul\":9073:9076   */\n      dup4\n        /* \"#utility.yul\":9014:9081   */\n      tag_304\n      jump\t// in\n    tag_464:\n        /* \"#utility.yul\":9007:9081   */\n      swap2\n      pop\n        /* \"#utility.yul\":9090:9183   */\n      tag_465\n        /* \"#utility.yul\":9179:9182   */\n      dup3\n        /* \"#utility.yul\":9090:9183   */\n      tag_305\n      jump\t// in\n    tag_465:\n        /* \"#utility.yul\":9208:9210   */\n      0x20\n        /* \"#utility.yul\":9203:9206   */\n      dup3\n        /* \"#utility.yul\":9199:9211   */\n      add\n        /* \"#utility.yul\":9192:9211   */\n      swap1\n      pop\n        /* \"#utility.yul\":8851:9217   */\n      swap2\n      swap1\n      pop\n      jump\t// out\n        /* \"#utility.yul\":9223:9642   */\n    tag_88:\n        /* \"#utility.yul\":9389:9393   */\n      0x00\n        /* \"#utility.yul\":9427:9429   */\n      0x20\n        /* \"#utility.yul\":9416:9425   */\n      dup3\n        /* \"#utility.yul\":9412:9430   */\n      add\n        /* \"#utility.yul\":9404:9430   */\n      swap1\n      pop\n        /* \"#utility.yul\":9476:9485   */\n      dup2\n        /* \"#utility.yul\":9470:9474   */\n      dup2\n        /* \"#utility.yul\":9466:9486   */\n      sub\n        /* \"#utility.yul\":9462:9463   */\n      0x00\n        /* \"#utility.yul\":9451:9460   */\n      dup4\n        /* \"#utility.yul\":9447:9464   */\n      add\n        /* \"#utility.yul\":9440:9487   */\n      mstore\n        /* \"#utility.yul\":9504:9635   */\n      tag_467\n        /* \"#utility.yul\":9630:9634   */\n      dup2\n        /* \"#utility.yul\":9504:9635   */\n      tag_306\n      jump\t// in\n    tag_467:\n        /* \"#utility.yul\":9496:9635   */\n      swap1\n      pop\n        /* \"#utility.yul\":9223:9642   */\n      swap2\n      swap1\n      pop\n      jump\t// out\n        /* \"#utility.yul\":9648:9817   */\n    tag_307:\n        /* \"#utility.yul\":9788:9809   */\n      0x556e617574686f72697a65642061636365737300000000000000000000000000\n        /* \"#utility.yul\":9784:9785   */\n      0x00\n        /* \"#utility.yul\":9776:9782   */\n      dup3\n        /* \"#utility.yul\":9772:9786   */\n      add\n        /* \"#utility.yul\":9765:9810   */\n      mstore\n        /* \"#utility.yul\":9648:9817   */\n      pop\n      jump\t// out\n        /* \"#utility.yul\":9823:10189   */\n    tag_308:\n        /* \"#utility.yul\":9965:9968   */\n      0x00\n        /* \"#utility.yul\":9986:10053   */\n      tag_470\n        /* \"#utility.yul\":10050:10052   */\n      0x13\n        /* \"#utility.yul\":10045:10048   */\n      dup4\n        /* \"#utility.yul\":9986:10053   */\n      tag_304\n      jump\t// in\n    tag_470:\n        /* \"#utility.yul\":9979:10053   */\n      swap2\n      pop\n        /* \"#utility.yul\":10062:10155   */\n      tag_471\n        /* \"#utility.yul\":10151:10154   */\n      dup3\n        /* \"#utility.yul\":10062:10155   */\n      tag_307\n      jump\t// in\n    tag_471:\n        /* \"#utility.yul\":10180:10182   */\n      0x20\n        /* \"#utility.yul\":10175:10178   */\n      dup3\n        /* \"#utility.yul\":10171:10183   */\n      add\n        /* \"#utility.yul\":10164:10183   */\n      swap1\n      pop\n        /* \"#utility.yul\":9823:10189   */\n      swap2\n      swap1\n      pop\n      jump\t// out\n        /* \"#utility.yul\":10195:10614   */\n    tag_92:\n        /* \"#utility.yul\":10361:10365   */\n      0x00\n        /* \"#utility.yul\":10399:10401   */\n      0x20\n        /* \"#utility.yul\":10388:10397   */\n      dup3\n        /* \"#utility.yul\":10384:10402   */\n      add\n        /* \"#utility.yul\":10376:10402   */\n      swap1\n      pop\n        /* \"#utility.yul\":10448:10457   */\n      dup2\n        /* \"#utility.yul\":10442:10446   */\n      dup2\n        /* \"#utility.yul\":10438:10458   */\n      sub\n        /* \"#utility.yul\":10434:10435   */\n      0x00\n        /* \"#utility.yul\":10423:10432   */\n      dup4\n        /* \"#utility.yul\":10419:10436   */\n      add\n        /* \"#utility.yul\":10412:10459   */\n      mstore\n        /* \"#utility.yul\":10476:10607   */\n      tag_473\n        /* \"#utility.yul\":10602:10606   */\n      dup2\n        /* \"#utility.yul\":10476:10607   */\n      tag_308\n      jump\t// in\n    tag_473:\n        /* \"#utility.yul\":10468:10607   */\n      swap1\n      pop\n        /* \"#utility.yul\":10195:10614   */\n      swap2\n      swap1\n      pop\n      jump\t// out\n        /* \"#utility.yul\":10620:10788   */\n    tag_309:\n        /* \"#utility.yul\":10760:10780   */\n      0x4e6f7468696e6720746f20617070726f76650000000000000000000000000000\n        /* \"#utility.yul\":10756:10757   */\n      0x00\n        /* \"#utility.yul\":10748:10754   */\n      dup3\n        /* \"#utility.yul\":10744:10758   */\n      add\n        /* \"#utility.yul\":10737:10781   */\n      mstore\n        /* \"#utility.yul\":10620:10788   */\n      pop\n      jump\t// out\n        /* \"#utility.yul\":10794:11160   */\n    tag_310:\n        /* \"#utility.yul\":10936:10939   */\n      0x00\n        /* \"#utility.yul\":10957:11024   */\n      tag_476\n        /* \"#utility.yul\":11021:11023   */\n      0x12\n        /* \"#utility.yul\":11016:11019   */\n      dup4\n        /* \"#utility.yul\":10957:11024   */\n      tag_304\n      jump\t// in\n    tag_476:\n        /* \"#utility.yul\":10950:11024   */\n      swap2\n      pop\n        /* \"#utility.yul\":11033:11126   */\n      tag_477\n        /* \"#utility.yul\":11122:11125   */\n      dup3\n        /* \"#utility.yul\":11033:11126   */\n      tag_309\n      jump\t// in\n    tag_477:\n        /* \"#utility.yul\":11151:11153   */\n      0x20\n        /* \"#utility.yul\":11146:11149   */\n      dup3\n        /* \"#utility.yul\":11142:11154   */\n      add\n        /* \"#utility.yul\":11135:11154   */\n      swap1\n      pop\n        /* \"#utility.yul\":10794:11160   */\n      swap2\n      swap1\n      pop\n      jump\t// out\n        /* \"#utility.yul\":11166:11585   */\n    tag_96:\n        /* \"#utility.yul\":11332:11336   */\n      0x00\n        /* \"#utility.yul\":11370:11372   */\n      0x20\n        /* \"#utility.yul\":11359:11368   */\n      dup3\n        /* \"#utility.yul\":11355:11373   */\n      add\n        /* \"#utility.yul\":11347:11373   */\n      swap1\n      pop\n        /* \"#utility.yul\":11419:11428   */\n      dup2\n        /* \"#utility.yul\":11413:11417   */\n      dup2\n        /* \"#utility.yul\":11409:11429   */\n      sub\n        /* \"#utility.yul\":11405:11406   */\n      0x00\n        /* \"#utility.yul\":11394:11403   */\n      dup4\n        /* \"#utility.yul\":11390:11407   */\n      add\n        /* \"#utility.yul\":11383:11430   */\n      mstore\n        /* \"#utility.yul\":11447:11578   */\n      tag_479\n        /* \"#utility.yul\":11573:11577   */\n      dup2\n        /* \"#utility.yul\":11447:11578   */\n      tag_310\n      jump\t// in\n    tag_479:\n        /* \"#utility.yul\":11439:11578   */\n      swap1\n      pop\n        /* \"#utility.yul\":11166:11585   */\n      swap2\n      swap1\n      pop\n      jump\t// out\n        /* \"#utility.yul\":11591:11757   */\n    tag_311:\n        /* \"#utility.yul\":11731:11749   */\n      0x4e6f7420656e6f7567682066756e647300000000000000000000000000000000\n        /* \"#utility.yul\":11727:11728   */\n      0x00\n        /* \"#utility.yul\":11719:11725   */\n      dup3\n        /* \"#utility.yul\":11715:11729   */\n      add\n        /* \"#utility.yul\":11708:11750   */\n      mstore\n        /* \"#utility.yul\":11591:11757   */\n      pop\n      jump\t// out\n        /* \"#utility.yul\":11763:12129   */\n    tag_312:\n        /* \"#utility.yul\":11905:11908   */\n      0x00\n        /* \"#utility.yul\":11926:11993   */\n      tag_482\n        /* \"#utility.yul\":11990:11992   */\n      0x10\n        /* \"#utility.yul\":11985:11988   */\n      dup4\n        /* \"#utility.yul\":11926:11993   */\n      tag_304\n      jump\t// in\n    tag_482:\n        /* \"#utility.yul\":11919:11993   */\n      swap2\n      pop\n        /* \"#utility.yul\":12002:12095   */\n      tag_483\n        /* \"#utility.yul\":12091:12094   */\n      dup3\n        /* \"#utility.yul\":12002:12095   */\n      tag_311\n      jump\t// in\n    tag_483:\n        /* \"#utility.yul\":12120:12122   */\n      0x20\n        /* \"#utility.yul\":12115:12118   */\n      dup3\n        /* \"#utility.yul\":12111:12123   */\n      add\n        /* \"#utility.yul\":12104:12123   */\n      swap1\n      pop\n        /* \"#utility.yul\":11763:12129   */\n      swap2\n      swap1\n      pop\n      jump\t// out\n        /* \"#utility.yul\":12135:12554   */\n    tag_101:\n        /* \"#utility.yul\":12301:12305   */\n      0x00\n        /* \"#utility.yul\":12339:12341   */\n      0x20\n        /* \"#utility.yul\":12328:12337   */\n      dup3\n        /* \"#utility.yul\":12324:12342   */\n      add\n        /* \"#utility.yul\":12316:12342   */\n      swap1\n      pop\n        /* \"#utility.yul\":12388:12397   */\n      dup2\n        /* \"#utility.yul\":12382:12386   */\n      dup2\n        /* \"#utility.yul\":12378:12398   */\n      sub\n        /* \"#utility.yul\":12374:12375   */\n      0x00\n        /* \"#utility.yul\":12363:12372   */\n      dup4\n        /* \"#utility.yul\":12359:12376   */\n      add\n        /* \"#utility.yul\":12352:12399   */\n      mstore\n        /* \"#utility.yul\":12416:12547   */\n      tag_485\n        /* \"#utility.yul\":12542:12546   */\n      dup2\n        /* \"#utility.yul\":12416:12547   */\n      tag_312\n      jump\t// in\n    tag_485:\n        /* \"#utility.yul\":12408:12547   */\n      swap1\n      pop\n        /* \"#utility.yul\":12135:12554   */\n      swap2\n      swap1\n      pop\n      jump\t// out\n        /* \"#utility.yul\":12560:12740   */\n    tag_313:\n        /* \"#utility.yul\":12608:12685   */\n      0x4e487b7100000000000000000000000000000000000000000000000000000000\n        /* \"#utility.yul\":12605:12606   */\n      0x00\n        /* \"#utility.yul\":12598:12686   */\n      mstore\n        /* \"#utility.yul\":12705:12709   */\n      0x11\n        /* \"#utility.yul\":12702:12703   */\n      0x04\n        /* \"#utility.yul\":12695:12710   */\n      mstore\n        /* \"#utility.yul\":12729:12733   */\n      0x24\n        /* \"#utility.yul\":12726:12727   */\n      0x00\n        /* \"#utility.yul\":12719:12734   */\n      revert\n        /* \"#utility.yul\":12746:12848   */\n    tag_314:\n        /* \"#utility.yul\":12788:12796   */\n      0x00\n        /* \"#utility.yul\":12835:12840   */\n      dup2\n        /* \"#utility.yul\":12832:12833   */\n      0x01\n        /* \"#utility.yul\":12828:12841   */\n      shr\n        /* \"#utility.yul\":12807:12841   */\n      swap1\n      pop\n        /* \"#utility.yul\":12746:12848   */\n      swap2\n      swap1\n      pop\n      jump\t// out\n        /* \"#utility.yul\":12854:13702   */\n    tag_315:\n        /* \"#utility.yul\":12915:12920   */\n      0x00\n        /* \"#utility.yul\":12922:12926   */\n      0x00\n        /* \"#utility.yul\":12946:12952   */\n      dup3\n        /* \"#utility.yul\":12937:12952   */\n      swap2\n      pop\n        /* \"#utility.yul\":12970:12975   */\n      dup4\n        /* \"#utility.yul\":12961:12975   */\n      swap1\n      pop\n        /* \"#utility.yul\":12984:13696   */\n    tag_489:\n        /* \"#utility.yul\":13005:13006   */\n      0x01\n        /* \"#utility.yul\":12995:13003   */\n      dup6\n        /* \"#utility.yul\":12992:13007   */\n      gt\n        /* \"#utility.yul\":12984:13696   */\n      iszero\n      tag_491\n      jumpi\n        /* \"#utility.yul\":13100:13104   */\n      dup1\n        /* \"#utility.yul\":13095:13098   */\n      dup7\n        /* \"#utility.yul\":13091:13105   */\n      div\n        /* \"#utility.yul\":13085:13089   */\n      dup2\n        /* \"#utility.yul\":13082:13106   */\n      gt\n        /* \"#utility.yul\":13079:13129   */\n      iszero\n      tag_492\n      jumpi\n        /* \"#utility.yul\":13109:13127   */\n      tag_493\n      tag_313\n      jump\t// in\n    tag_493:\n        /* \"#utility.yul\":13079:13129   */\n    tag_492:\n        /* \"#utility.yul\":13159:13160   */\n      0x01\n        /* \"#utility.yul\":13149:13157   */\n      dup6\n        /* \"#utility.yul\":13145:13161   */\n      and\n        /* \"#utility.yul\":13142:13593   */\n      iszero\n      tag_494\n      jumpi\n        /* \"#utility.yul\":13574:13578   */\n      dup1\n        /* \"#utility.yul\":13567:13572   */\n      dup3\n        /* \"#utility.yul\":13563:13579   */\n      mul\n        /* \"#utility.yul\":13554:13579   */\n      swap2\n      pop\n        /* \"#utility.yul\":13142:13593   */\n    tag_494:\n        /* \"#utility.yul\":13624:13628   */\n      dup1\n        /* \"#utility.yul\":13618:13622   */\n      dup2\n        /* \"#utility.yul\":13614:13629   */\n      mul\n        /* \"#utility.yul\":13606:13629   */\n      swap1\n      pop\n        /* \"#utility.yul\":13654:13686   */\n      tag_495\n        /* \"#utility.yul\":13677:13685   */\n      dup6\n        /* \"#utility.yul\":13654:13686   */\n      tag_314\n      jump\t// in\n    tag_495:\n        /* \"#utility.yul\":13642:13686   */\n      swap5\n      pop\n        /* \"#utility.yul\":12984:13696   */\n      jump(tag_489)\n    tag_491:\n        /* \"#utility.yul\":12854:13702   */\n      swap5\n      pop\n      swap5\n      swap3\n      pop\n      pop\n      pop\n      jump\t// out\n        /* \"#utility.yul\":13708:14781   */\n    tag_316:\n        /* \"#utility.yul\":13762:13767   */\n      0x00\n        /* \"#utility.yul\":13953:13961   */\n      dup3\n        /* \"#utility.yul\":13943:13983   */\n      tag_497\n      jumpi\n        /* \"#utility.yul\":13974:13975   */\n      0x01\n        /* \"#utility.yul\":13965:13975   */\n      swap1\n      pop\n        /* \"#utility.yul\":13976:13981   */\n      jump(tag_496)\n        /* \"#utility.yul\":13943:13983   */\n    tag_497:\n        /* \"#utility.yul\":14002:14006   */\n      dup2\n        /* \"#utility.yul\":13992:14028   */\n      tag_498\n      jumpi\n        /* \"#utility.yul\":14019:14020   */\n      0x00\n        /* \"#utility.yul\":14010:14020   */\n      swap1\n      pop\n        /* \"#utility.yul\":14021:14026   */\n      jump(tag_496)\n        /* \"#utility.yul\":13992:14028   */\n    tag_498:\n        /* \"#utility.yul\":14088:14092   */\n      dup2\n        /* \"#utility.yul\":14136:14137   */\n      0x01\n        /* \"#utility.yul\":14131:14158   */\n      dup2\n      eq\n      tag_500\n      jumpi\n        /* \"#utility.yul\":14172:14173   */\n      0x02\n        /* \"#utility.yul\":14167:14358   */\n      dup2\n      eq\n      tag_501\n      jumpi\n        /* \"#utility.yul\":14081:14358   */\n      jump(tag_499)\n        /* \"#utility.yul\":14131:14158   */\n    tag_500:\n        /* \"#utility.yul\":14149:14150   */\n      0x01\n        /* \"#utility.yul\":14140:14150   */\n      swap2\n      pop\n        /* \"#utility.yul\":14151:14156   */\n      pop\n      jump(tag_496)\n        /* \"#utility.yul\":14167:14358   */\n    tag_501:\n        /* \"#utility.yul\":14212:14215   */\n      0xff\n        /* \"#utility.yul\":14202:14210   */\n      dup5\n        /* \"#utility.yul\":14199:14216   */\n      gt\n        /* \"#utility.yul\":14196:14239   */\n      iszero\n      tag_502\n      jumpi\n        /* \"#utility.yul\":14219:14237   */\n      tag_503\n      tag_313\n      jump\t// in\n    tag_503:\n        /* \"#utility.yul\":14196:14239   */\n    tag_502:\n        /* \"#utility.yul\":14268:14276   */\n      dup4\n        /* \"#utility.yul\":14265:14266   */\n      0x02\n        /* \"#utility.yul\":14261:14277   */\n      exp\n        /* \"#utility.yul\":14252:14277   */\n      swap2\n      pop\n        /* \"#utility.yul\":14303:14306   */\n      dup5\n        /* \"#utility.yul\":14296:14301   */\n      dup3\n        /* \"#utility.yul\":14293:14307   */\n      gt\n        /* \"#utility.yul\":14290:14330   */\n      iszero\n      tag_504\n      jumpi\n        /* \"#utility.yul\":14310:14328   */\n      tag_505\n      tag_313\n      jump\t// in\n    tag_505:\n        /* \"#utility.yul\":14290:14330   */\n    tag_504:\n        /* \"#utility.yul\":14343:14348   */\n      pop\n      jump(tag_496)\n        /* \"#utility.yul\":14081:14358   */\n    tag_499:\n      pop\n        /* \"#utility.yul\":14467:14469   */\n      0x20\n        /* \"#utility.yul\":14457:14465   */\n      dup4\n        /* \"#utility.yul\":14454:14470   */\n      lt\n        /* \"#utility.yul\":14448:14451   */\n      0x0133\n        /* \"#utility.yul\":14442:14446   */\n      dup4\n        /* \"#utility.yul\":14439:14452   */\n      lt\n        /* \"#utility.yul\":14435:14471   */\n      and\n        /* \"#utility.yul\":14417:14419   */\n      0x4e\n        /* \"#utility.yul\":14407:14415   */\n      dup5\n        /* \"#utility.yul\":14404:14420   */\n      lt\n        /* \"#utility.yul\":14399:14401   */\n      0x0b\n        /* \"#utility.yul\":14393:14397   */\n      dup5\n        /* \"#utility.yul\":14390:14402   */\n      lt\n        /* \"#utility.yul\":14386:14421   */\n      and\n        /* \"#utility.yul\":14370:14481   */\n      or\n        /* \"#utility.yul\":14367:14613   */\n      iszero\n      tag_506\n      jumpi\n        /* \"#utility.yul\":14523:14531   */\n      dup3\n        /* \"#utility.yul\":14517:14521   */\n      dup3\n        /* \"#utility.yul\":14513:14532   */\n      exp\n        /* \"#utility.yul\":14504:14532   */\n      swap1\n      pop\n        /* \"#utility.yul\":14558:14561   */\n      dup4\n        /* \"#utility.yul\":14551:14556   */\n      dup2\n        /* \"#utility.yul\":14548:14562   */\n      gt\n        /* \"#utility.yul\":14545:14585   */\n      iszero\n      tag_507\n      jumpi\n        /* \"#utility.yul\":14565:14583   */\n      tag_508\n      tag_313\n      jump\t// in\n    tag_508:\n        /* \"#utility.yul\":14545:14585   */\n    tag_507:\n        /* \"#utility.yul\":14598:14603   */\n      jump(tag_496)\n        /* \"#utility.yul\":14367:14613   */\n    tag_506:\n        /* \"#utility.yul\":14638:14680   */\n      tag_509\n        /* \"#utility.yul\":14676:14679   */\n      dup5\n        /* \"#utility.yul\":14666:14674   */\n      dup5\n        /* \"#utility.yul\":14660:14664   */\n      dup5\n        /* \"#utility.yul\":14657:14658   */\n      0x01\n        /* \"#utility.yul\":14638:14680   */\n      tag_315\n      jump\t// in\n    tag_509:\n        /* \"#utility.yul\":14623:14680   */\n      swap3\n      pop\n      swap1\n      pop\n        /* \"#utility.yul\":14712:14716   */\n      dup2\n        /* \"#utility.yul\":14707:14710   */\n      dup5\n        /* \"#utility.yul\":14703:14717   */\n      div\n        /* \"#utility.yul\":14696:14701   */\n      dup2\n        /* \"#utility.yul\":14693:14718   */\n      gt\n        /* \"#utility.yul\":14690:14741   */\n      iszero\n      tag_510\n      jumpi\n        /* \"#utility.yul\":14721:14739   */\n      tag_511\n      tag_313\n      jump\t// in\n    tag_511:\n        /* \"#utility.yul\":14690:14741   */\n    tag_510:\n        /* \"#utility.yul\":14770:14774   */\n      dup2\n        /* \"#utility.yul\":14763:14768   */\n      dup2\n        /* \"#utility.yul\":14759:14775   */\n      mul\n        /* \"#utility.yul\":14750:14775   */\n      swap1\n      pop\n        /* \"#utility.yul\":13708:14781   */\n    tag_496:\n      swap4\n      swap3\n      pop\n      pop\n      pop\n      jump\t// out\n        /* \"#utility.yul\":14787:15072   */\n    tag_110:\n        /* \"#utility.yul\":14847:14852   */\n      0x00\n        /* \"#utility.yul\":14871:14894   */\n      tag_513\n        /* \"#utility.yul\":14889:14893   */\n      dup3\n        /* \"#utility.yul\":14871:14894   */\n      tag_287\n      jump\t// in\n    tag_513:\n        /* \"#utility.yul\":14863:14894   */\n      swap2\n      pop\n        /* \"#utility.yul\":14915:14942   */\n      tag_514\n        /* \"#utility.yul\":14933:14941   */\n      dup4\n        /* \"#utility.yul\":14915:14942   */\n      tag_287\n      jump\t// in\n    tag_514:\n        /* \"#utility.yul\":14903:14942   */\n      swap3\n      pop\n        /* \"#utility.yul\":14961:15065   */\n      tag_515\n        /* \"#utility.yul\":14998:15064   */\n      0xffffffffffffffffffffffffffffffffffffffffffffffffffffffffffffffff\n        /* \"#utility.yul\":14988:14996   */\n      dup5\n        /* \"#utility.yul\":14982:14986   */\n      dup5\n        /* \"#utility.yul\":14961:15065   */\n      tag_316\n      jump\t// in\n    tag_515:\n        /* \"#utility.yul\":14952:15065   */\n      swap1\n      pop\n        /* \"#utility.yul\":14787:15072   */\n      swap3\n      swap2\n      pop\n      pop\n      jump\t// out\n        /* \"#utility.yul\":15078:15488   */\n    tag_112:\n        /* \"#utility.yul\":15118:15125   */\n      0x00\n        /* \"#utility.yul\":15141:15161   */\n      tag_517\n        /* \"#utility.yul\":15159:15160   */\n      dup3\n        /* \"#utility.yul\":15141:15161   */\n      tag_287\n      jump\t// in\n    tag_517:\n        /* \"#utility.yul\":15136:15161   */\n      swap2\n      pop\n        /* \"#utility.yul\":15175:15195   */\n      tag_518\n        /* \"#utility.yul\":15193:15194   */\n      dup4\n        /* \"#utility.yul\":15175:15195   */\n      tag_287\n      jump\t// in\n    tag_518:\n        /* \"#utility.yul\":15170:15195   */\n      swap3\n      pop\n        /* \"#utility.yul\":15230:15231   */\n      dup3\n        /* \"#utility.yul\":15227:15228   */\n      dup3\n        /* \"#utility.yul\":15223:15232   */\n      mul\n        /* \"#utility.yul\":15252:15282   */\n      tag_519\n        /* \"#utility.yul\":15270:15281   */\n      dup2\n        /* \"#utility.yul\":15252:15282   */\n      tag_287\n      jump\t// in\n    tag_519:\n        /* \"#utility.yul\":15241:15282   */\n      swap2\n      pop\n        /* \"#utility.yul\":15431:15432   */\n      dup3\n        /* \"#utility.yul\":15422:15429   */\n      dup3\n        /* \"#utility.yul\":15418:15433   */\n      div\n        /* \"#utility.yul\":15415:15416   */\n      dup5\n        /* \"#utility.yul\":15412:15434   */\n      eq\n        /* \"#utility.yul\":15392:15393   */\n      dup4\n        /* \"#utility.yul\":15385:15394   */\n      iszero\n        /* \"#utility.yul\":15365:15448   */\n      or\n        /* \"#utility.yul\":15342:15481   */\n      tag_520\n      jumpi\n        /* \"#utility.yul\":15461:15479   */\n      tag_521\n      tag_313\n      jump\t// in\n    tag_521:\n        /* \"#utility.yul\":15342:15481   */\n    tag_520:\n        /* \"#utility.yul\":15126:15488   */\n      pop\n        /* \"#utility.yul\":15078:15488   */\n      swap3\n      swap2\n      pop\n      pop\n      jump\t// out\n        /* \"#utility.yul\":15494:15660   */\n    tag_317:\n        /* \"#utility.yul\":15634:15652   */\n      0x4e6f7420656e6f756768206d6f6e657900000000000000000000000000000000\n        /* \"#utility.yul\":15630:15631   */\n      0x00\n        /* \"#utility.yul\":15622:15628   */\n      dup3\n        /* \"#utility.yul\":15618:15632   */\n      add\n        /* \"#utility.yul\":15611:15653   */\n      mstore\n        /* \"#utility.yul\":15494:15660   */\n      pop\n      jump\t// out\n        /* \"#utility.yul\":15666:16032   */\n    tag_318:\n        /* \"#utility.yul\":15808:15811   */\n      0x00\n        /* \"#utility.yul\":15829:15896   */\n      tag_524\n        /* \"#utility.yul\":15893:15895   */\n      0x10\n        /* \"#utility.yul\":15888:15891   */\n      dup4\n        /* \"#utility.yul\":15829:15896   */\n      tag_304\n      jump\t// in\n    tag_524:\n        /* \"#utility.yul\":15822:15896   */\n      swap2\n      pop\n        /* \"#utility.yul\":15905:15998   */\n      tag_525\n        /* \"#utility.yul\":15994:15997   */\n      dup3\n        /* \"#utility.yul\":15905:15998   */\n      tag_317\n      jump\t// in\n    tag_525:\n        /* \"#utility.yul\":16023:16025   */\n      0x20\n        /* \"#utility.yul\":16018:16021   */\n      dup3\n        /* \"#utility.yul\":16014:16026   */\n      add\n        /* \"#utility.yul\":16007:16026   */\n      swap1\n      pop\n        /* \"#utility.yul\":15666:16032   */\n      swap2\n      swap1\n      pop\n      jump\t// out\n        /* \"#utility.yul\":16038:16457   */\n    tag_115:\n        /* \"#utility.yul\":16204:16208   */\n      0x00\n        /* \"#utility.yul\":16242:16244   */\n      0x20\n        /* \"#utility.yul\":16231:16240   */\n      dup3\n        /* \"#utility.yul\":16227:16245   */\n      add\n        /* \"#utility.yul\":16219:16245   */\n      swap1\n      pop\n        /* \"#utility.yul\":16291:16300   */\n      dup2\n        /* \"#utility.yul\":16285:16289   */\n      dup2\n        /* \"#utility.yul\":16281:16301   */\n      sub\n        /* \"#utility.yul\":16277:16278   */\n      0x00\n        /* \"#utility.yul\":16266:16275   */\n      dup4\n        /* \"#utility.yul\":16262:16279   */\n      add\n        /* \"#utility.yul\":16255:16302   */\n      mstore\n        /* \"#utility.yul\":16319:16450   */\n      tag_527\n        /* \"#utility.yul\":16445:16449   */\n      dup2\n        /* \"#utility.yul\":16319:16450   */\n      tag_318\n      jump\t// in\n    tag_527:\n        /* \"#utility.yul\":16311:16450   */\n      swap1\n      pop\n        /* \"#utility.yul\":16038:16457   */\n      swap2\n      swap1\n      pop\n      jump\t// out\n        /* \"#utility.yul\":16463:16627   */\n    tag_319:\n        /* \"#utility.yul\":16603:16619   */\n      0x416c726561647920657869737473000000000000000000000000000000000000\n        /* \"#utility.yul\":16599:16600   */\n      0x00\n        /* \"#utility.yul\":16591:16597   */\n      dup3\n        /* \"#utility.yul\":16587:16601   */\n      add\n        /* \"#utility.yul\":16580:16620   */\n      mstore\n        /* \"#utility.yul\":16463:16627   */\n      pop\n      jump\t// out\n        /* \"#utility.yul\":16633:16999   */\n    tag_320:\n        /* \"#utility.yul\":16775:16778   */\n      0x00\n        /* \"#utility.yul\":16796:16863   */\n      tag_530\n        /* \"#utility.yul\":16860:16862   */\n      0x0e\n        /* \"#utility.yul\":16855:16858   */\n      dup4\n        /* \"#utility.yul\":16796:16863   */\n      tag_304\n      jump\t// in\n    tag_530:\n        /* \"#utility.yul\":16789:16863   */\n      swap2\n      pop\n        /* \"#utility.yul\":16872:16965   */\n      tag_531\n        /* \"#utility.yul\":16961:16964   */\n      dup3\n        /* \"#utility.yul\":16872:16965   */\n      tag_319\n      jump\t// in\n    tag_531:\n        /* \"#utility.yul\":16990:16992   */\n      0x20\n        /* \"#utility.yul\":16985:16988   */\n      dup3\n        /* \"#utility.yul\":16981:16993   */\n      add\n        /* \"#utility.yul\":16974:16993   */\n      swap1\n      pop\n        /* \"#utility.yul\":16633:16999   */\n      swap2\n      swap1\n      pop\n      jump\t// out\n        /* \"#utility.yul\":17005:17424   */\n    tag_120:\n        /* \"#utility.yul\":17171:17175   */\n      0x00\n        /* \"#utility.yul\":17209:17211   */\n      0x20\n        /* \"#utility.yul\":17198:17207   */\n      dup3\n        /* \"#utility.yul\":17194:17212   */\n      add\n        /* \"#utility.yul\":17186:17212   */\n      swap1\n      pop\n        /* \"#utility.yul\":17258:17267   */\n      dup2\n        /* \"#utility.yul\":17252:17256   */\n      dup2\n        /* \"#utility.yul\":17248:17268   */\n      sub\n        /* \"#utility.yul\":17244:17245   */\n      0x00\n        /* \"#utility.yul\":17233:17242   */\n      dup4\n        /* \"#utility.yul\":17229:17246   */\n      add\n        /* \"#utility.yul\":17222:17269   */\n      mstore\n        /* \"#utility.yul\":17286:17417   */\n      tag_533\n        /* \"#utility.yul\":17412:17416   */\n      dup2\n        /* \"#utility.yul\":17286:17417   */\n      tag_320\n      jump\t// in\n    tag_533:\n        /* \"#utility.yul\":17278:17417   */\n      swap1\n      pop\n        /* \"#utility.yul\":17005:17424   */\n      swap2\n      swap1\n      pop\n      jump\t// out\n        /* \"#utility.yul\":17430:17527   */\n    tag_321:\n        /* \"#utility.yul\":17489:17495   */\n      0x00\n        /* \"#utility.yul\":17517:17520   */\n      dup3\n        /* \"#utility.yul\":17507:17520   */\n      swap1\n      pop\n        /* \"#utility.yul\":17430:17527   */\n      swap3\n      swap2\n      pop\n      pop\n      jump\t// out\n        /* \"#utility.yul\":17533:17713   */\n    tag_322:\n        /* \"#utility.yul\":17581:17658   */\n      0x4e487b7100000000000000000000000000000000000000000000000000000000\n        /* \"#utility.yul\":17578:17579   */\n      0x00\n        /* \"#utility.yul\":17571:17659   */\n      mstore\n        /* \"#utility.yul\":17678:17682   */\n      0x41\n        /* \"#utility.yul\":17675:17676   */\n      0x04\n        /* \"#utility.yul\":17668:17683   */\n      mstore\n        /* \"#utility.yul\":17702:17706   */\n      0x24\n        /* \"#utility.yul\":17699:17700   */\n      0x00\n        /* \"#utility.yul\":17692:17707   */\n      revert\n        /* \"#utility.yul\":17719:17860   */\n    tag_323:\n        /* \"#utility.yul\":17768:17772   */\n      0x00\n        /* \"#utility.yul\":17791:17794   */\n      dup2\n        /* \"#utility.yul\":17783:17794   */\n      swap1\n      pop\n        /* \"#utility.yul\":17814:17817   */\n      dup2\n        /* \"#utility.yul\":17811:17812   */\n      0x00\n        /* \"#utility.yul\":17804:17818   */\n      mstore\n        /* \"#utility.yul\":17848:17852   */\n      0x20\n        /* \"#utility.yul\":17845:17846   */\n      0x00\n        /* \"#utility.yul\":17835:17853   */\n      keccak256\n        /* \"#utility.yul\":17827:17853   */\n      swap1\n      pop\n        /* \"#utility.yul\":17719:17860   */\n      swap2\n      swap1\n      pop\n      jump\t// out\n        /* \"#utility.yul\":17866:17959   */\n    tag_324:\n        /* \"#utility.yul\":17903:17909   */\n      0x00\n        /* \"#utility.yul\":17950:17952   */\n      0x20\n        /* \"#utility.yul\":17945:17947   */\n      0x1f\n        /* \"#utility.yul\":17938:17943   */\n      dup4\n        /* \"#utility.yul\":17934:17948   */\n      add\n        /* \"#utility.yul\":17930:17953   */\n      div\n        /* \"#utility.yul\":17920:17953   */\n      swap1\n      pop\n        /* \"#utility.yul\":17866:17959   */\n      swap2\n      swap1\n      pop\n      jump\t// out\n        /* \"#utility.yul\":17965:18072   */\n    tag_325:\n        /* \"#utility.yul\":18009:18017   */\n      0x00\n        /* \"#utility.yul\":18059:18064   */\n      dup3\n        /* \"#utility.yul\":18053:18057   */\n      dup3\n        /* \"#utility.yul\":18049:18065   */\n      shl\n        /* \"#utility.yul\":18028:18065   */\n      swap1\n      pop\n        /* \"#utility.yul\":17965:18072   */\n      swap3\n      swap2\n      pop\n      pop\n      jump\t// out\n        /* \"#utility.yul\":18078:18471   */\n    tag_326:\n        /* \"#utility.yul\":18147:18153   */\n      0x00\n        /* \"#utility.yul\":18197:18198   */\n      0x08\n        /* \"#utility.yul\":18185:18195   */\n      dup4\n        /* \"#utility.yul\":18181:18199   */\n      mul\n        /* \"#utility.yul\":18220:18317   */\n      tag_540\n        /* \"#utility.yul\":18250:18316   */\n      0xffffffffffffffffffffffffffffffffffffffffffffffffffffffffffffffff\n        /* \"#utility.yul\":18239:18248   */\n      dup3\n        /* \"#utility.yul\":18220:18317   */\n      tag_325\n      jump\t// in\n    tag_540:\n        /* \"#utility.yul\":18338:18377   */\n      tag_541\n        /* \"#utility.yul\":18368:18376   */\n      dup7\n        /* \"#utility.yul\":18357:18366   */\n      dup4\n        /* \"#utility.yul\":18338:18377   */\n      tag_325\n      jump\t// in\n    tag_541:\n        /* \"#utility.yul\":18326:18377   */\n      swap6\n      pop\n        /* \"#utility.yul\":18410:18414   */\n      dup1\n        /* \"#utility.yul\":18406:18415   */\n      not\n        /* \"#utility.yul\":18399:18404   */\n      dup5\n        /* \"#utility.yul\":18395:18416   */\n      and\n        /* \"#utility.yul\":18386:18416   */\n      swap4\n      pop\n        /* \"#utility.yul\":18459:18463   */\n      dup1\n        /* \"#utility.yul\":18449:18457   */\n      dup7\n        /* \"#utility.yul\":18445:18464   */\n      and\n        /* \"#utility.yul\":18438:18443   */\n      dup5\n        /* \"#utility.yul\":18435:18465   */\n      or\n        /* \"#utility.yul\":18425:18465   */\n      swap3\n      pop\n        /* \"#utility.yul\":18154:18471   */\n      pop\n      pop\n        /* \"#utility.yul\":18078:18471   */\n      swap4\n      swap3\n      pop\n      pop\n      pop\n      jump\t// out\n        /* \"#utility.yul\":18477:18537   */\n    tag_327:\n        /* \"#utility.yul\":18505:18508   */\n      0x00\n        /* \"#utility.yul\":18526:18531   */\n      dup2\n        /* \"#utility.yul\":18519:18531   */\n      swap1\n      pop\n        /* \"#utility.yul\":18477:18537   */\n      swap2\n      swap1\n      pop\n      jump\t// out\n        /* \"#utility.yul\":18543:18685   */\n    tag_328:\n        /* \"#utility.yul\":18593:18602   */\n      0x00\n        /* \"#utility.yul\":18626:18679   */\n      tag_544\n        /* \"#utility.yul\":18644:18678   */\n      tag_545\n        /* \"#utility.yul\":18653:18677   */\n      tag_546\n        /* \"#utility.yul\":18671:18676   */\n      dup5\n        /* \"#utility.yul\":18653:18677   */\n      tag_287\n      jump\t// in\n    tag_546:\n        /* \"#utility.yul\":18644:18678   */\n      tag_327\n      jump\t// in\n    tag_545:\n        /* \"#utility.yul\":18626:18679   */\n      tag_287\n      jump\t// in\n    tag_544:\n        /* \"#utility.yul\":18613:18679   */\n      swap1\n      pop\n        /* \"#utility.yul\":18543:18685   */\n      swap2\n      swap1\n      pop\n      jump\t// out\n        /* \"#utility.yul\":18691:18766   */\n    tag_329:\n        /* \"#utility.yul\":18734:18737   */\n      0x00\n        /* \"#utility.yul\":18755:18760   */\n      dup2\n        /* \"#utility.yul\":18748:18760   */\n      swap1\n      pop\n        /* \"#utility.yul\":18691:18766   */\n      swap2\n      swap1\n      pop\n      jump\t// out\n        /* \"#utility.yul\":18772:19041   */\n    tag_330:\n        /* \"#utility.yul\":18882:18921   */\n      tag_549\n        /* \"#utility.yul\":18913:18920   */\n      dup4\n        /* \"#utility.yul\":18882:18921   */\n      tag_328\n      jump\t// in\n    tag_549:\n        /* \"#utility.yul\":18943:19034   */\n      tag_550\n        /* \"#utility.yul\":18992:19033   */\n      tag_551\n        /* \"#utility.yul\":19016:19032   */\n      dup3\n        /* \"#utility.yul\":18992:19033   */\n      tag_329\n      jump\t// in\n    tag_551:\n        /* \"#utility.yul\":18984:18990   */\n      dup5\n        /* \"#utility.yul\":18977:18981   */\n      dup5\n        /* \"#utility.yul\":18971:18982   */\n      sload\n        /* \"#utility.yul\":18943:19034   */\n      tag_326\n      jump\t// in\n    tag_550:\n        /* \"#utility.yul\":18937:18941   */\n      dup3\n        /* \"#utility.yul\":18930:19035   */\n      sstore\n        /* \"#utility.yul\":18848:19041   */\n      pop\n        /* \"#utility.yul\":18772:19041   */\n      pop\n      pop\n      pop\n      jump\t// out\n        /* \"#utility.yul\":19047:19120   */\n    tag_331:\n        /* \"#utility.yul\":19092:19095   */\n      0x00\n        /* \"#utility.yul\":19113:19114   */\n      0x00\n        /* \"#utility.yul\":19106:19114   */\n      swap1\n      pop\n        /* \"#utility.yul\":19047:19120   */\n      swap1\n      jump\t// out\n        /* \"#utility.yul\":19126:19315   */\n    tag_332:\n        /* \"#utility.yul\":19203:19235   */\n      tag_554\n      tag_331\n      jump\t// in\n    tag_554:\n        /* \"#utility.yul\":19244:19309   */\n      tag_555\n        /* \"#utility.yul\":19302:19308   */\n      dup2\n        /* \"#utility.yul\":19294:19300   */\n      dup5\n        /* \"#utility.yul\":19288:19292   */\n      dup5\n        /* \"#utility.yul\":19244:19309   */\n      tag_330\n      jump\t// in\n    tag_555:\n        /* \"#utility.yul\":19179:19315   */\n      pop\n        /* \"#utility.yul\":19126:19315   */\n      pop\n      pop\n      jump\t// out\n        /* \"#utility.yul\":19321:19507   */\n    tag_333:\n        /* \"#utility.yul\":19381:19501   */\n    tag_557:\n        /* \"#utility.yul\":19398:19401   */\n      dup2\n        /* \"#utility.yul\":19391:19396   */\n      dup2\n        /* \"#utility.yul\":19388:19402   */\n      lt\n        /* \"#utility.yul\":19381:19501   */\n      iszero\n      tag_559\n      jumpi\n        /* \"#utility.yul\":19452:19491   */\n      tag_560\n        /* \"#utility.yul\":19489:19490   */\n      0x00\n        /* \"#utility.yul\":19482:19487   */\n      dup3\n        /* \"#utility.yul\":19452:19491   */\n      tag_332\n      jump\t// in\n    tag_560:\n        /* \"#utility.yul\":19425:19426   */\n      0x01\n        /* \"#utility.yul\":19418:19423   */\n      dup2\n        /* \"#utility.yul\":19414:19427   */\n      add\n        /* \"#utility.yul\":19405:19427   */\n      swap1\n      pop\n        /* \"#utility.yul\":19381:19501   */\n      jump(tag_557)\n    tag_559:\n        /* \"#utility.yul\":19321:19507   */\n      pop\n      pop\n      jump\t// out\n        /* \"#utility.yul\":19513:20056   */\n    tag_334:\n        /* \"#utility.yul\":19614:19616   */\n      0x1f\n        /* \"#utility.yul\":19609:19612   */\n      dup3\n        /* \"#utility.yul\":19606:19617   */\n      gt\n        /* \"#utility.yul\":19603:20049   */\n      iszero\n      tag_562\n      jumpi\n        /* \"#utility.yul\":19648:19686   */\n      tag_563\n        /* \"#utility.yul\":19680:19685   */\n      dup2\n        /* \"#utility.yul\":19648:19686   */\n      tag_323\n      jump\t// in\n    tag_563:\n        /* \"#utility.yul\":19732:19761   */\n      tag_564\n        /* \"#utility.yul\":19750:19760   */\n      dup5\n        /* \"#utility.yul\":19732:19761   */\n      tag_324\n      jump\t// in\n    tag_564:\n        /* \"#utility.yul\":19722:19730   */\n      dup2\n        /* \"#utility.yul\":19718:19762   */\n      add\n        /* \"#utility.yul\":19915:19917   */\n      0x20\n        /* \"#utility.yul\":19903:19913   */\n      dup6\n        /* \"#utility.yul\":19900:19918   */\n      lt\n        /* \"#utility.yul\":19897:19946   */\n      iszero\n      tag_565\n      jumpi\n        /* \"#utility.yul\":19936:19944   */\n      dup2\n        /* \"#utility.yul\":19921:19944   */\n      swap1\n      pop\n        /* \"#utility.yul\":19897:19946   */\n    tag_565:\n        /* \"#utility.yul\":19959:20039   */\n      tag_566\n        /* \"#utility.yul\":20015:20037   */\n      tag_567\n        /* \"#utility.yul\":20033:20036   */\n      dup6\n        /* \"#utility.yul\":20015:20037   */\n      tag_324\n      jump\t// in\n    tag_567:\n        /* \"#utility.yul\":20005:20013   */\n      dup4\n        /* \"#utility.yul\":20001:20038   */\n      add\n        /* \"#utility.yul\":19988:19999   */\n      dup3\n        /* \"#utility.yul\":19959:20039   */\n      tag_333\n      jump\t// in\n    tag_566:\n        /* \"#utility.yul\":19618:20049   */\n      pop\n      pop\n        /* \"#utility.yul\":19603:20049   */\n    tag_562:\n        /* \"#utility.yul\":19513:20056   */\n      pop\n      pop\n      pop\n      jump\t// out\n        /* \"#utility.yul\":20062:20179   */\n    tag_335:\n        /* \"#utility.yul\":20116:20124   */\n      0x00\n        /* \"#utility.yul\":20166:20171   */\n      dup3\n        /* \"#utility.yul\":20160:20164   */\n      dup3\n        /* \"#utility.yul\":20156:20172   */\n      shr\n        /* \"#utility.yul\":20135:20172   */\n      swap1\n      pop\n        /* \"#utility.yul\":20062:20179   */\n      swap3\n      swap2\n      pop\n      pop\n      jump\t// out\n        /* \"#utility.yul\":20185:20354   */\n    tag_336:\n        /* \"#utility.yul\":20229:20235   */\n      0x00\n        /* \"#utility.yul\":20262:20313   */\n      tag_570\n        /* \"#utility.yul\":20310:20311   */\n      0x00\n        /* \"#utility.yul\":20306:20312   */\n      not\n        /* \"#utility.yul\":20298:20303   */\n      dup5\n        /* \"#utility.yul\":20295:20296   */\n      0x08\n        /* \"#utility.yul\":20291:20304   */\n      mul\n        /* \"#utility.yul\":20262:20313   */\n      tag_335\n      jump\t// in\n    tag_570:\n        /* \"#utility.yul\":20258:20314   */\n      not\n        /* \"#utility.yul\":20343:20347   */\n      dup1\n        /* \"#utility.yul\":20337:20341   */\n      dup4\n        /* \"#utility.yul\":20333:20348   */\n      and\n        /* \"#utility.yul\":20323:20348   */\n      swap2\n      pop\n        /* \"#utility.yul\":20236:20354   */\n      pop\n        /* \"#utility.yul\":20185:20354   */\n      swap3\n      swap2\n      pop\n      pop\n      jump\t// out\n        /* \"#utility.yul\":20359:20654   */\n    tag_337:\n        /* \"#utility.yul\":20435:20439   */\n      0x00\n        /* \"#utility.yul\":20581:20610   */\n      tag_572\n        /* \"#utility.yul\":20606:20609   */\n      dup4\n        /* \"#utility.yul\":20600:20604   */\n      dup4\n        /* \"#utility.yul\":20581:20610   */\n      tag_336\n      jump\t// in\n    tag_572:\n        /* \"#utility.yul\":20573:20610   */\n      swap2\n      pop\n        /* \"#utility.yul\":20643:20646   */\n      dup3\n        /* \"#utility.yul\":20640:20641   */\n      0x02\n        /* \"#utility.yul\":20636:20647   */\n      mul\n        /* \"#utility.yul\":20630:20634   */\n      dup3\n        /* \"#utility.yul\":20627:20648   */\n      or\n        /* \"#utility.yul\":20619:20648   */\n      swap1\n      pop\n        /* \"#utility.yul\":20359:20654   */\n      swap3\n      swap2\n      pop\n      pop\n      jump\t// out\n        /* \"#utility.yul\":20659:22062   */\n    tag_123:\n        /* \"#utility.yul\":20783:20827   */\n      tag_574\n        /* \"#utility.yul\":20823:20826   */\n      dup4\n        /* \"#utility.yul\":20818:20821   */\n      dup4\n        /* \"#utility.yul\":20783:20827   */\n      tag_321\n      jump\t// in\n    tag_574:\n        /* \"#utility.yul\":20892:20910   */\n      0xffffffffffffffff\n        /* \"#utility.yul\":20884:20890   */\n      dup2\n        /* \"#utility.yul\":20881:20911   */\n      gt\n        /* \"#utility.yul\":20878:20934   */\n      iszero\n      tag_575\n      jumpi\n        /* \"#utility.yul\":20914:20932   */\n      tag_576\n      tag_322\n      jump\t// in\n    tag_576:\n        /* \"#utility.yul\":20878:20934   */\n    tag_575:\n        /* \"#utility.yul\":20958:20996   */\n      tag_577\n        /* \"#utility.yul\":20990:20994   */\n      dup3\n        /* \"#utility.yul\":20984:20995   */\n      sload\n        /* \"#utility.yul\":20958:20996   */\n      tag_85\n      jump\t// in\n    tag_577:\n        /* \"#utility.yul\":21043:21110   */\n      tag_578\n        /* \"#utility.yul\":21103:21109   */\n      dup3\n        /* \"#utility.yul\":21095:21101   */\n      dup3\n        /* \"#utility.yul\":21089:21093   */\n      dup6\n        /* \"#utility.yul\":21043:21110   */\n      tag_334\n      jump\t// in\n    tag_578:\n        /* \"#utility.yul\":21137:21138   */\n      0x00\n        /* \"#utility.yul\":21166:21168   */\n      0x1f\n        /* \"#utility.yul\":21158:21164   */\n      dup4\n        /* \"#utility.yul\":21155:21169   */\n      gt\n        /* \"#utility.yul\":21183:21184   */\n      0x01\n        /* \"#utility.yul\":21178:21810   */\n      dup2\n      eq\n      tag_580\n      jumpi\n        /* \"#utility.yul\":21854:21855   */\n      0x00\n        /* \"#utility.yul\":21871:21877   */\n      dup5\n        /* \"#utility.yul\":21868:21952   */\n      iszero\n      tag_581\n      jumpi\n        /* \"#utility.yul\":21927:21936   */\n      dup3\n        /* \"#utility.yul\":21922:21925   */\n      dup8\n        /* \"#utility.yul\":21918:21937   */\n      add\n        /* \"#utility.yul\":21905:21938   */\n      calldataload\n        /* \"#utility.yul\":21896:21938   */\n      swap1\n      pop\n        /* \"#utility.yul\":21868:21952   */\n    tag_581:\n        /* \"#utility.yul\":21978:22045   */\n      tag_582\n        /* \"#utility.yul\":22038:22044   */\n      dup6\n        /* \"#utility.yul\":22031:22036   */\n      dup3\n        /* \"#utility.yul\":21978:22045   */\n      tag_337\n      jump\t// in\n    tag_582:\n        /* \"#utility.yul\":21972:21976   */\n      dup7\n        /* \"#utility.yul\":21965:22046   */\n      sstore\n        /* \"#utility.yul\":21827:22056   */\n      pop\n        /* \"#utility.yul\":21148:22056   */\n      jump(tag_579)\n        /* \"#utility.yul\":21178:21810   */\n    tag_580:\n        /* \"#utility.yul\":21230:21234   */\n      0x1f\n        /* \"#utility.yul\":21226:21235   */\n      not\n        /* \"#utility.yul\":21218:21224   */\n      dup5\n        /* \"#utility.yul\":21214:21236   */\n      and\n        /* \"#utility.yul\":21264:21301   */\n      tag_583\n        /* \"#utility.yul\":21296:21300   */\n      dup7\n        /* \"#utility.yul\":21264:21301   */\n      tag_323\n      jump\t// in\n    tag_583:\n        /* \"#utility.yul\":21323:21324   */\n      0x00\n        /* \"#utility.yul\":21337:21552   */\n    tag_584:\n        /* \"#utility.yul\":21351:21358   */\n      dup3\n        /* \"#utility.yul\":21348:21349   */\n      dup2\n        /* \"#utility.yul\":21345:21359   */\n      lt\n        /* \"#utility.yul\":21337:21552   */\n      iszero\n      tag_586\n      jumpi\n        /* \"#utility.yul\":21437:21446   */\n      dup5\n        /* \"#utility.yul\":21432:21435   */\n      dup10\n        /* \"#utility.yul\":21428:21447   */\n      add\n        /* \"#utility.yul\":21415:21448   */\n      calldataload\n        /* \"#utility.yul\":21407:21413   */\n      dup3\n        /* \"#utility.yul\":21400:21449   */\n      sstore\n        /* \"#utility.yul\":21488:21489   */\n      0x01\n        /* \"#utility.yul\":21480:21486   */\n      dup3\n        /* \"#utility.yul\":21476:21490   */\n      add\n        /* \"#utility.yul\":21466:21490   */\n      swap2\n      pop\n        /* \"#utility.yul\":21535:21537   */\n      0x20\n        /* \"#utility.yul\":21524:21533   */\n      dup6\n        /* \"#utility.yul\":21520:21538   */\n      add\n        /* \"#utility.yul\":21507:21538   */\n      swap5\n      pop\n        /* \"#utility.yul\":21374:21378   */\n      0x20\n        /* \"#utility.yul\":21371:21372   */\n      dup2\n        /* \"#utility.yul\":21367:21379   */\n      add\n        /* \"#utility.yul\":21362:21379   */\n      swap1\n      pop\n        /* \"#utility.yul\":21337:21552   */\n      jump(tag_584)\n    tag_586:\n        /* \"#utility.yul\":21580:21586   */\n      dup7\n        /* \"#utility.yul\":21571:21578   */\n      dup4\n        /* \"#utility.yul\":21568:21587   */\n      lt\n        /* \"#utility.yul\":21565:21751   */\n      iszero\n      tag_587\n      jumpi\n        /* \"#utility.yul\":21645:21654   */\n      dup5\n        /* \"#utility.yul\":21640:21643   */\n      dup10\n        /* \"#utility.yul\":21636:21655   */\n      add\n        /* \"#utility.yul\":21623:21656   */\n      calldataload\n        /* \"#utility.yul\":21688:21736   */\n      tag_588\n        /* \"#utility.yul\":21730:21734   */\n      0x1f\n        /* \"#utility.yul\":21722:21728   */\n      dup10\n        /* \"#utility.yul\":21718:21735   */\n      and\n        /* \"#utility.yul\":21707:21716   */\n      dup3\n        /* \"#utility.yul\":21688:21736   */\n      tag_336\n      jump\t// in\n    tag_588:\n        /* \"#utility.yul\":21680:21686   */\n      dup4\n        /* \"#utility.yul\":21673:21737   */\n      sstore\n        /* \"#utility.yul\":21588:21751   */\n      pop\n        /* \"#utility.yul\":21565:21751   */\n    tag_587:\n        /* \"#utility.yul\":21797:21798   */\n      0x01\n        /* \"#utility.yul\":21793:21794   */\n      0x02\n        /* \"#utility.yul\":21785:21791   */\n      dup9\n        /* \"#utility.yul\":21781:21795   */\n      mul\n        /* \"#utility.yul\":21777:21799   */\n      add\n        /* \"#utility.yul\":21771:21775   */\n      dup9\n        /* \"#utility.yul\":21764:21800   */\n      sstore\n        /* \"#utility.yul\":21185:21810   */\n      pop\n      pop\n      pop\n        /* \"#utility.yul\":21148:22056   */\n    tag_579:\n      pop\n        /* \"#utility.yul\":20758:22062   */\n      pop\n      pop\n      pop\n        /* \"#utility.yul\":20659:22062   */\n      pop\n      pop\n      pop\n      jump\t// out\n        /* \"#utility.yul\":22068:22235   */\n    tag_338:\n        /* \"#utility.yul\":22208:22227   */\n      0x496e76616c696420726563697069656e74000000000000000000000000000000\n        /* \"#utility.yul\":22204:22205   */\n      0x00\n        /* \"#utility.yul\":22196:22202   */\n      dup3\n        /* \"#utility.yul\":22192:22206   */\n      add\n        /* \"#utility.yul\":22185:22228   */\n      mstore\n        /* \"#utility.yul\":22068:22235   */\n      pop\n      jump\t// out\n        /* \"#utility.yul\":22241:22607   */\n    tag_339:\n        /* \"#utility.yul\":22383:22386   */\n      0x00\n        /* \"#utility.yul\":22404:22471   */\n      tag_591\n        /* \"#utility.yul\":22468:22470   */\n      0x11\n        /* \"#utility.yul\":22463:22466   */\n      dup4\n        /* \"#utility.yul\":22404:22471   */\n      tag_304\n      jump\t// in\n    tag_591:\n        /* \"#utility.yul\":22397:22471   */\n      swap2\n      pop\n        /* \"#utility.yul\":22480:22573   */\n      tag_592\n        /* \"#utility.yul\":22569:22572   */\n      dup3\n        /* \"#utility.yul\":22480:22573   */\n      tag_338\n      jump\t// in\n    tag_592:\n        /* \"#utility.yul\":22598:22600   */\n      0x20\n        /* \"#utility.yul\":22593:22596   */\n      dup3\n        /* \"#utility.yul\":22589:22601   */\n      add\n        /* \"#utility.yul\":22582:22601   */\n      swap1\n      pop\n        /* \"#utility.yul\":22241:22607   */\n      swap2\n      swap1\n      pop\n      jump\t// out\n        /* \"#utility.yul\":22613:23032   */\n    tag_128:\n        /* \"#utility.yul\":22779:22783   */\n      0x00\n        /* \"#utility.yul\":22817:22819   */\n      0x20\n        /* \"#utility.yul\":22806:22815   */\n      dup3\n        /* \"#utility.yul\":22802:22820   */\n      add\n        /* \"#utility.yul\":22794:22820   */\n      swap1\n      pop\n        /* \"#utility.yul\":22866:22875   */\n      dup2\n        /* \"#utility.yul\":22860:22864   */\n      dup2\n        /* \"#utility.yul\":22856:22876   */\n      sub\n        /* \"#utility.yul\":22852:22853   */\n      0x00\n        /* \"#utility.yul\":22841:22850   */\n      dup4\n        /* \"#utility.yul\":22837:22854   */\n      add\n        /* \"#utility.yul\":22830:22877   */\n      mstore\n        /* \"#utility.yul\":22894:23025   */\n      tag_594\n        /* \"#utility.yul\":23020:23024   */\n      dup2\n        /* \"#utility.yul\":22894:23025   */\n      tag_339\n      jump\t// in\n    tag_594:\n        /* \"#utility.yul\":22886:23025   */\n      swap1\n      pop\n        /* \"#utility.yul\":22613:23032   */\n      swap2\n      swap1\n      pop\n      jump\t// out\n        /* \"#utility.yul\":23038:23232   */\n    tag_137:\n        /* \"#utility.yul\":23078:23082   */\n      0x00\n        /* \"#utility.yul\":23098:23118   */\n      tag_596\n        /* \"#utility.yul\":23116:23117   */\n      dup3\n        /* \"#utility.yul\":23098:23118   */\n      tag_287\n      jump\t// in\n    tag_596:\n        /* \"#utility.yul\":23093:23118   */\n      swap2\n      pop\n        /* \"#utility.yul\":23132:23152   */\n      tag_597\n        /* \"#utility.yul\":23150:23151   */\n      dup4\n        /* \"#utility.yul\":23132:23152   */\n      tag_287\n      jump\t// in\n    tag_597:\n        /* \"#utility.yul\":23127:23152   */\n      swap3\n      pop\n        /* \"#utility.yul\":23176:23177   */\n      dup3\n        /* \"#utility.yul\":23173:23174   */\n      dup3\n        /* \"#utility.yul\":23169:23178   */\n      sub\n        /* \"#utility.yul\":23161:23178   */\n      swap1\n      pop\n        /* \"#utility.yul\":23200:23201   */\n      dup2\n        /* \"#utility.yul\":23194:23198   */\n      dup2\n        /* \"#utility.yul\":23191:23202   */\n      gt\n        /* \"#utility.yul\":23188:23225   */\n      iszero\n      tag_598\n      jumpi\n        /* \"#utility.yul\":23205:23223   */\n      tag_599\n      tag_313\n      jump\t// in\n    tag_599:\n        /* \"#utility.yul\":23188:23225   */\n    tag_598:\n        /* \"#utility.yul\":23038:23232   */\n      swap3\n      swap2\n      pop\n      pop\n      jump\t// out\n        /* \"#utility.yul\":23238:23429   */\n    tag_139:\n        /* \"#utility.yul\":23278:23281   */\n      0x00\n        /* \"#utility.yul\":23297:23317   */\n      tag_601\n        /* \"#utility.yul\":23315:23316   */\n      dup3\n        /* \"#utility.yul\":23297:23317   */\n      tag_287\n      jump\t// in\n    tag_601:\n        /* \"#utility.yul\":23292:23317   */\n      swap2\n      pop\n        /* \"#utility.yul\":23331:23351   */\n      tag_602\n        /* \"#utility.yul\":23349:23350   */\n      dup4\n        /* \"#utility.yul\":23331:23351   */\n      tag_287\n      jump\t// in\n    tag_602:\n        /* \"#utility.yul\":23326:23351   */\n      swap3\n      pop\n        /* \"#utility.yul\":23374:23375   */\n      dup3\n        /* \"#utility.yul\":23371:23372   */\n      dup3\n        /* \"#utility.yul\":23367:23376   */\n      add\n        /* \"#utility.yul\":23360:23376   */\n      swap1\n      pop\n        /* \"#utility.yul\":23395:23398   */\n      dup1\n        /* \"#utility.yul\":23392:23393   */\n      dup3\n        /* \"#utility.yul\":23389:23399   */\n      gt\n        /* \"#utility.yul\":23386:23422   */\n      iszero\n      tag_603\n      jumpi\n        /* \"#utility.yul\":23402:23420   */\n      tag_604\n      tag_313\n      jump\t// in\n    tag_604:\n        /* \"#utility.yul\":23386:23422   */\n    tag_603:\n        /* \"#utility.yul\":23238:23429   */\n      swap3\n      swap2\n      pop\n      pop\n      jump\t// out\n        /* \"#utility.yul\":23435:23603   */\n    tag_340:\n        /* \"#utility.yul\":23518:23529   */\n      0x00\n        /* \"#utility.yul\":23552:23558   */\n      dup3\n        /* \"#utility.yul\":23547:23550   */\n      dup3\n        /* \"#utility.yul\":23540:23559   */\n      mstore\n        /* \"#utility.yul\":23592:23596   */\n      0x20\n        /* \"#utility.yul\":23587:23590   */\n      dup3\n        /* \"#utility.yul\":23583:23597   */\n      add\n        /* \"#utility.yul\":23568:23597   */\n      swap1\n      pop\n        /* \"#utility.yul\":23435:23603   */\n      swap3\n      swap2\n      pop\n      pop\n      jump\t// out\n        /* \"#utility.yul\":23609:23723   */\n    tag_341:\n      pop\n      jump\t// out\n        /* \"#utility.yul\":23729:24091   */\n    tag_342:\n        /* \"#utility.yul\":23870:23873   */\n      0x00\n        /* \"#utility.yul\":23891:23956   */\n      tag_608\n        /* \"#utility.yul\":23954:23955   */\n      0x00\n        /* \"#utility.yul\":23949:23952   */\n      dup4\n        /* \"#utility.yul\":23891:23956   */\n      tag_340\n      jump\t// in\n    tag_608:\n        /* \"#utility.yul\":23884:23956   */\n      swap2\n      pop\n        /* \"#utility.yul\":23965:24058   */\n      tag_609\n        /* \"#utility.yul\":24054:24057   */\n      dup3\n        /* \"#utility.yul\":23965:24058   */\n      tag_341\n      jump\t// in\n    tag_609:\n        /* \"#utility.yul\":24083:24084   */\n      0x00\n        /* \"#utility.yul\":24078:24081   */\n      dup3\n        /* \"#utility.yul\":24074:24085   */\n      add\n        /* \"#utility.yul\":24067:24085   */\n      swap1\n      pop\n        /* \"#utility.yul\":23729:24091   */\n      swap2\n      swap1\n      pop\n      jump\t// out\n        /* \"#utility.yul\":24097:24845   */\n    tag_152:\n        /* \"#utility.yul\":24346:24350   */\n      0x00\n        /* \"#utility.yul\":24384:24387   */\n      0x80\n        /* \"#utility.yul\":24373:24382   */\n      dup3\n        /* \"#utility.yul\":24369:24388   */\n      add\n        /* \"#utility.yul\":24361:24388   */\n      swap1\n      pop\n        /* \"#utility.yul\":24398:24469   */\n      tag_611\n        /* \"#utility.yul\":24466:24467   */\n      0x00\n        /* \"#utility.yul\":24455:24464   */\n      dup4\n        /* \"#utility.yul\":24451:24468   */\n      add\n        /* \"#utility.yul\":24442:24448   */\n      dup7\n        /* \"#utility.yul\":24398:24469   */\n      tag_292\n      jump\t// in\n    tag_611:\n        /* \"#utility.yul\":24479:24551   */\n      tag_612\n        /* \"#utility.yul\":24547:24549   */\n      0x20\n        /* \"#utility.yul\":24536:24545   */\n      dup4\n        /* \"#utility.yul\":24532:24550   */\n      add\n        /* \"#utility.yul\":24523:24529   */\n      dup6\n        /* \"#utility.yul\":24479:24551   */\n      tag_292\n      jump\t// in\n    tag_612:\n        /* \"#utility.yul\":24561:24633   */\n      tag_613\n        /* \"#utility.yul\":24629:24631   */\n      0x40\n        /* \"#utility.yul\":24618:24627   */\n      dup4\n        /* \"#utility.yul\":24614:24632   */\n      add\n        /* \"#utility.yul\":24605:24611   */\n      dup5\n        /* \"#utility.yul\":24561:24633   */\n      tag_299\n      jump\t// in\n    tag_613:\n        /* \"#utility.yul\":24680:24689   */\n      dup2\n        /* \"#utility.yul\":24674:24678   */\n      dup2\n        /* \"#utility.yul\":24670:24690   */\n      sub\n        /* \"#utility.yul\":24665:24667   */\n      0x60\n        /* \"#utility.yul\":24654:24663   */\n      dup4\n        /* \"#utility.yul\":24650:24668   */\n      add\n        /* \"#utility.yul\":24643:24691   */\n      mstore\n        /* \"#utility.yul\":24708:24838   */\n      tag_614\n        /* \"#utility.yul\":24833:24837   */\n      dup2\n        /* \"#utility.yul\":24708:24838   */\n      tag_342\n      jump\t// in\n    tag_614:\n        /* \"#utility.yul\":24700:24838   */\n      swap1\n      pop\n        /* \"#utility.yul\":24097:24845   */\n      swap5\n      swap4\n      pop\n      pop\n      pop\n      pop\n      jump\t// out\n        /* \"#utility.yul\":24851:24992   */\n    tag_343:\n        /* \"#utility.yul\":24907:24912   */\n      0x00\n        /* \"#utility.yul\":24938:24944   */\n      dup2\n        /* \"#utility.yul\":24932:24945   */\n      mload\n        /* \"#utility.yul\":24923:24945   */\n      swap1\n      pop\n        /* \"#utility.yul\":24954:24986   */\n      tag_616\n        /* \"#utility.yul\":24980:24985   */\n      dup2\n        /* \"#utility.yul\":24954:24986   */\n      tag_283\n      jump\t// in\n    tag_616:\n        /* \"#utility.yul\":24851:24992   */\n      swap3\n      swap2\n      pop\n      pop\n      jump\t// out\n        /* \"#utility.yul\":24998:25347   */\n    tag_155:\n        /* \"#utility.yul\":25067:25073   */\n      0x00\n        /* \"#utility.yul\":25116:25118   */\n      0x20\n        /* \"#utility.yul\":25104:25113   */\n      dup3\n        /* \"#utility.yul\":25095:25102   */\n      dup5\n        /* \"#utility.yul\":25091:25114   */\n      sub\n        /* \"#utility.yul\":25087:25119   */\n      slt\n        /* \"#utility.yul\":25084:25203   */\n      iszero\n      tag_618\n      jumpi\n        /* \"#utility.yul\":25122:25201   */\n      tag_619\n      tag_280\n      jump\t// in\n    tag_619:\n        /* \"#utility.yul\":25084:25203   */\n    tag_618:\n        /* \"#utility.yul\":25242:25243   */\n      0x00\n        /* \"#utility.yul\":25267:25330   */\n      tag_620\n        /* \"#utility.yul\":25322:25329   */\n      dup5\n        /* \"#utility.yul\":25313:25319   */\n      dup3\n        /* \"#utility.yul\":25302:25311   */\n      dup6\n        /* \"#utility.yul\":25298:25320   */\n      add\n        /* \"#utility.yul\":25267:25330   */\n      tag_343\n      jump\t// in\n    tag_620:\n        /* \"#utility.yul\":25257:25330   */\n      swap2\n      pop\n        /* \"#utility.yul\":25213:25340   */\n      pop\n        /* \"#utility.yul\":24998:25347   */\n      swap3\n      swap2\n      pop\n      pop\n      jump\t// out\n        /* \"#utility.yul\":25353:25519   */\n    tag_344:\n        /* \"#utility.yul\":25493:25511   */\n      0x496e76616c696420726563696576657200000000000000000000000000000000\n        /* \"#utility.yul\":25489:25490   */\n      0x00\n        /* \"#utility.yul\":25481:25487   */\n      dup3\n        /* \"#utility.yul\":25477:25491   */\n      add\n        /* \"#utility.yul\":25470:25512   */\n      mstore\n        /* \"#utility.yul\":25353:25519   */\n      pop\n      jump\t// out\n        /* \"#utility.yul\":25525:25891   */\n    tag_345:\n        /* \"#utility.yul\":25667:25670   */\n      0x00\n        /* \"#utility.yul\":25688:25755   */\n      tag_623\n        /* \"#utility.yul\":25752:25754   */\n      0x10\n        /* \"#utility.yul\":25747:25750   */\n      dup4\n        /* \"#utility.yul\":25688:25755   */\n      tag_304\n      jump\t// in\n    tag_623:\n        /* \"#utility.yul\":25681:25755   */\n      swap2\n      pop\n        /* \"#utility.yul\":25764:25857   */\n      tag_624\n        /* \"#utility.yul\":25853:25856   */\n      dup3\n        /* \"#utility.yul\":25764:25857   */\n      tag_344\n      jump\t// in\n    tag_624:\n        /* \"#utility.yul\":25882:25884   */\n      0x20\n        /* \"#utility.yul\":25877:25880   */\n      dup3\n        /* \"#utility.yul\":25873:25885   */\n      add\n        /* \"#utility.yul\":25866:25885   */\n      swap1\n      pop\n        /* \"#utility.yul\":25525:25891   */\n      swap2\n      swap1\n      pop\n      jump\t// out\n        /* \"#utility.yul\":25897:26316   */\n    tag_164:\n        /* \"#utility.yul\":26063:26067   */\n      0x00\n        /* \"#utility.yul\":26101:26103   */\n      0x20\n        /* \"#utility.yul\":26090:26099   */\n      dup3\n        /* \"#utility.yul\":26086:26104   */\n      add\n        /* \"#utility.yul\":26078:26104   */\n      swap1\n      pop\n        /* \"#utility.yul\":26150:26159   */\n      dup2\n        /* \"#utility.yul\":26144:26148   */\n      dup2\n        /* \"#utility.yul\":26140:26160   */\n      sub\n        /* \"#utility.yul\":26136:26137   */\n      0x00\n        /* \"#utility.yul\":26125:26134   */\n      dup4\n        /* \"#utility.yul\":26121:26138   */\n      add\n        /* \"#utility.yul\":26114:26161   */\n      mstore\n        /* \"#utility.yul\":26178:26309   */\n      tag_626\n        /* \"#utility.yul\":26304:26308   */\n      dup2\n        /* \"#utility.yul\":26178:26309   */\n      tag_345\n      jump\t// in\n    tag_626:\n        /* \"#utility.yul\":26170:26309   */\n      swap1\n      pop\n        /* \"#utility.yul\":25897:26316   */\n      swap2\n      swap1\n      pop\n      jump\t// out\n        /* \"#utility.yul\":26322:26486   */\n    tag_346:\n        /* \"#utility.yul\":26462:26478   */\n      0x546f6b656e2072656a6563746564000000000000000000000000000000000000\n        /* \"#utility.yul\":26458:26459   */\n      0x00\n        /* \"#utility.yul\":26450:26456   */\n      dup3\n        /* \"#utility.yul\":26446:26460   */\n      add\n        /* \"#utility.yul\":26439:26479   */\n      mstore\n        /* \"#utility.yul\":26322:26486   */\n      pop\n      jump\t// out\n        /* \"#utility.yul\":26492:26858   */\n    tag_347:\n        /* \"#utility.yul\":26634:26637   */\n      0x00\n        /* \"#utility.yul\":26655:26722   */\n      tag_629\n        /* \"#utility.yul\":26719:26721   */\n      0x0e\n        /* \"#utility.yul\":26714:26717   */\n      dup4\n        /* \"#utility.yul\":26655:26722   */\n      tag_304\n      jump\t// in\n    tag_629:\n        /* \"#utility.yul\":26648:26722   */\n      swap2\n      pop\n        /* \"#utility.yul\":26731:26824   */\n      tag_630\n        /* \"#utility.yul\":26820:26823   */\n      dup3\n        /* \"#utility.yul\":26731:26824   */\n      tag_346\n      jump\t// in\n    tag_630:\n        /* \"#utility.yul\":26849:26851   */\n      0x20\n        /* \"#utility.yul\":26844:26847   */\n      dup3\n        /* \"#utility.yul\":26840:26852   */\n      add\n        /* \"#utility.yul\":26833:26852   */\n      swap1\n      pop\n        /* \"#utility.yul\":26492:26858   */\n      swap2\n      swap1\n      pop\n      jump\t// out\n        /* \"#utility.yul\":26864:27283   */\n    tag_169:\n        /* \"#utility.yul\":27030:27034   */\n      0x00\n        /* \"#utility.yul\":27068:27070   */\n      0x20\n        /* \"#utility.yul\":27057:27066   */\n      dup3\n        /* \"#utility.yul\":27053:27071   */\n      add\n        /* \"#utility.yul\":27045:27071   */\n      swap1\n      pop\n        /* \"#utility.yul\":27117:27126   */\n      dup2\n        /* \"#utility.yul\":27111:27115   */\n      dup2\n        /* \"#utility.yul\":27107:27127   */\n      sub\n        /* \"#utility.yul\":27103:27104   */\n      0x00\n        /* \"#utility.yul\":27092:27101   */\n      dup4\n        /* \"#utility.yul\":27088:27105   */\n      add\n        /* \"#utility.yul\":27081:27128   */\n      mstore\n        /* \"#utility.yul\":27145:27276   */\n      tag_632\n        /* \"#utility.yul\":27271:27275   */\n      dup2\n        /* \"#utility.yul\":27145:27276   */\n      tag_347\n      jump\t// in\n    tag_632:\n        /* \"#utility.yul\":27137:27276   */\n      swap1\n      pop\n        /* \"#utility.yul\":26864:27283   */\n      swap2\n      swap1\n      pop\n      jump\t// out\n        /* \"#utility.yul\":27289:27436   */\n    tag_348:\n        /* \"#utility.yul\":27390:27401   */\n      0x00\n        /* \"#utility.yul\":27427:27430   */\n      dup2\n        /* \"#utility.yul\":27412:27430   */\n      swap1\n      pop\n        /* \"#utility.yul\":27289:27436   */\n      swap3\n      swap2\n      pop\n      pop\n      jump\t// out\n        /* \"#utility.yul\":27442:27840   */\n    tag_349:\n        /* \"#utility.yul\":27601:27604   */\n      0x00\n        /* \"#utility.yul\":27622:27705   */\n      tag_635\n        /* \"#utility.yul\":27703:27704   */\n      0x00\n        /* \"#utility.yul\":27698:27701   */\n      dup4\n        /* \"#utility.yul\":27622:27705   */\n      tag_348\n      jump\t// in\n    tag_635:\n        /* \"#utility.yul\":27615:27705   */\n      swap2\n      pop\n        /* \"#utility.yul\":27714:27807   */\n      tag_636\n        /* \"#utility.yul\":27803:27806   */\n      dup3\n        /* \"#utility.yul\":27714:27807   */\n      tag_341\n      jump\t// in\n    tag_636:\n        /* \"#utility.yul\":27832:27833   */\n      0x00\n        /* \"#utility.yul\":27827:27830   */\n      dup3\n        /* \"#utility.yul\":27823:27834   */\n      add\n        /* \"#utility.yul\":27816:27834   */\n      swap1\n      pop\n        /* \"#utility.yul\":27442:27840   */\n      swap2\n      swap1\n      pop\n      jump\t// out\n        /* \"#utility.yul\":27846:28225   */\n    tag_185:\n        /* \"#utility.yul\":28030:28033   */\n      0x00\n        /* \"#utility.yul\":28052:28199   */\n      tag_638\n        /* \"#utility.yul\":28195:28198   */\n      dup3\n        /* \"#utility.yul\":28052:28199   */\n      tag_349\n      jump\t// in\n    tag_638:\n        /* \"#utility.yul\":28045:28199   */\n      swap2\n      pop\n        /* \"#utility.yul\":28216:28219   */\n      dup2\n        /* \"#utility.yul\":28209:28219   */\n      swap1\n      pop\n        /* \"#utility.yul\":27846:28225   */\n      swap2\n      swap1\n      pop\n      jump\t// out\n        /* \"#utility.yul\":28231:28395   */\n    tag_350:\n        /* \"#utility.yul\":28371:28387   */\n      0x5061796d656e74206661696c6564000000000000000000000000000000000000\n        /* \"#utility.yul\":28367:28368   */\n      0x00\n        /* \"#utility.yul\":28359:28365   */\n      dup3\n        /* \"#utility.yul\":28355:28369   */\n      add\n        /* \"#utility.yul\":28348:28388   */\n      mstore\n        /* \"#utility.yul\":28231:28395   */\n      pop\n      jump\t// out\n        /* \"#utility.yul\":28401:28767   */\n    tag_351:\n        /* \"#utility.yul\":28543:28546   */\n      0x00\n        /* \"#utility.yul\":28564:28631   */\n      tag_641\n        /* \"#utility.yul\":28628:28630   */\n      0x0e\n        /* \"#utility.yul\":28623:28626   */\n      dup4\n        /* \"#utility.yul\":28564:28631   */\n      tag_304\n      jump\t// in\n    tag_641:\n        /* \"#utility.yul\":28557:28631   */\n      swap2\n      pop\n        /* \"#utility.yul\":28640:28733   */\n      tag_642\n        /* \"#utility.yul\":28729:28732   */\n      dup3\n        /* \"#utility.yul\":28640:28733   */\n      tag_350\n      jump\t// in\n    tag_642:\n        /* \"#utility.yul\":28758:28760   */\n      0x20\n        /* \"#utility.yul\":28753:28756   */\n      dup3\n        /* \"#utility.yul\":28749:28761   */\n      add\n        /* \"#utility.yul\":28742:28761   */\n      swap1\n      pop\n        /* \"#utility.yul\":28401:28767   */\n      swap2\n      swap1\n      pop\n      jump\t// out\n        /* \"#utility.yul\":28773:29192   */\n    tag_191:\n        /* \"#utility.yul\":28939:28943   */\n      0x00\n        /* \"#utility.yul\":28977:28979   */\n      0x20\n        /* \"#utility.yul\":28966:28975   */\n      dup3\n        /* \"#utility.yul\":28962:28980   */\n      add\n        /* \"#utility.yul\":28954:28980   */\n      swap1\n      pop\n        /* \"#utility.yul\":29026:29035   */\n      dup2\n        /* \"#utility.yul\":29020:29024   */\n      dup2\n        /* \"#utility.yul\":29016:29036   */\n      sub\n        /* \"#utility.yul\":29012:29013   */\n      0x00\n        /* \"#utility.yul\":29001:29010   */\n      dup4\n        /* \"#utility.yul\":28997:29014   */\n      add\n        /* \"#utility.yul\":28990:29037   */\n      mstore\n        /* \"#utility.yul\":29054:29185   */\n      tag_644\n        /* \"#utility.yul\":29180:29184   */\n      dup2\n        /* \"#utility.yul\":29054:29185   */\n      tag_351\n      jump\t// in\n    tag_644:\n        /* \"#utility.yul\":29046:29185   */\n      swap1\n      pop\n        /* \"#utility.yul\":28773:29192   */\n      swap2\n      swap1\n      pop\n      jump\t// out\n        /* \"#utility.yul\":29198:29363   */\n    tag_352:\n        /* \"#utility.yul\":29338:29355   */\n      0x496e76616c696420616464726573730000000000000000000000000000000000\n        /* \"#utility.yul\":29334:29335   */\n      0x00\n        /* \"#utility.yul\":29326:29332   */\n      dup3\n        /* \"#utility.yul\":29322:29336   */\n      add\n        /* \"#utility.yul\":29315:29356   */\n      mstore\n        /* \"#utility.yul\":29198:29363   */\n      pop\n      jump\t// out\n        /* \"#utility.yul\":29369:29735   */\n    tag_353:\n        /* \"#utility.yul\":29511:29514   */\n      0x00\n        /* \"#utility.yul\":29532:29599   */\n      tag_647\n        /* \"#utility.yul\":29596:29598   */\n      0x0f\n        /* \"#utility.yul\":29591:29594   */\n      dup4\n        /* \"#utility.yul\":29532:29599   */\n      tag_304\n      jump\t// in\n    tag_647:\n        /* \"#utility.yul\":29525:29599   */\n      swap2\n      pop\n        /* \"#utility.yul\":29608:29701   */\n      tag_648\n        /* \"#utility.yul\":29697:29700   */\n      dup3\n        /* \"#utility.yul\":29608:29701   */\n      tag_352\n      jump\t// in\n    tag_648:\n        /* \"#utility.yul\":29726:29728   */\n      0x20\n        /* \"#utility.yul\":29721:29724   */\n      dup3\n        /* \"#utility.yul\":29717:29729   */\n      add\n        /* \"#utility.yul\":29710:29729   */\n      swap1\n      pop\n        /* \"#utility.yul\":29369:29735   */\n      swap2\n      swap1\n      pop\n      jump\t// out\n        /* \"#utility.yul\":29741:30160   */\n    tag_198:\n        /* \"#utility.yul\":29907:29911   */\n      0x00\n        /* \"#utility.yul\":29945:29947   */\n      0x20\n        /* \"#utility.yul\":29934:29943   */\n      dup3\n        /* \"#utility.yul\":29930:29948   */\n      add\n        /* \"#utility.yul\":29922:29948   */\n      swap1\n      pop\n        /* \"#utility.yul\":29994:30003   */\n      dup2\n        /* \"#utility.yul\":29988:29992   */\n      dup2\n        /* \"#utility.yul\":29984:30004   */\n      sub\n        /* \"#utility.yul\":29980:29981   */\n      0x00\n        /* \"#utility.yul\":29969:29978   */\n      dup4\n        /* \"#utility.yul\":29965:29982   */\n      add\n        /* \"#utility.yul\":29958:30005   */\n      mstore\n        /* \"#utility.yul\":30022:30153   */\n      tag_650\n        /* \"#utility.yul\":30148:30152   */\n      dup2\n        /* \"#utility.yul\":30022:30153   */\n      tag_353\n      jump\t// in\n    tag_650:\n        /* \"#utility.yul\":30014:30153   */\n      swap1\n      pop\n        /* \"#utility.yul\":29741:30160   */\n      swap2\n      swap1\n      pop\n      jump\t// out\n        /* \"#utility.yul\":30166:30334   */\n    tag_354:\n        /* \"#utility.yul\":30306:30326   */\n      0x496e73756666696369656e742066756e64730000000000000000000000000000\n        /* \"#utility.yul\":30302:30303   */\n      0x00\n        /* \"#utility.yul\":30294:30300   */\n      dup3\n        /* \"#utility.yul\":30290:30304   */\n      add\n        /* \"#utility.yul\":30283:30327   */\n      mstore\n        /* \"#utility.yul\":30166:30334   */\n      pop\n      jump\t// out\n        /* \"#utility.yul\":30340:30706   */\n    tag_355:\n        /* \"#utility.yul\":30482:30485   */\n      0x00\n        /* \"#utility.yul\":30503:30570   */\n      tag_653\n        /* \"#utility.yul\":30567:30569   */\n      0x12\n        /* \"#utility.yul\":30562:30565   */\n      dup4\n        /* \"#utility.yul\":30503:30570   */\n      tag_304\n      jump\t// in\n    tag_653:\n        /* \"#utility.yul\":30496:30570   */\n      swap2\n      pop\n        /* \"#utility.yul\":30579:30672   */\n      tag_654\n        /* \"#utility.yul\":30668:30671   */\n      dup3\n        /* \"#utility.yul\":30579:30672   */\n      tag_354\n      jump\t// in\n    tag_654:\n        /* \"#utility.yul\":30697:30699   */\n      0x20\n        /* \"#utility.yul\":30692:30695   */\n      dup3\n        /* \"#utility.yul\":30688:30700   */\n      add\n        /* \"#utility.yul\":30681:30700   */\n      swap1\n      pop\n        /* \"#utility.yul\":30340:30706   */\n      swap2\n      swap1\n      pop\n      jump\t// out\n        /* \"#utility.yul\":30712:31131   */\n    tag_202:\n        /* \"#utility.yul\":30878:30882   */\n      0x00\n        /* \"#utility.yul\":30916:30918   */\n      0x20\n        /* \"#utility.yul\":30905:30914   */\n      dup3\n        /* \"#utility.yul\":30901:30919   */\n      add\n        /* \"#utility.yul\":30893:30919   */\n      swap1\n      pop\n        /* \"#utility.yul\":30965:30974   */\n      dup2\n        /* \"#utility.yul\":30959:30963   */\n      dup2\n        /* \"#utility.yul\":30955:30975   */\n      sub\n        /* \"#utility.yul\":30951:30952   */\n      0x00\n        /* \"#utility.yul\":30940:30949   */\n      dup4\n        /* \"#utility.yul\":30936:30953   */\n      add\n        /* \"#utility.yul\":30929:30976   */\n      mstore\n        /* \"#utility.yul\":30993:31124   */\n      tag_656\n        /* \"#utility.yul\":31119:31123   */\n      dup2\n        /* \"#utility.yul\":30993:31124   */\n      tag_355\n      jump\t// in\n    tag_656:\n        /* \"#utility.yul\":30985:31124   */\n      swap1\n      pop\n        /* \"#utility.yul\":30712:31131   */\n      swap2\n      swap1\n      pop\n      jump\t// out\n        /* \"#utility.yul\":31137:31302   */\n    tag_356:\n        /* \"#utility.yul\":31277:31294   */\n      0x5472616e73666572206661696c65640000000000000000000000000000000000\n        /* \"#utility.yul\":31273:31274   */\n      0x00\n        /* \"#utility.yul\":31265:31271   */\n      dup3\n        /* \"#utility.yul\":31261:31275   */\n      add\n        /* \"#utility.yul\":31254:31295   */\n      mstore\n        /* \"#utility.yul\":31137:31302   */\n      pop\n      jump\t// out\n        /* \"#utility.yul\":31308:31674   */\n    tag_357:\n        /* \"#utility.yul\":31450:31453   */\n      0x00\n        /* \"#utility.yul\":31471:31538   */\n      tag_659\n        /* \"#utility.yul\":31535:31537   */\n      0x0f\n        /* \"#utility.yul\":31530:31533   */\n      dup4\n        /* \"#utility.yul\":31471:31538   */\n      tag_304\n      jump\t// in\n    tag_659:\n        /* \"#utility.yul\":31464:31538   */\n      swap2\n      pop\n        /* \"#utility.yul\":31547:31640   */\n      tag_660\n        /* \"#utility.yul\":31636:31639   */\n      dup3\n        /* \"#utility.yul\":31547:31640   */\n      tag_356\n      jump\t// in\n    tag_660:\n        /* \"#utility.yul\":31665:31667   */\n      0x20\n        /* \"#utility.yul\":31660:31663   */\n      dup3\n        /* \"#utility.yul\":31656:31668   */\n      add\n        /* \"#utility.yul\":31649:31668   */\n      swap1\n      pop\n        /* \"#utility.yul\":31308:31674   */\n      swap2\n      swap1\n      pop\n      jump\t// out\n        /* \"#utility.yul\":31680:32099   */\n    tag_219:\n        /* \"#utility.yul\":31846:31850   */\n      0x00\n        /* \"#utility.yul\":31884:31886   */\n      0x20\n        /* \"#utility.yul\":31873:31882   */\n      dup3\n        /* \"#utility.yul\":31869:31887   */\n      add\n        /* \"#utility.yul\":31861:31887   */\n      swap1\n      pop\n        /* \"#utility.yul\":31933:31942   */\n      dup2\n        /* \"#utility.yul\":31927:31931   */\n      dup2\n        /* \"#utility.yul\":31923:31943   */\n      sub\n        /* \"#utility.yul\":31919:31920   */\n      0x00\n        /* \"#utility.yul\":31908:31917   */\n      dup4\n        /* \"#utility.yul\":31904:31921   */\n      add\n        /* \"#utility.yul\":31897:31944   */\n      mstore\n        /* \"#utility.yul\":31961:32092   */\n      tag_662\n        /* \"#utility.yul\":32087:32091   */\n      dup2\n        /* \"#utility.yul\":31961:32092   */\n      tag_357\n      jump\t// in\n    tag_662:\n        /* \"#utility.yul\":31953:32092   */\n      swap1\n      pop\n        /* \"#utility.yul\":31680:32099   */\n      swap2\n      swap1\n      pop\n      jump\t// out\n        /* \"#utility.yul\":32105:32386   */\n    tag_225:\n        /* \"#utility.yul\":32163:32168   */\n      0x00\n        /* \"#utility.yul\":32187:32210   */\n      tag_664\n        /* \"#utility.yul\":32205:32209   */\n      dup3\n        /* \"#utility.yul\":32187:32210   */\n      tag_287\n      jump\t// in\n    tag_664:\n        /* \"#utility.yul\":32179:32210   */\n      swap2\n      pop\n        /* \"#utility.yul\":32231:32256   */\n      tag_665\n        /* \"#utility.yul\":32247:32255   */\n      dup4\n        /* \"#utility.yul\":32231:32256   */\n      tag_300\n      jump\t// in\n    tag_665:\n        /* \"#utility.yul\":32219:32256   */\n      swap3\n      pop\n        /* \"#utility.yul\":32275:32379   */\n      tag_666\n        /* \"#utility.yul\":32312:32378   */\n      0xffffffffffffffffffffffffffffffffffffffffffffffffffffffffffffffff\n        /* \"#utility.yul\":32302:32310   */\n      dup5\n        /* \"#utility.yul\":32296:32300   */\n      dup5\n        /* \"#utility.yul\":32275:32379   */\n      tag_316\n      jump\t// in\n    tag_666:\n        /* \"#utility.yul\":32266:32379   */\n      swap1\n      pop\n        /* \"#utility.yul\":32105:32386   */\n      swap3\n      swap2\n      pop\n      pop\n      jump\t// out\n        /* \"#utility.yul\":32392:32572   */\n    tag_236:\n        /* \"#utility.yul\":32440:32517   */\n      0x4e487b7100000000000000000000000000000000000000000000000000000000\n        /* \"#utility.yul\":32437:32438   */\n      0x00\n        /* \"#utility.yul\":32430:32518   */\n      mstore\n        /* \"#utility.yul\":32537:32541   */\n      0x32\n        /* \"#utility.yul\":32534:32535   */\n      0x04\n        /* \"#utility.yul\":32527:32542   */\n      mstore\n        /* \"#utility.yul\":32561:32565   */\n      0x24\n        /* \"#utility.yul\":32558:32559   */\n      0x00\n        /* \"#utility.yul\":32551:32566   */\n      revert\n        /* \"#utility.yul\":32578:32722   */\n    tag_358:\n        /* \"#utility.yul\":32630:32634   */\n      0x00\n        /* \"#utility.yul\":32653:32656   */\n      dup2\n        /* \"#utility.yul\":32645:32656   */\n      swap1\n      pop\n        /* \"#utility.yul\":32676:32679   */\n      dup2\n        /* \"#utility.yul\":32673:32674   */\n      0x00\n        /* \"#utility.yul\":32666:32680   */\n      mstore\n        /* \"#utility.yul\":32710:32714   */\n      0x20\n        /* \"#utility.yul\":32707:32708   */\n      0x00\n        /* \"#utility.yul\":32697:32715   */\n      keccak256\n        /* \"#utility.yul\":32689:32715   */\n      swap1\n      pop\n        /* \"#utility.yul\":32578:32722   */\n      swap2\n      swap1\n      pop\n      jump\t// out\n        /* \"#utility.yul\":32750:33628   */\n    tag_359:\n        /* \"#utility.yul\":32855:32858   */\n      0x00\n        /* \"#utility.yul\":32892:32897   */\n      dup2\n        /* \"#utility.yul\":32886:32898   */\n      sload\n        /* \"#utility.yul\":32921:32957   */\n      tag_670\n        /* \"#utility.yul\":32947:32956   */\n      dup2\n        /* \"#utility.yul\":32921:32957   */\n      tag_85\n      jump\t// in\n    tag_670:\n        /* \"#utility.yul\":32973:33061   */\n      tag_671\n        /* \"#utility.yul\":33054:33060   */\n      dup2\n        /* \"#utility.yul\":33049:33052   */\n      dup7\n        /* \"#utility.yul\":32973:33061   */\n      tag_348\n      jump\t// in\n    tag_671:\n        /* \"#utility.yul\":32966:33061   */\n      swap5\n      pop\n        /* \"#utility.yul\":33092:33093   */\n      0x01\n        /* \"#utility.yul\":33081:33090   */\n      dup3\n        /* \"#utility.yul\":33077:33094   */\n      and\n        /* \"#utility.yul\":33108:33109   */\n      0x00\n        /* \"#utility.yul\":33103:33269   */\n      dup2\n      eq\n      tag_673\n      jumpi\n        /* \"#utility.yul\":33283:33284   */\n      0x01\n        /* \"#utility.yul\":33278:33622   */\n      dup2\n      eq\n      tag_674\n      jumpi\n        /* \"#utility.yul\":33070:33622   */\n      jump(tag_672)\n        /* \"#utility.yul\":33103:33269   */\n    tag_673:\n        /* \"#utility.yul\":33187:33191   */\n      0xff\n        /* \"#utility.yul\":33183:33192   */\n      not\n        /* \"#utility.yul\":33172:33181   */\n      dup4\n        /* \"#utility.yul\":33168:33193   */\n      and\n        /* \"#utility.yul\":33163:33166   */\n      dup7\n        /* \"#utility.yul\":33156:33194   */\n      mstore\n        /* \"#utility.yul\":33249:33255   */\n      dup2\n        /* \"#utility.yul\":33242:33256   */\n      iszero\n        /* \"#utility.yul\":33235:33257   */\n      iszero\n        /* \"#utility.yul\":33227:33233   */\n      dup3\n        /* \"#utility.yul\":33223:33258   */\n      mul\n        /* \"#utility.yul\":33218:33221   */\n      dup7\n        /* \"#utility.yul\":33214:33259   */\n      add\n        /* \"#utility.yul\":33207:33259   */\n      swap4\n      pop\n        /* \"#utility.yul\":33103:33269   */\n      jump(tag_672)\n        /* \"#utility.yul\":33278:33622   */\n    tag_674:\n        /* \"#utility.yul\":33345:33386   */\n      tag_675\n        /* \"#utility.yul\":33380:33385   */\n      dup6\n        /* \"#utility.yul\":33345:33386   */\n      tag_358\n      jump\t// in\n    tag_675:\n        /* \"#utility.yul\":33408:33409   */\n      0x00\n        /* \"#utility.yul\":33422:33576   */\n    tag_676:\n        /* \"#utility.yul\":33436:33442   */\n      dup4\n        /* \"#utility.yul\":33433:33434   */\n      dup2\n        /* \"#utility.yul\":33430:33443   */\n      lt\n        /* \"#utility.yul\":33422:33576   */\n      iszero\n      tag_678\n      jumpi\n        /* \"#utility.yul\":33510:33517   */\n      dup2\n        /* \"#utility.yul\":33504:33518   */\n      sload\n        /* \"#utility.yul\":33500:33501   */\n      dup2\n        /* \"#utility.yul\":33495:33498   */\n      dup10\n        /* \"#utility.yul\":33491:33502   */\n      add\n        /* \"#utility.yul\":33484:33519   */\n      mstore\n        /* \"#utility.yul\":33560:33561   */\n      0x01\n        /* \"#utility.yul\":33551:33558   */\n      dup3\n        /* \"#utility.yul\":33547:33562   */\n      add\n        /* \"#utility.yul\":33536:33562   */\n      swap2\n      pop\n        /* \"#utility.yul\":33458:33462   */\n      0x20\n        /* \"#utility.yul\":33455:33456   */\n      dup2\n        /* \"#utility.yul\":33451:33463   */\n      add\n        /* \"#utility.yul\":33446:33463   */\n      swap1\n      pop\n        /* \"#utility.yul\":33422:33576   */\n      jump(tag_676)\n    tag_678:\n        /* \"#utility.yul\":33605:33611   */\n      dup4\n        /* \"#utility.yul\":33600:33603   */\n      dup9\n        /* \"#utility.yul\":33596:33612   */\n      add\n        /* \"#utility.yul\":33589:33612   */\n      swap6\n      pop\n        /* \"#utility.yul\":33285:33622   */\n      pop\n      pop\n        /* \"#utility.yul\":33070:33622   */\n    tag_672:\n      pop\n        /* \"#utility.yul\":32859:33628   */\n      pop\n      pop\n        /* \"#utility.yul\":32750:33628   */\n      swap3\n      swap2\n      pop\n      pop\n      jump\t// out\n        /* \"#utility.yul\":33634:33907   */\n    tag_247:\n        /* \"#utility.yul\":33765:33768   */\n      0x00\n        /* \"#utility.yul\":33787:33881   */\n      tag_680\n        /* \"#utility.yul\":33877:33880   */\n      dup3\n        /* \"#utility.yul\":33868:33874   */\n      dup5\n        /* \"#utility.yul\":33787:33881   */\n      tag_359\n      jump\t// in\n    tag_680:\n        /* \"#utility.yul\":33780:33881   */\n      swap2\n      pop\n        /* \"#utility.yul\":33898:33901   */\n      dup2\n        /* \"#utility.yul\":33891:33901   */\n      swap1\n      pop\n        /* \"#utility.yul\":33634:33907   */\n      swap3\n      swap2\n      pop\n      pop\n      jump\t// out\n        /* \"#utility.yul\":33913:34101   */\n    tag_254:\n        /* \"#utility.yul\":33951:33954   */\n      0x00\n        /* \"#utility.yul\":33970:33988   */\n      tag_682\n        /* \"#utility.yul\":33986:33987   */\n      dup3\n        /* \"#utility.yul\":33970:33988   */\n      tag_300\n      jump\t// in\n    tag_682:\n        /* \"#utility.yul\":33965:33988   */\n      swap2\n      pop\n        /* \"#utility.yul\":34002:34020   */\n      tag_683\n        /* \"#utility.yul\":34018:34019   */\n      dup4\n        /* \"#utility.yul\":34002:34020   */\n      tag_300\n      jump\t// in\n    tag_683:\n        /* \"#utility.yul\":33997:34020   */\n      swap3\n      pop\n        /* \"#utility.yul\":34043:34044   */\n      dup3\n        /* \"#utility.yul\":34040:34041   */\n      dup3\n        /* \"#utility.yul\":34036:34045   */\n      add\n        /* \"#utility.yul\":34029:34045   */\n      swap1\n      pop\n        /* \"#utility.yul\":34066:34070   */\n      0xff\n        /* \"#utility.yul\":34061:34064   */\n      dup2\n        /* \"#utility.yul\":34058:34071   */\n      gt\n        /* \"#utility.yul\":34055:34094   */\n      iszero\n      tag_684\n      jumpi\n        /* \"#utility.yul\":34074:34092   */\n      tag_685\n      tag_313\n      jump\t// in\n    tag_685:\n        /* \"#utility.yul\":34055:34094   */\n    tag_684:\n        /* \"#utility.yul\":33913:34101   */\n      swap3\n      swap2\n      pop\n      pop\n      jump\t// out\n        /* \"#utility.yul\":34107:34287   */\n    tag_360:\n        /* \"#utility.yul\":34155:34232   */\n      0x4e487b7100000000000000000000000000000000000000000000000000000000\n        /* \"#utility.yul\":34152:34153   */\n      0x00\n        /* \"#utility.yul\":34145:34233   */\n      mstore\n        /* \"#utility.yul\":34252:34256   */\n      0x12\n        /* \"#utility.yul\":34249:34250   */\n      0x04\n        /* \"#utility.yul\":34242:34257   */\n      mstore\n        /* \"#utility.yul\":34276:34280   */\n      0x24\n        /* \"#utility.yul\":34273:34274   */\n      0x00\n        /* \"#utility.yul\":34266:34281   */\n      revert\n        /* \"#utility.yul\":34293:34478   */\n    tag_260:\n        /* \"#utility.yul\":34333:34334   */\n      0x00\n        /* \"#utility.yul\":34350:34370   */\n      tag_688\n        /* \"#utility.yul\":34368:34369   */\n      dup3\n        /* \"#utility.yul\":34350:34370   */\n      tag_287\n      jump\t// in\n    tag_688:\n        /* \"#utility.yul\":34345:34370   */\n      swap2\n      pop\n        /* \"#utility.yul\":34384:34404   */\n      tag_689\n        /* \"#utility.yul\":34402:34403   */\n      dup4\n        /* \"#utility.yul\":34384:34404   */\n      tag_287\n      jump\t// in\n    tag_689:\n        /* \"#utility.yul\":34379:34404   */\n      swap3\n      pop\n        /* \"#utility.yul\":34423:34424   */\n      dup3\n        /* \"#utility.yul\":34413:34448   */\n      tag_690\n      jumpi\n        /* \"#utility.yul\":34428:34446   */\n      tag_691\n      tag_360\n      jump\t// in\n    tag_691:\n        /* \"#utility.yul\":34413:34448   */\n    tag_690:\n        /* \"#utility.yul\":34470:34471   */\n      dup3\n        /* \"#utility.yul\":34467:34468   */\n      dup3\n        /* \"#utility.yul\":34463:34472   */\n      div\n        /* \"#utility.yul\":34458:34472   */\n      swap1\n      pop\n        /* \"#utility.yul\":34293:34478   */\n      swap3\n      swap2\n      pop\n      pop\n      jump\t// out\n\n    auxdata: 0xa2646970667358221220e82467a0f587fcbe307a1aec3b146acfc0fa6bcdc6c483388151ea3b9dadc0fe64736f6c634300081f0033\n}\n",
				"bytecode": {
					"linkReferences": {},
					"object": "60806040526127115f555f6005553480156017575f5ffd5b503360065f6101000a81548173ffffffffffffffffffffffffffffffffffffffff021916908373ffffffffffffffffffffffffffffffffffffffff160217905550612fa6806100655f395ff3fe6080604052600436106100c5575f3560e01c806350fac4f11161007e578063b90f1aaa11610058578063b90f1aaa1461024c578063c57981b51461027c578063c958e0d6146102a6578063d6ad8a94146102bc576100cc565b806350fac4f1146101b85780636352211e146101d457806370a0823114610210576100cc565b806301ffc9a7146100d0578063081812fc1461010c578063095ea7b3146101485780630a0eac291461016457806323b872dd1461018057806342842e0e1461019c576100cc565b366100cc57005b5f5ffd5b3480156100db575f5ffd5b506100f660048036038101906100f19190611e72565b6102d8565b6040516101039190611eb7565b60405180910390f35b348015610117575f5ffd5b50610132600480360381019061012d9190611f03565b6103b9565b60405161013f9190611f6d565b60405180910390f35b610162600480360381019061015d9190611fb0565b610453565b005b61017e6004803603810190610179919061204f565b6106d6565b005b61019a600480360381019061019591906120c0565b6109f3565b005b6101b660048036038101906101b191906120c0565b610e01565b005b6101d260048036038101906101cd9190611f03565b6113ae565b005b3480156101df575f5ffd5b506101fa60048036038101906101f59190611f03565b61167a565b6040516102079190611f6d565b60405180910390f35b34801561021b575f5ffd5b5061023660048036038101906102319190612110565b611726565b604051610243919061214a565b60405180910390f35b61026660048036038101906102619190612163565b6117da565b604051610273919061214a565b60405180910390f35b348015610287575f5ffd5b5061029061192e565b60405161029d919061214a565b60405180910390f35b3480156102b1575f5ffd5b506102ba611934565b005b6102d660048036038101906102d191906121e4565b611a8d565b005b5f817bffffffffffffffffffffffffffffffffffffffffffffffffffffffff19167f01ffc9a7000000000000000000000000000000000000000000000000000000007bffffffffffffffffffffffffffffffffffffffffffffffffffffffff191614806103a25750817bffffffffffffffffffffffffffffffffffffffffffffffffffffffff19167f73884ab3000000000000000000000000000000000000000000000000000000007bffffffffffffffffffffffffffffffffffffffffffffffffffffffff1916145b156103b057600190506103b4565b5f90505b919050565b5f5f60045f8481526020019081526020015f205f0180546103d99061224f565b90500361041b576040517f08c379a0000000000000000000000000000000000000000000000000000000008152600401610412906122d9565b60405180910390fd5b60035f8381526020019081526020015f205f9054906101000a900473ffffffffffffffffffffffffffffffffffffffff169050919050565b3373ffffffffffffffffffffffffffffffffffffffff1660025f8381526020019081526020015f205f9054906101000a900473ffffffffffffffffffffffffffffffffffffffff1673ffffffffffffffffffffffffffffffffffffffff16146104f1576040517f08c379a00000000000000000000000000000000000000000000000000000000081526004016104e890612341565b60405180910390fd5b5f73ffffffffffffffffffffffffffffffffffffffff168273ffffffffffffffffffffffffffffffffffffffff1614158061058857505f73ffffffffffffffffffffffffffffffffffffffff1660035f8381526020019081526020015f205f9054906101000a900473ffffffffffffffffffffffffffffffffffffffff1673ffffffffffffffffffffffffffffffffffffffff1614155b6105c7576040517f08c379a00000000000000000000000000000000000000000000000000000000081526004016105be906123a9565b60405180910390fd5b6105e660045f8381526020019081526020015f20600101600101611c10565b341015610628576040517f08c379a000000000000000000000000000000000000000000000000000000000815260040161061f90612411565b60405180910390fd5b8160035f8381526020019081526020015f205f6101000a81548173ffffffffffffffffffffffffffffffffffffffff021916908373ffffffffffffffffffffffffffffffffffffffff160217905550808273ffffffffffffffffffffffffffffffffffffffff163373ffffffffffffffffffffffffffffffffffffffff167f8c5be1e5ebec7d5bd14f71427d1e84f3dd0314c0f7b2291e5b200ac8c7c3b92560405160405180910390a45050565b3373ffffffffffffffffffffffffffffffffffffffff1660035f8681526020019081526020015f205f9054906101000a900473ffffffffffffffffffffffffffffffffffffffff1673ffffffffffffffffffffffffffffffffffffffff16148061079b57503373ffffffffffffffffffffffffffffffffffffffff1660025f8681526020019081526020015f205f9054906101000a900473ffffffffffffffffffffffffffffffffffffffff1673ffffffffffffffffffffffffffffffffffffffff16145b6107da576040517f08c379a00000000000000000000000000000000000000000000000000000000081526004016107d190612341565b60405180910390fd5b5f60045f8681526020019081526020015f205f0180546107f99061224f565b90500361083b576040517f08c379a0000000000000000000000000000000000000000000000000000000008152600401610832906122d9565b60405180910390fd5b5f60045f8681526020019081526020015f206001015f01805490509050806002610865919061258b565b8261087091906125d5565b3410156108b2576040517f08c379a00000000000000000000000000000000000000000000000000000000081526004016108a990612660565b60405180910390fd5b5f61091e85858080601f0160208091040260200160405190810160405280939291908181526020018383808284375f81840152601f19601f8201169050808301925050505050505060045f8981526020019081526020015f206001015f01611c6390919063ffffffff16565b90508015610961576040517f08c379a0000000000000000000000000000000000000000000000000000000008152600401610958906126c8565b60405180910390fd5b60045f8781526020019081526020015f206001015f01858590918060018154018082558091505060019003905f5260205f20015f9091929091929091929091925091826109af9291906128bd565b5060045f8781526020019081526020015f2060010160010183908060018154018082558091505060019003905f5260205f20015f9091909190915055505050505050565b5f73ffffffffffffffffffffffffffffffffffffffff168273ffffffffffffffffffffffffffffffffffffffff1603610a61576040517f08c379a0000000000000000000000000000000000000000000000000000000008152600401610a58906129d4565b60405180910390fd5b8273ffffffffffffffffffffffffffffffffffffffff1660025f8381526020019081526020015f205f9054906101000a900473ffffffffffffffffffffffffffffffffffffffff1673ffffffffffffffffffffffffffffffffffffffff16148015610b8d57503373ffffffffffffffffffffffffffffffffffffffff1660025f8381526020019081526020015f205f9054906101000a900473ffffffffffffffffffffffffffffffffffffffff1673ffffffffffffffffffffffffffffffffffffffff161480610b8c57503373ffffffffffffffffffffffffffffffffffffffff1660035f8381526020019081526020015f205f9054906101000a900473ffffffffffffffffffffffffffffffffffffffff1673ffffffffffffffffffffffffffffffffffffffff16145b5b610bcc576040517f08c379a0000000000000000000000000000000000000000000000000000000008152600401610bc390612341565b60405180910390fd5b610beb60045f8381526020019081526020015f20600101600101611c10565b341015610c2d576040517f08c379a0000000000000000000000000000000000000000000000000000000008152600401610c2490612411565b60405180910390fd5b6001805f60025f8581526020019081526020015f205f9054906101000a900473ffffffffffffffffffffffffffffffffffffffff1673ffffffffffffffffffffffffffffffffffffffff1673ffffffffffffffffffffffffffffffffffffffff1681526020019081526020015f205f828254610ca991906129f2565b925050819055506001805f8473ffffffffffffffffffffffffffffffffffffffff1673ffffffffffffffffffffffffffffffffffffffff1681526020019081526020015f205f828254610cfc9190612a25565b925050819055508160025f8381526020019081526020015f205f6101000a81548173ffffffffffffffffffffffffffffffffffffffff021916908373ffffffffffffffffffffffffffffffffffffffff1602179055505f60035f8381526020019081526020015f205f6101000a81548173ffffffffffffffffffffffffffffffffffffffff021916908373ffffffffffffffffffffffffffffffffffffffff160217905550808273ffffffffffffffffffffffffffffffffffffffff168473ffffffffffffffffffffffffffffffffffffffff167fddf252ad1be2c89b69c2b068fc378daa952ba7f163c4a11628f55a4df523b3ef60405160405180910390a4505050565b5f73ffffffffffffffffffffffffffffffffffffffff168273ffffffffffffffffffffffffffffffffffffffff1603610e6f576040517f08c379a0000000000000000000000000000000000000000000000000000000008152600401610e66906129d4565b60405180910390fd5b8273ffffffffffffffffffffffffffffffffffffffff1660025f8381526020019081526020015f205f9054906101000a900473ffffffffffffffffffffffffffffffffffffffff1673ffffffffffffffffffffffffffffffffffffffff16148015610f9b57503373ffffffffffffffffffffffffffffffffffffffff1660025f8381526020019081526020015f205f9054906101000a900473ffffffffffffffffffffffffffffffffffffffff1673ffffffffffffffffffffffffffffffffffffffff161480610f9a57503373ffffffffffffffffffffffffffffffffffffffff1660035f8381526020019081526020015f205f9054906101000a900473ffffffffffffffffffffffffffffffffffffffff1673ffffffffffffffffffffffffffffffffffffffff16145b5b610fda576040517f08c379a0000000000000000000000000000000000000000000000000000000008152600401610fd190612341565b60405180910390fd5b610ff960045f8381526020019081526020015f20600101600101611c10565b34101561103b576040517f08c379a000000000000000000000000000000000000000000000000000000000815260040161103290612411565b60405180910390fd5b5f8273ffffffffffffffffffffffffffffffffffffffff163b11156111da578173ffffffffffffffffffffffffffffffffffffffff1663150b7a023385846040518463ffffffff1660e01b815260040161109793929190612a8b565b6020604051808303815f875af19250505080156110d257506040513d601f19601f820116820180604052508101906110cf9190612ae7565b60015b611151573d805f8114611100576040519150601f19603f3d011682016040523d82523d5f602084013e611105565b606091505b505f815103611149576040517f08c379a000000000000000000000000000000000000000000000000000000000815260040161114090612b5c565b60405180910390fd5b805160208201fd5b63150b7a0260e01b7bffffffffffffffffffffffffffffffffffffffffffffffffffffffff1916817bffffffffffffffffffffffffffffffffffffffffffffffffffffffff1916146111d8576040517f08c379a00000000000000000000000000000000000000000000000000000000081526004016111cf90612bc4565b60405180910390fd5b505b6001805f60025f8581526020019081526020015f205f9054906101000a900473ffffffffffffffffffffffffffffffffffffffff1673ffffffffffffffffffffffffffffffffffffffff1673ffffffffffffffffffffffffffffffffffffffff1681526020019081526020015f205f82825461125691906129f2565b925050819055506001805f8473ffffffffffffffffffffffffffffffffffffffff1673ffffffffffffffffffffffffffffffffffffffff1681526020019081526020015f205f8282546112a99190612a25565b925050819055508160025f8381526020019081526020015f205f6101000a81548173ffffffffffffffffffffffffffffffffffffffff021916908373ffffffffffffffffffffffffffffffffffffffff1602179055505f60035f8381526020019081526020015f205f6101000a81548173ffffffffffffffffffffffffffffffffffffffff021916908373ffffffffffffffffffffffffffffffffffffffff160217905550808273ffffffffffffffffffffffffffffffffffffffff168473ffffffffffffffffffffffffffffffffffffffff167fddf252ad1be2c89b69c2b068fc378daa952ba7f163c4a11628f55a4df523b3ef60405160405180910390a4505050565b5f73ffffffffffffffffffffffffffffffffffffffff1660025f8381526020019081526020015f205f9054906101000a900473ffffffffffffffffffffffffffffffffffffffff1673ffffffffffffffffffffffffffffffffffffffff161415801561147557503373ffffffffffffffffffffffffffffffffffffffff1660025f8381526020019081526020015f205f9054906101000a900473ffffffffffffffffffffffffffffffffffffffff1673ffffffffffffffffffffffffffffffffffffffff16145b6114b4576040517f08c379a00000000000000000000000000000000000000000000000000000000081526004016114ab90612341565b60405180910390fd5b600160055f8282546114c691906129f2565b925050819055506001805f3373ffffffffffffffffffffffffffffffffffffffff1673ffffffffffffffffffffffffffffffffffffffff1681526020019081526020015f205f82825461151991906129f2565b9250508190555060025f8281526020019081526020015f205f6101000a81549073ffffffffffffffffffffffffffffffffffffffff021916905560035f8281526020019081526020015f205f6101000a81549073ffffffffffffffffffffffffffffffffffffffff021916905560045f8281526020019081526020015f205f5f82015f6115a69190611d5e565b600182015f5f82015f6115b99190611d9b565b600182015f6115c89190611db9565b505050505f3373ffffffffffffffffffffffffffffffffffffffff166103e86040516115f390612c0c565b5f6040518083038185875af1925050503d805f811461162d576040519150601f19603f3d011682016040523d82523d5f602084013e611632565b606091505b5050905080611676576040517f08c379a000000000000000000000000000000000000000000000000000000000815260040161166d90612c6a565b60405180910390fd5b5050565b5f5f60025f8481526020019081526020015f205f9054906101000a900473ffffffffffffffffffffffffffffffffffffffff1690505f73ffffffffffffffffffffffffffffffffffffffff168173ffffffffffffffffffffffffffffffffffffffff160361171d576040517f08c379a0000000000000000000000000000000000000000000000000000000008152600401611714906122d9565b60405180910390fd5b80915050919050565b5f5f73ffffffffffffffffffffffffffffffffffffffff168273ffffffffffffffffffffffffffffffffffffffff1603611795576040517f08c379a000000000000000000000000000000000000000000000000000000000815260040161178c90612cd2565b60405180910390fd5b60015f8373ffffffffffffffffffffffffffffffffffffffff1673ffffffffffffffffffffffffffffffffffffffff1681526020019081526020015f20549050919050565b5f6103e8341015611820576040517f08c379a000000000000000000000000000000000000000000000000000000000815260040161181790612d3a565b60405180910390fd5b6001805f3373ffffffffffffffffffffffffffffffffffffffff1673ffffffffffffffffffffffffffffffffffffffff1681526020019081526020015f205f82825461186c9190612a25565b925050819055503360025f5f5481526020019081526020015f205f6101000a81548173ffffffffffffffffffffffffffffffffffffffff021916908373ffffffffffffffffffffffffffffffffffffffff160217905550828260045f5f5481526020019081526020015f205f0191826118e69291906128bd565b50600160055f8282546118f99190612a25565b9250508190555060015f5f8282546119119190612a25565b9250508190555060015f5461192691906129f2565b905092915050565b6103e881565b60065f9054906101000a900473ffffffffffffffffffffffffffffffffffffffff1673ffffffffffffffffffffffffffffffffffffffff163373ffffffffffffffffffffffffffffffffffffffff16146119c3576040517f08c379a00000000000000000000000000000000000000000000000000000000081526004016119ba90612341565b60405180910390fd5b5f6103e86005546119d491906125d5565b476119df91906129f2565b90505f3373ffffffffffffffffffffffffffffffffffffffff1682604051611a0690612c0c565b5f6040518083038185875af1925050503d805f8114611a40576040519150601f19603f3d011682016040523d82523d5f602084013e611a45565b606091505b5050905080611a89576040517f08c379a0000000000000000000000000000000000000000000000000000000008152600401611a8090612da2565b60405180910390fd5b5050565b3373ffffffffffffffffffffffffffffffffffffffff1660035f8481526020019081526020015f205f9054906101000a900473ffffffffffffffffffffffffffffffffffffffff1673ffffffffffffffffffffffffffffffffffffffff161480611b5257503373ffffffffffffffffffffffffffffffffffffffff1660025f8481526020019081526020015f205f9054906101000a900473ffffffffffffffffffffffffffffffffffffffff1673ffffffffffffffffffffffffffffffffffffffff16145b611b91576040517f08c379a0000000000000000000000000000000000000000000000000000000008152600401611b8890612341565b60405180910390fd5b60028160ff16611ba19190612dc0565b341015611be3576040517f08c379a0000000000000000000000000000000000000000000000000000000008152600401611bda90612660565b60405180910390fd5b611c0c8160045f8581526020019081526020015f20600101600101611cda90919063ffffffff16565b5050565b5f5f5f5f90505b8380549050811015611c5957838181548110611c3657611c35612e0a565b5b905f5260205f20015482611c4a9190612a25565b91508080600101915050611c17565b5080915050919050565b5f5f828051906020012090505f5f90505b8480549050811015611cce5781858281548110611c9457611c93612e0a565b5b905f5260205f2001604051611ca99190612ec9565b604051809103902003611cc157600192505050611cd4565b8080600101915050611c74565b505f9150505b92915050565b5f5f90505b8280549050811015611d59576064826064611cfa9190612edf565b60ff16848381548110611d1057611d0f612e0a565b5b905f5260205f200154611d2391906125d5565b611d2d9190612f40565b838281548110611d4057611d3f612e0a565b5b905f5260205f2001819055508080600101915050611cdf565b505050565b508054611d6a9061224f565b5f825580601f10611d7b5750611d98565b601f0160209004905f5260205f2090810190611d979190611dd7565b5b50565b5080545f8255905f5260205f2090810190611db69190611df2565b50565b5080545f8255905f5260205f2090810190611dd49190611dd7565b50565b5b80821115611dee575f815f905550600101611dd8565b5090565b5b80821115611e11575f8181611e089190611d5e565b50600101611df3565b5090565b5f5ffd5b5f5ffd5b5f7fffffffff0000000000000000000000000000000000000000000000000000000082169050919050565b611e5181611e1d565b8114611e5b575f5ffd5b50565b5f81359050611e6c81611e48565b92915050565b5f60208284031215611e8757611e86611e15565b5b5f611e9484828501611e5e565b91505092915050565b5f8115159050919050565b611eb181611e9d565b82525050565b5f602082019050611eca5f830184611ea8565b92915050565b5f819050919050565b611ee281611ed0565b8114611eec575f5ffd5b50565b5f81359050611efd81611ed9565b92915050565b5f60208284031215611f1857611f17611e15565b5b5f611f2584828501611eef565b91505092915050565b5f73ffffffffffffffffffffffffffffffffffffffff82169050919050565b5f611f5782611f2e565b9050919050565b611f6781611f4d565b82525050565b5f602082019050611f805f830184611f5e565b92915050565b611f8f81611f4d565b8114611f99575f5ffd5b50565b5f81359050611faa81611f86565b92915050565b5f5f60408385031215611fc657611fc5611e15565b5b5f611fd385828601611f9c565b9250506020611fe485828601611eef565b9150509250929050565b5f5ffd5b5f5ffd5b5f5ffd5b5f5f83601f84011261200f5761200e611fee565b5b8235905067ffffffffffffffff81111561202c5761202b611ff2565b5b60208301915083600182028301111561204857612047611ff6565b5b9250929050565b5f5f5f5f6060858703121561206757612066611e15565b5b5f61207487828801611eef565b945050602085013567ffffffffffffffff81111561209557612094611e19565b5b6120a187828801611ffa565b935093505060406120b487828801611eef565b91505092959194509250565b5f5f5f606084860312156120d7576120d6611e15565b5b5f6120e486828701611f9c565b93505060206120f586828701611f9c565b925050604061210686828701611eef565b9150509250925092565b5f6020828403121561212557612124611e15565b5b5f61213284828501611f9c565b91505092915050565b61214481611ed0565b82525050565b5f60208201905061215d5f83018461213b565b92915050565b5f5f6020838503121561217957612178611e15565b5b5f83013567ffffffffffffffff81111561219657612195611e19565b5b6121a285828601611ffa565b92509250509250929050565b5f60ff82169050919050565b6121c3816121ae565b81146121cd575f5ffd5b50565b5f813590506121de816121ba565b92915050565b5f5f604083850312156121fa576121f9611e15565b5b5f61220785828601611eef565b9250506020612218858286016121d0565b9150509250929050565b7f4e487b71000000000000000000000000000000000000000000000000000000005f52602260045260245ffd5b5f600282049050600182168061226657607f821691505b60208210810361227957612278612222565b5b50919050565b5f82825260208201905092915050565b7f496e76616c696420746f6b656e000000000000000000000000000000000000005f82015250565b5f6122c3600d8361227f565b91506122ce8261228f565b602082019050919050565b5f6020820190508181035f8301526122f0816122b7565b9050919050565b7f556e617574686f72697a656420616363657373000000000000000000000000005f82015250565b5f61232b60138361227f565b9150612336826122f7565b602082019050919050565b5f6020820190508181035f8301526123588161231f565b9050919050565b7f4e6f7468696e6720746f20617070726f766500000000000000000000000000005f82015250565b5f61239360128361227f565b915061239e8261235f565b602082019050919050565b5f6020820190508181035f8301526123c081612387565b9050919050565b7f4e6f7420656e6f7567682066756e6473000000000000000000000000000000005f82015250565b5f6123fb60108361227f565b9150612406826123c7565b602082019050919050565b5f6020820190508181035f830152612428816123ef565b9050919050565b7f4e487b71000000000000000000000000000000000000000000000000000000005f52601160045260245ffd5b5f8160011c9050919050565b5f5f8291508390505b60018511156124b15780860481111561248d5761248c61242f565b5b600185161561249c5780820291505b80810290506124aa8561245c565b9450612471565b94509492505050565b5f826124c95760019050612584565b816124d6575f9050612584565b81600181146124ec57600281146124f657612525565b6001915050612584565b60ff8411156125085761250761242f565b5b8360020a91508482111561251f5761251e61242f565b5b50612584565b5060208310610133831016604e8410600b841016171561255a5782820a9050838111156125555761255461242f565b5b612584565b6125678484846001612468565b9250905081840481111561257e5761257d61242f565b5b81810290505b9392505050565b5f61259582611ed0565b91506125a083611ed0565b92506125cd7fffffffffffffffffffffffffffffffffffffffffffffffffffffffffffffffff84846124ba565b905092915050565b5f6125df82611ed0565b91506125ea83611ed0565b92508282026125f881611ed0565b9150828204841483151761260f5761260e61242f565b5b5092915050565b7f4e6f7420656e6f756768206d6f6e6579000000000000000000000000000000005f82015250565b5f61264a60108361227f565b915061265582612616565b602082019050919050565b5f6020820190508181035f8301526126778161263e565b9050919050565b7f416c7265616479206578697374730000000000000000000000000000000000005f82015250565b5f6126b2600e8361227f565b91506126bd8261267e565b602082019050919050565b5f6020820190508181035f8301526126df816126a6565b9050919050565b5f82905092915050565b7f4e487b71000000000000000000000000000000000000000000000000000000005f52604160045260245ffd5b5f819050815f5260205f209050919050565b5f6020601f8301049050919050565b5f82821b905092915050565b5f600883026127797fffffffffffffffffffffffffffffffffffffffffffffffffffffffffffffffff8261273e565b612783868361273e565b95508019841693508086168417925050509392505050565b5f819050919050565b5f6127be6127b96127b484611ed0565b61279b565b611ed0565b9050919050565b5f819050919050565b6127d7836127a4565b6127eb6127e3826127c5565b84845461274a565b825550505050565b5f5f905090565b6128026127f3565b61280d8184846127ce565b505050565b5b81811015612830576128255f826127fa565b600181019050612813565b5050565b601f821115612875576128468161271d565b61284f8461272f565b8101602085101561285e578190505b61287261286a8561272f565b830182612812565b50505b505050565b5f82821c905092915050565b5f6128955f198460080261287a565b1980831691505092915050565b5f6128ad8383612886565b9150826002028217905092915050565b6128c783836126e6565b67ffffffffffffffff8111156128e0576128df6126f0565b5b6128ea825461224f565b6128f5828285612834565b5f601f831160018114612922575f8415612910578287013590505b61291a85826128a2565b865550612981565b601f1984166129308661271d565b5f5b8281101561295757848901358255600182019150602085019450602081019050612932565b868310156129745784890135612970601f891682612886565b8355505b6001600288020188555050505b50505050505050565b7f496e76616c696420726563697069656e740000000000000000000000000000005f82015250565b5f6129be60118361227f565b91506129c98261298a565b602082019050919050565b5f6020820190508181035f8301526129eb816129b2565b9050919050565b5f6129fc82611ed0565b9150612a0783611ed0565b9250828203905081811115612a1f57612a1e61242f565b5b92915050565b5f612a2f82611ed0565b9150612a3a83611ed0565b9250828201905080821115612a5257612a5161242f565b5b92915050565b5f82825260208201905092915050565b50565b5f612a765f83612a58565b9150612a8182612a68565b5f82019050919050565b5f608082019050612a9e5f830186611f5e565b612aab6020830185611f5e565b612ab8604083018461213b565b8181036060830152612ac981612a6b565b9050949350505050565b5f81519050612ae181611e48565b92915050565b5f60208284031215612afc57612afb611e15565b5b5f612b0984828501612ad3565b91505092915050565b7f496e76616c6964207265636965766572000000000000000000000000000000005f82015250565b5f612b4660108361227f565b9150612b5182612b12565b602082019050919050565b5f6020820190508181035f830152612b7381612b3a565b9050919050565b7f546f6b656e2072656a65637465640000000000000000000000000000000000005f82015250565b5f612bae600e8361227f565b9150612bb982612b7a565b602082019050919050565b5f6020820190508181035f830152612bdb81612ba2565b9050919050565b5f81905092915050565b5f612bf75f83612be2565b9150612c0282612a68565b5f82019050919050565b5f612c1682612bec565b9150819050919050565b7f5061796d656e74206661696c65640000000000000000000000000000000000005f82015250565b5f612c54600e8361227f565b9150612c5f82612c20565b602082019050919050565b5f6020820190508181035f830152612c8181612c48565b9050919050565b7f496e76616c6964206164647265737300000000000000000000000000000000005f82015250565b5f612cbc600f8361227f565b9150612cc782612c88565b602082019050919050565b5f6020820190508181035f830152612ce981612cb0565b9050919050565b7f496e73756666696369656e742066756e647300000000000000000000000000005f82015250565b5f612d2460128361227f565b9150612d2f82612cf0565b602082019050919050565b5f6020820190508181035f830152612d5181612d18565b9050919050565b7f5472616e73666572206661696c656400000000000000000000000000000000005f82015250565b5f612d8c600f8361227f565b9150612d9782612d58565b602082019050919050565b5f6020820190508181035f830152612db981612d80565b9050919050565b5f612dca82611ed0565b9150612dd5836121ae565b9250612e027fffffffffffffffffffffffffffffffffffffffffffffffffffffffffffffffff84846124ba565b905092915050565b7f4e487b71000000000000000000000000000000000000000000000000000000005f52603260045260245ffd5b5f819050815f5260205f209050919050565b5f8154612e558161224f565b612e5f8186612be2565b9450600182165f8114612e795760018114612e8e57612ec0565b60ff1983168652811515820286019350612ec0565b612e9785612e37565b5f5b83811015612eb857815481890152600182019150602081019050612e99565b838801955050505b50505092915050565b5f612ed48284612e49565b915081905092915050565b5f612ee9826121ae565b9150612ef4836121ae565b9250828201905060ff811115612f0d57612f0c61242f565b5b92915050565b7f4e487b71000000000000000000000000000000000000000000000000000000005f52601260045260245ffd5b5f612f4a82611ed0565b9150612f5583611ed0565b925082612f6557612f64612f13565b5b82820490509291505056fea2646970667358221220e82467a0f587fcbe307a1aec3b146acfc0fa6bcdc6c483388151ea3b9dadc0fe64736f6c634300081f0033",
					"opcodes": "PUSH1 0x80 PUSH1 0x40 MSTORE PUSH2 0x2711 PUSH0 SSTORE PUSH0 PUSH1 0x5 SSTORE CALLVALUE DUP1 ISZERO PUSH1 0x17 JUMPI PUSH0 PUSH0 REVERT JUMPDEST POP CALLER PUSH1 0x6 PUSH0 PUSH2 0x100 EXP DUP2 SLOAD DUP2 PUSH20 0xFFFFFFFFFFFFFFFFFFFFFFFFFFFFFFFFFFFFFFFF MUL NOT AND SWAP1 DUP4 PUSH20 0xFFFFFFFFFFFFFFFFFFFFFFFFFFFFFFFFFFFFFFFF AND MUL OR SWAP1 SSTORE POP PUSH2 0x2FA6 DUP1 PUSH2 0x65 PUSH0 CODECOPY PUSH0 RETURN INVALID PUSH1 0x80 PUSH1 0x40 MSTORE PUSH1 0x4 CALLDATASIZE LT PUSH2 0xC5 JUMPI PUSH0 CALLDATALOAD PUSH1 0xE0 SHR DUP1 PUSH4 0x50FAC4F1 GT PUSH2 0x7E JUMPI DUP1 PUSH4 0xB90F1AAA GT PUSH2 0x58 JUMPI DUP1 PUSH4 0xB90F1AAA EQ PUSH2 0x24C JUMPI DUP1 PUSH4 0xC57981B5 EQ PUSH2 0x27C JUMPI DUP1 PUSH4 0xC958E0D6 EQ PUSH2 0x2A6 JUMPI DUP1 PUSH4 0xD6AD8A94 EQ PUSH2 0x2BC JUMPI PUSH2 0xCC JUMP JUMPDEST DUP1 PUSH4 0x50FAC4F1 EQ PUSH2 0x1B8 JUMPI DUP1 PUSH4 0x6352211E EQ PUSH2 0x1D4 JUMPI DUP1 PUSH4 0x70A08231 EQ PUSH2 0x210 JUMPI PUSH2 0xCC JUMP JUMPDEST DUP1 PUSH4 0x1FFC9A7 EQ PUSH2 0xD0 JUMPI DUP1 PUSH4 0x81812FC EQ PUSH2 0x10C JUMPI DUP1 PUSH4 0x95EA7B3 EQ PUSH2 0x148 JUMPI DUP1 PUSH4 0xA0EAC29 EQ PUSH2 0x164 JUMPI DUP1 PUSH4 0x23B872DD EQ PUSH2 0x180 JUMPI DUP1 PUSH4 0x42842E0E EQ PUSH2 0x19C JUMPI PUSH2 0xCC JUMP JUMPDEST CALLDATASIZE PUSH2 0xCC JUMPI STOP JUMPDEST PUSH0 PUSH0 REVERT JUMPDEST CALLVALUE DUP1 ISZERO PUSH2 0xDB JUMPI PUSH0 PUSH0 REVERT JUMPDEST POP PUSH2 0xF6 PUSH1 0x4 DUP1 CALLDATASIZE SUB DUP2 ADD SWAP1 PUSH2 0xF1 SWAP2 SWAP1 PUSH2 0x1E72 JUMP JUMPDEST PUSH2 0x2D8 JUMP JUMPDEST PUSH1 0x40 MLOAD PUSH2 0x103 SWAP2 SWAP1 PUSH2 0x1EB7 JUMP JUMPDEST PUSH1 0x40 MLOAD DUP1 SWAP2 SUB SWAP1 RETURN JUMPDEST CALLVALUE DUP1 ISZERO PUSH2 0x117 JUMPI PUSH0 PUSH0 REVERT JUMPDEST POP PUSH2 0x132 PUSH1 0x4 DUP1 CALLDATASIZE SUB DUP2 ADD SWAP1 PUSH2 0x12D SWAP2 SWAP1 PUSH2 0x1F03 JUMP JUMPDEST PUSH2 0x3B9 JUMP JUMPDEST PUSH1 0x40 MLOAD PUSH2 0x13F SWAP2 SWAP1 PUSH2 0x1F6D JUMP JUMPDEST PUSH1 0x40 MLOAD DUP1 SWAP2 SUB SWAP1 RETURN JUMPDEST PUSH2 0x162 PUSH1 0x4 DUP1 CALLDATASIZE SUB DUP2 ADD SWAP1 PUSH2 0x15D SWAP2 SWAP1 PUSH2 0x1FB0 JUMP JUMPDEST PUSH2 0x453 JUMP JUMPDEST STOP JUMPDEST PUSH2 0x17E PUSH1 0x4 DUP1 CALLDATASIZE SUB DUP2 ADD SWAP1 PUSH2 0x179 SWAP2 SWAP1 PUSH2 0x204F JUMP JUMPDEST PUSH2 0x6D6 JUMP JUMPDEST STOP JUMPDEST PUSH2 0x19A PUSH1 0x4 DUP1 CALLDATASIZE SUB DUP2 ADD SWAP1 PUSH2 0x195 SWAP2 SWAP1 PUSH2 0x20C0 JUMP JUMPDEST PUSH2 0x9F3 JUMP JUMPDEST STOP JUMPDEST PUSH2 0x1B6 PUSH1 0x4 DUP1 CALLDATASIZE SUB DUP2 ADD SWAP1 PUSH2 0x1B1 SWAP2 SWAP1 PUSH2 0x20C0 JUMP JUMPDEST PUSH2 0xE01 JUMP JUMPDEST STOP JUMPDEST PUSH2 0x1D2 PUSH1 0x4 DUP1 CALLDATASIZE SUB DUP2 ADD SWAP1 PUSH2 0x1CD SWAP2 SWAP1 PUSH2 0x1F03 JUMP JUMPDEST PUSH2 0x13AE JUMP JUMPDEST STOP JUMPDEST CALLVALUE DUP1 ISZERO PUSH2 0x1DF JUMPI PUSH0 PUSH0 REVERT JUMPDEST POP PUSH2 0x1FA PUSH1 0x4 DUP1 CALLDATASIZE SUB DUP2 ADD SWAP1 PUSH2 0x1F5 SWAP2 SWAP1 PUSH2 0x1F03 JUMP JUMPDEST PUSH2 0x167A JUMP JUMPDEST PUSH1 0x40 MLOAD PUSH2 0x207 SWAP2 SWAP1 PUSH2 0x1F6D JUMP JUMPDEST PUSH1 0x40 MLOAD DUP1 SWAP2 SUB SWAP1 RETURN JUMPDEST CALLVALUE DUP1 ISZERO PUSH2 0x21B JUMPI PUSH0 PUSH0 REVERT JUMPDEST POP PUSH2 0x236 PUSH1 0x4 DUP1 CALLDATASIZE SUB DUP2 ADD SWAP1 PUSH2 0x231 SWAP2 SWAP1 PUSH2 0x2110 JUMP JUMPDEST PUSH2 0x1726 JUMP JUMPDEST PUSH1 0x40 MLOAD PUSH2 0x243 SWAP2 SWAP1 PUSH2 0x214A JUMP JUMPDEST PUSH1 0x40 MLOAD DUP1 SWAP2 SUB SWAP1 RETURN JUMPDEST PUSH2 0x266 PUSH1 0x4 DUP1 CALLDATASIZE SUB DUP2 ADD SWAP1 PUSH2 0x261 SWAP2 SWAP1 PUSH2 0x2163 JUMP JUMPDEST PUSH2 0x17DA JUMP JUMPDEST PUSH1 0x40 MLOAD PUSH2 0x273 SWAP2 SWAP1 PUSH2 0x214A JUMP JUMPDEST PUSH1 0x40 MLOAD DUP1 SWAP2 SUB SWAP1 RETURN JUMPDEST CALLVALUE DUP1 ISZERO PUSH2 0x287 JUMPI PUSH0 PUSH0 REVERT JUMPDEST POP PUSH2 0x290 PUSH2 0x192E JUMP JUMPDEST PUSH1 0x40 MLOAD PUSH2 0x29D SWAP2 SWAP1 PUSH2 0x214A JUMP JUMPDEST PUSH1 0x40 MLOAD DUP1 SWAP2 SUB SWAP1 RETURN JUMPDEST CALLVALUE DUP1 ISZERO PUSH2 0x2B1 JUMPI PUSH0 PUSH0 REVERT JUMPDEST POP PUSH2 0x2BA PUSH2 0x1934 JUMP JUMPDEST STOP JUMPDEST PUSH2 0x2D6 PUSH1 0x4 DUP1 CALLDATASIZE SUB DUP2 ADD SWAP1 PUSH2 0x2D1 SWAP2 SWAP1 PUSH2 0x21E4 JUMP JUMPDEST PUSH2 0x1A8D JUMP JUMPDEST STOP JUMPDEST PUSH0 DUP2 PUSH28 0xFFFFFFFFFFFFFFFFFFFFFFFFFFFFFFFFFFFFFFFFFFFFFFFFFFFFFFFF NOT AND PUSH32 0x1FFC9A700000000000000000000000000000000000000000000000000000000 PUSH28 0xFFFFFFFFFFFFFFFFFFFFFFFFFFFFFFFFFFFFFFFFFFFFFFFFFFFFFFFF NOT AND EQ DUP1 PUSH2 0x3A2 JUMPI POP DUP2 PUSH28 0xFFFFFFFFFFFFFFFFFFFFFFFFFFFFFFFFFFFFFFFFFFFFFFFFFFFFFFFF NOT AND PUSH32 0x73884AB300000000000000000000000000000000000000000000000000000000 PUSH28 0xFFFFFFFFFFFFFFFFFFFFFFFFFFFFFFFFFFFFFFFFFFFFFFFFFFFFFFFF NOT AND EQ JUMPDEST ISZERO PUSH2 0x3B0 JUMPI PUSH1 0x1 SWAP1 POP PUSH2 0x3B4 JUMP JUMPDEST PUSH0 SWAP1 POP JUMPDEST SWAP2 SWAP1 POP JUMP JUMPDEST PUSH0 PUSH0 PUSH1 0x4 PUSH0 DUP5 DUP2 MSTORE PUSH1 0x20 ADD SWAP1 DUP2 MSTORE PUSH1 0x20 ADD PUSH0 KECCAK256 PUSH0 ADD DUP1 SLOAD PUSH2 0x3D9 SWAP1 PUSH2 0x224F JUMP JUMPDEST SWAP1 POP SUB PUSH2 0x41B JUMPI PUSH1 0x40 MLOAD PUSH32 0x8C379A000000000000000000000000000000000000000000000000000000000 DUP2 MSTORE PUSH1 0x4 ADD PUSH2 0x412 SWAP1 PUSH2 0x22D9 JUMP JUMPDEST PUSH1 0x40 MLOAD DUP1 SWAP2 SUB SWAP1 REVERT JUMPDEST PUSH1 0x3 PUSH0 DUP4 DUP2 MSTORE PUSH1 0x20 ADD SWAP1 DUP2 MSTORE PUSH1 0x20 ADD PUSH0 KECCAK256 PUSH0 SWAP1 SLOAD SWAP1 PUSH2 0x100 EXP SWAP1 DIV PUSH20 0xFFFFFFFFFFFFFFFFFFFFFFFFFFFFFFFFFFFFFFFF AND SWAP1 POP SWAP2 SWAP1 POP JUMP JUMPDEST CALLER PUSH20 0xFFFFFFFFFFFFFFFFFFFFFFFFFFFFFFFFFFFFFFFF AND PUSH1 0x2 PUSH0 DUP4 DUP2 MSTORE PUSH1 0x20 ADD SWAP1 DUP2 MSTORE PUSH1 0x20 ADD PUSH0 KECCAK256 PUSH0 SWAP1 SLOAD SWAP1 PUSH2 0x100 EXP SWAP1 DIV PUSH20 0xFFFFFFFFFFFFFFFFFFFFFFFFFFFFFFFFFFFFFFFF AND PUSH20 0xFFFFFFFFFFFFFFFFFFFFFFFFFFFFFFFFFFFFFFFF AND EQ PUSH2 0x4F1 JUMPI PUSH1 0x40 MLOAD PUSH32 0x8C379A000000000000000000000000000000000000000000000000000000000 DUP2 MSTORE PUSH1 0x4 ADD PUSH2 0x4E8 SWAP1 PUSH2 0x2341 JUMP JUMPDEST PUSH1 0x40 MLOAD DUP1 SWAP2 SUB SWAP1 REVERT JUMPDEST PUSH0 PUSH20 0xFFFFFFFFFFFFFFFFFFFFFFFFFFFFFFFFFFFFFFFF AND DUP3 PUSH20 0xFFFFFFFFFFFFFFFFFFFFFFFFFFFFFFFFFFFFFFFF AND EQ ISZERO DUP1 PUSH2 0x588 JUMPI POP PUSH0 PUSH20 0xFFFFFFFFFFFFFFFFFFFFFFFFFFFFFFFFFFFFFFFF AND PUSH1 0x3 PUSH0 DUP4 DUP2 MSTORE PUSH1 0x20 ADD SWAP1 DUP2 MSTORE PUSH1 0x20 ADD PUSH0 KECCAK256 PUSH0 SWAP1 SLOAD SWAP1 PUSH2 0x100 EXP SWAP1 DIV PUSH20 0xFFFFFFFFFFFFFFFFFFFFFFFFFFFFFFFFFFFFFFFF AND PUSH20 0xFFFFFFFFFFFFFFFFFFFFFFFFFFFFFFFFFFFFFFFF AND EQ ISZERO JUMPDEST PUSH2 0x5C7 JUMPI PUSH1 0x40 MLOAD PUSH32 0x8C379A000000000000000000000000000000000000000000000000000000000 DUP2 MSTORE PUSH1 0x4 ADD PUSH2 0x5BE SWAP1 PUSH2 0x23A9 JUMP JUMPDEST PUSH1 0x40 MLOAD DUP1 SWAP2 SUB SWAP1 REVERT JUMPDEST PUSH2 0x5E6 PUSH1 0x4 PUSH0 DUP4 DUP2 MSTORE PUSH1 0x20 ADD SWAP1 DUP2 MSTORE PUSH1 0x20 ADD PUSH0 KECCAK256 PUSH1 0x1 ADD PUSH1 0x1 ADD PUSH2 0x1C10 JUMP JUMPDEST CALLVALUE LT ISZERO PUSH2 0x628 JUMPI PUSH1 0x40 MLOAD PUSH32 0x8C379A000000000000000000000000000000000000000000000000000000000 DUP2 MSTORE PUSH1 0x4 ADD PUSH2 0x61F SWAP1 PUSH2 0x2411 JUMP JUMPDEST PUSH1 0x40 MLOAD DUP1 SWAP2 SUB SWAP1 REVERT JUMPDEST DUP2 PUSH1 0x3 PUSH0 DUP4 DUP2 MSTORE PUSH1 0x20 ADD SWAP1 DUP2 MSTORE PUSH1 0x20 ADD PUSH0 KECCAK256 PUSH0 PUSH2 0x100 EXP DUP2 SLOAD DUP2 PUSH20 0xFFFFFFFFFFFFFFFFFFFFFFFFFFFFFFFFFFFFFFFF MUL NOT AND SWAP1 DUP4 PUSH20 0xFFFFFFFFFFFFFFFFFFFFFFFFFFFFFFFFFFFFFFFF AND MUL OR SWAP1 SSTORE POP DUP1 DUP3 PUSH20 0xFFFFFFFFFFFFFFFFFFFFFFFFFFFFFFFFFFFFFFFF AND CALLER PUSH20 0xFFFFFFFFFFFFFFFFFFFFFFFFFFFFFFFFFFFFFFFF AND PUSH32 0x8C5BE1E5EBEC7D5BD14F71427D1E84F3DD0314C0F7B2291E5B200AC8C7C3B925 PUSH1 0x40 MLOAD PUSH1 0x40 MLOAD DUP1 SWAP2 SUB SWAP1 LOG4 POP POP JUMP JUMPDEST CALLER PUSH20 0xFFFFFFFFFFFFFFFFFFFFFFFFFFFFFFFFFFFFFFFF AND PUSH1 0x3 PUSH0 DUP7 DUP2 MSTORE PUSH1 0x20 ADD SWAP1 DUP2 MSTORE PUSH1 0x20 ADD PUSH0 KECCAK256 PUSH0 SWAP1 SLOAD SWAP1 PUSH2 0x100 EXP SWAP1 DIV PUSH20 0xFFFFFFFFFFFFFFFFFFFFFFFFFFFFFFFFFFFFFFFF AND PUSH20 0xFFFFFFFFFFFFFFFFFFFFFFFFFFFFFFFFFFFFFFFF AND EQ DUP1 PUSH2 0x79B JUMPI POP CALLER PUSH20 0xFFFFFFFFFFFFFFFFFFFFFFFFFFFFFFFFFFFFFFFF AND PUSH1 0x2 PUSH0 DUP7 DUP2 MSTORE PUSH1 0x20 ADD SWAP1 DUP2 MSTORE PUSH1 0x20 ADD PUSH0 KECCAK256 PUSH0 SWAP1 SLOAD SWAP1 PUSH2 0x100 EXP SWAP1 DIV PUSH20 0xFFFFFFFFFFFFFFFFFFFFFFFFFFFFFFFFFFFFFFFF AND PUSH20 0xFFFFFFFFFFFFFFFFFFFFFFFFFFFFFFFFFFFFFFFF AND EQ JUMPDEST PUSH2 0x7DA JUMPI PUSH1 0x40 MLOAD PUSH32 0x8C379A000000000000000000000000000000000000000000000000000000000 DUP2 MSTORE PUSH1 0x4 ADD PUSH2 0x7D1 SWAP1 PUSH2 0x2341 JUMP JUMPDEST PUSH1 0x40 MLOAD DUP1 SWAP2 SUB SWAP1 REVERT JUMPDEST PUSH0 PUSH1 0x4 PUSH0 DUP7 DUP2 MSTORE PUSH1 0x20 ADD SWAP1 DUP2 MSTORE PUSH1 0x20 ADD PUSH0 KECCAK256 PUSH0 ADD DUP1 SLOAD PUSH2 0x7F9 SWAP1 PUSH2 0x224F JUMP JUMPDEST SWAP1 POP SUB PUSH2 0x83B JUMPI PUSH1 0x40 MLOAD PUSH32 0x8C379A000000000000000000000000000000000000000000000000000000000 DUP2 MSTORE PUSH1 0x4 ADD PUSH2 0x832 SWAP1 PUSH2 0x22D9 JUMP JUMPDEST PUSH1 0x40 MLOAD DUP1 SWAP2 SUB SWAP1 REVERT JUMPDEST PUSH0 PUSH1 0x4 PUSH0 DUP7 DUP2 MSTORE PUSH1 0x20 ADD SWAP1 DUP2 MSTORE PUSH1 0x20 ADD PUSH0 KECCAK256 PUSH1 0x1 ADD PUSH0 ADD DUP1 SLOAD SWAP1 POP SWAP1 POP DUP1 PUSH1 0x2 PUSH2 0x865 SWAP2 SWAP1 PUSH2 0x258B JUMP JUMPDEST DUP3 PUSH2 0x870 SWAP2 SWAP1 PUSH2 0x25D5 JUMP JUMPDEST CALLVALUE LT ISZERO PUSH2 0x8B2 JUMPI PUSH1 0x40 MLOAD PUSH32 0x8C379A000000000000000000000000000000000000000000000000000000000 DUP2 MSTORE PUSH1 0x4 ADD PUSH2 0x8A9 SWAP1 PUSH2 0x2660 JUMP JUMPDEST PUSH1 0x40 MLOAD DUP1 SWAP2 SUB SWAP1 REVERT JUMPDEST PUSH0 PUSH2 0x91E DUP6 DUP6 DUP1 DUP1 PUSH1 0x1F ADD PUSH1 0x20 DUP1 SWAP2 DIV MUL PUSH1 0x20 ADD PUSH1 0x40 MLOAD SWAP1 DUP2 ADD PUSH1 0x40 MSTORE DUP1 SWAP4 SWAP3 SWAP2 SWAP1 DUP2 DUP2 MSTORE PUSH1 0x20 ADD DUP4 DUP4 DUP1 DUP3 DUP5 CALLDATACOPY PUSH0 DUP2 DUP5 ADD MSTORE PUSH1 0x1F NOT PUSH1 0x1F DUP3 ADD AND SWAP1 POP DUP1 DUP4 ADD SWAP3 POP POP POP POP POP POP POP PUSH1 0x4 PUSH0 DUP10 DUP2 MSTORE PUSH1 0x20 ADD SWAP1 DUP2 MSTORE PUSH1 0x20 ADD PUSH0 KECCAK256 PUSH1 0x1 ADD PUSH0 ADD PUSH2 0x1C63 SWAP1 SWAP2 SWAP1 PUSH4 0xFFFFFFFF AND JUMP JUMPDEST SWAP1 POP DUP1 ISZERO PUSH2 0x961 JUMPI PUSH1 0x40 MLOAD PUSH32 0x8C379A000000000000000000000000000000000000000000000000000000000 DUP2 MSTORE PUSH1 0x4 ADD PUSH2 0x958 SWAP1 PUSH2 0x26C8 JUMP JUMPDEST PUSH1 0x40 MLOAD DUP1 SWAP2 SUB SWAP1 REVERT JUMPDEST PUSH1 0x4 PUSH0 DUP8 DUP2 MSTORE PUSH1 0x20 ADD SWAP1 DUP2 MSTORE PUSH1 0x20 ADD PUSH0 KECCAK256 PUSH1 0x1 ADD PUSH0 ADD DUP6 DUP6 SWAP1 SWAP2 DUP1 PUSH1 0x1 DUP2 SLOAD ADD DUP1 DUP3 SSTORE DUP1 SWAP2 POP POP PUSH1 0x1 SWAP1 SUB SWAP1 PUSH0 MSTORE PUSH1 0x20 PUSH0 KECCAK256 ADD PUSH0 SWAP1 SWAP2 SWAP3 SWAP1 SWAP2 SWAP3 SWAP1 SWAP2 SWAP3 SWAP1 SWAP2 SWAP3 POP SWAP2 DUP3 PUSH2 0x9AF SWAP3 SWAP2 SWAP1 PUSH2 0x28BD JUMP JUMPDEST POP PUSH1 0x4 PUSH0 DUP8 DUP2 MSTORE PUSH1 0x20 ADD SWAP1 DUP2 MSTORE PUSH1 0x20 ADD PUSH0 KECCAK256 PUSH1 0x1 ADD PUSH1 0x1 ADD DUP4 SWAP1 DUP1 PUSH1 0x1 DUP2 SLOAD ADD DUP1 DUP3 SSTORE DUP1 SWAP2 POP POP PUSH1 0x1 SWAP1 SUB SWAP1 PUSH0 MSTORE PUSH1 0x20 PUSH0 KECCAK256 ADD PUSH0 SWAP1 SWAP2 SWAP1 SWAP2 SWAP1 SWAP2 POP SSTORE POP POP POP POP POP POP JUMP JUMPDEST PUSH0 PUSH20 0xFFFFFFFFFFFFFFFFFFFFFFFFFFFFFFFFFFFFFFFF AND DUP3 PUSH20 0xFFFFFFFFFFFFFFFFFFFFFFFFFFFFFFFFFFFFFFFF AND SUB PUSH2 0xA61 JUMPI PUSH1 0x40 MLOAD PUSH32 0x8C379A000000000000000000000000000000000000000000000000000000000 DUP2 MSTORE PUSH1 0x4 ADD PUSH2 0xA58 SWAP1 PUSH2 0x29D4 JUMP JUMPDEST PUSH1 0x40 MLOAD DUP1 SWAP2 SUB SWAP1 REVERT JUMPDEST DUP3 PUSH20 0xFFFFFFFFFFFFFFFFFFFFFFFFFFFFFFFFFFFFFFFF AND PUSH1 0x2 PUSH0 DUP4 DUP2 MSTORE PUSH1 0x20 ADD SWAP1 DUP2 MSTORE PUSH1 0x20 ADD PUSH0 KECCAK256 PUSH0 SWAP1 SLOAD SWAP1 PUSH2 0x100 EXP SWAP1 DIV PUSH20 0xFFFFFFFFFFFFFFFFFFFFFFFFFFFFFFFFFFFFFFFF AND PUSH20 0xFFFFFFFFFFFFFFFFFFFFFFFFFFFFFFFFFFFFFFFF AND EQ DUP1 ISZERO PUSH2 0xB8D JUMPI POP CALLER PUSH20 0xFFFFFFFFFFFFFFFFFFFFFFFFFFFFFFFFFFFFFFFF AND PUSH1 0x2 PUSH0 DUP4 DUP2 MSTORE PUSH1 0x20 ADD SWAP1 DUP2 MSTORE PUSH1 0x20 ADD PUSH0 KECCAK256 PUSH0 SWAP1 SLOAD SWAP1 PUSH2 0x100 EXP SWAP1 DIV PUSH20 0xFFFFFFFFFFFFFFFFFFFFFFFFFFFFFFFFFFFFFFFF AND PUSH20 0xFFFFFFFFFFFFFFFFFFFFFFFFFFFFFFFFFFFFFFFF AND EQ DUP1 PUSH2 0xB8C JUMPI POP CALLER PUSH20 0xFFFFFFFFFFFFFFFFFFFFFFFFFFFFFFFFFFFFFFFF AND PUSH1 0x3 PUSH0 DUP4 DUP2 MSTORE PUSH1 0x20 ADD SWAP1 DUP2 MSTORE PUSH1 0x20 ADD PUSH0 KECCAK256 PUSH0 SWAP1 SLOAD SWAP1 PUSH2 0x100 EXP SWAP1 DIV PUSH20 0xFFFFFFFFFFFFFFFFFFFFFFFFFFFFFFFFFFFFFFFF AND PUSH20 0xFFFFFFFFFFFFFFFFFFFFFFFFFFFFFFFFFFFFFFFF AND EQ JUMPDEST JUMPDEST PUSH2 0xBCC JUMPI PUSH1 0x40 MLOAD PUSH32 0x8C379A000000000000000000000000000000000000000000000000000000000 DUP2 MSTORE PUSH1 0x4 ADD PUSH2 0xBC3 SWAP1 PUSH2 0x2341 JUMP JUMPDEST PUSH1 0x40 MLOAD DUP1 SWAP2 SUB SWAP1 REVERT JUMPDEST PUSH2 0xBEB PUSH1 0x4 PUSH0 DUP4 DUP2 MSTORE PUSH1 0x20 ADD SWAP1 DUP2 MSTORE PUSH1 0x20 ADD PUSH0 KECCAK256 PUSH1 0x1 ADD PUSH1 0x1 ADD PUSH2 0x1C10 JUMP JUMPDEST CALLVALUE LT ISZERO PUSH2 0xC2D JUMPI PUSH1 0x40 MLOAD PUSH32 0x8C379A000000000000000000000000000000000000000000000000000000000 DUP2 MSTORE PUSH1 0x4 ADD PUSH2 0xC24 SWAP1 PUSH2 0x2411 JUMP JUMPDEST PUSH1 0x40 MLOAD DUP1 SWAP2 SUB SWAP1 REVERT JUMPDEST PUSH1 0x1 DUP1 PUSH0 PUSH1 0x2 PUSH0 DUP6 DUP2 MSTORE PUSH1 0x20 ADD SWAP1 DUP2 MSTORE PUSH1 0x20 ADD PUSH0 KECCAK256 PUSH0 SWAP1 SLOAD SWAP1 PUSH2 0x100 EXP SWAP1 DIV PUSH20 0xFFFFFFFFFFFFFFFFFFFFFFFFFFFFFFFFFFFFFFFF AND PUSH20 0xFFFFFFFFFFFFFFFFFFFFFFFFFFFFFFFFFFFFFFFF AND PUSH20 0xFFFFFFFFFFFFFFFFFFFFFFFFFFFFFFFFFFFFFFFF AND DUP2 MSTORE PUSH1 0x20 ADD SWAP1 DUP2 MSTORE PUSH1 0x20 ADD PUSH0 KECCAK256 PUSH0 DUP3 DUP3 SLOAD PUSH2 0xCA9 SWAP2 SWAP1 PUSH2 0x29F2 JUMP JUMPDEST SWAP3 POP POP DUP2 SWAP1 SSTORE POP PUSH1 0x1 DUP1 PUSH0 DUP5 PUSH20 0xFFFFFFFFFFFFFFFFFFFFFFFFFFFFFFFFFFFFFFFF AND PUSH20 0xFFFFFFFFFFFFFFFFFFFFFFFFFFFFFFFFFFFFFFFF AND DUP2 MSTORE PUSH1 0x20 ADD SWAP1 DUP2 MSTORE PUSH1 0x20 ADD PUSH0 KECCAK256 PUSH0 DUP3 DUP3 SLOAD PUSH2 0xCFC SWAP2 SWAP1 PUSH2 0x2A25 JUMP JUMPDEST SWAP3 POP POP DUP2 SWAP1 SSTORE POP DUP2 PUSH1 0x2 PUSH0 DUP4 DUP2 MSTORE PUSH1 0x20 ADD SWAP1 DUP2 MSTORE PUSH1 0x20 ADD PUSH0 KECCAK256 PUSH0 PUSH2 0x100 EXP DUP2 SLOAD DUP2 PUSH20 0xFFFFFFFFFFFFFFFFFFFFFFFFFFFFFFFFFFFFFFFF MUL NOT AND SWAP1 DUP4 PUSH20 0xFFFFFFFFFFFFFFFFFFFFFFFFFFFFFFFFFFFFFFFF AND MUL OR SWAP1 SSTORE POP PUSH0 PUSH1 0x3 PUSH0 DUP4 DUP2 MSTORE PUSH1 0x20 ADD SWAP1 DUP2 MSTORE PUSH1 0x20 ADD PUSH0 KECCAK256 PUSH0 PUSH2 0x100 EXP DUP2 SLOAD DUP2 PUSH20 0xFFFFFFFFFFFFFFFFFFFFFFFFFFFFFFFFFFFFFFFF MUL NOT AND SWAP1 DUP4 PUSH20 0xFFFFFFFFFFFFFFFFFFFFFFFFFFFFFFFFFFFFFFFF AND MUL OR SWAP1 SSTORE POP DUP1 DUP3 PUSH20 0xFFFFFFFFFFFFFFFFFFFFFFFFFFFFFFFFFFFFFFFF AND DUP5 PUSH20 0xFFFFFFFFFFFFFFFFFFFFFFFFFFFFFFFFFFFFFFFF AND PUSH32 0xDDF252AD1BE2C89B69C2B068FC378DAA952BA7F163C4A11628F55A4DF523B3EF PUSH1 0x40 MLOAD PUSH1 0x40 MLOAD DUP1 SWAP2 SUB SWAP1 LOG4 POP POP POP JUMP JUMPDEST PUSH0 PUSH20 0xFFFFFFFFFFFFFFFFFFFFFFFFFFFFFFFFFFFFFFFF AND DUP3 PUSH20 0xFFFFFFFFFFFFFFFFFFFFFFFFFFFFFFFFFFFFFFFF AND SUB PUSH2 0xE6F JUMPI PUSH1 0x40 MLOAD PUSH32 0x8C379A000000000000000000000000000000000000000000000000000000000 DUP2 MSTORE PUSH1 0x4 ADD PUSH2 0xE66 SWAP1 PUSH2 0x29D4 JUMP JUMPDEST PUSH1 0x40 MLOAD DUP1 SWAP2 SUB SWAP1 REVERT JUMPDEST DUP3 PUSH20 0xFFFFFFFFFFFFFFFFFFFFFFFFFFFFFFFFFFFFFFFF AND PUSH1 0x2 PUSH0 DUP4 DUP2 MSTORE PUSH1 0x20 ADD SWAP1 DUP2 MSTORE PUSH1 0x20 ADD PUSH0 KECCAK256 PUSH0 SWAP1 SLOAD SWAP1 PUSH2 0x100 EXP SWAP1 DIV PUSH20 0xFFFFFFFFFFFFFFFFFFFFFFFFFFFFFFFFFFFFFFFF AND PUSH20 0xFFFFFFFFFFFFFFFFFFFFFFFFFFFFFFFFFFFFFFFF AND EQ DUP1 ISZERO PUSH2 0xF9B JUMPI POP CALLER PUSH20 0xFFFFFFFFFFFFFFFFFFFFFFFFFFFFFFFFFFFFFFFF AND PUSH1 0x2 PUSH0 DUP4 DUP2 MSTORE PUSH1 0x20 ADD SWAP1 DUP2 MSTORE PUSH1 0x20 ADD PUSH0 KECCAK256 PUSH0 SWAP1 SLOAD SWAP1 PUSH2 0x100 EXP SWAP1 DIV PUSH20 0xFFFFFFFFFFFFFFFFFFFFFFFFFFFFFFFFFFFFFFFF AND PUSH20 0xFFFFFFFFFFFFFFFFFFFFFFFFFFFFFFFFFFFFFFFF AND EQ DUP1 PUSH2 0xF9A JUMPI POP CALLER PUSH20 0xFFFFFFFFFFFFFFFFFFFFFFFFFFFFFFFFFFFFFFFF AND PUSH1 0x3 PUSH0 DUP4 DUP2 MSTORE PUSH1 0x20 ADD SWAP1 DUP2 MSTORE PUSH1 0x20 ADD PUSH0 KECCAK256 PUSH0 SWAP1 SLOAD SWAP1 PUSH2 0x100 EXP SWAP1 DIV PUSH20 0xFFFFFFFFFFFFFFFFFFFFFFFFFFFFFFFFFFFFFFFF AND PUSH20 0xFFFFFFFFFFFFFFFFFFFFFFFFFFFFFFFFFFFFFFFF AND EQ JUMPDEST JUMPDEST PUSH2 0xFDA JUMPI PUSH1 0x40 MLOAD PUSH32 0x8C379A000000000000000000000000000000000000000000000000000000000 DUP2 MSTORE PUSH1 0x4 ADD PUSH2 0xFD1 SWAP1 PUSH2 0x2341 JUMP JUMPDEST PUSH1 0x40 MLOAD DUP1 SWAP2 SUB SWAP1 REVERT JUMPDEST PUSH2 0xFF9 PUSH1 0x4 PUSH0 DUP4 DUP2 MSTORE PUSH1 0x20 ADD SWAP1 DUP2 MSTORE PUSH1 0x20 ADD PUSH0 KECCAK256 PUSH1 0x1 ADD PUSH1 0x1 ADD PUSH2 0x1C10 JUMP JUMPDEST CALLVALUE LT ISZERO PUSH2 0x103B JUMPI PUSH1 0x40 MLOAD PUSH32 0x8C379A000000000000000000000000000000000000000000000000000000000 DUP2 MSTORE PUSH1 0x4 ADD PUSH2 0x1032 SWAP1 PUSH2 0x2411 JUMP JUMPDEST PUSH1 0x40 MLOAD DUP1 SWAP2 SUB SWAP1 REVERT JUMPDEST PUSH0 DUP3 PUSH20 0xFFFFFFFFFFFFFFFFFFFFFFFFFFFFFFFFFFFFFFFF AND EXTCODESIZE GT ISZERO PUSH2 0x11DA JUMPI DUP2 PUSH20 0xFFFFFFFFFFFFFFFFFFFFFFFFFFFFFFFFFFFFFFFF AND PUSH4 0x150B7A02 CALLER DUP6 DUP5 PUSH1 0x40 MLOAD DUP5 PUSH4 0xFFFFFFFF AND PUSH1 0xE0 SHL DUP2 MSTORE PUSH1 0x4 ADD PUSH2 0x1097 SWAP4 SWAP3 SWAP2 SWAP1 PUSH2 0x2A8B JUMP JUMPDEST PUSH1 0x20 PUSH1 0x40 MLOAD DUP1 DUP4 SUB DUP2 PUSH0 DUP8 GAS CALL SWAP3 POP POP POP DUP1 ISZERO PUSH2 0x10D2 JUMPI POP PUSH1 0x40 MLOAD RETURNDATASIZE PUSH1 0x1F NOT PUSH1 0x1F DUP3 ADD AND DUP3 ADD DUP1 PUSH1 0x40 MSTORE POP DUP2 ADD SWAP1 PUSH2 0x10CF SWAP2 SWAP1 PUSH2 0x2AE7 JUMP JUMPDEST PUSH1 0x1 JUMPDEST PUSH2 0x1151 JUMPI RETURNDATASIZE DUP1 PUSH0 DUP2 EQ PUSH2 0x1100 JUMPI PUSH1 0x40 MLOAD SWAP2 POP PUSH1 0x1F NOT PUSH1 0x3F RETURNDATASIZE ADD AND DUP3 ADD PUSH1 0x40 MSTORE RETURNDATASIZE DUP3 MSTORE RETURNDATASIZE PUSH0 PUSH1 0x20 DUP5 ADD RETURNDATACOPY PUSH2 0x1105 JUMP JUMPDEST PUSH1 0x60 SWAP2 POP JUMPDEST POP PUSH0 DUP2 MLOAD SUB PUSH2 0x1149 JUMPI PUSH1 0x40 MLOAD PUSH32 0x8C379A000000000000000000000000000000000000000000000000000000000 DUP2 MSTORE PUSH1 0x4 ADD PUSH2 0x1140 SWAP1 PUSH2 0x2B5C JUMP JUMPDEST PUSH1 0x40 MLOAD DUP1 SWAP2 SUB SWAP1 REVERT JUMPDEST DUP1 MLOAD PUSH1 0x20 DUP3 ADD REVERT JUMPDEST PUSH4 0x150B7A02 PUSH1 0xE0 SHL PUSH28 0xFFFFFFFFFFFFFFFFFFFFFFFFFFFFFFFFFFFFFFFFFFFFFFFFFFFFFFFF NOT AND DUP2 PUSH28 0xFFFFFFFFFFFFFFFFFFFFFFFFFFFFFFFFFFFFFFFFFFFFFFFFFFFFFFFF NOT AND EQ PUSH2 0x11D8 JUMPI PUSH1 0x40 MLOAD PUSH32 0x8C379A000000000000000000000000000000000000000000000000000000000 DUP2 MSTORE PUSH1 0x4 ADD PUSH2 0x11CF SWAP1 PUSH2 0x2BC4 JUMP JUMPDEST PUSH1 0x40 MLOAD DUP1 SWAP2 SUB SWAP1 REVERT JUMPDEST POP JUMPDEST PUSH1 0x1 DUP1 PUSH0 PUSH1 0x2 PUSH0 DUP6 DUP2 MSTORE PUSH1 0x20 ADD SWAP1 DUP2 MSTORE PUSH1 0x20 ADD PUSH0 KECCAK256 PUSH0 SWAP1 SLOAD SWAP1 PUSH2 0x100 EXP SWAP1 DIV PUSH20 0xFFFFFFFFFFFFFFFFFFFFFFFFFFFFFFFFFFFFFFFF AND PUSH20 0xFFFFFFFFFFFFFFFFFFFFFFFFFFFFFFFFFFFFFFFF AND PUSH20 0xFFFFFFFFFFFFFFFFFFFFFFFFFFFFFFFFFFFFFFFF AND DUP2 MSTORE PUSH1 0x20 ADD SWAP1 DUP2 MSTORE PUSH1 0x20 ADD PUSH0 KECCAK256 PUSH0 DUP3 DUP3 SLOAD PUSH2 0x1256 SWAP2 SWAP1 PUSH2 0x29F2 JUMP JUMPDEST SWAP3 POP POP DUP2 SWAP1 SSTORE POP PUSH1 0x1 DUP1 PUSH0 DUP5 PUSH20 0xFFFFFFFFFFFFFFFFFFFFFFFFFFFFFFFFFFFFFFFF AND PUSH20 0xFFFFFFFFFFFFFFFFFFFFFFFFFFFFFFFFFFFFFFFF AND DUP2 MSTORE PUSH1 0x20 ADD SWAP1 DUP2 MSTORE PUSH1 0x20 ADD PUSH0 KECCAK256 PUSH0 DUP3 DUP3 SLOAD PUSH2 0x12A9 SWAP2 SWAP1 PUSH2 0x2A25 JUMP JUMPDEST SWAP3 POP POP DUP2 SWAP1 SSTORE POP DUP2 PUSH1 0x2 PUSH0 DUP4 DUP2 MSTORE PUSH1 0x20 ADD SWAP1 DUP2 MSTORE PUSH1 0x20 ADD PUSH0 KECCAK256 PUSH0 PUSH2 0x100 EXP DUP2 SLOAD DUP2 PUSH20 0xFFFFFFFFFFFFFFFFFFFFFFFFFFFFFFFFFFFFFFFF MUL NOT AND SWAP1 DUP4 PUSH20 0xFFFFFFFFFFFFFFFFFFFFFFFFFFFFFFFFFFFFFFFF AND MUL OR SWAP1 SSTORE POP PUSH0 PUSH1 0x3 PUSH0 DUP4 DUP2 MSTORE PUSH1 0x20 ADD SWAP1 DUP2 MSTORE PUSH1 0x20 ADD PUSH0 KECCAK256 PUSH0 PUSH2 0x100 EXP DUP2 SLOAD DUP2 PUSH20 0xFFFFFFFFFFFFFFFFFFFFFFFFFFFFFFFFFFFFFFFF MUL NOT AND SWAP1 DUP4 PUSH20 0xFFFFFFFFFFFFFFFFFFFFFFFFFFFFFFFFFFFFFFFF AND MUL OR SWAP1 SSTORE POP DUP1 DUP3 PUSH20 0xFFFFFFFFFFFFFFFFFFFFFFFFFFFFFFFFFFFFFFFF AND DUP5 PUSH20 0xFFFFFFFFFFFFFFFFFFFFFFFFFFFFFFFFFFFFFFFF AND PUSH32 0xDDF252AD1BE2C89B69C2B068FC378DAA952BA7F163C4A11628F55A4DF523B3EF PUSH1 0x40 MLOAD PUSH1 0x40 MLOAD DUP1 SWAP2 SUB SWAP1 LOG4 POP POP POP JUMP JUMPDEST PUSH0 PUSH20 0xFFFFFFFFFFFFFFFFFFFFFFFFFFFFFFFFFFFFFFFF AND PUSH1 0x2 PUSH0 DUP4 DUP2 MSTORE PUSH1 0x20 ADD SWAP1 DUP2 MSTORE PUSH1 0x20 ADD PUSH0 KECCAK256 PUSH0 SWAP1 SLOAD SWAP1 PUSH2 0x100 EXP SWAP1 DIV PUSH20 0xFFFFFFFFFFFFFFFFFFFFFFFFFFFFFFFFFFFFFFFF AND PUSH20 0xFFFFFFFFFFFFFFFFFFFFFFFFFFFFFFFFFFFFFFFF AND EQ ISZERO DUP1 ISZERO PUSH2 0x1475 JUMPI POP CALLER PUSH20 0xFFFFFFFFFFFFFFFFFFFFFFFFFFFFFFFFFFFFFFFF AND PUSH1 0x2 PUSH0 DUP4 DUP2 MSTORE PUSH1 0x20 ADD SWAP1 DUP2 MSTORE PUSH1 0x20 ADD PUSH0 KECCAK256 PUSH0 SWAP1 SLOAD SWAP1 PUSH2 0x100 EXP SWAP1 DIV PUSH20 0xFFFFFFFFFFFFFFFFFFFFFFFFFFFFFFFFFFFFFFFF AND PUSH20 0xFFFFFFFFFFFFFFFFFFFFFFFFFFFFFFFFFFFFFFFF AND EQ JUMPDEST PUSH2 0x14B4 JUMPI PUSH1 0x40 MLOAD PUSH32 0x8C379A000000000000000000000000000000000000000000000000000000000 DUP2 MSTORE PUSH1 0x4 ADD PUSH2 0x14AB SWAP1 PUSH2 0x2341 JUMP JUMPDEST PUSH1 0x40 MLOAD DUP1 SWAP2 SUB SWAP1 REVERT JUMPDEST PUSH1 0x1 PUSH1 0x5 PUSH0 DUP3 DUP3 SLOAD PUSH2 0x14C6 SWAP2 SWAP1 PUSH2 0x29F2 JUMP JUMPDEST SWAP3 POP POP DUP2 SWAP1 SSTORE POP PUSH1 0x1 DUP1 PUSH0 CALLER PUSH20 0xFFFFFFFFFFFFFFFFFFFFFFFFFFFFFFFFFFFFFFFF AND PUSH20 0xFFFFFFFFFFFFFFFFFFFFFFFFFFFFFFFFFFFFFFFF AND DUP2 MSTORE PUSH1 0x20 ADD SWAP1 DUP2 MSTORE PUSH1 0x20 ADD PUSH0 KECCAK256 PUSH0 DUP3 DUP3 SLOAD PUSH2 0x1519 SWAP2 SWAP1 PUSH2 0x29F2 JUMP JUMPDEST SWAP3 POP POP DUP2 SWAP1 SSTORE POP PUSH1 0x2 PUSH0 DUP3 DUP2 MSTORE PUSH1 0x20 ADD SWAP1 DUP2 MSTORE PUSH1 0x20 ADD PUSH0 KECCAK256 PUSH0 PUSH2 0x100 EXP DUP2 SLOAD SWAP1 PUSH20 0xFFFFFFFFFFFFFFFFFFFFFFFFFFFFFFFFFFFFFFFF MUL NOT AND SWAP1 SSTORE PUSH1 0x3 PUSH0 DUP3 DUP2 MSTORE PUSH1 0x20 ADD SWAP1 DUP2 MSTORE PUSH1 0x20 ADD PUSH0 KECCAK256 PUSH0 PUSH2 0x100 EXP DUP2 SLOAD SWAP1 PUSH20 0xFFFFFFFFFFFFFFFFFFFFFFFFFFFFFFFFFFFFFFFF MUL NOT AND SWAP1 SSTORE PUSH1 0x4 PUSH0 DUP3 DUP2 MSTORE PUSH1 0x20 ADD SWAP1 DUP2 MSTORE PUSH1 0x20 ADD PUSH0 KECCAK256 PUSH0 PUSH0 DUP3 ADD PUSH0 PUSH2 0x15A6 SWAP2 SWAP1 PUSH2 0x1D5E JUMP JUMPDEST PUSH1 0x1 DUP3 ADD PUSH0 PUSH0 DUP3 ADD PUSH0 PUSH2 0x15B9 SWAP2 SWAP1 PUSH2 0x1D9B JUMP JUMPDEST PUSH1 0x1 DUP3 ADD PUSH0 PUSH2 0x15C8 SWAP2 SWAP1 PUSH2 0x1DB9 JUMP JUMPDEST POP POP POP POP PUSH0 CALLER PUSH20 0xFFFFFFFFFFFFFFFFFFFFFFFFFFFFFFFFFFFFFFFF AND PUSH2 0x3E8 PUSH1 0x40 MLOAD PUSH2 0x15F3 SWAP1 PUSH2 0x2C0C JUMP JUMPDEST PUSH0 PUSH1 0x40 MLOAD DUP1 DUP4 SUB DUP2 DUP6 DUP8 GAS CALL SWAP3 POP POP POP RETURNDATASIZE DUP1 PUSH0 DUP2 EQ PUSH2 0x162D JUMPI PUSH1 0x40 MLOAD SWAP2 POP PUSH1 0x1F NOT PUSH1 0x3F RETURNDATASIZE ADD AND DUP3 ADD PUSH1 0x40 MSTORE RETURNDATASIZE DUP3 MSTORE RETURNDATASIZE PUSH0 PUSH1 0x20 DUP5 ADD RETURNDATACOPY PUSH2 0x1632 JUMP JUMPDEST PUSH1 0x60 SWAP2 POP JUMPDEST POP POP SWAP1 POP DUP1 PUSH2 0x1676 JUMPI PUSH1 0x40 MLOAD PUSH32 0x8C379A000000000000000000000000000000000000000000000000000000000 DUP2 MSTORE PUSH1 0x4 ADD PUSH2 0x166D SWAP1 PUSH2 0x2C6A JUMP JUMPDEST PUSH1 0x40 MLOAD DUP1 SWAP2 SUB SWAP1 REVERT JUMPDEST POP POP JUMP JUMPDEST PUSH0 PUSH0 PUSH1 0x2 PUSH0 DUP5 DUP2 MSTORE PUSH1 0x20 ADD SWAP1 DUP2 MSTORE PUSH1 0x20 ADD PUSH0 KECCAK256 PUSH0 SWAP1 SLOAD SWAP1 PUSH2 0x100 EXP SWAP1 DIV PUSH20 0xFFFFFFFFFFFFFFFFFFFFFFFFFFFFFFFFFFFFFFFF AND SWAP1 POP PUSH0 PUSH20 0xFFFFFFFFFFFFFFFFFFFFFFFFFFFFFFFFFFFFFFFF AND DUP2 PUSH20 0xFFFFFFFFFFFFFFFFFFFFFFFFFFFFFFFFFFFFFFFF AND SUB PUSH2 0x171D JUMPI PUSH1 0x40 MLOAD PUSH32 0x8C379A000000000000000000000000000000000000000000000000000000000 DUP2 MSTORE PUSH1 0x4 ADD PUSH2 0x1714 SWAP1 PUSH2 0x22D9 JUMP JUMPDEST PUSH1 0x40 MLOAD DUP1 SWAP2 SUB SWAP1 REVERT JUMPDEST DUP1 SWAP2 POP POP SWAP2 SWAP1 POP JUMP JUMPDEST PUSH0 PUSH0 PUSH20 0xFFFFFFFFFFFFFFFFFFFFFFFFFFFFFFFFFFFFFFFF AND DUP3 PUSH20 0xFFFFFFFFFFFFFFFFFFFFFFFFFFFFFFFFFFFFFFFF AND SUB PUSH2 0x1795 JUMPI PUSH1 0x40 MLOAD PUSH32 0x8C379A000000000000000000000000000000000000000000000000000000000 DUP2 MSTORE PUSH1 0x4 ADD PUSH2 0x178C SWAP1 PUSH2 0x2CD2 JUMP JUMPDEST PUSH1 0x40 MLOAD DUP1 SWAP2 SUB SWAP1 REVERT JUMPDEST PUSH1 0x1 PUSH0 DUP4 PUSH20 0xFFFFFFFFFFFFFFFFFFFFFFFFFFFFFFFFFFFFFFFF AND PUSH20 0xFFFFFFFFFFFFFFFFFFFFFFFFFFFFFFFFFFFFFFFF AND DUP2 MSTORE PUSH1 0x20 ADD SWAP1 DUP2 MSTORE PUSH1 0x20 ADD PUSH0 KECCAK256 SLOAD SWAP1 POP SWAP2 SWAP1 POP JUMP JUMPDEST PUSH0 PUSH2 0x3E8 CALLVALUE LT ISZERO PUSH2 0x1820 JUMPI PUSH1 0x40 MLOAD PUSH32 0x8C379A000000000000000000000000000000000000000000000000000000000 DUP2 MSTORE PUSH1 0x4 ADD PUSH2 0x1817 SWAP1 PUSH2 0x2D3A JUMP JUMPDEST PUSH1 0x40 MLOAD DUP1 SWAP2 SUB SWAP1 REVERT JUMPDEST PUSH1 0x1 DUP1 PUSH0 CALLER PUSH20 0xFFFFFFFFFFFFFFFFFFFFFFFFFFFFFFFFFFFFFFFF AND PUSH20 0xFFFFFFFFFFFFFFFFFFFFFFFFFFFFFFFFFFFFFFFF AND DUP2 MSTORE PUSH1 0x20 ADD SWAP1 DUP2 MSTORE PUSH1 0x20 ADD PUSH0 KECCAK256 PUSH0 DUP3 DUP3 SLOAD PUSH2 0x186C SWAP2 SWAP1 PUSH2 0x2A25 JUMP JUMPDEST SWAP3 POP POP DUP2 SWAP1 SSTORE POP CALLER PUSH1 0x2 PUSH0 PUSH0 SLOAD DUP2 MSTORE PUSH1 0x20 ADD SWAP1 DUP2 MSTORE PUSH1 0x20 ADD PUSH0 KECCAK256 PUSH0 PUSH2 0x100 EXP DUP2 SLOAD DUP2 PUSH20 0xFFFFFFFFFFFFFFFFFFFFFFFFFFFFFFFFFFFFFFFF MUL NOT AND SWAP1 DUP4 PUSH20 0xFFFFFFFFFFFFFFFFFFFFFFFFFFFFFFFFFFFFFFFF AND MUL OR SWAP1 SSTORE POP DUP3 DUP3 PUSH1 0x4 PUSH0 PUSH0 SLOAD DUP2 MSTORE PUSH1 0x20 ADD SWAP1 DUP2 MSTORE PUSH1 0x20 ADD PUSH0 KECCAK256 PUSH0 ADD SWAP2 DUP3 PUSH2 0x18E6 SWAP3 SWAP2 SWAP1 PUSH2 0x28BD JUMP JUMPDEST POP PUSH1 0x1 PUSH1 0x5 PUSH0 DUP3 DUP3 SLOAD PUSH2 0x18F9 SWAP2 SWAP1 PUSH2 0x2A25 JUMP JUMPDEST SWAP3 POP POP DUP2 SWAP1 SSTORE POP PUSH1 0x1 PUSH0 PUSH0 DUP3 DUP3 SLOAD PUSH2 0x1911 SWAP2 SWAP1 PUSH2 0x2A25 JUMP JUMPDEST SWAP3 POP POP DUP2 SWAP1 SSTORE POP PUSH1 0x1 PUSH0 SLOAD PUSH2 0x1926 SWAP2 SWAP1 PUSH2 0x29F2 JUMP JUMPDEST SWAP1 POP SWAP3 SWAP2 POP POP JUMP JUMPDEST PUSH2 0x3E8 DUP2 JUMP JUMPDEST PUSH1 0x6 PUSH0 SWAP1 SLOAD SWAP1 PUSH2 0x100 EXP SWAP1 DIV PUSH20 0xFFFFFFFFFFFFFFFFFFFFFFFFFFFFFFFFFFFFFFFF AND PUSH20 0xFFFFFFFFFFFFFFFFFFFFFFFFFFFFFFFFFFFFFFFF AND CALLER PUSH20 0xFFFFFFFFFFFFFFFFFFFFFFFFFFFFFFFFFFFFFFFF AND EQ PUSH2 0x19C3 JUMPI PUSH1 0x40 MLOAD PUSH32 0x8C379A000000000000000000000000000000000000000000000000000000000 DUP2 MSTORE PUSH1 0x4 ADD PUSH2 0x19BA SWAP1 PUSH2 0x2341 JUMP JUMPDEST PUSH1 0x40 MLOAD DUP1 SWAP2 SUB SWAP1 REVERT JUMPDEST PUSH0 PUSH2 0x3E8 PUSH1 0x5 SLOAD PUSH2 0x19D4 SWAP2 SWAP1 PUSH2 0x25D5 JUMP JUMPDEST SELFBALANCE PUSH2 0x19DF SWAP2 SWAP1 PUSH2 0x29F2 JUMP JUMPDEST SWAP1 POP PUSH0 CALLER PUSH20 0xFFFFFFFFFFFFFFFFFFFFFFFFFFFFFFFFFFFFFFFF AND DUP3 PUSH1 0x40 MLOAD PUSH2 0x1A06 SWAP1 PUSH2 0x2C0C JUMP JUMPDEST PUSH0 PUSH1 0x40 MLOAD DUP1 DUP4 SUB DUP2 DUP6 DUP8 GAS CALL SWAP3 POP POP POP RETURNDATASIZE DUP1 PUSH0 DUP2 EQ PUSH2 0x1A40 JUMPI PUSH1 0x40 MLOAD SWAP2 POP PUSH1 0x1F NOT PUSH1 0x3F RETURNDATASIZE ADD AND DUP3 ADD PUSH1 0x40 MSTORE RETURNDATASIZE DUP3 MSTORE RETURNDATASIZE PUSH0 PUSH1 0x20 DUP5 ADD RETURNDATACOPY PUSH2 0x1A45 JUMP JUMPDEST PUSH1 0x60 SWAP2 POP JUMPDEST POP POP SWAP1 POP DUP1 PUSH2 0x1A89 JUMPI PUSH1 0x40 MLOAD PUSH32 0x8C379A000000000000000000000000000000000000000000000000000000000 DUP2 MSTORE PUSH1 0x4 ADD PUSH2 0x1A80 SWAP1 PUSH2 0x2DA2 JUMP JUMPDEST PUSH1 0x40 MLOAD DUP1 SWAP2 SUB SWAP1 REVERT JUMPDEST POP POP JUMP JUMPDEST CALLER PUSH20 0xFFFFFFFFFFFFFFFFFFFFFFFFFFFFFFFFFFFFFFFF AND PUSH1 0x3 PUSH0 DUP5 DUP2 MSTORE PUSH1 0x20 ADD SWAP1 DUP2 MSTORE PUSH1 0x20 ADD PUSH0 KECCAK256 PUSH0 SWAP1 SLOAD SWAP1 PUSH2 0x100 EXP SWAP1 DIV PUSH20 0xFFFFFFFFFFFFFFFFFFFFFFFFFFFFFFFFFFFFFFFF AND PUSH20 0xFFFFFFFFFFFFFFFFFFFFFFFFFFFFFFFFFFFFFFFF AND EQ DUP1 PUSH2 0x1B52 JUMPI POP CALLER PUSH20 0xFFFFFFFFFFFFFFFFFFFFFFFFFFFFFFFFFFFFFFFF AND PUSH1 0x2 PUSH0 DUP5 DUP2 MSTORE PUSH1 0x20 ADD SWAP1 DUP2 MSTORE PUSH1 0x20 ADD PUSH0 KECCAK256 PUSH0 SWAP1 SLOAD SWAP1 PUSH2 0x100 EXP SWAP1 DIV PUSH20 0xFFFFFFFFFFFFFFFFFFFFFFFFFFFFFFFFFFFFFFFF AND PUSH20 0xFFFFFFFFFFFFFFFFFFFFFFFFFFFFFFFFFFFFFFFF AND EQ JUMPDEST PUSH2 0x1B91 JUMPI PUSH1 0x40 MLOAD PUSH32 0x8C379A000000000000000000000000000000000000000000000000000000000 DUP2 MSTORE PUSH1 0x4 ADD PUSH2 0x1B88 SWAP1 PUSH2 0x2341 JUMP JUMPDEST PUSH1 0x40 MLOAD DUP1 SWAP2 SUB SWAP1 REVERT JUMPDEST PUSH1 0x2 DUP2 PUSH1 0xFF AND PUSH2 0x1BA1 SWAP2 SWAP1 PUSH2 0x2DC0 JUMP JUMPDEST CALLVALUE LT ISZERO PUSH2 0x1BE3 JUMPI PUSH1 0x40 MLOAD PUSH32 0x8C379A000000000000000000000000000000000000000000000000000000000 DUP2 MSTORE PUSH1 0x4 ADD PUSH2 0x1BDA SWAP1 PUSH2 0x2660 JUMP JUMPDEST PUSH1 0x40 MLOAD DUP1 SWAP2 SUB SWAP1 REVERT JUMPDEST PUSH2 0x1C0C DUP2 PUSH1 0x4 PUSH0 DUP6 DUP2 MSTORE PUSH1 0x20 ADD SWAP1 DUP2 MSTORE PUSH1 0x20 ADD PUSH0 KECCAK256 PUSH1 0x1 ADD PUSH1 0x1 ADD PUSH2 0x1CDA SWAP1 SWAP2 SWAP1 PUSH4 0xFFFFFFFF AND JUMP JUMPDEST POP POP JUMP JUMPDEST PUSH0 PUSH0 PUSH0 PUSH0 SWAP1 POP JUMPDEST DUP4 DUP1 SLOAD SWAP1 POP DUP2 LT ISZERO PUSH2 0x1C59 JUMPI DUP4 DUP2 DUP2 SLOAD DUP2 LT PUSH2 0x1C36 JUMPI PUSH2 0x1C35 PUSH2 0x2E0A JUMP JUMPDEST JUMPDEST SWAP1 PUSH0 MSTORE PUSH1 0x20 PUSH0 KECCAK256 ADD SLOAD DUP3 PUSH2 0x1C4A SWAP2 SWAP1 PUSH2 0x2A25 JUMP JUMPDEST SWAP2 POP DUP1 DUP1 PUSH1 0x1 ADD SWAP2 POP POP PUSH2 0x1C17 JUMP JUMPDEST POP DUP1 SWAP2 POP POP SWAP2 SWAP1 POP JUMP JUMPDEST PUSH0 PUSH0 DUP3 DUP1 MLOAD SWAP1 PUSH1 0x20 ADD KECCAK256 SWAP1 POP PUSH0 PUSH0 SWAP1 POP JUMPDEST DUP5 DUP1 SLOAD SWAP1 POP DUP2 LT ISZERO PUSH2 0x1CCE JUMPI DUP2 DUP6 DUP3 DUP2 SLOAD DUP2 LT PUSH2 0x1C94 JUMPI PUSH2 0x1C93 PUSH2 0x2E0A JUMP JUMPDEST JUMPDEST SWAP1 PUSH0 MSTORE PUSH1 0x20 PUSH0 KECCAK256 ADD PUSH1 0x40 MLOAD PUSH2 0x1CA9 SWAP2 SWAP1 PUSH2 0x2EC9 JUMP JUMPDEST PUSH1 0x40 MLOAD DUP1 SWAP2 SUB SWAP1 KECCAK256 SUB PUSH2 0x1CC1 JUMPI PUSH1 0x1 SWAP3 POP POP POP PUSH2 0x1CD4 JUMP JUMPDEST DUP1 DUP1 PUSH1 0x1 ADD SWAP2 POP POP PUSH2 0x1C74 JUMP JUMPDEST POP PUSH0 SWAP2 POP POP JUMPDEST SWAP3 SWAP2 POP POP JUMP JUMPDEST PUSH0 PUSH0 SWAP1 POP JUMPDEST DUP3 DUP1 SLOAD SWAP1 POP DUP2 LT ISZERO PUSH2 0x1D59 JUMPI PUSH1 0x64 DUP3 PUSH1 0x64 PUSH2 0x1CFA SWAP2 SWAP1 PUSH2 0x2EDF JUMP JUMPDEST PUSH1 0xFF AND DUP5 DUP4 DUP2 SLOAD DUP2 LT PUSH2 0x1D10 JUMPI PUSH2 0x1D0F PUSH2 0x2E0A JUMP JUMPDEST JUMPDEST SWAP1 PUSH0 MSTORE PUSH1 0x20 PUSH0 KECCAK256 ADD SLOAD PUSH2 0x1D23 SWAP2 SWAP1 PUSH2 0x25D5 JUMP JUMPDEST PUSH2 0x1D2D SWAP2 SWAP1 PUSH2 0x2F40 JUMP JUMPDEST DUP4 DUP3 DUP2 SLOAD DUP2 LT PUSH2 0x1D40 JUMPI PUSH2 0x1D3F PUSH2 0x2E0A JUMP JUMPDEST JUMPDEST SWAP1 PUSH0 MSTORE PUSH1 0x20 PUSH0 KECCAK256 ADD DUP2 SWAP1 SSTORE POP DUP1 DUP1 PUSH1 0x1 ADD SWAP2 POP POP PUSH2 0x1CDF JUMP JUMPDEST POP POP POP JUMP JUMPDEST POP DUP1 SLOAD PUSH2 0x1D6A SWAP1 PUSH2 0x224F JUMP JUMPDEST PUSH0 DUP3 SSTORE DUP1 PUSH1 0x1F LT PUSH2 0x1D7B JUMPI POP PUSH2 0x1D98 JUMP JUMPDEST PUSH1 0x1F ADD PUSH1 0x20 SWAP1 DIV SWAP1 PUSH0 MSTORE PUSH1 0x20 PUSH0 KECCAK256 SWAP1 DUP2 ADD SWAP1 PUSH2 0x1D97 SWAP2 SWAP1 PUSH2 0x1DD7 JUMP JUMPDEST JUMPDEST POP JUMP JUMPDEST POP DUP1 SLOAD PUSH0 DUP3 SSTORE SWAP1 PUSH0 MSTORE PUSH1 0x20 PUSH0 KECCAK256 SWAP1 DUP2 ADD SWAP1 PUSH2 0x1DB6 SWAP2 SWAP1 PUSH2 0x1DF2 JUMP JUMPDEST POP JUMP JUMPDEST POP DUP1 SLOAD PUSH0 DUP3 SSTORE SWAP1 PUSH0 MSTORE PUSH1 0x20 PUSH0 KECCAK256 SWAP1 DUP2 ADD SWAP1 PUSH2 0x1DD4 SWAP2 SWAP1 PUSH2 0x1DD7 JUMP JUMPDEST POP JUMP JUMPDEST JUMPDEST DUP1 DUP3 GT ISZERO PUSH2 0x1DEE JUMPI PUSH0 DUP2 PUSH0 SWAP1 SSTORE POP PUSH1 0x1 ADD PUSH2 0x1DD8 JUMP JUMPDEST POP SWAP1 JUMP JUMPDEST JUMPDEST DUP1 DUP3 GT ISZERO PUSH2 0x1E11 JUMPI PUSH0 DUP2 DUP2 PUSH2 0x1E08 SWAP2 SWAP1 PUSH2 0x1D5E JUMP JUMPDEST POP PUSH1 0x1 ADD PUSH2 0x1DF3 JUMP JUMPDEST POP SWAP1 JUMP JUMPDEST PUSH0 PUSH0 REVERT JUMPDEST PUSH0 PUSH0 REVERT JUMPDEST PUSH0 PUSH32 0xFFFFFFFF00000000000000000000000000000000000000000000000000000000 DUP3 AND SWAP1 POP SWAP2 SWAP1 POP JUMP JUMPDEST PUSH2 0x1E51 DUP2 PUSH2 0x1E1D JUMP JUMPDEST DUP2 EQ PUSH2 0x1E5B JUMPI PUSH0 PUSH0 REVERT JUMPDEST POP JUMP JUMPDEST PUSH0 DUP2 CALLDATALOAD SWAP1 POP PUSH2 0x1E6C DUP2 PUSH2 0x1E48 JUMP JUMPDEST SWAP3 SWAP2 POP POP JUMP JUMPDEST PUSH0 PUSH1 0x20 DUP3 DUP5 SUB SLT ISZERO PUSH2 0x1E87 JUMPI PUSH2 0x1E86 PUSH2 0x1E15 JUMP JUMPDEST JUMPDEST PUSH0 PUSH2 0x1E94 DUP5 DUP3 DUP6 ADD PUSH2 0x1E5E JUMP JUMPDEST SWAP2 POP POP SWAP3 SWAP2 POP POP JUMP JUMPDEST PUSH0 DUP2 ISZERO ISZERO SWAP1 POP SWAP2 SWAP1 POP JUMP JUMPDEST PUSH2 0x1EB1 DUP2 PUSH2 0x1E9D JUMP JUMPDEST DUP3 MSTORE POP POP JUMP JUMPDEST PUSH0 PUSH1 0x20 DUP3 ADD SWAP1 POP PUSH2 0x1ECA PUSH0 DUP4 ADD DUP5 PUSH2 0x1EA8 JUMP JUMPDEST SWAP3 SWAP2 POP POP JUMP JUMPDEST PUSH0 DUP2 SWAP1 POP SWAP2 SWAP1 POP JUMP JUMPDEST PUSH2 0x1EE2 DUP2 PUSH2 0x1ED0 JUMP JUMPDEST DUP2 EQ PUSH2 0x1EEC JUMPI PUSH0 PUSH0 REVERT JUMPDEST POP JUMP JUMPDEST PUSH0 DUP2 CALLDATALOAD SWAP1 POP PUSH2 0x1EFD DUP2 PUSH2 0x1ED9 JUMP JUMPDEST SWAP3 SWAP2 POP POP JUMP JUMPDEST PUSH0 PUSH1 0x20 DUP3 DUP5 SUB SLT ISZERO PUSH2 0x1F18 JUMPI PUSH2 0x1F17 PUSH2 0x1E15 JUMP JUMPDEST JUMPDEST PUSH0 PUSH2 0x1F25 DUP5 DUP3 DUP6 ADD PUSH2 0x1EEF JUMP JUMPDEST SWAP2 POP POP SWAP3 SWAP2 POP POP JUMP JUMPDEST PUSH0 PUSH20 0xFFFFFFFFFFFFFFFFFFFFFFFFFFFFFFFFFFFFFFFF DUP3 AND SWAP1 POP SWAP2 SWAP1 POP JUMP JUMPDEST PUSH0 PUSH2 0x1F57 DUP3 PUSH2 0x1F2E JUMP JUMPDEST SWAP1 POP SWAP2 SWAP1 POP JUMP JUMPDEST PUSH2 0x1F67 DUP2 PUSH2 0x1F4D JUMP JUMPDEST DUP3 MSTORE POP POP JUMP JUMPDEST PUSH0 PUSH1 0x20 DUP3 ADD SWAP1 POP PUSH2 0x1F80 PUSH0 DUP4 ADD DUP5 PUSH2 0x1F5E JUMP JUMPDEST SWAP3 SWAP2 POP POP JUMP JUMPDEST PUSH2 0x1F8F DUP2 PUSH2 0x1F4D JUMP JUMPDEST DUP2 EQ PUSH2 0x1F99 JUMPI PUSH0 PUSH0 REVERT JUMPDEST POP JUMP JUMPDEST PUSH0 DUP2 CALLDATALOAD SWAP1 POP PUSH2 0x1FAA DUP2 PUSH2 0x1F86 JUMP JUMPDEST SWAP3 SWAP2 POP POP JUMP JUMPDEST PUSH0 PUSH0 PUSH1 0x40 DUP4 DUP6 SUB SLT ISZERO PUSH2 0x1FC6 JUMPI PUSH2 0x1FC5 PUSH2 0x1E15 JUMP JUMPDEST JUMPDEST PUSH0 PUSH2 0x1FD3 DUP6 DUP3 DUP7 ADD PUSH2 0x1F9C JUMP JUMPDEST SWAP3 POP POP PUSH1 0x20 PUSH2 0x1FE4 DUP6 DUP3 DUP7 ADD PUSH2 0x1EEF JUMP JUMPDEST SWAP2 POP POP SWAP3 POP SWAP3 SWAP1 POP JUMP JUMPDEST PUSH0 PUSH0 REVERT JUMPDEST PUSH0 PUSH0 REVERT JUMPDEST PUSH0 PUSH0 REVERT JUMPDEST PUSH0 PUSH0 DUP4 PUSH1 0x1F DUP5 ADD SLT PUSH2 0x200F JUMPI PUSH2 0x200E PUSH2 0x1FEE JUMP JUMPDEST JUMPDEST DUP3 CALLDATALOAD SWAP1 POP PUSH8 0xFFFFFFFFFFFFFFFF DUP2 GT ISZERO PUSH2 0x202C JUMPI PUSH2 0x202B PUSH2 0x1FF2 JUMP JUMPDEST JUMPDEST PUSH1 0x20 DUP4 ADD SWAP2 POP DUP4 PUSH1 0x1 DUP3 MUL DUP4 ADD GT ISZERO PUSH2 0x2048 JUMPI PUSH2 0x2047 PUSH2 0x1FF6 JUMP JUMPDEST JUMPDEST SWAP3 POP SWAP3 SWAP1 POP JUMP JUMPDEST PUSH0 PUSH0 PUSH0 PUSH0 PUSH1 0x60 DUP6 DUP8 SUB SLT ISZERO PUSH2 0x2067 JUMPI PUSH2 0x2066 PUSH2 0x1E15 JUMP JUMPDEST JUMPDEST PUSH0 PUSH2 0x2074 DUP8 DUP3 DUP9 ADD PUSH2 0x1EEF JUMP JUMPDEST SWAP5 POP POP PUSH1 0x20 DUP6 ADD CALLDATALOAD PUSH8 0xFFFFFFFFFFFFFFFF DUP2 GT ISZERO PUSH2 0x2095 JUMPI PUSH2 0x2094 PUSH2 0x1E19 JUMP JUMPDEST JUMPDEST PUSH2 0x20A1 DUP8 DUP3 DUP9 ADD PUSH2 0x1FFA JUMP JUMPDEST SWAP4 POP SWAP4 POP POP PUSH1 0x40 PUSH2 0x20B4 DUP8 DUP3 DUP9 ADD PUSH2 0x1EEF JUMP JUMPDEST SWAP2 POP POP SWAP3 SWAP6 SWAP2 SWAP5 POP SWAP3 POP JUMP JUMPDEST PUSH0 PUSH0 PUSH0 PUSH1 0x60 DUP5 DUP7 SUB SLT ISZERO PUSH2 0x20D7 JUMPI PUSH2 0x20D6 PUSH2 0x1E15 JUMP JUMPDEST JUMPDEST PUSH0 PUSH2 0x20E4 DUP7 DUP3 DUP8 ADD PUSH2 0x1F9C JUMP JUMPDEST SWAP4 POP POP PUSH1 0x20 PUSH2 0x20F5 DUP7 DUP3 DUP8 ADD PUSH2 0x1F9C JUMP JUMPDEST SWAP3 POP POP PUSH1 0x40 PUSH2 0x2106 DUP7 DUP3 DUP8 ADD PUSH2 0x1EEF JUMP JUMPDEST SWAP2 POP POP SWAP3 POP SWAP3 POP SWAP3 JUMP JUMPDEST PUSH0 PUSH1 0x20 DUP3 DUP5 SUB SLT ISZERO PUSH2 0x2125 JUMPI PUSH2 0x2124 PUSH2 0x1E15 JUMP JUMPDEST JUMPDEST PUSH0 PUSH2 0x2132 DUP5 DUP3 DUP6 ADD PUSH2 0x1F9C JUMP JUMPDEST SWAP2 POP POP SWAP3 SWAP2 POP POP JUMP JUMPDEST PUSH2 0x2144 DUP2 PUSH2 0x1ED0 JUMP JUMPDEST DUP3 MSTORE POP POP JUMP JUMPDEST PUSH0 PUSH1 0x20 DUP3 ADD SWAP1 POP PUSH2 0x215D PUSH0 DUP4 ADD DUP5 PUSH2 0x213B JUMP JUMPDEST SWAP3 SWAP2 POP POP JUMP JUMPDEST PUSH0 PUSH0 PUSH1 0x20 DUP4 DUP6 SUB SLT ISZERO PUSH2 0x2179 JUMPI PUSH2 0x2178 PUSH2 0x1E15 JUMP JUMPDEST JUMPDEST PUSH0 DUP4 ADD CALLDATALOAD PUSH8 0xFFFFFFFFFFFFFFFF DUP2 GT ISZERO PUSH2 0x2196 JUMPI PUSH2 0x2195 PUSH2 0x1E19 JUMP JUMPDEST JUMPDEST PUSH2 0x21A2 DUP6 DUP3 DUP7 ADD PUSH2 0x1FFA JUMP JUMPDEST SWAP3 POP SWAP3 POP POP SWAP3 POP SWAP3 SWAP1 POP JUMP JUMPDEST PUSH0 PUSH1 0xFF DUP3 AND SWAP1 POP SWAP2 SWAP1 POP JUMP JUMPDEST PUSH2 0x21C3 DUP2 PUSH2 0x21AE JUMP JUMPDEST DUP2 EQ PUSH2 0x21CD JUMPI PUSH0 PUSH0 REVERT JUMPDEST POP JUMP JUMPDEST PUSH0 DUP2 CALLDATALOAD SWAP1 POP PUSH2 0x21DE DUP2 PUSH2 0x21BA JUMP JUMPDEST SWAP3 SWAP2 POP POP JUMP JUMPDEST PUSH0 PUSH0 PUSH1 0x40 DUP4 DUP6 SUB SLT ISZERO PUSH2 0x21FA JUMPI PUSH2 0x21F9 PUSH2 0x1E15 JUMP JUMPDEST JUMPDEST PUSH0 PUSH2 0x2207 DUP6 DUP3 DUP7 ADD PUSH2 0x1EEF JUMP JUMPDEST SWAP3 POP POP PUSH1 0x20 PUSH2 0x2218 DUP6 DUP3 DUP7 ADD PUSH2 0x21D0 JUMP JUMPDEST SWAP2 POP POP SWAP3 POP SWAP3 SWAP1 POP JUMP JUMPDEST PUSH32 0x4E487B7100000000000000000000000000000000000000000000000000000000 PUSH0 MSTORE PUSH1 0x22 PUSH1 0x4 MSTORE PUSH1 0x24 PUSH0 REVERT JUMPDEST PUSH0 PUSH1 0x2 DUP3 DIV SWAP1 POP PUSH1 0x1 DUP3 AND DUP1 PUSH2 0x2266 JUMPI PUSH1 0x7F DUP3 AND SWAP2 POP JUMPDEST PUSH1 0x20 DUP3 LT DUP2 SUB PUSH2 0x2279 JUMPI PUSH2 0x2278 PUSH2 0x2222 JUMP JUMPDEST JUMPDEST POP SWAP2 SWAP1 POP JUMP JUMPDEST PUSH0 DUP3 DUP3 MSTORE PUSH1 0x20 DUP3 ADD SWAP1 POP SWAP3 SWAP2 POP POP JUMP JUMPDEST PUSH32 0x496E76616C696420746F6B656E00000000000000000000000000000000000000 PUSH0 DUP3 ADD MSTORE POP JUMP JUMPDEST PUSH0 PUSH2 0x22C3 PUSH1 0xD DUP4 PUSH2 0x227F JUMP JUMPDEST SWAP2 POP PUSH2 0x22CE DUP3 PUSH2 0x228F JUMP JUMPDEST PUSH1 0x20 DUP3 ADD SWAP1 POP SWAP2 SWAP1 POP JUMP JUMPDEST PUSH0 PUSH1 0x20 DUP3 ADD SWAP1 POP DUP2 DUP2 SUB PUSH0 DUP4 ADD MSTORE PUSH2 0x22F0 DUP2 PUSH2 0x22B7 JUMP JUMPDEST SWAP1 POP SWAP2 SWAP1 POP JUMP JUMPDEST PUSH32 0x556E617574686F72697A65642061636365737300000000000000000000000000 PUSH0 DUP3 ADD MSTORE POP JUMP JUMPDEST PUSH0 PUSH2 0x232B PUSH1 0x13 DUP4 PUSH2 0x227F JUMP JUMPDEST SWAP2 POP PUSH2 0x2336 DUP3 PUSH2 0x22F7 JUMP JUMPDEST PUSH1 0x20 DUP3 ADD SWAP1 POP SWAP2 SWAP1 POP JUMP JUMPDEST PUSH0 PUSH1 0x20 DUP3 ADD SWAP1 POP DUP2 DUP2 SUB PUSH0 DUP4 ADD MSTORE PUSH2 0x2358 DUP2 PUSH2 0x231F JUMP JUMPDEST SWAP1 POP SWAP2 SWAP1 POP JUMP JUMPDEST PUSH32 0x4E6F7468696E6720746F20617070726F76650000000000000000000000000000 PUSH0 DUP3 ADD MSTORE POP JUMP JUMPDEST PUSH0 PUSH2 0x2393 PUSH1 0x12 DUP4 PUSH2 0x227F JUMP JUMPDEST SWAP2 POP PUSH2 0x239E DUP3 PUSH2 0x235F JUMP JUMPDEST PUSH1 0x20 DUP3 ADD SWAP1 POP SWAP2 SWAP1 POP JUMP JUMPDEST PUSH0 PUSH1 0x20 DUP3 ADD SWAP1 POP DUP2 DUP2 SUB PUSH0 DUP4 ADD MSTORE PUSH2 0x23C0 DUP2 PUSH2 0x2387 JUMP JUMPDEST SWAP1 POP SWAP2 SWAP1 POP JUMP JUMPDEST PUSH32 0x4E6F7420656E6F7567682066756E647300000000000000000000000000000000 PUSH0 DUP3 ADD MSTORE POP JUMP JUMPDEST PUSH0 PUSH2 0x23FB PUSH1 0x10 DUP4 PUSH2 0x227F JUMP JUMPDEST SWAP2 POP PUSH2 0x2406 DUP3 PUSH2 0x23C7 JUMP JUMPDEST PUSH1 0x20 DUP3 ADD SWAP1 POP SWAP2 SWAP1 POP JUMP JUMPDEST PUSH0 PUSH1 0x20 DUP3 ADD SWAP1 POP DUP2 DUP2 SUB PUSH0 DUP4 ADD MSTORE PUSH2 0x2428 DUP2 PUSH2 0x23EF JUMP JUMPDEST SWAP1 POP SWAP2 SWAP1 POP JUMP JUMPDEST PUSH32 0x4E487B7100000000000000000000000000000000000000000000000000000000 PUSH0 MSTORE PUSH1 0x11 PUSH1 0x4 MSTORE PUSH1 0x24 PUSH0 REVERT JUMPDEST PUSH0 DUP2 PUSH1 0x1 SHR SWAP1 POP SWAP2 SWAP1 POP JUMP JUMPDEST PUSH0 PUSH0 DUP3 SWAP2 POP DUP4 SWAP1 POP JUMPDEST PUSH1 0x1 DUP6 GT ISZERO PUSH2 0x24B1 JUMPI DUP1 DUP7 DIV DUP2 GT ISZERO PUSH2 0x248D JUMPI PUSH2 0x248C PUSH2 0x242F JUMP JUMPDEST JUMPDEST PUSH1 0x1 DUP6 AND ISZERO PUSH2 0x249C JUMPI DUP1 DUP3 MUL SWAP2 POP JUMPDEST DUP1 DUP2 MUL SWAP1 POP PUSH2 0x24AA DUP6 PUSH2 0x245C JUMP JUMPDEST SWAP5 POP PUSH2 0x2471 JUMP JUMPDEST SWAP5 POP SWAP5 SWAP3 POP POP POP JUMP JUMPDEST PUSH0 DUP3 PUSH2 0x24C9 JUMPI PUSH1 0x1 SWAP1 POP PUSH2 0x2584 JUMP JUMPDEST DUP2 PUSH2 0x24D6 JUMPI PUSH0 SWAP1 POP PUSH2 0x2584 JUMP JUMPDEST DUP2 PUSH1 0x1 DUP2 EQ PUSH2 0x24EC JUMPI PUSH1 0x2 DUP2 EQ PUSH2 0x24F6 JUMPI PUSH2 0x2525 JUMP JUMPDEST PUSH1 0x1 SWAP2 POP POP PUSH2 0x2584 JUMP JUMPDEST PUSH1 0xFF DUP5 GT ISZERO PUSH2 0x2508 JUMPI PUSH2 0x2507 PUSH2 0x242F JUMP JUMPDEST JUMPDEST DUP4 PUSH1 0x2 EXP SWAP2 POP DUP5 DUP3 GT ISZERO PUSH2 0x251F JUMPI PUSH2 0x251E PUSH2 0x242F JUMP JUMPDEST JUMPDEST POP PUSH2 0x2584 JUMP JUMPDEST POP PUSH1 0x20 DUP4 LT PUSH2 0x133 DUP4 LT AND PUSH1 0x4E DUP5 LT PUSH1 0xB DUP5 LT AND OR ISZERO PUSH2 0x255A JUMPI DUP3 DUP3 EXP SWAP1 POP DUP4 DUP2 GT ISZERO PUSH2 0x2555 JUMPI PUSH2 0x2554 PUSH2 0x242F JUMP JUMPDEST JUMPDEST PUSH2 0x2584 JUMP JUMPDEST PUSH2 0x2567 DUP5 DUP5 DUP5 PUSH1 0x1 PUSH2 0x2468 JUMP JUMPDEST SWAP3 POP SWAP1 POP DUP2 DUP5 DIV DUP2 GT ISZERO PUSH2 0x257E JUMPI PUSH2 0x257D PUSH2 0x242F JUMP JUMPDEST JUMPDEST DUP2 DUP2 MUL SWAP1 POP JUMPDEST SWAP4 SWAP3 POP POP POP JUMP JUMPDEST PUSH0 PUSH2 0x2595 DUP3 PUSH2 0x1ED0 JUMP JUMPDEST SWAP2 POP PUSH2 0x25A0 DUP4 PUSH2 0x1ED0 JUMP JUMPDEST SWAP3 POP PUSH2 0x25CD PUSH32 0xFFFFFFFFFFFFFFFFFFFFFFFFFFFFFFFFFFFFFFFFFFFFFFFFFFFFFFFFFFFFFFFF DUP5 DUP5 PUSH2 0x24BA JUMP JUMPDEST SWAP1 POP SWAP3 SWAP2 POP POP JUMP JUMPDEST PUSH0 PUSH2 0x25DF DUP3 PUSH2 0x1ED0 JUMP JUMPDEST SWAP2 POP PUSH2 0x25EA DUP4 PUSH2 0x1ED0 JUMP JUMPDEST SWAP3 POP DUP3 DUP3 MUL PUSH2 0x25F8 DUP2 PUSH2 0x1ED0 JUMP JUMPDEST SWAP2 POP DUP3 DUP3 DIV DUP5 EQ DUP4 ISZERO OR PUSH2 0x260F JUMPI PUSH2 0x260E PUSH2 0x242F JUMP JUMPDEST JUMPDEST POP SWAP3 SWAP2 POP POP JUMP JUMPDEST PUSH32 0x4E6F7420656E6F756768206D6F6E657900000000000000000000000000000000 PUSH0 DUP3 ADD MSTORE POP JUMP JUMPDEST PUSH0 PUSH2 0x264A PUSH1 0x10 DUP4 PUSH2 0x227F JUMP JUMPDEST SWAP2 POP PUSH2 0x2655 DUP3 PUSH2 0x2616 JUMP JUMPDEST PUSH1 0x20 DUP3 ADD SWAP1 POP SWAP2 SWAP1 POP JUMP JUMPDEST PUSH0 PUSH1 0x20 DUP3 ADD SWAP1 POP DUP2 DUP2 SUB PUSH0 DUP4 ADD MSTORE PUSH2 0x2677 DUP2 PUSH2 0x263E JUMP JUMPDEST SWAP1 POP SWAP2 SWAP1 POP JUMP JUMPDEST PUSH32 0x416C726561647920657869737473000000000000000000000000000000000000 PUSH0 DUP3 ADD MSTORE POP JUMP JUMPDEST PUSH0 PUSH2 0x26B2 PUSH1 0xE DUP4 PUSH2 0x227F JUMP JUMPDEST SWAP2 POP PUSH2 0x26BD DUP3 PUSH2 0x267E JUMP JUMPDEST PUSH1 0x20 DUP3 ADD SWAP1 POP SWAP2 SWAP1 POP JUMP JUMPDEST PUSH0 PUSH1 0x20 DUP3 ADD SWAP1 POP DUP2 DUP2 SUB PUSH0 DUP4 ADD MSTORE PUSH2 0x26DF DUP2 PUSH2 0x26A6 JUMP JUMPDEST SWAP1 POP SWAP2 SWAP1 POP JUMP JUMPDEST PUSH0 DUP3 SWAP1 POP SWAP3 SWAP2 POP POP JUMP JUMPDEST PUSH32 0x4E487B7100000000000000000000000000000000000000000000000000000000 PUSH0 MSTORE PUSH1 0x41 PUSH1 0x4 MSTORE PUSH1 0x24 PUSH0 REVERT JUMPDEST PUSH0 DUP2 SWAP1 POP DUP2 PUSH0 MSTORE PUSH1 0x20 PUSH0 KECCAK256 SWAP1 POP SWAP2 SWAP1 POP JUMP JUMPDEST PUSH0 PUSH1 0x20 PUSH1 0x1F DUP4 ADD DIV SWAP1 POP SWAP2 SWAP1 POP JUMP JUMPDEST PUSH0 DUP3 DUP3 SHL SWAP1 POP SWAP3 SWAP2 POP POP JUMP JUMPDEST PUSH0 PUSH1 0x8 DUP4 MUL PUSH2 0x2779 PUSH32 0xFFFFFFFFFFFFFFFFFFFFFFFFFFFFFFFFFFFFFFFFFFFFFFFFFFFFFFFFFFFFFFFF DUP3 PUSH2 0x273E JUMP JUMPDEST PUSH2 0x2783 DUP7 DUP4 PUSH2 0x273E JUMP JUMPDEST SWAP6 POP DUP1 NOT DUP5 AND SWAP4 POP DUP1 DUP7 AND DUP5 OR SWAP3 POP POP POP SWAP4 SWAP3 POP POP POP JUMP JUMPDEST PUSH0 DUP2 SWAP1 POP SWAP2 SWAP1 POP JUMP JUMPDEST PUSH0 PUSH2 0x27BE PUSH2 0x27B9 PUSH2 0x27B4 DUP5 PUSH2 0x1ED0 JUMP JUMPDEST PUSH2 0x279B JUMP JUMPDEST PUSH2 0x1ED0 JUMP JUMPDEST SWAP1 POP SWAP2 SWAP1 POP JUMP JUMPDEST PUSH0 DUP2 SWAP1 POP SWAP2 SWAP1 POP JUMP JUMPDEST PUSH2 0x27D7 DUP4 PUSH2 0x27A4 JUMP JUMPDEST PUSH2 0x27EB PUSH2 0x27E3 DUP3 PUSH2 0x27C5 JUMP JUMPDEST DUP5 DUP5 SLOAD PUSH2 0x274A JUMP JUMPDEST DUP3 SSTORE POP POP POP POP JUMP JUMPDEST PUSH0 PUSH0 SWAP1 POP SWAP1 JUMP JUMPDEST PUSH2 0x2802 PUSH2 0x27F3 JUMP JUMPDEST PUSH2 0x280D DUP2 DUP5 DUP5 PUSH2 0x27CE JUMP JUMPDEST POP POP POP JUMP JUMPDEST JUMPDEST DUP2 DUP2 LT ISZERO PUSH2 0x2830 JUMPI PUSH2 0x2825 PUSH0 DUP3 PUSH2 0x27FA JUMP JUMPDEST PUSH1 0x1 DUP2 ADD SWAP1 POP PUSH2 0x2813 JUMP JUMPDEST POP POP JUMP JUMPDEST PUSH1 0x1F DUP3 GT ISZERO PUSH2 0x2875 JUMPI PUSH2 0x2846 DUP2 PUSH2 0x271D JUMP JUMPDEST PUSH2 0x284F DUP5 PUSH2 0x272F JUMP JUMPDEST DUP2 ADD PUSH1 0x20 DUP6 LT ISZERO PUSH2 0x285E JUMPI DUP2 SWAP1 POP JUMPDEST PUSH2 0x2872 PUSH2 0x286A DUP6 PUSH2 0x272F JUMP JUMPDEST DUP4 ADD DUP3 PUSH2 0x2812 JUMP JUMPDEST POP POP JUMPDEST POP POP POP JUMP JUMPDEST PUSH0 DUP3 DUP3 SHR SWAP1 POP SWAP3 SWAP2 POP POP JUMP JUMPDEST PUSH0 PUSH2 0x2895 PUSH0 NOT DUP5 PUSH1 0x8 MUL PUSH2 0x287A JUMP JUMPDEST NOT DUP1 DUP4 AND SWAP2 POP POP SWAP3 SWAP2 POP POP JUMP JUMPDEST PUSH0 PUSH2 0x28AD DUP4 DUP4 PUSH2 0x2886 JUMP JUMPDEST SWAP2 POP DUP3 PUSH1 0x2 MUL DUP3 OR SWAP1 POP SWAP3 SWAP2 POP POP JUMP JUMPDEST PUSH2 0x28C7 DUP4 DUP4 PUSH2 0x26E6 JUMP JUMPDEST PUSH8 0xFFFFFFFFFFFFFFFF DUP2 GT ISZERO PUSH2 0x28E0 JUMPI PUSH2 0x28DF PUSH2 0x26F0 JUMP JUMPDEST JUMPDEST PUSH2 0x28EA DUP3 SLOAD PUSH2 0x224F JUMP JUMPDEST PUSH2 0x28F5 DUP3 DUP3 DUP6 PUSH2 0x2834 JUMP JUMPDEST PUSH0 PUSH1 0x1F DUP4 GT PUSH1 0x1 DUP2 EQ PUSH2 0x2922 JUMPI PUSH0 DUP5 ISZERO PUSH2 0x2910 JUMPI DUP3 DUP8 ADD CALLDATALOAD SWAP1 POP JUMPDEST PUSH2 0x291A DUP6 DUP3 PUSH2 0x28A2 JUMP JUMPDEST DUP7 SSTORE POP PUSH2 0x2981 JUMP JUMPDEST PUSH1 0x1F NOT DUP5 AND PUSH2 0x2930 DUP7 PUSH2 0x271D JUMP JUMPDEST PUSH0 JUMPDEST DUP3 DUP2 LT ISZERO PUSH2 0x2957 JUMPI DUP5 DUP10 ADD CALLDATALOAD DUP3 SSTORE PUSH1 0x1 DUP3 ADD SWAP2 POP PUSH1 0x20 DUP6 ADD SWAP5 POP PUSH1 0x20 DUP2 ADD SWAP1 POP PUSH2 0x2932 JUMP JUMPDEST DUP7 DUP4 LT ISZERO PUSH2 0x2974 JUMPI DUP5 DUP10 ADD CALLDATALOAD PUSH2 0x2970 PUSH1 0x1F DUP10 AND DUP3 PUSH2 0x2886 JUMP JUMPDEST DUP4 SSTORE POP JUMPDEST PUSH1 0x1 PUSH1 0x2 DUP9 MUL ADD DUP9 SSTORE POP POP POP JUMPDEST POP POP POP POP POP POP POP JUMP JUMPDEST PUSH32 0x496E76616C696420726563697069656E74000000000000000000000000000000 PUSH0 DUP3 ADD MSTORE POP JUMP JUMPDEST PUSH0 PUSH2 0x29BE PUSH1 0x11 DUP4 PUSH2 0x227F JUMP JUMPDEST SWAP2 POP PUSH2 0x29C9 DUP3 PUSH2 0x298A JUMP JUMPDEST PUSH1 0x20 DUP3 ADD SWAP1 POP SWAP2 SWAP1 POP JUMP JUMPDEST PUSH0 PUSH1 0x20 DUP3 ADD SWAP1 POP DUP2 DUP2 SUB PUSH0 DUP4 ADD MSTORE PUSH2 0x29EB DUP2 PUSH2 0x29B2 JUMP JUMPDEST SWAP1 POP SWAP2 SWAP1 POP JUMP JUMPDEST PUSH0 PUSH2 0x29FC DUP3 PUSH2 0x1ED0 JUMP JUMPDEST SWAP2 POP PUSH2 0x2A07 DUP4 PUSH2 0x1ED0 JUMP JUMPDEST SWAP3 POP DUP3 DUP3 SUB SWAP1 POP DUP2 DUP2 GT ISZERO PUSH2 0x2A1F JUMPI PUSH2 0x2A1E PUSH2 0x242F JUMP JUMPDEST JUMPDEST SWAP3 SWAP2 POP POP JUMP JUMPDEST PUSH0 PUSH2 0x2A2F DUP3 PUSH2 0x1ED0 JUMP JUMPDEST SWAP2 POP PUSH2 0x2A3A DUP4 PUSH2 0x1ED0 JUMP JUMPDEST SWAP3 POP DUP3 DUP3 ADD SWAP1 POP DUP1 DUP3 GT ISZERO PUSH2 0x2A52 JUMPI PUSH2 0x2A51 PUSH2 0x242F JUMP JUMPDEST JUMPDEST SWAP3 SWAP2 POP POP JUMP JUMPDEST PUSH0 DUP3 DUP3 MSTORE PUSH1 0x20 DUP3 ADD SWAP1 POP SWAP3 SWAP2 POP POP JUMP JUMPDEST POP JUMP JUMPDEST PUSH0 PUSH2 0x2A76 PUSH0 DUP4 PUSH2 0x2A58 JUMP JUMPDEST SWAP2 POP PUSH2 0x2A81 DUP3 PUSH2 0x2A68 JUMP JUMPDEST PUSH0 DUP3 ADD SWAP1 POP SWAP2 SWAP1 POP JUMP JUMPDEST PUSH0 PUSH1 0x80 DUP3 ADD SWAP1 POP PUSH2 0x2A9E PUSH0 DUP4 ADD DUP7 PUSH2 0x1F5E JUMP JUMPDEST PUSH2 0x2AAB PUSH1 0x20 DUP4 ADD DUP6 PUSH2 0x1F5E JUMP JUMPDEST PUSH2 0x2AB8 PUSH1 0x40 DUP4 ADD DUP5 PUSH2 0x213B JUMP JUMPDEST DUP2 DUP2 SUB PUSH1 0x60 DUP4 ADD MSTORE PUSH2 0x2AC9 DUP2 PUSH2 0x2A6B JUMP JUMPDEST SWAP1 POP SWAP5 SWAP4 POP POP POP POP JUMP JUMPDEST PUSH0 DUP2 MLOAD SWAP1 POP PUSH2 0x2AE1 DUP2 PUSH2 0x1E48 JUMP JUMPDEST SWAP3 SWAP2 POP POP JUMP JUMPDEST PUSH0 PUSH1 0x20 DUP3 DUP5 SUB SLT ISZERO PUSH2 0x2AFC JUMPI PUSH2 0x2AFB PUSH2 0x1E15 JUMP JUMPDEST JUMPDEST PUSH0 PUSH2 0x2B09 DUP5 DUP3 DUP6 ADD PUSH2 0x2AD3 JUMP JUMPDEST SWAP2 POP POP SWAP3 SWAP2 POP POP JUMP JUMPDEST PUSH32 0x496E76616C696420726563696576657200000000000000000000000000000000 PUSH0 DUP3 ADD MSTORE POP JUMP JUMPDEST PUSH0 PUSH2 0x2B46 PUSH1 0x10 DUP4 PUSH2 0x227F JUMP JUMPDEST SWAP2 POP PUSH2 0x2B51 DUP3 PUSH2 0x2B12 JUMP JUMPDEST PUSH1 0x20 DUP3 ADD SWAP1 POP SWAP2 SWAP1 POP JUMP JUMPDEST PUSH0 PUSH1 0x20 DUP3 ADD SWAP1 POP DUP2 DUP2 SUB PUSH0 DUP4 ADD MSTORE PUSH2 0x2B73 DUP2 PUSH2 0x2B3A JUMP JUMPDEST SWAP1 POP SWAP2 SWAP1 POP JUMP JUMPDEST PUSH32 0x546F6B656E2072656A6563746564000000000000000000000000000000000000 PUSH0 DUP3 ADD MSTORE POP JUMP JUMPDEST PUSH0 PUSH2 0x2BAE PUSH1 0xE DUP4 PUSH2 0x227F JUMP JUMPDEST SWAP2 POP PUSH2 0x2BB9 DUP3 PUSH2 0x2B7A JUMP JUMPDEST PUSH1 0x20 DUP3 ADD SWAP1 POP SWAP2 SWAP1 POP JUMP JUMPDEST PUSH0 PUSH1 0x20 DUP3 ADD SWAP1 POP DUP2 DUP2 SUB PUSH0 DUP4 ADD MSTORE PUSH2 0x2BDB DUP2 PUSH2 0x2BA2 JUMP JUMPDEST SWAP1 POP SWAP2 SWAP1 POP JUMP JUMPDEST PUSH0 DUP2 SWAP1 POP SWAP3 SWAP2 POP POP JUMP JUMPDEST PUSH0 PUSH2 0x2BF7 PUSH0 DUP4 PUSH2 0x2BE2 JUMP JUMPDEST SWAP2 POP PUSH2 0x2C02 DUP3 PUSH2 0x2A68 JUMP JUMPDEST PUSH0 DUP3 ADD SWAP1 POP SWAP2 SWAP1 POP JUMP JUMPDEST PUSH0 PUSH2 0x2C16 DUP3 PUSH2 0x2BEC JUMP JUMPDEST SWAP2 POP DUP2 SWAP1 POP SWAP2 SWAP1 POP JUMP JUMPDEST PUSH32 0x5061796D656E74206661696C6564000000000000000000000000000000000000 PUSH0 DUP3 ADD MSTORE POP JUMP JUMPDEST PUSH0 PUSH2 0x2C54 PUSH1 0xE DUP4 PUSH2 0x227F JUMP JUMPDEST SWAP2 POP PUSH2 0x2C5F DUP3 PUSH2 0x2C20 JUMP JUMPDEST PUSH1 0x20 DUP3 ADD SWAP1 POP SWAP2 SWAP1 POP JUMP JUMPDEST PUSH0 PUSH1 0x20 DUP3 ADD SWAP1 POP DUP2 DUP2 SUB PUSH0 DUP4 ADD MSTORE PUSH2 0x2C81 DUP2 PUSH2 0x2C48 JUMP JUMPDEST SWAP1 POP SWAP2 SWAP1 POP JUMP JUMPDEST PUSH32 0x496E76616C696420616464726573730000000000000000000000000000000000 PUSH0 DUP3 ADD MSTORE POP JUMP JUMPDEST PUSH0 PUSH2 0x2CBC PUSH1 0xF DUP4 PUSH2 0x227F JUMP JUMPDEST SWAP2 POP PUSH2 0x2CC7 DUP3 PUSH2 0x2C88 JUMP JUMPDEST PUSH1 0x20 DUP3 ADD SWAP1 POP SWAP2 SWAP1 POP JUMP JUMPDEST PUSH0 PUSH1 0x20 DUP3 ADD SWAP1 POP DUP2 DUP2 SUB PUSH0 DUP4 ADD MSTORE PUSH2 0x2CE9 DUP2 PUSH2 0x2CB0 JUMP JUMPDEST SWAP1 POP SWAP2 SWAP1 POP JUMP JUMPDEST PUSH32 0x496E73756666696369656E742066756E64730000000000000000000000000000 PUSH0 DUP3 ADD MSTORE POP JUMP JUMPDEST PUSH0 PUSH2 0x2D24 PUSH1 0x12 DUP4 PUSH2 0x227F JUMP JUMPDEST SWAP2 POP PUSH2 0x2D2F DUP3 PUSH2 0x2CF0 JUMP JUMPDEST PUSH1 0x20 DUP3 ADD SWAP1 POP SWAP2 SWAP1 POP JUMP JUMPDEST PUSH0 PUSH1 0x20 DUP3 ADD SWAP1 POP DUP2 DUP2 SUB PUSH0 DUP4 ADD MSTORE PUSH2 0x2D51 DUP2 PUSH2 0x2D18 JUMP JUMPDEST SWAP1 POP SWAP2 SWAP1 POP JUMP JUMPDEST PUSH32 0x5472616E73666572206661696C65640000000000000000000000000000000000 PUSH0 DUP3 ADD MSTORE POP JUMP JUMPDEST PUSH0 PUSH2 0x2D8C PUSH1 0xF DUP4 PUSH2 0x227F JUMP JUMPDEST SWAP2 POP PUSH2 0x2D97 DUP3 PUSH2 0x2D58 JUMP JUMPDEST PUSH1 0x20 DUP3 ADD SWAP1 POP SWAP2 SWAP1 POP JUMP JUMPDEST PUSH0 PUSH1 0x20 DUP3 ADD SWAP1 POP DUP2 DUP2 SUB PUSH0 DUP4 ADD MSTORE PUSH2 0x2DB9 DUP2 PUSH2 0x2D80 JUMP JUMPDEST SWAP1 POP SWAP2 SWAP1 POP JUMP JUMPDEST PUSH0 PUSH2 0x2DCA DUP3 PUSH2 0x1ED0 JUMP JUMPDEST SWAP2 POP PUSH2 0x2DD5 DUP4 PUSH2 0x21AE JUMP JUMPDEST SWAP3 POP PUSH2 0x2E02 PUSH32 0xFFFFFFFFFFFFFFFFFFFFFFFFFFFFFFFFFFFFFFFFFFFFFFFFFFFFFFFFFFFFFFFF DUP5 DUP5 PUSH2 0x24BA JUMP JUMPDEST SWAP1 POP SWAP3 SWAP2 POP POP JUMP JUMPDEST PUSH32 0x4E487B7100000000000000000000000000000000000000000000000000000000 PUSH0 MSTORE PUSH1 0x32 PUSH1 0x4 MSTORE PUSH1 0x24 PUSH0 REVERT JUMPDEST PUSH0 DUP2 SWAP1 POP DUP2 PUSH0 MSTORE PUSH1 0x20 PUSH0 KECCAK256 SWAP1 POP SWAP2 SWAP1 POP JUMP JUMPDEST PUSH0 DUP2 SLOAD PUSH2 0x2E55 DUP2 PUSH2 0x224F JUMP JUMPDEST PUSH2 0x2E5F DUP2 DUP7 PUSH2 0x2BE2 JUMP JUMPDEST SWAP5 POP PUSH1 0x1 DUP3 AND PUSH0 DUP2 EQ PUSH2 0x2E79 JUMPI PUSH1 0x1 DUP2 EQ PUSH2 0x2E8E JUMPI PUSH2 0x2EC0 JUMP JUMPDEST PUSH1 0xFF NOT DUP4 AND DUP7 MSTORE DUP2 ISZERO ISZERO DUP3 MUL DUP7 ADD SWAP4 POP PUSH2 0x2EC0 JUMP JUMPDEST PUSH2 0x2E97 DUP6 PUSH2 0x2E37 JUMP JUMPDEST PUSH0 JUMPDEST DUP4 DUP2 LT ISZERO PUSH2 0x2EB8 JUMPI DUP2 SLOAD DUP2 DUP10 ADD MSTORE PUSH1 0x1 DUP3 ADD SWAP2 POP PUSH1 0x20 DUP2 ADD SWAP1 POP PUSH2 0x2E99 JUMP JUMPDEST DUP4 DUP9 ADD SWAP6 POP POP POP JUMPDEST POP POP POP SWAP3 SWAP2 POP POP JUMP JUMPDEST PUSH0 PUSH2 0x2ED4 DUP3 DUP5 PUSH2 0x2E49 JUMP JUMPDEST SWAP2 POP DUP2 SWAP1 POP SWAP3 SWAP2 POP POP JUMP JUMPDEST PUSH0 PUSH2 0x2EE9 DUP3 PUSH2 0x21AE JUMP JUMPDEST SWAP2 POP PUSH2 0x2EF4 DUP4 PUSH2 0x21AE JUMP JUMPDEST SWAP3 POP DUP3 DUP3 ADD SWAP1 POP PUSH1 0xFF DUP2 GT ISZERO PUSH2 0x2F0D JUMPI PUSH2 0x2F0C PUSH2 0x242F JUMP JUMPDEST JUMPDEST SWAP3 SWAP2 POP POP JUMP JUMPDEST PUSH32 0x4E487B7100000000000000000000000000000000000000000000000000000000 PUSH0 MSTORE PUSH1 0x12 PUSH1 0x4 MSTORE PUSH1 0x24 PUSH0 REVERT JUMPDEST PUSH0 PUSH2 0x2F4A DUP3 PUSH2 0x1ED0 JUMP JUMPDEST SWAP2 POP PUSH2 0x2F55 DUP4 PUSH2 0x1ED0 JUMP JUMPDEST SWAP3 POP DUP3 PUSH2 0x2F65 JUMPI PUSH2 0x2F64 PUSH2 0x2F13 JUMP JUMPDEST JUMPDEST DUP3 DUP3 DIV SWAP1 POP SWAP3 SWAP2 POP POP JUMP INVALID LOG2 PUSH5 0x6970667358 0x22 SLT KECCAK256 0xE8 0x24 PUSH8 0xA0F587FCBE307A1A EOFCREATE 0x3B EQ PUSH11 0xCFC0FA6BCDC6C483388151 0xEA EXTCODESIZE SWAP14 0xAD 0xC0 INVALID PUSH5 0x736F6C6343 STOP ADDMOD 0x1F STOP CALLER "
				},
				"gasEstimates": {
					"creation": {
						"codeDepositCost": "2439600",
						"executionCost": "54001",
						"totalCost": "2493601"
					},
					"external": {
						"FEE()": "369",
						"addWeapon(uint256,string,uint256)": "infinite",
						"approve(address,uint256)": "infinite",
						"balanceOf(address)": "2930",
						"collectProfits()": "infinite",
						"createNewToken(string)": "infinite",
						"getApproved(uint256)": "5210",
						"incrementFirePower(uint256,uint8)": "infinite",
						"ownerOf(uint256)": "2985",
						"removeMonsterToken(uint256)": "infinite",
						"safeTransferFrom(address,address,uint256)": "infinite",
						"supportsInterface(bytes4)": "707",
						"transferFrom(address,address,uint256)": "infinite"
					}
				},
				"methodIdentifiers": {
					"FEE()": "c57981b5",
					"addWeapon(uint256,string,uint256)": "0a0eac29",
					"approve(address,uint256)": "095ea7b3",
					"balanceOf(address)": "70a08231",
					"collectProfits()": "c958e0d6",
					"createNewToken(string)": "b90f1aaa",
					"getApproved(uint256)": "081812fc",
					"incrementFirePower(uint256,uint8)": "d6ad8a94",
					"ownerOf(uint256)": "6352211e",
					"removeMonsterToken(uint256)": "50fac4f1",
					"safeTransferFrom(address,address,uint256)": "42842e0e",
					"supportsInterface(bytes4)": "01ffc9a7",
					"transferFrom(address,address,uint256)": "23b872dd"
				}
			},
			"storageLayout": {
				"storage": [
					{
						"astId": 225,
						"contract": "practica_3/MonsterTokens.sol:MonsterTokens",
						"label": "token_id_actual",
						"offset": 0,
						"slot": "0",
						"type": "t_uint256"
					},
					{
						"astId": 242,
						"contract": "practica_3/MonsterTokens.sol:MonsterTokens",
						"label": "registry",
						"offset": 0,
						"slot": "1",
						"type": "t_mapping(t_address,t_uint256)"
					},
					{
						"astId": 246,
						"contract": "practica_3/MonsterTokens.sol:MonsterTokens",
						"label": "owners",
						"offset": 0,
						"slot": "2",
						"type": "t_mapping(t_uint256,t_address)"
					},
					{
						"astId": 250,
						"contract": "practica_3/MonsterTokens.sol:MonsterTokens",
						"label": "approvals",
						"offset": 0,
						"slot": "3",
						"type": "t_mapping(t_uint256,t_address)"
					},
					{
						"astId": 255,
						"contract": "practica_3/MonsterTokens.sol:MonsterTokens",
						"label": "tokens",
						"offset": 0,
						"slot": "4",
						"type": "t_mapping(t_uint256,t_struct(Character)238_storage)"
					},
					{
						"astId": 258,
						"contract": "practica_3/MonsterTokens.sol:MonsterTokens",
						"label": "creados",
						"offset": 0,
						"slot": "5",
						"type": "t_uint256"
					},
					{
						"astId": 260,
						"contract": "practica_3/MonsterTokens.sol:MonsterTokens",
						"label": "contract_owner",
						"offset": 0,
						"slot": "6",
						"type": "t_address"
					}
				],
				"types": {
					"t_address": {
						"encoding": "inplace",
						"label": "address",
						"numberOfBytes": "20"
					},
					"t_array(t_string_storage)dyn_storage": {
						"base": "t_string_storage",
						"encoding": "dynamic_array",
						"label": "string[]",
						"numberOfBytes": "32"
					},
					"t_array(t_uint256)dyn_storage": {
						"base": "t_uint256",
						"encoding": "dynamic_array",
						"label": "uint256[]",
						"numberOfBytes": "32"
					},
					"t_mapping(t_address,t_uint256)": {
						"encoding": "mapping",
						"key": "t_address",
						"label": "mapping(address => uint256)",
						"numberOfBytes": "32",
						"value": "t_uint256"
					},
					"t_mapping(t_uint256,t_address)": {
						"encoding": "mapping",
						"key": "t_uint256",
						"label": "mapping(uint256 => address)",
						"numberOfBytes": "32",
						"value": "t_address"
					},
					"t_mapping(t_uint256,t_struct(Character)238_storage)": {
						"encoding": "mapping",
						"key": "t_uint256",
						"label": "mapping(uint256 => struct MonsterTokens.Character)",
						"numberOfBytes": "32",
						"value": "t_struct(Character)238_storage"
					},
					"t_string_storage": {
						"encoding": "bytes",
						"label": "string",
						"numberOfBytes": "32"
					},
					"t_struct(Character)238_storage": {
						"encoding": "inplace",
						"label": "struct MonsterTokens.Character",
						"members": [
							{
								"astId": 234,
								"contract": "practica_3/MonsterTokens.sol:MonsterTokens",
								"label": "name",
								"offset": 0,
								"slot": "0",
								"type": "t_string_storage"
							},
							{
								"astId": 237,
								"contract": "practica_3/MonsterTokens.sol:MonsterTokens",
								"label": "weapons",
								"offset": 0,
								"slot": "1",
								"type": "t_struct(Weapons)232_storage"
							}
						],
						"numberOfBytes": "96"
					},
					"t_struct(Weapons)232_storage": {
						"encoding": "inplace",
						"label": "struct MonsterTokens.Weapons",
						"members": [
							{
								"astId": 228,
								"contract": "practica_3/MonsterTokens.sol:MonsterTokens",
								"label": "names",
								"offset": 0,
								"slot": "0",
								"type": "t_array(t_string_storage)dyn_storage"
							},
							{
								"astId": 231,
								"contract": "practica_3/MonsterTokens.sol:MonsterTokens",
								"label": "firePowers",
								"offset": 0,
								"slot": "1",
								"type": "t_array(t_uint256)dyn_storage"
							}
						],
						"numberOfBytes": "64"
					},
					"t_uint256": {
						"encoding": "inplace",
						"label": "uint256",
						"numberOfBytes": "32"
					}
				}
			},
			"userdoc": {
				"kind": "user",
				"methods": {},
				"version": 1
			}
		}
	}
}