{
	"piggyArray.sol": {
		"PiggyArray": {
			"abi": [
				{
					"inputs": [
						{
							"internalType": "uint256",
							"name": "amountInWei",
							"type": "uint256"
						}
					],
					"name": "Withdraw",
					"outputs": [],
					"stateMutability": "nonpayable",
					"type": "function"
				},
				{
					"inputs": [
						{
							"internalType": "string",
							"name": "name",
							"type": "string"
						}
					],
					"name": "addClient",
					"outputs": [],
					"stateMutability": "payable",
					"type": "function"
				},
				{
					"inputs": [
						{
							"internalType": "uint256",
							"name": "",
							"type": "uint256"
						}
					],
					"name": "array",
					"outputs": [
						{
							"internalType": "string",
							"name": "name",
							"type": "string"
						},
						{
							"internalType": "address",
							"name": "addr",
							"type": "address"
						},
						{
							"internalType": "uint256",
							"name": "cantidad",
							"type": "uint256"
						}
					],
					"stateMutability": "view",
					"type": "function"
				},
				{
					"inputs": [],
					"name": "deposit",
					"outputs": [],
					"stateMutability": "payable",
					"type": "function"
				},
				{
					"inputs": [],
					"name": "getBalance",
					"outputs": [
						{
							"internalType": "uint256",
							"name": "",
							"type": "uint256"
						}
					],
					"stateMutability": "view",
					"type": "function"
				}
			],
			"devdoc": {
				"kind": "dev",
				"methods": {},
				"version": 1
			},
			"evm": {
				"assembly": "    /* \"piggyArray.sol\":58:1468  contract PiggyArray{... */\n  mstore(0x40, 0x80)\n  callvalue\n  dup1\n  iszero\n  tag_1\n  jumpi\n  revert(0x00, 0x00)\ntag_1:\n  pop\n  dataSize(sub_0)\n  dup1\n  dataOffset(sub_0)\n  0x00\n  codecopy\n  0x00\n  return\nstop\n\nsub_0: assembly {\n        /* \"piggyArray.sol\":58:1468  contract PiggyArray{... */\n      mstore(0x40, 0x80)\n      jumpi(tag_1, lt(calldatasize, 0x04))\n      shr(0xe0, calldataload(0x00))\n      dup1\n      0x12065fe0\n      eq\n      tag_2\n      jumpi\n      dup1\n      0x38d94193\n      eq\n      tag_3\n      jumpi\n      dup1\n      0x5b6b431d\n      eq\n      tag_4\n      jumpi\n      dup1\n      0x79b7f303\n      eq\n      tag_5\n      jumpi\n      dup1\n      0xd0e30db0\n      eq\n      tag_6\n      jumpi\n    tag_1:\n      revert(0x00, 0x00)\n        /* \"piggyArray.sol\":879:1064  function getBalance() external view returns (uint){... */\n    tag_2:\n      callvalue\n      dup1\n      iszero\n      tag_7\n      jumpi\n      revert(0x00, 0x00)\n    tag_7:\n      pop\n      tag_8\n      tag_9\n      jump\t// in\n    tag_8:\n      mload(0x40)\n      tag_10\n      swap2\n      swap1\n      tag_11\n      jump\t// in\n    tag_10:\n      mload(0x40)\n      dup1\n      swap2\n      sub\n      swap1\n      return\n        /* \"piggyArray.sol\":176:198  Cliente[] public array */\n    tag_3:\n      callvalue\n      dup1\n      iszero\n      tag_12\n      jumpi\n      revert(0x00, 0x00)\n    tag_12:\n      pop\n      tag_13\n      0x04\n      dup1\n      calldatasize\n      sub\n      dup2\n      add\n      swap1\n      tag_14\n      swap2\n      swap1\n      tag_15\n      jump\t// in\n    tag_14:\n      tag_16\n      jump\t// in\n    tag_13:\n      mload(0x40)\n      tag_17\n      swap4\n      swap3\n      swap2\n      swap1\n      tag_18\n      jump\t// in\n    tag_17:\n      mload(0x40)\n      dup1\n      swap2\n      sub\n      swap1\n      return\n        /* \"piggyArray.sol\":1065:1458  function Withdraw(uint amountInWei)external {... */\n    tag_4:\n      callvalue\n      dup1\n      iszero\n      tag_19\n      jumpi\n      revert(0x00, 0x00)\n    tag_19:\n      pop\n      tag_20\n      0x04\n      dup1\n      calldatasize\n      sub\n      dup2\n      add\n      swap1\n      tag_21\n      swap2\n      swap1\n      tag_15\n      jump\t// in\n    tag_21:\n      tag_22\n      jump\t// in\n    tag_20:\n      stop\n        /* \"piggyArray.sol\":413:711  function addClient(string memory name) external payable {... */\n    tag_5:\n      tag_23\n      0x04\n      dup1\n      calldatasize\n      sub\n      dup2\n      add\n      swap1\n      tag_24\n      swap2\n      swap1\n      tag_25\n      jump\t// in\n    tag_24:\n      tag_26\n      jump\t// in\n    tag_23:\n      stop\n        /* \"piggyArray.sol\":713:877  function deposit() external payable{... */\n    tag_6:\n      tag_27\n      tag_28\n      jump\t// in\n    tag_27:\n      stop\n        /* \"piggyArray.sol\":879:1064  function getBalance() external view returns (uint){... */\n    tag_9:\n        /* \"piggyArray.sol\":924:928  uint */\n      0x00\n        /* \"piggyArray.sol\":939:947  uint ind */\n      0x00\n        /* \"piggyArray.sol\":950:973  clientIndex(msg.sender) */\n      tag_30\n        /* \"piggyArray.sol\":962:972  msg.sender */\n      caller\n        /* \"piggyArray.sol\":950:961  clientIndex */\n      tag_31\n        /* \"piggyArray.sol\":950:973  clientIndex(msg.sender) */\n      jump\t// in\n    tag_30:\n        /* \"piggyArray.sol\":939:973  uint ind = clientIndex(msg.sender) */\n      swap1\n      pop\n        /* \"piggyArray.sol\":998:1003  array */\n      0x00\n        /* \"piggyArray.sol\":998:1010  array.length */\n      dup1\n      sload\n      swap1\n      pop\n        /* \"piggyArray.sol\":991:994  ind */\n      dup2\n        /* \"piggyArray.sol\":991:1010  ind != array.length */\n      sub\n        /* \"piggyArray.sol\":983:1025  require(ind != array.length, \"Not exists\") */\n      tag_32\n      jumpi\n      mload(0x40)\n      0x08c379a000000000000000000000000000000000000000000000000000000000\n      dup2\n      mstore\n      0x04\n      add\n      tag_33\n      swap1\n      tag_34\n      jump\t// in\n    tag_33:\n      mload(0x40)\n      dup1\n      swap2\n      sub\n      swap1\n      revert\n    tag_32:\n        /* \"piggyArray.sol\":1042:1047  array */\n      0x00\n        /* \"piggyArray.sol\":1048:1051  ind */\n      dup2\n        /* \"piggyArray.sol\":1042:1052  array[ind] */\n      dup2\n      sload\n      dup2\n      lt\n      tag_35\n      jumpi\n      tag_36\n      tag_37\n      jump\t// in\n    tag_36:\n    tag_35:\n      swap1\n      0x00\n      mstore\n      keccak256(0x00, 0x20)\n      swap1\n      0x03\n      mul\n      add\n        /* \"piggyArray.sol\":1042:1061  array[ind].cantidad */\n      0x02\n      add\n      sload\n        /* \"piggyArray.sol\":1035:1061  return array[ind].cantidad */\n      swap2\n      pop\n      pop\n        /* \"piggyArray.sol\":879:1064  function getBalance() external view returns (uint){... */\n      swap1\n      jump\t// out\n        /* \"piggyArray.sol\":176:198  Cliente[] public array */\n    tag_16:\n      0x00\n      dup2\n      dup2\n      sload\n      dup2\n      lt\n      tag_39\n      jumpi\n      0x00\n      dup1\n      revert\n    tag_39:\n      swap1\n      0x00\n      mstore\n      keccak256(0x00, 0x20)\n      swap1\n      0x03\n      mul\n      add\n      0x00\n      swap2\n      pop\n      swap1\n      pop\n      dup1\n      0x00\n      add\n      dup1\n      sload\n      tag_41\n      swap1\n      tag_42\n      jump\t// in\n    tag_41:\n      dup1\n      0x1f\n      add\n      0x20\n      dup1\n      swap2\n      div\n      mul\n      0x20\n      add\n      mload(0x40)\n      swap1\n      dup2\n      add\n      0x40\n      mstore\n      dup1\n      swap3\n      swap2\n      swap1\n      dup2\n      dup2\n      mstore\n      0x20\n      add\n      dup3\n      dup1\n      sload\n      tag_43\n      swap1\n      tag_42\n      jump\t// in\n    tag_43:\n      dup1\n      iszero\n      tag_44\n      jumpi\n      dup1\n      0x1f\n      lt\n      tag_45\n      jumpi\n      0x0100\n      dup1\n      dup4\n      sload\n      div\n      mul\n      dup4\n      mstore\n      swap2\n      0x20\n      add\n      swap2\n      jump(tag_44)\n    tag_45:\n      dup3\n      add\n      swap2\n      swap1\n      0x00\n      mstore\n      keccak256(0x00, 0x20)\n      swap1\n    tag_46:\n      dup2\n      sload\n      dup2\n      mstore\n      swap1\n      0x01\n      add\n      swap1\n      0x20\n      add\n      dup1\n      dup4\n      gt\n      tag_46\n      jumpi\n      dup3\n      swap1\n      sub\n      0x1f\n      and\n      dup3\n      add\n      swap2\n    tag_44:\n      pop\n      pop\n      pop\n      pop\n      pop\n      swap1\n      dup1\n      0x01\n      add\n      0x00\n      swap1\n      sload\n      swap1\n      0x0100\n      exp\n      swap1\n      div\n      0xffffffffffffffffffffffffffffffffffffffff\n      and\n      swap1\n      dup1\n      0x02\n      add\n      sload\n      swap1\n      pop\n      dup4\n      jump\t// out\n        /* \"piggyArray.sol\":1065:1458  function Withdraw(uint amountInWei)external {... */\n    tag_22:\n        /* \"piggyArray.sol\":1119:1127  uint ind */\n      0x00\n        /* \"piggyArray.sol\":1130:1153  clientIndex(msg.sender) */\n      tag_48\n        /* \"piggyArray.sol\":1142:1152  msg.sender */\n      caller\n        /* \"piggyArray.sol\":1130:1141  clientIndex */\n      tag_31\n        /* \"piggyArray.sol\":1130:1153  clientIndex(msg.sender) */\n      jump\t// in\n    tag_48:\n        /* \"piggyArray.sol\":1119:1153  uint ind = clientIndex(msg.sender) */\n      swap1\n      pop\n        /* \"piggyArray.sol\":1178:1183  array */\n      0x00\n        /* \"piggyArray.sol\":1178:1190  array.length */\n      dup1\n      sload\n      swap1\n      pop\n        /* \"piggyArray.sol\":1171:1174  ind */\n      dup2\n        /* \"piggyArray.sol\":1171:1190  ind != array.length */\n      sub\n        /* \"piggyArray.sol\":1163:1205  require(ind != array.length, \"Not exists\") */\n      tag_49\n      jumpi\n      mload(0x40)\n      0x08c379a000000000000000000000000000000000000000000000000000000000\n      dup2\n      mstore\n      0x04\n      add\n      tag_50\n      swap1\n      tag_34\n      jump\t// in\n    tag_50:\n      mload(0x40)\n      dup1\n      swap2\n      sub\n      swap1\n      revert\n    tag_49:\n        /* \"piggyArray.sol\":1238:1243  array */\n      0x00\n        /* \"piggyArray.sol\":1244:1247  ind */\n      dup2\n        /* \"piggyArray.sol\":1238:1248  array[ind] */\n      dup2\n      sload\n      dup2\n      lt\n      tag_51\n      jumpi\n      tag_52\n      tag_37\n      jump\t// in\n    tag_52:\n    tag_51:\n      swap1\n      0x00\n      mstore\n      keccak256(0x00, 0x20)\n      swap1\n      0x03\n      mul\n      add\n        /* \"piggyArray.sol\":1238:1257  array[ind].cantidad */\n      0x02\n      add\n      sload\n        /* \"piggyArray.sol\":1223:1234  amountInWei */\n      dup3\n        /* \"piggyArray.sol\":1223:1257  amountInWei <= array[ind].cantidad */\n      gt\n      iszero\n        /* \"piggyArray.sol\":1215:1281  require(amountInWei <= array[ind].cantidad, \"Insufficent balance\") */\n      tag_54\n      jumpi\n      mload(0x40)\n      0x08c379a000000000000000000000000000000000000000000000000000000000\n      dup2\n      mstore\n      0x04\n      add\n      tag_55\n      swap1\n      tag_56\n      jump\t// in\n    tag_55:\n      mload(0x40)\n      dup1\n      swap2\n      sub\n      swap1\n      revert\n    tag_54:\n        /* \"piggyArray.sol\":1314:1325  amountInWei */\n      dup2\n        /* \"piggyArray.sol\":1291:1296  array */\n      0x00\n        /* \"piggyArray.sol\":1297:1300  ind */\n      dup3\n        /* \"piggyArray.sol\":1291:1301  array[ind] */\n      dup2\n      sload\n      dup2\n      lt\n      tag_57\n      jumpi\n      tag_58\n      tag_37\n      jump\t// in\n    tag_58:\n    tag_57:\n      swap1\n      0x00\n      mstore\n      keccak256(0x00, 0x20)\n      swap1\n      0x03\n      mul\n      add\n        /* \"piggyArray.sol\":1291:1310  array[ind].cantidad */\n      0x02\n      add\n      0x00\n        /* \"piggyArray.sol\":1291:1325  array[ind].cantidad -= amountInWei */\n      dup3\n      dup3\n      sload\n      tag_60\n      swap2\n      swap1\n      tag_61\n      jump\t// in\n    tag_60:\n      swap3\n      pop\n      pop\n      dup2\n      swap1\n      sstore\n      pop\n        /* \"piggyArray.sol\":1336:1348  bool success */\n      0x00\n        /* \"piggyArray.sol\":1362:1372  msg.sender */\n      caller\n        /* \"piggyArray.sol\":1354:1378  payable(msg.sender).call */\n      0xffffffffffffffffffffffffffffffffffffffff\n      and\n        /* \"piggyArray.sol\":1386:1397  amountInWei */\n      dup4\n        /* \"piggyArray.sol\":1354:1402  payable(msg.sender).call{value: amountInWei}(\"\") */\n      mload(0x40)\n      tag_62\n      swap1\n      tag_63\n      jump\t// in\n    tag_62:\n      0x00\n      mload(0x40)\n      dup1\n      dup4\n      sub\n      dup2\n      dup6\n      dup8\n      gas\n      call\n      swap3\n      pop\n      pop\n      pop\n      returndatasize\n      dup1\n      0x00\n      dup2\n      eq\n      tag_66\n      jumpi\n      mload(0x40)\n      swap2\n      pop\n      and(add(returndatasize, 0x3f), not(0x1f))\n      dup3\n      add\n      0x40\n      mstore\n      returndatasize\n      dup3\n      mstore\n      returndatasize\n      0x00\n      0x20\n      dup5\n      add\n      returndatacopy\n      jump(tag_65)\n    tag_66:\n      0x60\n      swap2\n      pop\n    tag_65:\n      pop\n        /* \"piggyArray.sol\":1335:1402  (bool success, ) = payable(msg.sender).call{value: amountInWei}(\"\") */\n      pop\n      swap1\n      pop\n        /* \"piggyArray.sol\":1420:1427  success */\n      dup1\n        /* \"piggyArray.sol\":1412:1455  require(success, \"Error en la transaccion\") */\n      tag_67\n      jumpi\n      mload(0x40)\n      0x08c379a000000000000000000000000000000000000000000000000000000000\n      dup2\n      mstore\n      0x04\n      add\n      tag_68\n      swap1\n      tag_69\n      jump\t// in\n    tag_68:\n      mload(0x40)\n      dup1\n      swap2\n      sub\n      swap1\n      revert\n    tag_67:\n        /* \"piggyArray.sol\":1109:1458  {... */\n      pop\n      pop\n        /* \"piggyArray.sol\":1065:1458  function Withdraw(uint amountInWei)external {... */\n      pop\n      jump\t// out\n        /* \"piggyArray.sol\":413:711  function addClient(string memory name) external payable {... */\n    tag_26:\n        /* \"piggyArray.sol\":475:483  uint ind */\n      0x00\n        /* \"piggyArray.sol\":486:509  clientIndex(msg.sender) */\n      tag_71\n        /* \"piggyArray.sol\":498:508  msg.sender */\n      caller\n        /* \"piggyArray.sol\":486:497  clientIndex */\n      tag_31\n        /* \"piggyArray.sol\":486:509  clientIndex(msg.sender) */\n      jump\t// in\n    tag_71:\n        /* \"piggyArray.sol\":475:509  uint ind = clientIndex(msg.sender) */\n      swap1\n      pop\n        /* \"piggyArray.sol\":530:535  array */\n      0x00\n        /* \"piggyArray.sol\":530:542  array.length */\n      dup1\n      sload\n      swap1\n      pop\n        /* \"piggyArray.sol\":523:526  ind */\n      dup2\n        /* \"piggyArray.sol\":523:542  ind == array.length */\n      eq\n        /* \"piggyArray.sol\":515:559  require(ind == array.length,\"Already exits\") */\n      tag_72\n      jumpi\n      mload(0x40)\n      0x08c379a000000000000000000000000000000000000000000000000000000000\n      dup2\n      mstore\n      0x04\n      add\n      tag_73\n      swap1\n      tag_74\n      jump\t// in\n    tag_73:\n      mload(0x40)\n      dup1\n      swap2\n      sub\n      swap1\n      revert\n    tag_72:\n        /* \"piggyArray.sol\":596:597  0 */\n      0x00\n        /* \"piggyArray.sol\":580:584  name */\n      dup3\n        /* \"piggyArray.sol\":574:592  bytes(name).length */\n      mload\n        /* \"piggyArray.sol\":574:597  bytes(name).length != 0 */\n      sub\n        /* \"piggyArray.sol\":565:612  require( bytes(name).length != 0, \"empty name\") */\n      tag_75\n      jumpi\n      mload(0x40)\n      0x08c379a000000000000000000000000000000000000000000000000000000000\n      dup2\n      mstore\n      0x04\n      add\n      tag_76\n      swap1\n      tag_77\n      jump\t// in\n    tag_76:\n      mload(0x40)\n      dup1\n      swap2\n      sub\n      swap1\n      revert\n    tag_75:\n        /* \"piggyArray.sol\":618:623  array */\n      0x00\n        /* \"piggyArray.sol\":629:707  Cliente({... */\n      mload(0x40)\n      dup1\n      0x60\n      add\n      0x40\n      mstore\n      dup1\n        /* \"piggyArray.sol\":649:653  name */\n      dup5\n        /* \"piggyArray.sol\":629:707  Cliente({... */\n      dup2\n      mstore\n      0x20\n      add\n        /* \"piggyArray.sol\":665:675  msg.sender */\n      caller\n        /* \"piggyArray.sol\":629:707  Cliente({... */\n      0xffffffffffffffffffffffffffffffffffffffff\n      and\n      dup2\n      mstore\n      0x20\n      add\n        /* \"piggyArray.sol\":691:700  msg.value */\n      callvalue\n        /* \"piggyArray.sol\":629:707  Cliente({... */\n      dup2\n      mstore\n      pop\n        /* \"piggyArray.sol\":618:708  array.push(Cliente({... */\n      swap1\n      dup1\n      0x01\n      dup2\n      sload\n      add\n      dup1\n      dup3\n      sstore\n      dup1\n      swap2\n      pop\n      pop\n      0x01\n      swap1\n      sub\n      swap1\n      0x00\n      mstore\n      keccak256(0x00, 0x20)\n      swap1\n      0x03\n      mul\n      add\n      0x00\n      swap1\n      swap2\n      swap1\n      swap2\n      swap1\n      swap2\n      pop\n      0x00\n      dup3\n      add\n      mload\n      dup2\n      0x00\n      add\n      swap1\n      dup2\n      tag_79\n      swap2\n      swap1\n      tag_80\n      jump\t// in\n    tag_79:\n      pop\n      0x20\n      dup3\n      add\n      mload\n      dup2\n      0x01\n      add\n      exp(0x0100, 0x00)\n      dup2\n      sload\n      dup2\n      0xffffffffffffffffffffffffffffffffffffffff\n      mul\n      not\n      and\n      swap1\n      dup4\n      0xffffffffffffffffffffffffffffffffffffffff\n      and\n      mul\n      or\n      swap1\n      sstore\n      pop\n      0x40\n      dup3\n      add\n      mload\n      dup2\n      0x02\n      add\n      sstore\n      pop\n      pop\n        /* \"piggyArray.sol\":469:711  {... */\n      pop\n        /* \"piggyArray.sol\":413:711  function addClient(string memory name) external payable {... */\n      pop\n      jump\t// out\n        /* \"piggyArray.sol\":713:877  function deposit() external payable{... */\n    tag_28:\n        /* \"piggyArray.sol\":754:762  uint ind */\n      0x00\n        /* \"piggyArray.sol\":765:788  clientIndex(msg.sender) */\n      tag_82\n        /* \"piggyArray.sol\":777:787  msg.sender */\n      caller\n        /* \"piggyArray.sol\":765:776  clientIndex */\n      tag_31\n        /* \"piggyArray.sol\":765:788  clientIndex(msg.sender) */\n      jump\t// in\n    tag_82:\n        /* \"piggyArray.sol\":754:788  uint ind = clientIndex(msg.sender) */\n      swap1\n      pop\n        /* \"piggyArray.sol\":809:814  array */\n      0x00\n        /* \"piggyArray.sol\":809:821  array.length */\n      dup1\n      sload\n      swap1\n      pop\n        /* \"piggyArray.sol\":802:805  ind */\n      dup2\n        /* \"piggyArray.sol\":802:821  ind != array.length */\n      sub\n        /* \"piggyArray.sol\":794:836  require(ind != array.length, \"Not exists\") */\n      tag_83\n      jumpi\n      mload(0x40)\n      0x08c379a000000000000000000000000000000000000000000000000000000000\n      dup2\n      mstore\n      0x04\n      add\n      tag_84\n      swap1\n      tag_34\n      jump\t// in\n    tag_84:\n      mload(0x40)\n      dup1\n      swap2\n      sub\n      swap1\n      revert\n    tag_83:\n        /* \"piggyArray.sol\":865:874  msg.value */\n      callvalue\n        /* \"piggyArray.sol\":842:847  array */\n      0x00\n        /* \"piggyArray.sol\":848:851  ind */\n      dup3\n        /* \"piggyArray.sol\":842:852  array[ind] */\n      dup2\n      sload\n      dup2\n      lt\n      tag_85\n      jumpi\n      tag_86\n      tag_37\n      jump\t// in\n    tag_86:\n    tag_85:\n      swap1\n      0x00\n      mstore\n      keccak256(0x00, 0x20)\n      swap1\n      0x03\n      mul\n      add\n        /* \"piggyArray.sol\":842:861  array[ind].cantidad */\n      0x02\n      add\n      0x00\n        /* \"piggyArray.sol\":842:874  array[ind].cantidad += msg.value */\n      dup3\n      dup3\n      sload\n      tag_88\n      swap2\n      swap1\n      tag_89\n      jump\t// in\n    tag_88:\n      swap3\n      pop\n      pop\n      dup2\n      swap1\n      sstore\n      pop\n        /* \"piggyArray.sol\":748:877  {... */\n      pop\n        /* \"piggyArray.sol\":713:877  function deposit() external payable{... */\n      jump\t// out\n        /* \"piggyArray.sol\":201:411  function clientIndex(address _address)internal view returns (uint){... */\n    tag_31:\n        /* \"piggyArray.sol\":262:266  uint */\n      0x00\n        /* \"piggyArray.sol\":283:289  uint i */\n      0x00\n        /* \"piggyArray.sol\":292:293  0 */\n      0x00\n        /* \"piggyArray.sol\":283:293  uint i = 0 */\n      swap1\n      pop\n        /* \"piggyArray.sol\":278:380  for( uint i = 0; i < array.length; i++){... */\n    tag_91:\n        /* \"piggyArray.sol\":299:304  array */\n      0x00\n        /* \"piggyArray.sol\":299:311  array.length */\n      dup1\n      sload\n      swap1\n      pop\n        /* \"piggyArray.sol\":295:296  i */\n      dup2\n        /* \"piggyArray.sol\":295:311  i < array.length */\n      lt\n        /* \"piggyArray.sol\":278:380  for( uint i = 0; i < array.length; i++){... */\n      iszero\n      tag_92\n      jumpi\n        /* \"piggyArray.sol\":351:359  _address */\n      dup3\n        /* \"piggyArray.sol\":334:359  array[i].addr == _address */\n      0xffffffffffffffffffffffffffffffffffffffff\n      and\n        /* \"piggyArray.sol\":334:339  array */\n      0x00\n        /* \"piggyArray.sol\":340:341  i */\n      dup3\n        /* \"piggyArray.sol\":334:342  array[i] */\n      dup2\n      sload\n      dup2\n      lt\n      tag_94\n      jumpi\n      tag_95\n      tag_37\n      jump\t// in\n    tag_95:\n    tag_94:\n      swap1\n      0x00\n      mstore\n      keccak256(0x00, 0x20)\n      swap1\n      0x03\n      mul\n      add\n        /* \"piggyArray.sol\":334:347  array[i].addr */\n      0x01\n      add\n      0x00\n      swap1\n      sload\n      swap1\n      0x0100\n      exp\n      swap1\n      div\n      0xffffffffffffffffffffffffffffffffffffffff\n      and\n        /* \"piggyArray.sol\":334:359  array[i].addr == _address */\n      0xffffffffffffffffffffffffffffffffffffffff\n      and\n      sub\n        /* \"piggyArray.sol\":331:369  if(array[i].addr == _address) return i */\n      tag_97\n      jumpi\n        /* \"piggyArray.sol\":368:369  i */\n      dup1\n        /* \"piggyArray.sol\":361:369  return i */\n      swap2\n      pop\n      pop\n      jump(tag_90)\n        /* \"piggyArray.sol\":331:369  if(array[i].addr == _address) return i */\n    tag_97:\n        /* \"piggyArray.sol\":313:316  i++ */\n      dup1\n      dup1\n      0x01\n      add\n      swap2\n      pop\n      pop\n        /* \"piggyArray.sol\":278:380  for( uint i = 0; i < array.length; i++){... */\n      jump(tag_91)\n    tag_92:\n      pop\n        /* \"piggyArray.sol\":396:401  array */\n      0x00\n        /* \"piggyArray.sol\":396:408  array.length */\n      dup1\n      sload\n      swap1\n      pop\n        /* \"piggyArray.sol\":389:408  return array.length */\n      swap1\n      pop\n        /* \"piggyArray.sol\":201:411  function clientIndex(address _address)internal view returns (uint){... */\n    tag_90:\n      swap2\n      swap1\n      pop\n      jump\t// out\n        /* \"#utility.yul\":7:84   */\n    tag_98:\n        /* \"#utility.yul\":44:51   */\n      0x00\n        /* \"#utility.yul\":73:78   */\n      dup2\n        /* \"#utility.yul\":62:78   */\n      swap1\n      pop\n        /* \"#utility.yul\":7:84   */\n      swap2\n      swap1\n      pop\n      jump\t// out\n        /* \"#utility.yul\":90:208   */\n    tag_99:\n        /* \"#utility.yul\":177:201   */\n      tag_155\n        /* \"#utility.yul\":195:200   */\n      dup2\n        /* \"#utility.yul\":177:201   */\n      tag_98\n      jump\t// in\n    tag_155:\n        /* \"#utility.yul\":172:175   */\n      dup3\n        /* \"#utility.yul\":165:202   */\n      mstore\n        /* \"#utility.yul\":90:208   */\n      pop\n      pop\n      jump\t// out\n        /* \"#utility.yul\":214:436   */\n    tag_11:\n        /* \"#utility.yul\":307:311   */\n      0x00\n        /* \"#utility.yul\":345:347   */\n      0x20\n        /* \"#utility.yul\":334:343   */\n      dup3\n        /* \"#utility.yul\":330:348   */\n      add\n        /* \"#utility.yul\":322:348   */\n      swap1\n      pop\n        /* \"#utility.yul\":358:429   */\n      tag_157\n        /* \"#utility.yul\":426:427   */\n      0x00\n        /* \"#utility.yul\":415:424   */\n      dup4\n        /* \"#utility.yul\":411:428   */\n      add\n        /* \"#utility.yul\":402:408   */\n      dup5\n        /* \"#utility.yul\":358:429   */\n      tag_99\n      jump\t// in\n    tag_157:\n        /* \"#utility.yul\":214:436   */\n      swap3\n      swap2\n      pop\n      pop\n      jump\t// out\n        /* \"#utility.yul\":442:517   */\n    tag_100:\n        /* \"#utility.yul\":475:481   */\n      0x00\n        /* \"#utility.yul\":508:510   */\n      0x40\n        /* \"#utility.yul\":502:511   */\n      mload\n        /* \"#utility.yul\":492:511   */\n      swap1\n      pop\n        /* \"#utility.yul\":442:517   */\n      swap1\n      jump\t// out\n        /* \"#utility.yul\":523:640   */\n    tag_101:\n        /* \"#utility.yul\":632:633   */\n      0x00\n        /* \"#utility.yul\":629:630   */\n      0x00\n        /* \"#utility.yul\":622:634   */\n      revert\n        /* \"#utility.yul\":646:763   */\n    tag_102:\n        /* \"#utility.yul\":755:756   */\n      0x00\n        /* \"#utility.yul\":752:753   */\n      0x00\n        /* \"#utility.yul\":745:757   */\n      revert\n        /* \"#utility.yul\":769:891   */\n    tag_103:\n        /* \"#utility.yul\":842:866   */\n      tag_162\n        /* \"#utility.yul\":860:865   */\n      dup2\n        /* \"#utility.yul\":842:866   */\n      tag_98\n      jump\t// in\n    tag_162:\n        /* \"#utility.yul\":835:840   */\n      dup2\n        /* \"#utility.yul\":832:867   */\n      eq\n        /* \"#utility.yul\":822:885   */\n      tag_163\n      jumpi\n        /* \"#utility.yul\":881:882   */\n      0x00\n        /* \"#utility.yul\":878:879   */\n      0x00\n        /* \"#utility.yul\":871:883   */\n      revert\n        /* \"#utility.yul\":822:885   */\n    tag_163:\n        /* \"#utility.yul\":769:891   */\n      pop\n      jump\t// out\n        /* \"#utility.yul\":897:1036   */\n    tag_104:\n        /* \"#utility.yul\":943:948   */\n      0x00\n        /* \"#utility.yul\":981:987   */\n      dup2\n        /* \"#utility.yul\":968:988   */\n      calldataload\n        /* \"#utility.yul\":959:988   */\n      swap1\n      pop\n        /* \"#utility.yul\":997:1030   */\n      tag_165\n        /* \"#utility.yul\":1024:1029   */\n      dup2\n        /* \"#utility.yul\":997:1030   */\n      tag_103\n      jump\t// in\n    tag_165:\n        /* \"#utility.yul\":897:1036   */\n      swap3\n      swap2\n      pop\n      pop\n      jump\t// out\n        /* \"#utility.yul\":1042:1371   */\n    tag_15:\n        /* \"#utility.yul\":1101:1107   */\n      0x00\n        /* \"#utility.yul\":1150:1152   */\n      0x20\n        /* \"#utility.yul\":1138:1147   */\n      dup3\n        /* \"#utility.yul\":1129:1136   */\n      dup5\n        /* \"#utility.yul\":1125:1148   */\n      sub\n        /* \"#utility.yul\":1121:1153   */\n      slt\n        /* \"#utility.yul\":1118:1237   */\n      iszero\n      tag_167\n      jumpi\n        /* \"#utility.yul\":1156:1235   */\n      tag_168\n      tag_101\n      jump\t// in\n    tag_168:\n        /* \"#utility.yul\":1118:1237   */\n    tag_167:\n        /* \"#utility.yul\":1276:1277   */\n      0x00\n        /* \"#utility.yul\":1301:1354   */\n      tag_169\n        /* \"#utility.yul\":1346:1353   */\n      dup5\n        /* \"#utility.yul\":1337:1343   */\n      dup3\n        /* \"#utility.yul\":1326:1335   */\n      dup6\n        /* \"#utility.yul\":1322:1344   */\n      add\n        /* \"#utility.yul\":1301:1354   */\n      tag_104\n      jump\t// in\n    tag_169:\n        /* \"#utility.yul\":1291:1354   */\n      swap2\n      pop\n        /* \"#utility.yul\":1247:1364   */\n      pop\n        /* \"#utility.yul\":1042:1371   */\n      swap3\n      swap2\n      pop\n      pop\n      jump\t// out\n        /* \"#utility.yul\":1377:1476   */\n    tag_105:\n        /* \"#utility.yul\":1429:1435   */\n      0x00\n        /* \"#utility.yul\":1463:1468   */\n      dup2\n        /* \"#utility.yul\":1457:1469   */\n      mload\n        /* \"#utility.yul\":1447:1469   */\n      swap1\n      pop\n        /* \"#utility.yul\":1377:1476   */\n      swap2\n      swap1\n      pop\n      jump\t// out\n        /* \"#utility.yul\":1482:1651   */\n    tag_106:\n        /* \"#utility.yul\":1566:1577   */\n      0x00\n        /* \"#utility.yul\":1600:1606   */\n      dup3\n        /* \"#utility.yul\":1595:1598   */\n      dup3\n        /* \"#utility.yul\":1588:1607   */\n      mstore\n        /* \"#utility.yul\":1640:1644   */\n      0x20\n        /* \"#utility.yul\":1635:1638   */\n      dup3\n        /* \"#utility.yul\":1631:1645   */\n      add\n        /* \"#utility.yul\":1616:1645   */\n      swap1\n      pop\n        /* \"#utility.yul\":1482:1651   */\n      swap3\n      swap2\n      pop\n      pop\n      jump\t// out\n        /* \"#utility.yul\":1657:1796   */\n    tag_107:\n        /* \"#utility.yul\":1746:1752   */\n      dup3\n        /* \"#utility.yul\":1741:1744   */\n      dup2\n        /* \"#utility.yul\":1736:1739   */\n      dup4\n        /* \"#utility.yul\":1730:1753   */\n      mcopy\n        /* \"#utility.yul\":1787:1788   */\n      0x00\n        /* \"#utility.yul\":1778:1784   */\n      dup4\n        /* \"#utility.yul\":1773:1776   */\n      dup4\n        /* \"#utility.yul\":1769:1785   */\n      add\n        /* \"#utility.yul\":1762:1789   */\n      mstore\n        /* \"#utility.yul\":1657:1796   */\n      pop\n      pop\n      pop\n      jump\t// out\n        /* \"#utility.yul\":1802:1904   */\n    tag_108:\n        /* \"#utility.yul\":1843:1849   */\n      0x00\n        /* \"#utility.yul\":1894:1896   */\n      0x1f\n        /* \"#utility.yul\":1890:1897   */\n      not\n        /* \"#utility.yul\":1885:1887   */\n      0x1f\n        /* \"#utility.yul\":1878:1883   */\n      dup4\n        /* \"#utility.yul\":1874:1888   */\n      add\n        /* \"#utility.yul\":1870:1898   */\n      and\n        /* \"#utility.yul\":1860:1898   */\n      swap1\n      pop\n        /* \"#utility.yul\":1802:1904   */\n      swap2\n      swap1\n      pop\n      jump\t// out\n        /* \"#utility.yul\":1910:2287   */\n    tag_109:\n        /* \"#utility.yul\":1998:2001   */\n      0x00\n        /* \"#utility.yul\":2026:2065   */\n      tag_175\n        /* \"#utility.yul\":2059:2064   */\n      dup3\n        /* \"#utility.yul\":2026:2065   */\n      tag_105\n      jump\t// in\n    tag_175:\n        /* \"#utility.yul\":2081:2152   */\n      tag_176\n        /* \"#utility.yul\":2145:2151   */\n      dup2\n        /* \"#utility.yul\":2140:2143   */\n      dup6\n        /* \"#utility.yul\":2081:2152   */\n      tag_106\n      jump\t// in\n    tag_176:\n        /* \"#utility.yul\":2074:2152   */\n      swap4\n      pop\n        /* \"#utility.yul\":2161:2226   */\n      tag_177\n        /* \"#utility.yul\":2219:2225   */\n      dup2\n        /* \"#utility.yul\":2214:2217   */\n      dup6\n        /* \"#utility.yul\":2207:2211   */\n      0x20\n        /* \"#utility.yul\":2200:2205   */\n      dup7\n        /* \"#utility.yul\":2196:2212   */\n      add\n        /* \"#utility.yul\":2161:2226   */\n      tag_107\n      jump\t// in\n    tag_177:\n        /* \"#utility.yul\":2251:2280   */\n      tag_178\n        /* \"#utility.yul\":2273:2279   */\n      dup2\n        /* \"#utility.yul\":2251:2280   */\n      tag_108\n      jump\t// in\n    tag_178:\n        /* \"#utility.yul\":2246:2249   */\n      dup5\n        /* \"#utility.yul\":2242:2281   */\n      add\n        /* \"#utility.yul\":2235:2281   */\n      swap2\n      pop\n        /* \"#utility.yul\":2002:2287   */\n      pop\n        /* \"#utility.yul\":1910:2287   */\n      swap3\n      swap2\n      pop\n      pop\n      jump\t// out\n        /* \"#utility.yul\":2293:2419   */\n    tag_110:\n        /* \"#utility.yul\":2330:2337   */\n      0x00\n        /* \"#utility.yul\":2370:2412   */\n      0xffffffffffffffffffffffffffffffffffffffff\n        /* \"#utility.yul\":2363:2368   */\n      dup3\n        /* \"#utility.yul\":2359:2413   */\n      and\n        /* \"#utility.yul\":2348:2413   */\n      swap1\n      pop\n        /* \"#utility.yul\":2293:2419   */\n      swap2\n      swap1\n      pop\n      jump\t// out\n        /* \"#utility.yul\":2425:2521   */\n    tag_111:\n        /* \"#utility.yul\":2462:2469   */\n      0x00\n        /* \"#utility.yul\":2491:2515   */\n      tag_181\n        /* \"#utility.yul\":2509:2514   */\n      dup3\n        /* \"#utility.yul\":2491:2515   */\n      tag_110\n      jump\t// in\n    tag_181:\n        /* \"#utility.yul\":2480:2515   */\n      swap1\n      pop\n        /* \"#utility.yul\":2425:2521   */\n      swap2\n      swap1\n      pop\n      jump\t// out\n        /* \"#utility.yul\":2527:2645   */\n    tag_112:\n        /* \"#utility.yul\":2614:2638   */\n      tag_183\n        /* \"#utility.yul\":2632:2637   */\n      dup2\n        /* \"#utility.yul\":2614:2638   */\n      tag_111\n      jump\t// in\n    tag_183:\n        /* \"#utility.yul\":2609:2612   */\n      dup3\n        /* \"#utility.yul\":2602:2639   */\n      mstore\n        /* \"#utility.yul\":2527:2645   */\n      pop\n      pop\n      jump\t// out\n        /* \"#utility.yul\":2651:3184   */\n    tag_18:\n        /* \"#utility.yul\":2820:2824   */\n      0x00\n        /* \"#utility.yul\":2858:2860   */\n      0x60\n        /* \"#utility.yul\":2847:2856   */\n      dup3\n        /* \"#utility.yul\":2843:2861   */\n      add\n        /* \"#utility.yul\":2835:2861   */\n      swap1\n      pop\n        /* \"#utility.yul\":2907:2916   */\n      dup2\n        /* \"#utility.yul\":2901:2905   */\n      dup2\n        /* \"#utility.yul\":2897:2917   */\n      sub\n        /* \"#utility.yul\":2893:2894   */\n      0x00\n        /* \"#utility.yul\":2882:2891   */\n      dup4\n        /* \"#utility.yul\":2878:2895   */\n      add\n        /* \"#utility.yul\":2871:2918   */\n      mstore\n        /* \"#utility.yul\":2935:3013   */\n      tag_185\n        /* \"#utility.yul\":3008:3012   */\n      dup2\n        /* \"#utility.yul\":2999:3005   */\n      dup7\n        /* \"#utility.yul\":2935:3013   */\n      tag_109\n      jump\t// in\n    tag_185:\n        /* \"#utility.yul\":2927:3013   */\n      swap1\n      pop\n        /* \"#utility.yul\":3023:3095   */\n      tag_186\n        /* \"#utility.yul\":3091:3093   */\n      0x20\n        /* \"#utility.yul\":3080:3089   */\n      dup4\n        /* \"#utility.yul\":3076:3094   */\n      add\n        /* \"#utility.yul\":3067:3073   */\n      dup6\n        /* \"#utility.yul\":3023:3095   */\n      tag_112\n      jump\t// in\n    tag_186:\n        /* \"#utility.yul\":3105:3177   */\n      tag_187\n        /* \"#utility.yul\":3173:3175   */\n      0x40\n        /* \"#utility.yul\":3162:3171   */\n      dup4\n        /* \"#utility.yul\":3158:3176   */\n      add\n        /* \"#utility.yul\":3149:3155   */\n      dup5\n        /* \"#utility.yul\":3105:3177   */\n      tag_99\n      jump\t// in\n    tag_187:\n        /* \"#utility.yul\":2651:3184   */\n      swap5\n      swap4\n      pop\n      pop\n      pop\n      pop\n      jump\t// out\n        /* \"#utility.yul\":3190:3307   */\n    tag_113:\n        /* \"#utility.yul\":3299:3300   */\n      0x00\n        /* \"#utility.yul\":3296:3297   */\n      0x00\n        /* \"#utility.yul\":3289:3301   */\n      revert\n        /* \"#utility.yul\":3313:3430   */\n    tag_114:\n        /* \"#utility.yul\":3422:3423   */\n      0x00\n        /* \"#utility.yul\":3419:3420   */\n      0x00\n        /* \"#utility.yul\":3412:3424   */\n      revert\n        /* \"#utility.yul\":3436:3616   */\n    tag_115:\n        /* \"#utility.yul\":3484:3561   */\n      0x4e487b7100000000000000000000000000000000000000000000000000000000\n        /* \"#utility.yul\":3481:3482   */\n      0x00\n        /* \"#utility.yul\":3474:3562   */\n      mstore\n        /* \"#utility.yul\":3581:3585   */\n      0x41\n        /* \"#utility.yul\":3578:3579   */\n      0x04\n        /* \"#utility.yul\":3571:3586   */\n      mstore\n        /* \"#utility.yul\":3605:3609   */\n      0x24\n        /* \"#utility.yul\":3602:3603   */\n      0x00\n        /* \"#utility.yul\":3595:3610   */\n      revert\n        /* \"#utility.yul\":3622:3903   */\n    tag_116:\n        /* \"#utility.yul\":3705:3732   */\n      tag_192\n        /* \"#utility.yul\":3727:3731   */\n      dup3\n        /* \"#utility.yul\":3705:3732   */\n      tag_108\n      jump\t// in\n    tag_192:\n        /* \"#utility.yul\":3697:3703   */\n      dup2\n        /* \"#utility.yul\":3693:3733   */\n      add\n        /* \"#utility.yul\":3835:3841   */\n      dup2\n        /* \"#utility.yul\":3823:3833   */\n      dup2\n        /* \"#utility.yul\":3820:3842   */\n      lt\n        /* \"#utility.yul\":3799:3817   */\n      0xffffffffffffffff\n        /* \"#utility.yul\":3787:3797   */\n      dup3\n        /* \"#utility.yul\":3784:3818   */\n      gt\n        /* \"#utility.yul\":3781:3843   */\n      or\n        /* \"#utility.yul\":3778:3866   */\n      iszero\n      tag_193\n      jumpi\n        /* \"#utility.yul\":3846:3864   */\n      tag_194\n      tag_115\n      jump\t// in\n    tag_194:\n        /* \"#utility.yul\":3778:3866   */\n    tag_193:\n        /* \"#utility.yul\":3886:3896   */\n      dup1\n        /* \"#utility.yul\":3882:3884   */\n      0x40\n        /* \"#utility.yul\":3875:3897   */\n      mstore\n        /* \"#utility.yul\":3665:3903   */\n      pop\n        /* \"#utility.yul\":3622:3903   */\n      pop\n      pop\n      jump\t// out\n        /* \"#utility.yul\":3909:4038   */\n    tag_117:\n        /* \"#utility.yul\":3943:3949   */\n      0x00\n        /* \"#utility.yul\":3970:3990   */\n      tag_196\n      tag_100\n      jump\t// in\n    tag_196:\n        /* \"#utility.yul\":3960:3990   */\n      swap1\n      pop\n        /* \"#utility.yul\":3999:4032   */\n      tag_197\n        /* \"#utility.yul\":4027:4031   */\n      dup3\n        /* \"#utility.yul\":4019:4025   */\n      dup3\n        /* \"#utility.yul\":3999:4032   */\n      tag_116\n      jump\t// in\n    tag_197:\n        /* \"#utility.yul\":3909:4038   */\n      swap2\n      swap1\n      pop\n      jump\t// out\n        /* \"#utility.yul\":4044:4352   */\n    tag_118:\n        /* \"#utility.yul\":4106:4110   */\n      0x00\n        /* \"#utility.yul\":4196:4214   */\n      0xffffffffffffffff\n        /* \"#utility.yul\":4188:4194   */\n      dup3\n        /* \"#utility.yul\":4185:4215   */\n      gt\n        /* \"#utility.yul\":4182:4238   */\n      iszero\n      tag_199\n      jumpi\n        /* \"#utility.yul\":4218:4236   */\n      tag_200\n      tag_115\n      jump\t// in\n    tag_200:\n        /* \"#utility.yul\":4182:4238   */\n    tag_199:\n        /* \"#utility.yul\":4256:4285   */\n      tag_201\n        /* \"#utility.yul\":4278:4284   */\n      dup3\n        /* \"#utility.yul\":4256:4285   */\n      tag_108\n      jump\t// in\n    tag_201:\n        /* \"#utility.yul\":4248:4285   */\n      swap1\n      pop\n        /* \"#utility.yul\":4340:4344   */\n      0x20\n        /* \"#utility.yul\":4334:4338   */\n      dup2\n        /* \"#utility.yul\":4330:4345   */\n      add\n        /* \"#utility.yul\":4322:4345   */\n      swap1\n      pop\n        /* \"#utility.yul\":4044:4352   */\n      swap2\n      swap1\n      pop\n      jump\t// out\n        /* \"#utility.yul\":4358:4506   */\n    tag_119:\n        /* \"#utility.yul\":4456:4462   */\n      dup3\n        /* \"#utility.yul\":4451:4454   */\n      dup2\n        /* \"#utility.yul\":4446:4449   */\n      dup4\n        /* \"#utility.yul\":4433:4463   */\n      calldatacopy\n        /* \"#utility.yul\":4497:4498   */\n      0x00\n        /* \"#utility.yul\":4488:4494   */\n      dup4\n        /* \"#utility.yul\":4483:4486   */\n      dup4\n        /* \"#utility.yul\":4479:4495   */\n      add\n        /* \"#utility.yul\":4472:4499   */\n      mstore\n        /* \"#utility.yul\":4358:4506   */\n      pop\n      pop\n      pop\n      jump\t// out\n        /* \"#utility.yul\":4512:4937   */\n    tag_120:\n        /* \"#utility.yul\":4590:4595   */\n      0x00\n        /* \"#utility.yul\":4615:4681   */\n      tag_204\n        /* \"#utility.yul\":4631:4680   */\n      tag_205\n        /* \"#utility.yul\":4673:4679   */\n      dup5\n        /* \"#utility.yul\":4631:4680   */\n      tag_118\n      jump\t// in\n    tag_205:\n        /* \"#utility.yul\":4615:4681   */\n      tag_117\n      jump\t// in\n    tag_204:\n        /* \"#utility.yul\":4606:4681   */\n      swap1\n      pop\n        /* \"#utility.yul\":4704:4710   */\n      dup3\n        /* \"#utility.yul\":4697:4702   */\n      dup2\n        /* \"#utility.yul\":4690:4711   */\n      mstore\n        /* \"#utility.yul\":4742:4746   */\n      0x20\n        /* \"#utility.yul\":4735:4740   */\n      dup2\n        /* \"#utility.yul\":4731:4747   */\n      add\n        /* \"#utility.yul\":4780:4783   */\n      dup5\n        /* \"#utility.yul\":4771:4777   */\n      dup5\n        /* \"#utility.yul\":4766:4769   */\n      dup5\n        /* \"#utility.yul\":4762:4778   */\n      add\n        /* \"#utility.yul\":4759:4784   */\n      gt\n        /* \"#utility.yul\":4756:4868   */\n      iszero\n      tag_206\n      jumpi\n        /* \"#utility.yul\":4787:4866   */\n      tag_207\n      tag_114\n      jump\t// in\n    tag_207:\n        /* \"#utility.yul\":4756:4868   */\n    tag_206:\n        /* \"#utility.yul\":4877:4931   */\n      tag_208\n        /* \"#utility.yul\":4924:4930   */\n      dup5\n        /* \"#utility.yul\":4919:4922   */\n      dup3\n        /* \"#utility.yul\":4914:4917   */\n      dup6\n        /* \"#utility.yul\":4877:4931   */\n      tag_119\n      jump\t// in\n    tag_208:\n        /* \"#utility.yul\":4596:4937   */\n      pop\n        /* \"#utility.yul\":4512:4937   */\n      swap4\n      swap3\n      pop\n      pop\n      pop\n      jump\t// out\n        /* \"#utility.yul\":4957:5297   */\n    tag_121:\n        /* \"#utility.yul\":5013:5018   */\n      0x00\n        /* \"#utility.yul\":5062:5065   */\n      dup3\n        /* \"#utility.yul\":5055:5059   */\n      0x1f\n        /* \"#utility.yul\":5047:5053   */\n      dup4\n        /* \"#utility.yul\":5043:5060   */\n      add\n        /* \"#utility.yul\":5039:5066   */\n      slt\n        /* \"#utility.yul\":5029:5151   */\n      tag_210\n      jumpi\n        /* \"#utility.yul\":5070:5149   */\n      tag_211\n      tag_113\n      jump\t// in\n    tag_211:\n        /* \"#utility.yul\":5029:5151   */\n    tag_210:\n        /* \"#utility.yul\":5187:5193   */\n      dup2\n        /* \"#utility.yul\":5174:5194   */\n      calldataload\n        /* \"#utility.yul\":5212:5291   */\n      tag_212\n        /* \"#utility.yul\":5287:5290   */\n      dup5\n        /* \"#utility.yul\":5279:5285   */\n      dup3\n        /* \"#utility.yul\":5272:5276   */\n      0x20\n        /* \"#utility.yul\":5264:5270   */\n      dup7\n        /* \"#utility.yul\":5260:5277   */\n      add\n        /* \"#utility.yul\":5212:5291   */\n      tag_120\n      jump\t// in\n    tag_212:\n        /* \"#utility.yul\":5203:5291   */\n      swap2\n      pop\n        /* \"#utility.yul\":5019:5297   */\n      pop\n        /* \"#utility.yul\":4957:5297   */\n      swap3\n      swap2\n      pop\n      pop\n      jump\t// out\n        /* \"#utility.yul\":5303:5812   */\n    tag_25:\n        /* \"#utility.yul\":5372:5378   */\n      0x00\n        /* \"#utility.yul\":5421:5423   */\n      0x20\n        /* \"#utility.yul\":5409:5418   */\n      dup3\n        /* \"#utility.yul\":5400:5407   */\n      dup5\n        /* \"#utility.yul\":5396:5419   */\n      sub\n        /* \"#utility.yul\":5392:5424   */\n      slt\n        /* \"#utility.yul\":5389:5508   */\n      iszero\n      tag_214\n      jumpi\n        /* \"#utility.yul\":5427:5506   */\n      tag_215\n      tag_101\n      jump\t// in\n    tag_215:\n        /* \"#utility.yul\":5389:5508   */\n    tag_214:\n        /* \"#utility.yul\":5575:5576   */\n      0x00\n        /* \"#utility.yul\":5564:5573   */\n      dup3\n        /* \"#utility.yul\":5560:5577   */\n      add\n        /* \"#utility.yul\":5547:5578   */\n      calldataload\n        /* \"#utility.yul\":5605:5623   */\n      0xffffffffffffffff\n        /* \"#utility.yul\":5597:5603   */\n      dup2\n        /* \"#utility.yul\":5594:5624   */\n      gt\n        /* \"#utility.yul\":5591:5708   */\n      iszero\n      tag_216\n      jumpi\n        /* \"#utility.yul\":5627:5706   */\n      tag_217\n      tag_102\n      jump\t// in\n    tag_217:\n        /* \"#utility.yul\":5591:5708   */\n    tag_216:\n        /* \"#utility.yul\":5732:5795   */\n      tag_218\n        /* \"#utility.yul\":5787:5794   */\n      dup5\n        /* \"#utility.yul\":5778:5784   */\n      dup3\n        /* \"#utility.yul\":5767:5776   */\n      dup6\n        /* \"#utility.yul\":5763:5785   */\n      add\n        /* \"#utility.yul\":5732:5795   */\n      tag_121\n      jump\t// in\n    tag_218:\n        /* \"#utility.yul\":5722:5795   */\n      swap2\n      pop\n        /* \"#utility.yul\":5518:5805   */\n      pop\n        /* \"#utility.yul\":5303:5812   */\n      swap3\n      swap2\n      pop\n      pop\n      jump\t// out\n        /* \"#utility.yul\":5818:5978   */\n    tag_122:\n        /* \"#utility.yul\":5958:5970   */\n      0x4e6f742065786973747300000000000000000000000000000000000000000000\n        /* \"#utility.yul\":5954:5955   */\n      0x00\n        /* \"#utility.yul\":5946:5952   */\n      dup3\n        /* \"#utility.yul\":5942:5956   */\n      add\n        /* \"#utility.yul\":5935:5971   */\n      mstore\n        /* \"#utility.yul\":5818:5978   */\n      pop\n      jump\t// out\n        /* \"#utility.yul\":5984:6350   */\n    tag_123:\n        /* \"#utility.yul\":6126:6129   */\n      0x00\n        /* \"#utility.yul\":6147:6214   */\n      tag_221\n        /* \"#utility.yul\":6211:6213   */\n      0x0a\n        /* \"#utility.yul\":6206:6209   */\n      dup4\n        /* \"#utility.yul\":6147:6214   */\n      tag_106\n      jump\t// in\n    tag_221:\n        /* \"#utility.yul\":6140:6214   */\n      swap2\n      pop\n        /* \"#utility.yul\":6223:6316   */\n      tag_222\n        /* \"#utility.yul\":6312:6315   */\n      dup3\n        /* \"#utility.yul\":6223:6316   */\n      tag_122\n      jump\t// in\n    tag_222:\n        /* \"#utility.yul\":6341:6343   */\n      0x20\n        /* \"#utility.yul\":6336:6339   */\n      dup3\n        /* \"#utility.yul\":6332:6344   */\n      add\n        /* \"#utility.yul\":6325:6344   */\n      swap1\n      pop\n        /* \"#utility.yul\":5984:6350   */\n      swap2\n      swap1\n      pop\n      jump\t// out\n        /* \"#utility.yul\":6356:6775   */\n    tag_34:\n        /* \"#utility.yul\":6522:6526   */\n      0x00\n        /* \"#utility.yul\":6560:6562   */\n      0x20\n        /* \"#utility.yul\":6549:6558   */\n      dup3\n        /* \"#utility.yul\":6545:6563   */\n      add\n        /* \"#utility.yul\":6537:6563   */\n      swap1\n      pop\n        /* \"#utility.yul\":6609:6618   */\n      dup2\n        /* \"#utility.yul\":6603:6607   */\n      dup2\n        /* \"#utility.yul\":6599:6619   */\n      sub\n        /* \"#utility.yul\":6595:6596   */\n      0x00\n        /* \"#utility.yul\":6584:6593   */\n      dup4\n        /* \"#utility.yul\":6580:6597   */\n      add\n        /* \"#utility.yul\":6573:6620   */\n      mstore\n        /* \"#utility.yul\":6637:6768   */\n      tag_224\n        /* \"#utility.yul\":6763:6767   */\n      dup2\n        /* \"#utility.yul\":6637:6768   */\n      tag_123\n      jump\t// in\n    tag_224:\n        /* \"#utility.yul\":6629:6768   */\n      swap1\n      pop\n        /* \"#utility.yul\":6356:6775   */\n      swap2\n      swap1\n      pop\n      jump\t// out\n        /* \"#utility.yul\":6781:6961   */\n    tag_37:\n        /* \"#utility.yul\":6829:6906   */\n      0x4e487b7100000000000000000000000000000000000000000000000000000000\n        /* \"#utility.yul\":6826:6827   */\n      0x00\n        /* \"#utility.yul\":6819:6907   */\n      mstore\n        /* \"#utility.yul\":6926:6930   */\n      0x32\n        /* \"#utility.yul\":6923:6924   */\n      0x04\n        /* \"#utility.yul\":6916:6931   */\n      mstore\n        /* \"#utility.yul\":6950:6954   */\n      0x24\n        /* \"#utility.yul\":6947:6948   */\n      0x00\n        /* \"#utility.yul\":6940:6955   */\n      revert\n        /* \"#utility.yul\":6967:7147   */\n    tag_124:\n        /* \"#utility.yul\":7015:7092   */\n      0x4e487b7100000000000000000000000000000000000000000000000000000000\n        /* \"#utility.yul\":7012:7013   */\n      0x00\n        /* \"#utility.yul\":7005:7093   */\n      mstore\n        /* \"#utility.yul\":7112:7116   */\n      0x22\n        /* \"#utility.yul\":7109:7110   */\n      0x04\n        /* \"#utility.yul\":7102:7117   */\n      mstore\n        /* \"#utility.yul\":7136:7140   */\n      0x24\n        /* \"#utility.yul\":7133:7134   */\n      0x00\n        /* \"#utility.yul\":7126:7141   */\n      revert\n        /* \"#utility.yul\":7153:7473   */\n    tag_42:\n        /* \"#utility.yul\":7197:7203   */\n      0x00\n        /* \"#utility.yul\":7234:7235   */\n      0x02\n        /* \"#utility.yul\":7228:7232   */\n      dup3\n        /* \"#utility.yul\":7224:7236   */\n      div\n        /* \"#utility.yul\":7214:7236   */\n      swap1\n      pop\n        /* \"#utility.yul\":7281:7282   */\n      0x01\n        /* \"#utility.yul\":7275:7279   */\n      dup3\n        /* \"#utility.yul\":7271:7283   */\n      and\n        /* \"#utility.yul\":7302:7320   */\n      dup1\n        /* \"#utility.yul\":7292:7373   */\n      tag_228\n      jumpi\n        /* \"#utility.yul\":7358:7362   */\n      0x7f\n        /* \"#utility.yul\":7350:7356   */\n      dup3\n        /* \"#utility.yul\":7346:7363   */\n      and\n        /* \"#utility.yul\":7336:7363   */\n      swap2\n      pop\n        /* \"#utility.yul\":7292:7373   */\n    tag_228:\n        /* \"#utility.yul\":7420:7422   */\n      0x20\n        /* \"#utility.yul\":7412:7418   */\n      dup3\n        /* \"#utility.yul\":7409:7423   */\n      lt\n        /* \"#utility.yul\":7389:7407   */\n      dup2\n        /* \"#utility.yul\":7386:7424   */\n      sub\n        /* \"#utility.yul\":7383:7467   */\n      tag_229\n      jumpi\n        /* \"#utility.yul\":7439:7457   */\n      tag_230\n      tag_124\n      jump\t// in\n    tag_230:\n        /* \"#utility.yul\":7383:7467   */\n    tag_229:\n        /* \"#utility.yul\":7204:7473   */\n      pop\n        /* \"#utility.yul\":7153:7473   */\n      swap2\n      swap1\n      pop\n      jump\t// out\n        /* \"#utility.yul\":7479:7648   */\n    tag_125:\n        /* \"#utility.yul\":7619:7640   */\n      0x496e737566666963656e742062616c616e636500000000000000000000000000\n        /* \"#utility.yul\":7615:7616   */\n      0x00\n        /* \"#utility.yul\":7607:7613   */\n      dup3\n        /* \"#utility.yul\":7603:7617   */\n      add\n        /* \"#utility.yul\":7596:7641   */\n      mstore\n        /* \"#utility.yul\":7479:7648   */\n      pop\n      jump\t// out\n        /* \"#utility.yul\":7654:8020   */\n    tag_126:\n        /* \"#utility.yul\":7796:7799   */\n      0x00\n        /* \"#utility.yul\":7817:7884   */\n      tag_233\n        /* \"#utility.yul\":7881:7883   */\n      0x13\n        /* \"#utility.yul\":7876:7879   */\n      dup4\n        /* \"#utility.yul\":7817:7884   */\n      tag_106\n      jump\t// in\n    tag_233:\n        /* \"#utility.yul\":7810:7884   */\n      swap2\n      pop\n        /* \"#utility.yul\":7893:7986   */\n      tag_234\n        /* \"#utility.yul\":7982:7985   */\n      dup3\n        /* \"#utility.yul\":7893:7986   */\n      tag_125\n      jump\t// in\n    tag_234:\n        /* \"#utility.yul\":8011:8013   */\n      0x20\n        /* \"#utility.yul\":8006:8009   */\n      dup3\n        /* \"#utility.yul\":8002:8014   */\n      add\n        /* \"#utility.yul\":7995:8014   */\n      swap1\n      pop\n        /* \"#utility.yul\":7654:8020   */\n      swap2\n      swap1\n      pop\n      jump\t// out\n        /* \"#utility.yul\":8026:8445   */\n    tag_56:\n        /* \"#utility.yul\":8192:8196   */\n      0x00\n        /* \"#utility.yul\":8230:8232   */\n      0x20\n        /* \"#utility.yul\":8219:8228   */\n      dup3\n        /* \"#utility.yul\":8215:8233   */\n      add\n        /* \"#utility.yul\":8207:8233   */\n      swap1\n      pop\n        /* \"#utility.yul\":8279:8288   */\n      dup2\n        /* \"#utility.yul\":8273:8277   */\n      dup2\n        /* \"#utility.yul\":8269:8289   */\n      sub\n        /* \"#utility.yul\":8265:8266   */\n      0x00\n        /* \"#utility.yul\":8254:8263   */\n      dup4\n        /* \"#utility.yul\":8250:8267   */\n      add\n        /* \"#utility.yul\":8243:8290   */\n      mstore\n        /* \"#utility.yul\":8307:8438   */\n      tag_236\n        /* \"#utility.yul\":8433:8437   */\n      dup2\n        /* \"#utility.yul\":8307:8438   */\n      tag_126\n      jump\t// in\n    tag_236:\n        /* \"#utility.yul\":8299:8438   */\n      swap1\n      pop\n        /* \"#utility.yul\":8026:8445   */\n      swap2\n      swap1\n      pop\n      jump\t// out\n        /* \"#utility.yul\":8451:8631   */\n    tag_127:\n        /* \"#utility.yul\":8499:8576   */\n      0x4e487b7100000000000000000000000000000000000000000000000000000000\n        /* \"#utility.yul\":8496:8497   */\n      0x00\n        /* \"#utility.yul\":8489:8577   */\n      mstore\n        /* \"#utility.yul\":8596:8600   */\n      0x11\n        /* \"#utility.yul\":8593:8594   */\n      0x04\n        /* \"#utility.yul\":8586:8601   */\n      mstore\n        /* \"#utility.yul\":8620:8624   */\n      0x24\n        /* \"#utility.yul\":8617:8618   */\n      0x00\n        /* \"#utility.yul\":8610:8625   */\n      revert\n        /* \"#utility.yul\":8637:8831   */\n    tag_61:\n        /* \"#utility.yul\":8677:8681   */\n      0x00\n        /* \"#utility.yul\":8697:8717   */\n      tag_239\n        /* \"#utility.yul\":8715:8716   */\n      dup3\n        /* \"#utility.yul\":8697:8717   */\n      tag_98\n      jump\t// in\n    tag_239:\n        /* \"#utility.yul\":8692:8717   */\n      swap2\n      pop\n        /* \"#utility.yul\":8731:8751   */\n      tag_240\n        /* \"#utility.yul\":8749:8750   */\n      dup4\n        /* \"#utility.yul\":8731:8751   */\n      tag_98\n      jump\t// in\n    tag_240:\n        /* \"#utility.yul\":8726:8751   */\n      swap3\n      pop\n        /* \"#utility.yul\":8775:8776   */\n      dup3\n        /* \"#utility.yul\":8772:8773   */\n      dup3\n        /* \"#utility.yul\":8768:8777   */\n      sub\n        /* \"#utility.yul\":8760:8777   */\n      swap1\n      pop\n        /* \"#utility.yul\":8799:8800   */\n      dup2\n        /* \"#utility.yul\":8793:8797   */\n      dup2\n        /* \"#utility.yul\":8790:8801   */\n      gt\n        /* \"#utility.yul\":8787:8824   */\n      iszero\n      tag_241\n      jumpi\n        /* \"#utility.yul\":8804:8822   */\n      tag_242\n      tag_127\n      jump\t// in\n    tag_242:\n        /* \"#utility.yul\":8787:8824   */\n    tag_241:\n        /* \"#utility.yul\":8637:8831   */\n      swap3\n      swap2\n      pop\n      pop\n      jump\t// out\n        /* \"#utility.yul\":8837:8984   */\n    tag_128:\n        /* \"#utility.yul\":8938:8949   */\n      0x00\n        /* \"#utility.yul\":8975:8978   */\n      dup2\n        /* \"#utility.yul\":8960:8978   */\n      swap1\n      pop\n        /* \"#utility.yul\":8837:8984   */\n      swap3\n      swap2\n      pop\n      pop\n      jump\t// out\n        /* \"#utility.yul\":8990:9104   */\n    tag_129:\n      pop\n      jump\t// out\n        /* \"#utility.yul\":9110:9508   */\n    tag_130:\n        /* \"#utility.yul\":9269:9272   */\n      0x00\n        /* \"#utility.yul\":9290:9373   */\n      tag_246\n        /* \"#utility.yul\":9371:9372   */\n      0x00\n        /* \"#utility.yul\":9366:9369   */\n      dup4\n        /* \"#utility.yul\":9290:9373   */\n      tag_128\n      jump\t// in\n    tag_246:\n        /* \"#utility.yul\":9283:9373   */\n      swap2\n      pop\n        /* \"#utility.yul\":9382:9475   */\n      tag_247\n        /* \"#utility.yul\":9471:9474   */\n      dup3\n        /* \"#utility.yul\":9382:9475   */\n      tag_129\n      jump\t// in\n    tag_247:\n        /* \"#utility.yul\":9500:9501   */\n      0x00\n        /* \"#utility.yul\":9495:9498   */\n      dup3\n        /* \"#utility.yul\":9491:9502   */\n      add\n        /* \"#utility.yul\":9484:9502   */\n      swap1\n      pop\n        /* \"#utility.yul\":9110:9508   */\n      swap2\n      swap1\n      pop\n      jump\t// out\n        /* \"#utility.yul\":9514:9893   */\n    tag_63:\n        /* \"#utility.yul\":9698:9701   */\n      0x00\n        /* \"#utility.yul\":9720:9867   */\n      tag_249\n        /* \"#utility.yul\":9863:9866   */\n      dup3\n        /* \"#utility.yul\":9720:9867   */\n      tag_130\n      jump\t// in\n    tag_249:\n        /* \"#utility.yul\":9713:9867   */\n      swap2\n      pop\n        /* \"#utility.yul\":9884:9887   */\n      dup2\n        /* \"#utility.yul\":9877:9887   */\n      swap1\n      pop\n        /* \"#utility.yul\":9514:9893   */\n      swap2\n      swap1\n      pop\n      jump\t// out\n        /* \"#utility.yul\":9899:10072   */\n    tag_131:\n        /* \"#utility.yul\":10039:10064   */\n      0x4572726f7220656e206c61207472616e73616363696f6e000000000000000000\n        /* \"#utility.yul\":10035:10036   */\n      0x00\n        /* \"#utility.yul\":10027:10033   */\n      dup3\n        /* \"#utility.yul\":10023:10037   */\n      add\n        /* \"#utility.yul\":10016:10065   */\n      mstore\n        /* \"#utility.yul\":9899:10072   */\n      pop\n      jump\t// out\n        /* \"#utility.yul\":10078:10444   */\n    tag_132:\n        /* \"#utility.yul\":10220:10223   */\n      0x00\n        /* \"#utility.yul\":10241:10308   */\n      tag_252\n        /* \"#utility.yul\":10305:10307   */\n      0x17\n        /* \"#utility.yul\":10300:10303   */\n      dup4\n        /* \"#utility.yul\":10241:10308   */\n      tag_106\n      jump\t// in\n    tag_252:\n        /* \"#utility.yul\":10234:10308   */\n      swap2\n      pop\n        /* \"#utility.yul\":10317:10410   */\n      tag_253\n        /* \"#utility.yul\":10406:10409   */\n      dup3\n        /* \"#utility.yul\":10317:10410   */\n      tag_131\n      jump\t// in\n    tag_253:\n        /* \"#utility.yul\":10435:10437   */\n      0x20\n        /* \"#utility.yul\":10430:10433   */\n      dup3\n        /* \"#utility.yul\":10426:10438   */\n      add\n        /* \"#utility.yul\":10419:10438   */\n      swap1\n      pop\n        /* \"#utility.yul\":10078:10444   */\n      swap2\n      swap1\n      pop\n      jump\t// out\n        /* \"#utility.yul\":10450:10869   */\n    tag_69:\n        /* \"#utility.yul\":10616:10620   */\n      0x00\n        /* \"#utility.yul\":10654:10656   */\n      0x20\n        /* \"#utility.yul\":10643:10652   */\n      dup3\n        /* \"#utility.yul\":10639:10657   */\n      add\n        /* \"#utility.yul\":10631:10657   */\n      swap1\n      pop\n        /* \"#utility.yul\":10703:10712   */\n      dup2\n        /* \"#utility.yul\":10697:10701   */\n      dup2\n        /* \"#utility.yul\":10693:10713   */\n      sub\n        /* \"#utility.yul\":10689:10690   */\n      0x00\n        /* \"#utility.yul\":10678:10687   */\n      dup4\n        /* \"#utility.yul\":10674:10691   */\n      add\n        /* \"#utility.yul\":10667:10714   */\n      mstore\n        /* \"#utility.yul\":10731:10862   */\n      tag_255\n        /* \"#utility.yul\":10857:10861   */\n      dup2\n        /* \"#utility.yul\":10731:10862   */\n      tag_132\n      jump\t// in\n    tag_255:\n        /* \"#utility.yul\":10723:10862   */\n      swap1\n      pop\n        /* \"#utility.yul\":10450:10869   */\n      swap2\n      swap1\n      pop\n      jump\t// out\n        /* \"#utility.yul\":10875:11038   */\n    tag_133:\n        /* \"#utility.yul\":11015:11030   */\n      0x416c726561647920657869747300000000000000000000000000000000000000\n        /* \"#utility.yul\":11011:11012   */\n      0x00\n        /* \"#utility.yul\":11003:11009   */\n      dup3\n        /* \"#utility.yul\":10999:11013   */\n      add\n        /* \"#utility.yul\":10992:11031   */\n      mstore\n        /* \"#utility.yul\":10875:11038   */\n      pop\n      jump\t// out\n        /* \"#utility.yul\":11044:11410   */\n    tag_134:\n        /* \"#utility.yul\":11186:11189   */\n      0x00\n        /* \"#utility.yul\":11207:11274   */\n      tag_258\n        /* \"#utility.yul\":11271:11273   */\n      0x0d\n        /* \"#utility.yul\":11266:11269   */\n      dup4\n        /* \"#utility.yul\":11207:11274   */\n      tag_106\n      jump\t// in\n    tag_258:\n        /* \"#utility.yul\":11200:11274   */\n      swap2\n      pop\n        /* \"#utility.yul\":11283:11376   */\n      tag_259\n        /* \"#utility.yul\":11372:11375   */\n      dup3\n        /* \"#utility.yul\":11283:11376   */\n      tag_133\n      jump\t// in\n    tag_259:\n        /* \"#utility.yul\":11401:11403   */\n      0x20\n        /* \"#utility.yul\":11396:11399   */\n      dup3\n        /* \"#utility.yul\":11392:11404   */\n      add\n        /* \"#utility.yul\":11385:11404   */\n      swap1\n      pop\n        /* \"#utility.yul\":11044:11410   */\n      swap2\n      swap1\n      pop\n      jump\t// out\n        /* \"#utility.yul\":11416:11835   */\n    tag_74:\n        /* \"#utility.yul\":11582:11586   */\n      0x00\n        /* \"#utility.yul\":11620:11622   */\n      0x20\n        /* \"#utility.yul\":11609:11618   */\n      dup3\n        /* \"#utility.yul\":11605:11623   */\n      add\n        /* \"#utility.yul\":11597:11623   */\n      swap1\n      pop\n        /* \"#utility.yul\":11669:11678   */\n      dup2\n        /* \"#utility.yul\":11663:11667   */\n      dup2\n        /* \"#utility.yul\":11659:11679   */\n      sub\n        /* \"#utility.yul\":11655:11656   */\n      0x00\n        /* \"#utility.yul\":11644:11653   */\n      dup4\n        /* \"#utility.yul\":11640:11657   */\n      add\n        /* \"#utility.yul\":11633:11680   */\n      mstore\n        /* \"#utility.yul\":11697:11828   */\n      tag_261\n        /* \"#utility.yul\":11823:11827   */\n      dup2\n        /* \"#utility.yul\":11697:11828   */\n      tag_134\n      jump\t// in\n    tag_261:\n        /* \"#utility.yul\":11689:11828   */\n      swap1\n      pop\n        /* \"#utility.yul\":11416:11835   */\n      swap2\n      swap1\n      pop\n      jump\t// out\n        /* \"#utility.yul\":11841:12001   */\n    tag_135:\n        /* \"#utility.yul\":11981:11993   */\n      0x656d707479206e616d6500000000000000000000000000000000000000000000\n        /* \"#utility.yul\":11977:11978   */\n      0x00\n        /* \"#utility.yul\":11969:11975   */\n      dup3\n        /* \"#utility.yul\":11965:11979   */\n      add\n        /* \"#utility.yul\":11958:11994   */\n      mstore\n        /* \"#utility.yul\":11841:12001   */\n      pop\n      jump\t// out\n        /* \"#utility.yul\":12007:12373   */\n    tag_136:\n        /* \"#utility.yul\":12149:12152   */\n      0x00\n        /* \"#utility.yul\":12170:12237   */\n      tag_264\n        /* \"#utility.yul\":12234:12236   */\n      0x0a\n        /* \"#utility.yul\":12229:12232   */\n      dup4\n        /* \"#utility.yul\":12170:12237   */\n      tag_106\n      jump\t// in\n    tag_264:\n        /* \"#utility.yul\":12163:12237   */\n      swap2\n      pop\n        /* \"#utility.yul\":12246:12339   */\n      tag_265\n        /* \"#utility.yul\":12335:12338   */\n      dup3\n        /* \"#utility.yul\":12246:12339   */\n      tag_135\n      jump\t// in\n    tag_265:\n        /* \"#utility.yul\":12364:12366   */\n      0x20\n        /* \"#utility.yul\":12359:12362   */\n      dup3\n        /* \"#utility.yul\":12355:12367   */\n      add\n        /* \"#utility.yul\":12348:12367   */\n      swap1\n      pop\n        /* \"#utility.yul\":12007:12373   */\n      swap2\n      swap1\n      pop\n      jump\t// out\n        /* \"#utility.yul\":12379:12798   */\n    tag_77:\n        /* \"#utility.yul\":12545:12549   */\n      0x00\n        /* \"#utility.yul\":12583:12585   */\n      0x20\n        /* \"#utility.yul\":12572:12581   */\n      dup3\n        /* \"#utility.yul\":12568:12586   */\n      add\n        /* \"#utility.yul\":12560:12586   */\n      swap1\n      pop\n        /* \"#utility.yul\":12632:12641   */\n      dup2\n        /* \"#utility.yul\":12626:12630   */\n      dup2\n        /* \"#utility.yul\":12622:12642   */\n      sub\n        /* \"#utility.yul\":12618:12619   */\n      0x00\n        /* \"#utility.yul\":12607:12616   */\n      dup4\n        /* \"#utility.yul\":12603:12620   */\n      add\n        /* \"#utility.yul\":12596:12643   */\n      mstore\n        /* \"#utility.yul\":12660:12791   */\n      tag_267\n        /* \"#utility.yul\":12786:12790   */\n      dup2\n        /* \"#utility.yul\":12660:12791   */\n      tag_136\n      jump\t// in\n    tag_267:\n        /* \"#utility.yul\":12652:12791   */\n      swap1\n      pop\n        /* \"#utility.yul\":12379:12798   */\n      swap2\n      swap1\n      pop\n      jump\t// out\n        /* \"#utility.yul\":12804:12945   */\n    tag_137:\n        /* \"#utility.yul\":12853:12857   */\n      0x00\n        /* \"#utility.yul\":12876:12879   */\n      dup2\n        /* \"#utility.yul\":12868:12879   */\n      swap1\n      pop\n        /* \"#utility.yul\":12899:12902   */\n      dup2\n        /* \"#utility.yul\":12896:12897   */\n      0x00\n        /* \"#utility.yul\":12889:12903   */\n      mstore\n        /* \"#utility.yul\":12933:12937   */\n      0x20\n        /* \"#utility.yul\":12930:12931   */\n      0x00\n        /* \"#utility.yul\":12920:12938   */\n      keccak256\n        /* \"#utility.yul\":12912:12938   */\n      swap1\n      pop\n        /* \"#utility.yul\":12804:12945   */\n      swap2\n      swap1\n      pop\n      jump\t// out\n        /* \"#utility.yul\":12951:13044   */\n    tag_138:\n        /* \"#utility.yul\":12988:12994   */\n      0x00\n        /* \"#utility.yul\":13035:13037   */\n      0x20\n        /* \"#utility.yul\":13030:13032   */\n      0x1f\n        /* \"#utility.yul\":13023:13028   */\n      dup4\n        /* \"#utility.yul\":13019:13033   */\n      add\n        /* \"#utility.yul\":13015:13038   */\n      div\n        /* \"#utility.yul\":13005:13038   */\n      swap1\n      pop\n        /* \"#utility.yul\":12951:13044   */\n      swap2\n      swap1\n      pop\n      jump\t// out\n        /* \"#utility.yul\":13050:13157   */\n    tag_139:\n        /* \"#utility.yul\":13094:13102   */\n      0x00\n        /* \"#utility.yul\":13144:13149   */\n      dup3\n        /* \"#utility.yul\":13138:13142   */\n      dup3\n        /* \"#utility.yul\":13134:13150   */\n      shl\n        /* \"#utility.yul\":13113:13150   */\n      swap1\n      pop\n        /* \"#utility.yul\":13050:13157   */\n      swap3\n      swap2\n      pop\n      pop\n      jump\t// out\n        /* \"#utility.yul\":13163:13556   */\n    tag_140:\n        /* \"#utility.yul\":13232:13238   */\n      0x00\n        /* \"#utility.yul\":13282:13283   */\n      0x08\n        /* \"#utility.yul\":13270:13280   */\n      dup4\n        /* \"#utility.yul\":13266:13284   */\n      mul\n        /* \"#utility.yul\":13305:13402   */\n      tag_272\n        /* \"#utility.yul\":13335:13401   */\n      0xffffffffffffffffffffffffffffffffffffffffffffffffffffffffffffffff\n        /* \"#utility.yul\":13324:13333   */\n      dup3\n        /* \"#utility.yul\":13305:13402   */\n      tag_139\n      jump\t// in\n    tag_272:\n        /* \"#utility.yul\":13423:13462   */\n      tag_273\n        /* \"#utility.yul\":13453:13461   */\n      dup7\n        /* \"#utility.yul\":13442:13451   */\n      dup4\n        /* \"#utility.yul\":13423:13462   */\n      tag_139\n      jump\t// in\n    tag_273:\n        /* \"#utility.yul\":13411:13462   */\n      swap6\n      pop\n        /* \"#utility.yul\":13495:13499   */\n      dup1\n        /* \"#utility.yul\":13491:13500   */\n      not\n        /* \"#utility.yul\":13484:13489   */\n      dup5\n        /* \"#utility.yul\":13480:13501   */\n      and\n        /* \"#utility.yul\":13471:13501   */\n      swap4\n      pop\n        /* \"#utility.yul\":13544:13548   */\n      dup1\n        /* \"#utility.yul\":13534:13542   */\n      dup7\n        /* \"#utility.yul\":13530:13549   */\n      and\n        /* \"#utility.yul\":13523:13528   */\n      dup5\n        /* \"#utility.yul\":13520:13550   */\n      or\n        /* \"#utility.yul\":13510:13550   */\n      swap3\n      pop\n        /* \"#utility.yul\":13239:13556   */\n      pop\n      pop\n        /* \"#utility.yul\":13163:13556   */\n      swap4\n      swap3\n      pop\n      pop\n      pop\n      jump\t// out\n        /* \"#utility.yul\":13562:13622   */\n    tag_141:\n        /* \"#utility.yul\":13590:13593   */\n      0x00\n        /* \"#utility.yul\":13611:13616   */\n      dup2\n        /* \"#utility.yul\":13604:13616   */\n      swap1\n      pop\n        /* \"#utility.yul\":13562:13622   */\n      swap2\n      swap1\n      pop\n      jump\t// out\n        /* \"#utility.yul\":13628:13770   */\n    tag_142:\n        /* \"#utility.yul\":13678:13687   */\n      0x00\n        /* \"#utility.yul\":13711:13764   */\n      tag_276\n        /* \"#utility.yul\":13729:13763   */\n      tag_277\n        /* \"#utility.yul\":13738:13762   */\n      tag_278\n        /* \"#utility.yul\":13756:13761   */\n      dup5\n        /* \"#utility.yul\":13738:13762   */\n      tag_98\n      jump\t// in\n    tag_278:\n        /* \"#utility.yul\":13729:13763   */\n      tag_141\n      jump\t// in\n    tag_277:\n        /* \"#utility.yul\":13711:13764   */\n      tag_98\n      jump\t// in\n    tag_276:\n        /* \"#utility.yul\":13698:13764   */\n      swap1\n      pop\n        /* \"#utility.yul\":13628:13770   */\n      swap2\n      swap1\n      pop\n      jump\t// out\n        /* \"#utility.yul\":13776:13851   */\n    tag_143:\n        /* \"#utility.yul\":13819:13822   */\n      0x00\n        /* \"#utility.yul\":13840:13845   */\n      dup2\n        /* \"#utility.yul\":13833:13845   */\n      swap1\n      pop\n        /* \"#utility.yul\":13776:13851   */\n      swap2\n      swap1\n      pop\n      jump\t// out\n        /* \"#utility.yul\":13857:14126   */\n    tag_144:\n        /* \"#utility.yul\":13967:14006   */\n      tag_281\n        /* \"#utility.yul\":13998:14005   */\n      dup4\n        /* \"#utility.yul\":13967:14006   */\n      tag_142\n      jump\t// in\n    tag_281:\n        /* \"#utility.yul\":14028:14119   */\n      tag_282\n        /* \"#utility.yul\":14077:14118   */\n      tag_283\n        /* \"#utility.yul\":14101:14117   */\n      dup3\n        /* \"#utility.yul\":14077:14118   */\n      tag_143\n      jump\t// in\n    tag_283:\n        /* \"#utility.yul\":14069:14075   */\n      dup5\n        /* \"#utility.yul\":14062:14066   */\n      dup5\n        /* \"#utility.yul\":14056:14067   */\n      sload\n        /* \"#utility.yul\":14028:14119   */\n      tag_140\n      jump\t// in\n    tag_282:\n        /* \"#utility.yul\":14022:14026   */\n      dup3\n        /* \"#utility.yul\":14015:14120   */\n      sstore\n        /* \"#utility.yul\":13933:14126   */\n      pop\n        /* \"#utility.yul\":13857:14126   */\n      pop\n      pop\n      pop\n      jump\t// out\n        /* \"#utility.yul\":14132:14205   */\n    tag_145:\n        /* \"#utility.yul\":14177:14180   */\n      0x00\n        /* \"#utility.yul\":14198:14199   */\n      0x00\n        /* \"#utility.yul\":14191:14199   */\n      swap1\n      pop\n        /* \"#utility.yul\":14132:14205   */\n      swap1\n      jump\t// out\n        /* \"#utility.yul\":14211:14400   */\n    tag_146:\n        /* \"#utility.yul\":14288:14320   */\n      tag_286\n      tag_145\n      jump\t// in\n    tag_286:\n        /* \"#utility.yul\":14329:14394   */\n      tag_287\n        /* \"#utility.yul\":14387:14393   */\n      dup2\n        /* \"#utility.yul\":14379:14385   */\n      dup5\n        /* \"#utility.yul\":14373:14377   */\n      dup5\n        /* \"#utility.yul\":14329:14394   */\n      tag_144\n      jump\t// in\n    tag_287:\n        /* \"#utility.yul\":14264:14400   */\n      pop\n        /* \"#utility.yul\":14211:14400   */\n      pop\n      pop\n      jump\t// out\n        /* \"#utility.yul\":14406:14592   */\n    tag_147:\n        /* \"#utility.yul\":14466:14586   */\n    tag_289:\n        /* \"#utility.yul\":14483:14486   */\n      dup2\n        /* \"#utility.yul\":14476:14481   */\n      dup2\n        /* \"#utility.yul\":14473:14487   */\n      lt\n        /* \"#utility.yul\":14466:14586   */\n      iszero\n      tag_291\n      jumpi\n        /* \"#utility.yul\":14537:14576   */\n      tag_292\n        /* \"#utility.yul\":14574:14575   */\n      0x00\n        /* \"#utility.yul\":14567:14572   */\n      dup3\n        /* \"#utility.yul\":14537:14576   */\n      tag_146\n      jump\t// in\n    tag_292:\n        /* \"#utility.yul\":14510:14511   */\n      0x01\n        /* \"#utility.yul\":14503:14508   */\n      dup2\n        /* \"#utility.yul\":14499:14512   */\n      add\n        /* \"#utility.yul\":14490:14512   */\n      swap1\n      pop\n        /* \"#utility.yul\":14466:14586   */\n      jump(tag_289)\n    tag_291:\n        /* \"#utility.yul\":14406:14592   */\n      pop\n      pop\n      jump\t// out\n        /* \"#utility.yul\":14598:15141   */\n    tag_148:\n        /* \"#utility.yul\":14699:14701   */\n      0x1f\n        /* \"#utility.yul\":14694:14697   */\n      dup3\n        /* \"#utility.yul\":14691:14702   */\n      gt\n        /* \"#utility.yul\":14688:15134   */\n      iszero\n      tag_294\n      jumpi\n        /* \"#utility.yul\":14733:14771   */\n      tag_295\n        /* \"#utility.yul\":14765:14770   */\n      dup2\n        /* \"#utility.yul\":14733:14771   */\n      tag_137\n      jump\t// in\n    tag_295:\n        /* \"#utility.yul\":14817:14846   */\n      tag_296\n        /* \"#utility.yul\":14835:14845   */\n      dup5\n        /* \"#utility.yul\":14817:14846   */\n      tag_138\n      jump\t// in\n    tag_296:\n        /* \"#utility.yul\":14807:14815   */\n      dup2\n        /* \"#utility.yul\":14803:14847   */\n      add\n        /* \"#utility.yul\":15000:15002   */\n      0x20\n        /* \"#utility.yul\":14988:14998   */\n      dup6\n        /* \"#utility.yul\":14985:15003   */\n      lt\n        /* \"#utility.yul\":14982:15031   */\n      iszero\n      tag_297\n      jumpi\n        /* \"#utility.yul\":15021:15029   */\n      dup2\n        /* \"#utility.yul\":15006:15029   */\n      swap1\n      pop\n        /* \"#utility.yul\":14982:15031   */\n    tag_297:\n        /* \"#utility.yul\":15044:15124   */\n      tag_298\n        /* \"#utility.yul\":15100:15122   */\n      tag_299\n        /* \"#utility.yul\":15118:15121   */\n      dup6\n        /* \"#utility.yul\":15100:15122   */\n      tag_138\n      jump\t// in\n    tag_299:\n        /* \"#utility.yul\":15090:15098   */\n      dup4\n        /* \"#utility.yul\":15086:15123   */\n      add\n        /* \"#utility.yul\":15073:15084   */\n      dup3\n        /* \"#utility.yul\":15044:15124   */\n      tag_147\n      jump\t// in\n    tag_298:\n        /* \"#utility.yul\":14703:15134   */\n      pop\n      pop\n        /* \"#utility.yul\":14688:15134   */\n    tag_294:\n        /* \"#utility.yul\":14598:15141   */\n      pop\n      pop\n      pop\n      jump\t// out\n        /* \"#utility.yul\":15147:15264   */\n    tag_149:\n        /* \"#utility.yul\":15201:15209   */\n      0x00\n        /* \"#utility.yul\":15251:15256   */\n      dup3\n        /* \"#utility.yul\":15245:15249   */\n      dup3\n        /* \"#utility.yul\":15241:15257   */\n      shr\n        /* \"#utility.yul\":15220:15257   */\n      swap1\n      pop\n        /* \"#utility.yul\":15147:15264   */\n      swap3\n      swap2\n      pop\n      pop\n      jump\t// out\n        /* \"#utility.yul\":15270:15439   */\n    tag_150:\n        /* \"#utility.yul\":15314:15320   */\n      0x00\n        /* \"#utility.yul\":15347:15398   */\n      tag_302\n        /* \"#utility.yul\":15395:15396   */\n      0x00\n        /* \"#utility.yul\":15391:15397   */\n      not\n        /* \"#utility.yul\":15383:15388   */\n      dup5\n        /* \"#utility.yul\":15380:15381   */\n      0x08\n        /* \"#utility.yul\":15376:15389   */\n      mul\n        /* \"#utility.yul\":15347:15398   */\n      tag_149\n      jump\t// in\n    tag_302:\n        /* \"#utility.yul\":15343:15399   */\n      not\n        /* \"#utility.yul\":15428:15432   */\n      dup1\n        /* \"#utility.yul\":15422:15426   */\n      dup4\n        /* \"#utility.yul\":15418:15433   */\n      and\n        /* \"#utility.yul\":15408:15433   */\n      swap2\n      pop\n        /* \"#utility.yul\":15321:15439   */\n      pop\n        /* \"#utility.yul\":15270:15439   */\n      swap3\n      swap2\n      pop\n      pop\n      jump\t// out\n        /* \"#utility.yul\":15444:15739   */\n    tag_151:\n        /* \"#utility.yul\":15520:15524   */\n      0x00\n        /* \"#utility.yul\":15666:15695   */\n      tag_304\n        /* \"#utility.yul\":15691:15694   */\n      dup4\n        /* \"#utility.yul\":15685:15689   */\n      dup4\n        /* \"#utility.yul\":15666:15695   */\n      tag_150\n      jump\t// in\n    tag_304:\n        /* \"#utility.yul\":15658:15695   */\n      swap2\n      pop\n        /* \"#utility.yul\":15728:15731   */\n      dup3\n        /* \"#utility.yul\":15725:15726   */\n      0x02\n        /* \"#utility.yul\":15721:15732   */\n      mul\n        /* \"#utility.yul\":15715:15719   */\n      dup3\n        /* \"#utility.yul\":15712:15733   */\n      or\n        /* \"#utility.yul\":15704:15733   */\n      swap1\n      pop\n        /* \"#utility.yul\":15444:15739   */\n      swap3\n      swap2\n      pop\n      pop\n      jump\t// out\n        /* \"#utility.yul\":15744:17139   */\n    tag_80:\n        /* \"#utility.yul\":15861:15898   */\n      tag_306\n        /* \"#utility.yul\":15894:15897   */\n      dup3\n        /* \"#utility.yul\":15861:15898   */\n      tag_105\n      jump\t// in\n    tag_306:\n        /* \"#utility.yul\":15963:15981   */\n      0xffffffffffffffff\n        /* \"#utility.yul\":15955:15961   */\n      dup2\n        /* \"#utility.yul\":15952:15982   */\n      gt\n        /* \"#utility.yul\":15949:16005   */\n      iszero\n      tag_307\n      jumpi\n        /* \"#utility.yul\":15985:16003   */\n      tag_308\n      tag_115\n      jump\t// in\n    tag_308:\n        /* \"#utility.yul\":15949:16005   */\n    tag_307:\n        /* \"#utility.yul\":16029:16067   */\n      tag_309\n        /* \"#utility.yul\":16061:16065   */\n      dup3\n        /* \"#utility.yul\":16055:16066   */\n      sload\n        /* \"#utility.yul\":16029:16067   */\n      tag_42\n      jump\t// in\n    tag_309:\n        /* \"#utility.yul\":16114:16181   */\n      tag_310\n        /* \"#utility.yul\":16174:16180   */\n      dup3\n        /* \"#utility.yul\":16166:16172   */\n      dup3\n        /* \"#utility.yul\":16160:16164   */\n      dup6\n        /* \"#utility.yul\":16114:16181   */\n      tag_148\n      jump\t// in\n    tag_310:\n        /* \"#utility.yul\":16208:16209   */\n      0x00\n        /* \"#utility.yul\":16232:16236   */\n      0x20\n        /* \"#utility.yul\":16219:16236   */\n      swap1\n      pop\n        /* \"#utility.yul\":16264:16266   */\n      0x1f\n        /* \"#utility.yul\":16256:16262   */\n      dup4\n        /* \"#utility.yul\":16253:16267   */\n      gt\n        /* \"#utility.yul\":16281:16282   */\n      0x01\n        /* \"#utility.yul\":16276:16894   */\n      dup2\n      eq\n      tag_312\n      jumpi\n        /* \"#utility.yul\":16938:16939   */\n      0x00\n        /* \"#utility.yul\":16955:16961   */\n      dup5\n        /* \"#utility.yul\":16952:17029   */\n      iszero\n      tag_313\n      jumpi\n        /* \"#utility.yul\":17004:17013   */\n      dup3\n        /* \"#utility.yul\":16999:17002   */\n      dup8\n        /* \"#utility.yul\":16995:17014   */\n      add\n        /* \"#utility.yul\":16989:17015   */\n      mload\n        /* \"#utility.yul\":16980:17015   */\n      swap1\n      pop\n        /* \"#utility.yul\":16952:17029   */\n    tag_313:\n        /* \"#utility.yul\":17055:17122   */\n      tag_314\n        /* \"#utility.yul\":17115:17121   */\n      dup6\n        /* \"#utility.yul\":17108:17113   */\n      dup3\n        /* \"#utility.yul\":17055:17122   */\n      tag_151\n      jump\t// in\n    tag_314:\n        /* \"#utility.yul\":17049:17053   */\n      dup7\n        /* \"#utility.yul\":17042:17123   */\n      sstore\n        /* \"#utility.yul\":16911:17133   */\n      pop\n        /* \"#utility.yul\":16246:17133   */\n      jump(tag_311)\n        /* \"#utility.yul\":16276:16894   */\n    tag_312:\n        /* \"#utility.yul\":16328:16332   */\n      0x1f\n        /* \"#utility.yul\":16324:16333   */\n      not\n        /* \"#utility.yul\":16316:16322   */\n      dup5\n        /* \"#utility.yul\":16312:16334   */\n      and\n        /* \"#utility.yul\":16362:16399   */\n      tag_315\n        /* \"#utility.yul\":16394:16398   */\n      dup7\n        /* \"#utility.yul\":16362:16399   */\n      tag_137\n      jump\t// in\n    tag_315:\n        /* \"#utility.yul\":16421:16422   */\n      0x00\n        /* \"#utility.yul\":16435:16643   */\n    tag_316:\n        /* \"#utility.yul\":16449:16456   */\n      dup3\n        /* \"#utility.yul\":16446:16447   */\n      dup2\n        /* \"#utility.yul\":16443:16457   */\n      lt\n        /* \"#utility.yul\":16435:16643   */\n      iszero\n      tag_318\n      jumpi\n        /* \"#utility.yul\":16528:16537   */\n      dup5\n        /* \"#utility.yul\":16523:16526   */\n      dup10\n        /* \"#utility.yul\":16519:16538   */\n      add\n        /* \"#utility.yul\":16513:16539   */\n      mload\n        /* \"#utility.yul\":16505:16511   */\n      dup3\n        /* \"#utility.yul\":16498:16540   */\n      sstore\n        /* \"#utility.yul\":16579:16580   */\n      0x01\n        /* \"#utility.yul\":16571:16577   */\n      dup3\n        /* \"#utility.yul\":16567:16581   */\n      add\n        /* \"#utility.yul\":16557:16581   */\n      swap2\n      pop\n        /* \"#utility.yul\":16626:16628   */\n      0x20\n        /* \"#utility.yul\":16615:16624   */\n      dup6\n        /* \"#utility.yul\":16611:16629   */\n      add\n        /* \"#utility.yul\":16598:16629   */\n      swap5\n      pop\n        /* \"#utility.yul\":16472:16476   */\n      0x20\n        /* \"#utility.yul\":16469:16470   */\n      dup2\n        /* \"#utility.yul\":16465:16477   */\n      add\n        /* \"#utility.yul\":16460:16477   */\n      swap1\n      pop\n        /* \"#utility.yul\":16435:16643   */\n      jump(tag_316)\n    tag_318:\n        /* \"#utility.yul\":16671:16677   */\n      dup7\n        /* \"#utility.yul\":16662:16669   */\n      dup4\n        /* \"#utility.yul\":16659:16678   */\n      lt\n        /* \"#utility.yul\":16656:16835   */\n      iszero\n      tag_319\n      jumpi\n        /* \"#utility.yul\":16729:16738   */\n      dup5\n        /* \"#utility.yul\":16724:16727   */\n      dup10\n        /* \"#utility.yul\":16720:16739   */\n      add\n        /* \"#utility.yul\":16714:16740   */\n      mload\n        /* \"#utility.yul\":16772:16820   */\n      tag_320\n        /* \"#utility.yul\":16814:16818   */\n      0x1f\n        /* \"#utility.yul\":16806:16812   */\n      dup10\n        /* \"#utility.yul\":16802:16819   */\n      and\n        /* \"#utility.yul\":16791:16800   */\n      dup3\n        /* \"#utility.yul\":16772:16820   */\n      tag_150\n      jump\t// in\n    tag_320:\n        /* \"#utility.yul\":16764:16770   */\n      dup4\n        /* \"#utility.yul\":16757:16821   */\n      sstore\n        /* \"#utility.yul\":16679:16835   */\n      pop\n        /* \"#utility.yul\":16656:16835   */\n    tag_319:\n        /* \"#utility.yul\":16881:16882   */\n      0x01\n        /* \"#utility.yul\":16877:16878   */\n      0x02\n        /* \"#utility.yul\":16869:16875   */\n      dup9\n        /* \"#utility.yul\":16865:16879   */\n      mul\n        /* \"#utility.yul\":16861:16883   */\n      add\n        /* \"#utility.yul\":16855:16859   */\n      dup9\n        /* \"#utility.yul\":16848:16884   */\n      sstore\n        /* \"#utility.yul\":16283:16894   */\n      pop\n      pop\n      pop\n        /* \"#utility.yul\":16246:17133   */\n    tag_311:\n      pop\n        /* \"#utility.yul\":15836:17139   */\n      pop\n      pop\n      pop\n        /* \"#utility.yul\":15744:17139   */\n      pop\n      pop\n      jump\t// out\n        /* \"#utility.yul\":17145:17336   */\n    tag_89:\n        /* \"#utility.yul\":17185:17188   */\n      0x00\n        /* \"#utility.yul\":17204:17224   */\n      tag_322\n        /* \"#utility.yul\":17222:17223   */\n      dup3\n        /* \"#utility.yul\":17204:17224   */\n      tag_98\n      jump\t// in\n    tag_322:\n        /* \"#utility.yul\":17199:17224   */\n      swap2\n      pop\n        /* \"#utility.yul\":17238:17258   */\n      tag_323\n        /* \"#utility.yul\":17256:17257   */\n      dup4\n        /* \"#utility.yul\":17238:17258   */\n      tag_98\n      jump\t// in\n    tag_323:\n        /* \"#utility.yul\":17233:17258   */\n      swap3\n      pop\n        /* \"#utility.yul\":17281:17282   */\n      dup3\n        /* \"#utility.yul\":17278:17279   */\n      dup3\n        /* \"#utility.yul\":17274:17283   */\n      add\n        /* \"#utility.yul\":17267:17283   */\n      swap1\n      pop\n        /* \"#utility.yul\":17302:17305   */\n      dup1\n        /* \"#utility.yul\":17299:17300   */\n      dup3\n        /* \"#utility.yul\":17296:17306   */\n      gt\n        /* \"#utility.yul\":17293:17329   */\n      iszero\n      tag_324\n      jumpi\n        /* \"#utility.yul\":17309:17327   */\n      tag_325\n      tag_127\n      jump\t// in\n    tag_325:\n        /* \"#utility.yul\":17293:17329   */\n    tag_324:\n        /* \"#utility.yul\":17145:17336   */\n      swap3\n      swap2\n      pop\n      pop\n      jump\t// out\n\n    auxdata: 0xa264697066735822122040dd75396fee0925e1a21eee24dee09ab03dec0e9c42c94e680e138915a09cdb64736f6c634300081f0033\n}\n",
				"bytecode": {
					"linkReferences": {},
					"object": "6080604052348015600e575f5ffd5b50610f828061001c5f395ff3fe608060405260043610610049575f3560e01c806312065fe01461004d57806338d94193146100775780635b6b431d146100b557806379b7f303146100dd578063d0e30db0146100f9575b5f5ffd5b348015610058575f5ffd5b50610061610103565b60405161006e919061069a565b60405180910390f35b348015610082575f5ffd5b5061009d600480360381019061009891906106ee565b61017f565b6040516100ac939291906107c8565b60405180910390f35b3480156100c0575f5ffd5b506100db60048036038101906100d691906106ee565b610258565b005b6100f760048036038101906100f29190610930565b6103f4565b005b61010161054b565b005b5f5f61010e336105d8565b90505f805490508103610156576040517f08c379a000000000000000000000000000000000000000000000000000000000815260040161014d906109c1565b60405180910390fd5b5f8181548110610169576101686109df565b5b905f5260205f2090600302016002015491505090565b5f818154811061018d575f80fd5b905f5260205f2090600302015f91509050805f0180546101ac90610a39565b80601f01602080910402602001604051908101604052809291908181526020018280546101d890610a39565b80156102235780601f106101fa57610100808354040283529160200191610223565b820191905f5260205f20905b81548152906001019060200180831161020657829003601f168201915b505050505090806001015f9054906101000a900473ffffffffffffffffffffffffffffffffffffffff16908060020154905083565b5f610262336105d8565b90505f8054905081036102aa576040517f08c379a00000000000000000000000000000000000000000000000000000000081526004016102a1906109c1565b60405180910390fd5b5f81815481106102bd576102bc6109df565b5b905f5260205f2090600302016002015482111561030f576040517f08c379a000000000000000000000000000000000000000000000000000000000815260040161030690610ab3565b60405180910390fd5b815f8281548110610323576103226109df565b5b905f5260205f2090600302016002015f8282546103409190610afe565b925050819055505f3373ffffffffffffffffffffffffffffffffffffffff168360405161036c90610b5e565b5f6040518083038185875af1925050503d805f81146103a6576040519150601f19603f3d011682016040523d82523d5f602084013e6103ab565b606091505b50509050806103ef576040517f08c379a00000000000000000000000000000000000000000000000000000000081526004016103e690610bbc565b60405180910390fd5b505050565b5f6103fe336105d8565b90505f805490508114610446576040517f08c379a000000000000000000000000000000000000000000000000000000000815260040161043d90610c24565b60405180910390fd5b5f825103610489576040517f08c379a000000000000000000000000000000000000000000000000000000000815260040161048090610c8c565b60405180910390fd5b5f60405180606001604052808481526020013373ffffffffffffffffffffffffffffffffffffffff16815260200134815250908060018154018082558091505060019003905f5260205f2090600302015f909190919091505f820151815f0190816104f49190610e4a565b506020820151816001015f6101000a81548173ffffffffffffffffffffffffffffffffffffffff021916908373ffffffffffffffffffffffffffffffffffffffff1602179055506040820151816002015550505050565b5f610555336105d8565b90505f80549050810361059d576040517f08c379a0000000000000000000000000000000000000000000000000000000008152600401610594906109c1565b60405180910390fd5b345f82815481106105b1576105b06109df565b5b905f5260205f2090600302016002015f8282546105ce9190610f19565b9250508190555050565b5f5f5f90505b5f80549050811015610674578273ffffffffffffffffffffffffffffffffffffffff165f8281548110610614576106136109df565b5b905f5260205f2090600302016001015f9054906101000a900473ffffffffffffffffffffffffffffffffffffffff1673ffffffffffffffffffffffffffffffffffffffff1603610667578091505061067d565b80806001019150506105de565b505f8054905090505b919050565b5f819050919050565b61069481610682565b82525050565b5f6020820190506106ad5f83018461068b565b92915050565b5f604051905090565b5f5ffd5b5f5ffd5b6106cd81610682565b81146106d7575f5ffd5b50565b5f813590506106e8816106c4565b92915050565b5f60208284031215610703576107026106bc565b5b5f610710848285016106da565b91505092915050565b5f81519050919050565b5f82825260208201905092915050565b8281835e5f83830152505050565b5f601f19601f8301169050919050565b5f61075b82610719565b6107658185610723565b9350610775818560208601610733565b61077e81610741565b840191505092915050565b5f73ffffffffffffffffffffffffffffffffffffffff82169050919050565b5f6107b282610789565b9050919050565b6107c2816107a8565b82525050565b5f6060820190508181035f8301526107e08186610751565b90506107ef60208301856107b9565b6107fc604083018461068b565b949350505050565b5f5ffd5b5f5ffd5b7f4e487b71000000000000000000000000000000000000000000000000000000005f52604160045260245ffd5b61084282610741565b810181811067ffffffffffffffff821117156108615761086061080c565b5b80604052505050565b5f6108736106b3565b905061087f8282610839565b919050565b5f67ffffffffffffffff82111561089e5761089d61080c565b5b6108a782610741565b9050602081019050919050565b828183375f83830152505050565b5f6108d46108cf84610884565b61086a565b9050828152602081018484840111156108f0576108ef610808565b5b6108fb8482856108b4565b509392505050565b5f82601f83011261091757610916610804565b5b81356109278482602086016108c2565b91505092915050565b5f60208284031215610945576109446106bc565b5b5f82013567ffffffffffffffff811115610962576109616106c0565b5b61096e84828501610903565b91505092915050565b7f4e6f7420657869737473000000000000000000000000000000000000000000005f82015250565b5f6109ab600a83610723565b91506109b682610977565b602082019050919050565b5f6020820190508181035f8301526109d88161099f565b9050919050565b7f4e487b71000000000000000000000000000000000000000000000000000000005f52603260045260245ffd5b7f4e487b71000000000000000000000000000000000000000000000000000000005f52602260045260245ffd5b5f6002820490506001821680610a5057607f821691505b602082108103610a6357610a62610a0c565b5b50919050565b7f496e737566666963656e742062616c616e6365000000000000000000000000005f82015250565b5f610a9d601383610723565b9150610aa882610a69565b602082019050919050565b5f6020820190508181035f830152610aca81610a91565b9050919050565b7f4e487b71000000000000000000000000000000000000000000000000000000005f52601160045260245ffd5b5f610b0882610682565b9150610b1383610682565b9250828203905081811115610b2b57610b2a610ad1565b5b92915050565b5f81905092915050565b50565b5f610b495f83610b31565b9150610b5482610b3b565b5f82019050919050565b5f610b6882610b3e565b9150819050919050565b7f4572726f7220656e206c61207472616e73616363696f6e0000000000000000005f82015250565b5f610ba6601783610723565b9150610bb182610b72565b602082019050919050565b5f6020820190508181035f830152610bd381610b9a565b9050919050565b7f416c7265616479206578697473000000000000000000000000000000000000005f82015250565b5f610c0e600d83610723565b9150610c1982610bda565b602082019050919050565b5f6020820190508181035f830152610c3b81610c02565b9050919050565b7f656d707479206e616d65000000000000000000000000000000000000000000005f82015250565b5f610c76600a83610723565b9150610c8182610c42565b602082019050919050565b5f6020820190508181035f830152610ca381610c6a565b9050919050565b5f819050815f5260205f209050919050565b5f6020601f8301049050919050565b5f82821b905092915050565b5f60088302610d067fffffffffffffffffffffffffffffffffffffffffffffffffffffffffffffffff82610ccb565b610d108683610ccb565b95508019841693508086168417925050509392505050565b5f819050919050565b5f610d4b610d46610d4184610682565b610d28565b610682565b9050919050565b5f819050919050565b610d6483610d31565b610d78610d7082610d52565b848454610cd7565b825550505050565b5f5f905090565b610d8f610d80565b610d9a818484610d5b565b505050565b5b81811015610dbd57610db25f82610d87565b600181019050610da0565b5050565b601f821115610e0257610dd381610caa565b610ddc84610cbc565b81016020851015610deb578190505b610dff610df785610cbc565b830182610d9f565b50505b505050565b5f82821c905092915050565b5f610e225f1984600802610e07565b1980831691505092915050565b5f610e3a8383610e13565b9150826002028217905092915050565b610e5382610719565b67ffffffffffffffff811115610e6c57610e6b61080c565b5b610e768254610a39565b610e81828285610dc1565b5f60209050601f831160018114610eb2575f8415610ea0578287015190505b610eaa8582610e2f565b865550610f11565b601f198416610ec086610caa565b5f5b82811015610ee757848901518255600182019150602085019450602081019050610ec2565b86831015610f045784890151610f00601f891682610e13565b8355505b6001600288020188555050505b505050505050565b5f610f2382610682565b9150610f2e83610682565b9250828201905080821115610f4657610f45610ad1565b5b9291505056fea264697066735822122040dd75396fee0925e1a21eee24dee09ab03dec0e9c42c94e680e138915a09cdb64736f6c634300081f0033",
					"opcodes": "PUSH1 0x80 PUSH1 0x40 MSTORE CALLVALUE DUP1 ISZERO PUSH1 0xE JUMPI PUSH0 PUSH0 REVERT JUMPDEST POP PUSH2 0xF82 DUP1 PUSH2 0x1C PUSH0 CODECOPY PUSH0 RETURN INVALID PUSH1 0x80 PUSH1 0x40 MSTORE PUSH1 0x4 CALLDATASIZE LT PUSH2 0x49 JUMPI PUSH0 CALLDATALOAD PUSH1 0xE0 SHR DUP1 PUSH4 0x12065FE0 EQ PUSH2 0x4D JUMPI DUP1 PUSH4 0x38D94193 EQ PUSH2 0x77 JUMPI DUP1 PUSH4 0x5B6B431D EQ PUSH2 0xB5 JUMPI DUP1 PUSH4 0x79B7F303 EQ PUSH2 0xDD JUMPI DUP1 PUSH4 0xD0E30DB0 EQ PUSH2 0xF9 JUMPI JUMPDEST PUSH0 PUSH0 REVERT JUMPDEST CALLVALUE DUP1 ISZERO PUSH2 0x58 JUMPI PUSH0 PUSH0 REVERT JUMPDEST POP PUSH2 0x61 PUSH2 0x103 JUMP JUMPDEST PUSH1 0x40 MLOAD PUSH2 0x6E SWAP2 SWAP1 PUSH2 0x69A JUMP JUMPDEST PUSH1 0x40 MLOAD DUP1 SWAP2 SUB SWAP1 RETURN JUMPDEST CALLVALUE DUP1 ISZERO PUSH2 0x82 JUMPI PUSH0 PUSH0 REVERT JUMPDEST POP PUSH2 0x9D PUSH1 0x4 DUP1 CALLDATASIZE SUB DUP2 ADD SWAP1 PUSH2 0x98 SWAP2 SWAP1 PUSH2 0x6EE JUMP JUMPDEST PUSH2 0x17F JUMP JUMPDEST PUSH1 0x40 MLOAD PUSH2 0xAC SWAP4 SWAP3 SWAP2 SWAP1 PUSH2 0x7C8 JUMP JUMPDEST PUSH1 0x40 MLOAD DUP1 SWAP2 SUB SWAP1 RETURN JUMPDEST CALLVALUE DUP1 ISZERO PUSH2 0xC0 JUMPI PUSH0 PUSH0 REVERT JUMPDEST POP PUSH2 0xDB PUSH1 0x4 DUP1 CALLDATASIZE SUB DUP2 ADD SWAP1 PUSH2 0xD6 SWAP2 SWAP1 PUSH2 0x6EE JUMP JUMPDEST PUSH2 0x258 JUMP JUMPDEST STOP JUMPDEST PUSH2 0xF7 PUSH1 0x4 DUP1 CALLDATASIZE SUB DUP2 ADD SWAP1 PUSH2 0xF2 SWAP2 SWAP1 PUSH2 0x930 JUMP JUMPDEST PUSH2 0x3F4 JUMP JUMPDEST STOP JUMPDEST PUSH2 0x101 PUSH2 0x54B JUMP JUMPDEST STOP JUMPDEST PUSH0 PUSH0 PUSH2 0x10E CALLER PUSH2 0x5D8 JUMP JUMPDEST SWAP1 POP PUSH0 DUP1 SLOAD SWAP1 POP DUP2 SUB PUSH2 0x156 JUMPI PUSH1 0x40 MLOAD PUSH32 0x8C379A000000000000000000000000000000000000000000000000000000000 DUP2 MSTORE PUSH1 0x4 ADD PUSH2 0x14D SWAP1 PUSH2 0x9C1 JUMP JUMPDEST PUSH1 0x40 MLOAD DUP1 SWAP2 SUB SWAP1 REVERT JUMPDEST PUSH0 DUP2 DUP2 SLOAD DUP2 LT PUSH2 0x169 JUMPI PUSH2 0x168 PUSH2 0x9DF JUMP JUMPDEST JUMPDEST SWAP1 PUSH0 MSTORE PUSH1 0x20 PUSH0 KECCAK256 SWAP1 PUSH1 0x3 MUL ADD PUSH1 0x2 ADD SLOAD SWAP2 POP POP SWAP1 JUMP JUMPDEST PUSH0 DUP2 DUP2 SLOAD DUP2 LT PUSH2 0x18D JUMPI PUSH0 DUP1 REVERT JUMPDEST SWAP1 PUSH0 MSTORE PUSH1 0x20 PUSH0 KECCAK256 SWAP1 PUSH1 0x3 MUL ADD PUSH0 SWAP2 POP SWAP1 POP DUP1 PUSH0 ADD DUP1 SLOAD PUSH2 0x1AC SWAP1 PUSH2 0xA39 JUMP JUMPDEST DUP1 PUSH1 0x1F ADD PUSH1 0x20 DUP1 SWAP2 DIV MUL PUSH1 0x20 ADD PUSH1 0x40 MLOAD SWAP1 DUP2 ADD PUSH1 0x40 MSTORE DUP1 SWAP3 SWAP2 SWAP1 DUP2 DUP2 MSTORE PUSH1 0x20 ADD DUP3 DUP1 SLOAD PUSH2 0x1D8 SWAP1 PUSH2 0xA39 JUMP JUMPDEST DUP1 ISZERO PUSH2 0x223 JUMPI DUP1 PUSH1 0x1F LT PUSH2 0x1FA JUMPI PUSH2 0x100 DUP1 DUP4 SLOAD DIV MUL DUP4 MSTORE SWAP2 PUSH1 0x20 ADD SWAP2 PUSH2 0x223 JUMP JUMPDEST DUP3 ADD SWAP2 SWAP1 PUSH0 MSTORE PUSH1 0x20 PUSH0 KECCAK256 SWAP1 JUMPDEST DUP2 SLOAD DUP2 MSTORE SWAP1 PUSH1 0x1 ADD SWAP1 PUSH1 0x20 ADD DUP1 DUP4 GT PUSH2 0x206 JUMPI DUP3 SWAP1 SUB PUSH1 0x1F AND DUP3 ADD SWAP2 JUMPDEST POP POP POP POP POP SWAP1 DUP1 PUSH1 0x1 ADD PUSH0 SWAP1 SLOAD SWAP1 PUSH2 0x100 EXP SWAP1 DIV PUSH20 0xFFFFFFFFFFFFFFFFFFFFFFFFFFFFFFFFFFFFFFFF AND SWAP1 DUP1 PUSH1 0x2 ADD SLOAD SWAP1 POP DUP4 JUMP JUMPDEST PUSH0 PUSH2 0x262 CALLER PUSH2 0x5D8 JUMP JUMPDEST SWAP1 POP PUSH0 DUP1 SLOAD SWAP1 POP DUP2 SUB PUSH2 0x2AA JUMPI PUSH1 0x40 MLOAD PUSH32 0x8C379A000000000000000000000000000000000000000000000000000000000 DUP2 MSTORE PUSH1 0x4 ADD PUSH2 0x2A1 SWAP1 PUSH2 0x9C1 JUMP JUMPDEST PUSH1 0x40 MLOAD DUP1 SWAP2 SUB SWAP1 REVERT JUMPDEST PUSH0 DUP2 DUP2 SLOAD DUP2 LT PUSH2 0x2BD JUMPI PUSH2 0x2BC PUSH2 0x9DF JUMP JUMPDEST JUMPDEST SWAP1 PUSH0 MSTORE PUSH1 0x20 PUSH0 KECCAK256 SWAP1 PUSH1 0x3 MUL ADD PUSH1 0x2 ADD SLOAD DUP3 GT ISZERO PUSH2 0x30F JUMPI PUSH1 0x40 MLOAD PUSH32 0x8C379A000000000000000000000000000000000000000000000000000000000 DUP2 MSTORE PUSH1 0x4 ADD PUSH2 0x306 SWAP1 PUSH2 0xAB3 JUMP JUMPDEST PUSH1 0x40 MLOAD DUP1 SWAP2 SUB SWAP1 REVERT JUMPDEST DUP2 PUSH0 DUP3 DUP2 SLOAD DUP2 LT PUSH2 0x323 JUMPI PUSH2 0x322 PUSH2 0x9DF JUMP JUMPDEST JUMPDEST SWAP1 PUSH0 MSTORE PUSH1 0x20 PUSH0 KECCAK256 SWAP1 PUSH1 0x3 MUL ADD PUSH1 0x2 ADD PUSH0 DUP3 DUP3 SLOAD PUSH2 0x340 SWAP2 SWAP1 PUSH2 0xAFE JUMP JUMPDEST SWAP3 POP POP DUP2 SWAP1 SSTORE POP PUSH0 CALLER PUSH20 0xFFFFFFFFFFFFFFFFFFFFFFFFFFFFFFFFFFFFFFFF AND DUP4 PUSH1 0x40 MLOAD PUSH2 0x36C SWAP1 PUSH2 0xB5E JUMP JUMPDEST PUSH0 PUSH1 0x40 MLOAD DUP1 DUP4 SUB DUP2 DUP6 DUP8 GAS CALL SWAP3 POP POP POP RETURNDATASIZE DUP1 PUSH0 DUP2 EQ PUSH2 0x3A6 JUMPI PUSH1 0x40 MLOAD SWAP2 POP PUSH1 0x1F NOT PUSH1 0x3F RETURNDATASIZE ADD AND DUP3 ADD PUSH1 0x40 MSTORE RETURNDATASIZE DUP3 MSTORE RETURNDATASIZE PUSH0 PUSH1 0x20 DUP5 ADD RETURNDATACOPY PUSH2 0x3AB JUMP JUMPDEST PUSH1 0x60 SWAP2 POP JUMPDEST POP POP SWAP1 POP DUP1 PUSH2 0x3EF JUMPI PUSH1 0x40 MLOAD PUSH32 0x8C379A000000000000000000000000000000000000000000000000000000000 DUP2 MSTORE PUSH1 0x4 ADD PUSH2 0x3E6 SWAP1 PUSH2 0xBBC JUMP JUMPDEST PUSH1 0x40 MLOAD DUP1 SWAP2 SUB SWAP1 REVERT JUMPDEST POP POP POP JUMP JUMPDEST PUSH0 PUSH2 0x3FE CALLER PUSH2 0x5D8 JUMP JUMPDEST SWAP1 POP PUSH0 DUP1 SLOAD SWAP1 POP DUP2 EQ PUSH2 0x446 JUMPI PUSH1 0x40 MLOAD PUSH32 0x8C379A000000000000000000000000000000000000000000000000000000000 DUP2 MSTORE PUSH1 0x4 ADD PUSH2 0x43D SWAP1 PUSH2 0xC24 JUMP JUMPDEST PUSH1 0x40 MLOAD DUP1 SWAP2 SUB SWAP1 REVERT JUMPDEST PUSH0 DUP3 MLOAD SUB PUSH2 0x489 JUMPI PUSH1 0x40 MLOAD PUSH32 0x8C379A000000000000000000000000000000000000000000000000000000000 DUP2 MSTORE PUSH1 0x4 ADD PUSH2 0x480 SWAP1 PUSH2 0xC8C JUMP JUMPDEST PUSH1 0x40 MLOAD DUP1 SWAP2 SUB SWAP1 REVERT JUMPDEST PUSH0 PUSH1 0x40 MLOAD DUP1 PUSH1 0x60 ADD PUSH1 0x40 MSTORE DUP1 DUP5 DUP2 MSTORE PUSH1 0x20 ADD CALLER PUSH20 0xFFFFFFFFFFFFFFFFFFFFFFFFFFFFFFFFFFFFFFFF AND DUP2 MSTORE PUSH1 0x20 ADD CALLVALUE DUP2 MSTORE POP SWAP1 DUP1 PUSH1 0x1 DUP2 SLOAD ADD DUP1 DUP3 SSTORE DUP1 SWAP2 POP POP PUSH1 0x1 SWAP1 SUB SWAP1 PUSH0 MSTORE PUSH1 0x20 PUSH0 KECCAK256 SWAP1 PUSH1 0x3 MUL ADD PUSH0 SWAP1 SWAP2 SWAP1 SWAP2 SWAP1 SWAP2 POP PUSH0 DUP3 ADD MLOAD DUP2 PUSH0 ADD SWAP1 DUP2 PUSH2 0x4F4 SWAP2 SWAP1 PUSH2 0xE4A JUMP JUMPDEST POP PUSH1 0x20 DUP3 ADD MLOAD DUP2 PUSH1 0x1 ADD PUSH0 PUSH2 0x100 EXP DUP2 SLOAD DUP2 PUSH20 0xFFFFFFFFFFFFFFFFFFFFFFFFFFFFFFFFFFFFFFFF MUL NOT AND SWAP1 DUP4 PUSH20 0xFFFFFFFFFFFFFFFFFFFFFFFFFFFFFFFFFFFFFFFF AND MUL OR SWAP1 SSTORE POP PUSH1 0x40 DUP3 ADD MLOAD DUP2 PUSH1 0x2 ADD SSTORE POP POP POP POP JUMP JUMPDEST PUSH0 PUSH2 0x555 CALLER PUSH2 0x5D8 JUMP JUMPDEST SWAP1 POP PUSH0 DUP1 SLOAD SWAP1 POP DUP2 SUB PUSH2 0x59D JUMPI PUSH1 0x40 MLOAD PUSH32 0x8C379A000000000000000000000000000000000000000000000000000000000 DUP2 MSTORE PUSH1 0x4 ADD PUSH2 0x594 SWAP1 PUSH2 0x9C1 JUMP JUMPDEST PUSH1 0x40 MLOAD DUP1 SWAP2 SUB SWAP1 REVERT JUMPDEST CALLVALUE PUSH0 DUP3 DUP2 SLOAD DUP2 LT PUSH2 0x5B1 JUMPI PUSH2 0x5B0 PUSH2 0x9DF JUMP JUMPDEST JUMPDEST SWAP1 PUSH0 MSTORE PUSH1 0x20 PUSH0 KECCAK256 SWAP1 PUSH1 0x3 MUL ADD PUSH1 0x2 ADD PUSH0 DUP3 DUP3 SLOAD PUSH2 0x5CE SWAP2 SWAP1 PUSH2 0xF19 JUMP JUMPDEST SWAP3 POP POP DUP2 SWAP1 SSTORE POP POP JUMP JUMPDEST PUSH0 PUSH0 PUSH0 SWAP1 POP JUMPDEST PUSH0 DUP1 SLOAD SWAP1 POP DUP2 LT ISZERO PUSH2 0x674 JUMPI DUP3 PUSH20 0xFFFFFFFFFFFFFFFFFFFFFFFFFFFFFFFFFFFFFFFF AND PUSH0 DUP3 DUP2 SLOAD DUP2 LT PUSH2 0x614 JUMPI PUSH2 0x613 PUSH2 0x9DF JUMP JUMPDEST JUMPDEST SWAP1 PUSH0 MSTORE PUSH1 0x20 PUSH0 KECCAK256 SWAP1 PUSH1 0x3 MUL ADD PUSH1 0x1 ADD PUSH0 SWAP1 SLOAD SWAP1 PUSH2 0x100 EXP SWAP1 DIV PUSH20 0xFFFFFFFFFFFFFFFFFFFFFFFFFFFFFFFFFFFFFFFF AND PUSH20 0xFFFFFFFFFFFFFFFFFFFFFFFFFFFFFFFFFFFFFFFF AND SUB PUSH2 0x667 JUMPI DUP1 SWAP2 POP POP PUSH2 0x67D JUMP JUMPDEST DUP1 DUP1 PUSH1 0x1 ADD SWAP2 POP POP PUSH2 0x5DE JUMP JUMPDEST POP PUSH0 DUP1 SLOAD SWAP1 POP SWAP1 POP JUMPDEST SWAP2 SWAP1 POP JUMP JUMPDEST PUSH0 DUP2 SWAP1 POP SWAP2 SWAP1 POP JUMP JUMPDEST PUSH2 0x694 DUP2 PUSH2 0x682 JUMP JUMPDEST DUP3 MSTORE POP POP JUMP JUMPDEST PUSH0 PUSH1 0x20 DUP3 ADD SWAP1 POP PUSH2 0x6AD PUSH0 DUP4 ADD DUP5 PUSH2 0x68B JUMP JUMPDEST SWAP3 SWAP2 POP POP JUMP JUMPDEST PUSH0 PUSH1 0x40 MLOAD SWAP1 POP SWAP1 JUMP JUMPDEST PUSH0 PUSH0 REVERT JUMPDEST PUSH0 PUSH0 REVERT JUMPDEST PUSH2 0x6CD DUP2 PUSH2 0x682 JUMP JUMPDEST DUP2 EQ PUSH2 0x6D7 JUMPI PUSH0 PUSH0 REVERT JUMPDEST POP JUMP JUMPDEST PUSH0 DUP2 CALLDATALOAD SWAP1 POP PUSH2 0x6E8 DUP2 PUSH2 0x6C4 JUMP JUMPDEST SWAP3 SWAP2 POP POP JUMP JUMPDEST PUSH0 PUSH1 0x20 DUP3 DUP5 SUB SLT ISZERO PUSH2 0x703 JUMPI PUSH2 0x702 PUSH2 0x6BC JUMP JUMPDEST JUMPDEST PUSH0 PUSH2 0x710 DUP5 DUP3 DUP6 ADD PUSH2 0x6DA JUMP JUMPDEST SWAP2 POP POP SWAP3 SWAP2 POP POP JUMP JUMPDEST PUSH0 DUP2 MLOAD SWAP1 POP SWAP2 SWAP1 POP JUMP JUMPDEST PUSH0 DUP3 DUP3 MSTORE PUSH1 0x20 DUP3 ADD SWAP1 POP SWAP3 SWAP2 POP POP JUMP JUMPDEST DUP3 DUP2 DUP4 MCOPY PUSH0 DUP4 DUP4 ADD MSTORE POP POP POP JUMP JUMPDEST PUSH0 PUSH1 0x1F NOT PUSH1 0x1F DUP4 ADD AND SWAP1 POP SWAP2 SWAP1 POP JUMP JUMPDEST PUSH0 PUSH2 0x75B DUP3 PUSH2 0x719 JUMP JUMPDEST PUSH2 0x765 DUP2 DUP6 PUSH2 0x723 JUMP JUMPDEST SWAP4 POP PUSH2 0x775 DUP2 DUP6 PUSH1 0x20 DUP7 ADD PUSH2 0x733 JUMP JUMPDEST PUSH2 0x77E DUP2 PUSH2 0x741 JUMP JUMPDEST DUP5 ADD SWAP2 POP POP SWAP3 SWAP2 POP POP JUMP JUMPDEST PUSH0 PUSH20 0xFFFFFFFFFFFFFFFFFFFFFFFFFFFFFFFFFFFFFFFF DUP3 AND SWAP1 POP SWAP2 SWAP1 POP JUMP JUMPDEST PUSH0 PUSH2 0x7B2 DUP3 PUSH2 0x789 JUMP JUMPDEST SWAP1 POP SWAP2 SWAP1 POP JUMP JUMPDEST PUSH2 0x7C2 DUP2 PUSH2 0x7A8 JUMP JUMPDEST DUP3 MSTORE POP POP JUMP JUMPDEST PUSH0 PUSH1 0x60 DUP3 ADD SWAP1 POP DUP2 DUP2 SUB PUSH0 DUP4 ADD MSTORE PUSH2 0x7E0 DUP2 DUP7 PUSH2 0x751 JUMP JUMPDEST SWAP1 POP PUSH2 0x7EF PUSH1 0x20 DUP4 ADD DUP6 PUSH2 0x7B9 JUMP JUMPDEST PUSH2 0x7FC PUSH1 0x40 DUP4 ADD DUP5 PUSH2 0x68B JUMP JUMPDEST SWAP5 SWAP4 POP POP POP POP JUMP JUMPDEST PUSH0 PUSH0 REVERT JUMPDEST PUSH0 PUSH0 REVERT JUMPDEST PUSH32 0x4E487B7100000000000000000000000000000000000000000000000000000000 PUSH0 MSTORE PUSH1 0x41 PUSH1 0x4 MSTORE PUSH1 0x24 PUSH0 REVERT JUMPDEST PUSH2 0x842 DUP3 PUSH2 0x741 JUMP JUMPDEST DUP2 ADD DUP2 DUP2 LT PUSH8 0xFFFFFFFFFFFFFFFF DUP3 GT OR ISZERO PUSH2 0x861 JUMPI PUSH2 0x860 PUSH2 0x80C JUMP JUMPDEST JUMPDEST DUP1 PUSH1 0x40 MSTORE POP POP POP JUMP JUMPDEST PUSH0 PUSH2 0x873 PUSH2 0x6B3 JUMP JUMPDEST SWAP1 POP PUSH2 0x87F DUP3 DUP3 PUSH2 0x839 JUMP JUMPDEST SWAP2 SWAP1 POP JUMP JUMPDEST PUSH0 PUSH8 0xFFFFFFFFFFFFFFFF DUP3 GT ISZERO PUSH2 0x89E JUMPI PUSH2 0x89D PUSH2 0x80C JUMP JUMPDEST JUMPDEST PUSH2 0x8A7 DUP3 PUSH2 0x741 JUMP JUMPDEST SWAP1 POP PUSH1 0x20 DUP2 ADD SWAP1 POP SWAP2 SWAP1 POP JUMP JUMPDEST DUP3 DUP2 DUP4 CALLDATACOPY PUSH0 DUP4 DUP4 ADD MSTORE POP POP POP JUMP JUMPDEST PUSH0 PUSH2 0x8D4 PUSH2 0x8CF DUP5 PUSH2 0x884 JUMP JUMPDEST PUSH2 0x86A JUMP JUMPDEST SWAP1 POP DUP3 DUP2 MSTORE PUSH1 0x20 DUP2 ADD DUP5 DUP5 DUP5 ADD GT ISZERO PUSH2 0x8F0 JUMPI PUSH2 0x8EF PUSH2 0x808 JUMP JUMPDEST JUMPDEST PUSH2 0x8FB DUP5 DUP3 DUP6 PUSH2 0x8B4 JUMP JUMPDEST POP SWAP4 SWAP3 POP POP POP JUMP JUMPDEST PUSH0 DUP3 PUSH1 0x1F DUP4 ADD SLT PUSH2 0x917 JUMPI PUSH2 0x916 PUSH2 0x804 JUMP JUMPDEST JUMPDEST DUP2 CALLDATALOAD PUSH2 0x927 DUP5 DUP3 PUSH1 0x20 DUP7 ADD PUSH2 0x8C2 JUMP JUMPDEST SWAP2 POP POP SWAP3 SWAP2 POP POP JUMP JUMPDEST PUSH0 PUSH1 0x20 DUP3 DUP5 SUB SLT ISZERO PUSH2 0x945 JUMPI PUSH2 0x944 PUSH2 0x6BC JUMP JUMPDEST JUMPDEST PUSH0 DUP3 ADD CALLDATALOAD PUSH8 0xFFFFFFFFFFFFFFFF DUP2 GT ISZERO PUSH2 0x962 JUMPI PUSH2 0x961 PUSH2 0x6C0 JUMP JUMPDEST JUMPDEST PUSH2 0x96E DUP5 DUP3 DUP6 ADD PUSH2 0x903 JUMP JUMPDEST SWAP2 POP POP SWAP3 SWAP2 POP POP JUMP JUMPDEST PUSH32 0x4E6F742065786973747300000000000000000000000000000000000000000000 PUSH0 DUP3 ADD MSTORE POP JUMP JUMPDEST PUSH0 PUSH2 0x9AB PUSH1 0xA DUP4 PUSH2 0x723 JUMP JUMPDEST SWAP2 POP PUSH2 0x9B6 DUP3 PUSH2 0x977 JUMP JUMPDEST PUSH1 0x20 DUP3 ADD SWAP1 POP SWAP2 SWAP1 POP JUMP JUMPDEST PUSH0 PUSH1 0x20 DUP3 ADD SWAP1 POP DUP2 DUP2 SUB PUSH0 DUP4 ADD MSTORE PUSH2 0x9D8 DUP2 PUSH2 0x99F JUMP JUMPDEST SWAP1 POP SWAP2 SWAP1 POP JUMP JUMPDEST PUSH32 0x4E487B7100000000000000000000000000000000000000000000000000000000 PUSH0 MSTORE PUSH1 0x32 PUSH1 0x4 MSTORE PUSH1 0x24 PUSH0 REVERT JUMPDEST PUSH32 0x4E487B7100000000000000000000000000000000000000000000000000000000 PUSH0 MSTORE PUSH1 0x22 PUSH1 0x4 MSTORE PUSH1 0x24 PUSH0 REVERT JUMPDEST PUSH0 PUSH1 0x2 DUP3 DIV SWAP1 POP PUSH1 0x1 DUP3 AND DUP1 PUSH2 0xA50 JUMPI PUSH1 0x7F DUP3 AND SWAP2 POP JUMPDEST PUSH1 0x20 DUP3 LT DUP2 SUB PUSH2 0xA63 JUMPI PUSH2 0xA62 PUSH2 0xA0C JUMP JUMPDEST JUMPDEST POP SWAP2 SWAP1 POP JUMP JUMPDEST PUSH32 0x496E737566666963656E742062616C616E636500000000000000000000000000 PUSH0 DUP3 ADD MSTORE POP JUMP JUMPDEST PUSH0 PUSH2 0xA9D PUSH1 0x13 DUP4 PUSH2 0x723 JUMP JUMPDEST SWAP2 POP PUSH2 0xAA8 DUP3 PUSH2 0xA69 JUMP JUMPDEST PUSH1 0x20 DUP3 ADD SWAP1 POP SWAP2 SWAP1 POP JUMP JUMPDEST PUSH0 PUSH1 0x20 DUP3 ADD SWAP1 POP DUP2 DUP2 SUB PUSH0 DUP4 ADD MSTORE PUSH2 0xACA DUP2 PUSH2 0xA91 JUMP JUMPDEST SWAP1 POP SWAP2 SWAP1 POP JUMP JUMPDEST PUSH32 0x4E487B7100000000000000000000000000000000000000000000000000000000 PUSH0 MSTORE PUSH1 0x11 PUSH1 0x4 MSTORE PUSH1 0x24 PUSH0 REVERT JUMPDEST PUSH0 PUSH2 0xB08 DUP3 PUSH2 0x682 JUMP JUMPDEST SWAP2 POP PUSH2 0xB13 DUP4 PUSH2 0x682 JUMP JUMPDEST SWAP3 POP DUP3 DUP3 SUB SWAP1 POP DUP2 DUP2 GT ISZERO PUSH2 0xB2B JUMPI PUSH2 0xB2A PUSH2 0xAD1 JUMP JUMPDEST JUMPDEST SWAP3 SWAP2 POP POP JUMP JUMPDEST PUSH0 DUP2 SWAP1 POP SWAP3 SWAP2 POP POP JUMP JUMPDEST POP JUMP JUMPDEST PUSH0 PUSH2 0xB49 PUSH0 DUP4 PUSH2 0xB31 JUMP JUMPDEST SWAP2 POP PUSH2 0xB54 DUP3 PUSH2 0xB3B JUMP JUMPDEST PUSH0 DUP3 ADD SWAP1 POP SWAP2 SWAP1 POP JUMP JUMPDEST PUSH0 PUSH2 0xB68 DUP3 PUSH2 0xB3E JUMP JUMPDEST SWAP2 POP DUP2 SWAP1 POP SWAP2 SWAP1 POP JUMP JUMPDEST PUSH32 0x4572726F7220656E206C61207472616E73616363696F6E000000000000000000 PUSH0 DUP3 ADD MSTORE POP JUMP JUMPDEST PUSH0 PUSH2 0xBA6 PUSH1 0x17 DUP4 PUSH2 0x723 JUMP JUMPDEST SWAP2 POP PUSH2 0xBB1 DUP3 PUSH2 0xB72 JUMP JUMPDEST PUSH1 0x20 DUP3 ADD SWAP1 POP SWAP2 SWAP1 POP JUMP JUMPDEST PUSH0 PUSH1 0x20 DUP3 ADD SWAP1 POP DUP2 DUP2 SUB PUSH0 DUP4 ADD MSTORE PUSH2 0xBD3 DUP2 PUSH2 0xB9A JUMP JUMPDEST SWAP1 POP SWAP2 SWAP1 POP JUMP JUMPDEST PUSH32 0x416C726561647920657869747300000000000000000000000000000000000000 PUSH0 DUP3 ADD MSTORE POP JUMP JUMPDEST PUSH0 PUSH2 0xC0E PUSH1 0xD DUP4 PUSH2 0x723 JUMP JUMPDEST SWAP2 POP PUSH2 0xC19 DUP3 PUSH2 0xBDA JUMP JUMPDEST PUSH1 0x20 DUP3 ADD SWAP1 POP SWAP2 SWAP1 POP JUMP JUMPDEST PUSH0 PUSH1 0x20 DUP3 ADD SWAP1 POP DUP2 DUP2 SUB PUSH0 DUP4 ADD MSTORE PUSH2 0xC3B DUP2 PUSH2 0xC02 JUMP JUMPDEST SWAP1 POP SWAP2 SWAP1 POP JUMP JUMPDEST PUSH32 0x656D707479206E616D6500000000000000000000000000000000000000000000 PUSH0 DUP3 ADD MSTORE POP JUMP JUMPDEST PUSH0 PUSH2 0xC76 PUSH1 0xA DUP4 PUSH2 0x723 JUMP JUMPDEST SWAP2 POP PUSH2 0xC81 DUP3 PUSH2 0xC42 JUMP JUMPDEST PUSH1 0x20 DUP3 ADD SWAP1 POP SWAP2 SWAP1 POP JUMP JUMPDEST PUSH0 PUSH1 0x20 DUP3 ADD SWAP1 POP DUP2 DUP2 SUB PUSH0 DUP4 ADD MSTORE PUSH2 0xCA3 DUP2 PUSH2 0xC6A JUMP JUMPDEST SWAP1 POP SWAP2 SWAP1 POP JUMP JUMPDEST PUSH0 DUP2 SWAP1 POP DUP2 PUSH0 MSTORE PUSH1 0x20 PUSH0 KECCAK256 SWAP1 POP SWAP2 SWAP1 POP JUMP JUMPDEST PUSH0 PUSH1 0x20 PUSH1 0x1F DUP4 ADD DIV SWAP1 POP SWAP2 SWAP1 POP JUMP JUMPDEST PUSH0 DUP3 DUP3 SHL SWAP1 POP SWAP3 SWAP2 POP POP JUMP JUMPDEST PUSH0 PUSH1 0x8 DUP4 MUL PUSH2 0xD06 PUSH32 0xFFFFFFFFFFFFFFFFFFFFFFFFFFFFFFFFFFFFFFFFFFFFFFFFFFFFFFFFFFFFFFFF DUP3 PUSH2 0xCCB JUMP JUMPDEST PUSH2 0xD10 DUP7 DUP4 PUSH2 0xCCB JUMP JUMPDEST SWAP6 POP DUP1 NOT DUP5 AND SWAP4 POP DUP1 DUP7 AND DUP5 OR SWAP3 POP POP POP SWAP4 SWAP3 POP POP POP JUMP JUMPDEST PUSH0 DUP2 SWAP1 POP SWAP2 SWAP1 POP JUMP JUMPDEST PUSH0 PUSH2 0xD4B PUSH2 0xD46 PUSH2 0xD41 DUP5 PUSH2 0x682 JUMP JUMPDEST PUSH2 0xD28 JUMP JUMPDEST PUSH2 0x682 JUMP JUMPDEST SWAP1 POP SWAP2 SWAP1 POP JUMP JUMPDEST PUSH0 DUP2 SWAP1 POP SWAP2 SWAP1 POP JUMP JUMPDEST PUSH2 0xD64 DUP4 PUSH2 0xD31 JUMP JUMPDEST PUSH2 0xD78 PUSH2 0xD70 DUP3 PUSH2 0xD52 JUMP JUMPDEST DUP5 DUP5 SLOAD PUSH2 0xCD7 JUMP JUMPDEST DUP3 SSTORE POP POP POP POP JUMP JUMPDEST PUSH0 PUSH0 SWAP1 POP SWAP1 JUMP JUMPDEST PUSH2 0xD8F PUSH2 0xD80 JUMP JUMPDEST PUSH2 0xD9A DUP2 DUP5 DUP5 PUSH2 0xD5B JUMP JUMPDEST POP POP POP JUMP JUMPDEST JUMPDEST DUP2 DUP2 LT ISZERO PUSH2 0xDBD JUMPI PUSH2 0xDB2 PUSH0 DUP3 PUSH2 0xD87 JUMP JUMPDEST PUSH1 0x1 DUP2 ADD SWAP1 POP PUSH2 0xDA0 JUMP JUMPDEST POP POP JUMP JUMPDEST PUSH1 0x1F DUP3 GT ISZERO PUSH2 0xE02 JUMPI PUSH2 0xDD3 DUP2 PUSH2 0xCAA JUMP JUMPDEST PUSH2 0xDDC DUP5 PUSH2 0xCBC JUMP JUMPDEST DUP2 ADD PUSH1 0x20 DUP6 LT ISZERO PUSH2 0xDEB JUMPI DUP2 SWAP1 POP JUMPDEST PUSH2 0xDFF PUSH2 0xDF7 DUP6 PUSH2 0xCBC JUMP JUMPDEST DUP4 ADD DUP3 PUSH2 0xD9F JUMP JUMPDEST POP POP JUMPDEST POP POP POP JUMP JUMPDEST PUSH0 DUP3 DUP3 SHR SWAP1 POP SWAP3 SWAP2 POP POP JUMP JUMPDEST PUSH0 PUSH2 0xE22 PUSH0 NOT DUP5 PUSH1 0x8 MUL PUSH2 0xE07 JUMP JUMPDEST NOT DUP1 DUP4 AND SWAP2 POP POP SWAP3 SWAP2 POP POP JUMP JUMPDEST PUSH0 PUSH2 0xE3A DUP4 DUP4 PUSH2 0xE13 JUMP JUMPDEST SWAP2 POP DUP3 PUSH1 0x2 MUL DUP3 OR SWAP1 POP SWAP3 SWAP2 POP POP JUMP JUMPDEST PUSH2 0xE53 DUP3 PUSH2 0x719 JUMP JUMPDEST PUSH8 0xFFFFFFFFFFFFFFFF DUP2 GT ISZERO PUSH2 0xE6C JUMPI PUSH2 0xE6B PUSH2 0x80C JUMP JUMPDEST JUMPDEST PUSH2 0xE76 DUP3 SLOAD PUSH2 0xA39 JUMP JUMPDEST PUSH2 0xE81 DUP3 DUP3 DUP6 PUSH2 0xDC1 JUMP JUMPDEST PUSH0 PUSH1 0x20 SWAP1 POP PUSH1 0x1F DUP4 GT PUSH1 0x1 DUP2 EQ PUSH2 0xEB2 JUMPI PUSH0 DUP5 ISZERO PUSH2 0xEA0 JUMPI DUP3 DUP8 ADD MLOAD SWAP1 POP JUMPDEST PUSH2 0xEAA DUP6 DUP3 PUSH2 0xE2F JUMP JUMPDEST DUP7 SSTORE POP PUSH2 0xF11 JUMP JUMPDEST PUSH1 0x1F NOT DUP5 AND PUSH2 0xEC0 DUP7 PUSH2 0xCAA JUMP JUMPDEST PUSH0 JUMPDEST DUP3 DUP2 LT ISZERO PUSH2 0xEE7 JUMPI DUP5 DUP10 ADD MLOAD DUP3 SSTORE PUSH1 0x1 DUP3 ADD SWAP2 POP PUSH1 0x20 DUP6 ADD SWAP5 POP PUSH1 0x20 DUP2 ADD SWAP1 POP PUSH2 0xEC2 JUMP JUMPDEST DUP7 DUP4 LT ISZERO PUSH2 0xF04 JUMPI DUP5 DUP10 ADD MLOAD PUSH2 0xF00 PUSH1 0x1F DUP10 AND DUP3 PUSH2 0xE13 JUMP JUMPDEST DUP4 SSTORE POP JUMPDEST PUSH1 0x1 PUSH1 0x2 DUP9 MUL ADD DUP9 SSTORE POP POP POP JUMPDEST POP POP POP POP POP POP JUMP JUMPDEST PUSH0 PUSH2 0xF23 DUP3 PUSH2 0x682 JUMP JUMPDEST SWAP2 POP PUSH2 0xF2E DUP4 PUSH2 0x682 JUMP JUMPDEST SWAP3 POP DUP3 DUP3 ADD SWAP1 POP DUP1 DUP3 GT ISZERO PUSH2 0xF46 JUMPI PUSH2 0xF45 PUSH2 0xAD1 JUMP JUMPDEST JUMPDEST SWAP3 SWAP2 POP POP JUMP INVALID LOG2 PUSH5 0x6970667358 0x22 SLT KECCAK256 BLOCKHASH 0xDD PUSH22 0x396FEE0925E1A21EEE24DEE09AB03DEC0E9C42C94E68 0xE SGT DUP10 ISZERO LOG0 SWAP13 0xDB PUSH5 0x736F6C6343 STOP ADDMOD 0x1F STOP CALLER "
				},
				"gasEstimates": {
					"creation": {
						"codeDepositCost": "794000",
						"executionCost": "829",
						"totalCost": "794829"
					},
					"external": {
						"Withdraw(uint256)": "infinite",
						"addClient(string)": "infinite",
						"array(uint256)": "infinite",
						"deposit()": "infinite",
						"getBalance()": "infinite"
					},
					"internal": {
						"clientIndex(address)": "infinite"
					}
				},
				"methodIdentifiers": {
					"Withdraw(uint256)": "5b6b431d",
					"addClient(string)": "79b7f303",
					"array(uint256)": "38d94193",
					"deposit()": "d0e30db0",
					"getBalance()": "12065fe0"
				}
			},
			"storageLayout": {
				"storage": [
					{
						"astId": 12,
						"contract": "piggyArray.sol:PiggyArray",
						"label": "array",
						"offset": 0,
						"slot": "0",
						"type": "t_array(t_struct(Cliente)8_storage)dyn_storage"
					}
				],
				"types": {
					"t_address": {
						"encoding": "inplace",
						"label": "address",
						"numberOfBytes": "20"
					},
					"t_array(t_struct(Cliente)8_storage)dyn_storage": {
						"base": "t_struct(Cliente)8_storage",
						"encoding": "dynamic_array",
						"label": "struct PiggyArray.Cliente[]",
						"numberOfBytes": "32"
					},
					"t_string_storage": {
						"encoding": "bytes",
						"label": "string",
						"numberOfBytes": "32"
					},
					"t_struct(Cliente)8_storage": {
						"encoding": "inplace",
						"label": "struct PiggyArray.Cliente",
						"members": [
							{
								"astId": 3,
								"contract": "piggyArray.sol:PiggyArray",
								"label": "name",
								"offset": 0,
								"slot": "0",
								"type": "t_string_storage"
							},
							{
								"astId": 5,
								"contract": "piggyArray.sol:PiggyArray",
								"label": "addr",
								"offset": 0,
								"slot": "1",
								"type": "t_address"
							},
							{
								"astId": 7,
								"contract": "piggyArray.sol:PiggyArray",
								"label": "cantidad",
								"offset": 0,
								"slot": "2",
								"type": "t_uint256"
							}
						],
						"numberOfBytes": "96"
					},
					"t_uint256": {
						"encoding": "inplace",
						"label": "uint256",
						"numberOfBytes": "32"
					}
				}
			},
			"userdoc": {
				"kind": "user",
				"methods": {},
				"version": 1
			}
		}
	}
}