{
	"practica_1/piggyMapping.sol": {
		"piggyMapping": {
			"abi": [
				{
					"inputs": [
						{
							"internalType": "string",
							"name": "name",
							"type": "string"
						}
					],
					"name": "addClient",
					"outputs": [],
					"stateMutability": "payable",
					"type": "function"
				},
				{
					"inputs": [],
					"name": "deposit",
					"outputs": [],
					"stateMutability": "payable",
					"type": "function"
				},
				{
					"inputs": [],
					"name": "getBalance",
					"outputs": [
						{
							"internalType": "uint256",
							"name": "",
							"type": "uint256"
						}
					],
					"stateMutability": "view",
					"type": "function"
				},
				{
					"inputs": [
						{
							"internalType": "uint256",
							"name": "amountInWei",
							"type": "uint256"
						}
					],
					"name": "withdraw",
					"outputs": [],
					"stateMutability": "nonpayable",
					"type": "function"
				}
			],
			"devdoc": {
				"kind": "dev",
				"methods": {},
				"version": 1
			},
			"evm": {
				"assembly": "    /* \"practica_1/piggyMapping.sol\":57:1265  contract piggyMapping {... */\n  mstore(0x40, 0x80)\n  callvalue\n  dup1\n  iszero\n  tag_1\n  jumpi\n  revert(0x00, 0x00)\ntag_1:\n  pop\n  dataSize(sub_0)\n  dup1\n  dataOffset(sub_0)\n  0x00\n  codecopy\n  0x00\n  return\nstop\n\nsub_0: assembly {\n        /* \"practica_1/piggyMapping.sol\":57:1265  contract piggyMapping {... */\n      mstore(0x40, 0x80)\n      jumpi(tag_1, lt(calldatasize, 0x04))\n      shr(0xe0, calldataload(0x00))\n      dup1\n      0x12065fe0\n      eq\n      tag_2\n      jumpi\n      dup1\n      0x2e1a7d4d\n      eq\n      tag_3\n      jumpi\n      dup1\n      0x79b7f303\n      eq\n      tag_4\n      jumpi\n      dup1\n      0xd0e30db0\n      eq\n      tag_5\n      jumpi\n    tag_1:\n      revert(0x00, 0x00)\n        /* \"practica_1/piggyMapping.sol\":683:857  function getBalance() external view returns (uint) {... */\n    tag_2:\n      callvalue\n      dup1\n      iszero\n      tag_6\n      jumpi\n      revert(0x00, 0x00)\n    tag_6:\n      pop\n      tag_7\n      tag_8\n      jump\t// in\n    tag_7:\n      mload(0x40)\n      tag_9\n      swap2\n      swap1\n      tag_10\n      jump\t// in\n    tag_9:\n      mload(0x40)\n      dup1\n      swap2\n      sub\n      swap1\n      return\n        /* \"practica_1/piggyMapping.sol\":863:1263  function withdraw(uint amountInWei) external {... */\n    tag_3:\n      callvalue\n      dup1\n      iszero\n      tag_11\n      jumpi\n      revert(0x00, 0x00)\n    tag_11:\n      pop\n      tag_12\n      0x04\n      dup1\n      calldatasize\n      sub\n      dup2\n      add\n      swap1\n      tag_13\n      swap2\n      swap1\n      tag_14\n      jump\t// in\n    tag_13:\n      tag_15\n      jump\t// in\n    tag_12:\n      stop\n        /* \"practica_1/piggyMapping.sol\":201:504  function addClient(string memory name) external payable {... */\n    tag_4:\n      tag_16\n      0x04\n      dup1\n      calldatasize\n      sub\n      dup2\n      add\n      swap1\n      tag_17\n      swap2\n      swap1\n      tag_18\n      jump\t// in\n    tag_17:\n      tag_19\n      jump\t// in\n    tag_16:\n      stop\n        /* \"practica_1/piggyMapping.sol\":513:677  function deposit() external payable {... */\n    tag_5:\n      tag_20\n      tag_21\n      jump\t// in\n    tag_20:\n      stop\n        /* \"practica_1/piggyMapping.sol\":683:857  function getBalance() external view returns (uint) {... */\n    tag_8:\n        /* \"practica_1/piggyMapping.sol\":728:732  uint */\n      0x00\n        /* \"practica_1/piggyMapping.sol\":791:792  0 */\n      0x00\n        /* \"practica_1/piggyMapping.sol\":758:762  mapa */\n      0x00\n        /* \"practica_1/piggyMapping.sol\":758:774  mapa[msg.sender] */\n      0x00\n        /* \"practica_1/piggyMapping.sol\":763:773  msg.sender */\n      caller\n        /* \"practica_1/piggyMapping.sol\":758:774  mapa[msg.sender] */\n      0xffffffffffffffffffffffffffffffffffffffff\n      and\n      0xffffffffffffffffffffffffffffffffffffffff\n      and\n      dup2\n      mstore\n      0x20\n      add\n      swap1\n      dup2\n      mstore\n      0x20\n      add\n      0x00\n      keccak256\n        /* \"practica_1/piggyMapping.sol\":758:779  mapa[msg.sender].name */\n      0x00\n      add\n        /* \"practica_1/piggyMapping.sol\":752:787  bytes(mapa[msg.sender].name).length */\n      dup1\n      sload\n      tag_23\n      swap1\n      tag_24\n      jump\t// in\n    tag_23:\n      swap1\n      pop\n        /* \"practica_1/piggyMapping.sol\":752:792  bytes(mapa[msg.sender].name).length != 0 */\n      sub\n        /* \"practica_1/piggyMapping.sol\":744:807  require(bytes(mapa[msg.sender].name).length != 0, \"Not exists\") */\n      tag_25\n      jumpi\n      mload(0x40)\n      0x08c379a000000000000000000000000000000000000000000000000000000000\n      dup2\n      mstore\n      0x04\n      add\n      tag_26\n      swap1\n      tag_27\n      jump\t// in\n    tag_26:\n      mload(0x40)\n      dup1\n      swap2\n      sub\n      swap1\n      revert\n    tag_25:\n        /* \"practica_1/piggyMapping.sol\":825:829  mapa */\n      0x00\n        /* \"practica_1/piggyMapping.sol\":825:841  mapa[msg.sender] */\n      0x00\n        /* \"practica_1/piggyMapping.sol\":830:840  msg.sender */\n      caller\n        /* \"practica_1/piggyMapping.sol\":825:841  mapa[msg.sender] */\n      0xffffffffffffffffffffffffffffffffffffffff\n      and\n      0xffffffffffffffffffffffffffffffffffffffff\n      and\n      dup2\n      mstore\n      0x20\n      add\n      swap1\n      dup2\n      mstore\n      0x20\n      add\n      0x00\n      keccak256\n        /* \"practica_1/piggyMapping.sol\":825:850  mapa[msg.sender].cantidad */\n      0x01\n      add\n      sload\n        /* \"practica_1/piggyMapping.sol\":818:850  return mapa[msg.sender].cantidad */\n      swap1\n      pop\n        /* \"practica_1/piggyMapping.sol\":683:857  function getBalance() external view returns (uint) {... */\n      swap1\n      jump\t// out\n        /* \"practica_1/piggyMapping.sol\":863:1263  function withdraw(uint amountInWei) external {... */\n    tag_15:\n        /* \"practica_1/piggyMapping.sol\":918:935  Cliente storage c */\n      0x00\n        /* \"practica_1/piggyMapping.sol\":938:942  mapa */\n      0x00\n        /* \"practica_1/piggyMapping.sol\":938:954  mapa[msg.sender] */\n      0x00\n        /* \"practica_1/piggyMapping.sol\":943:953  msg.sender */\n      caller\n        /* \"practica_1/piggyMapping.sol\":938:954  mapa[msg.sender] */\n      0xffffffffffffffffffffffffffffffffffffffff\n      and\n      0xffffffffffffffffffffffffffffffffffffffff\n      and\n      dup2\n      mstore\n      0x20\n      add\n      swap1\n      dup2\n      mstore\n      0x20\n      add\n      0x00\n      keccak256\n        /* \"practica_1/piggyMapping.sol\":918:954  Cliente storage c = mapa[msg.sender] */\n      swap1\n      pop\n        /* \"practica_1/piggyMapping.sol\":1005:1006  0 */\n      0x00\n        /* \"practica_1/piggyMapping.sol\":987:988  c */\n      dup2\n        /* \"practica_1/piggyMapping.sol\":987:993  c.name */\n      0x00\n      add\n        /* \"practica_1/piggyMapping.sol\":981:1001  bytes(c.name).length */\n      dup1\n      sload\n      tag_29\n      swap1\n      tag_24\n      jump\t// in\n    tag_29:\n      swap1\n      pop\n        /* \"practica_1/piggyMapping.sol\":981:1006  bytes(c.name).length != 0 */\n      sub\n        /* \"practica_1/piggyMapping.sol\":973:1021  require(bytes(c.name).length != 0, \"Not exists\") */\n      tag_30\n      jumpi\n      mload(0x40)\n      0x08c379a000000000000000000000000000000000000000000000000000000000\n      dup2\n      mstore\n      0x04\n      add\n      tag_31\n      swap1\n      tag_27\n      jump\t// in\n    tag_31:\n      mload(0x40)\n      dup1\n      swap2\n      sub\n      swap1\n      revert\n    tag_30:\n        /* \"practica_1/piggyMapping.sol\":1055:1056  c */\n      dup1\n        /* \"practica_1/piggyMapping.sol\":1055:1065  c.cantidad */\n      0x01\n      add\n      sload\n        /* \"practica_1/piggyMapping.sol\":1040:1051  amountInWei */\n      dup3\n        /* \"practica_1/piggyMapping.sol\":1040:1065  amountInWei <= c.cantidad */\n      gt\n      iszero\n        /* \"practica_1/piggyMapping.sol\":1032:1089  require(amountInWei <= c.cantidad, \"Insufficent balance\") */\n      tag_32\n      jumpi\n      mload(0x40)\n      0x08c379a000000000000000000000000000000000000000000000000000000000\n      dup2\n      mstore\n      0x04\n      add\n      tag_33\n      swap1\n      tag_34\n      jump\t// in\n    tag_33:\n      mload(0x40)\n      dup1\n      swap2\n      sub\n      swap1\n      revert\n    tag_32:\n        /* \"practica_1/piggyMapping.sol\":1114:1125  amountInWei */\n      dup2\n        /* \"practica_1/piggyMapping.sol\":1100:1101  c */\n      dup2\n        /* \"practica_1/piggyMapping.sol\":1100:1110  c.cantidad */\n      0x01\n      add\n      0x00\n        /* \"practica_1/piggyMapping.sol\":1100:1125  c.cantidad -= amountInWei */\n      dup3\n      dup3\n      sload\n      tag_35\n      swap2\n      swap1\n      tag_36\n      jump\t// in\n    tag_35:\n      swap3\n      pop\n      pop\n      dup2\n      swap1\n      sstore\n      pop\n        /* \"practica_1/piggyMapping.sol\":1137:1149  bool success */\n      0x00\n        /* \"practica_1/piggyMapping.sol\":1163:1173  msg.sender */\n      caller\n        /* \"practica_1/piggyMapping.sol\":1155:1179  payable(msg.sender).call */\n      0xffffffffffffffffffffffffffffffffffffffff\n      and\n        /* \"practica_1/piggyMapping.sol\":1187:1198  amountInWei */\n      dup4\n        /* \"practica_1/piggyMapping.sol\":1155:1203  payable(msg.sender).call{value: amountInWei}(\"\") */\n      mload(0x40)\n      tag_37\n      swap1\n      tag_38\n      jump\t// in\n    tag_37:\n      0x00\n      mload(0x40)\n      dup1\n      dup4\n      sub\n      dup2\n      dup6\n      dup8\n      gas\n      call\n      swap3\n      pop\n      pop\n      pop\n      returndatasize\n      dup1\n      0x00\n      dup2\n      eq\n      tag_41\n      jumpi\n      mload(0x40)\n      swap2\n      pop\n      and(add(returndatasize, 0x3f), not(0x1f))\n      dup3\n      add\n      0x40\n      mstore\n      returndatasize\n      dup3\n      mstore\n      returndatasize\n      0x00\n      0x20\n      dup5\n      add\n      returndatacopy\n      jump(tag_40)\n    tag_41:\n      0x60\n      swap2\n      pop\n    tag_40:\n      pop\n        /* \"practica_1/piggyMapping.sol\":1136:1203  (bool success, ) = payable(msg.sender).call{value: amountInWei}(\"\") */\n      pop\n      swap1\n      pop\n        /* \"practica_1/piggyMapping.sol\":1221:1228  success */\n      dup1\n        /* \"practica_1/piggyMapping.sol\":1213:1256  require(success, \"Error en la transaccion\") */\n      tag_42\n      jumpi\n      mload(0x40)\n      0x08c379a000000000000000000000000000000000000000000000000000000000\n      dup2\n      mstore\n      0x04\n      add\n      tag_43\n      swap1\n      tag_44\n      jump\t// in\n    tag_43:\n      mload(0x40)\n      dup1\n      swap2\n      sub\n      swap1\n      revert\n    tag_42:\n        /* \"practica_1/piggyMapping.sol\":908:1263  {... */\n      pop\n      pop\n        /* \"practica_1/piggyMapping.sol\":863:1263  function withdraw(uint amountInWei) external {... */\n      pop\n      jump\t// out\n        /* \"practica_1/piggyMapping.sol\":201:504  function addClient(string memory name) external payable {... */\n    tag_19:\n        /* \"practica_1/piggyMapping.sol\":314:315  0 */\n      0x00\n        /* \"practica_1/piggyMapping.sol\":281:285  mapa */\n      0x00\n        /* \"practica_1/piggyMapping.sol\":281:297  mapa[msg.sender] */\n      0x00\n        /* \"practica_1/piggyMapping.sol\":286:296  msg.sender */\n      caller\n        /* \"practica_1/piggyMapping.sol\":281:297  mapa[msg.sender] */\n      0xffffffffffffffffffffffffffffffffffffffff\n      and\n      0xffffffffffffffffffffffffffffffffffffffff\n      and\n      dup2\n      mstore\n      0x20\n      add\n      swap1\n      dup2\n      mstore\n      0x20\n      add\n      0x00\n      keccak256\n        /* \"practica_1/piggyMapping.sol\":281:302  mapa[msg.sender].name */\n      0x00\n      add\n        /* \"practica_1/piggyMapping.sol\":275:310  bytes(mapa[msg.sender].name).length */\n      dup1\n      sload\n      tag_46\n      swap1\n      tag_24\n      jump\t// in\n    tag_46:\n      swap1\n      pop\n        /* \"practica_1/piggyMapping.sol\":275:315  bytes(mapa[msg.sender].name).length == 0 */\n      eq\n        /* \"practica_1/piggyMapping.sol\":267:334  require(bytes(mapa[msg.sender].name).length == 0, \"Already exists\") */\n      tag_47\n      jumpi\n      mload(0x40)\n      0x08c379a000000000000000000000000000000000000000000000000000000000\n      dup2\n      mstore\n      0x04\n      add\n      tag_48\n      swap1\n      tag_49\n      jump\t// in\n    tag_48:\n      mload(0x40)\n      dup1\n      swap2\n      sub\n      swap1\n      revert\n    tag_47:\n        /* \"practica_1/piggyMapping.sol\":375:376  0 */\n      0x00\n        /* \"practica_1/piggyMapping.sol\":359:363  name */\n      dup2\n        /* \"practica_1/piggyMapping.sol\":353:371  bytes(name).length */\n      mload\n        /* \"practica_1/piggyMapping.sol\":353:376  bytes(name).length != 0 */\n      sub\n        /* \"practica_1/piggyMapping.sol\":345:391  require(bytes(name).length != 0, \"Empty name\") */\n      tag_50\n      jumpi\n      mload(0x40)\n      0x08c379a000000000000000000000000000000000000000000000000000000000\n      dup2\n      mstore\n      0x04\n      add\n      tag_51\n      swap1\n      tag_52\n      jump\t// in\n    tag_51:\n      mload(0x40)\n      dup1\n      swap2\n      sub\n      swap1\n      revert\n    tag_50:\n        /* \"practica_1/piggyMapping.sol\":421:497  Cliente({... */\n      mload(0x40)\n      dup1\n      0x40\n      add\n      0x40\n      mstore\n      dup1\n        /* \"practica_1/piggyMapping.sol\":449:453  name */\n      dup3\n        /* \"practica_1/piggyMapping.sol\":421:497  Cliente({... */\n      dup2\n      mstore\n      0x20\n      add\n        /* \"practica_1/piggyMapping.sol\":477:486  msg.value */\n      callvalue\n        /* \"practica_1/piggyMapping.sol\":421:497  Cliente({... */\n      dup2\n      mstore\n      pop\n        /* \"practica_1/piggyMapping.sol\":402:406  mapa */\n      0x00\n        /* \"practica_1/piggyMapping.sol\":402:418  mapa[msg.sender] */\n      0x00\n        /* \"practica_1/piggyMapping.sol\":407:417  msg.sender */\n      caller\n        /* \"practica_1/piggyMapping.sol\":402:418  mapa[msg.sender] */\n      0xffffffffffffffffffffffffffffffffffffffff\n      and\n      0xffffffffffffffffffffffffffffffffffffffff\n      and\n      dup2\n      mstore\n      0x20\n      add\n      swap1\n      dup2\n      mstore\n      0x20\n      add\n      0x00\n      keccak256\n        /* \"practica_1/piggyMapping.sol\":402:497  mapa[msg.sender] = Cliente({... */\n      0x00\n      dup3\n      add\n      mload\n      dup2\n      0x00\n      add\n      swap1\n      dup2\n      tag_53\n      swap2\n      swap1\n      tag_54\n      jump\t// in\n    tag_53:\n      pop\n      0x20\n      dup3\n      add\n      mload\n      dup2\n      0x01\n      add\n      sstore\n      swap1\n      pop\n      pop\n        /* \"practica_1/piggyMapping.sol\":201:504  function addClient(string memory name) external payable {... */\n      pop\n      jump\t// out\n        /* \"practica_1/piggyMapping.sol\":513:677  function deposit() external payable {... */\n    tag_21:\n        /* \"practica_1/piggyMapping.sol\":606:607  0 */\n      0x00\n        /* \"practica_1/piggyMapping.sol\":573:577  mapa */\n      0x00\n        /* \"practica_1/piggyMapping.sol\":573:589  mapa[msg.sender] */\n      0x00\n        /* \"practica_1/piggyMapping.sol\":578:588  msg.sender */\n      caller\n        /* \"practica_1/piggyMapping.sol\":573:589  mapa[msg.sender] */\n      0xffffffffffffffffffffffffffffffffffffffff\n      and\n      0xffffffffffffffffffffffffffffffffffffffff\n      and\n      dup2\n      mstore\n      0x20\n      add\n      swap1\n      dup2\n      mstore\n      0x20\n      add\n      0x00\n      keccak256\n        /* \"practica_1/piggyMapping.sol\":573:594  mapa[msg.sender].name */\n      0x00\n      add\n        /* \"practica_1/piggyMapping.sol\":567:602  bytes(mapa[msg.sender].name).length */\n      dup1\n      sload\n      tag_56\n      swap1\n      tag_24\n      jump\t// in\n    tag_56:\n      swap1\n      pop\n        /* \"practica_1/piggyMapping.sol\":567:607  bytes(mapa[msg.sender].name).length != 0 */\n      sub\n        /* \"practica_1/piggyMapping.sol\":559:622  require(bytes(mapa[msg.sender].name).length != 0, \"Not exists\") */\n      tag_57\n      jumpi\n      mload(0x40)\n      0x08c379a000000000000000000000000000000000000000000000000000000000\n      dup2\n      mstore\n      0x04\n      add\n      tag_58\n      swap1\n      tag_27\n      jump\t// in\n    tag_58:\n      mload(0x40)\n      dup1\n      swap2\n      sub\n      swap1\n      revert\n    tag_57:\n        /* \"practica_1/piggyMapping.sol\":661:670  msg.value */\n      callvalue\n        /* \"practica_1/piggyMapping.sol\":632:636  mapa */\n      0x00\n        /* \"practica_1/piggyMapping.sol\":632:648  mapa[msg.sender] */\n      0x00\n        /* \"practica_1/piggyMapping.sol\":637:647  msg.sender */\n      caller\n        /* \"practica_1/piggyMapping.sol\":632:648  mapa[msg.sender] */\n      0xffffffffffffffffffffffffffffffffffffffff\n      and\n      0xffffffffffffffffffffffffffffffffffffffff\n      and\n      dup2\n      mstore\n      0x20\n      add\n      swap1\n      dup2\n      mstore\n      0x20\n      add\n      0x00\n      keccak256\n        /* \"practica_1/piggyMapping.sol\":632:657  mapa[msg.sender].cantidad */\n      0x01\n      add\n      0x00\n        /* \"practica_1/piggyMapping.sol\":632:670  mapa[msg.sender].cantidad += msg.value */\n      dup3\n      dup3\n      sload\n      tag_59\n      swap2\n      swap1\n      tag_60\n      jump\t// in\n    tag_59:\n      swap3\n      pop\n      pop\n      dup2\n      swap1\n      sstore\n      pop\n        /* \"practica_1/piggyMapping.sol\":513:677  function deposit() external payable {... */\n      jump\t// out\n        /* \"#utility.yul\":7:84   */\n    tag_61:\n        /* \"#utility.yul\":44:51   */\n      0x00\n        /* \"#utility.yul\":73:78   */\n      dup2\n        /* \"#utility.yul\":62:78   */\n      swap1\n      pop\n        /* \"#utility.yul\":7:84   */\n      swap2\n      swap1\n      pop\n      jump\t// out\n        /* \"#utility.yul\":90:208   */\n    tag_62:\n        /* \"#utility.yul\":177:201   */\n      tag_113\n        /* \"#utility.yul\":195:200   */\n      dup2\n        /* \"#utility.yul\":177:201   */\n      tag_61\n      jump\t// in\n    tag_113:\n        /* \"#utility.yul\":172:175   */\n      dup3\n        /* \"#utility.yul\":165:202   */\n      mstore\n        /* \"#utility.yul\":90:208   */\n      pop\n      pop\n      jump\t// out\n        /* \"#utility.yul\":214:436   */\n    tag_10:\n        /* \"#utility.yul\":307:311   */\n      0x00\n        /* \"#utility.yul\":345:347   */\n      0x20\n        /* \"#utility.yul\":334:343   */\n      dup3\n        /* \"#utility.yul\":330:348   */\n      add\n        /* \"#utility.yul\":322:348   */\n      swap1\n      pop\n        /* \"#utility.yul\":358:429   */\n      tag_115\n        /* \"#utility.yul\":426:427   */\n      0x00\n        /* \"#utility.yul\":415:424   */\n      dup4\n        /* \"#utility.yul\":411:428   */\n      add\n        /* \"#utility.yul\":402:408   */\n      dup5\n        /* \"#utility.yul\":358:429   */\n      tag_62\n      jump\t// in\n    tag_115:\n        /* \"#utility.yul\":214:436   */\n      swap3\n      swap2\n      pop\n      pop\n      jump\t// out\n        /* \"#utility.yul\":442:517   */\n    tag_63:\n        /* \"#utility.yul\":475:481   */\n      0x00\n        /* \"#utility.yul\":508:510   */\n      0x40\n        /* \"#utility.yul\":502:511   */\n      mload\n        /* \"#utility.yul\":492:511   */\n      swap1\n      pop\n        /* \"#utility.yul\":442:517   */\n      swap1\n      jump\t// out\n        /* \"#utility.yul\":523:640   */\n    tag_64:\n        /* \"#utility.yul\":632:633   */\n      0x00\n        /* \"#utility.yul\":629:630   */\n      0x00\n        /* \"#utility.yul\":622:634   */\n      revert\n        /* \"#utility.yul\":646:763   */\n    tag_65:\n        /* \"#utility.yul\":755:756   */\n      0x00\n        /* \"#utility.yul\":752:753   */\n      0x00\n        /* \"#utility.yul\":745:757   */\n      revert\n        /* \"#utility.yul\":769:891   */\n    tag_66:\n        /* \"#utility.yul\":842:866   */\n      tag_120\n        /* \"#utility.yul\":860:865   */\n      dup2\n        /* \"#utility.yul\":842:866   */\n      tag_61\n      jump\t// in\n    tag_120:\n        /* \"#utility.yul\":835:840   */\n      dup2\n        /* \"#utility.yul\":832:867   */\n      eq\n        /* \"#utility.yul\":822:885   */\n      tag_121\n      jumpi\n        /* \"#utility.yul\":881:882   */\n      0x00\n        /* \"#utility.yul\":878:879   */\n      0x00\n        /* \"#utility.yul\":871:883   */\n      revert\n        /* \"#utility.yul\":822:885   */\n    tag_121:\n        /* \"#utility.yul\":769:891   */\n      pop\n      jump\t// out\n        /* \"#utility.yul\":897:1036   */\n    tag_67:\n        /* \"#utility.yul\":943:948   */\n      0x00\n        /* \"#utility.yul\":981:987   */\n      dup2\n        /* \"#utility.yul\":968:988   */\n      calldataload\n        /* \"#utility.yul\":959:988   */\n      swap1\n      pop\n        /* \"#utility.yul\":997:1030   */\n      tag_123\n        /* \"#utility.yul\":1024:1029   */\n      dup2\n        /* \"#utility.yul\":997:1030   */\n      tag_66\n      jump\t// in\n    tag_123:\n        /* \"#utility.yul\":897:1036   */\n      swap3\n      swap2\n      pop\n      pop\n      jump\t// out\n        /* \"#utility.yul\":1042:1371   */\n    tag_14:\n        /* \"#utility.yul\":1101:1107   */\n      0x00\n        /* \"#utility.yul\":1150:1152   */\n      0x20\n        /* \"#utility.yul\":1138:1147   */\n      dup3\n        /* \"#utility.yul\":1129:1136   */\n      dup5\n        /* \"#utility.yul\":1125:1148   */\n      sub\n        /* \"#utility.yul\":1121:1153   */\n      slt\n        /* \"#utility.yul\":1118:1237   */\n      iszero\n      tag_125\n      jumpi\n        /* \"#utility.yul\":1156:1235   */\n      tag_126\n      tag_64\n      jump\t// in\n    tag_126:\n        /* \"#utility.yul\":1118:1237   */\n    tag_125:\n        /* \"#utility.yul\":1276:1277   */\n      0x00\n        /* \"#utility.yul\":1301:1354   */\n      tag_127\n        /* \"#utility.yul\":1346:1353   */\n      dup5\n        /* \"#utility.yul\":1337:1343   */\n      dup3\n        /* \"#utility.yul\":1326:1335   */\n      dup6\n        /* \"#utility.yul\":1322:1344   */\n      add\n        /* \"#utility.yul\":1301:1354   */\n      tag_67\n      jump\t// in\n    tag_127:\n        /* \"#utility.yul\":1291:1354   */\n      swap2\n      pop\n        /* \"#utility.yul\":1247:1364   */\n      pop\n        /* \"#utility.yul\":1042:1371   */\n      swap3\n      swap2\n      pop\n      pop\n      jump\t// out\n        /* \"#utility.yul\":1377:1494   */\n    tag_68:\n        /* \"#utility.yul\":1486:1487   */\n      0x00\n        /* \"#utility.yul\":1483:1484   */\n      0x00\n        /* \"#utility.yul\":1476:1488   */\n      revert\n        /* \"#utility.yul\":1500:1617   */\n    tag_69:\n        /* \"#utility.yul\":1609:1610   */\n      0x00\n        /* \"#utility.yul\":1606:1607   */\n      0x00\n        /* \"#utility.yul\":1599:1611   */\n      revert\n        /* \"#utility.yul\":1623:1725   */\n    tag_70:\n        /* \"#utility.yul\":1664:1670   */\n      0x00\n        /* \"#utility.yul\":1715:1717   */\n      0x1f\n        /* \"#utility.yul\":1711:1718   */\n      not\n        /* \"#utility.yul\":1706:1708   */\n      0x1f\n        /* \"#utility.yul\":1699:1704   */\n      dup4\n        /* \"#utility.yul\":1695:1709   */\n      add\n        /* \"#utility.yul\":1691:1719   */\n      and\n        /* \"#utility.yul\":1681:1719   */\n      swap1\n      pop\n        /* \"#utility.yul\":1623:1725   */\n      swap2\n      swap1\n      pop\n      jump\t// out\n        /* \"#utility.yul\":1731:1911   */\n    tag_71:\n        /* \"#utility.yul\":1779:1856   */\n      0x4e487b7100000000000000000000000000000000000000000000000000000000\n        /* \"#utility.yul\":1776:1777   */\n      0x00\n        /* \"#utility.yul\":1769:1857   */\n      mstore\n        /* \"#utility.yul\":1876:1880   */\n      0x41\n        /* \"#utility.yul\":1873:1874   */\n      0x04\n        /* \"#utility.yul\":1866:1881   */\n      mstore\n        /* \"#utility.yul\":1900:1904   */\n      0x24\n        /* \"#utility.yul\":1897:1898   */\n      0x00\n        /* \"#utility.yul\":1890:1905   */\n      revert\n        /* \"#utility.yul\":1917:2198   */\n    tag_72:\n        /* \"#utility.yul\":2000:2027   */\n      tag_133\n        /* \"#utility.yul\":2022:2026   */\n      dup3\n        /* \"#utility.yul\":2000:2027   */\n      tag_70\n      jump\t// in\n    tag_133:\n        /* \"#utility.yul\":1992:1998   */\n      dup2\n        /* \"#utility.yul\":1988:2028   */\n      add\n        /* \"#utility.yul\":2130:2136   */\n      dup2\n        /* \"#utility.yul\":2118:2128   */\n      dup2\n        /* \"#utility.yul\":2115:2137   */\n      lt\n        /* \"#utility.yul\":2094:2112   */\n      0xffffffffffffffff\n        /* \"#utility.yul\":2082:2092   */\n      dup3\n        /* \"#utility.yul\":2079:2113   */\n      gt\n        /* \"#utility.yul\":2076:2138   */\n      or\n        /* \"#utility.yul\":2073:2161   */\n      iszero\n      tag_134\n      jumpi\n        /* \"#utility.yul\":2141:2159   */\n      tag_135\n      tag_71\n      jump\t// in\n    tag_135:\n        /* \"#utility.yul\":2073:2161   */\n    tag_134:\n        /* \"#utility.yul\":2181:2191   */\n      dup1\n        /* \"#utility.yul\":2177:2179   */\n      0x40\n        /* \"#utility.yul\":2170:2192   */\n      mstore\n        /* \"#utility.yul\":1960:2198   */\n      pop\n        /* \"#utility.yul\":1917:2198   */\n      pop\n      pop\n      jump\t// out\n        /* \"#utility.yul\":2204:2333   */\n    tag_73:\n        /* \"#utility.yul\":2238:2244   */\n      0x00\n        /* \"#utility.yul\":2265:2285   */\n      tag_137\n      tag_63\n      jump\t// in\n    tag_137:\n        /* \"#utility.yul\":2255:2285   */\n      swap1\n      pop\n        /* \"#utility.yul\":2294:2327   */\n      tag_138\n        /* \"#utility.yul\":2322:2326   */\n      dup3\n        /* \"#utility.yul\":2314:2320   */\n      dup3\n        /* \"#utility.yul\":2294:2327   */\n      tag_72\n      jump\t// in\n    tag_138:\n        /* \"#utility.yul\":2204:2333   */\n      swap2\n      swap1\n      pop\n      jump\t// out\n        /* \"#utility.yul\":2339:2647   */\n    tag_74:\n        /* \"#utility.yul\":2401:2405   */\n      0x00\n        /* \"#utility.yul\":2491:2509   */\n      0xffffffffffffffff\n        /* \"#utility.yul\":2483:2489   */\n      dup3\n        /* \"#utility.yul\":2480:2510   */\n      gt\n        /* \"#utility.yul\":2477:2533   */\n      iszero\n      tag_140\n      jumpi\n        /* \"#utility.yul\":2513:2531   */\n      tag_141\n      tag_71\n      jump\t// in\n    tag_141:\n        /* \"#utility.yul\":2477:2533   */\n    tag_140:\n        /* \"#utility.yul\":2551:2580   */\n      tag_142\n        /* \"#utility.yul\":2573:2579   */\n      dup3\n        /* \"#utility.yul\":2551:2580   */\n      tag_70\n      jump\t// in\n    tag_142:\n        /* \"#utility.yul\":2543:2580   */\n      swap1\n      pop\n        /* \"#utility.yul\":2635:2639   */\n      0x20\n        /* \"#utility.yul\":2629:2633   */\n      dup2\n        /* \"#utility.yul\":2625:2640   */\n      add\n        /* \"#utility.yul\":2617:2640   */\n      swap1\n      pop\n        /* \"#utility.yul\":2339:2647   */\n      swap2\n      swap1\n      pop\n      jump\t// out\n        /* \"#utility.yul\":2653:2801   */\n    tag_75:\n        /* \"#utility.yul\":2751:2757   */\n      dup3\n        /* \"#utility.yul\":2746:2749   */\n      dup2\n        /* \"#utility.yul\":2741:2744   */\n      dup4\n        /* \"#utility.yul\":2728:2758   */\n      calldatacopy\n        /* \"#utility.yul\":2792:2793   */\n      0x00\n        /* \"#utility.yul\":2783:2789   */\n      dup4\n        /* \"#utility.yul\":2778:2781   */\n      dup4\n        /* \"#utility.yul\":2774:2790   */\n      add\n        /* \"#utility.yul\":2767:2794   */\n      mstore\n        /* \"#utility.yul\":2653:2801   */\n      pop\n      pop\n      pop\n      jump\t// out\n        /* \"#utility.yul\":2807:3232   */\n    tag_76:\n        /* \"#utility.yul\":2885:2890   */\n      0x00\n        /* \"#utility.yul\":2910:2976   */\n      tag_145\n        /* \"#utility.yul\":2926:2975   */\n      tag_146\n        /* \"#utility.yul\":2968:2974   */\n      dup5\n        /* \"#utility.yul\":2926:2975   */\n      tag_74\n      jump\t// in\n    tag_146:\n        /* \"#utility.yul\":2910:2976   */\n      tag_73\n      jump\t// in\n    tag_145:\n        /* \"#utility.yul\":2901:2976   */\n      swap1\n      pop\n        /* \"#utility.yul\":2999:3005   */\n      dup3\n        /* \"#utility.yul\":2992:2997   */\n      dup2\n        /* \"#utility.yul\":2985:3006   */\n      mstore\n        /* \"#utility.yul\":3037:3041   */\n      0x20\n        /* \"#utility.yul\":3030:3035   */\n      dup2\n        /* \"#utility.yul\":3026:3042   */\n      add\n        /* \"#utility.yul\":3075:3078   */\n      dup5\n        /* \"#utility.yul\":3066:3072   */\n      dup5\n        /* \"#utility.yul\":3061:3064   */\n      dup5\n        /* \"#utility.yul\":3057:3073   */\n      add\n        /* \"#utility.yul\":3054:3079   */\n      gt\n        /* \"#utility.yul\":3051:3163   */\n      iszero\n      tag_147\n      jumpi\n        /* \"#utility.yul\":3082:3161   */\n      tag_148\n      tag_69\n      jump\t// in\n    tag_148:\n        /* \"#utility.yul\":3051:3163   */\n    tag_147:\n        /* \"#utility.yul\":3172:3226   */\n      tag_149\n        /* \"#utility.yul\":3219:3225   */\n      dup5\n        /* \"#utility.yul\":3214:3217   */\n      dup3\n        /* \"#utility.yul\":3209:3212   */\n      dup6\n        /* \"#utility.yul\":3172:3226   */\n      tag_75\n      jump\t// in\n    tag_149:\n        /* \"#utility.yul\":2891:3232   */\n      pop\n        /* \"#utility.yul\":2807:3232   */\n      swap4\n      swap3\n      pop\n      pop\n      pop\n      jump\t// out\n        /* \"#utility.yul\":3252:3592   */\n    tag_77:\n        /* \"#utility.yul\":3308:3313   */\n      0x00\n        /* \"#utility.yul\":3357:3360   */\n      dup3\n        /* \"#utility.yul\":3350:3354   */\n      0x1f\n        /* \"#utility.yul\":3342:3348   */\n      dup4\n        /* \"#utility.yul\":3338:3355   */\n      add\n        /* \"#utility.yul\":3334:3361   */\n      slt\n        /* \"#utility.yul\":3324:3446   */\n      tag_151\n      jumpi\n        /* \"#utility.yul\":3365:3444   */\n      tag_152\n      tag_68\n      jump\t// in\n    tag_152:\n        /* \"#utility.yul\":3324:3446   */\n    tag_151:\n        /* \"#utility.yul\":3482:3488   */\n      dup2\n        /* \"#utility.yul\":3469:3489   */\n      calldataload\n        /* \"#utility.yul\":3507:3586   */\n      tag_153\n        /* \"#utility.yul\":3582:3585   */\n      dup5\n        /* \"#utility.yul\":3574:3580   */\n      dup3\n        /* \"#utility.yul\":3567:3571   */\n      0x20\n        /* \"#utility.yul\":3559:3565   */\n      dup7\n        /* \"#utility.yul\":3555:3572   */\n      add\n        /* \"#utility.yul\":3507:3586   */\n      tag_76\n      jump\t// in\n    tag_153:\n        /* \"#utility.yul\":3498:3586   */\n      swap2\n      pop\n        /* \"#utility.yul\":3314:3592   */\n      pop\n        /* \"#utility.yul\":3252:3592   */\n      swap3\n      swap2\n      pop\n      pop\n      jump\t// out\n        /* \"#utility.yul\":3598:4107   */\n    tag_18:\n        /* \"#utility.yul\":3667:3673   */\n      0x00\n        /* \"#utility.yul\":3716:3718   */\n      0x20\n        /* \"#utility.yul\":3704:3713   */\n      dup3\n        /* \"#utility.yul\":3695:3702   */\n      dup5\n        /* \"#utility.yul\":3691:3714   */\n      sub\n        /* \"#utility.yul\":3687:3719   */\n      slt\n        /* \"#utility.yul\":3684:3803   */\n      iszero\n      tag_155\n      jumpi\n        /* \"#utility.yul\":3722:3801   */\n      tag_156\n      tag_64\n      jump\t// in\n    tag_156:\n        /* \"#utility.yul\":3684:3803   */\n    tag_155:\n        /* \"#utility.yul\":3870:3871   */\n      0x00\n        /* \"#utility.yul\":3859:3868   */\n      dup3\n        /* \"#utility.yul\":3855:3872   */\n      add\n        /* \"#utility.yul\":3842:3873   */\n      calldataload\n        /* \"#utility.yul\":3900:3918   */\n      0xffffffffffffffff\n        /* \"#utility.yul\":3892:3898   */\n      dup2\n        /* \"#utility.yul\":3889:3919   */\n      gt\n        /* \"#utility.yul\":3886:4003   */\n      iszero\n      tag_157\n      jumpi\n        /* \"#utility.yul\":3922:4001   */\n      tag_158\n      tag_65\n      jump\t// in\n    tag_158:\n        /* \"#utility.yul\":3886:4003   */\n    tag_157:\n        /* \"#utility.yul\":4027:4090   */\n      tag_159\n        /* \"#utility.yul\":4082:4089   */\n      dup5\n        /* \"#utility.yul\":4073:4079   */\n      dup3\n        /* \"#utility.yul\":4062:4071   */\n      dup6\n        /* \"#utility.yul\":4058:4080   */\n      add\n        /* \"#utility.yul\":4027:4090   */\n      tag_77\n      jump\t// in\n    tag_159:\n        /* \"#utility.yul\":4017:4090   */\n      swap2\n      pop\n        /* \"#utility.yul\":3813:4100   */\n      pop\n        /* \"#utility.yul\":3598:4107   */\n      swap3\n      swap2\n      pop\n      pop\n      jump\t// out\n        /* \"#utility.yul\":4113:4293   */\n    tag_78:\n        /* \"#utility.yul\":4161:4238   */\n      0x4e487b7100000000000000000000000000000000000000000000000000000000\n        /* \"#utility.yul\":4158:4159   */\n      0x00\n        /* \"#utility.yul\":4151:4239   */\n      mstore\n        /* \"#utility.yul\":4258:4262   */\n      0x22\n        /* \"#utility.yul\":4255:4256   */\n      0x04\n        /* \"#utility.yul\":4248:4263   */\n      mstore\n        /* \"#utility.yul\":4282:4286   */\n      0x24\n        /* \"#utility.yul\":4279:4280   */\n      0x00\n        /* \"#utility.yul\":4272:4287   */\n      revert\n        /* \"#utility.yul\":4299:4619   */\n    tag_24:\n        /* \"#utility.yul\":4343:4349   */\n      0x00\n        /* \"#utility.yul\":4380:4381   */\n      0x02\n        /* \"#utility.yul\":4374:4378   */\n      dup3\n        /* \"#utility.yul\":4370:4382   */\n      div\n        /* \"#utility.yul\":4360:4382   */\n      swap1\n      pop\n        /* \"#utility.yul\":4427:4428   */\n      0x01\n        /* \"#utility.yul\":4421:4425   */\n      dup3\n        /* \"#utility.yul\":4417:4429   */\n      and\n        /* \"#utility.yul\":4448:4466   */\n      dup1\n        /* \"#utility.yul\":4438:4519   */\n      tag_162\n      jumpi\n        /* \"#utility.yul\":4504:4508   */\n      0x7f\n        /* \"#utility.yul\":4496:4502   */\n      dup3\n        /* \"#utility.yul\":4492:4509   */\n      and\n        /* \"#utility.yul\":4482:4509   */\n      swap2\n      pop\n        /* \"#utility.yul\":4438:4519   */\n    tag_162:\n        /* \"#utility.yul\":4566:4568   */\n      0x20\n        /* \"#utility.yul\":4558:4564   */\n      dup3\n        /* \"#utility.yul\":4555:4569   */\n      lt\n        /* \"#utility.yul\":4535:4553   */\n      dup2\n        /* \"#utility.yul\":4532:4570   */\n      sub\n        /* \"#utility.yul\":4529:4613   */\n      tag_163\n      jumpi\n        /* \"#utility.yul\":4585:4603   */\n      tag_164\n      tag_78\n      jump\t// in\n    tag_164:\n        /* \"#utility.yul\":4529:4613   */\n    tag_163:\n        /* \"#utility.yul\":4350:4619   */\n      pop\n        /* \"#utility.yul\":4299:4619   */\n      swap2\n      swap1\n      pop\n      jump\t// out\n        /* \"#utility.yul\":4625:4794   */\n    tag_79:\n        /* \"#utility.yul\":4709:4720   */\n      0x00\n        /* \"#utility.yul\":4743:4749   */\n      dup3\n        /* \"#utility.yul\":4738:4741   */\n      dup3\n        /* \"#utility.yul\":4731:4750   */\n      mstore\n        /* \"#utility.yul\":4783:4787   */\n      0x20\n        /* \"#utility.yul\":4778:4781   */\n      dup3\n        /* \"#utility.yul\":4774:4788   */\n      add\n        /* \"#utility.yul\":4759:4788   */\n      swap1\n      pop\n        /* \"#utility.yul\":4625:4794   */\n      swap3\n      swap2\n      pop\n      pop\n      jump\t// out\n        /* \"#utility.yul\":4800:4960   */\n    tag_80:\n        /* \"#utility.yul\":4940:4952   */\n      0x4e6f742065786973747300000000000000000000000000000000000000000000\n        /* \"#utility.yul\":4936:4937   */\n      0x00\n        /* \"#utility.yul\":4928:4934   */\n      dup3\n        /* \"#utility.yul\":4924:4938   */\n      add\n        /* \"#utility.yul\":4917:4953   */\n      mstore\n        /* \"#utility.yul\":4800:4960   */\n      pop\n      jump\t// out\n        /* \"#utility.yul\":4966:5332   */\n    tag_81:\n        /* \"#utility.yul\":5108:5111   */\n      0x00\n        /* \"#utility.yul\":5129:5196   */\n      tag_168\n        /* \"#utility.yul\":5193:5195   */\n      0x0a\n        /* \"#utility.yul\":5188:5191   */\n      dup4\n        /* \"#utility.yul\":5129:5196   */\n      tag_79\n      jump\t// in\n    tag_168:\n        /* \"#utility.yul\":5122:5196   */\n      swap2\n      pop\n        /* \"#utility.yul\":5205:5298   */\n      tag_169\n        /* \"#utility.yul\":5294:5297   */\n      dup3\n        /* \"#utility.yul\":5205:5298   */\n      tag_80\n      jump\t// in\n    tag_169:\n        /* \"#utility.yul\":5323:5325   */\n      0x20\n        /* \"#utility.yul\":5318:5321   */\n      dup3\n        /* \"#utility.yul\":5314:5326   */\n      add\n        /* \"#utility.yul\":5307:5326   */\n      swap1\n      pop\n        /* \"#utility.yul\":4966:5332   */\n      swap2\n      swap1\n      pop\n      jump\t// out\n        /* \"#utility.yul\":5338:5757   */\n    tag_27:\n        /* \"#utility.yul\":5504:5508   */\n      0x00\n        /* \"#utility.yul\":5542:5544   */\n      0x20\n        /* \"#utility.yul\":5531:5540   */\n      dup3\n        /* \"#utility.yul\":5527:5545   */\n      add\n        /* \"#utility.yul\":5519:5545   */\n      swap1\n      pop\n        /* \"#utility.yul\":5591:5600   */\n      dup2\n        /* \"#utility.yul\":5585:5589   */\n      dup2\n        /* \"#utility.yul\":5581:5601   */\n      sub\n        /* \"#utility.yul\":5577:5578   */\n      0x00\n        /* \"#utility.yul\":5566:5575   */\n      dup4\n        /* \"#utility.yul\":5562:5579   */\n      add\n        /* \"#utility.yul\":5555:5602   */\n      mstore\n        /* \"#utility.yul\":5619:5750   */\n      tag_171\n        /* \"#utility.yul\":5745:5749   */\n      dup2\n        /* \"#utility.yul\":5619:5750   */\n      tag_81\n      jump\t// in\n    tag_171:\n        /* \"#utility.yul\":5611:5750   */\n      swap1\n      pop\n        /* \"#utility.yul\":5338:5757   */\n      swap2\n      swap1\n      pop\n      jump\t// out\n        /* \"#utility.yul\":5763:5932   */\n    tag_82:\n        /* \"#utility.yul\":5903:5924   */\n      0x496e737566666963656e742062616c616e636500000000000000000000000000\n        /* \"#utility.yul\":5899:5900   */\n      0x00\n        /* \"#utility.yul\":5891:5897   */\n      dup3\n        /* \"#utility.yul\":5887:5901   */\n      add\n        /* \"#utility.yul\":5880:5925   */\n      mstore\n        /* \"#utility.yul\":5763:5932   */\n      pop\n      jump\t// out\n        /* \"#utility.yul\":5938:6304   */\n    tag_83:\n        /* \"#utility.yul\":6080:6083   */\n      0x00\n        /* \"#utility.yul\":6101:6168   */\n      tag_174\n        /* \"#utility.yul\":6165:6167   */\n      0x13\n        /* \"#utility.yul\":6160:6163   */\n      dup4\n        /* \"#utility.yul\":6101:6168   */\n      tag_79\n      jump\t// in\n    tag_174:\n        /* \"#utility.yul\":6094:6168   */\n      swap2\n      pop\n        /* \"#utility.yul\":6177:6270   */\n      tag_175\n        /* \"#utility.yul\":6266:6269   */\n      dup3\n        /* \"#utility.yul\":6177:6270   */\n      tag_82\n      jump\t// in\n    tag_175:\n        /* \"#utility.yul\":6295:6297   */\n      0x20\n        /* \"#utility.yul\":6290:6293   */\n      dup3\n        /* \"#utility.yul\":6286:6298   */\n      add\n        /* \"#utility.yul\":6279:6298   */\n      swap1\n      pop\n        /* \"#utility.yul\":5938:6304   */\n      swap2\n      swap1\n      pop\n      jump\t// out\n        /* \"#utility.yul\":6310:6729   */\n    tag_34:\n        /* \"#utility.yul\":6476:6480   */\n      0x00\n        /* \"#utility.yul\":6514:6516   */\n      0x20\n        /* \"#utility.yul\":6503:6512   */\n      dup3\n        /* \"#utility.yul\":6499:6517   */\n      add\n        /* \"#utility.yul\":6491:6517   */\n      swap1\n      pop\n        /* \"#utility.yul\":6563:6572   */\n      dup2\n        /* \"#utility.yul\":6557:6561   */\n      dup2\n        /* \"#utility.yul\":6553:6573   */\n      sub\n        /* \"#utility.yul\":6549:6550   */\n      0x00\n        /* \"#utility.yul\":6538:6547   */\n      dup4\n        /* \"#utility.yul\":6534:6551   */\n      add\n        /* \"#utility.yul\":6527:6574   */\n      mstore\n        /* \"#utility.yul\":6591:6722   */\n      tag_177\n        /* \"#utility.yul\":6717:6721   */\n      dup2\n        /* \"#utility.yul\":6591:6722   */\n      tag_83\n      jump\t// in\n    tag_177:\n        /* \"#utility.yul\":6583:6722   */\n      swap1\n      pop\n        /* \"#utility.yul\":6310:6729   */\n      swap2\n      swap1\n      pop\n      jump\t// out\n        /* \"#utility.yul\":6735:6915   */\n    tag_84:\n        /* \"#utility.yul\":6783:6860   */\n      0x4e487b7100000000000000000000000000000000000000000000000000000000\n        /* \"#utility.yul\":6780:6781   */\n      0x00\n        /* \"#utility.yul\":6773:6861   */\n      mstore\n        /* \"#utility.yul\":6880:6884   */\n      0x11\n        /* \"#utility.yul\":6877:6878   */\n      0x04\n        /* \"#utility.yul\":6870:6885   */\n      mstore\n        /* \"#utility.yul\":6904:6908   */\n      0x24\n        /* \"#utility.yul\":6901:6902   */\n      0x00\n        /* \"#utility.yul\":6894:6909   */\n      revert\n        /* \"#utility.yul\":6921:7115   */\n    tag_36:\n        /* \"#utility.yul\":6961:6965   */\n      0x00\n        /* \"#utility.yul\":6981:7001   */\n      tag_180\n        /* \"#utility.yul\":6999:7000   */\n      dup3\n        /* \"#utility.yul\":6981:7001   */\n      tag_61\n      jump\t// in\n    tag_180:\n        /* \"#utility.yul\":6976:7001   */\n      swap2\n      pop\n        /* \"#utility.yul\":7015:7035   */\n      tag_181\n        /* \"#utility.yul\":7033:7034   */\n      dup4\n        /* \"#utility.yul\":7015:7035   */\n      tag_61\n      jump\t// in\n    tag_181:\n        /* \"#utility.yul\":7010:7035   */\n      swap3\n      pop\n        /* \"#utility.yul\":7059:7060   */\n      dup3\n        /* \"#utility.yul\":7056:7057   */\n      dup3\n        /* \"#utility.yul\":7052:7061   */\n      sub\n        /* \"#utility.yul\":7044:7061   */\n      swap1\n      pop\n        /* \"#utility.yul\":7083:7084   */\n      dup2\n        /* \"#utility.yul\":7077:7081   */\n      dup2\n        /* \"#utility.yul\":7074:7085   */\n      gt\n        /* \"#utility.yul\":7071:7108   */\n      iszero\n      tag_182\n      jumpi\n        /* \"#utility.yul\":7088:7106   */\n      tag_183\n      tag_84\n      jump\t// in\n    tag_183:\n        /* \"#utility.yul\":7071:7108   */\n    tag_182:\n        /* \"#utility.yul\":6921:7115   */\n      swap3\n      swap2\n      pop\n      pop\n      jump\t// out\n        /* \"#utility.yul\":7121:7268   */\n    tag_85:\n        /* \"#utility.yul\":7222:7233   */\n      0x00\n        /* \"#utility.yul\":7259:7262   */\n      dup2\n        /* \"#utility.yul\":7244:7262   */\n      swap1\n      pop\n        /* \"#utility.yul\":7121:7268   */\n      swap3\n      swap2\n      pop\n      pop\n      jump\t// out\n        /* \"#utility.yul\":7274:7388   */\n    tag_86:\n      pop\n      jump\t// out\n        /* \"#utility.yul\":7394:7792   */\n    tag_87:\n        /* \"#utility.yul\":7553:7556   */\n      0x00\n        /* \"#utility.yul\":7574:7657   */\n      tag_187\n        /* \"#utility.yul\":7655:7656   */\n      0x00\n        /* \"#utility.yul\":7650:7653   */\n      dup4\n        /* \"#utility.yul\":7574:7657   */\n      tag_85\n      jump\t// in\n    tag_187:\n        /* \"#utility.yul\":7567:7657   */\n      swap2\n      pop\n        /* \"#utility.yul\":7666:7759   */\n      tag_188\n        /* \"#utility.yul\":7755:7758   */\n      dup3\n        /* \"#utility.yul\":7666:7759   */\n      tag_86\n      jump\t// in\n    tag_188:\n        /* \"#utility.yul\":7784:7785   */\n      0x00\n        /* \"#utility.yul\":7779:7782   */\n      dup3\n        /* \"#utility.yul\":7775:7786   */\n      add\n        /* \"#utility.yul\":7768:7786   */\n      swap1\n      pop\n        /* \"#utility.yul\":7394:7792   */\n      swap2\n      swap1\n      pop\n      jump\t// out\n        /* \"#utility.yul\":7798:8177   */\n    tag_38:\n        /* \"#utility.yul\":7982:7985   */\n      0x00\n        /* \"#utility.yul\":8004:8151   */\n      tag_190\n        /* \"#utility.yul\":8147:8150   */\n      dup3\n        /* \"#utility.yul\":8004:8151   */\n      tag_87\n      jump\t// in\n    tag_190:\n        /* \"#utility.yul\":7997:8151   */\n      swap2\n      pop\n        /* \"#utility.yul\":8168:8171   */\n      dup2\n        /* \"#utility.yul\":8161:8171   */\n      swap1\n      pop\n        /* \"#utility.yul\":7798:8177   */\n      swap2\n      swap1\n      pop\n      jump\t// out\n        /* \"#utility.yul\":8183:8356   */\n    tag_88:\n        /* \"#utility.yul\":8323:8348   */\n      0x4572726f7220656e206c61207472616e73616363696f6e000000000000000000\n        /* \"#utility.yul\":8319:8320   */\n      0x00\n        /* \"#utility.yul\":8311:8317   */\n      dup3\n        /* \"#utility.yul\":8307:8321   */\n      add\n        /* \"#utility.yul\":8300:8349   */\n      mstore\n        /* \"#utility.yul\":8183:8356   */\n      pop\n      jump\t// out\n        /* \"#utility.yul\":8362:8728   */\n    tag_89:\n        /* \"#utility.yul\":8504:8507   */\n      0x00\n        /* \"#utility.yul\":8525:8592   */\n      tag_193\n        /* \"#utility.yul\":8589:8591   */\n      0x17\n        /* \"#utility.yul\":8584:8587   */\n      dup4\n        /* \"#utility.yul\":8525:8592   */\n      tag_79\n      jump\t// in\n    tag_193:\n        /* \"#utility.yul\":8518:8592   */\n      swap2\n      pop\n        /* \"#utility.yul\":8601:8694   */\n      tag_194\n        /* \"#utility.yul\":8690:8693   */\n      dup3\n        /* \"#utility.yul\":8601:8694   */\n      tag_88\n      jump\t// in\n    tag_194:\n        /* \"#utility.yul\":8719:8721   */\n      0x20\n        /* \"#utility.yul\":8714:8717   */\n      dup3\n        /* \"#utility.yul\":8710:8722   */\n      add\n        /* \"#utility.yul\":8703:8722   */\n      swap1\n      pop\n        /* \"#utility.yul\":8362:8728   */\n      swap2\n      swap1\n      pop\n      jump\t// out\n        /* \"#utility.yul\":8734:9153   */\n    tag_44:\n        /* \"#utility.yul\":8900:8904   */\n      0x00\n        /* \"#utility.yul\":8938:8940   */\n      0x20\n        /* \"#utility.yul\":8927:8936   */\n      dup3\n        /* \"#utility.yul\":8923:8941   */\n      add\n        /* \"#utility.yul\":8915:8941   */\n      swap1\n      pop\n        /* \"#utility.yul\":8987:8996   */\n      dup2\n        /* \"#utility.yul\":8981:8985   */\n      dup2\n        /* \"#utility.yul\":8977:8997   */\n      sub\n        /* \"#utility.yul\":8973:8974   */\n      0x00\n        /* \"#utility.yul\":8962:8971   */\n      dup4\n        /* \"#utility.yul\":8958:8975   */\n      add\n        /* \"#utility.yul\":8951:8998   */\n      mstore\n        /* \"#utility.yul\":9015:9146   */\n      tag_196\n        /* \"#utility.yul\":9141:9145   */\n      dup2\n        /* \"#utility.yul\":9015:9146   */\n      tag_89\n      jump\t// in\n    tag_196:\n        /* \"#utility.yul\":9007:9146   */\n      swap1\n      pop\n        /* \"#utility.yul\":8734:9153   */\n      swap2\n      swap1\n      pop\n      jump\t// out\n        /* \"#utility.yul\":9159:9323   */\n    tag_90:\n        /* \"#utility.yul\":9299:9315   */\n      0x416c726561647920657869737473000000000000000000000000000000000000\n        /* \"#utility.yul\":9295:9296   */\n      0x00\n        /* \"#utility.yul\":9287:9293   */\n      dup3\n        /* \"#utility.yul\":9283:9297   */\n      add\n        /* \"#utility.yul\":9276:9316   */\n      mstore\n        /* \"#utility.yul\":9159:9323   */\n      pop\n      jump\t// out\n        /* \"#utility.yul\":9329:9695   */\n    tag_91:\n        /* \"#utility.yul\":9471:9474   */\n      0x00\n        /* \"#utility.yul\":9492:9559   */\n      tag_199\n        /* \"#utility.yul\":9556:9558   */\n      0x0e\n        /* \"#utility.yul\":9551:9554   */\n      dup4\n        /* \"#utility.yul\":9492:9559   */\n      tag_79\n      jump\t// in\n    tag_199:\n        /* \"#utility.yul\":9485:9559   */\n      swap2\n      pop\n        /* \"#utility.yul\":9568:9661   */\n      tag_200\n        /* \"#utility.yul\":9657:9660   */\n      dup3\n        /* \"#utility.yul\":9568:9661   */\n      tag_90\n      jump\t// in\n    tag_200:\n        /* \"#utility.yul\":9686:9688   */\n      0x20\n        /* \"#utility.yul\":9681:9684   */\n      dup3\n        /* \"#utility.yul\":9677:9689   */\n      add\n        /* \"#utility.yul\":9670:9689   */\n      swap1\n      pop\n        /* \"#utility.yul\":9329:9695   */\n      swap2\n      swap1\n      pop\n      jump\t// out\n        /* \"#utility.yul\":9701:10120   */\n    tag_49:\n        /* \"#utility.yul\":9867:9871   */\n      0x00\n        /* \"#utility.yul\":9905:9907   */\n      0x20\n        /* \"#utility.yul\":9894:9903   */\n      dup3\n        /* \"#utility.yul\":9890:9908   */\n      add\n        /* \"#utility.yul\":9882:9908   */\n      swap1\n      pop\n        /* \"#utility.yul\":9954:9963   */\n      dup2\n        /* \"#utility.yul\":9948:9952   */\n      dup2\n        /* \"#utility.yul\":9944:9964   */\n      sub\n        /* \"#utility.yul\":9940:9941   */\n      0x00\n        /* \"#utility.yul\":9929:9938   */\n      dup4\n        /* \"#utility.yul\":9925:9942   */\n      add\n        /* \"#utility.yul\":9918:9965   */\n      mstore\n        /* \"#utility.yul\":9982:10113   */\n      tag_202\n        /* \"#utility.yul\":10108:10112   */\n      dup2\n        /* \"#utility.yul\":9982:10113   */\n      tag_91\n      jump\t// in\n    tag_202:\n        /* \"#utility.yul\":9974:10113   */\n      swap1\n      pop\n        /* \"#utility.yul\":9701:10120   */\n      swap2\n      swap1\n      pop\n      jump\t// out\n        /* \"#utility.yul\":10126:10286   */\n    tag_92:\n        /* \"#utility.yul\":10266:10278   */\n      0x456d707479206e616d6500000000000000000000000000000000000000000000\n        /* \"#utility.yul\":10262:10263   */\n      0x00\n        /* \"#utility.yul\":10254:10260   */\n      dup3\n        /* \"#utility.yul\":10250:10264   */\n      add\n        /* \"#utility.yul\":10243:10279   */\n      mstore\n        /* \"#utility.yul\":10126:10286   */\n      pop\n      jump\t// out\n        /* \"#utility.yul\":10292:10658   */\n    tag_93:\n        /* \"#utility.yul\":10434:10437   */\n      0x00\n        /* \"#utility.yul\":10455:10522   */\n      tag_205\n        /* \"#utility.yul\":10519:10521   */\n      0x0a\n        /* \"#utility.yul\":10514:10517   */\n      dup4\n        /* \"#utility.yul\":10455:10522   */\n      tag_79\n      jump\t// in\n    tag_205:\n        /* \"#utility.yul\":10448:10522   */\n      swap2\n      pop\n        /* \"#utility.yul\":10531:10624   */\n      tag_206\n        /* \"#utility.yul\":10620:10623   */\n      dup3\n        /* \"#utility.yul\":10531:10624   */\n      tag_92\n      jump\t// in\n    tag_206:\n        /* \"#utility.yul\":10649:10651   */\n      0x20\n        /* \"#utility.yul\":10644:10647   */\n      dup3\n        /* \"#utility.yul\":10640:10652   */\n      add\n        /* \"#utility.yul\":10633:10652   */\n      swap1\n      pop\n        /* \"#utility.yul\":10292:10658   */\n      swap2\n      swap1\n      pop\n      jump\t// out\n        /* \"#utility.yul\":10664:11083   */\n    tag_52:\n        /* \"#utility.yul\":10830:10834   */\n      0x00\n        /* \"#utility.yul\":10868:10870   */\n      0x20\n        /* \"#utility.yul\":10857:10866   */\n      dup3\n        /* \"#utility.yul\":10853:10871   */\n      add\n        /* \"#utility.yul\":10845:10871   */\n      swap1\n      pop\n        /* \"#utility.yul\":10917:10926   */\n      dup2\n        /* \"#utility.yul\":10911:10915   */\n      dup2\n        /* \"#utility.yul\":10907:10927   */\n      sub\n        /* \"#utility.yul\":10903:10904   */\n      0x00\n        /* \"#utility.yul\":10892:10901   */\n      dup4\n        /* \"#utility.yul\":10888:10905   */\n      add\n        /* \"#utility.yul\":10881:10928   */\n      mstore\n        /* \"#utility.yul\":10945:11076   */\n      tag_208\n        /* \"#utility.yul\":11071:11075   */\n      dup2\n        /* \"#utility.yul\":10945:11076   */\n      tag_93\n      jump\t// in\n    tag_208:\n        /* \"#utility.yul\":10937:11076   */\n      swap1\n      pop\n        /* \"#utility.yul\":10664:11083   */\n      swap2\n      swap1\n      pop\n      jump\t// out\n        /* \"#utility.yul\":11089:11188   */\n    tag_94:\n        /* \"#utility.yul\":11141:11147   */\n      0x00\n        /* \"#utility.yul\":11175:11180   */\n      dup2\n        /* \"#utility.yul\":11169:11181   */\n      mload\n        /* \"#utility.yul\":11159:11181   */\n      swap1\n      pop\n        /* \"#utility.yul\":11089:11188   */\n      swap2\n      swap1\n      pop\n      jump\t// out\n        /* \"#utility.yul\":11194:11335   */\n    tag_95:\n        /* \"#utility.yul\":11243:11247   */\n      0x00\n        /* \"#utility.yul\":11266:11269   */\n      dup2\n        /* \"#utility.yul\":11258:11269   */\n      swap1\n      pop\n        /* \"#utility.yul\":11289:11292   */\n      dup2\n        /* \"#utility.yul\":11286:11287   */\n      0x00\n        /* \"#utility.yul\":11279:11293   */\n      mstore\n        /* \"#utility.yul\":11323:11327   */\n      0x20\n        /* \"#utility.yul\":11320:11321   */\n      0x00\n        /* \"#utility.yul\":11310:11328   */\n      keccak256\n        /* \"#utility.yul\":11302:11328   */\n      swap1\n      pop\n        /* \"#utility.yul\":11194:11335   */\n      swap2\n      swap1\n      pop\n      jump\t// out\n        /* \"#utility.yul\":11341:11434   */\n    tag_96:\n        /* \"#utility.yul\":11378:11384   */\n      0x00\n        /* \"#utility.yul\":11425:11427   */\n      0x20\n        /* \"#utility.yul\":11420:11422   */\n      0x1f\n        /* \"#utility.yul\":11413:11418   */\n      dup4\n        /* \"#utility.yul\":11409:11423   */\n      add\n        /* \"#utility.yul\":11405:11428   */\n      div\n        /* \"#utility.yul\":11395:11428   */\n      swap1\n      pop\n        /* \"#utility.yul\":11341:11434   */\n      swap2\n      swap1\n      pop\n      jump\t// out\n        /* \"#utility.yul\":11440:11547   */\n    tag_97:\n        /* \"#utility.yul\":11484:11492   */\n      0x00\n        /* \"#utility.yul\":11534:11539   */\n      dup3\n        /* \"#utility.yul\":11528:11532   */\n      dup3\n        /* \"#utility.yul\":11524:11540   */\n      shl\n        /* \"#utility.yul\":11503:11540   */\n      swap1\n      pop\n        /* \"#utility.yul\":11440:11547   */\n      swap3\n      swap2\n      pop\n      pop\n      jump\t// out\n        /* \"#utility.yul\":11553:11946   */\n    tag_98:\n        /* \"#utility.yul\":11622:11628   */\n      0x00\n        /* \"#utility.yul\":11672:11673   */\n      0x08\n        /* \"#utility.yul\":11660:11670   */\n      dup4\n        /* \"#utility.yul\":11656:11674   */\n      mul\n        /* \"#utility.yul\":11695:11792   */\n      tag_214\n        /* \"#utility.yul\":11725:11791   */\n      0xffffffffffffffffffffffffffffffffffffffffffffffffffffffffffffffff\n        /* \"#utility.yul\":11714:11723   */\n      dup3\n        /* \"#utility.yul\":11695:11792   */\n      tag_97\n      jump\t// in\n    tag_214:\n        /* \"#utility.yul\":11813:11852   */\n      tag_215\n        /* \"#utility.yul\":11843:11851   */\n      dup7\n        /* \"#utility.yul\":11832:11841   */\n      dup4\n        /* \"#utility.yul\":11813:11852   */\n      tag_97\n      jump\t// in\n    tag_215:\n        /* \"#utility.yul\":11801:11852   */\n      swap6\n      pop\n        /* \"#utility.yul\":11885:11889   */\n      dup1\n        /* \"#utility.yul\":11881:11890   */\n      not\n        /* \"#utility.yul\":11874:11879   */\n      dup5\n        /* \"#utility.yul\":11870:11891   */\n      and\n        /* \"#utility.yul\":11861:11891   */\n      swap4\n      pop\n        /* \"#utility.yul\":11934:11938   */\n      dup1\n        /* \"#utility.yul\":11924:11932   */\n      dup7\n        /* \"#utility.yul\":11920:11939   */\n      and\n        /* \"#utility.yul\":11913:11918   */\n      dup5\n        /* \"#utility.yul\":11910:11940   */\n      or\n        /* \"#utility.yul\":11900:11940   */\n      swap3\n      pop\n        /* \"#utility.yul\":11629:11946   */\n      pop\n      pop\n        /* \"#utility.yul\":11553:11946   */\n      swap4\n      swap3\n      pop\n      pop\n      pop\n      jump\t// out\n        /* \"#utility.yul\":11952:12012   */\n    tag_99:\n        /* \"#utility.yul\":11980:11983   */\n      0x00\n        /* \"#utility.yul\":12001:12006   */\n      dup2\n        /* \"#utility.yul\":11994:12006   */\n      swap1\n      pop\n        /* \"#utility.yul\":11952:12012   */\n      swap2\n      swap1\n      pop\n      jump\t// out\n        /* \"#utility.yul\":12018:12160   */\n    tag_100:\n        /* \"#utility.yul\":12068:12077   */\n      0x00\n        /* \"#utility.yul\":12101:12154   */\n      tag_218\n        /* \"#utility.yul\":12119:12153   */\n      tag_219\n        /* \"#utility.yul\":12128:12152   */\n      tag_220\n        /* \"#utility.yul\":12146:12151   */\n      dup5\n        /* \"#utility.yul\":12128:12152   */\n      tag_61\n      jump\t// in\n    tag_220:\n        /* \"#utility.yul\":12119:12153   */\n      tag_99\n      jump\t// in\n    tag_219:\n        /* \"#utility.yul\":12101:12154   */\n      tag_61\n      jump\t// in\n    tag_218:\n        /* \"#utility.yul\":12088:12154   */\n      swap1\n      pop\n        /* \"#utility.yul\":12018:12160   */\n      swap2\n      swap1\n      pop\n      jump\t// out\n        /* \"#utility.yul\":12166:12241   */\n    tag_101:\n        /* \"#utility.yul\":12209:12212   */\n      0x00\n        /* \"#utility.yul\":12230:12235   */\n      dup2\n        /* \"#utility.yul\":12223:12235   */\n      swap1\n      pop\n        /* \"#utility.yul\":12166:12241   */\n      swap2\n      swap1\n      pop\n      jump\t// out\n        /* \"#utility.yul\":12247:12516   */\n    tag_102:\n        /* \"#utility.yul\":12357:12396   */\n      tag_223\n        /* \"#utility.yul\":12388:12395   */\n      dup4\n        /* \"#utility.yul\":12357:12396   */\n      tag_100\n      jump\t// in\n    tag_223:\n        /* \"#utility.yul\":12418:12509   */\n      tag_224\n        /* \"#utility.yul\":12467:12508   */\n      tag_225\n        /* \"#utility.yul\":12491:12507   */\n      dup3\n        /* \"#utility.yul\":12467:12508   */\n      tag_101\n      jump\t// in\n    tag_225:\n        /* \"#utility.yul\":12459:12465   */\n      dup5\n        /* \"#utility.yul\":12452:12456   */\n      dup5\n        /* \"#utility.yul\":12446:12457   */\n      sload\n        /* \"#utility.yul\":12418:12509   */\n      tag_98\n      jump\t// in\n    tag_224:\n        /* \"#utility.yul\":12412:12416   */\n      dup3\n        /* \"#utility.yul\":12405:12510   */\n      sstore\n        /* \"#utility.yul\":12323:12516   */\n      pop\n        /* \"#utility.yul\":12247:12516   */\n      pop\n      pop\n      pop\n      jump\t// out\n        /* \"#utility.yul\":12522:12595   */\n    tag_103:\n        /* \"#utility.yul\":12567:12570   */\n      0x00\n        /* \"#utility.yul\":12588:12589   */\n      0x00\n        /* \"#utility.yul\":12581:12589   */\n      swap1\n      pop\n        /* \"#utility.yul\":12522:12595   */\n      swap1\n      jump\t// out\n        /* \"#utility.yul\":12601:12790   */\n    tag_104:\n        /* \"#utility.yul\":12678:12710   */\n      tag_228\n      tag_103\n      jump\t// in\n    tag_228:\n        /* \"#utility.yul\":12719:12784   */\n      tag_229\n        /* \"#utility.yul\":12777:12783   */\n      dup2\n        /* \"#utility.yul\":12769:12775   */\n      dup5\n        /* \"#utility.yul\":12763:12767   */\n      dup5\n        /* \"#utility.yul\":12719:12784   */\n      tag_102\n      jump\t// in\n    tag_229:\n        /* \"#utility.yul\":12654:12790   */\n      pop\n        /* \"#utility.yul\":12601:12790   */\n      pop\n      pop\n      jump\t// out\n        /* \"#utility.yul\":12796:12982   */\n    tag_105:\n        /* \"#utility.yul\":12856:12976   */\n    tag_231:\n        /* \"#utility.yul\":12873:12876   */\n      dup2\n        /* \"#utility.yul\":12866:12871   */\n      dup2\n        /* \"#utility.yul\":12863:12877   */\n      lt\n        /* \"#utility.yul\":12856:12976   */\n      iszero\n      tag_233\n      jumpi\n        /* \"#utility.yul\":12927:12966   */\n      tag_234\n        /* \"#utility.yul\":12964:12965   */\n      0x00\n        /* \"#utility.yul\":12957:12962   */\n      dup3\n        /* \"#utility.yul\":12927:12966   */\n      tag_104\n      jump\t// in\n    tag_234:\n        /* \"#utility.yul\":12900:12901   */\n      0x01\n        /* \"#utility.yul\":12893:12898   */\n      dup2\n        /* \"#utility.yul\":12889:12902   */\n      add\n        /* \"#utility.yul\":12880:12902   */\n      swap1\n      pop\n        /* \"#utility.yul\":12856:12976   */\n      jump(tag_231)\n    tag_233:\n        /* \"#utility.yul\":12796:12982   */\n      pop\n      pop\n      jump\t// out\n        /* \"#utility.yul\":12988:13531   */\n    tag_106:\n        /* \"#utility.yul\":13089:13091   */\n      0x1f\n        /* \"#utility.yul\":13084:13087   */\n      dup3\n        /* \"#utility.yul\":13081:13092   */\n      gt\n        /* \"#utility.yul\":13078:13524   */\n      iszero\n      tag_236\n      jumpi\n        /* \"#utility.yul\":13123:13161   */\n      tag_237\n        /* \"#utility.yul\":13155:13160   */\n      dup2\n        /* \"#utility.yul\":13123:13161   */\n      tag_95\n      jump\t// in\n    tag_237:\n        /* \"#utility.yul\":13207:13236   */\n      tag_238\n        /* \"#utility.yul\":13225:13235   */\n      dup5\n        /* \"#utility.yul\":13207:13236   */\n      tag_96\n      jump\t// in\n    tag_238:\n        /* \"#utility.yul\":13197:13205   */\n      dup2\n        /* \"#utility.yul\":13193:13237   */\n      add\n        /* \"#utility.yul\":13390:13392   */\n      0x20\n        /* \"#utility.yul\":13378:13388   */\n      dup6\n        /* \"#utility.yul\":13375:13393   */\n      lt\n        /* \"#utility.yul\":13372:13421   */\n      iszero\n      tag_239\n      jumpi\n        /* \"#utility.yul\":13411:13419   */\n      dup2\n        /* \"#utility.yul\":13396:13419   */\n      swap1\n      pop\n        /* \"#utility.yul\":13372:13421   */\n    tag_239:\n        /* \"#utility.yul\":13434:13514   */\n      tag_240\n        /* \"#utility.yul\":13490:13512   */\n      tag_241\n        /* \"#utility.yul\":13508:13511   */\n      dup6\n        /* \"#utility.yul\":13490:13512   */\n      tag_96\n      jump\t// in\n    tag_241:\n        /* \"#utility.yul\":13480:13488   */\n      dup4\n        /* \"#utility.yul\":13476:13513   */\n      add\n        /* \"#utility.yul\":13463:13474   */\n      dup3\n        /* \"#utility.yul\":13434:13514   */\n      tag_105\n      jump\t// in\n    tag_240:\n        /* \"#utility.yul\":13093:13524   */\n      pop\n      pop\n        /* \"#utility.yul\":13078:13524   */\n    tag_236:\n        /* \"#utility.yul\":12988:13531   */\n      pop\n      pop\n      pop\n      jump\t// out\n        /* \"#utility.yul\":13537:13654   */\n    tag_107:\n        /* \"#utility.yul\":13591:13599   */\n      0x00\n        /* \"#utility.yul\":13641:13646   */\n      dup3\n        /* \"#utility.yul\":13635:13639   */\n      dup3\n        /* \"#utility.yul\":13631:13647   */\n      shr\n        /* \"#utility.yul\":13610:13647   */\n      swap1\n      pop\n        /* \"#utility.yul\":13537:13654   */\n      swap3\n      swap2\n      pop\n      pop\n      jump\t// out\n        /* \"#utility.yul\":13660:13829   */\n    tag_108:\n        /* \"#utility.yul\":13704:13710   */\n      0x00\n        /* \"#utility.yul\":13737:13788   */\n      tag_244\n        /* \"#utility.yul\":13785:13786   */\n      0x00\n        /* \"#utility.yul\":13781:13787   */\n      not\n        /* \"#utility.yul\":13773:13778   */\n      dup5\n        /* \"#utility.yul\":13770:13771   */\n      0x08\n        /* \"#utility.yul\":13766:13779   */\n      mul\n        /* \"#utility.yul\":13737:13788   */\n      tag_107\n      jump\t// in\n    tag_244:\n        /* \"#utility.yul\":13733:13789   */\n      not\n        /* \"#utility.yul\":13818:13822   */\n      dup1\n        /* \"#utility.yul\":13812:13816   */\n      dup4\n        /* \"#utility.yul\":13808:13823   */\n      and\n        /* \"#utility.yul\":13798:13823   */\n      swap2\n      pop\n        /* \"#utility.yul\":13711:13829   */\n      pop\n        /* \"#utility.yul\":13660:13829   */\n      swap3\n      swap2\n      pop\n      pop\n      jump\t// out\n        /* \"#utility.yul\":13834:14129   */\n    tag_109:\n        /* \"#utility.yul\":13910:13914   */\n      0x00\n        /* \"#utility.yul\":14056:14085   */\n      tag_246\n        /* \"#utility.yul\":14081:14084   */\n      dup4\n        /* \"#utility.yul\":14075:14079   */\n      dup4\n        /* \"#utility.yul\":14056:14085   */\n      tag_108\n      jump\t// in\n    tag_246:\n        /* \"#utility.yul\":14048:14085   */\n      swap2\n      pop\n        /* \"#utility.yul\":14118:14121   */\n      dup3\n        /* \"#utility.yul\":14115:14116   */\n      0x02\n        /* \"#utility.yul\":14111:14122   */\n      mul\n        /* \"#utility.yul\":14105:14109   */\n      dup3\n        /* \"#utility.yul\":14102:14123   */\n      or\n        /* \"#utility.yul\":14094:14123   */\n      swap1\n      pop\n        /* \"#utility.yul\":13834:14129   */\n      swap3\n      swap2\n      pop\n      pop\n      jump\t// out\n        /* \"#utility.yul\":14134:15529   */\n    tag_54:\n        /* \"#utility.yul\":14251:14288   */\n      tag_248\n        /* \"#utility.yul\":14284:14287   */\n      dup3\n        /* \"#utility.yul\":14251:14288   */\n      tag_94\n      jump\t// in\n    tag_248:\n        /* \"#utility.yul\":14353:14371   */\n      0xffffffffffffffff\n        /* \"#utility.yul\":14345:14351   */\n      dup2\n        /* \"#utility.yul\":14342:14372   */\n      gt\n        /* \"#utility.yul\":14339:14395   */\n      iszero\n      tag_249\n      jumpi\n        /* \"#utility.yul\":14375:14393   */\n      tag_250\n      tag_71\n      jump\t// in\n    tag_250:\n        /* \"#utility.yul\":14339:14395   */\n    tag_249:\n        /* \"#utility.yul\":14419:14457   */\n      tag_251\n        /* \"#utility.yul\":14451:14455   */\n      dup3\n        /* \"#utility.yul\":14445:14456   */\n      sload\n        /* \"#utility.yul\":14419:14457   */\n      tag_24\n      jump\t// in\n    tag_251:\n        /* \"#utility.yul\":14504:14571   */\n      tag_252\n        /* \"#utility.yul\":14564:14570   */\n      dup3\n        /* \"#utility.yul\":14556:14562   */\n      dup3\n        /* \"#utility.yul\":14550:14554   */\n      dup6\n        /* \"#utility.yul\":14504:14571   */\n      tag_106\n      jump\t// in\n    tag_252:\n        /* \"#utility.yul\":14598:14599   */\n      0x00\n        /* \"#utility.yul\":14622:14626   */\n      0x20\n        /* \"#utility.yul\":14609:14626   */\n      swap1\n      pop\n        /* \"#utility.yul\":14654:14656   */\n      0x1f\n        /* \"#utility.yul\":14646:14652   */\n      dup4\n        /* \"#utility.yul\":14643:14657   */\n      gt\n        /* \"#utility.yul\":14671:14672   */\n      0x01\n        /* \"#utility.yul\":14666:15284   */\n      dup2\n      eq\n      tag_254\n      jumpi\n        /* \"#utility.yul\":15328:15329   */\n      0x00\n        /* \"#utility.yul\":15345:15351   */\n      dup5\n        /* \"#utility.yul\":15342:15419   */\n      iszero\n      tag_255\n      jumpi\n        /* \"#utility.yul\":15394:15403   */\n      dup3\n        /* \"#utility.yul\":15389:15392   */\n      dup8\n        /* \"#utility.yul\":15385:15404   */\n      add\n        /* \"#utility.yul\":15379:15405   */\n      mload\n        /* \"#utility.yul\":15370:15405   */\n      swap1\n      pop\n        /* \"#utility.yul\":15342:15419   */\n    tag_255:\n        /* \"#utility.yul\":15445:15512   */\n      tag_256\n        /* \"#utility.yul\":15505:15511   */\n      dup6\n        /* \"#utility.yul\":15498:15503   */\n      dup3\n        /* \"#utility.yul\":15445:15512   */\n      tag_109\n      jump\t// in\n    tag_256:\n        /* \"#utility.yul\":15439:15443   */\n      dup7\n        /* \"#utility.yul\":15432:15513   */\n      sstore\n        /* \"#utility.yul\":15301:15523   */\n      pop\n        /* \"#utility.yul\":14636:15523   */\n      jump(tag_253)\n        /* \"#utility.yul\":14666:15284   */\n    tag_254:\n        /* \"#utility.yul\":14718:14722   */\n      0x1f\n        /* \"#utility.yul\":14714:14723   */\n      not\n        /* \"#utility.yul\":14706:14712   */\n      dup5\n        /* \"#utility.yul\":14702:14724   */\n      and\n        /* \"#utility.yul\":14752:14789   */\n      tag_257\n        /* \"#utility.yul\":14784:14788   */\n      dup7\n        /* \"#utility.yul\":14752:14789   */\n      tag_95\n      jump\t// in\n    tag_257:\n        /* \"#utility.yul\":14811:14812   */\n      0x00\n        /* \"#utility.yul\":14825:15033   */\n    tag_258:\n        /* \"#utility.yul\":14839:14846   */\n      dup3\n        /* \"#utility.yul\":14836:14837   */\n      dup2\n        /* \"#utility.yul\":14833:14847   */\n      lt\n        /* \"#utility.yul\":14825:15033   */\n      iszero\n      tag_260\n      jumpi\n        /* \"#utility.yul\":14918:14927   */\n      dup5\n        /* \"#utility.yul\":14913:14916   */\n      dup10\n        /* \"#utility.yul\":14909:14928   */\n      add\n        /* \"#utility.yul\":14903:14929   */\n      mload\n        /* \"#utility.yul\":14895:14901   */\n      dup3\n        /* \"#utility.yul\":14888:14930   */\n      sstore\n        /* \"#utility.yul\":14969:14970   */\n      0x01\n        /* \"#utility.yul\":14961:14967   */\n      dup3\n        /* \"#utility.yul\":14957:14971   */\n      add\n        /* \"#utility.yul\":14947:14971   */\n      swap2\n      pop\n        /* \"#utility.yul\":15016:15018   */\n      0x20\n        /* \"#utility.yul\":15005:15014   */\n      dup6\n        /* \"#utility.yul\":15001:15019   */\n      add\n        /* \"#utility.yul\":14988:15019   */\n      swap5\n      pop\n        /* \"#utility.yul\":14862:14866   */\n      0x20\n        /* \"#utility.yul\":14859:14860   */\n      dup2\n        /* \"#utility.yul\":14855:14867   */\n      add\n        /* \"#utility.yul\":14850:14867   */\n      swap1\n      pop\n        /* \"#utility.yul\":14825:15033   */\n      jump(tag_258)\n    tag_260:\n        /* \"#utility.yul\":15061:15067   */\n      dup7\n        /* \"#utility.yul\":15052:15059   */\n      dup4\n        /* \"#utility.yul\":15049:15068   */\n      lt\n        /* \"#utility.yul\":15046:15225   */\n      iszero\n      tag_261\n      jumpi\n        /* \"#utility.yul\":15119:15128   */\n      dup5\n        /* \"#utility.yul\":15114:15117   */\n      dup10\n        /* \"#utility.yul\":15110:15129   */\n      add\n        /* \"#utility.yul\":15104:15130   */\n      mload\n        /* \"#utility.yul\":15162:15210   */\n      tag_262\n        /* \"#utility.yul\":15204:15208   */\n      0x1f\n        /* \"#utility.yul\":15196:15202   */\n      dup10\n        /* \"#utility.yul\":15192:15209   */\n      and\n        /* \"#utility.yul\":15181:15190   */\n      dup3\n        /* \"#utility.yul\":15162:15210   */\n      tag_108\n      jump\t// in\n    tag_262:\n        /* \"#utility.yul\":15154:15160   */\n      dup4\n        /* \"#utility.yul\":15147:15211   */\n      sstore\n        /* \"#utility.yul\":15069:15225   */\n      pop\n        /* \"#utility.yul\":15046:15225   */\n    tag_261:\n        /* \"#utility.yul\":15271:15272   */\n      0x01\n        /* \"#utility.yul\":15267:15268   */\n      0x02\n        /* \"#utility.yul\":15259:15265   */\n      dup9\n        /* \"#utility.yul\":15255:15269   */\n      mul\n        /* \"#utility.yul\":15251:15273   */\n      add\n        /* \"#utility.yul\":15245:15249   */\n      dup9\n        /* \"#utility.yul\":15238:15274   */\n      sstore\n        /* \"#utility.yul\":14673:15284   */\n      pop\n      pop\n      pop\n        /* \"#utility.yul\":14636:15523   */\n    tag_253:\n      pop\n        /* \"#utility.yul\":14226:15529   */\n      pop\n      pop\n      pop\n        /* \"#utility.yul\":14134:15529   */\n      pop\n      pop\n      jump\t// out\n        /* \"#utility.yul\":15535:15726   */\n    tag_60:\n        /* \"#utility.yul\":15575:15578   */\n      0x00\n        /* \"#utility.yul\":15594:15614   */\n      tag_264\n        /* \"#utility.yul\":15612:15613   */\n      dup3\n        /* \"#utility.yul\":15594:15614   */\n      tag_61\n      jump\t// in\n    tag_264:\n        /* \"#utility.yul\":15589:15614   */\n      swap2\n      pop\n        /* \"#utility.yul\":15628:15648   */\n      tag_265\n        /* \"#utility.yul\":15646:15647   */\n      dup4\n        /* \"#utility.yul\":15628:15648   */\n      tag_61\n      jump\t// in\n    tag_265:\n        /* \"#utility.yul\":15623:15648   */\n      swap3\n      pop\n        /* \"#utility.yul\":15671:15672   */\n      dup3\n        /* \"#utility.yul\":15668:15669   */\n      dup3\n        /* \"#utility.yul\":15664:15673   */\n      add\n        /* \"#utility.yul\":15657:15673   */\n      swap1\n      pop\n        /* \"#utility.yul\":15692:15695   */\n      dup1\n        /* \"#utility.yul\":15689:15690   */\n      dup3\n        /* \"#utility.yul\":15686:15696   */\n      gt\n        /* \"#utility.yul\":15683:15719   */\n      iszero\n      tag_266\n      jumpi\n        /* \"#utility.yul\":15699:15717   */\n      tag_267\n      tag_84\n      jump\t// in\n    tag_267:\n        /* \"#utility.yul\":15683:15719   */\n    tag_266:\n        /* \"#utility.yul\":15535:15726   */\n      swap3\n      swap2\n      pop\n      pop\n      jump\t// out\n\n    auxdata: 0xa26469706673582212208e71007d4366d7f5fcace929d91c669ff18f93dc287674ae1819b64e3beff29064736f6c634300081f0033\n}\n",
				"bytecode": {
					"linkReferences": {},
					"object": "6080604052348015600e575f5ffd5b50610d638061001c5f395ff3fe60806040526004361061003e575f3560e01c806312065fe0146100425780632e1a7d4d1461006c57806379b7f30314610094578063d0e30db0146100b0575b5f5ffd5b34801561004d575f5ffd5b506100566100ba565b6040516100639190610569565b60405180910390f35b348015610077575f5ffd5b50610092600480360381019061008d91906105bd565b61018c565b005b6100ae60048036038101906100a99190610724565b61032a565b005b6100b861046e565b005b5f5f5f5f3373ffffffffffffffffffffffffffffffffffffffff1673ffffffffffffffffffffffffffffffffffffffff1681526020019081526020015f205f01805461010590610798565b905003610147576040517f08c379a000000000000000000000000000000000000000000000000000000000815260040161013e90610822565b60405180910390fd5b5f5f3373ffffffffffffffffffffffffffffffffffffffff1673ffffffffffffffffffffffffffffffffffffffff1681526020019081526020015f2060010154905090565b5f5f5f3373ffffffffffffffffffffffffffffffffffffffff1673ffffffffffffffffffffffffffffffffffffffff1681526020019081526020015f2090505f815f0180546101da90610798565b90500361021c576040517f08c379a000000000000000000000000000000000000000000000000000000000815260040161021390610822565b60405180910390fd5b8060010154821115610263576040517f08c379a000000000000000000000000000000000000000000000000000000000815260040161025a9061088a565b60405180910390fd5b81816001015f82825461027691906108d5565b925050819055505f3373ffffffffffffffffffffffffffffffffffffffff16836040516102a290610935565b5f6040518083038185875af1925050503d805f81146102dc576040519150601f19603f3d011682016040523d82523d5f602084013e6102e1565b606091505b5050905080610325576040517f08c379a000000000000000000000000000000000000000000000000000000000815260040161031c90610993565b60405180910390fd5b505050565b5f5f5f3373ffffffffffffffffffffffffffffffffffffffff1673ffffffffffffffffffffffffffffffffffffffff1681526020019081526020015f205f01805461037490610798565b9050146103b6576040517f08c379a00000000000000000000000000000000000000000000000000000000081526004016103ad906109fb565b60405180910390fd5b5f8151036103f9576040517f08c379a00000000000000000000000000000000000000000000000000000000081526004016103f090610a63565b60405180910390fd5b6040518060400160405280828152602001348152505f5f3373ffffffffffffffffffffffffffffffffffffffff1673ffffffffffffffffffffffffffffffffffffffff1681526020019081526020015f205f820151815f01908161045d9190610c2b565b506020820151816001015590505050565b5f5f5f3373ffffffffffffffffffffffffffffffffffffffff1673ffffffffffffffffffffffffffffffffffffffff1681526020019081526020015f205f0180546104b890610798565b9050036104fa576040517f08c379a00000000000000000000000000000000000000000000000000000000081526004016104f190610822565b60405180910390fd5b345f5f3373ffffffffffffffffffffffffffffffffffffffff1673ffffffffffffffffffffffffffffffffffffffff1681526020019081526020015f206001015f8282546105489190610cfa565b92505081905550565b5f819050919050565b61056381610551565b82525050565b5f60208201905061057c5f83018461055a565b92915050565b5f604051905090565b5f5ffd5b5f5ffd5b61059c81610551565b81146105a6575f5ffd5b50565b5f813590506105b781610593565b92915050565b5f602082840312156105d2576105d161058b565b5b5f6105df848285016105a9565b91505092915050565b5f5ffd5b5f5ffd5b5f601f19601f8301169050919050565b7f4e487b71000000000000000000000000000000000000000000000000000000005f52604160045260245ffd5b610636826105f0565b810181811067ffffffffffffffff8211171561065557610654610600565b5b80604052505050565b5f610667610582565b9050610673828261062d565b919050565b5f67ffffffffffffffff82111561069257610691610600565b5b61069b826105f0565b9050602081019050919050565b828183375f83830152505050565b5f6106c86106c384610678565b61065e565b9050828152602081018484840111156106e4576106e36105ec565b5b6106ef8482856106a8565b509392505050565b5f82601f83011261070b5761070a6105e8565b5b813561071b8482602086016106b6565b91505092915050565b5f602082840312156107395761073861058b565b5b5f82013567ffffffffffffffff8111156107565761075561058f565b5b610762848285016106f7565b91505092915050565b7f4e487b71000000000000000000000000000000000000000000000000000000005f52602260045260245ffd5b5f60028204905060018216806107af57607f821691505b6020821081036107c2576107c161076b565b5b50919050565b5f82825260208201905092915050565b7f4e6f7420657869737473000000000000000000000000000000000000000000005f82015250565b5f61080c600a836107c8565b9150610817826107d8565b602082019050919050565b5f6020820190508181035f83015261083981610800565b9050919050565b7f496e737566666963656e742062616c616e6365000000000000000000000000005f82015250565b5f6108746013836107c8565b915061087f82610840565b602082019050919050565b5f6020820190508181035f8301526108a181610868565b9050919050565b7f4e487b71000000000000000000000000000000000000000000000000000000005f52601160045260245ffd5b5f6108df82610551565b91506108ea83610551565b9250828203905081811115610902576109016108a8565b5b92915050565b5f81905092915050565b50565b5f6109205f83610908565b915061092b82610912565b5f82019050919050565b5f61093f82610915565b9150819050919050565b7f4572726f7220656e206c61207472616e73616363696f6e0000000000000000005f82015250565b5f61097d6017836107c8565b915061098882610949565b602082019050919050565b5f6020820190508181035f8301526109aa81610971565b9050919050565b7f416c7265616479206578697374730000000000000000000000000000000000005f82015250565b5f6109e5600e836107c8565b91506109f0826109b1565b602082019050919050565b5f6020820190508181035f830152610a12816109d9565b9050919050565b7f456d707479206e616d65000000000000000000000000000000000000000000005f82015250565b5f610a4d600a836107c8565b9150610a5882610a19565b602082019050919050565b5f6020820190508181035f830152610a7a81610a41565b9050919050565b5f81519050919050565b5f819050815f5260205f209050919050565b5f6020601f8301049050919050565b5f82821b905092915050565b5f60088302610ae77fffffffffffffffffffffffffffffffffffffffffffffffffffffffffffffffff82610aac565b610af18683610aac565b95508019841693508086168417925050509392505050565b5f819050919050565b5f610b2c610b27610b2284610551565b610b09565b610551565b9050919050565b5f819050919050565b610b4583610b12565b610b59610b5182610b33565b848454610ab8565b825550505050565b5f5f905090565b610b70610b61565b610b7b818484610b3c565b505050565b5b81811015610b9e57610b935f82610b68565b600181019050610b81565b5050565b601f821115610be357610bb481610a8b565b610bbd84610a9d565b81016020851015610bcc578190505b610be0610bd885610a9d565b830182610b80565b50505b505050565b5f82821c905092915050565b5f610c035f1984600802610be8565b1980831691505092915050565b5f610c1b8383610bf4565b9150826002028217905092915050565b610c3482610a81565b67ffffffffffffffff811115610c4d57610c4c610600565b5b610c578254610798565b610c62828285610ba2565b5f60209050601f831160018114610c93575f8415610c81578287015190505b610c8b8582610c10565b865550610cf2565b601f198416610ca186610a8b565b5f5b82811015610cc857848901518255600182019150602085019450602081019050610ca3565b86831015610ce55784890151610ce1601f891682610bf4565b8355505b6001600288020188555050505b505050505050565b5f610d0482610551565b9150610d0f83610551565b9250828201905080821115610d2757610d266108a8565b5b9291505056fea26469706673582212208e71007d4366d7f5fcace929d91c669ff18f93dc287674ae1819b64e3beff29064736f6c634300081f0033",
					"opcodes": "PUSH1 0x80 PUSH1 0x40 MSTORE CALLVALUE DUP1 ISZERO PUSH1 0xE JUMPI PUSH0 PUSH0 REVERT JUMPDEST POP PUSH2 0xD63 DUP1 PUSH2 0x1C PUSH0 CODECOPY PUSH0 RETURN INVALID PUSH1 0x80 PUSH1 0x40 MSTORE PUSH1 0x4 CALLDATASIZE LT PUSH2 0x3E JUMPI PUSH0 CALLDATALOAD PUSH1 0xE0 SHR DUP1 PUSH4 0x12065FE0 EQ PUSH2 0x42 JUMPI DUP1 PUSH4 0x2E1A7D4D EQ PUSH2 0x6C JUMPI DUP1 PUSH4 0x79B7F303 EQ PUSH2 0x94 JUMPI DUP1 PUSH4 0xD0E30DB0 EQ PUSH2 0xB0 JUMPI JUMPDEST PUSH0 PUSH0 REVERT JUMPDEST CALLVALUE DUP1 ISZERO PUSH2 0x4D JUMPI PUSH0 PUSH0 REVERT JUMPDEST POP PUSH2 0x56 PUSH2 0xBA JUMP JUMPDEST PUSH1 0x40 MLOAD PUSH2 0x63 SWAP2 SWAP1 PUSH2 0x569 JUMP JUMPDEST PUSH1 0x40 MLOAD DUP1 SWAP2 SUB SWAP1 RETURN JUMPDEST CALLVALUE DUP1 ISZERO PUSH2 0x77 JUMPI PUSH0 PUSH0 REVERT JUMPDEST POP PUSH2 0x92 PUSH1 0x4 DUP1 CALLDATASIZE SUB DUP2 ADD SWAP1 PUSH2 0x8D SWAP2 SWAP1 PUSH2 0x5BD JUMP JUMPDEST PUSH2 0x18C JUMP JUMPDEST STOP JUMPDEST PUSH2 0xAE PUSH1 0x4 DUP1 CALLDATASIZE SUB DUP2 ADD SWAP1 PUSH2 0xA9 SWAP2 SWAP1 PUSH2 0x724 JUMP JUMPDEST PUSH2 0x32A JUMP JUMPDEST STOP JUMPDEST PUSH2 0xB8 PUSH2 0x46E JUMP JUMPDEST STOP JUMPDEST PUSH0 PUSH0 PUSH0 PUSH0 CALLER PUSH20 0xFFFFFFFFFFFFFFFFFFFFFFFFFFFFFFFFFFFFFFFF AND PUSH20 0xFFFFFFFFFFFFFFFFFFFFFFFFFFFFFFFFFFFFFFFF AND DUP2 MSTORE PUSH1 0x20 ADD SWAP1 DUP2 MSTORE PUSH1 0x20 ADD PUSH0 KECCAK256 PUSH0 ADD DUP1 SLOAD PUSH2 0x105 SWAP1 PUSH2 0x798 JUMP JUMPDEST SWAP1 POP SUB PUSH2 0x147 JUMPI PUSH1 0x40 MLOAD PUSH32 0x8C379A000000000000000000000000000000000000000000000000000000000 DUP2 MSTORE PUSH1 0x4 ADD PUSH2 0x13E SWAP1 PUSH2 0x822 JUMP JUMPDEST PUSH1 0x40 MLOAD DUP1 SWAP2 SUB SWAP1 REVERT JUMPDEST PUSH0 PUSH0 CALLER PUSH20 0xFFFFFFFFFFFFFFFFFFFFFFFFFFFFFFFFFFFFFFFF AND PUSH20 0xFFFFFFFFFFFFFFFFFFFFFFFFFFFFFFFFFFFFFFFF AND DUP2 MSTORE PUSH1 0x20 ADD SWAP1 DUP2 MSTORE PUSH1 0x20 ADD PUSH0 KECCAK256 PUSH1 0x1 ADD SLOAD SWAP1 POP SWAP1 JUMP JUMPDEST PUSH0 PUSH0 PUSH0 CALLER PUSH20 0xFFFFFFFFFFFFFFFFFFFFFFFFFFFFFFFFFFFFFFFF AND PUSH20 0xFFFFFFFFFFFFFFFFFFFFFFFFFFFFFFFFFFFFFFFF AND DUP2 MSTORE PUSH1 0x20 ADD SWAP1 DUP2 MSTORE PUSH1 0x20 ADD PUSH0 KECCAK256 SWAP1 POP PUSH0 DUP2 PUSH0 ADD DUP1 SLOAD PUSH2 0x1DA SWAP1 PUSH2 0x798 JUMP JUMPDEST SWAP1 POP SUB PUSH2 0x21C JUMPI PUSH1 0x40 MLOAD PUSH32 0x8C379A000000000000000000000000000000000000000000000000000000000 DUP2 MSTORE PUSH1 0x4 ADD PUSH2 0x213 SWAP1 PUSH2 0x822 JUMP JUMPDEST PUSH1 0x40 MLOAD DUP1 SWAP2 SUB SWAP1 REVERT JUMPDEST DUP1 PUSH1 0x1 ADD SLOAD DUP3 GT ISZERO PUSH2 0x263 JUMPI PUSH1 0x40 MLOAD PUSH32 0x8C379A000000000000000000000000000000000000000000000000000000000 DUP2 MSTORE PUSH1 0x4 ADD PUSH2 0x25A SWAP1 PUSH2 0x88A JUMP JUMPDEST PUSH1 0x40 MLOAD DUP1 SWAP2 SUB SWAP1 REVERT JUMPDEST DUP2 DUP2 PUSH1 0x1 ADD PUSH0 DUP3 DUP3 SLOAD PUSH2 0x276 SWAP2 SWAP1 PUSH2 0x8D5 JUMP JUMPDEST SWAP3 POP POP DUP2 SWAP1 SSTORE POP PUSH0 CALLER PUSH20 0xFFFFFFFFFFFFFFFFFFFFFFFFFFFFFFFFFFFFFFFF AND DUP4 PUSH1 0x40 MLOAD PUSH2 0x2A2 SWAP1 PUSH2 0x935 JUMP JUMPDEST PUSH0 PUSH1 0x40 MLOAD DUP1 DUP4 SUB DUP2 DUP6 DUP8 GAS CALL SWAP3 POP POP POP RETURNDATASIZE DUP1 PUSH0 DUP2 EQ PUSH2 0x2DC JUMPI PUSH1 0x40 MLOAD SWAP2 POP PUSH1 0x1F NOT PUSH1 0x3F RETURNDATASIZE ADD AND DUP3 ADD PUSH1 0x40 MSTORE RETURNDATASIZE DUP3 MSTORE RETURNDATASIZE PUSH0 PUSH1 0x20 DUP5 ADD RETURNDATACOPY PUSH2 0x2E1 JUMP JUMPDEST PUSH1 0x60 SWAP2 POP JUMPDEST POP POP SWAP1 POP DUP1 PUSH2 0x325 JUMPI PUSH1 0x40 MLOAD PUSH32 0x8C379A000000000000000000000000000000000000000000000000000000000 DUP2 MSTORE PUSH1 0x4 ADD PUSH2 0x31C SWAP1 PUSH2 0x993 JUMP JUMPDEST PUSH1 0x40 MLOAD DUP1 SWAP2 SUB SWAP1 REVERT JUMPDEST POP POP POP JUMP JUMPDEST PUSH0 PUSH0 PUSH0 CALLER PUSH20 0xFFFFFFFFFFFFFFFFFFFFFFFFFFFFFFFFFFFFFFFF AND PUSH20 0xFFFFFFFFFFFFFFFFFFFFFFFFFFFFFFFFFFFFFFFF AND DUP2 MSTORE PUSH1 0x20 ADD SWAP1 DUP2 MSTORE PUSH1 0x20 ADD PUSH0 KECCAK256 PUSH0 ADD DUP1 SLOAD PUSH2 0x374 SWAP1 PUSH2 0x798 JUMP JUMPDEST SWAP1 POP EQ PUSH2 0x3B6 JUMPI PUSH1 0x40 MLOAD PUSH32 0x8C379A000000000000000000000000000000000000000000000000000000000 DUP2 MSTORE PUSH1 0x4 ADD PUSH2 0x3AD SWAP1 PUSH2 0x9FB JUMP JUMPDEST PUSH1 0x40 MLOAD DUP1 SWAP2 SUB SWAP1 REVERT JUMPDEST PUSH0 DUP2 MLOAD SUB PUSH2 0x3F9 JUMPI PUSH1 0x40 MLOAD PUSH32 0x8C379A000000000000000000000000000000000000000000000000000000000 DUP2 MSTORE PUSH1 0x4 ADD PUSH2 0x3F0 SWAP1 PUSH2 0xA63 JUMP JUMPDEST PUSH1 0x40 MLOAD DUP1 SWAP2 SUB SWAP1 REVERT JUMPDEST PUSH1 0x40 MLOAD DUP1 PUSH1 0x40 ADD PUSH1 0x40 MSTORE DUP1 DUP3 DUP2 MSTORE PUSH1 0x20 ADD CALLVALUE DUP2 MSTORE POP PUSH0 PUSH0 CALLER PUSH20 0xFFFFFFFFFFFFFFFFFFFFFFFFFFFFFFFFFFFFFFFF AND PUSH20 0xFFFFFFFFFFFFFFFFFFFFFFFFFFFFFFFFFFFFFFFF AND DUP2 MSTORE PUSH1 0x20 ADD SWAP1 DUP2 MSTORE PUSH1 0x20 ADD PUSH0 KECCAK256 PUSH0 DUP3 ADD MLOAD DUP2 PUSH0 ADD SWAP1 DUP2 PUSH2 0x45D SWAP2 SWAP1 PUSH2 0xC2B JUMP JUMPDEST POP PUSH1 0x20 DUP3 ADD MLOAD DUP2 PUSH1 0x1 ADD SSTORE SWAP1 POP POP POP JUMP JUMPDEST PUSH0 PUSH0 PUSH0 CALLER PUSH20 0xFFFFFFFFFFFFFFFFFFFFFFFFFFFFFFFFFFFFFFFF AND PUSH20 0xFFFFFFFFFFFFFFFFFFFFFFFFFFFFFFFFFFFFFFFF AND DUP2 MSTORE PUSH1 0x20 ADD SWAP1 DUP2 MSTORE PUSH1 0x20 ADD PUSH0 KECCAK256 PUSH0 ADD DUP1 SLOAD PUSH2 0x4B8 SWAP1 PUSH2 0x798 JUMP JUMPDEST SWAP1 POP SUB PUSH2 0x4FA JUMPI PUSH1 0x40 MLOAD PUSH32 0x8C379A000000000000000000000000000000000000000000000000000000000 DUP2 MSTORE PUSH1 0x4 ADD PUSH2 0x4F1 SWAP1 PUSH2 0x822 JUMP JUMPDEST PUSH1 0x40 MLOAD DUP1 SWAP2 SUB SWAP1 REVERT JUMPDEST CALLVALUE PUSH0 PUSH0 CALLER PUSH20 0xFFFFFFFFFFFFFFFFFFFFFFFFFFFFFFFFFFFFFFFF AND PUSH20 0xFFFFFFFFFFFFFFFFFFFFFFFFFFFFFFFFFFFFFFFF AND DUP2 MSTORE PUSH1 0x20 ADD SWAP1 DUP2 MSTORE PUSH1 0x20 ADD PUSH0 KECCAK256 PUSH1 0x1 ADD PUSH0 DUP3 DUP3 SLOAD PUSH2 0x548 SWAP2 SWAP1 PUSH2 0xCFA JUMP JUMPDEST SWAP3 POP POP DUP2 SWAP1 SSTORE POP JUMP JUMPDEST PUSH0 DUP2 SWAP1 POP SWAP2 SWAP1 POP JUMP JUMPDEST PUSH2 0x563 DUP2 PUSH2 0x551 JUMP JUMPDEST DUP3 MSTORE POP POP JUMP JUMPDEST PUSH0 PUSH1 0x20 DUP3 ADD SWAP1 POP PUSH2 0x57C PUSH0 DUP4 ADD DUP5 PUSH2 0x55A JUMP JUMPDEST SWAP3 SWAP2 POP POP JUMP JUMPDEST PUSH0 PUSH1 0x40 MLOAD SWAP1 POP SWAP1 JUMP JUMPDEST PUSH0 PUSH0 REVERT JUMPDEST PUSH0 PUSH0 REVERT JUMPDEST PUSH2 0x59C DUP2 PUSH2 0x551 JUMP JUMPDEST DUP2 EQ PUSH2 0x5A6 JUMPI PUSH0 PUSH0 REVERT JUMPDEST POP JUMP JUMPDEST PUSH0 DUP2 CALLDATALOAD SWAP1 POP PUSH2 0x5B7 DUP2 PUSH2 0x593 JUMP JUMPDEST SWAP3 SWAP2 POP POP JUMP JUMPDEST PUSH0 PUSH1 0x20 DUP3 DUP5 SUB SLT ISZERO PUSH2 0x5D2 JUMPI PUSH2 0x5D1 PUSH2 0x58B JUMP JUMPDEST JUMPDEST PUSH0 PUSH2 0x5DF DUP5 DUP3 DUP6 ADD PUSH2 0x5A9 JUMP JUMPDEST SWAP2 POP POP SWAP3 SWAP2 POP POP JUMP JUMPDEST PUSH0 PUSH0 REVERT JUMPDEST PUSH0 PUSH0 REVERT JUMPDEST PUSH0 PUSH1 0x1F NOT PUSH1 0x1F DUP4 ADD AND SWAP1 POP SWAP2 SWAP1 POP JUMP JUMPDEST PUSH32 0x4E487B7100000000000000000000000000000000000000000000000000000000 PUSH0 MSTORE PUSH1 0x41 PUSH1 0x4 MSTORE PUSH1 0x24 PUSH0 REVERT JUMPDEST PUSH2 0x636 DUP3 PUSH2 0x5F0 JUMP JUMPDEST DUP2 ADD DUP2 DUP2 LT PUSH8 0xFFFFFFFFFFFFFFFF DUP3 GT OR ISZERO PUSH2 0x655 JUMPI PUSH2 0x654 PUSH2 0x600 JUMP JUMPDEST JUMPDEST DUP1 PUSH1 0x40 MSTORE POP POP POP JUMP JUMPDEST PUSH0 PUSH2 0x667 PUSH2 0x582 JUMP JUMPDEST SWAP1 POP PUSH2 0x673 DUP3 DUP3 PUSH2 0x62D JUMP JUMPDEST SWAP2 SWAP1 POP JUMP JUMPDEST PUSH0 PUSH8 0xFFFFFFFFFFFFFFFF DUP3 GT ISZERO PUSH2 0x692 JUMPI PUSH2 0x691 PUSH2 0x600 JUMP JUMPDEST JUMPDEST PUSH2 0x69B DUP3 PUSH2 0x5F0 JUMP JUMPDEST SWAP1 POP PUSH1 0x20 DUP2 ADD SWAP1 POP SWAP2 SWAP1 POP JUMP JUMPDEST DUP3 DUP2 DUP4 CALLDATACOPY PUSH0 DUP4 DUP4 ADD MSTORE POP POP POP JUMP JUMPDEST PUSH0 PUSH2 0x6C8 PUSH2 0x6C3 DUP5 PUSH2 0x678 JUMP JUMPDEST PUSH2 0x65E JUMP JUMPDEST SWAP1 POP DUP3 DUP2 MSTORE PUSH1 0x20 DUP2 ADD DUP5 DUP5 DUP5 ADD GT ISZERO PUSH2 0x6E4 JUMPI PUSH2 0x6E3 PUSH2 0x5EC JUMP JUMPDEST JUMPDEST PUSH2 0x6EF DUP5 DUP3 DUP6 PUSH2 0x6A8 JUMP JUMPDEST POP SWAP4 SWAP3 POP POP POP JUMP JUMPDEST PUSH0 DUP3 PUSH1 0x1F DUP4 ADD SLT PUSH2 0x70B JUMPI PUSH2 0x70A PUSH2 0x5E8 JUMP JUMPDEST JUMPDEST DUP2 CALLDATALOAD PUSH2 0x71B DUP5 DUP3 PUSH1 0x20 DUP7 ADD PUSH2 0x6B6 JUMP JUMPDEST SWAP2 POP POP SWAP3 SWAP2 POP POP JUMP JUMPDEST PUSH0 PUSH1 0x20 DUP3 DUP5 SUB SLT ISZERO PUSH2 0x739 JUMPI PUSH2 0x738 PUSH2 0x58B JUMP JUMPDEST JUMPDEST PUSH0 DUP3 ADD CALLDATALOAD PUSH8 0xFFFFFFFFFFFFFFFF DUP2 GT ISZERO PUSH2 0x756 JUMPI PUSH2 0x755 PUSH2 0x58F JUMP JUMPDEST JUMPDEST PUSH2 0x762 DUP5 DUP3 DUP6 ADD PUSH2 0x6F7 JUMP JUMPDEST SWAP2 POP POP SWAP3 SWAP2 POP POP JUMP JUMPDEST PUSH32 0x4E487B7100000000000000000000000000000000000000000000000000000000 PUSH0 MSTORE PUSH1 0x22 PUSH1 0x4 MSTORE PUSH1 0x24 PUSH0 REVERT JUMPDEST PUSH0 PUSH1 0x2 DUP3 DIV SWAP1 POP PUSH1 0x1 DUP3 AND DUP1 PUSH2 0x7AF JUMPI PUSH1 0x7F DUP3 AND SWAP2 POP JUMPDEST PUSH1 0x20 DUP3 LT DUP2 SUB PUSH2 0x7C2 JUMPI PUSH2 0x7C1 PUSH2 0x76B JUMP JUMPDEST JUMPDEST POP SWAP2 SWAP1 POP JUMP JUMPDEST PUSH0 DUP3 DUP3 MSTORE PUSH1 0x20 DUP3 ADD SWAP1 POP SWAP3 SWAP2 POP POP JUMP JUMPDEST PUSH32 0x4E6F742065786973747300000000000000000000000000000000000000000000 PUSH0 DUP3 ADD MSTORE POP JUMP JUMPDEST PUSH0 PUSH2 0x80C PUSH1 0xA DUP4 PUSH2 0x7C8 JUMP JUMPDEST SWAP2 POP PUSH2 0x817 DUP3 PUSH2 0x7D8 JUMP JUMPDEST PUSH1 0x20 DUP3 ADD SWAP1 POP SWAP2 SWAP1 POP JUMP JUMPDEST PUSH0 PUSH1 0x20 DUP3 ADD SWAP1 POP DUP2 DUP2 SUB PUSH0 DUP4 ADD MSTORE PUSH2 0x839 DUP2 PUSH2 0x800 JUMP JUMPDEST SWAP1 POP SWAP2 SWAP1 POP JUMP JUMPDEST PUSH32 0x496E737566666963656E742062616C616E636500000000000000000000000000 PUSH0 DUP3 ADD MSTORE POP JUMP JUMPDEST PUSH0 PUSH2 0x874 PUSH1 0x13 DUP4 PUSH2 0x7C8 JUMP JUMPDEST SWAP2 POP PUSH2 0x87F DUP3 PUSH2 0x840 JUMP JUMPDEST PUSH1 0x20 DUP3 ADD SWAP1 POP SWAP2 SWAP1 POP JUMP JUMPDEST PUSH0 PUSH1 0x20 DUP3 ADD SWAP1 POP DUP2 DUP2 SUB PUSH0 DUP4 ADD MSTORE PUSH2 0x8A1 DUP2 PUSH2 0x868 JUMP JUMPDEST SWAP1 POP SWAP2 SWAP1 POP JUMP JUMPDEST PUSH32 0x4E487B7100000000000000000000000000000000000000000000000000000000 PUSH0 MSTORE PUSH1 0x11 PUSH1 0x4 MSTORE PUSH1 0x24 PUSH0 REVERT JUMPDEST PUSH0 PUSH2 0x8DF DUP3 PUSH2 0x551 JUMP JUMPDEST SWAP2 POP PUSH2 0x8EA DUP4 PUSH2 0x551 JUMP JUMPDEST SWAP3 POP DUP3 DUP3 SUB SWAP1 POP DUP2 DUP2 GT ISZERO PUSH2 0x902 JUMPI PUSH2 0x901 PUSH2 0x8A8 JUMP JUMPDEST JUMPDEST SWAP3 SWAP2 POP POP JUMP JUMPDEST PUSH0 DUP2 SWAP1 POP SWAP3 SWAP2 POP POP JUMP JUMPDEST POP JUMP JUMPDEST PUSH0 PUSH2 0x920 PUSH0 DUP4 PUSH2 0x908 JUMP JUMPDEST SWAP2 POP PUSH2 0x92B DUP3 PUSH2 0x912 JUMP JUMPDEST PUSH0 DUP3 ADD SWAP1 POP SWAP2 SWAP1 POP JUMP JUMPDEST PUSH0 PUSH2 0x93F DUP3 PUSH2 0x915 JUMP JUMPDEST SWAP2 POP DUP2 SWAP1 POP SWAP2 SWAP1 POP JUMP JUMPDEST PUSH32 0x4572726F7220656E206C61207472616E73616363696F6E000000000000000000 PUSH0 DUP3 ADD MSTORE POP JUMP JUMPDEST PUSH0 PUSH2 0x97D PUSH1 0x17 DUP4 PUSH2 0x7C8 JUMP JUMPDEST SWAP2 POP PUSH2 0x988 DUP3 PUSH2 0x949 JUMP JUMPDEST PUSH1 0x20 DUP3 ADD SWAP1 POP SWAP2 SWAP1 POP JUMP JUMPDEST PUSH0 PUSH1 0x20 DUP3 ADD SWAP1 POP DUP2 DUP2 SUB PUSH0 DUP4 ADD MSTORE PUSH2 0x9AA DUP2 PUSH2 0x971 JUMP JUMPDEST SWAP1 POP SWAP2 SWAP1 POP JUMP JUMPDEST PUSH32 0x416C726561647920657869737473000000000000000000000000000000000000 PUSH0 DUP3 ADD MSTORE POP JUMP JUMPDEST PUSH0 PUSH2 0x9E5 PUSH1 0xE DUP4 PUSH2 0x7C8 JUMP JUMPDEST SWAP2 POP PUSH2 0x9F0 DUP3 PUSH2 0x9B1 JUMP JUMPDEST PUSH1 0x20 DUP3 ADD SWAP1 POP SWAP2 SWAP1 POP JUMP JUMPDEST PUSH0 PUSH1 0x20 DUP3 ADD SWAP1 POP DUP2 DUP2 SUB PUSH0 DUP4 ADD MSTORE PUSH2 0xA12 DUP2 PUSH2 0x9D9 JUMP JUMPDEST SWAP1 POP SWAP2 SWAP1 POP JUMP JUMPDEST PUSH32 0x456D707479206E616D6500000000000000000000000000000000000000000000 PUSH0 DUP3 ADD MSTORE POP JUMP JUMPDEST PUSH0 PUSH2 0xA4D PUSH1 0xA DUP4 PUSH2 0x7C8 JUMP JUMPDEST SWAP2 POP PUSH2 0xA58 DUP3 PUSH2 0xA19 JUMP JUMPDEST PUSH1 0x20 DUP3 ADD SWAP1 POP SWAP2 SWAP1 POP JUMP JUMPDEST PUSH0 PUSH1 0x20 DUP3 ADD SWAP1 POP DUP2 DUP2 SUB PUSH0 DUP4 ADD MSTORE PUSH2 0xA7A DUP2 PUSH2 0xA41 JUMP JUMPDEST SWAP1 POP SWAP2 SWAP1 POP JUMP JUMPDEST PUSH0 DUP2 MLOAD SWAP1 POP SWAP2 SWAP1 POP JUMP JUMPDEST PUSH0 DUP2 SWAP1 POP DUP2 PUSH0 MSTORE PUSH1 0x20 PUSH0 KECCAK256 SWAP1 POP SWAP2 SWAP1 POP JUMP JUMPDEST PUSH0 PUSH1 0x20 PUSH1 0x1F DUP4 ADD DIV SWAP1 POP SWAP2 SWAP1 POP JUMP JUMPDEST PUSH0 DUP3 DUP3 SHL SWAP1 POP SWAP3 SWAP2 POP POP JUMP JUMPDEST PUSH0 PUSH1 0x8 DUP4 MUL PUSH2 0xAE7 PUSH32 0xFFFFFFFFFFFFFFFFFFFFFFFFFFFFFFFFFFFFFFFFFFFFFFFFFFFFFFFFFFFFFFFF DUP3 PUSH2 0xAAC JUMP JUMPDEST PUSH2 0xAF1 DUP7 DUP4 PUSH2 0xAAC JUMP JUMPDEST SWAP6 POP DUP1 NOT DUP5 AND SWAP4 POP DUP1 DUP7 AND DUP5 OR SWAP3 POP POP POP SWAP4 SWAP3 POP POP POP JUMP JUMPDEST PUSH0 DUP2 SWAP1 POP SWAP2 SWAP1 POP JUMP JUMPDEST PUSH0 PUSH2 0xB2C PUSH2 0xB27 PUSH2 0xB22 DUP5 PUSH2 0x551 JUMP JUMPDEST PUSH2 0xB09 JUMP JUMPDEST PUSH2 0x551 JUMP JUMPDEST SWAP1 POP SWAP2 SWAP1 POP JUMP JUMPDEST PUSH0 DUP2 SWAP1 POP SWAP2 SWAP1 POP JUMP JUMPDEST PUSH2 0xB45 DUP4 PUSH2 0xB12 JUMP JUMPDEST PUSH2 0xB59 PUSH2 0xB51 DUP3 PUSH2 0xB33 JUMP JUMPDEST DUP5 DUP5 SLOAD PUSH2 0xAB8 JUMP JUMPDEST DUP3 SSTORE POP POP POP POP JUMP JUMPDEST PUSH0 PUSH0 SWAP1 POP SWAP1 JUMP JUMPDEST PUSH2 0xB70 PUSH2 0xB61 JUMP JUMPDEST PUSH2 0xB7B DUP2 DUP5 DUP5 PUSH2 0xB3C JUMP JUMPDEST POP POP POP JUMP JUMPDEST JUMPDEST DUP2 DUP2 LT ISZERO PUSH2 0xB9E JUMPI PUSH2 0xB93 PUSH0 DUP3 PUSH2 0xB68 JUMP JUMPDEST PUSH1 0x1 DUP2 ADD SWAP1 POP PUSH2 0xB81 JUMP JUMPDEST POP POP JUMP JUMPDEST PUSH1 0x1F DUP3 GT ISZERO PUSH2 0xBE3 JUMPI PUSH2 0xBB4 DUP2 PUSH2 0xA8B JUMP JUMPDEST PUSH2 0xBBD DUP5 PUSH2 0xA9D JUMP JUMPDEST DUP2 ADD PUSH1 0x20 DUP6 LT ISZERO PUSH2 0xBCC JUMPI DUP2 SWAP1 POP JUMPDEST PUSH2 0xBE0 PUSH2 0xBD8 DUP6 PUSH2 0xA9D JUMP JUMPDEST DUP4 ADD DUP3 PUSH2 0xB80 JUMP JUMPDEST POP POP JUMPDEST POP POP POP JUMP JUMPDEST PUSH0 DUP3 DUP3 SHR SWAP1 POP SWAP3 SWAP2 POP POP JUMP JUMPDEST PUSH0 PUSH2 0xC03 PUSH0 NOT DUP5 PUSH1 0x8 MUL PUSH2 0xBE8 JUMP JUMPDEST NOT DUP1 DUP4 AND SWAP2 POP POP SWAP3 SWAP2 POP POP JUMP JUMPDEST PUSH0 PUSH2 0xC1B DUP4 DUP4 PUSH2 0xBF4 JUMP JUMPDEST SWAP2 POP DUP3 PUSH1 0x2 MUL DUP3 OR SWAP1 POP SWAP3 SWAP2 POP POP JUMP JUMPDEST PUSH2 0xC34 DUP3 PUSH2 0xA81 JUMP JUMPDEST PUSH8 0xFFFFFFFFFFFFFFFF DUP2 GT ISZERO PUSH2 0xC4D JUMPI PUSH2 0xC4C PUSH2 0x600 JUMP JUMPDEST JUMPDEST PUSH2 0xC57 DUP3 SLOAD PUSH2 0x798 JUMP JUMPDEST PUSH2 0xC62 DUP3 DUP3 DUP6 PUSH2 0xBA2 JUMP JUMPDEST PUSH0 PUSH1 0x20 SWAP1 POP PUSH1 0x1F DUP4 GT PUSH1 0x1 DUP2 EQ PUSH2 0xC93 JUMPI PUSH0 DUP5 ISZERO PUSH2 0xC81 JUMPI DUP3 DUP8 ADD MLOAD SWAP1 POP JUMPDEST PUSH2 0xC8B DUP6 DUP3 PUSH2 0xC10 JUMP JUMPDEST DUP7 SSTORE POP PUSH2 0xCF2 JUMP JUMPDEST PUSH1 0x1F NOT DUP5 AND PUSH2 0xCA1 DUP7 PUSH2 0xA8B JUMP JUMPDEST PUSH0 JUMPDEST DUP3 DUP2 LT ISZERO PUSH2 0xCC8 JUMPI DUP5 DUP10 ADD MLOAD DUP3 SSTORE PUSH1 0x1 DUP3 ADD SWAP2 POP PUSH1 0x20 DUP6 ADD SWAP5 POP PUSH1 0x20 DUP2 ADD SWAP1 POP PUSH2 0xCA3 JUMP JUMPDEST DUP7 DUP4 LT ISZERO PUSH2 0xCE5 JUMPI DUP5 DUP10 ADD MLOAD PUSH2 0xCE1 PUSH1 0x1F DUP10 AND DUP3 PUSH2 0xBF4 JUMP JUMPDEST DUP4 SSTORE POP JUMPDEST PUSH1 0x1 PUSH1 0x2 DUP9 MUL ADD DUP9 SSTORE POP POP POP JUMPDEST POP POP POP POP POP POP JUMP JUMPDEST PUSH0 PUSH2 0xD04 DUP3 PUSH2 0x551 JUMP JUMPDEST SWAP2 POP PUSH2 0xD0F DUP4 PUSH2 0x551 JUMP JUMPDEST SWAP3 POP DUP3 DUP3 ADD SWAP1 POP DUP1 DUP3 GT ISZERO PUSH2 0xD27 JUMPI PUSH2 0xD26 PUSH2 0x8A8 JUMP JUMPDEST JUMPDEST SWAP3 SWAP2 POP POP JUMP INVALID LOG2 PUSH5 0x6970667358 0x22 SLT KECCAK256 DUP15 PUSH18 0x7D4366D7F5FCACE929D91C669FF18F93DC 0x28 PUSH23 0x74AE1819B64E3BEFF29064736F6C634300081F00330000 "
				},
				"gasEstimates": {
					"creation": {
						"codeDepositCost": "685400",
						"executionCost": "719",
						"totalCost": "686119"
					},
					"external": {
						"addClient(string)": "infinite",
						"deposit()": "infinite",
						"getBalance()": "4847",
						"withdraw(uint256)": "infinite"
					}
				},
				"methodIdentifiers": {
					"addClient(string)": "79b7f303",
					"deposit()": "d0e30db0",
					"getBalance()": "12065fe0",
					"withdraw(uint256)": "2e1a7d4d"
				}
			},
			"storageLayout": {
				"storage": [
					{
						"astId": 11,
						"contract": "practica_1/piggyMapping.sol:piggyMapping",
						"label": "mapa",
						"offset": 0,
						"slot": "0",
						"type": "t_mapping(t_address,t_struct(Cliente)6_storage)"
					}
				],
				"types": {
					"t_address": {
						"encoding": "inplace",
						"label": "address",
						"numberOfBytes": "20"
					},
					"t_mapping(t_address,t_struct(Cliente)6_storage)": {
						"encoding": "mapping",
						"key": "t_address",
						"label": "mapping(address => struct piggyMapping.Cliente)",
						"numberOfBytes": "32",
						"value": "t_struct(Cliente)6_storage"
					},
					"t_string_storage": {
						"encoding": "bytes",
						"label": "string",
						"numberOfBytes": "32"
					},
					"t_struct(Cliente)6_storage": {
						"encoding": "inplace",
						"label": "struct piggyMapping.Cliente",
						"members": [
							{
								"astId": 3,
								"contract": "practica_1/piggyMapping.sol:piggyMapping",
								"label": "name",
								"offset": 0,
								"slot": "0",
								"type": "t_string_storage"
							},
							{
								"astId": 5,
								"contract": "practica_1/piggyMapping.sol:piggyMapping",
								"label": "cantidad",
								"offset": 0,
								"slot": "1",
								"type": "t_uint256"
							}
						],
						"numberOfBytes": "64"
					},
					"t_uint256": {
						"encoding": "inplace",
						"label": "uint256",
						"numberOfBytes": "32"
					}
				}
			},
			"userdoc": {
				"kind": "user",
				"methods": {},
				"version": 1
			}
		}
	}
}