{
	"data": {
		"bytecode": {
			"linkReferences": {},
			"object": "60a060405234801561000f575f5ffd5b50604051610b94380380610b94833981810160405281019061003191906102e0565b8282828160018190555080608081815250508167ffffffffffffffff81111561005d5761005c610330565b5b60405190808252806020026020018201604052801561008b5781602001602082028036833780820191505090505b50600290805190602001906100a19291906101e9565b506100b061012f60201b60201c565b505080600360026101000a81548173ffffffffffffffffffffffffffffffffffffffff021916908373ffffffffffffffffffffffffffffffffffffffff1602179055505f60035f6101000a81548160ff0219169083151502179055505f600360016101000a81548160ff0219169083151502179055505050505061035d565b60015f5f601c81526020019081526020015f208190555060015f5f600881526020019081526020015f208190555060015f5f602981526020019081526020015f208190555060055f5f602c81526020019081526020015f208190555060055f5f602a81526020019081526020015f208190555060045f5f603181526020019081526020015f208190555060045f5f600981526020019081526020015f208190555060025f5f601d81526020019081526020015f2081905550565b828054828255905f5260205f20908101928215610223579160200282015b82811115610222578251825591602001919060010190610207565b5b5090506102309190610234565b5090565b5b8082111561024b575f815f905550600101610235565b5090565b5f5ffd5b5f73ffffffffffffffffffffffffffffffffffffffff82169050919050565b5f61027c82610253565b9050919050565b61028c81610272565b8114610296575f5ffd5b50565b5f815190506102a781610283565b92915050565b5f819050919050565b6102bf816102ad565b81146102c9575f5ffd5b50565b5f815190506102da816102b6565b92915050565b5f5f5f606084860312156102f7576102f661024f565b5b5f61030486828701610299565b9350506020610315868287016102cc565b9250506040610326868287016102cc565b9150509250925092565b7f4e487b71000000000000000000000000000000000000000000000000000000005f52604160045260245ffd5b60805161081f6103755f395f6103d8015261081f5ff3fe608060405234801561000f575f5ffd5b5060043610610055575f3560e01c80633eb76b9c146100595780634717f97c14610075578063789d9e8a14610093578063affc0670146100b1578063c631b292146100bb575b5f5ffd5b610073600480360381019061006e9190610477565b6100c5565b005b61007d610192565b60405161008a9190610559565b60405180910390f35b61009b61023d565b6040516100a89190610593565b60405180910390f35b6100b961024f565b005b6100c36102fc565b005b60011515600360019054906101000a900460ff1615151480156100f957505f151560035f9054906101000a900460ff161515145b610138576040517f08c379a000000000000000000000000000000000000000000000000000000000815260040161012f90610606565b60405180910390fd5b5f610142826103c2565b905080610184576040517f08c379a000000000000000000000000000000000000000000000000000000000815260040161017b9061066e565b60405180910390fd5b61018d826103c2565b505050565b60606001151560035f9054906101000a900460ff161515146101e9576040517f08c379a00000000000000000000000000000000000000000000000000000000081526004016101e0906106d6565b60405180910390fd5b600280548060200260200160405190810160405280929190818152602001828054801561023357602002820191905f5260205f20905b81548152602001906001019080831161021f575b5050505050905090565b60035f9054906101000a900460ff1681565b3373ffffffffffffffffffffffffffffffffffffffff16600360029054906101000a900473ffffffffffffffffffffffffffffffffffffffff1673ffffffffffffffffffffffffffffffffffffffff16146102df576040517f08c379a00000000000000000000000000000000000000000000000000000000081526004016102d69061073e565b60405180910390fd5b6001600360016101000a81548160ff021916908315150217905550565b3373ffffffffffffffffffffffffffffffffffffffff16600360029054906101000a900473ffffffffffffffffffffffffffffffffffffffff1673ffffffffffffffffffffffffffffffffffffffff161461038c576040517f08c379a00000000000000000000000000000000000000000000000000000000081526004016103839061073e565b60405180910390fd5b5f600360016101000a81548160ff021916908315150217905550600160035f6101000a81548160ff021916908315150217905550565b5f60015482106103d4575f905061043b565b5f5f7f000000000000000000000000000000000000000000000000000000000000000081526020019081526020015f2054600283815481106104195761041861075c565b5b905f5260205f20015f82825461042f91906107b6565b92505081905550600190505b919050565b5f5ffd5b5f819050919050565b61045681610444565b8114610460575f5ffd5b50565b5f813590506104718161044d565b92915050565b5f6020828403121561048c5761048b610440565b5b5f61049984828501610463565b91505092915050565b5f81519050919050565b5f82825260208201905092915050565b5f819050602082019050919050565b6104d481610444565b82525050565b5f6104e583836104cb565b60208301905092915050565b5f602082019050919050565b5f610507826104a2565b61051181856104ac565b935061051c836104bc565b805f5b8381101561054c57815161053388826104da565b975061053e836104f1565b92505060018101905061051f565b5085935050505092915050565b5f6020820190508181035f83015261057181846104fd565b905092915050565b5f8115159050919050565b61058d81610579565b82525050565b5f6020820190506105a65f830184610584565b92915050565b5f82825260208201905092915050565b7f566f746163696f6e2063657272616461000000000000000000000000000000005f82015250565b5f6105f06010836105ac565b91506105fb826105bc565b602082019050919050565b5f6020820190508181035f83015261061d816105e4565b9050919050565b7f5061727469646f20696e76616c69646f000000000000000000000000000000005f82015250565b5f6106586010836105ac565b915061066382610624565b602082019050919050565b5f6020820190508181035f8301526106858161064c565b9050919050565b7f48617920756e6120766f746163696f6e206162696572746100000000000000005f82015250565b5f6106c06018836105ac565b91506106cb8261068c565b602082019050919050565b5f6020820190508181035f8301526106ed816106b4565b9050919050565b7f6e6f20657320656c20707265736964656e7465206465206c61206d65736100005f82015250565b5f610728601e836105ac565b9150610733826106f4565b602082019050919050565b5f6020820190508181035f8301526107558161071c565b9050919050565b7f4e487b71000000000000000000000000000000000000000000000000000000005f52603260045260245ffd5b7f4e487b71000000000000000000000000000000000000000000000000000000005f52601160045260245ffd5b5f6107c082610444565b91506107cb83610444565b92508282019050808211156107e3576107e2610789565b5b9291505056fea264697066735822122057db340170d236028f1f085c087d8be5b6dfac5b4b1d7cc929500babb582ea2964736f6c634300081f0033",
			"opcodes": "PUSH1 0xA0 PUSH1 0x40 MSTORE CALLVALUE DUP1 ISZERO PUSH2 0xF JUMPI PUSH0 PUSH0 REVERT JUMPDEST POP PUSH1 0x40 MLOAD PUSH2 0xB94 CODESIZE SUB DUP1 PUSH2 0xB94 DUP4 CODECOPY DUP2 DUP2 ADD PUSH1 0x40 MSTORE DUP2 ADD SWAP1 PUSH2 0x31 SWAP2 SWAP1 PUSH2 0x2E0 JUMP JUMPDEST DUP3 DUP3 DUP3 DUP2 PUSH1 0x1 DUP2 SWAP1 SSTORE POP DUP1 PUSH1 0x80 DUP2 DUP2 MSTORE POP POP DUP2 PUSH8 0xFFFFFFFFFFFFFFFF DUP2 GT ISZERO PUSH2 0x5D JUMPI PUSH2 0x5C PUSH2 0x330 JUMP JUMPDEST JUMPDEST PUSH1 0x40 MLOAD SWAP1 DUP1 DUP3 MSTORE DUP1 PUSH1 0x20 MUL PUSH1 0x20 ADD DUP3 ADD PUSH1 0x40 MSTORE DUP1 ISZERO PUSH2 0x8B JUMPI DUP2 PUSH1 0x20 ADD PUSH1 0x20 DUP3 MUL DUP1 CALLDATASIZE DUP4 CALLDATACOPY DUP1 DUP3 ADD SWAP2 POP POP SWAP1 POP JUMPDEST POP PUSH1 0x2 SWAP1 DUP1 MLOAD SWAP1 PUSH1 0x20 ADD SWAP1 PUSH2 0xA1 SWAP3 SWAP2 SWAP1 PUSH2 0x1E9 JUMP JUMPDEST POP PUSH2 0xB0 PUSH2 0x12F PUSH1 0x20 SHL PUSH1 0x20 SHR JUMP JUMPDEST POP POP DUP1 PUSH1 0x3 PUSH1 0x2 PUSH2 0x100 EXP DUP2 SLOAD DUP2 PUSH20 0xFFFFFFFFFFFFFFFFFFFFFFFFFFFFFFFFFFFFFFFF MUL NOT AND SWAP1 DUP4 PUSH20 0xFFFFFFFFFFFFFFFFFFFFFFFFFFFFFFFFFFFFFFFF AND MUL OR SWAP1 SSTORE POP PUSH0 PUSH1 0x3 PUSH0 PUSH2 0x100 EXP DUP2 SLOAD DUP2 PUSH1 0xFF MUL NOT AND SWAP1 DUP4 ISZERO ISZERO MUL OR SWAP1 SSTORE POP PUSH0 PUSH1 0x3 PUSH1 0x1 PUSH2 0x100 EXP DUP2 SLOAD DUP2 PUSH1 0xFF MUL NOT AND SWAP1 DUP4 ISZERO ISZERO MUL OR SWAP1 SSTORE POP POP POP POP POP PUSH2 0x35D JUMP JUMPDEST PUSH1 0x1 PUSH0 PUSH0 PUSH1 0x1C DUP2 MSTORE PUSH1 0x20 ADD SWAP1 DUP2 MSTORE PUSH1 0x20 ADD PUSH0 KECCAK256 DUP2 SWAP1 SSTORE POP PUSH1 0x1 PUSH0 PUSH0 PUSH1 0x8 DUP2 MSTORE PUSH1 0x20 ADD SWAP1 DUP2 MSTORE PUSH1 0x20 ADD PUSH0 KECCAK256 DUP2 SWAP1 SSTORE POP PUSH1 0x1 PUSH0 PUSH0 PUSH1 0x29 DUP2 MSTORE PUSH1 0x20 ADD SWAP1 DUP2 MSTORE PUSH1 0x20 ADD PUSH0 KECCAK256 DUP2 SWAP1 SSTORE POP PUSH1 0x5 PUSH0 PUSH0 PUSH1 0x2C DUP2 MSTORE PUSH1 0x20 ADD SWAP1 DUP2 MSTORE PUSH1 0x20 ADD PUSH0 KECCAK256 DUP2 SWAP1 SSTORE POP PUSH1 0x5 PUSH0 PUSH0 PUSH1 0x2A DUP2 MSTORE PUSH1 0x20 ADD SWAP1 DUP2 MSTORE PUSH1 0x20 ADD PUSH0 KECCAK256 DUP2 SWAP1 SSTORE POP PUSH1 0x4 PUSH0 PUSH0 PUSH1 0x31 DUP2 MSTORE PUSH1 0x20 ADD SWAP1 DUP2 MSTORE PUSH1 0x20 ADD PUSH0 KECCAK256 DUP2 SWAP1 SSTORE POP PUSH1 0x4 PUSH0 PUSH0 PUSH1 0x9 DUP2 MSTORE PUSH1 0x20 ADD SWAP1 DUP2 MSTORE PUSH1 0x20 ADD PUSH0 KECCAK256 DUP2 SWAP1 SSTORE POP PUSH1 0x2 PUSH0 PUSH0 PUSH1 0x1D DUP2 MSTORE PUSH1 0x20 ADD SWAP1 DUP2 MSTORE PUSH1 0x20 ADD PUSH0 KECCAK256 DUP2 SWAP1 SSTORE POP JUMP JUMPDEST DUP3 DUP1 SLOAD DUP3 DUP3 SSTORE SWAP1 PUSH0 MSTORE PUSH1 0x20 PUSH0 KECCAK256 SWAP1 DUP2 ADD SWAP3 DUP3 ISZERO PUSH2 0x223 JUMPI SWAP2 PUSH1 0x20 MUL DUP3 ADD JUMPDEST DUP3 DUP2 GT ISZERO PUSH2 0x222 JUMPI DUP3 MLOAD DUP3 SSTORE SWAP2 PUSH1 0x20 ADD SWAP2 SWAP1 PUSH1 0x1 ADD SWAP1 PUSH2 0x207 JUMP JUMPDEST JUMPDEST POP SWAP1 POP PUSH2 0x230 SWAP2 SWAP1 PUSH2 0x234 JUMP JUMPDEST POP SWAP1 JUMP JUMPDEST JUMPDEST DUP1 DUP3 GT ISZERO PUSH2 0x24B JUMPI PUSH0 DUP2 PUSH0 SWAP1 SSTORE POP PUSH1 0x1 ADD PUSH2 0x235 JUMP JUMPDEST POP SWAP1 JUMP JUMPDEST PUSH0 PUSH0 REVERT JUMPDEST PUSH0 PUSH20 0xFFFFFFFFFFFFFFFFFFFFFFFFFFFFFFFFFFFFFFFF DUP3 AND SWAP1 POP SWAP2 SWAP1 POP JUMP JUMPDEST PUSH0 PUSH2 0x27C DUP3 PUSH2 0x253 JUMP JUMPDEST SWAP1 POP SWAP2 SWAP1 POP JUMP JUMPDEST PUSH2 0x28C DUP2 PUSH2 0x272 JUMP JUMPDEST DUP2 EQ PUSH2 0x296 JUMPI PUSH0 PUSH0 REVERT JUMPDEST POP JUMP JUMPDEST PUSH0 DUP2 MLOAD SWAP1 POP PUSH2 0x2A7 DUP2 PUSH2 0x283 JUMP JUMPDEST SWAP3 SWAP2 POP POP JUMP JUMPDEST PUSH0 DUP2 SWAP1 POP SWAP2 SWAP1 POP JUMP JUMPDEST PUSH2 0x2BF DUP2 PUSH2 0x2AD JUMP JUMPDEST DUP2 EQ PUSH2 0x2C9 JUMPI PUSH0 PUSH0 REVERT JUMPDEST POP JUMP JUMPDEST PUSH0 DUP2 MLOAD SWAP1 POP PUSH2 0x2DA DUP2 PUSH2 0x2B6 JUMP JUMPDEST SWAP3 SWAP2 POP POP JUMP JUMPDEST PUSH0 PUSH0 PUSH0 PUSH1 0x60 DUP5 DUP7 SUB SLT ISZERO PUSH2 0x2F7 JUMPI PUSH2 0x2F6 PUSH2 0x24F JUMP JUMPDEST JUMPDEST PUSH0 PUSH2 0x304 DUP7 DUP3 DUP8 ADD PUSH2 0x299 JUMP JUMPDEST SWAP4 POP POP PUSH1 0x20 PUSH2 0x315 DUP7 DUP3 DUP8 ADD PUSH2 0x2CC JUMP JUMPDEST SWAP3 POP POP PUSH1 0x40 PUSH2 0x326 DUP7 DUP3 DUP8 ADD PUSH2 0x2CC JUMP JUMPDEST SWAP2 POP POP SWAP3 POP SWAP3 POP SWAP3 JUMP JUMPDEST PUSH32 0x4E487B7100000000000000000000000000000000000000000000000000000000 PUSH0 MSTORE PUSH1 0x41 PUSH1 0x4 MSTORE PUSH1 0x24 PUSH0 REVERT JUMPDEST PUSH1 0x80 MLOAD PUSH2 0x81F PUSH2 0x375 PUSH0 CODECOPY PUSH0 PUSH2 0x3D8 ADD MSTORE PUSH2 0x81F PUSH0 RETURN INVALID PUSH1 0x80 PUSH1 0x40 MSTORE CALLVALUE DUP1 ISZERO PUSH2 0xF JUMPI PUSH0 PUSH0 REVERT JUMPDEST POP PUSH1 0x4 CALLDATASIZE LT PUSH2 0x55 JUMPI PUSH0 CALLDATALOAD PUSH1 0xE0 SHR DUP1 PUSH4 0x3EB76B9C EQ PUSH2 0x59 JUMPI DUP1 PUSH4 0x4717F97C EQ PUSH2 0x75 JUMPI DUP1 PUSH4 0x789D9E8A EQ PUSH2 0x93 JUMPI DUP1 PUSH4 0xAFFC0670 EQ PUSH2 0xB1 JUMPI DUP1 PUSH4 0xC631B292 EQ PUSH2 0xBB JUMPI JUMPDEST PUSH0 PUSH0 REVERT JUMPDEST PUSH2 0x73 PUSH1 0x4 DUP1 CALLDATASIZE SUB DUP2 ADD SWAP1 PUSH2 0x6E SWAP2 SWAP1 PUSH2 0x477 JUMP JUMPDEST PUSH2 0xC5 JUMP JUMPDEST STOP JUMPDEST PUSH2 0x7D PUSH2 0x192 JUMP JUMPDEST PUSH1 0x40 MLOAD PUSH2 0x8A SWAP2 SWAP1 PUSH2 0x559 JUMP JUMPDEST PUSH1 0x40 MLOAD DUP1 SWAP2 SUB SWAP1 RETURN JUMPDEST PUSH2 0x9B PUSH2 0x23D JUMP JUMPDEST PUSH1 0x40 MLOAD PUSH2 0xA8 SWAP2 SWAP1 PUSH2 0x593 JUMP JUMPDEST PUSH1 0x40 MLOAD DUP1 SWAP2 SUB SWAP1 RETURN JUMPDEST PUSH2 0xB9 PUSH2 0x24F JUMP JUMPDEST STOP JUMPDEST PUSH2 0xC3 PUSH2 0x2FC JUMP JUMPDEST STOP JUMPDEST PUSH1 0x1 ISZERO ISZERO PUSH1 0x3 PUSH1 0x1 SWAP1 SLOAD SWAP1 PUSH2 0x100 EXP SWAP1 DIV PUSH1 0xFF AND ISZERO ISZERO EQ DUP1 ISZERO PUSH2 0xF9 JUMPI POP PUSH0 ISZERO ISZERO PUSH1 0x3 PUSH0 SWAP1 SLOAD SWAP1 PUSH2 0x100 EXP SWAP1 DIV PUSH1 0xFF AND ISZERO ISZERO EQ JUMPDEST PUSH2 0x138 JUMPI PUSH1 0x40 MLOAD PUSH32 0x8C379A000000000000000000000000000000000000000000000000000000000 DUP2 MSTORE PUSH1 0x4 ADD PUSH2 0x12F SWAP1 PUSH2 0x606 JUMP JUMPDEST PUSH1 0x40 MLOAD DUP1 SWAP2 SUB SWAP1 REVERT JUMPDEST PUSH0 PUSH2 0x142 DUP3 PUSH2 0x3C2 JUMP JUMPDEST SWAP1 POP DUP1 PUSH2 0x184 JUMPI PUSH1 0x40 MLOAD PUSH32 0x8C379A000000000000000000000000000000000000000000000000000000000 DUP2 MSTORE PUSH1 0x4 ADD PUSH2 0x17B SWAP1 PUSH2 0x66E JUMP JUMPDEST PUSH1 0x40 MLOAD DUP1 SWAP2 SUB SWAP1 REVERT JUMPDEST PUSH2 0x18D DUP3 PUSH2 0x3C2 JUMP JUMPDEST POP POP POP JUMP JUMPDEST PUSH1 0x60 PUSH1 0x1 ISZERO ISZERO PUSH1 0x3 PUSH0 SWAP1 SLOAD SWAP1 PUSH2 0x100 EXP SWAP1 DIV PUSH1 0xFF AND ISZERO ISZERO EQ PUSH2 0x1E9 JUMPI PUSH1 0x40 MLOAD PUSH32 0x8C379A000000000000000000000000000000000000000000000000000000000 DUP2 MSTORE PUSH1 0x4 ADD PUSH2 0x1E0 SWAP1 PUSH2 0x6D6 JUMP JUMPDEST PUSH1 0x40 MLOAD DUP1 SWAP2 SUB SWAP1 REVERT JUMPDEST PUSH1 0x2 DUP1 SLOAD DUP1 PUSH1 0x20 MUL PUSH1 0x20 ADD PUSH1 0x40 MLOAD SWAP1 DUP2 ADD PUSH1 0x40 MSTORE DUP1 SWAP3 SWAP2 SWAP1 DUP2 DUP2 MSTORE PUSH1 0x20 ADD DUP3 DUP1 SLOAD DUP1 ISZERO PUSH2 0x233 JUMPI PUSH1 0x20 MUL DUP3 ADD SWAP2 SWAP1 PUSH0 MSTORE PUSH1 0x20 PUSH0 KECCAK256 SWAP1 JUMPDEST DUP2 SLOAD DUP2 MSTORE PUSH1 0x20 ADD SWAP1 PUSH1 0x1 ADD SWAP1 DUP1 DUP4 GT PUSH2 0x21F JUMPI JUMPDEST POP POP POP POP POP SWAP1 POP SWAP1 JUMP JUMPDEST PUSH1 0x3 PUSH0 SWAP1 SLOAD SWAP1 PUSH2 0x100 EXP SWAP1 DIV PUSH1 0xFF AND DUP2 JUMP JUMPDEST CALLER PUSH20 0xFFFFFFFFFFFFFFFFFFFFFFFFFFFFFFFFFFFFFFFF AND PUSH1 0x3 PUSH1 0x2 SWAP1 SLOAD SWAP1 PUSH2 0x100 EXP SWAP1 DIV PUSH20 0xFFFFFFFFFFFFFFFFFFFFFFFFFFFFFFFFFFFFFFFF AND PUSH20 0xFFFFFFFFFFFFFFFFFFFFFFFFFFFFFFFFFFFFFFFF AND EQ PUSH2 0x2DF JUMPI PUSH1 0x40 MLOAD PUSH32 0x8C379A000000000000000000000000000000000000000000000000000000000 DUP2 MSTORE PUSH1 0x4 ADD PUSH2 0x2D6 SWAP1 PUSH2 0x73E JUMP JUMPDEST PUSH1 0x40 MLOAD DUP1 SWAP2 SUB SWAP1 REVERT JUMPDEST PUSH1 0x1 PUSH1 0x3 PUSH1 0x1 PUSH2 0x100 EXP DUP2 SLOAD DUP2 PUSH1 0xFF MUL NOT AND SWAP1 DUP4 ISZERO ISZERO MUL OR SWAP1 SSTORE POP JUMP JUMPDEST CALLER PUSH20 0xFFFFFFFFFFFFFFFFFFFFFFFFFFFFFFFFFFFFFFFF AND PUSH1 0x3 PUSH1 0x2 SWAP1 SLOAD SWAP1 PUSH2 0x100 EXP SWAP1 DIV PUSH20 0xFFFFFFFFFFFFFFFFFFFFFFFFFFFFFFFFFFFFFFFF AND PUSH20 0xFFFFFFFFFFFFFFFFFFFFFFFFFFFFFFFFFFFFFFFF AND EQ PUSH2 0x38C JUMPI PUSH1 0x40 MLOAD PUSH32 0x8C379A000000000000000000000000000000000000000000000000000000000 DUP2 MSTORE PUSH1 0x4 ADD PUSH2 0x383 SWAP1 PUSH2 0x73E JUMP JUMPDEST PUSH1 0x40 MLOAD DUP1 SWAP2 SUB SWAP1 REVERT JUMPDEST PUSH0 PUSH1 0x3 PUSH1 0x1 PUSH2 0x100 EXP DUP2 SLOAD DUP2 PUSH1 0xFF MUL NOT AND SWAP1 DUP4 ISZERO ISZERO MUL OR SWAP1 SSTORE POP PUSH1 0x1 PUSH1 0x3 PUSH0 PUSH2 0x100 EXP DUP2 SLOAD DUP2 PUSH1 0xFF MUL NOT AND SWAP1 DUP4 ISZERO ISZERO MUL OR SWAP1 SSTORE POP JUMP JUMPDEST PUSH0 PUSH1 0x1 SLOAD DUP3 LT PUSH2 0x3D4 JUMPI PUSH0 SWAP1 POP PUSH2 0x43B JUMP JUMPDEST PUSH0 PUSH0 PUSH32 0x0 DUP2 MSTORE PUSH1 0x20 ADD SWAP1 DUP2 MSTORE PUSH1 0x20 ADD PUSH0 KECCAK256 SLOAD PUSH1 0x2 DUP4 DUP2 SLOAD DUP2 LT PUSH2 0x419 JUMPI PUSH2 0x418 PUSH2 0x75C JUMP JUMPDEST JUMPDEST SWAP1 PUSH0 MSTORE PUSH1 0x20 PUSH0 KECCAK256 ADD PUSH0 DUP3 DUP3 SLOAD PUSH2 0x42F SWAP2 SWAP1 PUSH2 0x7B6 JUMP JUMPDEST SWAP3 POP POP DUP2 SWAP1 SSTORE POP PUSH1 0x1 SWAP1 POP JUMPDEST SWAP2 SWAP1 POP JUMP JUMPDEST PUSH0 PUSH0 REVERT JUMPDEST PUSH0 DUP2 SWAP1 POP SWAP2 SWAP1 POP JUMP JUMPDEST PUSH2 0x456 DUP2 PUSH2 0x444 JUMP JUMPDEST DUP2 EQ PUSH2 0x460 JUMPI PUSH0 PUSH0 REVERT JUMPDEST POP JUMP JUMPDEST PUSH0 DUP2 CALLDATALOAD SWAP1 POP PUSH2 0x471 DUP2 PUSH2 0x44D JUMP JUMPDEST SWAP3 SWAP2 POP POP JUMP JUMPDEST PUSH0 PUSH1 0x20 DUP3 DUP5 SUB SLT ISZERO PUSH2 0x48C JUMPI PUSH2 0x48B PUSH2 0x440 JUMP JUMPDEST JUMPDEST PUSH0 PUSH2 0x499 DUP5 DUP3 DUP6 ADD PUSH2 0x463 JUMP JUMPDEST SWAP2 POP POP SWAP3 SWAP2 POP POP JUMP JUMPDEST PUSH0 DUP2 MLOAD SWAP1 POP SWAP2 SWAP1 POP JUMP JUMPDEST PUSH0 DUP3 DUP3 MSTORE PUSH1 0x20 DUP3 ADD SWAP1 POP SWAP3 SWAP2 POP POP JUMP JUMPDEST PUSH0 DUP2 SWAP1 POP PUSH1 0x20 DUP3 ADD SWAP1 POP SWAP2 SWAP1 POP JUMP JUMPDEST PUSH2 0x4D4 DUP2 PUSH2 0x444 JUMP JUMPDEST DUP3 MSTORE POP POP JUMP JUMPDEST PUSH0 PUSH2 0x4E5 DUP4 DUP4 PUSH2 0x4CB JUMP JUMPDEST PUSH1 0x20 DUP4 ADD SWAP1 POP SWAP3 SWAP2 POP POP JUMP JUMPDEST PUSH0 PUSH1 0x20 DUP3 ADD SWAP1 POP SWAP2 SWAP1 POP JUMP JUMPDEST PUSH0 PUSH2 0x507 DUP3 PUSH2 0x4A2 JUMP JUMPDEST PUSH2 0x511 DUP2 DUP6 PUSH2 0x4AC JUMP JUMPDEST SWAP4 POP PUSH2 0x51C DUP4 PUSH2 0x4BC JUMP JUMPDEST DUP1 PUSH0 JUMPDEST DUP4 DUP2 LT ISZERO PUSH2 0x54C JUMPI DUP2 MLOAD PUSH2 0x533 DUP9 DUP3 PUSH2 0x4DA JUMP JUMPDEST SWAP8 POP PUSH2 0x53E DUP4 PUSH2 0x4F1 JUMP JUMPDEST SWAP3 POP POP PUSH1 0x1 DUP2 ADD SWAP1 POP PUSH2 0x51F JUMP JUMPDEST POP DUP6 SWAP4 POP POP POP POP SWAP3 SWAP2 POP POP JUMP JUMPDEST PUSH0 PUSH1 0x20 DUP3 ADD SWAP1 POP DUP2 DUP2 SUB PUSH0 DUP4 ADD MSTORE PUSH2 0x571 DUP2 DUP5 PUSH2 0x4FD JUMP JUMPDEST SWAP1 POP SWAP3 SWAP2 POP POP JUMP JUMPDEST PUSH0 DUP2 ISZERO ISZERO SWAP1 POP SWAP2 SWAP1 POP JUMP JUMPDEST PUSH2 0x58D DUP2 PUSH2 0x579 JUMP JUMPDEST DUP3 MSTORE POP POP JUMP JUMPDEST PUSH0 PUSH1 0x20 DUP3 ADD SWAP1 POP PUSH2 0x5A6 PUSH0 DUP4 ADD DUP5 PUSH2 0x584 JUMP JUMPDEST SWAP3 SWAP2 POP POP JUMP JUMPDEST PUSH0 DUP3 DUP3 MSTORE PUSH1 0x20 DUP3 ADD SWAP1 POP SWAP3 SWAP2 POP POP JUMP JUMPDEST PUSH32 0x566F746163696F6E206365727261646100000000000000000000000000000000 PUSH0 DUP3 ADD MSTORE POP JUMP JUMPDEST PUSH0 PUSH2 0x5F0 PUSH1 0x10 DUP4 PUSH2 0x5AC JUMP JUMPDEST SWAP2 POP PUSH2 0x5FB DUP3 PUSH2 0x5BC JUMP JUMPDEST PUSH1 0x20 DUP3 ADD SWAP1 POP SWAP2 SWAP1 POP JUMP JUMPDEST PUSH0 PUSH1 0x20 DUP3 ADD SWAP1 POP DUP2 DUP2 SUB PUSH0 DUP4 ADD MSTORE PUSH2 0x61D DUP2 PUSH2 0x5E4 JUMP JUMPDEST SWAP1 POP SWAP2 SWAP1 POP JUMP JUMPDEST PUSH32 0x5061727469646F20696E76616C69646F00000000000000000000000000000000 PUSH0 DUP3 ADD MSTORE POP JUMP JUMPDEST PUSH0 PUSH2 0x658 PUSH1 0x10 DUP4 PUSH2 0x5AC JUMP JUMPDEST SWAP2 POP PUSH2 0x663 DUP3 PUSH2 0x624 JUMP JUMPDEST PUSH1 0x20 DUP3 ADD SWAP1 POP SWAP2 SWAP1 POP JUMP JUMPDEST PUSH0 PUSH1 0x20 DUP3 ADD SWAP1 POP DUP2 DUP2 SUB PUSH0 DUP4 ADD MSTORE PUSH2 0x685 DUP2 PUSH2 0x64C JUMP JUMPDEST SWAP1 POP SWAP2 SWAP1 POP JUMP JUMPDEST PUSH32 0x48617920756E6120766F746163696F6E20616269657274610000000000000000 PUSH0 DUP3 ADD MSTORE POP JUMP JUMPDEST PUSH0 PUSH2 0x6C0 PUSH1 0x18 DUP4 PUSH2 0x5AC JUMP JUMPDEST SWAP2 POP PUSH2 0x6CB DUP3 PUSH2 0x68C JUMP JUMPDEST PUSH1 0x20 DUP3 ADD SWAP1 POP SWAP2 SWAP1 POP JUMP JUMPDEST PUSH0 PUSH1 0x20 DUP3 ADD SWAP1 POP DUP2 DUP2 SUB PUSH0 DUP4 ADD MSTORE PUSH2 0x6ED DUP2 PUSH2 0x6B4 JUMP JUMPDEST SWAP1 POP SWAP2 SWAP1 POP JUMP JUMPDEST PUSH32 0x6E6F20657320656C20707265736964656E7465206465206C61206D6573610000 PUSH0 DUP3 ADD MSTORE POP JUMP JUMPDEST PUSH0 PUSH2 0x728 PUSH1 0x1E DUP4 PUSH2 0x5AC JUMP JUMPDEST SWAP2 POP PUSH2 0x733 DUP3 PUSH2 0x6F4 JUMP JUMPDEST PUSH1 0x20 DUP3 ADD SWAP1 POP SWAP2 SWAP1 POP JUMP JUMPDEST PUSH0 PUSH1 0x20 DUP3 ADD SWAP1 POP DUP2 DUP2 SUB PUSH0 DUP4 ADD MSTORE PUSH2 0x755 DUP2 PUSH2 0x71C JUMP JUMPDEST SWAP1 POP SWAP2 SWAP1 POP JUMP JUMPDEST PUSH32 0x4E487B7100000000000000000000000000000000000000000000000000000000 PUSH0 MSTORE PUSH1 0x32 PUSH1 0x4 MSTORE PUSH1 0x24 PUSH0 REVERT JUMPDEST PUSH32 0x4E487B7100000000000000000000000000000000000000000000000000000000 PUSH0 MSTORE PUSH1 0x11 PUSH1 0x4 MSTORE PUSH1 0x24 PUSH0 REVERT JUMPDEST PUSH0 PUSH2 0x7C0 DUP3 PUSH2 0x444 JUMP JUMPDEST SWAP2 POP PUSH2 0x7CB DUP4 PUSH2 0x444 JUMP JUMPDEST SWAP3 POP DUP3 DUP3 ADD SWAP1 POP DUP1 DUP3 GT ISZERO PUSH2 0x7E3 JUMPI PUSH2 0x7E2 PUSH2 0x789 JUMP JUMPDEST JUMPDEST SWAP3 SWAP2 POP POP JUMP INVALID LOG2 PUSH5 0x6970667358 0x22 SLT KECCAK256 JUMPI 0xDB CALLVALUE ADD PUSH17 0xD236028F1F085C087D8BE5B6DFAC5B4B1D PUSH29 0xC929500BABB582EA2964736F6C634300081F0033000000000000000000 "
		},
		"gasEstimates": {
			"creation": {
				"codeDepositCost": "415800",
				"executionCost": "infinite",
				"totalCost": "infinite"
			},
			"external": {
				"castVote(uint256)": "infinite",
				"closeVoting()": "51011",
				"getResults()": "infinite",
				"openVoting()": "26724",
				"votingFinished()": "2488"
			}
		},
		"methodIdentifiers": {
			"castVote(uint256)": "3eb76b9c",
			"closeVoting()": "c631b292",
			"getResults()": "4717f97c",
			"openVoting()": "affc0670",
			"votingFinished()": "789d9e8a"
		}
	},
	"abi": [
		{
			"inputs": [
				{
					"internalType": "address",
					"name": "presidente",
					"type": "address"
				},
				{
					"internalType": "uint256",
					"name": "numPartidos",
					"type": "uint256"
				},
				{
					"internalType": "uint256",
					"name": "idRegion",
					"type": "uint256"
				}
			],
			"stateMutability": "nonpayable",
			"type": "constructor"
		},
		{
			"inputs": [
				{
					"internalType": "uint256",
					"name": "partidoId",
					"type": "uint256"
				}
			],
			"name": "castVote",
			"outputs": [],
			"stateMutability": "nonpayable",
			"type": "function"
		},
		{
			"inputs": [],
			"name": "closeVoting",
			"outputs": [],
			"stateMutability": "nonpayable",
			"type": "function"
		},
		{
			"inputs": [],
			"name": "getResults",
			"outputs": [
				{
					"internalType": "uint256[]",
					"name": "",
					"type": "uint256[]"
				}
			],
			"stateMutability": "view",
			"type": "function"
		},
		{
			"inputs": [],
			"name": "openVoting",
			"outputs": [],
			"stateMutability": "nonpayable",
			"type": "function"
		},
		{
			"inputs": [],
			"name": "votingFinished",
			"outputs": [
				{
					"internalType": "bool",
					"name": "",
					"type": "bool"
				}
			],
			"stateMutability": "view",
			"type": "function"
		}
	]
}