{
	"data": {
		"bytecode": {
			"linkReferences": {},
			"object": "6080604052348015600e575f5ffd5b506102d48061001c5f395ff3fe608060405234801561000f575f5ffd5b5060043610610034575f3560e01c806383714834146100385780639476f92214610068575b5f5ffd5b610052600480360381019061004d919061011e565b610072565b60405161005f9190610158565b60405180910390f35b6100706100b0565b005b5f5f600190505f600190505b8381116100a6578082610091919061019e565b9150808061009e906101df565b91505061007e565b5080915050919050565b7f241ba3bafc919fb4308284ce03a8f4867a8ec2f0401445d3cf41a468e7db4ae06040516100dd90610280565b60405180910390a1565b5f5ffd5b5f819050919050565b6100fd816100eb565b8114610107575f5ffd5b50565b5f81359050610118816100f4565b92915050565b5f60208284031215610133576101326100e7565b5b5f6101408482850161010a565b91505092915050565b610152816100eb565b82525050565b5f60208201905061016b5f830184610149565b92915050565b7f4e487b71000000000000000000000000000000000000000000000000000000005f52601160045260245ffd5b5f6101a8826100eb565b91506101b3836100eb565b92508282026101c1816100eb565b915082820484148315176101d8576101d7610171565b5b5092915050565b5f6101e9826100eb565b91507fffffffffffffffffffffffffffffffffffffffffffffffffffffffffffffffff820361021b5761021a610171565b5b600182019050919050565b5f82825260208201905092915050565b7f48656c6c6f20576f726c640000000000000000000000000000000000000000005f82015250565b5f61026a600b83610226565b915061027582610236565b602082019050919050565b5f6020820190508181035f8301526102978161025e565b905091905056fea264697066735822122028c3a7a51d4e477b85024faf8ca7a0c490bde4293fcc79370a024785f30470cc64736f6c634300081f0033",
			"opcodes": "PUSH1 0x80 PUSH1 0x40 MSTORE CALLVALUE DUP1 ISZERO PUSH1 0xE JUMPI PUSH0 PUSH0 REVERT JUMPDEST POP PUSH2 0x2D4 DUP1 PUSH2 0x1C PUSH0 CODECOPY PUSH0 RETURN INVALID PUSH1 0x80 PUSH1 0x40 MSTORE CALLVALUE DUP1 ISZERO PUSH2 0xF JUMPI PUSH0 PUSH0 REVERT JUMPDEST POP PUSH1 0x4 CALLDATASIZE LT PUSH2 0x34 JUMPI PUSH0 CALLDATALOAD PUSH1 0xE0 SHR DUP1 PUSH4 0x83714834 EQ PUSH2 0x38 JUMPI DUP1 PUSH4 0x9476F922 EQ PUSH2 0x68 JUMPI JUMPDEST PUSH0 PUSH0 REVERT JUMPDEST PUSH2 0x52 PUSH1 0x4 DUP1 CALLDATASIZE SUB DUP2 ADD SWAP1 PUSH2 0x4D SWAP2 SWAP1 PUSH2 0x11E JUMP JUMPDEST PUSH2 0x72 JUMP JUMPDEST PUSH1 0x40 MLOAD PUSH2 0x5F SWAP2 SWAP1 PUSH2 0x158 JUMP JUMPDEST PUSH1 0x40 MLOAD DUP1 SWAP2 SUB SWAP1 RETURN JUMPDEST PUSH2 0x70 PUSH2 0xB0 JUMP JUMPDEST STOP JUMPDEST PUSH0 PUSH0 PUSH1 0x1 SWAP1 POP PUSH0 PUSH1 0x1 SWAP1 POP JUMPDEST DUP4 DUP2 GT PUSH2 0xA6 JUMPI DUP1 DUP3 PUSH2 0x91 SWAP2 SWAP1 PUSH2 0x19E JUMP JUMPDEST SWAP2 POP DUP1 DUP1 PUSH2 0x9E SWAP1 PUSH2 0x1DF JUMP JUMPDEST SWAP2 POP POP PUSH2 0x7E JUMP JUMPDEST POP DUP1 SWAP2 POP POP SWAP2 SWAP1 POP JUMP JUMPDEST PUSH32 0x241BA3BAFC919FB4308284CE03A8F4867A8EC2F0401445D3CF41A468E7DB4AE0 PUSH1 0x40 MLOAD PUSH2 0xDD SWAP1 PUSH2 0x280 JUMP JUMPDEST PUSH1 0x40 MLOAD DUP1 SWAP2 SUB SWAP1 LOG1 JUMP JUMPDEST PUSH0 PUSH0 REVERT JUMPDEST PUSH0 DUP2 SWAP1 POP SWAP2 SWAP1 POP JUMP JUMPDEST PUSH2 0xFD DUP2 PUSH2 0xEB JUMP JUMPDEST DUP2 EQ PUSH2 0x107 JUMPI PUSH0 PUSH0 REVERT JUMPDEST POP JUMP JUMPDEST PUSH0 DUP2 CALLDATALOAD SWAP1 POP PUSH2 0x118 DUP2 PUSH2 0xF4 JUMP JUMPDEST SWAP3 SWAP2 POP POP JUMP JUMPDEST PUSH0 PUSH1 0x20 DUP3 DUP5 SUB SLT ISZERO PUSH2 0x133 JUMPI PUSH2 0x132 PUSH2 0xE7 JUMP JUMPDEST JUMPDEST PUSH0 PUSH2 0x140 DUP5 DUP3 DUP6 ADD PUSH2 0x10A JUMP JUMPDEST SWAP2 POP POP SWAP3 SWAP2 POP POP JUMP JUMPDEST PUSH2 0x152 DUP2 PUSH2 0xEB JUMP JUMPDEST DUP3 MSTORE POP POP JUMP JUMPDEST PUSH0 PUSH1 0x20 DUP3 ADD SWAP1 POP PUSH2 0x16B PUSH0 DUP4 ADD DUP5 PUSH2 0x149 JUMP JUMPDEST SWAP3 SWAP2 POP POP JUMP JUMPDEST PUSH32 0x4E487B7100000000000000000000000000000000000000000000000000000000 PUSH0 MSTORE PUSH1 0x11 PUSH1 0x4 MSTORE PUSH1 0x24 PUSH0 REVERT JUMPDEST PUSH0 PUSH2 0x1A8 DUP3 PUSH2 0xEB JUMP JUMPDEST SWAP2 POP PUSH2 0x1B3 DUP4 PUSH2 0xEB JUMP JUMPDEST SWAP3 POP DUP3 DUP3 MUL PUSH2 0x1C1 DUP2 PUSH2 0xEB JUMP JUMPDEST SWAP2 POP DUP3 DUP3 DIV DUP5 EQ DUP4 ISZERO OR PUSH2 0x1D8 JUMPI PUSH2 0x1D7 PUSH2 0x171 JUMP JUMPDEST JUMPDEST POP SWAP3 SWAP2 POP POP JUMP JUMPDEST PUSH0 PUSH2 0x1E9 DUP3 PUSH2 0xEB JUMP JUMPDEST SWAP2 POP PUSH32 0xFFFFFFFFFFFFFFFFFFFFFFFFFFFFFFFFFFFFFFFFFFFFFFFFFFFFFFFFFFFFFFFF DUP3 SUB PUSH2 0x21B JUMPI PUSH2 0x21A PUSH2 0x171 JUMP JUMPDEST JUMPDEST PUSH1 0x1 DUP3 ADD SWAP1 POP SWAP2 SWAP1 POP JUMP JUMPDEST PUSH0 DUP3 DUP3 MSTORE PUSH1 0x20 DUP3 ADD SWAP1 POP SWAP3 SWAP2 POP POP JUMP JUMPDEST PUSH32 0x48656C6C6F20576F726C64000000000000000000000000000000000000000000 PUSH0 DUP3 ADD MSTORE POP JUMP JUMPDEST PUSH0 PUSH2 0x26A PUSH1 0xB DUP4 PUSH2 0x226 JUMP JUMPDEST SWAP2 POP PUSH2 0x275 DUP3 PUSH2 0x236 JUMP JUMPDEST PUSH1 0x20 DUP3 ADD SWAP1 POP SWAP2 SWAP1 POP JUMP JUMPDEST PUSH0 PUSH1 0x20 DUP3 ADD SWAP1 POP DUP2 DUP2 SUB PUSH0 DUP4 ADD MSTORE PUSH2 0x297 DUP2 PUSH2 0x25E JUMP JUMPDEST SWAP1 POP SWAP2 SWAP1 POP JUMP INVALID LOG2 PUSH5 0x6970667358 0x22 SLT KECCAK256 0x28 0xC3 0xA7 0xA5 SAR 0x4E SELFBALANCE PUSH28 0x85024FAF8CA7A0C490BDE4293FCC79370A024785F30470CC64736F6C PUSH4 0x4300081F STOP CALLER "
		},
		"gasEstimates": {
			"creation": {
				"codeDepositCost": "144800",
				"executionCost": "188",
				"totalCost": "144988"
			},
			"external": {
				"factorial(uint256)": "infinite",
				"hello_world()": "1940"
			}
		},
		"methodIdentifiers": {
			"factorial(uint256)": "83714834",
			"hello_world()": "9476f922"
		}
	},
	"abi": [
		{
			"anonymous": false,
			"inputs": [
				{
					"indexed": false,
					"internalType": "string",
					"name": "message",
					"type": "string"
				}
			],
			"name": "Print",
			"type": "event"
		},
		{
			"inputs": [
				{
					"internalType": "uint256",
					"name": "n",
					"type": "uint256"
				}
			],
			"name": "factorial",
			"outputs": [
				{
					"internalType": "uint256",
					"name": "",
					"type": "uint256"
				}
			],
			"stateMutability": "pure",
			"type": "function"
		},
		{
			"inputs": [],
			"name": "hello_world",
			"outputs": [],
			"stateMutability": "nonpayable",
			"type": "function"
		}
	]
}