{
	"data": {
		"bytecode": {
			"linkReferences": {},
			"object": "60806040526127115f555f6005553480156017575f5ffd5b503360065f6101000a81548173ffffffffffffffffffffffffffffffffffffffff021916908373ffffffffffffffffffffffffffffffffffffffff160217905550612fa6806100655f395ff3fe6080604052600436106100c5575f3560e01c806350fac4f11161007e578063b90f1aaa11610058578063b90f1aaa1461024c578063c57981b51461027c578063c958e0d6146102a6578063d6ad8a94146102bc576100cc565b806350fac4f1146101b85780636352211e146101d457806370a0823114610210576100cc565b806301ffc9a7146100d0578063081812fc1461010c578063095ea7b3146101485780630a0eac291461016457806323b872dd1461018057806342842e0e1461019c576100cc565b366100cc57005b5f5ffd5b3480156100db575f5ffd5b506100f660048036038101906100f19190611e72565b6102d8565b6040516101039190611eb7565b60405180910390f35b348015610117575f5ffd5b50610132600480360381019061012d9190611f03565b6103b9565b60405161013f9190611f6d565b60405180910390f35b610162600480360381019061015d9190611fb0565b610453565b005b61017e6004803603810190610179919061204f565b6106d6565b005b61019a600480360381019061019591906120c0565b6109f3565b005b6101b660048036038101906101b191906120c0565b610e01565b005b6101d260048036038101906101cd9190611f03565b6113ae565b005b3480156101df575f5ffd5b506101fa60048036038101906101f59190611f03565b61167a565b6040516102079190611f6d565b60405180910390f35b34801561021b575f5ffd5b5061023660048036038101906102319190612110565b611726565b604051610243919061214a565b60405180910390f35b61026660048036038101906102619190612163565b6117da565b604051610273919061214a565b60405180910390f35b348015610287575f5ffd5b5061029061192e565b60405161029d919061214a565b60405180910390f35b3480156102b1575f5ffd5b506102ba611934565b005b6102d660048036038101906102d191906121e4565b611a8d565b005b5f817bffffffffffffffffffffffffffffffffffffffffffffffffffffffff19167f01ffc9a7000000000000000000000000000000000000000000000000000000007bffffffffffffffffffffffffffffffffffffffffffffffffffffffff191614806103a25750817bffffffffffffffffffffffffffffffffffffffffffffffffffffffff19167f73884ab3000000000000000000000000000000000000000000000000000000007bffffffffffffffffffffffffffffffffffffffffffffffffffffffff1916145b156103b057600190506103b4565b5f90505b919050565b5f5f60045f8481526020019081526020015f205f0180546103d99061224f565b90500361041b576040517f08c379a0000000000000000000000000000000000000000000000000000000008152600401610412906122d9565b60405180910390fd5b60035f8381526020019081526020015f205f9054906101000a900473ffffffffffffffffffffffffffffffffffffffff169050919050565b3373ffffffffffffffffffffffffffffffffffffffff1660025f8381526020019081526020015f205f9054906101000a900473ffffffffffffffffffffffffffffffffffffffff1673ffffffffffffffffffffffffffffffffffffffff16146104f1576040517f08c379a00000000000000000000000000000000000000000000000000000000081526004016104e890612341565b60405180910390fd5b5f73ffffffffffffffffffffffffffffffffffffffff168273ffffffffffffffffffffffffffffffffffffffff1614158061058857505f73ffffffffffffffffffffffffffffffffffffffff1660035f8381526020019081526020015f205f9054906101000a900473ffffffffffffffffffffffffffffffffffffffff1673ffffffffffffffffffffffffffffffffffffffff1614155b6105c7576040517f08c379a00000000000000000000000000000000000000000000000000000000081526004016105be906123a9565b60405180910390fd5b6105e660045f8381526020019081526020015f20600101600101611c10565b341015610628576040517f08c379a000000000000000000000000000000000000000000000000000000000815260040161061f90612411565b60405180910390fd5b8160035f8381526020019081526020015f205f6101000a81548173ffffffffffffffffffffffffffffffffffffffff021916908373ffffffffffffffffffffffffffffffffffffffff160217905550808273ffffffffffffffffffffffffffffffffffffffff163373ffffffffffffffffffffffffffffffffffffffff167f8c5be1e5ebec7d5bd14f71427d1e84f3dd0314c0f7b2291e5b200ac8c7c3b92560405160405180910390a45050565b3373ffffffffffffffffffffffffffffffffffffffff1660035f8681526020019081526020015f205f9054906101000a900473ffffffffffffffffffffffffffffffffffffffff1673ffffffffffffffffffffffffffffffffffffffff16148061079b57503373ffffffffffffffffffffffffffffffffffffffff1660025f8681526020019081526020015f205f9054906101000a900473ffffffffffffffffffffffffffffffffffffffff1673ffffffffffffffffffffffffffffffffffffffff16145b6107da576040517f08c379a00000000000000000000000000000000000000000000000000000000081526004016107d190612341565b60405180910390fd5b5f60045f8681526020019081526020015f205f0180546107f99061224f565b90500361083b576040517f08c379a0000000000000000000000000000000000000000000000000000000008152600401610832906122d9565b60405180910390fd5b5f60045f8681526020019081526020015f206001015f01805490509050806002610865919061258b565b8261087091906125d5565b3410156108b2576040517f08c379a00000000000000000000000000000000000000000000000000000000081526004016108a990612660565b60405180910390fd5b5f61091e85858080601f0160208091040260200160405190810160405280939291908181526020018383808284375f81840152601f19601f8201169050808301925050505050505060045f8981526020019081526020015f206001015f01611c6390919063ffffffff16565b90508015610961576040517f08c379a0000000000000000000000000000000000000000000000000000000008152600401610958906126c8565b60405180910390fd5b60045f8781526020019081526020015f206001015f01858590918060018154018082558091505060019003905f5260205f20015f9091929091929091929091925091826109af9291906128bd565b5060045f8781526020019081526020015f2060010160010183908060018154018082558091505060019003905f5260205f20015f9091909190915055505050505050565b5f73ffffffffffffffffffffffffffffffffffffffff168273ffffffffffffffffffffffffffffffffffffffff1603610a61576040517f08c379a0000000000000000000000000000000000000000000000000000000008152600401610a58906129d4565b60405180910390fd5b8273ffffffffffffffffffffffffffffffffffffffff1660025f8381526020019081526020015f205f9054906101000a900473ffffffffffffffffffffffffffffffffffffffff1673ffffffffffffffffffffffffffffffffffffffff16148015610b8d57503373ffffffffffffffffffffffffffffffffffffffff1660025f8381526020019081526020015f205f9054906101000a900473ffffffffffffffffffffffffffffffffffffffff1673ffffffffffffffffffffffffffffffffffffffff161480610b8c57503373ffffffffffffffffffffffffffffffffffffffff1660035f8381526020019081526020015f205f9054906101000a900473ffffffffffffffffffffffffffffffffffffffff1673ffffffffffffffffffffffffffffffffffffffff16145b5b610bcc576040517f08c379a0000000000000000000000000000000000000000000000000000000008152600401610bc390612341565b60405180910390fd5b610beb60045f8381526020019081526020015f20600101600101611c10565b341015610c2d576040517f08c379a0000000000000000000000000000000000000000000000000000000008152600401610c2490612411565b60405180910390fd5b6001805f60025f8581526020019081526020015f205f9054906101000a900473ffffffffffffffffffffffffffffffffffffffff1673ffffffffffffffffffffffffffffffffffffffff1673ffffffffffffffffffffffffffffffffffffffff1681526020019081526020015f205f828254610ca991906129f2565b925050819055506001805f8473ffffffffffffffffffffffffffffffffffffffff1673ffffffffffffffffffffffffffffffffffffffff1681526020019081526020015f205f828254610cfc9190612a25565b925050819055508160025f8381526020019081526020015f205f6101000a81548173ffffffffffffffffffffffffffffffffffffffff021916908373ffffffffffffffffffffffffffffffffffffffff1602179055505f60035f8381526020019081526020015f205f6101000a81548173ffffffffffffffffffffffffffffffffffffffff021916908373ffffffffffffffffffffffffffffffffffffffff160217905550808273ffffffffffffffffffffffffffffffffffffffff168473ffffffffffffffffffffffffffffffffffffffff167fddf252ad1be2c89b69c2b068fc378daa952ba7f163c4a11628f55a4df523b3ef60405160405180910390a4505050565b5f73ffffffffffffffffffffffffffffffffffffffff168273ffffffffffffffffffffffffffffffffffffffff1603610e6f576040517f08c379a0000000000000000000000000000000000000000000000000000000008152600401610e66906129d4565b60405180910390fd5b8273ffffffffffffffffffffffffffffffffffffffff1660025f8381526020019081526020015f205f9054906101000a900473ffffffffffffffffffffffffffffffffffffffff1673ffffffffffffffffffffffffffffffffffffffff16148015610f9b57503373ffffffffffffffffffffffffffffffffffffffff1660025f8381526020019081526020015f205f9054906101000a900473ffffffffffffffffffffffffffffffffffffffff1673ffffffffffffffffffffffffffffffffffffffff161480610f9a57503373ffffffffffffffffffffffffffffffffffffffff1660035f8381526020019081526020015f205f9054906101000a900473ffffffffffffffffffffffffffffffffffffffff1673ffffffffffffffffffffffffffffffffffffffff16145b5b610fda576040517f08c379a0000000000000000000000000000000000000000000000000000000008152600401610fd190612341565b60405180910390fd5b610ff960045f8381526020019081526020015f20600101600101611c10565b34101561103b576040517f08c379a000000000000000000000000000000000000000000000000000000000815260040161103290612411565b60405180910390fd5b5f8273ffffffffffffffffffffffffffffffffffffffff163b11156111da578173ffffffffffffffffffffffffffffffffffffffff1663150b7a023385846040518463ffffffff1660e01b815260040161109793929190612a8b565b6020604051808303815f875af19250505080156110d257506040513d601f19601f820116820180604052508101906110cf9190612ae7565b60015b611151573d805f8114611100576040519150601f19603f3d011682016040523d82523d5f602084013e611105565b606091505b505f815103611149576040517f08c379a000000000000000000000000000000000000000000000000000000000815260040161114090612b5c565b60405180910390fd5b805160208201fd5b63150b7a0260e01b7bffffffffffffffffffffffffffffffffffffffffffffffffffffffff1916817bffffffffffffffffffffffffffffffffffffffffffffffffffffffff1916146111d8576040517f08c379a00000000000000000000000000000000000000000000000000000000081526004016111cf90612bc4565b60405180910390fd5b505b6001805f60025f8581526020019081526020015f205f9054906101000a900473ffffffffffffffffffffffffffffffffffffffff1673ffffffffffffffffffffffffffffffffffffffff1673ffffffffffffffffffffffffffffffffffffffff1681526020019081526020015f205f82825461125691906129f2565b925050819055506001805f8473ffffffffffffffffffffffffffffffffffffffff1673ffffffffffffffffffffffffffffffffffffffff1681526020019081526020015f205f8282546112a99190612a25565b925050819055508160025f8381526020019081526020015f205f6101000a81548173ffffffffffffffffffffffffffffffffffffffff021916908373ffffffffffffffffffffffffffffffffffffffff1602179055505f60035f8381526020019081526020015f205f6101000a81548173ffffffffffffffffffffffffffffffffffffffff021916908373ffffffffffffffffffffffffffffffffffffffff160217905550808273ffffffffffffffffffffffffffffffffffffffff168473ffffffffffffffffffffffffffffffffffffffff167fddf252ad1be2c89b69c2b068fc378daa952ba7f163c4a11628f55a4df523b3ef60405160405180910390a4505050565b5f73ffffffffffffffffffffffffffffffffffffffff1660025f8381526020019081526020015f205f9054906101000a900473ffffffffffffffffffffffffffffffffffffffff1673ffffffffffffffffffffffffffffffffffffffff161415801561147557503373ffffffffffffffffffffffffffffffffffffffff1660025f8381526020019081526020015f205f9054906101000a900473ffffffffffffffffffffffffffffffffffffffff1673ffffffffffffffffffffffffffffffffffffffff16145b6114b4576040517f08c379a00000000000000000000000000000000000000000000000000000000081526004016114ab90612341565b60405180910390fd5b600160055f8282546114c691906129f2565b925050819055506001805f3373ffffffffffffffffffffffffffffffffffffffff1673ffffffffffffffffffffffffffffffffffffffff1681526020019081526020015f205f82825461151991906129f2565b9250508190555060025f8281526020019081526020015f205f6101000a81549073ffffffffffffffffffffffffffffffffffffffff021916905560035f8281526020019081526020015f205f6101000a81549073ffffffffffffffffffffffffffffffffffffffff021916905560045f8281526020019081526020015f205f5f82015f6115a69190611d5e565b600182015f5f82015f6115b99190611d9b565b600182015f6115c89190611db9565b505050505f3373ffffffffffffffffffffffffffffffffffffffff166103e86040516115f390612c0c565b5f6040518083038185875af1925050503d805f811461162d576040519150601f19603f3d011682016040523d82523d5f602084013e611632565b606091505b5050905080611676576040517f08c379a000000000000000000000000000000000000000000000000000000000815260040161166d90612c6a565b60405180910390fd5b5050565b5f5f60025f8481526020019081526020015f205f9054906101000a900473ffffffffffffffffffffffffffffffffffffffff1690505f73ffffffffffffffffffffffffffffffffffffffff168173ffffffffffffffffffffffffffffffffffffffff160361171d576040517f08c379a0000000000000000000000000000000000000000000000000000000008152600401611714906122d9565b60405180910390fd5b80915050919050565b5f5f73ffffffffffffffffffffffffffffffffffffffff168273ffffffffffffffffffffffffffffffffffffffff1603611795576040517f08c379a000000000000000000000000000000000000000000000000000000000815260040161178c90612cd2565b60405180910390fd5b60015f8373ffffffffffffffffffffffffffffffffffffffff1673ffffffffffffffffffffffffffffffffffffffff1681526020019081526020015f20549050919050565b5f6103e8341015611820576040517f08c379a000000000000000000000000000000000000000000000000000000000815260040161181790612d3a565b60405180910390fd5b6001805f3373ffffffffffffffffffffffffffffffffffffffff1673ffffffffffffffffffffffffffffffffffffffff1681526020019081526020015f205f82825461186c9190612a25565b925050819055503360025f5f5481526020019081526020015f205f6101000a81548173ffffffffffffffffffffffffffffffffffffffff021916908373ffffffffffffffffffffffffffffffffffffffff160217905550828260045f5f5481526020019081526020015f205f0191826118e69291906128bd565b50600160055f8282546118f99190612a25565b9250508190555060015f5f8282546119119190612a25565b9250508190555060015f5461192691906129f2565b905092915050565b6103e881565b60065f9054906101000a900473ffffffffffffffffffffffffffffffffffffffff1673ffffffffffffffffffffffffffffffffffffffff163373ffffffffffffffffffffffffffffffffffffffff16146119c3576040517f08c379a00000000000000000000000000000000000000000000000000000000081526004016119ba90612341565b60405180910390fd5b5f6103e86005546119d491906125d5565b476119df91906129f2565b90505f3373ffffffffffffffffffffffffffffffffffffffff1682604051611a0690612c0c565b5f6040518083038185875af1925050503d805f8114611a40576040519150601f19603f3d011682016040523d82523d5f602084013e611a45565b606091505b5050905080611a89576040517f08c379a0000000000000000000000000000000000000000000000000000000008152600401611a8090612da2565b60405180910390fd5b5050565b3373ffffffffffffffffffffffffffffffffffffffff1660035f8481526020019081526020015f205f9054906101000a900473ffffffffffffffffffffffffffffffffffffffff1673ffffffffffffffffffffffffffffffffffffffff161480611b5257503373ffffffffffffffffffffffffffffffffffffffff1660025f8481526020019081526020015f205f9054906101000a900473ffffffffffffffffffffffffffffffffffffffff1673ffffffffffffffffffffffffffffffffffffffff16145b611b91576040517f08c379a0000000000000000000000000000000000000000000000000000000008152600401611b8890612341565b60405180910390fd5b60028160ff16611ba19190612dc0565b341015611be3576040517f08c379a0000000000000000000000000000000000000000000000000000000008152600401611bda90612660565b60405180910390fd5b611c0c8160045f8581526020019081526020015f20600101600101611cda90919063ffffffff16565b5050565b5f5f5f5f90505b8380549050811015611c5957838181548110611c3657611c35612e0a565b5b905f5260205f20015482611c4a9190612a25565b91508080600101915050611c17565b5080915050919050565b5f5f828051906020012090505f5f90505b8480549050811015611cce5781858281548110611c9457611c93612e0a565b5b905f5260205f2001604051611ca99190612ec9565b604051809103902003611cc157600192505050611cd4565b8080600101915050611c74565b505f9150505b92915050565b5f5f90505b8280549050811015611d59576064826064611cfa9190612edf565b60ff16848381548110611d1057611d0f612e0a565b5b905f5260205f200154611d2391906125d5565b611d2d9190612f40565b838281548110611d4057611d3f612e0a565b5b905f5260205f2001819055508080600101915050611cdf565b505050565b508054611d6a9061224f565b5f825580601f10611d7b5750611d98565b601f0160209004905f5260205f2090810190611d979190611dd7565b5b50565b5080545f8255905f5260205f2090810190611db69190611df2565b50565b5080545f8255905f5260205f2090810190611dd49190611dd7565b50565b5b80821115611dee575f815f905550600101611dd8565b5090565b5b80821115611e11575f8181611e089190611d5e565b50600101611df3565b5090565b5f5ffd5b5f5ffd5b5f7fffffffff0000000000000000000000000000000000000000000000000000000082169050919050565b611e5181611e1d565b8114611e5b575f5ffd5b50565b5f81359050611e6c81611e48565b92915050565b5f60208284031215611e8757611e86611e15565b5b5f611e9484828501611e5e565b91505092915050565b5f8115159050919050565b611eb181611e9d565b82525050565b5f602082019050611eca5f830184611ea8565b92915050565b5f819050919050565b611ee281611ed0565b8114611eec575f5ffd5b50565b5f81359050611efd81611ed9565b92915050565b5f60208284031215611f1857611f17611e15565b5b5f611f2584828501611eef565b91505092915050565b5f73ffffffffffffffffffffffffffffffffffffffff82169050919050565b5f611f5782611f2e565b9050919050565b611f6781611f4d565b82525050565b5f602082019050611f805f830184611f5e565b92915050565b611f8f81611f4d565b8114611f99575f5ffd5b50565b5f81359050611faa81611f86565b92915050565b5f5f60408385031215611fc657611fc5611e15565b5b5f611fd385828601611f9c565b9250506020611fe485828601611eef565b9150509250929050565b5f5ffd5b5f5ffd5b5f5ffd5b5f5f83601f84011261200f5761200e611fee565b5b8235905067ffffffffffffffff81111561202c5761202b611ff2565b5b60208301915083600182028301111561204857612047611ff6565b5b9250929050565b5f5f5f5f6060858703121561206757612066611e15565b5b5f61207487828801611eef565b945050602085013567ffffffffffffffff81111561209557612094611e19565b5b6120a187828801611ffa565b935093505060406120b487828801611eef565b91505092959194509250565b5f5f5f606084860312156120d7576120d6611e15565b5b5f6120e486828701611f9c565b93505060206120f586828701611f9c565b925050604061210686828701611eef565b9150509250925092565b5f6020828403121561212557612124611e15565b5b5f61213284828501611f9c565b91505092915050565b61214481611ed0565b82525050565b5f60208201905061215d5f83018461213b565b92915050565b5f5f6020838503121561217957612178611e15565b5b5f83013567ffffffffffffffff81111561219657612195611e19565b5b6121a285828601611ffa565b92509250509250929050565b5f60ff82169050919050565b6121c3816121ae565b81146121cd575f5ffd5b50565b5f813590506121de816121ba565b92915050565b5f5f604083850312156121fa576121f9611e15565b5b5f61220785828601611eef565b9250506020612218858286016121d0565b9150509250929050565b7f4e487b71000000000000000000000000000000000000000000000000000000005f52602260045260245ffd5b5f600282049050600182168061226657607f821691505b60208210810361227957612278612222565b5b50919050565b5f82825260208201905092915050565b7f496e76616c696420746f6b656e000000000000000000000000000000000000005f82015250565b5f6122c3600d8361227f565b91506122ce8261228f565b602082019050919050565b5f6020820190508181035f8301526122f0816122b7565b9050919050565b7f556e617574686f72697a656420616363657373000000000000000000000000005f82015250565b5f61232b60138361227f565b9150612336826122f7565b602082019050919050565b5f6020820190508181035f8301526123588161231f565b9050919050565b7f4e6f7468696e6720746f20617070726f766500000000000000000000000000005f82015250565b5f61239360128361227f565b915061239e8261235f565b602082019050919050565b5f6020820190508181035f8301526123c081612387565b9050919050565b7f4e6f7420656e6f7567682066756e6473000000000000000000000000000000005f82015250565b5f6123fb60108361227f565b9150612406826123c7565b602082019050919050565b5f6020820190508181035f830152612428816123ef565b9050919050565b7f4e487b71000000000000000000000000000000000000000000000000000000005f52601160045260245ffd5b5f8160011c9050919050565b5f5f8291508390505b60018511156124b15780860481111561248d5761248c61242f565b5b600185161561249c5780820291505b80810290506124aa8561245c565b9450612471565b94509492505050565b5f826124c95760019050612584565b816124d6575f9050612584565b81600181146124ec57600281146124f657612525565b6001915050612584565b60ff8411156125085761250761242f565b5b8360020a91508482111561251f5761251e61242f565b5b50612584565b5060208310610133831016604e8410600b841016171561255a5782820a9050838111156125555761255461242f565b5b612584565b6125678484846001612468565b9250905081840481111561257e5761257d61242f565b5b81810290505b9392505050565b5f61259582611ed0565b91506125a083611ed0565b92506125cd7fffffffffffffffffffffffffffffffffffffffffffffffffffffffffffffffff84846124ba565b905092915050565b5f6125df82611ed0565b91506125ea83611ed0565b92508282026125f881611ed0565b9150828204841483151761260f5761260e61242f565b5b5092915050565b7f4e6f7420656e6f756768206d6f6e6579000000000000000000000000000000005f82015250565b5f61264a60108361227f565b915061265582612616565b602082019050919050565b5f6020820190508181035f8301526126778161263e565b9050919050565b7f416c7265616479206578697374730000000000000000000000000000000000005f82015250565b5f6126b2600e8361227f565b91506126bd8261267e565b602082019050919050565b5f6020820190508181035f8301526126df816126a6565b9050919050565b5f82905092915050565b7f4e487b71000000000000000000000000000000000000000000000000000000005f52604160045260245ffd5b5f819050815f5260205f209050919050565b5f6020601f8301049050919050565b5f82821b905092915050565b5f600883026127797fffffffffffffffffffffffffffffffffffffffffffffffffffffffffffffffff8261273e565b612783868361273e565b95508019841693508086168417925050509392505050565b5f819050919050565b5f6127be6127b96127b484611ed0565b61279b565b611ed0565b9050919050565b5f819050919050565b6127d7836127a4565b6127eb6127e3826127c5565b84845461274a565b825550505050565b5f5f905090565b6128026127f3565b61280d8184846127ce565b505050565b5b81811015612830576128255f826127fa565b600181019050612813565b5050565b601f821115612875576128468161271d565b61284f8461272f565b8101602085101561285e578190505b61287261286a8561272f565b830182612812565b50505b505050565b5f82821c905092915050565b5f6128955f198460080261287a565b1980831691505092915050565b5f6128ad8383612886565b9150826002028217905092915050565b6128c783836126e6565b67ffffffffffffffff8111156128e0576128df6126f0565b5b6128ea825461224f565b6128f5828285612834565b5f601f831160018114612922575f8415612910578287013590505b61291a85826128a2565b865550612981565b601f1984166129308661271d565b5f5b8281101561295757848901358255600182019150602085019450602081019050612932565b868310156129745784890135612970601f891682612886565b8355505b6001600288020188555050505b50505050505050565b7f496e76616c696420726563697069656e740000000000000000000000000000005f82015250565b5f6129be60118361227f565b91506129c98261298a565b602082019050919050565b5f6020820190508181035f8301526129eb816129b2565b9050919050565b5f6129fc82611ed0565b9150612a0783611ed0565b9250828203905081811115612a1f57612a1e61242f565b5b92915050565b5f612a2f82611ed0565b9150612a3a83611ed0565b9250828201905080821115612a5257612a5161242f565b5b92915050565b5f82825260208201905092915050565b50565b5f612a765f83612a58565b9150612a8182612a68565b5f82019050919050565b5f608082019050612a9e5f830186611f5e565b612aab6020830185611f5e565b612ab8604083018461213b565b8181036060830152612ac981612a6b565b9050949350505050565b5f81519050612ae181611e48565b92915050565b5f60208284031215612afc57612afb611e15565b5b5f612b0984828501612ad3565b91505092915050565b7f496e76616c6964207265636965766572000000000000000000000000000000005f82015250565b5f612b4660108361227f565b9150612b5182612b12565b602082019050919050565b5f6020820190508181035f830152612b7381612b3a565b9050919050565b7f546f6b656e2072656a65637465640000000000000000000000000000000000005f82015250565b5f612bae600e8361227f565b9150612bb982612b7a565b602082019050919050565b5f6020820190508181035f830152612bdb81612ba2565b9050919050565b5f81905092915050565b5f612bf75f83612be2565b9150612c0282612a68565b5f82019050919050565b5f612c1682612bec565b9150819050919050565b7f5061796d656e74206661696c65640000000000000000000000000000000000005f82015250565b5f612c54600e8361227f565b9150612c5f82612c20565b602082019050919050565b5f6020820190508181035f830152612c8181612c48565b9050919050565b7f496e76616c6964206164647265737300000000000000000000000000000000005f82015250565b5f612cbc600f8361227f565b9150612cc782612c88565b602082019050919050565b5f6020820190508181035f830152612ce981612cb0565b9050919050565b7f496e73756666696369656e742066756e647300000000000000000000000000005f82015250565b5f612d2460128361227f565b9150612d2f82612cf0565b602082019050919050565b5f6020820190508181035f830152612d5181612d18565b9050919050565b7f5472616e73666572206661696c656400000000000000000000000000000000005f82015250565b5f612d8c600f8361227f565b9150612d9782612d58565b602082019050919050565b5f6020820190508181035f830152612db981612d80565b9050919050565b5f612dca82611ed0565b9150612dd5836121ae565b9250612e027fffffffffffffffffffffffffffffffffffffffffffffffffffffffffffffffff84846124ba565b905092915050565b7f4e487b71000000000000000000000000000000000000000000000000000000005f52603260045260245ffd5b5f819050815f5260205f209050919050565b5f8154612e558161224f565b612e5f8186612be2565b9450600182165f8114612e795760018114612e8e57612ec0565b60ff1983168652811515820286019350612ec0565b612e9785612e37565b5f5b83811015612eb857815481890152600182019150602081019050612e99565b838801955050505b50505092915050565b5f612ed48284612e49565b915081905092915050565b5f612ee9826121ae565b9150612ef4836121ae565b9250828201905060ff811115612f0d57612f0c61242f565b5b92915050565b7f4e487b71000000000000000000000000000000000000000000000000000000005f52601260045260245ffd5b5f612f4a82611ed0565b9150612f5583611ed0565b925082612f6557612f64612f13565b5b82820490509291505056fea2646970667358221220e82467a0f587fcbe307a1aec3b146acfc0fa6bcdc6c483388151ea3b9dadc0fe64736f6c634300081f0033",
			"opcodes": "PUSH1 0x80 PUSH1 0x40 MSTORE PUSH2 0x2711 PUSH0 SSTORE PUSH0 PUSH1 0x5 SSTORE CALLVALUE DUP1 ISZERO PUSH1 0x17 JUMPI PUSH0 PUSH0 REVERT JUMPDEST POP CALLER PUSH1 0x6 PUSH0 PUSH2 0x100 EXP DUP2 SLOAD DUP2 PUSH20 0xFFFFFFFFFFFFFFFFFFFFFFFFFFFFFFFFFFFFFFFF MUL NOT AND SWAP1 DUP4 PUSH20 0xFFFFFFFFFFFFFFFFFFFFFFFFFFFFFFFFFFFFFFFF AND MUL OR SWAP1 SSTORE POP PUSH2 0x2FA6 DUP1 PUSH2 0x65 PUSH0 CODECOPY PUSH0 RETURN INVALID PUSH1 0x80 PUSH1 0x40 MSTORE PUSH1 0x4 CALLDATASIZE LT PUSH2 0xC5 JUMPI PUSH0 CALLDATALOAD PUSH1 0xE0 SHR DUP1 PUSH4 0x50FAC4F1 GT PUSH2 0x7E JUMPI DUP1 PUSH4 0xB90F1AAA GT PUSH2 0x58 JUMPI DUP1 PUSH4 0xB90F1AAA EQ PUSH2 0x24C JUMPI DUP1 PUSH4 0xC57981B5 EQ PUSH2 0x27C JUMPI DUP1 PUSH4 0xC958E0D6 EQ PUSH2 0x2A6 JUMPI DUP1 PUSH4 0xD6AD8A94 EQ PUSH2 0x2BC JUMPI PUSH2 0xCC JUMP JUMPDEST DUP1 PUSH4 0x50FAC4F1 EQ PUSH2 0x1B8 JUMPI DUP1 PUSH4 0x6352211E EQ PUSH2 0x1D4 JUMPI DUP1 PUSH4 0x70A08231 EQ PUSH2 0x210 JUMPI PUSH2 0xCC JUMP JUMPDEST DUP1 PUSH4 0x1FFC9A7 EQ PUSH2 0xD0 JUMPI DUP1 PUSH4 0x81812FC EQ PUSH2 0x10C JUMPI DUP1 PUSH4 0x95EA7B3 EQ PUSH2 0x148 JUMPI DUP1 PUSH4 0xA0EAC29 EQ PUSH2 0x164 JUMPI DUP1 PUSH4 0x23B872DD EQ PUSH2 0x180 JUMPI DUP1 PUSH4 0x42842E0E EQ PUSH2 0x19C JUMPI PUSH2 0xCC JUMP JUMPDEST CALLDATASIZE PUSH2 0xCC JUMPI STOP JUMPDEST PUSH0 PUSH0 REVERT JUMPDEST CALLVALUE DUP1 ISZERO PUSH2 0xDB JUMPI PUSH0 PUSH0 REVERT JUMPDEST POP PUSH2 0xF6 PUSH1 0x4 DUP1 CALLDATASIZE SUB DUP2 ADD SWAP1 PUSH2 0xF1 SWAP2 SWAP1 PUSH2 0x1E72 JUMP JUMPDEST PUSH2 0x2D8 JUMP JUMPDEST PUSH1 0x40 MLOAD PUSH2 0x103 SWAP2 SWAP1 PUSH2 0x1EB7 JUMP JUMPDEST PUSH1 0x40 MLOAD DUP1 SWAP2 SUB SWAP1 RETURN JUMPDEST CALLVALUE DUP1 ISZERO PUSH2 0x117 JUMPI PUSH0 PUSH0 REVERT JUMPDEST POP PUSH2 0x132 PUSH1 0x4 DUP1 CALLDATASIZE SUB DUP2 ADD SWAP1 PUSH2 0x12D SWAP2 SWAP1 PUSH2 0x1F03 JUMP JUMPDEST PUSH2 0x3B9 JUMP JUMPDEST PUSH1 0x40 MLOAD PUSH2 0x13F SWAP2 SWAP1 PUSH2 0x1F6D JUMP JUMPDEST PUSH1 0x40 MLOAD DUP1 SWAP2 SUB SWAP1 RETURN JUMPDEST PUSH2 0x162 PUSH1 0x4 DUP1 CALLDATASIZE SUB DUP2 ADD SWAP1 PUSH2 0x15D SWAP2 SWAP1 PUSH2 0x1FB0 JUMP JUMPDEST PUSH2 0x453 JUMP JUMPDEST STOP JUMPDEST PUSH2 0x17E PUSH1 0x4 DUP1 CALLDATASIZE SUB DUP2 ADD SWAP1 PUSH2 0x179 SWAP2 SWAP1 PUSH2 0x204F JUMP JUMPDEST PUSH2 0x6D6 JUMP JUMPDEST STOP JUMPDEST PUSH2 0x19A PUSH1 0x4 DUP1 CALLDATASIZE SUB DUP2 ADD SWAP1 PUSH2 0x195 SWAP2 SWAP1 PUSH2 0x20C0 JUMP JUMPDEST PUSH2 0x9F3 JUMP JUMPDEST STOP JUMPDEST PUSH2 0x1B6 PUSH1 0x4 DUP1 CALLDATASIZE SUB DUP2 ADD SWAP1 PUSH2 0x1B1 SWAP2 SWAP1 PUSH2 0x20C0 JUMP JUMPDEST PUSH2 0xE01 JUMP JUMPDEST STOP JUMPDEST PUSH2 0x1D2 PUSH1 0x4 DUP1 CALLDATASIZE SUB DUP2 ADD SWAP1 PUSH2 0x1CD SWAP2 SWAP1 PUSH2 0x1F03 JUMP JUMPDEST PUSH2 0x13AE JUMP JUMPDEST STOP JUMPDEST CALLVALUE DUP1 ISZERO PUSH2 0x1DF JUMPI PUSH0 PUSH0 REVERT JUMPDEST POP PUSH2 0x1FA PUSH1 0x4 DUP1 CALLDATASIZE SUB DUP2 ADD SWAP1 PUSH2 0x1F5 SWAP2 SWAP1 PUSH2 0x1F03 JUMP JUMPDEST PUSH2 0x167A JUMP JUMPDEST PUSH1 0x40 MLOAD PUSH2 0x207 SWAP2 SWAP1 PUSH2 0x1F6D JUMP JUMPDEST PUSH1 0x40 MLOAD DUP1 SWAP2 SUB SWAP1 RETURN JUMPDEST CALLVALUE DUP1 ISZERO PUSH2 0x21B JUMPI PUSH0 PUSH0 REVERT JUMPDEST POP PUSH2 0x236 PUSH1 0x4 DUP1 CALLDATASIZE SUB DUP2 ADD SWAP1 PUSH2 0x231 SWAP2 SWAP1 PUSH2 0x2110 JUMP JUMPDEST PUSH2 0x1726 JUMP JUMPDEST PUSH1 0x40 MLOAD PUSH2 0x243 SWAP2 SWAP1 PUSH2 0x214A JUMP JUMPDEST PUSH1 0x40 MLOAD DUP1 SWAP2 SUB SWAP1 RETURN JUMPDEST PUSH2 0x266 PUSH1 0x4 DUP1 CALLDATASIZE SUB DUP2 ADD SWAP1 PUSH2 0x261 SWAP2 SWAP1 PUSH2 0x2163 JUMP JUMPDEST PUSH2 0x17DA JUMP JUMPDEST PUSH1 0x40 MLOAD PUSH2 0x273 SWAP2 SWAP1 PUSH2 0x214A JUMP JUMPDEST PUSH1 0x40 MLOAD DUP1 SWAP2 SUB SWAP1 RETURN JUMPDEST CALLVALUE DUP1 ISZERO PUSH2 0x287 JUMPI PUSH0 PUSH0 REVERT JUMPDEST POP PUSH2 0x290 PUSH2 0x192E JUMP JUMPDEST PUSH1 0x40 MLOAD PUSH2 0x29D SWAP2 SWAP1 PUSH2 0x214A JUMP JUMPDEST PUSH1 0x40 MLOAD DUP1 SWAP2 SUB SWAP1 RETURN JUMPDEST CALLVALUE DUP1 ISZERO PUSH2 0x2B1 JUMPI PUSH0 PUSH0 REVERT JUMPDEST POP PUSH2 0x2BA PUSH2 0x1934 JUMP JUMPDEST STOP JUMPDEST PUSH2 0x2D6 PUSH1 0x4 DUP1 CALLDATASIZE SUB DUP2 ADD SWAP1 PUSH2 0x2D1 SWAP2 SWAP1 PUSH2 0x21E4 JUMP JUMPDEST PUSH2 0x1A8D JUMP JUMPDEST STOP JUMPDEST PUSH0 DUP2 PUSH28 0xFFFFFFFFFFFFFFFFFFFFFFFFFFFFFFFFFFFFFFFFFFFFFFFFFFFFFFFF NOT AND PUSH32 0x1FFC9A700000000000000000000000000000000000000000000000000000000 PUSH28 0xFFFFFFFFFFFFFFFFFFFFFFFFFFFFFFFFFFFFFFFFFFFFFFFFFFFFFFFF NOT AND EQ DUP1 PUSH2 0x3A2 JUMPI POP DUP2 PUSH28 0xFFFFFFFFFFFFFFFFFFFFFFFFFFFFFFFFFFFFFFFFFFFFFFFFFFFFFFFF NOT AND PUSH32 0x73884AB300000000000000000000000000000000000000000000000000000000 PUSH28 0xFFFFFFFFFFFFFFFFFFFFFFFFFFFFFFFFFFFFFFFFFFFFFFFFFFFFFFFF NOT AND EQ JUMPDEST ISZERO PUSH2 0x3B0 JUMPI PUSH1 0x1 SWAP1 POP PUSH2 0x3B4 JUMP JUMPDEST PUSH0 SWAP1 POP JUMPDEST SWAP2 SWAP1 POP JUMP JUMPDEST PUSH0 PUSH0 PUSH1 0x4 PUSH0 DUP5 DUP2 MSTORE PUSH1 0x20 ADD SWAP1 DUP2 MSTORE PUSH1 0x20 ADD PUSH0 KECCAK256 PUSH0 ADD DUP1 SLOAD PUSH2 0x3D9 SWAP1 PUSH2 0x224F JUMP JUMPDEST SWAP1 POP SUB PUSH2 0x41B JUMPI PUSH1 0x40 MLOAD PUSH32 0x8C379A000000000000000000000000000000000000000000000000000000000 DUP2 MSTORE PUSH1 0x4 ADD PUSH2 0x412 SWAP1 PUSH2 0x22D9 JUMP JUMPDEST PUSH1 0x40 MLOAD DUP1 SWAP2 SUB SWAP1 REVERT JUMPDEST PUSH1 0x3 PUSH0 DUP4 DUP2 MSTORE PUSH1 0x20 ADD SWAP1 DUP2 MSTORE PUSH1 0x20 ADD PUSH0 KECCAK256 PUSH0 SWAP1 SLOAD SWAP1 PUSH2 0x100 EXP SWAP1 DIV PUSH20 0xFFFFFFFFFFFFFFFFFFFFFFFFFFFFFFFFFFFFFFFF AND SWAP1 POP SWAP2 SWAP1 POP JUMP JUMPDEST CALLER PUSH20 0xFFFFFFFFFFFFFFFFFFFFFFFFFFFFFFFFFFFFFFFF AND PUSH1 0x2 PUSH0 DUP4 DUP2 MSTORE PUSH1 0x20 ADD SWAP1 DUP2 MSTORE PUSH1 0x20 ADD PUSH0 KECCAK256 PUSH0 SWAP1 SLOAD SWAP1 PUSH2 0x100 EXP SWAP1 DIV PUSH20 0xFFFFFFFFFFFFFFFFFFFFFFFFFFFFFFFFFFFFFFFF AND PUSH20 0xFFFFFFFFFFFFFFFFFFFFFFFFFFFFFFFFFFFFFFFF AND EQ PUSH2 0x4F1 JUMPI PUSH1 0x40 MLOAD PUSH32 0x8C379A000000000000000000000000000000000000000000000000000000000 DUP2 MSTORE PUSH1 0x4 ADD PUSH2 0x4E8 SWAP1 PUSH2 0x2341 JUMP JUMPDEST PUSH1 0x40 MLOAD DUP1 SWAP2 SUB SWAP1 REVERT JUMPDEST PUSH0 PUSH20 0xFFFFFFFFFFFFFFFFFFFFFFFFFFFFFFFFFFFFFFFF AND DUP3 PUSH20 0xFFFFFFFFFFFFFFFFFFFFFFFFFFFFFFFFFFFFFFFF AND EQ ISZERO DUP1 PUSH2 0x588 JUMPI POP PUSH0 PUSH20 0xFFFFFFFFFFFFFFFFFFFFFFFFFFFFFFFFFFFFFFFF AND PUSH1 0x3 PUSH0 DUP4 DUP2 MSTORE PUSH1 0x20 ADD SWAP1 DUP2 MSTORE PUSH1 0x20 ADD PUSH0 KECCAK256 PUSH0 SWAP1 SLOAD SWAP1 PUSH2 0x100 EXP SWAP1 DIV PUSH20 0xFFFFFFFFFFFFFFFFFFFFFFFFFFFFFFFFFFFFFFFF AND PUSH20 0xFFFFFFFFFFFFFFFFFFFFFFFFFFFFFFFFFFFFFFFF AND EQ ISZERO JUMPDEST PUSH2 0x5C7 JUMPI PUSH1 0x40 MLOAD PUSH32 0x8C379A000000000000000000000000000000000000000000000000000000000 DUP2 MSTORE PUSH1 0x4 ADD PUSH2 0x5BE SWAP1 PUSH2 0x23A9 JUMP JUMPDEST PUSH1 0x40 MLOAD DUP1 SWAP2 SUB SWAP1 REVERT JUMPDEST PUSH2 0x5E6 PUSH1 0x4 PUSH0 DUP4 DUP2 MSTORE PUSH1 0x20 ADD SWAP1 DUP2 MSTORE PUSH1 0x20 ADD PUSH0 KECCAK256 PUSH1 0x1 ADD PUSH1 0x1 ADD PUSH2 0x1C10 JUMP JUMPDEST CALLVALUE LT ISZERO PUSH2 0x628 JUMPI PUSH1 0x40 MLOAD PUSH32 0x8C379A000000000000000000000000000000000000000000000000000000000 DUP2 MSTORE PUSH1 0x4 ADD PUSH2 0x61F SWAP1 PUSH2 0x2411 JUMP JUMPDEST PUSH1 0x40 MLOAD DUP1 SWAP2 SUB SWAP1 REVERT JUMPDEST DUP2 PUSH1 0x3 PUSH0 DUP4 DUP2 MSTORE PUSH1 0x20 ADD SWAP1 DUP2 MSTORE PUSH1 0x20 ADD PUSH0 KECCAK256 PUSH0 PUSH2 0x100 EXP DUP2 SLOAD DUP2 PUSH20 0xFFFFFFFFFFFFFFFFFFFFFFFFFFFFFFFFFFFFFFFF MUL NOT AND SWAP1 DUP4 PUSH20 0xFFFFFFFFFFFFFFFFFFFFFFFFFFFFFFFFFFFFFFFF AND MUL OR SWAP1 SSTORE POP DUP1 DUP3 PUSH20 0xFFFFFFFFFFFFFFFFFFFFFFFFFFFFFFFFFFFFFFFF AND CALLER PUSH20 0xFFFFFFFFFFFFFFFFFFFFFFFFFFFFFFFFFFFFFFFF AND PUSH32 0x8C5BE1E5EBEC7D5BD14F71427D1E84F3DD0314C0F7B2291E5B200AC8C7C3B925 PUSH1 0x40 MLOAD PUSH1 0x40 MLOAD DUP1 SWAP2 SUB SWAP1 LOG4 POP POP JUMP JUMPDEST CALLER PUSH20 0xFFFFFFFFFFFFFFFFFFFFFFFFFFFFFFFFFFFFFFFF AND PUSH1 0x3 PUSH0 DUP7 DUP2 MSTORE PUSH1 0x20 ADD SWAP1 DUP2 MSTORE PUSH1 0x20 ADD PUSH0 KECCAK256 PUSH0 SWAP1 SLOAD SWAP1 PUSH2 0x100 EXP SWAP1 DIV PUSH20 0xFFFFFFFFFFFFFFFFFFFFFFFFFFFFFFFFFFFFFFFF AND PUSH20 0xFFFFFFFFFFFFFFFFFFFFFFFFFFFFFFFFFFFFFFFF AND EQ DUP1 PUSH2 0x79B JUMPI POP CALLER PUSH20 0xFFFFFFFFFFFFFFFFFFFFFFFFFFFFFFFFFFFFFFFF AND PUSH1 0x2 PUSH0 DUP7 DUP2 MSTORE PUSH1 0x20 ADD SWAP1 DUP2 MSTORE PUSH1 0x20 ADD PUSH0 KECCAK256 PUSH0 SWAP1 SLOAD SWAP1 PUSH2 0x100 EXP SWAP1 DIV PUSH20 0xFFFFFFFFFFFFFFFFFFFFFFFFFFFFFFFFFFFFFFFF AND PUSH20 0xFFFFFFFFFFFFFFFFFFFFFFFFFFFFFFFFFFFFFFFF AND EQ JUMPDEST PUSH2 0x7DA JUMPI PUSH1 0x40 MLOAD PUSH32 0x8C379A000000000000000000000000000000000000000000000000000000000 DUP2 MSTORE PUSH1 0x4 ADD PUSH2 0x7D1 SWAP1 PUSH2 0x2341 JUMP JUMPDEST PUSH1 0x40 MLOAD DUP1 SWAP2 SUB SWAP1 REVERT JUMPDEST PUSH0 PUSH1 0x4 PUSH0 DUP7 DUP2 MSTORE PUSH1 0x20 ADD SWAP1 DUP2 MSTORE PUSH1 0x20 ADD PUSH0 KECCAK256 PUSH0 ADD DUP1 SLOAD PUSH2 0x7F9 SWAP1 PUSH2 0x224F JUMP JUMPDEST SWAP1 POP SUB PUSH2 0x83B JUMPI PUSH1 0x40 MLOAD PUSH32 0x8C379A000000000000000000000000000000000000000000000000000000000 DUP2 MSTORE PUSH1 0x4 ADD PUSH2 0x832 SWAP1 PUSH2 0x22D9 JUMP JUMPDEST PUSH1 0x40 MLOAD DUP1 SWAP2 SUB SWAP1 REVERT JUMPDEST PUSH0 PUSH1 0x4 PUSH0 DUP7 DUP2 MSTORE PUSH1 0x20 ADD SWAP1 DUP2 MSTORE PUSH1 0x20 ADD PUSH0 KECCAK256 PUSH1 0x1 ADD PUSH0 ADD DUP1 SLOAD SWAP1 POP SWAP1 POP DUP1 PUSH1 0x2 PUSH2 0x865 SWAP2 SWAP1 PUSH2 0x258B JUMP JUMPDEST DUP3 PUSH2 0x870 SWAP2 SWAP1 PUSH2 0x25D5 JUMP JUMPDEST CALLVALUE LT ISZERO PUSH2 0x8B2 JUMPI PUSH1 0x40 MLOAD PUSH32 0x8C379A000000000000000000000000000000000000000000000000000000000 DUP2 MSTORE PUSH1 0x4 ADD PUSH2 0x8A9 SWAP1 PUSH2 0x2660 JUMP JUMPDEST PUSH1 0x40 MLOAD DUP1 SWAP2 SUB SWAP1 REVERT JUMPDEST PUSH0 PUSH2 0x91E DUP6 DUP6 DUP1 DUP1 PUSH1 0x1F ADD PUSH1 0x20 DUP1 SWAP2 DIV MUL PUSH1 0x20 ADD PUSH1 0x40 MLOAD SWAP1 DUP2 ADD PUSH1 0x40 MSTORE DUP1 SWAP4 SWAP3 SWAP2 SWAP1 DUP2 DUP2 MSTORE PUSH1 0x20 ADD DUP4 DUP4 DUP1 DUP3 DUP5 CALLDATACOPY PUSH0 DUP2 DUP5 ADD MSTORE PUSH1 0x1F NOT PUSH1 0x1F DUP3 ADD AND SWAP1 POP DUP1 DUP4 ADD SWAP3 POP POP POP POP POP POP POP PUSH1 0x4 PUSH0 DUP10 DUP2 MSTORE PUSH1 0x20 ADD SWAP1 DUP2 MSTORE PUSH1 0x20 ADD PUSH0 KECCAK256 PUSH1 0x1 ADD PUSH0 ADD PUSH2 0x1C63 SWAP1 SWAP2 SWAP1 PUSH4 0xFFFFFFFF AND JUMP JUMPDEST SWAP1 POP DUP1 ISZERO PUSH2 0x961 JUMPI PUSH1 0x40 MLOAD PUSH32 0x8C379A000000000000000000000000000000000000000000000000000000000 DUP2 MSTORE PUSH1 0x4 ADD PUSH2 0x958 SWAP1 PUSH2 0x26C8 JUMP JUMPDEST PUSH1 0x40 MLOAD DUP1 SWAP2 SUB SWAP1 REVERT JUMPDEST PUSH1 0x4 PUSH0 DUP8 DUP2 MSTORE PUSH1 0x20 ADD SWAP1 DUP2 MSTORE PUSH1 0x20 ADD PUSH0 KECCAK256 PUSH1 0x1 ADD PUSH0 ADD DUP6 DUP6 SWAP1 SWAP2 DUP1 PUSH1 0x1 DUP2 SLOAD ADD DUP1 DUP3 SSTORE DUP1 SWAP2 POP POP PUSH1 0x1 SWAP1 SUB SWAP1 PUSH0 MSTORE PUSH1 0x20 PUSH0 KECCAK256 ADD PUSH0 SWAP1 SWAP2 SWAP3 SWAP1 SWAP2 SWAP3 SWAP1 SWAP2 SWAP3 SWAP1 SWAP2 SWAP3 POP SWAP2 DUP3 PUSH2 0x9AF SWAP3 SWAP2 SWAP1 PUSH2 0x28BD JUMP JUMPDEST POP PUSH1 0x4 PUSH0 DUP8 DUP2 MSTORE PUSH1 0x20 ADD SWAP1 DUP2 MSTORE PUSH1 0x20 ADD PUSH0 KECCAK256 PUSH1 0x1 ADD PUSH1 0x1 ADD DUP4 SWAP1 DUP1 PUSH1 0x1 DUP2 SLOAD ADD DUP1 DUP3 SSTORE DUP1 SWAP2 POP POP PUSH1 0x1 SWAP1 SUB SWAP1 PUSH0 MSTORE PUSH1 0x20 PUSH0 KECCAK256 ADD PUSH0 SWAP1 SWAP2 SWAP1 SWAP2 SWAP1 SWAP2 POP SSTORE POP POP POP POP POP POP JUMP JUMPDEST PUSH0 PUSH20 0xFFFFFFFFFFFFFFFFFFFFFFFFFFFFFFFFFFFFFFFF AND DUP3 PUSH20 0xFFFFFFFFFFFFFFFFFFFFFFFFFFFFFFFFFFFFFFFF AND SUB PUSH2 0xA61 JUMPI PUSH1 0x40 MLOAD PUSH32 0x8C379A000000000000000000000000000000000000000000000000000000000 DUP2 MSTORE PUSH1 0x4 ADD PUSH2 0xA58 SWAP1 PUSH2 0x29D4 JUMP JUMPDEST PUSH1 0x40 MLOAD DUP1 SWAP2 SUB SWAP1 REVERT JUMPDEST DUP3 PUSH20 0xFFFFFFFFFFFFFFFFFFFFFFFFFFFFFFFFFFFFFFFF AND PUSH1 0x2 PUSH0 DUP4 DUP2 MSTORE PUSH1 0x20 ADD SWAP1 DUP2 MSTORE PUSH1 0x20 ADD PUSH0 KECCAK256 PUSH0 SWAP1 SLOAD SWAP1 PUSH2 0x100 EXP SWAP1 DIV PUSH20 0xFFFFFFFFFFFFFFFFFFFFFFFFFFFFFFFFFFFFFFFF AND PUSH20 0xFFFFFFFFFFFFFFFFFFFFFFFFFFFFFFFFFFFFFFFF AND EQ DUP1 ISZERO PUSH2 0xB8D JUMPI POP CALLER PUSH20 0xFFFFFFFFFFFFFFFFFFFFFFFFFFFFFFFFFFFFFFFF AND PUSH1 0x2 PUSH0 DUP4 DUP2 MSTORE PUSH1 0x20 ADD SWAP1 DUP2 MSTORE PUSH1 0x20 ADD PUSH0 KECCAK256 PUSH0 SWAP1 SLOAD SWAP1 PUSH2 0x100 EXP SWAP1 DIV PUSH20 0xFFFFFFFFFFFFFFFFFFFFFFFFFFFFFFFFFFFFFFFF AND PUSH20 0xFFFFFFFFFFFFFFFFFFFFFFFFFFFFFFFFFFFFFFFF AND EQ DUP1 PUSH2 0xB8C JUMPI POP CALLER PUSH20 0xFFFFFFFFFFFFFFFFFFFFFFFFFFFFFFFFFFFFFFFF AND PUSH1 0x3 PUSH0 DUP4 DUP2 MSTORE PUSH1 0x20 ADD SWAP1 DUP2 MSTORE PUSH1 0x20 ADD PUSH0 KECCAK256 PUSH0 SWAP1 SLOAD SWAP1 PUSH2 0x100 EXP SWAP1 DIV PUSH20 0xFFFFFFFFFFFFFFFFFFFFFFFFFFFFFFFFFFFFFFFF AND PUSH20 0xFFFFFFFFFFFFFFFFFFFFFFFFFFFFFFFFFFFFFFFF AND EQ JUMPDEST JUMPDEST PUSH2 0xBCC JUMPI PUSH1 0x40 MLOAD PUSH32 0x8C379A000000000000000000000000000000000000000000000000000000000 DUP2 MSTORE PUSH1 0x4 ADD PUSH2 0xBC3 SWAP1 PUSH2 0x2341 JUMP JUMPDEST PUSH1 0x40 MLOAD DUP1 SWAP2 SUB SWAP1 REVERT JUMPDEST PUSH2 0xBEB PUSH1 0x4 PUSH0 DUP4 DUP2 MSTORE PUSH1 0x20 ADD SWAP1 DUP2 MSTORE PUSH1 0x20 ADD PUSH0 KECCAK256 PUSH1 0x1 ADD PUSH1 0x1 ADD PUSH2 0x1C10 JUMP JUMPDEST CALLVALUE LT ISZERO PUSH2 0xC2D JUMPI PUSH1 0x40 MLOAD PUSH32 0x8C379A000000000000000000000000000000000000000000000000000000000 DUP2 MSTORE PUSH1 0x4 ADD PUSH2 0xC24 SWAP1 PUSH2 0x2411 JUMP JUMPDEST PUSH1 0x40 MLOAD DUP1 SWAP2 SUB SWAP1 REVERT JUMPDEST PUSH1 0x1 DUP1 PUSH0 PUSH1 0x2 PUSH0 DUP6 DUP2 MSTORE PUSH1 0x20 ADD SWAP1 DUP2 MSTORE PUSH1 0x20 ADD PUSH0 KECCAK256 PUSH0 SWAP1 SLOAD SWAP1 PUSH2 0x100 EXP SWAP1 DIV PUSH20 0xFFFFFFFFFFFFFFFFFFFFFFFFFFFFFFFFFFFFFFFF AND PUSH20 0xFFFFFFFFFFFFFFFFFFFFFFFFFFFFFFFFFFFFFFFF AND PUSH20 0xFFFFFFFFFFFFFFFFFFFFFFFFFFFFFFFFFFFFFFFF AND DUP2 MSTORE PUSH1 0x20 ADD SWAP1 DUP2 MSTORE PUSH1 0x20 ADD PUSH0 KECCAK256 PUSH0 DUP3 DUP3 SLOAD PUSH2 0xCA9 SWAP2 SWAP1 PUSH2 0x29F2 JUMP JUMPDEST SWAP3 POP POP DUP2 SWAP1 SSTORE POP PUSH1 0x1 DUP1 PUSH0 DUP5 PUSH20 0xFFFFFFFFFFFFFFFFFFFFFFFFFFFFFFFFFFFFFFFF AND PUSH20 0xFFFFFFFFFFFFFFFFFFFFFFFFFFFFFFFFFFFFFFFF AND DUP2 MSTORE PUSH1 0x20 ADD SWAP1 DUP2 MSTORE PUSH1 0x20 ADD PUSH0 KECCAK256 PUSH0 DUP3 DUP3 SLOAD PUSH2 0xCFC SWAP2 SWAP1 PUSH2 0x2A25 JUMP JUMPDEST SWAP3 POP POP DUP2 SWAP1 SSTORE POP DUP2 PUSH1 0x2 PUSH0 DUP4 DUP2 MSTORE PUSH1 0x20 ADD SWAP1 DUP2 MSTORE PUSH1 0x20 ADD PUSH0 KECCAK256 PUSH0 PUSH2 0x100 EXP DUP2 SLOAD DUP2 PUSH20 0xFFFFFFFFFFFFFFFFFFFFFFFFFFFFFFFFFFFFFFFF MUL NOT AND SWAP1 DUP4 PUSH20 0xFFFFFFFFFFFFFFFFFFFFFFFFFFFFFFFFFFFFFFFF AND MUL OR SWAP1 SSTORE POP PUSH0 PUSH1 0x3 PUSH0 DUP4 DUP2 MSTORE PUSH1 0x20 ADD SWAP1 DUP2 MSTORE PUSH1 0x20 ADD PUSH0 KECCAK256 PUSH0 PUSH2 0x100 EXP DUP2 SLOAD DUP2 PUSH20 0xFFFFFFFFFFFFFFFFFFFFFFFFFFFFFFFFFFFFFFFF MUL NOT AND SWAP1 DUP4 PUSH20 0xFFFFFFFFFFFFFFFFFFFFFFFFFFFFFFFFFFFFFFFF AND MUL OR SWAP1 SSTORE POP DUP1 DUP3 PUSH20 0xFFFFFFFFFFFFFFFFFFFFFFFFFFFFFFFFFFFFFFFF AND DUP5 PUSH20 0xFFFFFFFFFFFFFFFFFFFFFFFFFFFFFFFFFFFFFFFF AND PUSH32 0xDDF252AD1BE2C89B69C2B068FC378DAA952BA7F163C4A11628F55A4DF523B3EF PUSH1 0x40 MLOAD PUSH1 0x40 MLOAD DUP1 SWAP2 SUB SWAP1 LOG4 POP POP POP JUMP JUMPDEST PUSH0 PUSH20 0xFFFFFFFFFFFFFFFFFFFFFFFFFFFFFFFFFFFFFFFF AND DUP3 PUSH20 0xFFFFFFFFFFFFFFFFFFFFFFFFFFFFFFFFFFFFFFFF AND SUB PUSH2 0xE6F JUMPI PUSH1 0x40 MLOAD PUSH32 0x8C379A000000000000000000000000000000000000000000000000000000000 DUP2 MSTORE PUSH1 0x4 ADD PUSH2 0xE66 SWAP1 PUSH2 0x29D4 JUMP JUMPDEST PUSH1 0x40 MLOAD DUP1 SWAP2 SUB SWAP1 REVERT JUMPDEST DUP3 PUSH20 0xFFFFFFFFFFFFFFFFFFFFFFFFFFFFFFFFFFFFFFFF AND PUSH1 0x2 PUSH0 DUP4 DUP2 MSTORE PUSH1 0x20 ADD SWAP1 DUP2 MSTORE PUSH1 0x20 ADD PUSH0 KECCAK256 PUSH0 SWAP1 SLOAD SWAP1 PUSH2 0x100 EXP SWAP1 DIV PUSH20 0xFFFFFFFFFFFFFFFFFFFFFFFFFFFFFFFFFFFFFFFF AND PUSH20 0xFFFFFFFFFFFFFFFFFFFFFFFFFFFFFFFFFFFFFFFF AND EQ DUP1 ISZERO PUSH2 0xF9B JUMPI POP CALLER PUSH20 0xFFFFFFFFFFFFFFFFFFFFFFFFFFFFFFFFFFFFFFFF AND PUSH1 0x2 PUSH0 DUP4 DUP2 MSTORE PUSH1 0x20 ADD SWAP1 DUP2 MSTORE PUSH1 0x20 ADD PUSH0 KECCAK256 PUSH0 SWAP1 SLOAD SWAP1 PUSH2 0x100 EXP SWAP1 DIV PUSH20 0xFFFFFFFFFFFFFFFFFFFFFFFFFFFFFFFFFFFFFFFF AND PUSH20 0xFFFFFFFFFFFFFFFFFFFFFFFFFFFFFFFFFFFFFFFF AND EQ DUP1 PUSH2 0xF9A JUMPI POP CALLER PUSH20 0xFFFFFFFFFFFFFFFFFFFFFFFFFFFFFFFFFFFFFFFF AND PUSH1 0x3 PUSH0 DUP4 DUP2 MSTORE PUSH1 0x20 ADD SWAP1 DUP2 MSTORE PUSH1 0x20 ADD PUSH0 KECCAK256 PUSH0 SWAP1 SLOAD SWAP1 PUSH2 0x100 EXP SWAP1 DIV PUSH20 0xFFFFFFFFFFFFFFFFFFFFFFFFFFFFFFFFFFFFFFFF AND PUSH20 0xFFFFFFFFFFFFFFFFFFFFFFFFFFFFFFFFFFFFFFFF AND EQ JUMPDEST JUMPDEST PUSH2 0xFDA JUMPI PUSH1 0x40 MLOAD PUSH32 0x8C379A000000000000000000000000000000000000000000000000000000000 DUP2 MSTORE PUSH1 0x4 ADD PUSH2 0xFD1 SWAP1 PUSH2 0x2341 JUMP JUMPDEST PUSH1 0x40 MLOAD DUP1 SWAP2 SUB SWAP1 REVERT JUMPDEST PUSH2 0xFF9 PUSH1 0x4 PUSH0 DUP4 DUP2 MSTORE PUSH1 0x20 ADD SWAP1 DUP2 MSTORE PUSH1 0x20 ADD PUSH0 KECCAK256 PUSH1 0x1 ADD PUSH1 0x1 ADD PUSH2 0x1C10 JUMP JUMPDEST CALLVALUE LT ISZERO PUSH2 0x103B JUMPI PUSH1 0x40 MLOAD PUSH32 0x8C379A000000000000000000000000000000000000000000000000000000000 DUP2 MSTORE PUSH1 0x4 ADD PUSH2 0x1032 SWAP1 PUSH2 0x2411 JUMP JUMPDEST PUSH1 0x40 MLOAD DUP1 SWAP2 SUB SWAP1 REVERT JUMPDEST PUSH0 DUP3 PUSH20 0xFFFFFFFFFFFFFFFFFFFFFFFFFFFFFFFFFFFFFFFF AND EXTCODESIZE GT ISZERO PUSH2 0x11DA JUMPI DUP2 PUSH20 0xFFFFFFFFFFFFFFFFFFFFFFFFFFFFFFFFFFFFFFFF AND PUSH4 0x150B7A02 CALLER DUP6 DUP5 PUSH1 0x40 MLOAD DUP5 PUSH4 0xFFFFFFFF AND PUSH1 0xE0 SHL DUP2 MSTORE PUSH1 0x4 ADD PUSH2 0x1097 SWAP4 SWAP3 SWAP2 SWAP1 PUSH2 0x2A8B JUMP JUMPDEST PUSH1 0x20 PUSH1 0x40 MLOAD DUP1 DUP4 SUB DUP2 PUSH0 DUP8 GAS CALL SWAP3 POP POP POP DUP1 ISZERO PUSH2 0x10D2 JUMPI POP PUSH1 0x40 MLOAD RETURNDATASIZE PUSH1 0x1F NOT PUSH1 0x1F DUP3 ADD AND DUP3 ADD DUP1 PUSH1 0x40 MSTORE POP DUP2 ADD SWAP1 PUSH2 0x10CF SWAP2 SWAP1 PUSH2 0x2AE7 JUMP JUMPDEST PUSH1 0x1 JUMPDEST PUSH2 0x1151 JUMPI RETURNDATASIZE DUP1 PUSH0 DUP2 EQ PUSH2 0x1100 JUMPI PUSH1 0x40 MLOAD SWAP2 POP PUSH1 0x1F NOT PUSH1 0x3F RETURNDATASIZE ADD AND DUP3 ADD PUSH1 0x40 MSTORE RETURNDATASIZE DUP3 MSTORE RETURNDATASIZE PUSH0 PUSH1 0x20 DUP5 ADD RETURNDATACOPY PUSH2 0x1105 JUMP JUMPDEST PUSH1 0x60 SWAP2 POP JUMPDEST POP PUSH0 DUP2 MLOAD SUB PUSH2 0x1149 JUMPI PUSH1 0x40 MLOAD PUSH32 0x8C379A000000000000000000000000000000000000000000000000000000000 DUP2 MSTORE PUSH1 0x4 ADD PUSH2 0x1140 SWAP1 PUSH2 0x2B5C JUMP JUMPDEST PUSH1 0x40 MLOAD DUP1 SWAP2 SUB SWAP1 REVERT JUMPDEST DUP1 MLOAD PUSH1 0x20 DUP3 ADD REVERT JUMPDEST PUSH4 0x150B7A02 PUSH1 0xE0 SHL PUSH28 0xFFFFFFFFFFFFFFFFFFFFFFFFFFFFFFFFFFFFFFFFFFFFFFFFFFFFFFFF NOT AND DUP2 PUSH28 0xFFFFFFFFFFFFFFFFFFFFFFFFFFFFFFFFFFFFFFFFFFFFFFFFFFFFFFFF NOT AND EQ PUSH2 0x11D8 JUMPI PUSH1 0x40 MLOAD PUSH32 0x8C379A000000000000000000000000000000000000000000000000000000000 DUP2 MSTORE PUSH1 0x4 ADD PUSH2 0x11CF SWAP1 PUSH2 0x2BC4 JUMP JUMPDEST PUSH1 0x40 MLOAD DUP1 SWAP2 SUB SWAP1 REVERT JUMPDEST POP JUMPDEST PUSH1 0x1 DUP1 PUSH0 PUSH1 0x2 PUSH0 DUP6 DUP2 MSTORE PUSH1 0x20 ADD SWAP1 DUP2 MSTORE PUSH1 0x20 ADD PUSH0 KECCAK256 PUSH0 SWAP1 SLOAD SWAP1 PUSH2 0x100 EXP SWAP1 DIV PUSH20 0xFFFFFFFFFFFFFFFFFFFFFFFFFFFFFFFFFFFFFFFF AND PUSH20 0xFFFFFFFFFFFFFFFFFFFFFFFFFFFFFFFFFFFFFFFF AND PUSH20 0xFFFFFFFFFFFFFFFFFFFFFFFFFFFFFFFFFFFFFFFF AND DUP2 MSTORE PUSH1 0x20 ADD SWAP1 DUP2 MSTORE PUSH1 0x20 ADD PUSH0 KECCAK256 PUSH0 DUP3 DUP3 SLOAD PUSH2 0x1256 SWAP2 SWAP1 PUSH2 0x29F2 JUMP JUMPDEST SWAP3 POP POP DUP2 SWAP1 SSTORE POP PUSH1 0x1 DUP1 PUSH0 DUP5 PUSH20 0xFFFFFFFFFFFFFFFFFFFFFFFFFFFFFFFFFFFFFFFF AND PUSH20 0xFFFFFFFFFFFFFFFFFFFFFFFFFFFFFFFFFFFFFFFF AND DUP2 MSTORE PUSH1 0x20 ADD SWAP1 DUP2 MSTORE PUSH1 0x20 ADD PUSH0 KECCAK256 PUSH0 DUP3 DUP3 SLOAD PUSH2 0x12A9 SWAP2 SWAP1 PUSH2 0x2A25 JUMP JUMPDEST SWAP3 POP POP DUP2 SWAP1 SSTORE POP DUP2 PUSH1 0x2 PUSH0 DUP4 DUP2 MSTORE PUSH1 0x20 ADD SWAP1 DUP2 MSTORE PUSH1 0x20 ADD PUSH0 KECCAK256 PUSH0 PUSH2 0x100 EXP DUP2 SLOAD DUP2 PUSH20 0xFFFFFFFFFFFFFFFFFFFFFFFFFFFFFFFFFFFFFFFF MUL NOT AND SWAP1 DUP4 PUSH20 0xFFFFFFFFFFFFFFFFFFFFFFFFFFFFFFFFFFFFFFFF AND MUL OR SWAP1 SSTORE POP PUSH0 PUSH1 0x3 PUSH0 DUP4 DUP2 MSTORE PUSH1 0x20 ADD SWAP1 DUP2 MSTORE PUSH1 0x20 ADD PUSH0 KECCAK256 PUSH0 PUSH2 0x100 EXP DUP2 SLOAD DUP2 PUSH20 0xFFFFFFFFFFFFFFFFFFFFFFFFFFFFFFFFFFFFFFFF MUL NOT AND SWAP1 DUP4 PUSH20 0xFFFFFFFFFFFFFFFFFFFFFFFFFFFFFFFFFFFFFFFF AND MUL OR SWAP1 SSTORE POP DUP1 DUP3 PUSH20 0xFFFFFFFFFFFFFFFFFFFFFFFFFFFFFFFFFFFFFFFF AND DUP5 PUSH20 0xFFFFFFFFFFFFFFFFFFFFFFFFFFFFFFFFFFFFFFFF AND PUSH32 0xDDF252AD1BE2C89B69C2B068FC378DAA952BA7F163C4A11628F55A4DF523B3EF PUSH1 0x40 MLOAD PUSH1 0x40 MLOAD DUP1 SWAP2 SUB SWAP1 LOG4 POP POP POP JUMP JUMPDEST PUSH0 PUSH20 0xFFFFFFFFFFFFFFFFFFFFFFFFFFFFFFFFFFFFFFFF AND PUSH1 0x2 PUSH0 DUP4 DUP2 MSTORE PUSH1 0x20 ADD SWAP1 DUP2 MSTORE PUSH1 0x20 ADD PUSH0 KECCAK256 PUSH0 SWAP1 SLOAD SWAP1 PUSH2 0x100 EXP SWAP1 DIV PUSH20 0xFFFFFFFFFFFFFFFFFFFFFFFFFFFFFFFFFFFFFFFF AND PUSH20 0xFFFFFFFFFFFFFFFFFFFFFFFFFFFFFFFFFFFFFFFF AND EQ ISZERO DUP1 ISZERO PUSH2 0x1475 JUMPI POP CALLER PUSH20 0xFFFFFFFFFFFFFFFFFFFFFFFFFFFFFFFFFFFFFFFF AND PUSH1 0x2 PUSH0 DUP4 DUP2 MSTORE PUSH1 0x20 ADD SWAP1 DUP2 MSTORE PUSH1 0x20 ADD PUSH0 KECCAK256 PUSH0 SWAP1 SLOAD SWAP1 PUSH2 0x100 EXP SWAP1 DIV PUSH20 0xFFFFFFFFFFFFFFFFFFFFFFFFFFFFFFFFFFFFFFFF AND PUSH20 0xFFFFFFFFFFFFFFFFFFFFFFFFFFFFFFFFFFFFFFFF AND EQ JUMPDEST PUSH2 0x14B4 JUMPI PUSH1 0x40 MLOAD PUSH32 0x8C379A000000000000000000000000000000000000000000000000000000000 DUP2 MSTORE PUSH1 0x4 ADD PUSH2 0x14AB SWAP1 PUSH2 0x2341 JUMP JUMPDEST PUSH1 0x40 MLOAD DUP1 SWAP2 SUB SWAP1 REVERT JUMPDEST PUSH1 0x1 PUSH1 0x5 PUSH0 DUP3 DUP3 SLOAD PUSH2 0x14C6 SWAP2 SWAP1 PUSH2 0x29F2 JUMP JUMPDEST SWAP3 POP POP DUP2 SWAP1 SSTORE POP PUSH1 0x1 DUP1 PUSH0 CALLER PUSH20 0xFFFFFFFFFFFFFFFFFFFFFFFFFFFFFFFFFFFFFFFF AND PUSH20 0xFFFFFFFFFFFFFFFFFFFFFFFFFFFFFFFFFFFFFFFF AND DUP2 MSTORE PUSH1 0x20 ADD SWAP1 DUP2 MSTORE PUSH1 0x20 ADD PUSH0 KECCAK256 PUSH0 DUP3 DUP3 SLOAD PUSH2 0x1519 SWAP2 SWAP1 PUSH2 0x29F2 JUMP JUMPDEST SWAP3 POP POP DUP2 SWAP1 SSTORE POP PUSH1 0x2 PUSH0 DUP3 DUP2 MSTORE PUSH1 0x20 ADD SWAP1 DUP2 MSTORE PUSH1 0x20 ADD PUSH0 KECCAK256 PUSH0 PUSH2 0x100 EXP DUP2 SLOAD SWAP1 PUSH20 0xFFFFFFFFFFFFFFFFFFFFFFFFFFFFFFFFFFFFFFFF MUL NOT AND SWAP1 SSTORE PUSH1 0x3 PUSH0 DUP3 DUP2 MSTORE PUSH1 0x20 ADD SWAP1 DUP2 MSTORE PUSH1 0x20 ADD PUSH0 KECCAK256 PUSH0 PUSH2 0x100 EXP DUP2 SLOAD SWAP1 PUSH20 0xFFFFFFFFFFFFFFFFFFFFFFFFFFFFFFFFFFFFFFFF MUL NOT AND SWAP1 SSTORE PUSH1 0x4 PUSH0 DUP3 DUP2 MSTORE PUSH1 0x20 ADD SWAP1 DUP2 MSTORE PUSH1 0x20 ADD PUSH0 KECCAK256 PUSH0 PUSH0 DUP3 ADD PUSH0 PUSH2 0x15A6 SWAP2 SWAP1 PUSH2 0x1D5E JUMP JUMPDEST PUSH1 0x1 DUP3 ADD PUSH0 PUSH0 DUP3 ADD PUSH0 PUSH2 0x15B9 SWAP2 SWAP1 PUSH2 0x1D9B JUMP JUMPDEST PUSH1 0x1 DUP3 ADD PUSH0 PUSH2 0x15C8 SWAP2 SWAP1 PUSH2 0x1DB9 JUMP JUMPDEST POP POP POP POP PUSH0 CALLER PUSH20 0xFFFFFFFFFFFFFFFFFFFFFFFFFFFFFFFFFFFFFFFF AND PUSH2 0x3E8 PUSH1 0x40 MLOAD PUSH2 0x15F3 SWAP1 PUSH2 0x2C0C JUMP JUMPDEST PUSH0 PUSH1 0x40 MLOAD DUP1 DUP4 SUB DUP2 DUP6 DUP8 GAS CALL SWAP3 POP POP POP RETURNDATASIZE DUP1 PUSH0 DUP2 EQ PUSH2 0x162D JUMPI PUSH1 0x40 MLOAD SWAP2 POP PUSH1 0x1F NOT PUSH1 0x3F RETURNDATASIZE ADD AND DUP3 ADD PUSH1 0x40 MSTORE RETURNDATASIZE DUP3 MSTORE RETURNDATASIZE PUSH0 PUSH1 0x20 DUP5 ADD RETURNDATACOPY PUSH2 0x1632 JUMP JUMPDEST PUSH1 0x60 SWAP2 POP JUMPDEST POP POP SWAP1 POP DUP1 PUSH2 0x1676 JUMPI PUSH1 0x40 MLOAD PUSH32 0x8C379A000000000000000000000000000000000000000000000000000000000 DUP2 MSTORE PUSH1 0x4 ADD PUSH2 0x166D SWAP1 PUSH2 0x2C6A JUMP JUMPDEST PUSH1 0x40 MLOAD DUP1 SWAP2 SUB SWAP1 REVERT JUMPDEST POP POP JUMP JUMPDEST PUSH0 PUSH0 PUSH1 0x2 PUSH0 DUP5 DUP2 MSTORE PUSH1 0x20 ADD SWAP1 DUP2 MSTORE PUSH1 0x20 ADD PUSH0 KECCAK256 PUSH0 SWAP1 SLOAD SWAP1 PUSH2 0x100 EXP SWAP1 DIV PUSH20 0xFFFFFFFFFFFFFFFFFFFFFFFFFFFFFFFFFFFFFFFF AND SWAP1 POP PUSH0 PUSH20 0xFFFFFFFFFFFFFFFFFFFFFFFFFFFFFFFFFFFFFFFF AND DUP2 PUSH20 0xFFFFFFFFFFFFFFFFFFFFFFFFFFFFFFFFFFFFFFFF AND SUB PUSH2 0x171D JUMPI PUSH1 0x40 MLOAD PUSH32 0x8C379A000000000000000000000000000000000000000000000000000000000 DUP2 MSTORE PUSH1 0x4 ADD PUSH2 0x1714 SWAP1 PUSH2 0x22D9 JUMP JUMPDEST PUSH1 0x40 MLOAD DUP1 SWAP2 SUB SWAP1 REVERT JUMPDEST DUP1 SWAP2 POP POP SWAP2 SWAP1 POP JUMP JUMPDEST PUSH0 PUSH0 PUSH20 0xFFFFFFFFFFFFFFFFFFFFFFFFFFFFFFFFFFFFFFFF AND DUP3 PUSH20 0xFFFFFFFFFFFFFFFFFFFFFFFFFFFFFFFFFFFFFFFF AND SUB PUSH2 0x1795 JUMPI PUSH1 0x40 MLOAD PUSH32 0x8C379A000000000000000000000000000000000000000000000000000000000 DUP2 MSTORE PUSH1 0x4 ADD PUSH2 0x178C SWAP1 PUSH2 0x2CD2 JUMP JUMPDEST PUSH1 0x40 MLOAD DUP1 SWAP2 SUB SWAP1 REVERT JUMPDEST PUSH1 0x1 PUSH0 DUP4 PUSH20 0xFFFFFFFFFFFFFFFFFFFFFFFFFFFFFFFFFFFFFFFF AND PUSH20 0xFFFFFFFFFFFFFFFFFFFFFFFFFFFFFFFFFFFFFFFF AND DUP2 MSTORE PUSH1 0x20 ADD SWAP1 DUP2 MSTORE PUSH1 0x20 ADD PUSH0 KECCAK256 SLOAD SWAP1 POP SWAP2 SWAP1 POP JUMP JUMPDEST PUSH0 PUSH2 0x3E8 CALLVALUE LT ISZERO PUSH2 0x1820 JUMPI PUSH1 0x40 MLOAD PUSH32 0x8C379A000000000000000000000000000000000000000000000000000000000 DUP2 MSTORE PUSH1 0x4 ADD PUSH2 0x1817 SWAP1 PUSH2 0x2D3A JUMP JUMPDEST PUSH1 0x40 MLOAD DUP1 SWAP2 SUB SWAP1 REVERT JUMPDEST PUSH1 0x1 DUP1 PUSH0 CALLER PUSH20 0xFFFFFFFFFFFFFFFFFFFFFFFFFFFFFFFFFFFFFFFF AND PUSH20 0xFFFFFFFFFFFFFFFFFFFFFFFFFFFFFFFFFFFFFFFF AND DUP2 MSTORE PUSH1 0x20 ADD SWAP1 DUP2 MSTORE PUSH1 0x20 ADD PUSH0 KECCAK256 PUSH0 DUP3 DUP3 SLOAD PUSH2 0x186C SWAP2 SWAP1 PUSH2 0x2A25 JUMP JUMPDEST SWAP3 POP POP DUP2 SWAP1 SSTORE POP CALLER PUSH1 0x2 PUSH0 PUSH0 SLOAD DUP2 MSTORE PUSH1 0x20 ADD SWAP1 DUP2 MSTORE PUSH1 0x20 ADD PUSH0 KECCAK256 PUSH0 PUSH2 0x100 EXP DUP2 SLOAD DUP2 PUSH20 0xFFFFFFFFFFFFFFFFFFFFFFFFFFFFFFFFFFFFFFFF MUL NOT AND SWAP1 DUP4 PUSH20 0xFFFFFFFFFFFFFFFFFFFFFFFFFFFFFFFFFFFFFFFF AND MUL OR SWAP1 SSTORE POP DUP3 DUP3 PUSH1 0x4 PUSH0 PUSH0 SLOAD DUP2 MSTORE PUSH1 0x20 ADD SWAP1 DUP2 MSTORE PUSH1 0x20 ADD PUSH0 KECCAK256 PUSH0 ADD SWAP2 DUP3 PUSH2 0x18E6 SWAP3 SWAP2 SWAP1 PUSH2 0x28BD JUMP JUMPDEST POP PUSH1 0x1 PUSH1 0x5 PUSH0 DUP3 DUP3 SLOAD PUSH2 0x18F9 SWAP2 SWAP1 PUSH2 0x2A25 JUMP JUMPDEST SWAP3 POP POP DUP2 SWAP1 SSTORE POP PUSH1 0x1 PUSH0 PUSH0 DUP3 DUP3 SLOAD PUSH2 0x1911 SWAP2 SWAP1 PUSH2 0x2A25 JUMP JUMPDEST SWAP3 POP POP DUP2 SWAP1 SSTORE POP PUSH1 0x1 PUSH0 SLOAD PUSH2 0x1926 SWAP2 SWAP1 PUSH2 0x29F2 JUMP JUMPDEST SWAP1 POP SWAP3 SWAP2 POP POP JUMP JUMPDEST PUSH2 0x3E8 DUP2 JUMP JUMPDEST PUSH1 0x6 PUSH0 SWAP1 SLOAD SWAP1 PUSH2 0x100 EXP SWAP1 DIV PUSH20 0xFFFFFFFFFFFFFFFFFFFFFFFFFFFFFFFFFFFFFFFF AND PUSH20 0xFFFFFFFFFFFFFFFFFFFFFFFFFFFFFFFFFFFFFFFF AND CALLER PUSH20 0xFFFFFFFFFFFFFFFFFFFFFFFFFFFFFFFFFFFFFFFF AND EQ PUSH2 0x19C3 JUMPI PUSH1 0x40 MLOAD PUSH32 0x8C379A000000000000000000000000000000000000000000000000000000000 DUP2 MSTORE PUSH1 0x4 ADD PUSH2 0x19BA SWAP1 PUSH2 0x2341 JUMP JUMPDEST PUSH1 0x40 MLOAD DUP1 SWAP2 SUB SWAP1 REVERT JUMPDEST PUSH0 PUSH2 0x3E8 PUSH1 0x5 SLOAD PUSH2 0x19D4 SWAP2 SWAP1 PUSH2 0x25D5 JUMP JUMPDEST SELFBALANCE PUSH2 0x19DF SWAP2 SWAP1 PUSH2 0x29F2 JUMP JUMPDEST SWAP1 POP PUSH0 CALLER PUSH20 0xFFFFFFFFFFFFFFFFFFFFFFFFFFFFFFFFFFFFFFFF AND DUP3 PUSH1 0x40 MLOAD PUSH2 0x1A06 SWAP1 PUSH2 0x2C0C JUMP JUMPDEST PUSH0 PUSH1 0x40 MLOAD DUP1 DUP4 SUB DUP2 DUP6 DUP8 GAS CALL SWAP3 POP POP POP RETURNDATASIZE DUP1 PUSH0 DUP2 EQ PUSH2 0x1A40 JUMPI PUSH1 0x40 MLOAD SWAP2 POP PUSH1 0x1F NOT PUSH1 0x3F RETURNDATASIZE ADD AND DUP3 ADD PUSH1 0x40 MSTORE RETURNDATASIZE DUP3 MSTORE RETURNDATASIZE PUSH0 PUSH1 0x20 DUP5 ADD RETURNDATACOPY PUSH2 0x1A45 JUMP JUMPDEST PUSH1 0x60 SWAP2 POP JUMPDEST POP POP SWAP1 POP DUP1 PUSH2 0x1A89 JUMPI PUSH1 0x40 MLOAD PUSH32 0x8C379A000000000000000000000000000000000000000000000000000000000 DUP2 MSTORE PUSH1 0x4 ADD PUSH2 0x1A80 SWAP1 PUSH2 0x2DA2 JUMP JUMPDEST PUSH1 0x40 MLOAD DUP1 SWAP2 SUB SWAP1 REVERT JUMPDEST POP POP JUMP JUMPDEST CALLER PUSH20 0xFFFFFFFFFFFFFFFFFFFFFFFFFFFFFFFFFFFFFFFF AND PUSH1 0x3 PUSH0 DUP5 DUP2 MSTORE PUSH1 0x20 ADD SWAP1 DUP2 MSTORE PUSH1 0x20 ADD PUSH0 KECCAK256 PUSH0 SWAP1 SLOAD SWAP1 PUSH2 0x100 EXP SWAP1 DIV PUSH20 0xFFFFFFFFFFFFFFFFFFFFFFFFFFFFFFFFFFFFFFFF AND PUSH20 0xFFFFFFFFFFFFFFFFFFFFFFFFFFFFFFFFFFFFFFFF AND EQ DUP1 PUSH2 0x1B52 JUMPI POP CALLER PUSH20 0xFFFFFFFFFFFFFFFFFFFFFFFFFFFFFFFFFFFFFFFF AND PUSH1 0x2 PUSH0 DUP5 DUP2 MSTORE PUSH1 0x20 ADD SWAP1 DUP2 MSTORE PUSH1 0x20 ADD PUSH0 KECCAK256 PUSH0 SWAP1 SLOAD SWAP1 PUSH2 0x100 EXP SWAP1 DIV PUSH20 0xFFFFFFFFFFFFFFFFFFFFFFFFFFFFFFFFFFFFFFFF AND PUSH20 0xFFFFFFFFFFFFFFFFFFFFFFFFFFFFFFFFFFFFFFFF AND EQ JUMPDEST PUSH2 0x1B91 JUMPI PUSH1 0x40 MLOAD PUSH32 0x8C379A000000000000000000000000000000000000000000000000000000000 DUP2 MSTORE PUSH1 0x4 ADD PUSH2 0x1B88 SWAP1 PUSH2 0x2341 JUMP JUMPDEST PUSH1 0x40 MLOAD DUP1 SWAP2 SUB SWAP1 REVERT JUMPDEST PUSH1 0x2 DUP2 PUSH1 0xFF AND PUSH2 0x1BA1 SWAP2 SWAP1 PUSH2 0x2DC0 JUMP JUMPDEST CALLVALUE LT ISZERO PUSH2 0x1BE3 JUMPI PUSH1 0x40 MLOAD PUSH32 0x8C379A000000000000000000000000000000000000000000000000000000000 DUP2 MSTORE PUSH1 0x4 ADD PUSH2 0x1BDA SWAP1 PUSH2 0x2660 JUMP JUMPDEST PUSH1 0x40 MLOAD DUP1 SWAP2 SUB SWAP1 REVERT JUMPDEST PUSH2 0x1C0C DUP2 PUSH1 0x4 PUSH0 DUP6 DUP2 MSTORE PUSH1 0x20 ADD SWAP1 DUP2 MSTORE PUSH1 0x20 ADD PUSH0 KECCAK256 PUSH1 0x1 ADD PUSH1 0x1 ADD PUSH2 0x1CDA SWAP1 SWAP2 SWAP1 PUSH4 0xFFFFFFFF AND JUMP JUMPDEST POP POP JUMP JUMPDEST PUSH0 PUSH0 PUSH0 PUSH0 SWAP1 POP JUMPDEST DUP4 DUP1 SLOAD SWAP1 POP DUP2 LT ISZERO PUSH2 0x1C59 JUMPI DUP4 DUP2 DUP2 SLOAD DUP2 LT PUSH2 0x1C36 JUMPI PUSH2 0x1C35 PUSH2 0x2E0A JUMP JUMPDEST JUMPDEST SWAP1 PUSH0 MSTORE PUSH1 0x20 PUSH0 KECCAK256 ADD SLOAD DUP3 PUSH2 0x1C4A SWAP2 SWAP1 PUSH2 0x2A25 JUMP JUMPDEST SWAP2 POP DUP1 DUP1 PUSH1 0x1 ADD SWAP2 POP POP PUSH2 0x1C17 JUMP JUMPDEST POP DUP1 SWAP2 POP POP SWAP2 SWAP1 POP JUMP JUMPDEST PUSH0 PUSH0 DUP3 DUP1 MLOAD SWAP1 PUSH1 0x20 ADD KECCAK256 SWAP1 POP PUSH0 PUSH0 SWAP1 POP JUMPDEST DUP5 DUP1 SLOAD SWAP1 POP DUP2 LT ISZERO PUSH2 0x1CCE JUMPI DUP2 DUP6 DUP3 DUP2 SLOAD DUP2 LT PUSH2 0x1C94 JUMPI PUSH2 0x1C93 PUSH2 0x2E0A JUMP JUMPDEST JUMPDEST SWAP1 PUSH0 MSTORE PUSH1 0x20 PUSH0 KECCAK256 ADD PUSH1 0x40 MLOAD PUSH2 0x1CA9 SWAP2 SWAP1 PUSH2 0x2EC9 JUMP JUMPDEST PUSH1 0x40 MLOAD DUP1 SWAP2 SUB SWAP1 KECCAK256 SUB PUSH2 0x1CC1 JUMPI PUSH1 0x1 SWAP3 POP POP POP PUSH2 0x1CD4 JUMP JUMPDEST DUP1 DUP1 PUSH1 0x1 ADD SWAP2 POP POP PUSH2 0x1C74 JUMP JUMPDEST POP PUSH0 SWAP2 POP POP JUMPDEST SWAP3 SWAP2 POP POP JUMP JUMPDEST PUSH0 PUSH0 SWAP1 POP JUMPDEST DUP3 DUP1 SLOAD SWAP1 POP DUP2 LT ISZERO PUSH2 0x1D59 JUMPI PUSH1 0x64 DUP3 PUSH1 0x64 PUSH2 0x1CFA SWAP2 SWAP1 PUSH2 0x2EDF JUMP JUMPDEST PUSH1 0xFF AND DUP5 DUP4 DUP2 SLOAD DUP2 LT PUSH2 0x1D10 JUMPI PUSH2 0x1D0F PUSH2 0x2E0A JUMP JUMPDEST JUMPDEST SWAP1 PUSH0 MSTORE PUSH1 0x20 PUSH0 KECCAK256 ADD SLOAD PUSH2 0x1D23 SWAP2 SWAP1 PUSH2 0x25D5 JUMP JUMPDEST PUSH2 0x1D2D SWAP2 SWAP1 PUSH2 0x2F40 JUMP JUMPDEST DUP4 DUP3 DUP2 SLOAD DUP2 LT PUSH2 0x1D40 JUMPI PUSH2 0x1D3F PUSH2 0x2E0A JUMP JUMPDEST JUMPDEST SWAP1 PUSH0 MSTORE PUSH1 0x20 PUSH0 KECCAK256 ADD DUP2 SWAP1 SSTORE POP DUP1 DUP1 PUSH1 0x1 ADD SWAP2 POP POP PUSH2 0x1CDF JUMP JUMPDEST POP POP POP JUMP JUMPDEST POP DUP1 SLOAD PUSH2 0x1D6A SWAP1 PUSH2 0x224F JUMP JUMPDEST PUSH0 DUP3 SSTORE DUP1 PUSH1 0x1F LT PUSH2 0x1D7B JUMPI POP PUSH2 0x1D98 JUMP JUMPDEST PUSH1 0x1F ADD PUSH1 0x20 SWAP1 DIV SWAP1 PUSH0 MSTORE PUSH1 0x20 PUSH0 KECCAK256 SWAP1 DUP2 ADD SWAP1 PUSH2 0x1D97 SWAP2 SWAP1 PUSH2 0x1DD7 JUMP JUMPDEST JUMPDEST POP JUMP JUMPDEST POP DUP1 SLOAD PUSH0 DUP3 SSTORE SWAP1 PUSH0 MSTORE PUSH1 0x20 PUSH0 KECCAK256 SWAP1 DUP2 ADD SWAP1 PUSH2 0x1DB6 SWAP2 SWAP1 PUSH2 0x1DF2 JUMP JUMPDEST POP JUMP JUMPDEST POP DUP1 SLOAD PUSH0 DUP3 SSTORE SWAP1 PUSH0 MSTORE PUSH1 0x20 PUSH0 KECCAK256 SWAP1 DUP2 ADD SWAP1 PUSH2 0x1DD4 SWAP2 SWAP1 PUSH2 0x1DD7 JUMP JUMPDEST POP JUMP JUMPDEST JUMPDEST DUP1 DUP3 GT ISZERO PUSH2 0x1DEE JUMPI PUSH0 DUP2 PUSH0 SWAP1 SSTORE POP PUSH1 0x1 ADD PUSH2 0x1DD8 JUMP JUMPDEST POP SWAP1 JUMP JUMPDEST JUMPDEST DUP1 DUP3 GT ISZERO PUSH2 0x1E11 JUMPI PUSH0 DUP2 DUP2 PUSH2 0x1E08 SWAP2 SWAP1 PUSH2 0x1D5E JUMP JUMPDEST POP PUSH1 0x1 ADD PUSH2 0x1DF3 JUMP JUMPDEST POP SWAP1 JUMP JUMPDEST PUSH0 PUSH0 REVERT JUMPDEST PUSH0 PUSH0 REVERT JUMPDEST PUSH0 PUSH32 0xFFFFFFFF00000000000000000000000000000000000000000000000000000000 DUP3 AND SWAP1 POP SWAP2 SWAP1 POP JUMP JUMPDEST PUSH2 0x1E51 DUP2 PUSH2 0x1E1D JUMP JUMPDEST DUP2 EQ PUSH2 0x1E5B JUMPI PUSH0 PUSH0 REVERT JUMPDEST POP JUMP JUMPDEST PUSH0 DUP2 CALLDATALOAD SWAP1 POP PUSH2 0x1E6C DUP2 PUSH2 0x1E48 JUMP JUMPDEST SWAP3 SWAP2 POP POP JUMP JUMPDEST PUSH0 PUSH1 0x20 DUP3 DUP5 SUB SLT ISZERO PUSH2 0x1E87 JUMPI PUSH2 0x1E86 PUSH2 0x1E15 JUMP JUMPDEST JUMPDEST PUSH0 PUSH2 0x1E94 DUP5 DUP3 DUP6 ADD PUSH2 0x1E5E JUMP JUMPDEST SWAP2 POP POP SWAP3 SWAP2 POP POP JUMP JUMPDEST PUSH0 DUP2 ISZERO ISZERO SWAP1 POP SWAP2 SWAP1 POP JUMP JUMPDEST PUSH2 0x1EB1 DUP2 PUSH2 0x1E9D JUMP JUMPDEST DUP3 MSTORE POP POP JUMP JUMPDEST PUSH0 PUSH1 0x20 DUP3 ADD SWAP1 POP PUSH2 0x1ECA PUSH0 DUP4 ADD DUP5 PUSH2 0x1EA8 JUMP JUMPDEST SWAP3 SWAP2 POP POP JUMP JUMPDEST PUSH0 DUP2 SWAP1 POP SWAP2 SWAP1 POP JUMP JUMPDEST PUSH2 0x1EE2 DUP2 PUSH2 0x1ED0 JUMP JUMPDEST DUP2 EQ PUSH2 0x1EEC JUMPI PUSH0 PUSH0 REVERT JUMPDEST POP JUMP JUMPDEST PUSH0 DUP2 CALLDATALOAD SWAP1 POP PUSH2 0x1EFD DUP2 PUSH2 0x1ED9 JUMP JUMPDEST SWAP3 SWAP2 POP POP JUMP JUMPDEST PUSH0 PUSH1 0x20 DUP3 DUP5 SUB SLT ISZERO PUSH2 0x1F18 JUMPI PUSH2 0x1F17 PUSH2 0x1E15 JUMP JUMPDEST JUMPDEST PUSH0 PUSH2 0x1F25 DUP5 DUP3 DUP6 ADD PUSH2 0x1EEF JUMP JUMPDEST SWAP2 POP POP SWAP3 SWAP2 POP POP JUMP JUMPDEST PUSH0 PUSH20 0xFFFFFFFFFFFFFFFFFFFFFFFFFFFFFFFFFFFFFFFF DUP3 AND SWAP1 POP SWAP2 SWAP1 POP JUMP JUMPDEST PUSH0 PUSH2 0x1F57 DUP3 PUSH2 0x1F2E JUMP JUMPDEST SWAP1 POP SWAP2 SWAP1 POP JUMP JUMPDEST PUSH2 0x1F67 DUP2 PUSH2 0x1F4D JUMP JUMPDEST DUP3 MSTORE POP POP JUMP JUMPDEST PUSH0 PUSH1 0x20 DUP3 ADD SWAP1 POP PUSH2 0x1F80 PUSH0 DUP4 ADD DUP5 PUSH2 0x1F5E JUMP JUMPDEST SWAP3 SWAP2 POP POP JUMP JUMPDEST PUSH2 0x1F8F DUP2 PUSH2 0x1F4D JUMP JUMPDEST DUP2 EQ PUSH2 0x1F99 JUMPI PUSH0 PUSH0 REVERT JUMPDEST POP JUMP JUMPDEST PUSH0 DUP2 CALLDATALOAD SWAP1 POP PUSH2 0x1FAA DUP2 PUSH2 0x1F86 JUMP JUMPDEST SWAP3 SWAP2 POP POP JUMP JUMPDEST PUSH0 PUSH0 PUSH1 0x40 DUP4 DUP6 SUB SLT ISZERO PUSH2 0x1FC6 JUMPI PUSH2 0x1FC5 PUSH2 0x1E15 JUMP JUMPDEST JUMPDEST PUSH0 PUSH2 0x1FD3 DUP6 DUP3 DUP7 ADD PUSH2 0x1F9C JUMP JUMPDEST SWAP3 POP POP PUSH1 0x20 PUSH2 0x1FE4 DUP6 DUP3 DUP7 ADD PUSH2 0x1EEF JUMP JUMPDEST SWAP2 POP POP SWAP3 POP SWAP3 SWAP1 POP JUMP JUMPDEST PUSH0 PUSH0 REVERT JUMPDEST PUSH0 PUSH0 REVERT JUMPDEST PUSH0 PUSH0 REVERT JUMPDEST PUSH0 PUSH0 DUP4 PUSH1 0x1F DUP5 ADD SLT PUSH2 0x200F JUMPI PUSH2 0x200E PUSH2 0x1FEE JUMP JUMPDEST JUMPDEST DUP3 CALLDATALOAD SWAP1 POP PUSH8 0xFFFFFFFFFFFFFFFF DUP2 GT ISZERO PUSH2 0x202C JUMPI PUSH2 0x202B PUSH2 0x1FF2 JUMP JUMPDEST JUMPDEST PUSH1 0x20 DUP4 ADD SWAP2 POP DUP4 PUSH1 0x1 DUP3 MUL DUP4 ADD GT ISZERO PUSH2 0x2048 JUMPI PUSH2 0x2047 PUSH2 0x1FF6 JUMP JUMPDEST JUMPDEST SWAP3 POP SWAP3 SWAP1 POP JUMP JUMPDEST PUSH0 PUSH0 PUSH0 PUSH0 PUSH1 0x60 DUP6 DUP8 SUB SLT ISZERO PUSH2 0x2067 JUMPI PUSH2 0x2066 PUSH2 0x1E15 JUMP JUMPDEST JUMPDEST PUSH0 PUSH2 0x2074 DUP8 DUP3 DUP9 ADD PUSH2 0x1EEF JUMP JUMPDEST SWAP5 POP POP PUSH1 0x20 DUP6 ADD CALLDATALOAD PUSH8 0xFFFFFFFFFFFFFFFF DUP2 GT ISZERO PUSH2 0x2095 JUMPI PUSH2 0x2094 PUSH2 0x1E19 JUMP JUMPDEST JUMPDEST PUSH2 0x20A1 DUP8 DUP3 DUP9 ADD PUSH2 0x1FFA JUMP JUMPDEST SWAP4 POP SWAP4 POP POP PUSH1 0x40 PUSH2 0x20B4 DUP8 DUP3 DUP9 ADD PUSH2 0x1EEF JUMP JUMPDEST SWAP2 POP POP SWAP3 SWAP6 SWAP2 SWAP5 POP SWAP3 POP JUMP JUMPDEST PUSH0 PUSH0 PUSH0 PUSH1 0x60 DUP5 DUP7 SUB SLT ISZERO PUSH2 0x20D7 JUMPI PUSH2 0x20D6 PUSH2 0x1E15 JUMP JUMPDEST JUMPDEST PUSH0 PUSH2 0x20E4 DUP7 DUP3 DUP8 ADD PUSH2 0x1F9C JUMP JUMPDEST SWAP4 POP POP PUSH1 0x20 PUSH2 0x20F5 DUP7 DUP3 DUP8 ADD PUSH2 0x1F9C JUMP JUMPDEST SWAP3 POP POP PUSH1 0x40 PUSH2 0x2106 DUP7 DUP3 DUP8 ADD PUSH2 0x1EEF JUMP JUMPDEST SWAP2 POP POP SWAP3 POP SWAP3 POP SWAP3 JUMP JUMPDEST PUSH0 PUSH1 0x20 DUP3 DUP5 SUB SLT ISZERO PUSH2 0x2125 JUMPI PUSH2 0x2124 PUSH2 0x1E15 JUMP JUMPDEST JUMPDEST PUSH0 PUSH2 0x2132 DUP5 DUP3 DUP6 ADD PUSH2 0x1F9C JUMP JUMPDEST SWAP2 POP POP SWAP3 SWAP2 POP POP JUMP JUMPDEST PUSH2 0x2144 DUP2 PUSH2 0x1ED0 JUMP JUMPDEST DUP3 MSTORE POP POP JUMP JUMPDEST PUSH0 PUSH1 0x20 DUP3 ADD SWAP1 POP PUSH2 0x215D PUSH0 DUP4 ADD DUP5 PUSH2 0x213B JUMP JUMPDEST SWAP3 SWAP2 POP POP JUMP JUMPDEST PUSH0 PUSH0 PUSH1 0x20 DUP4 DUP6 SUB SLT ISZERO PUSH2 0x2179 JUMPI PUSH2 0x2178 PUSH2 0x1E15 JUMP JUMPDEST JUMPDEST PUSH0 DUP4 ADD CALLDATALOAD PUSH8 0xFFFFFFFFFFFFFFFF DUP2 GT ISZERO PUSH2 0x2196 JUMPI PUSH2 0x2195 PUSH2 0x1E19 JUMP JUMPDEST JUMPDEST PUSH2 0x21A2 DUP6 DUP3 DUP7 ADD PUSH2 0x1FFA JUMP JUMPDEST SWAP3 POP SWAP3 POP POP SWAP3 POP SWAP3 SWAP1 POP JUMP JUMPDEST PUSH0 PUSH1 0xFF DUP3 AND SWAP1 POP SWAP2 SWAP1 POP JUMP JUMPDEST PUSH2 0x21C3 DUP2 PUSH2 0x21AE JUMP JUMPDEST DUP2 EQ PUSH2 0x21CD JUMPI PUSH0 PUSH0 REVERT JUMPDEST POP JUMP JUMPDEST PUSH0 DUP2 CALLDATALOAD SWAP1 POP PUSH2 0x21DE DUP2 PUSH2 0x21BA JUMP JUMPDEST SWAP3 SWAP2 POP POP JUMP JUMPDEST PUSH0 PUSH0 PUSH1 0x40 DUP4 DUP6 SUB SLT ISZERO PUSH2 0x21FA JUMPI PUSH2 0x21F9 PUSH2 0x1E15 JUMP JUMPDEST JUMPDEST PUSH0 PUSH2 0x2207 DUP6 DUP3 DUP7 ADD PUSH2 0x1EEF JUMP JUMPDEST SWAP3 POP POP PUSH1 0x20 PUSH2 0x2218 DUP6 DUP3 DUP7 ADD PUSH2 0x21D0 JUMP JUMPDEST SWAP2 POP POP SWAP3 POP SWAP3 SWAP1 POP JUMP JUMPDEST PUSH32 0x4E487B7100000000000000000000000000000000000000000000000000000000 PUSH0 MSTORE PUSH1 0x22 PUSH1 0x4 MSTORE PUSH1 0x24 PUSH0 REVERT JUMPDEST PUSH0 PUSH1 0x2 DUP3 DIV SWAP1 POP PUSH1 0x1 DUP3 AND DUP1 PUSH2 0x2266 JUMPI PUSH1 0x7F DUP3 AND SWAP2 POP JUMPDEST PUSH1 0x20 DUP3 LT DUP2 SUB PUSH2 0x2279 JUMPI PUSH2 0x2278 PUSH2 0x2222 JUMP JUMPDEST JUMPDEST POP SWAP2 SWAP1 POP JUMP JUMPDEST PUSH0 DUP3 DUP3 MSTORE PUSH1 0x20 DUP3 ADD SWAP1 POP SWAP3 SWAP2 POP POP JUMP JUMPDEST PUSH32 0x496E76616C696420746F6B656E00000000000000000000000000000000000000 PUSH0 DUP3 ADD MSTORE POP JUMP JUMPDEST PUSH0 PUSH2 0x22C3 PUSH1 0xD DUP4 PUSH2 0x227F JUMP JUMPDEST SWAP2 POP PUSH2 0x22CE DUP3 PUSH2 0x228F JUMP JUMPDEST PUSH1 0x20 DUP3 ADD SWAP1 POP SWAP2 SWAP1 POP JUMP JUMPDEST PUSH0 PUSH1 0x20 DUP3 ADD SWAP1 POP DUP2 DUP2 SUB PUSH0 DUP4 ADD MSTORE PUSH2 0x22F0 DUP2 PUSH2 0x22B7 JUMP JUMPDEST SWAP1 POP SWAP2 SWAP1 POP JUMP JUMPDEST PUSH32 0x556E617574686F72697A65642061636365737300000000000000000000000000 PUSH0 DUP3 ADD MSTORE POP JUMP JUMPDEST PUSH0 PUSH2 0x232B PUSH1 0x13 DUP4 PUSH2 0x227F JUMP JUMPDEST SWAP2 POP PUSH2 0x2336 DUP3 PUSH2 0x22F7 JUMP JUMPDEST PUSH1 0x20 DUP3 ADD SWAP1 POP SWAP2 SWAP1 POP JUMP JUMPDEST PUSH0 PUSH1 0x20 DUP3 ADD SWAP1 POP DUP2 DUP2 SUB PUSH0 DUP4 ADD MSTORE PUSH2 0x2358 DUP2 PUSH2 0x231F JUMP JUMPDEST SWAP1 POP SWAP2 SWAP1 POP JUMP JUMPDEST PUSH32 0x4E6F7468696E6720746F20617070726F76650000000000000000000000000000 PUSH0 DUP3 ADD MSTORE POP JUMP JUMPDEST PUSH0 PUSH2 0x2393 PUSH1 0x12 DUP4 PUSH2 0x227F JUMP JUMPDEST SWAP2 POP PUSH2 0x239E DUP3 PUSH2 0x235F JUMP JUMPDEST PUSH1 0x20 DUP3 ADD SWAP1 POP SWAP2 SWAP1 POP JUMP JUMPDEST PUSH0 PUSH1 0x20 DUP3 ADD SWAP1 POP DUP2 DUP2 SUB PUSH0 DUP4 ADD MSTORE PUSH2 0x23C0 DUP2 PUSH2 0x2387 JUMP JUMPDEST SWAP1 POP SWAP2 SWAP1 POP JUMP JUMPDEST PUSH32 0x4E6F7420656E6F7567682066756E647300000000000000000000000000000000 PUSH0 DUP3 ADD MSTORE POP JUMP JUMPDEST PUSH0 PUSH2 0x23FB PUSH1 0x10 DUP4 PUSH2 0x227F JUMP JUMPDEST SWAP2 POP PUSH2 0x2406 DUP3 PUSH2 0x23C7 JUMP JUMPDEST PUSH1 0x20 DUP3 ADD SWAP1 POP SWAP2 SWAP1 POP JUMP JUMPDEST PUSH0 PUSH1 0x20 DUP3 ADD SWAP1 POP DUP2 DUP2 SUB PUSH0 DUP4 ADD MSTORE PUSH2 0x2428 DUP2 PUSH2 0x23EF JUMP JUMPDEST SWAP1 POP SWAP2 SWAP1 POP JUMP JUMPDEST PUSH32 0x4E487B7100000000000000000000000000000000000000000000000000000000 PUSH0 MSTORE PUSH1 0x11 PUSH1 0x4 MSTORE PUSH1 0x24 PUSH0 REVERT JUMPDEST PUSH0 DUP2 PUSH1 0x1 SHR SWAP1 POP SWAP2 SWAP1 POP JUMP JUMPDEST PUSH0 PUSH0 DUP3 SWAP2 POP DUP4 SWAP1 POP JUMPDEST PUSH1 0x1 DUP6 GT ISZERO PUSH2 0x24B1 JUMPI DUP1 DUP7 DIV DUP2 GT ISZERO PUSH2 0x248D JUMPI PUSH2 0x248C PUSH2 0x242F JUMP JUMPDEST JUMPDEST PUSH1 0x1 DUP6 AND ISZERO PUSH2 0x249C JUMPI DUP1 DUP3 MUL SWAP2 POP JUMPDEST DUP1 DUP2 MUL SWAP1 POP PUSH2 0x24AA DUP6 PUSH2 0x245C JUMP JUMPDEST SWAP5 POP PUSH2 0x2471 JUMP JUMPDEST SWAP5 POP SWAP5 SWAP3 POP POP POP JUMP JUMPDEST PUSH0 DUP3 PUSH2 0x24C9 JUMPI PUSH1 0x1 SWAP1 POP PUSH2 0x2584 JUMP JUMPDEST DUP2 PUSH2 0x24D6 JUMPI PUSH0 SWAP1 POP PUSH2 0x2584 JUMP JUMPDEST DUP2 PUSH1 0x1 DUP2 EQ PUSH2 0x24EC JUMPI PUSH1 0x2 DUP2 EQ PUSH2 0x24F6 JUMPI PUSH2 0x2525 JUMP JUMPDEST PUSH1 0x1 SWAP2 POP POP PUSH2 0x2584 JUMP JUMPDEST PUSH1 0xFF DUP5 GT ISZERO PUSH2 0x2508 JUMPI PUSH2 0x2507 PUSH2 0x242F JUMP JUMPDEST JUMPDEST DUP4 PUSH1 0x2 EXP SWAP2 POP DUP5 DUP3 GT ISZERO PUSH2 0x251F JUMPI PUSH2 0x251E PUSH2 0x242F JUMP JUMPDEST JUMPDEST POP PUSH2 0x2584 JUMP JUMPDEST POP PUSH1 0x20 DUP4 LT PUSH2 0x133 DUP4 LT AND PUSH1 0x4E DUP5 LT PUSH1 0xB DUP5 LT AND OR ISZERO PUSH2 0x255A JUMPI DUP3 DUP3 EXP SWAP1 POP DUP4 DUP2 GT ISZERO PUSH2 0x2555 JUMPI PUSH2 0x2554 PUSH2 0x242F JUMP JUMPDEST JUMPDEST PUSH2 0x2584 JUMP JUMPDEST PUSH2 0x2567 DUP5 DUP5 DUP5 PUSH1 0x1 PUSH2 0x2468 JUMP JUMPDEST SWAP3 POP SWAP1 POP DUP2 DUP5 DIV DUP2 GT ISZERO PUSH2 0x257E JUMPI PUSH2 0x257D PUSH2 0x242F JUMP JUMPDEST JUMPDEST DUP2 DUP2 MUL SWAP1 POP JUMPDEST SWAP4 SWAP3 POP POP POP JUMP JUMPDEST PUSH0 PUSH2 0x2595 DUP3 PUSH2 0x1ED0 JUMP JUMPDEST SWAP2 POP PUSH2 0x25A0 DUP4 PUSH2 0x1ED0 JUMP JUMPDEST SWAP3 POP PUSH2 0x25CD PUSH32 0xFFFFFFFFFFFFFFFFFFFFFFFFFFFFFFFFFFFFFFFFFFFFFFFFFFFFFFFFFFFFFFFF DUP5 DUP5 PUSH2 0x24BA JUMP JUMPDEST SWAP1 POP SWAP3 SWAP2 POP POP JUMP JUMPDEST PUSH0 PUSH2 0x25DF DUP3 PUSH2 0x1ED0 JUMP JUMPDEST SWAP2 POP PUSH2 0x25EA DUP4 PUSH2 0x1ED0 JUMP JUMPDEST SWAP3 POP DUP3 DUP3 MUL PUSH2 0x25F8 DUP2 PUSH2 0x1ED0 JUMP JUMPDEST SWAP2 POP DUP3 DUP3 DIV DUP5 EQ DUP4 ISZERO OR PUSH2 0x260F JUMPI PUSH2 0x260E PUSH2 0x242F JUMP JUMPDEST JUMPDEST POP SWAP3 SWAP2 POP POP JUMP JUMPDEST PUSH32 0x4E6F7420656E6F756768206D6F6E657900000000000000000000000000000000 PUSH0 DUP3 ADD MSTORE POP JUMP JUMPDEST PUSH0 PUSH2 0x264A PUSH1 0x10 DUP4 PUSH2 0x227F JUMP JUMPDEST SWAP2 POP PUSH2 0x2655 DUP3 PUSH2 0x2616 JUMP JUMPDEST PUSH1 0x20 DUP3 ADD SWAP1 POP SWAP2 SWAP1 POP JUMP JUMPDEST PUSH0 PUSH1 0x20 DUP3 ADD SWAP1 POP DUP2 DUP2 SUB PUSH0 DUP4 ADD MSTORE PUSH2 0x2677 DUP2 PUSH2 0x263E JUMP JUMPDEST SWAP1 POP SWAP2 SWAP1 POP JUMP JUMPDEST PUSH32 0x416C726561647920657869737473000000000000000000000000000000000000 PUSH0 DUP3 ADD MSTORE POP JUMP JUMPDEST PUSH0 PUSH2 0x26B2 PUSH1 0xE DUP4 PUSH2 0x227F JUMP JUMPDEST SWAP2 POP PUSH2 0x26BD DUP3 PUSH2 0x267E JUMP JUMPDEST PUSH1 0x20 DUP3 ADD SWAP1 POP SWAP2 SWAP1 POP JUMP JUMPDEST PUSH0 PUSH1 0x20 DUP3 ADD SWAP1 POP DUP2 DUP2 SUB PUSH0 DUP4 ADD MSTORE PUSH2 0x26DF DUP2 PUSH2 0x26A6 JUMP JUMPDEST SWAP1 POP SWAP2 SWAP1 POP JUMP JUMPDEST PUSH0 DUP3 SWAP1 POP SWAP3 SWAP2 POP POP JUMP JUMPDEST PUSH32 0x4E487B7100000000000000000000000000000000000000000000000000000000 PUSH0 MSTORE PUSH1 0x41 PUSH1 0x4 MSTORE PUSH1 0x24 PUSH0 REVERT JUMPDEST PUSH0 DUP2 SWAP1 POP DUP2 PUSH0 MSTORE PUSH1 0x20 PUSH0 KECCAK256 SWAP1 POP SWAP2 SWAP1 POP JUMP JUMPDEST PUSH0 PUSH1 0x20 PUSH1 0x1F DUP4 ADD DIV SWAP1 POP SWAP2 SWAP1 POP JUMP JUMPDEST PUSH0 DUP3 DUP3 SHL SWAP1 POP SWAP3 SWAP2 POP POP JUMP JUMPDEST PUSH0 PUSH1 0x8 DUP4 MUL PUSH2 0x2779 PUSH32 0xFFFFFFFFFFFFFFFFFFFFFFFFFFFFFFFFFFFFFFFFFFFFFFFFFFFFFFFFFFFFFFFF DUP3 PUSH2 0x273E JUMP JUMPDEST PUSH2 0x2783 DUP7 DUP4 PUSH2 0x273E JUMP JUMPDEST SWAP6 POP DUP1 NOT DUP5 AND SWAP4 POP DUP1 DUP7 AND DUP5 OR SWAP3 POP POP POP SWAP4 SWAP3 POP POP POP JUMP JUMPDEST PUSH0 DUP2 SWAP1 POP SWAP2 SWAP1 POP JUMP JUMPDEST PUSH0 PUSH2 0x27BE PUSH2 0x27B9 PUSH2 0x27B4 DUP5 PUSH2 0x1ED0 JUMP JUMPDEST PUSH2 0x279B JUMP JUMPDEST PUSH2 0x1ED0 JUMP JUMPDEST SWAP1 POP SWAP2 SWAP1 POP JUMP JUMPDEST PUSH0 DUP2 SWAP1 POP SWAP2 SWAP1 POP JUMP JUMPDEST PUSH2 0x27D7 DUP4 PUSH2 0x27A4 JUMP JUMPDEST PUSH2 0x27EB PUSH2 0x27E3 DUP3 PUSH2 0x27C5 JUMP JUMPDEST DUP5 DUP5 SLOAD PUSH2 0x274A JUMP JUMPDEST DUP3 SSTORE POP POP POP POP JUMP JUMPDEST PUSH0 PUSH0 SWAP1 POP SWAP1 JUMP JUMPDEST PUSH2 0x2802 PUSH2 0x27F3 JUMP JUMPDEST PUSH2 0x280D DUP2 DUP5 DUP5 PUSH2 0x27CE JUMP JUMPDEST POP POP POP JUMP JUMPDEST JUMPDEST DUP2 DUP2 LT ISZERO PUSH2 0x2830 JUMPI PUSH2 0x2825 PUSH0 DUP3 PUSH2 0x27FA JUMP JUMPDEST PUSH1 0x1 DUP2 ADD SWAP1 POP PUSH2 0x2813 JUMP JUMPDEST POP POP JUMP JUMPDEST PUSH1 0x1F DUP3 GT ISZERO PUSH2 0x2875 JUMPI PUSH2 0x2846 DUP2 PUSH2 0x271D JUMP JUMPDEST PUSH2 0x284F DUP5 PUSH2 0x272F JUMP JUMPDEST DUP2 ADD PUSH1 0x20 DUP6 LT ISZERO PUSH2 0x285E JUMPI DUP2 SWAP1 POP JUMPDEST PUSH2 0x2872 PUSH2 0x286A DUP6 PUSH2 0x272F JUMP JUMPDEST DUP4 ADD DUP3 PUSH2 0x2812 JUMP JUMPDEST POP POP JUMPDEST POP POP POP JUMP JUMPDEST PUSH0 DUP3 DUP3 SHR SWAP1 POP SWAP3 SWAP2 POP POP JUMP JUMPDEST PUSH0 PUSH2 0x2895 PUSH0 NOT DUP5 PUSH1 0x8 MUL PUSH2 0x287A JUMP JUMPDEST NOT DUP1 DUP4 AND SWAP2 POP POP SWAP3 SWAP2 POP POP JUMP JUMPDEST PUSH0 PUSH2 0x28AD DUP4 DUP4 PUSH2 0x2886 JUMP JUMPDEST SWAP2 POP DUP3 PUSH1 0x2 MUL DUP3 OR SWAP1 POP SWAP3 SWAP2 POP POP JUMP JUMPDEST PUSH2 0x28C7 DUP4 DUP4 PUSH2 0x26E6 JUMP JUMPDEST PUSH8 0xFFFFFFFFFFFFFFFF DUP2 GT ISZERO PUSH2 0x28E0 JUMPI PUSH2 0x28DF PUSH2 0x26F0 JUMP JUMPDEST JUMPDEST PUSH2 0x28EA DUP3 SLOAD PUSH2 0x224F JUMP JUMPDEST PUSH2 0x28F5 DUP3 DUP3 DUP6 PUSH2 0x2834 JUMP JUMPDEST PUSH0 PUSH1 0x1F DUP4 GT PUSH1 0x1 DUP2 EQ PUSH2 0x2922 JUMPI PUSH0 DUP5 ISZERO PUSH2 0x2910 JUMPI DUP3 DUP8 ADD CALLDATALOAD SWAP1 POP JUMPDEST PUSH2 0x291A DUP6 DUP3 PUSH2 0x28A2 JUMP JUMPDEST DUP7 SSTORE POP PUSH2 0x2981 JUMP JUMPDEST PUSH1 0x1F NOT DUP5 AND PUSH2 0x2930 DUP7 PUSH2 0x271D JUMP JUMPDEST PUSH0 JUMPDEST DUP3 DUP2 LT ISZERO PUSH2 0x2957 JUMPI DUP5 DUP10 ADD CALLDATALOAD DUP3 SSTORE PUSH1 0x1 DUP3 ADD SWAP2 POP PUSH1 0x20 DUP6 ADD SWAP5 POP PUSH1 0x20 DUP2 ADD SWAP1 POP PUSH2 0x2932 JUMP JUMPDEST DUP7 DUP4 LT ISZERO PUSH2 0x2974 JUMPI DUP5 DUP10 ADD CALLDATALOAD PUSH2 0x2970 PUSH1 0x1F DUP10 AND DUP3 PUSH2 0x2886 JUMP JUMPDEST DUP4 SSTORE POP JUMPDEST PUSH1 0x1 PUSH1 0x2 DUP9 MUL ADD DUP9 SSTORE POP POP POP JUMPDEST POP POP POP POP POP POP POP JUMP JUMPDEST PUSH32 0x496E76616C696420726563697069656E74000000000000000000000000000000 PUSH0 DUP3 ADD MSTORE POP JUMP JUMPDEST PUSH0 PUSH2 0x29BE PUSH1 0x11 DUP4 PUSH2 0x227F JUMP JUMPDEST SWAP2 POP PUSH2 0x29C9 DUP3 PUSH2 0x298A JUMP JUMPDEST PUSH1 0x20 DUP3 ADD SWAP1 POP SWAP2 SWAP1 POP JUMP JUMPDEST PUSH0 PUSH1 0x20 DUP3 ADD SWAP1 POP DUP2 DUP2 SUB PUSH0 DUP4 ADD MSTORE PUSH2 0x29EB DUP2 PUSH2 0x29B2 JUMP JUMPDEST SWAP1 POP SWAP2 SWAP1 POP JUMP JUMPDEST PUSH0 PUSH2 0x29FC DUP3 PUSH2 0x1ED0 JUMP JUMPDEST SWAP2 POP PUSH2 0x2A07 DUP4 PUSH2 0x1ED0 JUMP JUMPDEST SWAP3 POP DUP3 DUP3 SUB SWAP1 POP DUP2 DUP2 GT ISZERO PUSH2 0x2A1F JUMPI PUSH2 0x2A1E PUSH2 0x242F JUMP JUMPDEST JUMPDEST SWAP3 SWAP2 POP POP JUMP JUMPDEST PUSH0 PUSH2 0x2A2F DUP3 PUSH2 0x1ED0 JUMP JUMPDEST SWAP2 POP PUSH2 0x2A3A DUP4 PUSH2 0x1ED0 JUMP JUMPDEST SWAP3 POP DUP3 DUP3 ADD SWAP1 POP DUP1 DUP3 GT ISZERO PUSH2 0x2A52 JUMPI PUSH2 0x2A51 PUSH2 0x242F JUMP JUMPDEST JUMPDEST SWAP3 SWAP2 POP POP JUMP JUMPDEST PUSH0 DUP3 DUP3 MSTORE PUSH1 0x20 DUP3 ADD SWAP1 POP SWAP3 SWAP2 POP POP JUMP JUMPDEST POP JUMP JUMPDEST PUSH0 PUSH2 0x2A76 PUSH0 DUP4 PUSH2 0x2A58 JUMP JUMPDEST SWAP2 POP PUSH2 0x2A81 DUP3 PUSH2 0x2A68 JUMP JUMPDEST PUSH0 DUP3 ADD SWAP1 POP SWAP2 SWAP1 POP JUMP JUMPDEST PUSH0 PUSH1 0x80 DUP3 ADD SWAP1 POP PUSH2 0x2A9E PUSH0 DUP4 ADD DUP7 PUSH2 0x1F5E JUMP JUMPDEST PUSH2 0x2AAB PUSH1 0x20 DUP4 ADD DUP6 PUSH2 0x1F5E JUMP JUMPDEST PUSH2 0x2AB8 PUSH1 0x40 DUP4 ADD DUP5 PUSH2 0x213B JUMP JUMPDEST DUP2 DUP2 SUB PUSH1 0x60 DUP4 ADD MSTORE PUSH2 0x2AC9 DUP2 PUSH2 0x2A6B JUMP JUMPDEST SWAP1 POP SWAP5 SWAP4 POP POP POP POP JUMP JUMPDEST PUSH0 DUP2 MLOAD SWAP1 POP PUSH2 0x2AE1 DUP2 PUSH2 0x1E48 JUMP JUMPDEST SWAP3 SWAP2 POP POP JUMP JUMPDEST PUSH0 PUSH1 0x20 DUP3 DUP5 SUB SLT ISZERO PUSH2 0x2AFC JUMPI PUSH2 0x2AFB PUSH2 0x1E15 JUMP JUMPDEST JUMPDEST PUSH0 PUSH2 0x2B09 DUP5 DUP3 DUP6 ADD PUSH2 0x2AD3 JUMP JUMPDEST SWAP2 POP POP SWAP3 SWAP2 POP POP JUMP JUMPDEST PUSH32 0x496E76616C696420726563696576657200000000000000000000000000000000 PUSH0 DUP3 ADD MSTORE POP JUMP JUMPDEST PUSH0 PUSH2 0x2B46 PUSH1 0x10 DUP4 PUSH2 0x227F JUMP JUMPDEST SWAP2 POP PUSH2 0x2B51 DUP3 PUSH2 0x2B12 JUMP JUMPDEST PUSH1 0x20 DUP3 ADD SWAP1 POP SWAP2 SWAP1 POP JUMP JUMPDEST PUSH0 PUSH1 0x20 DUP3 ADD SWAP1 POP DUP2 DUP2 SUB PUSH0 DUP4 ADD MSTORE PUSH2 0x2B73 DUP2 PUSH2 0x2B3A JUMP JUMPDEST SWAP1 POP SWAP2 SWAP1 POP JUMP JUMPDEST PUSH32 0x546F6B656E2072656A6563746564000000000000000000000000000000000000 PUSH0 DUP3 ADD MSTORE POP JUMP JUMPDEST PUSH0 PUSH2 0x2BAE PUSH1 0xE DUP4 PUSH2 0x227F JUMP JUMPDEST SWAP2 POP PUSH2 0x2BB9 DUP3 PUSH2 0x2B7A JUMP JUMPDEST PUSH1 0x20 DUP3 ADD SWAP1 POP SWAP2 SWAP1 POP JUMP JUMPDEST PUSH0 PUSH1 0x20 DUP3 ADD SWAP1 POP DUP2 DUP2 SUB PUSH0 DUP4 ADD MSTORE PUSH2 0x2BDB DUP2 PUSH2 0x2BA2 JUMP JUMPDEST SWAP1 POP SWAP2 SWAP1 POP JUMP JUMPDEST PUSH0 DUP2 SWAP1 POP SWAP3 SWAP2 POP POP JUMP JUMPDEST PUSH0 PUSH2 0x2BF7 PUSH0 DUP4 PUSH2 0x2BE2 JUMP JUMPDEST SWAP2 POP PUSH2 0x2C02 DUP3 PUSH2 0x2A68 JUMP JUMPDEST PUSH0 DUP3 ADD SWAP1 POP SWAP2 SWAP1 POP JUMP JUMPDEST PUSH0 PUSH2 0x2C16 DUP3 PUSH2 0x2BEC JUMP JUMPDEST SWAP2 POP DUP2 SWAP1 POP SWAP2 SWAP1 POP JUMP JUMPDEST PUSH32 0x5061796D656E74206661696C6564000000000000000000000000000000000000 PUSH0 DUP3 ADD MSTORE POP JUMP JUMPDEST PUSH0 PUSH2 0x2C54 PUSH1 0xE DUP4 PUSH2 0x227F JUMP JUMPDEST SWAP2 POP PUSH2 0x2C5F DUP3 PUSH2 0x2C20 JUMP JUMPDEST PUSH1 0x20 DUP3 ADD SWAP1 POP SWAP2 SWAP1 POP JUMP JUMPDEST PUSH0 PUSH1 0x20 DUP3 ADD SWAP1 POP DUP2 DUP2 SUB PUSH0 DUP4 ADD MSTORE PUSH2 0x2C81 DUP2 PUSH2 0x2C48 JUMP JUMPDEST SWAP1 POP SWAP2 SWAP1 POP JUMP JUMPDEST PUSH32 0x496E76616C696420616464726573730000000000000000000000000000000000 PUSH0 DUP3 ADD MSTORE POP JUMP JUMPDEST PUSH0 PUSH2 0x2CBC PUSH1 0xF DUP4 PUSH2 0x227F JUMP JUMPDEST SWAP2 POP PUSH2 0x2CC7 DUP3 PUSH2 0x2C88 JUMP JUMPDEST PUSH1 0x20 DUP3 ADD SWAP1 POP SWAP2 SWAP1 POP JUMP JUMPDEST PUSH0 PUSH1 0x20 DUP3 ADD SWAP1 POP DUP2 DUP2 SUB PUSH0 DUP4 ADD MSTORE PUSH2 0x2CE9 DUP2 PUSH2 0x2CB0 JUMP JUMPDEST SWAP1 POP SWAP2 SWAP1 POP JUMP JUMPDEST PUSH32 0x496E73756666696369656E742066756E64730000000000000000000000000000 PUSH0 DUP3 ADD MSTORE POP JUMP JUMPDEST PUSH0 PUSH2 0x2D24 PUSH1 0x12 DUP4 PUSH2 0x227F JUMP JUMPDEST SWAP2 POP PUSH2 0x2D2F DUP3 PUSH2 0x2CF0 JUMP JUMPDEST PUSH1 0x20 DUP3 ADD SWAP1 POP SWAP2 SWAP1 POP JUMP JUMPDEST PUSH0 PUSH1 0x20 DUP3 ADD SWAP1 POP DUP2 DUP2 SUB PUSH0 DUP4 ADD MSTORE PUSH2 0x2D51 DUP2 PUSH2 0x2D18 JUMP JUMPDEST SWAP1 POP SWAP2 SWAP1 POP JUMP JUMPDEST PUSH32 0x5472616E73666572206661696C65640000000000000000000000000000000000 PUSH0 DUP3 ADD MSTORE POP JUMP JUMPDEST PUSH0 PUSH2 0x2D8C PUSH1 0xF DUP4 PUSH2 0x227F JUMP JUMPDEST SWAP2 POP PUSH2 0x2D97 DUP3 PUSH2 0x2D58 JUMP JUMPDEST PUSH1 0x20 DUP3 ADD SWAP1 POP SWAP2 SWAP1 POP JUMP JUMPDEST PUSH0 PUSH1 0x20 DUP3 ADD SWAP1 POP DUP2 DUP2 SUB PUSH0 DUP4 ADD MSTORE PUSH2 0x2DB9 DUP2 PUSH2 0x2D80 JUMP JUMPDEST SWAP1 POP SWAP2 SWAP1 POP JUMP JUMPDEST PUSH0 PUSH2 0x2DCA DUP3 PUSH2 0x1ED0 JUMP JUMPDEST SWAP2 POP PUSH2 0x2DD5 DUP4 PUSH2 0x21AE JUMP JUMPDEST SWAP3 POP PUSH2 0x2E02 PUSH32 0xFFFFFFFFFFFFFFFFFFFFFFFFFFFFFFFFFFFFFFFFFFFFFFFFFFFFFFFFFFFFFFFF DUP5 DUP5 PUSH2 0x24BA JUMP JUMPDEST SWAP1 POP SWAP3 SWAP2 POP POP JUMP JUMPDEST PUSH32 0x4E487B7100000000000000000000000000000000000000000000000000000000 PUSH0 MSTORE PUSH1 0x32 PUSH1 0x4 MSTORE PUSH1 0x24 PUSH0 REVERT JUMPDEST PUSH0 DUP2 SWAP1 POP DUP2 PUSH0 MSTORE PUSH1 0x20 PUSH0 KECCAK256 SWAP1 POP SWAP2 SWAP1 POP JUMP JUMPDEST PUSH0 DUP2 SLOAD PUSH2 0x2E55 DUP2 PUSH2 0x224F JUMP JUMPDEST PUSH2 0x2E5F DUP2 DUP7 PUSH2 0x2BE2 JUMP JUMPDEST SWAP5 POP PUSH1 0x1 DUP3 AND PUSH0 DUP2 EQ PUSH2 0x2E79 JUMPI PUSH1 0x1 DUP2 EQ PUSH2 0x2E8E JUMPI PUSH2 0x2EC0 JUMP JUMPDEST PUSH1 0xFF NOT DUP4 AND DUP7 MSTORE DUP2 ISZERO ISZERO DUP3 MUL DUP7 ADD SWAP4 POP PUSH2 0x2EC0 JUMP JUMPDEST PUSH2 0x2E97 DUP6 PUSH2 0x2E37 JUMP JUMPDEST PUSH0 JUMPDEST DUP4 DUP2 LT ISZERO PUSH2 0x2EB8 JUMPI DUP2 SLOAD DUP2 DUP10 ADD MSTORE PUSH1 0x1 DUP3 ADD SWAP2 POP PUSH1 0x20 DUP2 ADD SWAP1 POP PUSH2 0x2E99 JUMP JUMPDEST DUP4 DUP9 ADD SWAP6 POP POP POP JUMPDEST POP POP POP SWAP3 SWAP2 POP POP JUMP JUMPDEST PUSH0 PUSH2 0x2ED4 DUP3 DUP5 PUSH2 0x2E49 JUMP JUMPDEST SWAP2 POP DUP2 SWAP1 POP SWAP3 SWAP2 POP POP JUMP JUMPDEST PUSH0 PUSH2 0x2EE9 DUP3 PUSH2 0x21AE JUMP JUMPDEST SWAP2 POP PUSH2 0x2EF4 DUP4 PUSH2 0x21AE JUMP JUMPDEST SWAP3 POP DUP3 DUP3 ADD SWAP1 POP PUSH1 0xFF DUP2 GT ISZERO PUSH2 0x2F0D JUMPI PUSH2 0x2F0C PUSH2 0x242F JUMP JUMPDEST JUMPDEST SWAP3 SWAP2 POP POP JUMP JUMPDEST PUSH32 0x4E487B7100000000000000000000000000000000000000000000000000000000 PUSH0 MSTORE PUSH1 0x12 PUSH1 0x4 MSTORE PUSH1 0x24 PUSH0 REVERT JUMPDEST PUSH0 PUSH2 0x2F4A DUP3 PUSH2 0x1ED0 JUMP JUMPDEST SWAP2 POP PUSH2 0x2F55 DUP4 PUSH2 0x1ED0 JUMP JUMPDEST SWAP3 POP DUP3 PUSH2 0x2F65 JUMPI PUSH2 0x2F64 PUSH2 0x2F13 JUMP JUMPDEST JUMPDEST DUP3 DUP3 DIV SWAP1 POP SWAP3 SWAP2 POP POP JUMP INVALID LOG2 PUSH5 0x6970667358 0x22 SLT KECCAK256 0xE8 0x24 PUSH8 0xA0F587FCBE307A1A EOFCREATE 0x3B EQ PUSH11 0xCFC0FA6BCDC6C483388151 0xEA EXTCODESIZE SWAP14 0xAD 0xC0 INVALID PUSH5 0x736F6C6343 STOP ADDMOD 0x1F STOP CALLER "
		},
		"gasEstimates": {
			"creation": {
				"codeDepositCost": "2439600",
				"executionCost": "54001",
				"totalCost": "2493601"
			},
			"external": {
				"FEE()": "369",
				"addWeapon(uint256,string,uint256)": "infinite",
				"approve(address,uint256)": "infinite",
				"balanceOf(address)": "2930",
				"collectProfits()": "infinite",
				"createNewToken(string)": "infinite",
				"getApproved(uint256)": "5210",
				"incrementFirePower(uint256,uint8)": "infinite",
				"ownerOf(uint256)": "2985",
				"removeMonsterToken(uint256)": "infinite",
				"safeTransferFrom(address,address,uint256)": "infinite",
				"supportsInterface(bytes4)": "707",
				"transferFrom(address,address,uint256)": "infinite"
			}
		},
		"methodIdentifiers": {
			"FEE()": "c57981b5",
			"addWeapon(uint256,string,uint256)": "0a0eac29",
			"approve(address,uint256)": "095ea7b3",
			"balanceOf(address)": "70a08231",
			"collectProfits()": "c958e0d6",
			"createNewToken(string)": "b90f1aaa",
			"getApproved(uint256)": "081812fc",
			"incrementFirePower(uint256,uint8)": "d6ad8a94",
			"ownerOf(uint256)": "6352211e",
			"removeMonsterToken(uint256)": "50fac4f1",
			"safeTransferFrom(address,address,uint256)": "42842e0e",
			"supportsInterface(bytes4)": "01ffc9a7",
			"transferFrom(address,address,uint256)": "23b872dd"
		}
	},
	"abi": [
		{
			"inputs": [],
			"stateMutability": "nonpayable",
			"type": "constructor"
		},
		{
			"anonymous": false,
			"inputs": [
				{
					"indexed": true,
					"internalType": "address",
					"name": "_owner",
					"type": "address"
				},
				{
					"indexed": true,
					"internalType": "address",
					"name": "_approved",
					"type": "address"
				},
				{
					"indexed": true,
					"internalType": "uint256",
					"name": "_tokenId",
					"type": "uint256"
				}
			],
			"name": "Approval",
			"type": "event"
		},
		{
			"anonymous": false,
			"inputs": [
				{
					"indexed": true,
					"internalType": "address",
					"name": "_from",
					"type": "address"
				},
				{
					"indexed": true,
					"internalType": "address",
					"name": "_to",
					"type": "address"
				},
				{
					"indexed": true,
					"internalType": "uint256",
					"name": "_tokenId",
					"type": "uint256"
				}
			],
			"name": "Transfer",
			"type": "event"
		},
		{
			"inputs": [],
			"name": "FEE",
			"outputs": [
				{
					"internalType": "uint256",
					"name": "",
					"type": "uint256"
				}
			],
			"stateMutability": "view",
			"type": "function"
		},
		{
			"inputs": [
				{
					"internalType": "uint256",
					"name": "token_id_p",
					"type": "uint256"
				},
				{
					"internalType": "string",
					"name": "nombre_arma",
					"type": "string"
				},
				{
					"internalType": "uint256",
					"name": "fire_power",
					"type": "uint256"
				}
			],
			"name": "addWeapon",
			"outputs": [],
			"stateMutability": "payable",
			"type": "function"
		},
		{
			"inputs": [
				{
					"internalType": "address",
					"name": "approved",
					"type": "address"
				},
				{
					"internalType": "uint256",
					"name": "tokenId",
					"type": "uint256"
				}
			],
			"name": "approve",
			"outputs": [],
			"stateMutability": "payable",
			"type": "function"
		},
		{
			"inputs": [
				{
					"internalType": "address",
					"name": "owner",
					"type": "address"
				}
			],
			"name": "balanceOf",
			"outputs": [
				{
					"internalType": "uint256",
					"name": "",
					"type": "uint256"
				}
			],
			"stateMutability": "view",
			"type": "function"
		},
		{
			"inputs": [],
			"name": "collectProfits",
			"outputs": [],
			"stateMutability": "nonpayable",
			"type": "function"
		},
		{
			"inputs": [
				{
					"internalType": "string",
					"name": "nombre",
					"type": "string"
				}
			],
			"name": "createNewToken",
			"outputs": [
				{
					"internalType": "uint256",
					"name": "",
					"type": "uint256"
				}
			],
			"stateMutability": "payable",
			"type": "function"
		},
		{
			"inputs": [
				{
					"internalType": "uint256",
					"name": "tokenId",
					"type": "uint256"
				}
			],
			"name": "getApproved",
			"outputs": [
				{
					"internalType": "address",
					"name": "",
					"type": "address"
				}
			],
			"stateMutability": "view",
			"type": "function"
		},
		{
			"inputs": [
				{
					"internalType": "uint256",
					"name": "token_id_p",
					"type": "uint256"
				},
				{
					"internalType": "uint8",
					"name": "incr",
					"type": "uint8"
				}
			],
			"name": "incrementFirePower",
			"outputs": [],
			"stateMutability": "payable",
			"type": "function"
		},
		{
			"inputs": [
				{
					"internalType": "uint256",
					"name": "tokenId",
					"type": "uint256"
				}
			],
			"name": "ownerOf",
			"outputs": [
				{
					"internalType": "address",
					"name": "",
					"type": "address"
				}
			],
			"stateMutability": "view",
			"type": "function"
		},
		{
			"inputs": [
				{
					"internalType": "uint256",
					"name": "token_id_u",
					"type": "uint256"
				}
			],
			"name": "removeMonsterToken",
			"outputs": [],
			"stateMutability": "payable",
			"type": "function"
		},
		{
			"inputs": [
				{
					"internalType": "address",
					"name": "from",
					"type": "address"
				},
				{
					"internalType": "address",
					"name": "to",
					"type": "address"
				},
				{
					"internalType": "uint256",
					"name": "tokenId",
					"type": "uint256"
				}
			],
			"name": "safeTransferFrom",
			"outputs": [],
			"stateMutability": "payable",
			"type": "function"
		},
		{
			"inputs": [
				{
					"internalType": "bytes4",
					"name": "interfaceId",
					"type": "bytes4"
				}
			],
			"name": "supportsInterface",
			"outputs": [
				{
					"internalType": "bool",
					"name": "",
					"type": "bool"
				}
			],
			"stateMutability": "pure",
			"type": "function"
		},
		{
			"inputs": [
				{
					"internalType": "address",
					"name": "from",
					"type": "address"
				},
				{
					"internalType": "address",
					"name": "to",
					"type": "address"
				},
				{
					"internalType": "uint256",
					"name": "tokenId",
					"type": "uint256"
				}
			],
			"name": "transferFrom",
			"outputs": [],
			"stateMutability": "payable",
			"type": "function"
		},
		{
			"stateMutability": "payable",
			"type": "receive"
		}
	]
}